{
  "_format": "hh-sol-artifact-1",
  "contractName": "GrepStakingPool",
  "sourceName": "contracts/GrepStakingPool.sol",
  "abi": [
    {
      "inputs": [
        {
          "internalType": "address",
          "name": "_grepToken",
          "type": "address"
        }
      ],
      "stateMutability": "nonpayable",
      "type": "constructor"
    },
    {
      "inputs": [
        {
          "internalType": "address",
          "name": "owner",
          "type": "address"
        }
      ],
      "name": "OwnableInvalidOwner",
      "type": "error"
    },
    {
      "inputs": [
        {
          "internalType": "address",
          "name": "account",
          "type": "address"
        }
      ],
      "name": "OwnableUnauthorizedAccount",
      "type": "error"
    },
    {
      "inputs": [],
      "name": "ReentrancyGuardReentrantCall",
      "type": "error"
    },
    {
      "inputs": [
        {
          "internalType": "address",
          "name": "token",
          "type": "address"
        }
      ],
      "name": "SafeERC20FailedOperation",
      "type": "error"
    },
    {
      "anonymous": false,
      "inputs": [
        {
          "indexed": true,
          "internalType": "address",
          "name": "previousOwner",
          "type": "address"
        },
        {
          "indexed": true,
          "internalType": "address",
          "name": "newOwner",
          "type": "address"
        }
      ],
      "name": "OwnershipTransferred",
      "type": "event"
    },
    {
      "anonymous": false,
      "inputs": [
        {
          "indexed": true,
          "internalType": "address",
          "name": "user",
          "type": "address"
        },
        {
          "indexed": false,
          "internalType": "uint256",
          "name": "amount",
          "type": "uint256"
        }
      ],
      "name": "RewardsClaimed",
      "type": "event"
    },
    {
      "anonymous": false,
      "inputs": [
        {
          "indexed": true,
          "internalType": "address",
          "name": "user",
          "type": "address"
        },
        {
          "indexed": false,
          "internalType": "uint256",
          "name": "amount",
          "type": "uint256"
        },
        {
          "indexed": false,
          "internalType": "enum GrepStakingPool.Tier",
          "name": "tier",
          "type": "uint8"
        },
        {
          "indexed": false,
          "internalType": "uint256",
          "name": "lockedUntil",
          "type": "uint256"
        }
      ],
      "name": "Staked",
      "type": "event"
    },
    {
      "anonymous": false,
      "inputs": [
        {
          "indexed": true,
          "internalType": "address",
          "name": "user",
          "type": "address"
        },
        {
          "indexed": false,
          "internalType": "enum GrepStakingPool.Tier",
          "name": "oldTier",
          "type": "uint8"
        },
        {
          "indexed": false,
          "internalType": "enum GrepStakingPool.Tier",
          "name": "newTier",
          "type": "uint8"
        }
      ],
      "name": "TierUpgraded",
      "type": "event"
    },
    {
      "anonymous": false,
      "inputs": [
        {
          "indexed": true,
          "internalType": "address",
          "name": "user",
          "type": "address"
        },
        {
          "indexed": false,
          "internalType": "uint256",
          "name": "amount",
          "type": "uint256"
        }
      ],
      "name": "Unstaked",
      "type": "event"
    },
    {
      "inputs": [],
      "name": "claimRewards",
      "outputs": [],
      "stateMutability": "nonpayable",
      "type": "function"
    },
    {
      "inputs": [
        {
          "internalType": "address",
          "name": "token",
          "type": "address"
        },
        {
          "internalType": "uint256",
          "name": "amount",
          "type": "uint256"
        }
      ],
      "name": "emergencyWithdraw",
      "outputs": [],
      "stateMutability": "nonpayable",
      "type": "function"
    },
    {
      "inputs": [],
      "name": "getAllTiers",
      "outputs": [
        {
          "components": [
            {
              "internalType": "uint256",
              "name": "minStake",
              "type": "uint256"
            },
            {
              "internalType": "uint256",
              "name": "lockDuration",
              "type": "uint256"
            },
            {
              "internalType": "uint256",
              "name": "multiplier",
              "type": "uint256"
            },
            {
              "internalType": "uint256",
              "name": "apyBps",
              "type": "uint256"
            },
            {
              "internalType": "uint256",
              "name": "bonusPlays",
              "type": "uint256"
            }
          ],
          "internalType": "struct GrepStakingPool.TierInfo",
          "name": "flexible",
          "type": "tuple"
        },
        {
          "components": [
            {
              "internalType": "uint256",
              "name": "minStake",
              "type": "uint256"
            },
            {
              "internalType": "uint256",
              "name": "lockDuration",
              "type": "uint256"
            },
            {
              "internalType": "uint256",
              "name": "multiplier",
              "type": "uint256"
            },
            {
              "internalType": "uint256",
              "name": "apyBps",
              "type": "uint256"
            },
            {
              "internalType": "uint256",
              "name": "bonusPlays",
              "type": "uint256"
            }
          ],
          "internalType": "struct GrepStakingPool.TierInfo",
          "name": "bronze",
          "type": "tuple"
        },
        {
          "components": [
            {
              "internalType": "uint256",
              "name": "minStake",
              "type": "uint256"
            },
            {
              "internalType": "uint256",
              "name": "lockDuration",
              "type": "uint256"
            },
            {
              "internalType": "uint256",
              "name": "multiplier",
              "type": "uint256"
            },
            {
              "internalType": "uint256",
              "name": "apyBps",
              "type": "uint256"
            },
            {
              "internalType": "uint256",
              "name": "bonusPlays",
              "type": "uint256"
            }
          ],
          "internalType": "struct GrepStakingPool.TierInfo",
          "name": "silver",
          "type": "tuple"
        },
        {
          "components": [
            {
              "internalType": "uint256",
              "name": "minStake",
              "type": "uint256"
            },
            {
              "internalType": "uint256",
              "name": "lockDuration",
              "type": "uint256"
            },
            {
              "internalType": "uint256",
              "name": "multiplier",
              "type": "uint256"
            },
            {
              "internalType": "uint256",
              "name": "apyBps",
              "type": "uint256"
            },
            {
              "internalType": "uint256",
              "name": "bonusPlays",
              "type": "uint256"
            }
          ],
          "internalType": "struct GrepStakingPool.TierInfo",
          "name": "gold",
          "type": "tuple"
        },
        {
          "components": [
            {
              "internalType": "uint256",
              "name": "minStake",
              "type": "uint256"
            },
            {
              "internalType": "uint256",
              "name": "lockDuration",
              "type": "uint256"
            },
            {
              "internalType": "uint256",
              "name": "multiplier",
              "type": "uint256"
            },
            {
              "internalType": "uint256",
              "name": "apyBps",
              "type": "uint256"
            },
            {
              "internalType": "uint256",
              "name": "bonusPlays",
              "type": "uint256"
            }
          ],
          "internalType": "struct GrepStakingPool.TierInfo",
          "name": "diamond",
          "type": "tuple"
        }
      ],
      "stateMutability": "view",
      "type": "function"
    },
    {
      "inputs": [
        {
          "internalType": "address",
          "name": "user",
          "type": "address"
        }
      ],
      "name": "getStakeInfo",
      "outputs": [
        {
          "components": [
            {
              "internalType": "uint256",
              "name": "amount",
              "type": "uint256"
            },
            {
              "internalType": "enum GrepStakingPool.Tier",
              "name": "tier",
              "type": "uint8"
            },
            {
              "internalType": "uint256",
              "name": "stakedAt",
              "type": "uint256"
            },
            {
              "internalType": "uint256",
              "name": "lockedUntil",
              "type": "uint256"
            },
            {
              "internalType": "uint256",
              "name": "lastClaimAt",
              "type": "uint256"
            },
            {
              "internalType": "uint256",
              "name": "totalClaimed",
              "type": "uint256"
            },
            {
              "internalType": "uint256",
              "name": "pendingReward",
              "type": "uint256"
            },
            {
              "internalType": "uint256",
              "name": "multiplier",
              "type": "uint256"
            },
            {
              "internalType": "uint256",
              "name": "bonusPlays",
              "type": "uint256"
            }
          ],
          "internalType": "struct GrepStakingPool.FullStakeInfo",
          "name": "info",
          "type": "tuple"
        }
      ],
      "stateMutability": "view",
      "type": "function"
    },
    {
      "inputs": [
        {
          "internalType": "enum GrepStakingPool.Tier",
          "name": "tier",
          "type": "uint8"
        }
      ],
      "name": "getTierInfo",
      "outputs": [
        {
          "components": [
            {
              "internalType": "uint256",
              "name": "minStake",
              "type": "uint256"
            },
            {
              "internalType": "uint256",
              "name": "lockDuration",
              "type": "uint256"
            },
            {
              "internalType": "uint256",
              "name": "multiplier",
              "type": "uint256"
            },
            {
              "internalType": "uint256",
              "name": "apyBps",
              "type": "uint256"
            },
            {
              "internalType": "uint256",
              "name": "bonusPlays",
              "type": "uint256"
            }
          ],
          "internalType": "struct GrepStakingPool.TierInfo",
          "name": "",
          "type": "tuple"
        }
      ],
      "stateMutability": "view",
      "type": "function"
    },
    {
      "inputs": [
        {
          "internalType": "address",
          "name": "user",
          "type": "address"
        }
      ],
      "name": "getUserBonusPlays",
      "outputs": [
        {
          "internalType": "uint256",
          "name": "",
          "type": "uint256"
        }
      ],
      "stateMutability": "view",
      "type": "function"
    },
    {
      "inputs": [
        {
          "internalType": "address",
          "name": "user",
          "type": "address"
        }
      ],
      "name": "getUserMultiplier",
      "outputs": [
        {
          "internalType": "uint256",
          "name": "",
          "type": "uint256"
        }
      ],
      "stateMutability": "view",
      "type": "function"
    },
    {
      "inputs": [],
      "name": "grepMinter",
      "outputs": [
        {
          "internalType": "contract IGrepToken",
          "name": "",
          "type": "address"
        }
      ],
      "stateMutability": "view",
      "type": "function"
    },
    {
      "inputs": [],
      "name": "grepToken",
      "outputs": [
        {
          "internalType": "contract IERC20",
          "name": "",
          "type": "address"
        }
      ],
      "stateMutability": "view",
      "type": "function"
    },
    {
      "inputs": [],
      "name": "owner",
      "outputs": [
        {
          "internalType": "address",
          "name": "",
          "type": "address"
        }
      ],
      "stateMutability": "view",
      "type": "function"
    },
    {
      "inputs": [
        {
          "internalType": "address",
          "name": "user",
          "type": "address"
        }
      ],
      "name": "pendingRewards",
      "outputs": [
        {
          "internalType": "uint256",
          "name": "",
          "type": "uint256"
        }
      ],
      "stateMutability": "view",
      "type": "function"
    },
    {
      "inputs": [],
      "name": "renounceOwnership",
      "outputs": [],
      "stateMutability": "nonpayable",
      "type": "function"
    },
    {
      "inputs": [
        {
          "internalType": "uint256",
          "name": "amount",
          "type": "uint256"
        },
        {
          "internalType": "enum GrepStakingPool.Tier",
          "name": "tier",
          "type": "uint8"
        }
      ],
      "name": "stake",
      "outputs": [],
      "stateMutability": "nonpayable",
      "type": "function"
    },
    {
      "inputs": [
        {
          "internalType": "address",
          "name": "",
          "type": "address"
        }
      ],
      "name": "stakes",
      "outputs": [
        {
          "internalType": "uint256",
          "name": "amount",
          "type": "uint256"
        },
        {
          "internalType": "enum GrepStakingPool.Tier",
          "name": "tier",
          "type": "uint8"
        },
        {
          "internalType": "uint256",
          "name": "stakedAt",
          "type": "uint256"
        },
        {
          "internalType": "uint256",
          "name": "lockedUntil",
          "type": "uint256"
        },
        {
          "internalType": "uint256",
          "name": "lastClaimAt",
          "type": "uint256"
        },
        {
          "internalType": "uint256",
          "name": "totalClaimed",
          "type": "uint256"
        }
      ],
      "stateMutability": "view",
      "type": "function"
    },
    {
      "inputs": [
        {
          "internalType": "enum GrepStakingPool.Tier",
          "name": "",
          "type": "uint8"
        }
      ],
      "name": "tierInfo",
      "outputs": [
        {
          "internalType": "uint256",
          "name": "minStake",
          "type": "uint256"
        },
        {
          "internalType": "uint256",
          "name": "lockDuration",
          "type": "uint256"
        },
        {
          "internalType": "uint256",
          "name": "multiplier",
          "type": "uint256"
        },
        {
          "internalType": "uint256",
          "name": "apyBps",
          "type": "uint256"
        },
        {
          "internalType": "uint256",
          "name": "bonusPlays",
          "type": "uint256"
        }
      ],
      "stateMutability": "view",
      "type": "function"
    },
    {
      "inputs": [],
      "name": "totalRewardsDistributed",
      "outputs": [
        {
          "internalType": "uint256",
          "name": "",
          "type": "uint256"
        }
      ],
      "stateMutability": "view",
      "type": "function"
    },
    {
      "inputs": [],
      "name": "totalStaked",
      "outputs": [
        {
          "internalType": "uint256",
          "name": "",
          "type": "uint256"
        }
      ],
      "stateMutability": "view",
      "type": "function"
    },
    {
      "inputs": [],
      "name": "totalStakers",
      "outputs": [
        {
          "internalType": "uint256",
          "name": "",
          "type": "uint256"
        }
      ],
      "stateMutability": "view",
      "type": "function"
    },
    {
      "inputs": [
        {
          "internalType": "address",
          "name": "newOwner",
          "type": "address"
        }
      ],
      "name": "transferOwnership",
      "outputs": [],
      "stateMutability": "nonpayable",
      "type": "function"
    },
    {
      "inputs": [],
      "name": "unstake",
      "outputs": [],
      "stateMutability": "nonpayable",
      "type": "function"
    }
  ],
  "bytecode": "0x60c06040523480156200001157600080fd5b5060405162001ece38038062001ece8339810160408190526200003491620005e0565b33806200005c57604051631e4fbdf760e01b8152600060048201526024015b60405180910390fd5b620000678162000590565b50600180556001600160a01b038116620000c45760405162461bcd60e51b815260206004820152601560248201527f496e76616c696420746f6b656e20616464726573730000000000000000000000604482015260640162000053565b6001600160a01b0316608081815260a091825260408051808401825268056bc75e2d63100000815260006020808301828152612af88486019081526101f460608087019182526002878a018181526001885281875297517fe90b7bceb6e7df5418fb78d8ee546e97c83a08bbccc01a0644d599ccd2a7c2e05593517fe90b7bceb6e7df5418fb78d8ee546e97c83a08bbccc01a0644d599ccd2a7c2e15591517fe90b7bceb6e7df5418fb78d8ee546e97c83a08bbccc01a0644d599ccd2a7c2e255517fe90b7bceb6e7df5418fb78d8ee546e97c83a08bbccc01a0644d599ccd2a7c2e35593517fe90b7bceb6e7df5418fb78d8ee546e97c83a08bbccc01a0644d599ccd2a7c2e45584518088018652683635c9adc5dea00000815262093a808184019081526130d48288019081526103208388019081526005848b0181815286895286885294517f679795a0195a1b76cdebb7c51d74e058aee92919b8c3389af86ef24535e8a28c5592517f679795a0195a1b76cdebb7c51d74e058aee92919b8c3389af86ef24535e8a28d5590517f679795a0195a1b76cdebb7c51d74e058aee92919b8c3389af86ef24535e8a28e55517f679795a0195a1b76cdebb7c51d74e058aee92919b8c3389af86ef24535e8a28f5590517f679795a0195a1b76cdebb7c51d74e058aee92919b8c3389af86ef24535e8a290558551808901875269010f0cf064dd59200000815262127500818501908152613a988289019081526104b0838901908152600a848c019081526003895286885293517f88601476d11616a71c5be67555bd1dff4b1cbf21533d2669b768b61518cfe1c35591517f88601476d11616a71c5be67555bd1dff4b1cbf21533d2669b768b61518cfe1c455517f88601476d11616a71c5be67555bd1dff4b1cbf21533d2669b768b61518cfe1c555517f88601476d11616a71c5be67555bd1dff4b1cbf21533d2669b768b61518cfe1c655517f88601476d11616a71c5be67555bd1dff4b1cbf21533d2669b768b61518cfe1c7558551808901875269021e19e0c9bab2400000815262278d0081850190815261445c8289019081526105dc838901908152600f848c019081526004895286885293517fee60d0579bcffd98e668647d59fec1ff86a7fb340ce572e844f234ae73a6918f5591517fee60d0579bcffd98e668647d59fec1ff86a7fb340ce572e844f234ae73a6919055517fee60d0579bcffd98e668647d59fec1ff86a7fb340ce572e844f234ae73a6919155517fee60d0579bcffd98e668647d59fec1ff86a7fb340ce572e844f234ae73a6919255517fee60d0579bcffd98e668647d59fec1ff86a7fb340ce572e844f234ae73a691935585519788018652690a968163f0a57b40000088526276a700888401908152614e209689019687526107d095890195865260199789019788529352905293517fb98b78633099fa36ed8b8680c4f8092689e1e04080eb9cbb077ca38a14d7e3845592517fb98b78633099fa36ed8b8680c4f8092689e1e04080eb9cbb077ca38a14d7e38555517fb98b78633099fa36ed8b8680c4f8092689e1e04080eb9cbb077ca38a14d7e3865590517fb98b78633099fa36ed8b8680c4f8092689e1e04080eb9cbb077ca38a14d7e38755517fb98b78633099fa36ed8b8680c4f8092689e1e04080eb9cbb077ca38a14d7e3885562000612565b600080546001600160a01b038381166001600160a01b0319831681178455604051919092169283917f8be0079c531659141344cd1fd0a4f28419497f9722a3daafe3b4186f6b6457e09190a35050565b600060208284031215620005f357600080fd5b81516001600160a01b03811681146200060b57600080fd5b9392505050565b60805160a05161187a620006546000396000818161024601526111a60152600081816102fc015281816104ac015281816107af0152610dbe015261187a6000f3fe608060405234801561001057600080fd5b506004361061012c5760003560e01c8063817b1cd2116100ad578063c345315311610071578063c34531531461031e578063c5e22f3f1461033e578063cd0fd3a214610351578063ee17254614610364578063f2fde38b1461036d57600080fd5b8063817b1cd2146102c157806386989038146102ca5780638da5cb5b146102d357806395ccea67146102e4578063a999d1c7146102f757600080fd5b8063372500ab116100f4578063372500ab1461023957806351032b06146102415780636471af8314610280578063715018a6146102995780637ed85ff3146102a157600080fd5b806310087fb11461013157806316934fc4146101465780632def6620146101ab57806331d7a262146101b357806335766f4b146101d4575b600080fd5b61014461013f36600461154a565b610380565b005b61019061015436600461158d565b6003602081905260009182526040909120805460018201546002830154938301546004840154600590940154929460ff90921693919290919086565b6040516101a2969594939291906115e7565b60405180910390f35b6101446106b0565b6101c66101c136600461158d565b610818565b6040519081526020016101a2565b6102116101e236600461161e565b600260208190526000918252604090912080546001820154928201546003830154600490930154919392909185565b604080519586526020860194909452928401919091526060830152608082015260a0016101a2565b6101446108dd565b6102687f000000000000000000000000000000000000000000000000000000000000000081565b6040516001600160a01b0390911681526020016101a2565b6102886108f7565b6040516101a2959493929190611669565b610144610d21565b6102b46102af36600461161e565b610d33565b6040516101a291906116b9565b6101c660045481565b6101c660055481565b6000546001600160a01b0316610268565b6101446102f23660046116cd565b610db4565b6102687f000000000000000000000000000000000000000000000000000000000000000081565b61033161032c36600461158d565b610e63565b6040516101a291906116f7565b6101c661034c36600461158d565b610fb8565b6101c661035f36600461158d565b61102c565b6101c660065481565b61014461037b36600461158d565b61109f565b6103886110dd565b600081600581111561039c5761039c6115af565b036103dd5760405162461bcd60e51b815260206004820152600c60248201526b24b73b30b634b2103a34b2b960a11b60448201526064015b60405180910390fd5b600260008260058111156103f3576103f36115af565b6005811115610404576104046115af565b8152602001908152602001600020600001548210156104655760405162461bcd60e51b815260206004820152601c60248201527f42656c6f77206d696e696d756d207374616b6520666f7220746965720000000060448201526064016103d4565b3360009081526003602052604090208054156104895761048433611107565b61049f565b6005805490600061049983611778565b91905055505b6104d46001600160a01b037f00000000000000000000000000000000000000000000000000000000000000001633308661124a565b80546000906104e4908590611791565b90506000600260008560058111156104fe576104fe6115af565b600581111561050f5761050f6115af565b8152602001908152602001600020600101544261052c9190611791565b600184015490915060ff166000610542846112b7565b9050856005811115610556576105566115af565b816005811115610568576105686115af565b1115610572578095505b83855560018086018054889260ff1990911690836005811115610597576105976115af565b02179055504260028601556003850183905560048501546000036105bc574260048601555b86600460008282546105ce9190611791565b909155505060405133907fbde7f0ba1630d25515c7ab99ba47d5640b7ffb4c673b2a5464ae67919558929890610609908a908a9088906117a4565b60405180910390a2856005811115610623576106236115af565b826005811115610635576106356115af565b1415801561065557506000826005811115610652576106526115af565b14155b1561069e57336001600160a01b03167fcbbf00b5f55f1857f9362f521999f79036413e420d1b236d6bc143af30db731a83886040516106959291906117c6565b60405180910390a25b50505050506106ac60018055565b5050565b6106b86110dd565b33600090815260036020526040902080546107065760405162461bcd60e51b815260206004820152600e60248201526d139bc81cdd185ad948199bdd5b9960921b60448201526064016103d4565b80600301544210156107525760405162461bcd60e51b815260206004820152601560248201527414dd185ad9481a5cc81cdd1a5b1b081b1bd8dad959605a1b60448201526064016103d4565b61075b33611107565b8054600080835560018301805460ff1916905560038301819055600480548392906107879084906117e1565b90915550506005805490600061079c836117f4565b909155506107d690506001600160a01b037f00000000000000000000000000000000000000000000000000000000000000001633836113e3565b60405181815233907f0f5bb82176feb1b5e747e28471aa92156a04d9f3ab9f45f28e2d704232b93f759060200160405180910390a2505061081660018055565b565b6001600160a01b03811660009081526003602052604081208054158061084057506004810154155b1561084e5750600092915050565b600081600401544261086091906117e1565b6001830154909150600090600290829060ff166005811115610884576108846115af565b6005811115610895576108956115af565b815260200190815260200160002060030154905064496cebb800828285600001546108c0919061180b565b6108ca919061180b565b6108d49190611822565b95945050505050565b6108e56110dd565b6108ee33611107565b61081660018055565b6108ff611507565b610907611507565b61090f611507565b610917611507565b61091f611507565b50506002602090815260056000526040805160a080820183527fe90b7bceb6e7df5418fb78d8ee546e97c83a08bbccc01a0644d599ccd2a7c2e05482527fe90b7bceb6e7df5418fb78d8ee546e97c83a08bbccc01a0644d599ccd2a7c2e154828501527fe90b7bceb6e7df5418fb78d8ee546e97c83a08bbccc01a0644d599ccd2a7c2e254828401527fe90b7bceb6e7df5418fb78d8ee546e97c83a08bbccc01a0644d599ccd2a7c2e3546060808401919091527fe90b7bceb6e7df5418fb78d8ee546e97c83a08bbccc01a0644d599ccd2a7c2e454608080850191909152845180840186527f679795a0195a1b76cdebb7c51d74e058aee92919b8c3389af86ef24535e8a28c5481527f679795a0195a1b76cdebb7c51d74e058aee92919b8c3389af86ef24535e8a28d54818801527f679795a0195a1b76cdebb7c51d74e058aee92919b8c3389af86ef24535e8a28e54818701527f679795a0195a1b76cdebb7c51d74e058aee92919b8c3389af86ef24535e8a28f54818401527f679795a0195a1b76cdebb7c51d74e058aee92919b8c3389af86ef24535e8a2905481830152855180850187527f88601476d11616a71c5be67555bd1dff4b1cbf21533d2669b768b61518cfe1c35481527f88601476d11616a71c5be67555bd1dff4b1cbf21533d2669b768b61518cfe1c454818901527f88601476d11616a71c5be67555bd1dff4b1cbf21533d2669b768b61518cfe1c554818801527f88601476d11616a71c5be67555bd1dff4b1cbf21533d2669b768b61518cfe1c654818501527f88601476d11616a71c5be67555bd1dff4b1cbf21533d2669b768b61518cfe1c75481840152865180860188527fee60d0579bcffd98e668647d59fec1ff86a7fb340ce572e844f234ae73a6918f5481527fee60d0579bcffd98e668647d59fec1ff86a7fb340ce572e844f234ae73a6919054818a01527fee60d0579bcffd98e668647d59fec1ff86a7fb340ce572e844f234ae73a6919154818901527fee60d0579bcffd98e668647d59fec1ff86a7fb340ce572e844f234ae73a6919254818601527fee60d0579bcffd98e668647d59fec1ff86a7fb340ce572e844f234ae73a691935481850152875195860188527fb98b78633099fa36ed8b8680c4f8092689e1e04080eb9cbb077ca38a14d7e3845486527fb98b78633099fa36ed8b8680c4f8092689e1e04080eb9cbb077ca38a14d7e38554988601989098527fb98b78633099fa36ed8b8680c4f8092689e1e04080eb9cbb077ca38a14d7e38654968501969096527fb98b78633099fa36ed8b8680c4f8092689e1e04080eb9cbb077ca38a14d7e38754928401929092527fb98b78633099fa36ed8b8680c4f8092689e1e04080eb9cbb077ca38a14d7e3885490830152919791965091945091925090565b610d29611419565b6108166000611446565b610d3b611507565b60026000836005811115610d5157610d516115af565b6005811115610d6257610d626115af565b81526020019081526020016000206040518060a0016040529081600082015481526020016001820154815260200160028201548152602001600382015481526020016004820154815250509050919050565b610dbc611419565b7f00000000000000000000000000000000000000000000000000000000000000006001600160a01b0316826001600160a01b031603610e3d5760405162461bcd60e51b815260206004820152601d60248201527f43616e6e6f74207769746864726177207374616b656420746f6b656e7300000060448201526064016103d4565b6106ac610e526000546001600160a01b031690565b6001600160a01b03841690836113e3565b610eb3604080516101208101909152600080825260208201908152602001600081526020016000815260200160008152602001600081526020016000815260200160008152602001600081525090565b6001600160a01b03821660009081526003602052604081206001810154909190600290829060ff166005811115610eec57610eec6115af565b6005811115610efd57610efd6115af565b81526020808201929092526040016000208354855260018401549092509084019060ff166005811115610f3257610f326115af565b90816005811115610f4557610f456115af565b905250600282015460408401526003820154606084015260048201546080840152600582015460a0840152610f7984610818565b60c08401528154610f8c57612710610f92565b80600201545b60e08401528154610fa4576000610faa565b80600401545b610100840152509092915050565b6001600160a01b038116600090815260036020526040812080548203610fe2575061271092915050565b600181015460029060009060ff166005811115611001576110016115af565b6005811115611012576110126115af565b815260200190815260200160002060020154915050919050565b6001600160a01b0381166000908152600360205260408120805482036110555750600092915050565b600181015460029060009060ff166005811115611074576110746115af565b6005811115611085576110856115af565b815260200190815260200160002060040154915050919050565b6110a7611419565b6001600160a01b0381166110d157604051631e4fbdf760e01b8152600060048201526024016103d4565b6110da81611446565b50565b60026001540361110057604051633ee5aeb560e01b815260040160405180910390fd5b6002600155565b6001600160a01b0381166000908152600360205260408120805490910361112c575050565b600061113783610818565b90508060000361114657505050565b428260040181905550808260050160008282546111639190611791565b92505081905550806006600082825461117c9190611791565b909155505060405162ca53e560e11b81526001600160a01b038481166004830152602482018390527f00000000000000000000000000000000000000000000000000000000000000001690630194a7ca90604401600060405180830381600087803b1580156111ea57600080fd5b505af11580156111fe573d6000803e3d6000fd5b50505050826001600160a01b03167ffc30cddea38e2bf4d6ea7d3f9ed3b6ad7f176419f4963bd81318067a4aee73fe8260405161123d91815260200190565b60405180910390a2505050565b6040516001600160a01b0384811660248301528381166044830152606482018390526112b19186918216906323b872dd906084015b604051602081830303815290604052915060e01b6020820180516001600160e01b038381831617835250505050611496565b50505050565b6005600090815260026020527fb98b78633099fa36ed8b8680c4f8092689e1e04080eb9cbb077ca38a14d7e3845482106112f357506005919050565b600460005260026020527fee60d0579bcffd98e668647d59fec1ff86a7fb340ce572e844f234ae73a6918f54821061132d57506004919050565b600360005260026020527f88601476d11616a71c5be67555bd1dff4b1cbf21533d2669b768b61518cfe1c354821061136757506003919050565b600260008190526020527f679795a0195a1b76cdebb7c51d74e058aee92919b8c3389af86ef24535e8a28c5482106113a157506002919050565b600160005260026020527fe90b7bceb6e7df5418fb78d8ee546e97c83a08bbccc01a0644d599ccd2a7c2e05482106113db57506001919050565b506000919050565b6040516001600160a01b0383811660248301526044820183905261141491859182169063a9059cbb9060640161127f565b505050565b6000546001600160a01b031633146108165760405163118cdaa760e01b81523360048201526024016103d4565b600080546001600160a01b038381166001600160a01b0319831681178455604051919092169283917f8be0079c531659141344cd1fd0a4f28419497f9722a3daafe3b4186f6b6457e09190a35050565b600080602060008451602086016000885af1806114b9576040513d6000823e3d81fd5b50506000513d915081156114d15780600114156114de565b6001600160a01b0384163b155b156112b157604051635274afe760e01b81526001600160a01b03851660048201526024016103d4565b6040518060a0016040528060008152602001600081526020016000815260200160008152602001600081525090565b80356006811061154557600080fd5b919050565b6000806040838503121561155d57600080fd5b8235915061156d60208401611536565b90509250929050565b80356001600160a01b038116811461154557600080fd5b60006020828403121561159f57600080fd5b6115a882611576565b9392505050565b634e487b7160e01b600052602160045260246000fd5b600681106115e357634e487b7160e01b600052602160045260246000fd5b9052565b86815260c081016115fb60208301886115c5565b8560408301528460608301528360808301528260a0830152979650505050505050565b60006020828403121561163057600080fd5b6115a882611536565b80518252602081015160208301526040810151604083015260608101516060830152608081015160808301525050565b61032081016116788288611639565b61168560a0830187611639565b611693610140830186611639565b6116a16101e0830185611639565b6116af610280830184611639565b9695505050505050565b60a081016116c78284611639565b92915050565b600080604083850312156116e057600080fd5b6116e983611576565b946020939093013593505050565b81518152602080830151610120830191611713908401826115c5565b5060408301516040830152606083015160608301526080830151608083015260a083015160a083015260c083015160c083015260e083015160e083015261010080840151818401525092915050565b634e487b7160e01b600052601160045260246000fd5b60006001820161178a5761178a611762565b5060010190565b808201808211156116c7576116c7611762565b838152606081016117b860208301856115c5565b826040830152949350505050565b604081016117d482856115c5565b6115a860208301846115c5565b818103818111156116c7576116c7611762565b60008161180357611803611762565b506000190190565b80820281158282048414176116c7576116c7611762565b60008261183f57634e487b7160e01b600052601260045260246000fd5b50049056fea2646970667358221220063b12bd0d8923ee292a82a3384b98db2adca7cfd4427629363443fec452682664736f6c63430008180033",
  "linkReferences": {},
  "deployedLinkReferences": {}
}