{"contracts/GrepStakingPool.sol":{"GrepStakingPool":{"abi":[{"inputs":[{"internalType":"address","name":"_grepToken","type":"address"}],"stateMutability":"nonpayable","type":"constructor"},{"inputs":[],"name":"EnforcedPause","type":"error"},{"inputs":[],"name":"ExpectedPause","type":"error"},{"inputs":[{"internalType":"address","name":"owner","type":"address"}],"name":"OwnableInvalidOwner","type":"error"},{"inputs":[{"internalType":"address","name":"account","type":"address"}],"name":"OwnableUnauthorizedAccount","type":"error"},{"inputs":[],"name":"ReentrancyGuardReentrantCall","type":"error"},{"inputs":[{"internalType":"address","name":"token","type":"address"}],"name":"SafeERC20FailedOperation","type":"error"},{"anonymous":false,"inputs":[{"indexed":true,"internalType":"address","name":"previousOwner","type":"address"},{"indexed":true,"internalType":"address","name":"newOwner","type":"address"}],"name":"OwnershipTransferred","type":"event"},{"anonymous":false,"inputs":[{"indexed":false,"internalType":"address","name":"account","type":"address"}],"name":"Paused","type":"event"},{"anonymous":false,"inputs":[{"indexed":true,"internalType":"address","name":"user","type":"address"},{"indexed":false,"internalType":"uint256","name":"amount","type":"uint256"}],"name":"RewardsClaimed","type":"event"},{"anonymous":false,"inputs":[{"indexed":true,"internalType":"address","name":"user","type":"address"},{"indexed":false,"internalType":"uint256","name":"amount","type":"uint256"},{"indexed":false,"internalType":"enum GrepStakingPool.Tier","name":"tier","type":"uint8"},{"indexed":false,"internalType":"uint256","name":"lockedUntil","type":"uint256"}],"name":"Staked","type":"event"},{"anonymous":false,"inputs":[{"indexed":true,"internalType":"address","name":"user","type":"address"},{"indexed":false,"internalType":"enum GrepStakingPool.Tier","name":"oldTier","type":"uint8"},{"indexed":false,"internalType":"enum GrepStakingPool.Tier","name":"newTier","type":"uint8"}],"name":"TierUpgraded","type":"event"},{"anonymous":false,"inputs":[{"indexed":false,"internalType":"address","name":"account","type":"address"}],"name":"Unpaused","type":"event"},{"anonymous":false,"inputs":[{"indexed":true,"internalType":"address","name":"user","type":"address"},{"indexed":false,"internalType":"uint256","name":"amount","type":"uint256"}],"name":"Unstaked","type":"event"},{"inputs":[],"name":"claimRewards","outputs":[],"stateMutability":"nonpayable","type":"function"},{"inputs":[{"internalType":"address","name":"token","type":"address"},{"internalType":"uint256","name":"amount","type":"uint256"}],"name":"emergencyWithdraw","outputs":[],"stateMutability":"nonpayable","type":"function"},{"inputs":[],"name":"getAllTiers","outputs":[{"components":[{"internalType":"uint256","name":"minStake","type":"uint256"},{"internalType":"uint256","name":"lockDuration","type":"uint256"},{"internalType":"uint256","name":"multiplier","type":"uint256"},{"internalType":"uint256","name":"apyBps","type":"uint256"},{"internalType":"uint256","name":"bonusPlays","type":"uint256"}],"internalType":"struct GrepStakingPool.TierInfo","name":"flexible","type":"tuple"},{"components":[{"internalType":"uint256","name":"minStake","type":"uint256"},{"internalType":"uint256","name":"lockDuration","type":"uint256"},{"internalType":"uint256","name":"multiplier","type":"uint256"},{"internalType":"uint256","name":"apyBps","type":"uint256"},{"internalType":"uint256","name":"bonusPlays","type":"uint256"}],"internalType":"struct GrepStakingPool.TierInfo","name":"bronze","type":"tuple"},{"components":[{"internalType":"uint256","name":"minStake","type":"uint256"},{"internalType":"uint256","name":"lockDuration","type":"uint256"},{"internalType":"uint256","name":"multiplier","type":"uint256"},{"internalType":"uint256","name":"apyBps","type":"uint256"},{"internalType":"uint256","name":"bonusPlays","type":"uint256"}],"internalType":"struct GrepStakingPool.TierInfo","name":"silver","type":"tuple"},{"components":[{"internalType":"uint256","name":"minStake","type":"uint256"},{"internalType":"uint256","name":"lockDuration","type":"uint256"},{"internalType":"uint256","name":"multiplier","type":"uint256"},{"internalType":"uint256","name":"apyBps","type":"uint256"},{"internalType":"uint256","name":"bonusPlays","type":"uint256"}],"internalType":"struct GrepStakingPool.TierInfo","name":"gold","type":"tuple"},{"components":[{"internalType":"uint256","name":"minStake","type":"uint256"},{"internalType":"uint256","name":"lockDuration","type":"uint256"},{"internalType":"uint256","name":"multiplier","type":"uint256"},{"internalType":"uint256","name":"apyBps","type":"uint256"},{"internalType":"uint256","name":"bonusPlays","type":"uint256"}],"internalType":"struct GrepStakingPool.TierInfo","name":"diamond","type":"tuple"}],"stateMutability":"view","type":"function"},{"inputs":[{"internalType":"address","name":"user","type":"address"}],"name":"getStakeInfo","outputs":[{"components":[{"internalType":"uint256","name":"amount","type":"uint256"},{"internalType":"enum GrepStakingPool.Tier","name":"tier","type":"uint8"},{"internalType":"uint256","name":"stakedAt","type":"uint256"},{"internalType":"uint256","name":"lockedUntil","type":"uint256"},{"internalType":"uint256","name":"lastClaimAt","type":"uint256"},{"internalType":"uint256","name":"totalClaimed","type":"uint256"},{"internalType":"uint256","name":"pendingReward","type":"uint256"},{"internalType":"uint256","name":"multiplier","type":"uint256"},{"internalType":"uint256","name":"bonusPlays","type":"uint256"}],"internalType":"struct GrepStakingPool.FullStakeInfo","name":"info","type":"tuple"}],"stateMutability":"view","type":"function"},{"inputs":[{"internalType":"enum GrepStakingPool.Tier","name":"tier","type":"uint8"}],"name":"getTierInfo","outputs":[{"components":[{"internalType":"uint256","name":"minStake","type":"uint256"},{"internalType":"uint256","name":"lockDuration","type":"uint256"},{"internalType":"uint256","name":"multiplier","type":"uint256"},{"internalType":"uint256","name":"apyBps","type":"uint256"},{"internalType":"uint256","name":"bonusPlays","type":"uint256"}],"internalType":"struct GrepStakingPool.TierInfo","name":"","type":"tuple"}],"stateMutability":"view","type":"function"},{"inputs":[{"internalType":"address","name":"user","type":"address"}],"name":"getUserBonusPlays","outputs":[{"internalType":"uint256","name":"","type":"uint256"}],"stateMutability":"view","type":"function"},{"inputs":[{"internalType":"address","name":"user","type":"address"}],"name":"getUserMultiplier","outputs":[{"internalType":"uint256","name":"","type":"uint256"}],"stateMutability":"view","type":"function"},{"inputs":[],"name":"grepMinter","outputs":[{"internalType":"contract IGrepToken","name":"","type":"address"}],"stateMutability":"view","type":"function"},{"inputs":[],"name":"grepToken","outputs":[{"internalType":"contract IERC20","name":"","type":"address"}],"stateMutability":"view","type":"function"},{"inputs":[],"name":"owner","outputs":[{"internalType":"address","name":"","type":"address"}],"stateMutability":"view","type":"function"},{"inputs":[],"name":"pause","outputs":[],"stateMutability":"nonpayable","type":"function"},{"inputs":[],"name":"paused","outputs":[{"internalType":"bool","name":"","type":"bool"}],"stateMutability":"view","type":"function"},{"inputs":[{"internalType":"address","name":"user","type":"address"}],"name":"pendingRewards","outputs":[{"internalType":"uint256","name":"","type":"uint256"}],"stateMutability":"view","type":"function"},{"inputs":[],"name":"renounceOwnership","outputs":[],"stateMutability":"nonpayable","type":"function"},{"inputs":[{"internalType":"uint256","name":"amount","type":"uint256"},{"internalType":"enum GrepStakingPool.Tier","name":"tier","type":"uint8"}],"name":"stake","outputs":[],"stateMutability":"nonpayable","type":"function"},{"inputs":[{"internalType":"address","name":"","type":"address"}],"name":"stakes","outputs":[{"internalType":"uint256","name":"amount","type":"uint256"},{"internalType":"enum GrepStakingPool.Tier","name":"tier","type":"uint8"},{"internalType":"uint256","name":"stakedAt","type":"uint256"},{"internalType":"uint256","name":"lockedUntil","type":"uint256"},{"internalType":"uint256","name":"lastClaimAt","type":"uint256"},{"internalType":"uint256","name":"totalClaimed","type":"uint256"}],"stateMutability":"view","type":"function"},{"inputs":[{"internalType":"enum GrepStakingPool.Tier","name":"","type":"uint8"}],"name":"tierInfo","outputs":[{"internalType":"uint256","name":"minStake","type":"uint256"},{"internalType":"uint256","name":"lockDuration","type":"uint256"},{"internalType":"uint256","name":"multiplier","type":"uint256"},{"internalType":"uint256","name":"apyBps","type":"uint256"},{"internalType":"uint256","name":"bonusPlays","type":"uint256"}],"stateMutability":"view","type":"function"},{"inputs":[],"name":"totalRewardsDistributed","outputs":[{"internalType":"uint256","name":"","type":"uint256"}],"stateMutability":"view","type":"function"},{"inputs":[],"name":"totalStaked","outputs":[{"internalType":"uint256","name":"","type":"uint256"}],"stateMutability":"view","type":"function"},{"inputs":[],"name":"totalStakers","outputs":[{"internalType":"uint256","name":"","type":"uint256"}],"stateMutability":"view","type":"function"},{"inputs":[{"internalType":"address","name":"newOwner","type":"address"}],"name":"transferOwnership","outputs":[],"stateMutability":"nonpayable","type":"function"},{"inputs":[],"name":"unpause","outputs":[],"stateMutability":"nonpayable","type":"function"},{"inputs":[],"name":"unstake","outputs":[],"stateMutability":"nonpayable","type":"function"}],"evm":{"bytecode":{"linkReferences":{},"object":"60c06040523480156200001157600080fd5b5060405162002013380380620020138339810160408190526200003491620005e2565b33806200005c57604051631e4fbdf760e01b8152600060048201526024015b60405180910390fd5b620000678162000592565b50600180556001600160a01b038116620000c45760405162461bcd60e51b815260206004820152601560248201527f496e76616c696420746f6b656e20616464726573730000000000000000000000604482015260640162000053565b6001600160a01b0316608081815260a091825260408051808401825268056bc75e2d63100000815260006020808301828152612af88486019081526101f460608087019182526002878a0181815260018852600380885298517fa15bc60c955c405d20d9149c709e2460f1c2d9a497496a7f46004d1772c3054c5594517fa15bc60c955c405d20d9149c709e2460f1c2d9a497496a7f46004d1772c3054d5592517fa15bc60c955c405d20d9149c709e2460f1c2d9a497496a7f46004d1772c3054e5590517fa15bc60c955c405d20d9149c709e2460f1c2d9a497496a7f46004d1772c3054f5591517fa15bc60c955c405d20d9149c709e2460f1c2d9a497496a7f46004d1772c305505585518089018752683635c9adc5dea00000815262093a808185019081526130d48289019081526103208386019081526005848c0181815295895289885293517fc3a24b0501bd2c13a7e57f2db4369ec4c223447539fc0724a9d55ac4a06ebd4d5591517fc3a24b0501bd2c13a7e57f2db4369ec4c223447539fc0724a9d55ac4a06ebd4e55517fc3a24b0501bd2c13a7e57f2db4369ec4c223447539fc0724a9d55ac4a06ebd4f55517fc3a24b0501bd2c13a7e57f2db4369ec4c223447539fc0724a9d55ac4a06ebd505590517fc3a24b0501bd2c13a7e57f2db4369ec4c223447539fc0724a9d55ac4a06ebd51558551808901875269010f0cf064dd59200000815262127500818501908152613a988289019081526104b0838601908152600a848c0190815289895289885293517fcbc4e5fb02c3d1de23a9f1e014b4d2ee5aeaea9505df5e855c9210bf472495af5591517fcbc4e5fb02c3d1de23a9f1e014b4d2ee5aeaea9505df5e855c9210bf472495b055517fcbc4e5fb02c3d1de23a9f1e014b4d2ee5aeaea9505df5e855c9210bf472495b155517fcbc4e5fb02c3d1de23a9f1e014b4d2ee5aeaea9505df5e855c9210bf472495b255517fcbc4e5fb02c3d1de23a9f1e014b4d2ee5aeaea9505df5e855c9210bf472495b3558551808901875269021e19e0c9bab2400000815262278d0081850190815261445c8289019081526105dc838601908152600f848c019081526004895289885293517f83ec6a1f0257b830b5e016457c9cf1435391bf56cc98f369a58a54fe937724655591517f83ec6a1f0257b830b5e016457c9cf1435391bf56cc98f369a58a54fe9377246655517f83ec6a1f0257b830b5e016457c9cf1435391bf56cc98f369a58a54fe9377246755517f83ec6a1f0257b830b5e016457c9cf1435391bf56cc98f369a58a54fe9377246855517f83ec6a1f0257b830b5e016457c9cf1435391bf56cc98f369a58a54fe937724695585519788018652690a968163f0a57b40000088526276a700888401908152614e209689019687526107d09289019283526019978901978852935292905293517f405aad32e1adbac89bb7f176e338b8fc6e994ca210c9bb7bdca249b4659422505592517f405aad32e1adbac89bb7f176e338b8fc6e994ca210c9bb7bdca249b46594225155517f405aad32e1adbac89bb7f176e338b8fc6e994ca210c9bb7bdca249b4659422525590517f405aad32e1adbac89bb7f176e338b8fc6e994ca210c9bb7bdca249b46594225355517f405aad32e1adbac89bb7f176e338b8fc6e994ca210c9bb7bdca249b4659422545562000614565b600080546001600160a01b038381166001600160a01b0319831681178455604051919092169283917f8be0079c531659141344cd1fd0a4f28419497f9722a3daafe3b4186f6b6457e09190a35050565b600060208284031215620005f557600080fd5b81516001600160a01b03811681146200060d57600080fd5b9392505050565b60805160a0516119bd620006566000396000818161026d0152611237015260008181610341015281816104f9015281816107fc0152610e2b01526119bd6000f3fe608060405234801561001057600080fd5b506004361061014d5760003560e01c80637ed85ff3116100c3578063a999d1c71161007c578063a999d1c71461033c578063c345315314610363578063c5e22f3f14610383578063cd0fd3a214610396578063ee172546146103a9578063f2fde38b146103b257600080fd5b80637ed85ff3146102de578063817b1cd2146102fe5780638456cb5914610307578063869890381461030f5780638da5cb5b1461031857806395ccea671461032957600080fd5b8063372500ab11610115578063372500ab146102585780633f4ba83a1461026057806351032b06146102685780635c975abb146102a75780636471af83146102bd578063715018a6146102d657600080fd5b806310087fb11461015257806316934fc4146101675780632def6620146101c957806331d7a262146101d157806335766f4b146101f2575b600080fd5b61016561016036600461168d565b6103c5565b005b6101ae6101753660046116d0565b6004602081905260009182526040909120805460018201546002830154600384015494840154600590940154929460ff90921693909286565b6040516101c09695949392919061172a565b60405180910390f35b6101656106fd565b6101e46101df3660046116d0565b610865565b6040519081526020016101c0565b610230610200366004611761565b60036020819052600091825260409091208054600182015460028301549383015460049093015491939092909185565b604080519586526020860194909452928401919091526060830152608082015260a0016101c0565b61016561092a565b610165610944565b61028f7f000000000000000000000000000000000000000000000000000000000000000081565b6040516001600160a01b0390911681526020016101c0565b60025460ff1660405190151581526020016101c0565b6102c5610954565b6040516101c09594939291906117ac565b610165610d7e565b6102f16102ec366004611761565b610d90565b6040516101c091906117fc565b6101e460055481565b610165610e11565b6101e460065481565b6000546001600160a01b031661028f565b610165610337366004611810565b610e21565b61028f7f000000000000000000000000000000000000000000000000000000000000000081565b6103766103713660046116d0565b610ed0565b6040516101c0919061183a565b6101e46103913660046116d0565b611025565b6101e46103a43660046116d0565b611099565b6101e460075481565b6101656103c03660046116d0565b61110c565b6103cd61114a565b6103d5611174565b60008160058111156103e9576103e96116f2565b0361042a5760405162461bcd60e51b815260206004820152600c60248201526b24b73b30b634b2103a34b2b960a11b60448201526064015b60405180910390fd5b60036000826005811115610440576104406116f2565b6005811115610451576104516116f2565b8152602001908152602001600020600001548210156104b25760405162461bcd60e51b815260206004820152601c60248201527f42656c6f77206d696e696d756d207374616b6520666f722074696572000000006044820152606401610421565b3360009081526004602052604090208054156104d6576104d133611198565b6104ec565b600680549060006104e6836118bb565b91905055505b6105216001600160a01b037f0000000000000000000000000000000000000000000000000000000000000000163330866112db565b80546000906105319085906118d4565b905060006003600085600581111561054b5761054b6116f2565b600581111561055c5761055c6116f2565b8152602001908152602001600020600101544261057991906118d4565b600184015490915060ff16600061058f84611348565b90508560058111156105a3576105a36116f2565b8160058111156105b5576105b56116f2565b11156105bf578095505b83855560018086018054889260ff19909116908360058111156105e4576105e46116f2565b0217905550426002860155600385018390556004850154600003610609574260048601555b866005600082825461061b91906118d4565b909155505060405133907fbde7f0ba1630d25515c7ab99ba47d5640b7ffb4c673b2a5464ae67919558929890610656908a908a9088906118e7565b60405180910390a2856005811115610670576106706116f2565b826005811115610682576106826116f2565b141580156106a25750600082600581111561069f5761069f6116f2565b14155b156106eb57336001600160a01b03167fcbbf00b5f55f1857f9362f521999f79036413e420d1b236d6bc143af30db731a83886040516106e2929190611909565b60405180910390a25b50505050506106f960018055565b5050565b61070561114a565b33600090815260046020526040902080546107535760405162461bcd60e51b815260206004820152600e60248201526d139bc81cdd185ad948199bdd5b9960921b6044820152606401610421565b806003015442101561079f5760405162461bcd60e51b815260206004820152601560248201527414dd185ad9481a5cc81cdd1a5b1b081b1bd8dad959605a1b6044820152606401610421565b6107a833611198565b8054600080835560018301805460ff1916905560038301819055600580548392906107d4908490611924565b9091555050600680549060006107e983611937565b9091555061082390506001600160a01b037f0000000000000000000000000000000000000000000000000000000000000000163383611474565b60405181815233907f0f5bb82176feb1b5e747e28471aa92156a04d9f3ab9f45f28e2d704232b93f759060200160405180910390a2505061086360018055565b565b6001600160a01b03811660009081526004602052604081208054158061088d57506004810154155b1561089b5750600092915050565b60008160040154426108ad9190611924565b6001830154909150600090600390829060ff1660058111156108d1576108d16116f2565b60058111156108e2576108e26116f2565b815260200190815260200160002060030154905064496cebb8008282856000015461090d919061194e565b610917919061194e565b6109219190611965565b95945050505050565b61093261114a565b61093b33611198565b61086360018055565b61094c6114aa565b6108636114d7565b61095c61164a565b61096461164a565b61096c61164a565b61097461164a565b61097c61164a565b50506003602090815260056000526040805160a080820183527fa15bc60c955c405d20d9149c709e2460f1c2d9a497496a7f46004d1772c3054c5482527fa15bc60c955c405d20d9149c709e2460f1c2d9a497496a7f46004d1772c3054d54828501527fa15bc60c955c405d20d9149c709e2460f1c2d9a497496a7f46004d1772c3054e54828401527fa15bc60c955c405d20d9149c709e2460f1c2d9a497496a7f46004d1772c3054f546060808401919091527fa15bc60c955c405d20d9149c709e2460f1c2d9a497496a7f46004d1772c3055054608080850191909152845180840186527fc3a24b0501bd2c13a7e57f2db4369ec4c223447539fc0724a9d55ac4a06ebd4d5481527fc3a24b0501bd2c13a7e57f2db4369ec4c223447539fc0724a9d55ac4a06ebd4e54818801527fc3a24b0501bd2c13a7e57f2db4369ec4c223447539fc0724a9d55ac4a06ebd4f54818701527fc3a24b0501bd2c13a7e57f2db4369ec4c223447539fc0724a9d55ac4a06ebd5054818401527fc3a24b0501bd2c13a7e57f2db4369ec4c223447539fc0724a9d55ac4a06ebd515481830152855180850187527fcbc4e5fb02c3d1de23a9f1e014b4d2ee5aeaea9505df5e855c9210bf472495af5481527fcbc4e5fb02c3d1de23a9f1e014b4d2ee5aeaea9505df5e855c9210bf472495b054818901527fcbc4e5fb02c3d1de23a9f1e014b4d2ee5aeaea9505df5e855c9210bf472495b154818801527fcbc4e5fb02c3d1de23a9f1e014b4d2ee5aeaea9505df5e855c9210bf472495b254818501527fcbc4e5fb02c3d1de23a9f1e014b4d2ee5aeaea9505df5e855c9210bf472495b35481840152865180860188527f83ec6a1f0257b830b5e016457c9cf1435391bf56cc98f369a58a54fe937724655481527f83ec6a1f0257b830b5e016457c9cf1435391bf56cc98f369a58a54fe9377246654818a01527f83ec6a1f0257b830b5e016457c9cf1435391bf56cc98f369a58a54fe9377246754818901527f83ec6a1f0257b830b5e016457c9cf1435391bf56cc98f369a58a54fe9377246854818601527f83ec6a1f0257b830b5e016457c9cf1435391bf56cc98f369a58a54fe937724695481850152875195860188527f405aad32e1adbac89bb7f176e338b8fc6e994ca210c9bb7bdca249b4659422505486527f405aad32e1adbac89bb7f176e338b8fc6e994ca210c9bb7bdca249b46594225154988601989098527f405aad32e1adbac89bb7f176e338b8fc6e994ca210c9bb7bdca249b46594225254968501969096527f405aad32e1adbac89bb7f176e338b8fc6e994ca210c9bb7bdca249b46594225354928401929092527f405aad32e1adbac89bb7f176e338b8fc6e994ca210c9bb7bdca249b4659422545490830152919791965091945091925090565b610d866114aa565b6108636000611529565b610d9861164a565b60036000836005811115610dae57610dae6116f2565b6005811115610dbf57610dbf6116f2565b81526020019081526020016000206040518060a0016040529081600082015481526020016001820154815260200160028201548152602001600382015481526020016004820154815250509050919050565b610e196114aa565b610863611579565b610e296114aa565b7f00000000000000000000000000000000000000000000000000000000000000006001600160a01b0316826001600160a01b031603610eaa5760405162461bcd60e51b815260206004820152601d60248201527f43616e6e6f74207769746864726177207374616b656420746f6b656e730000006044820152606401610421565b6106f9610ebf6000546001600160a01b031690565b6001600160a01b0384169083611474565b610f20604080516101208101909152600080825260208201908152602001600081526020016000815260200160008152602001600081526020016000815260200160008152602001600081525090565b6001600160a01b03821660009081526004602052604081206001810154909190600390829060ff166005811115610f5957610f596116f2565b6005811115610f6a57610f6a6116f2565b81526020808201929092526040016000208354855260018401549092509084019060ff166005811115610f9f57610f9f6116f2565b90816005811115610fb257610fb26116f2565b905250600282015460408401526003820154606084015260048201546080840152600582015460a0840152610fe684610865565b60c08401528154610ff957612710610fff565b80600201545b60e08401528154611011576000611017565b80600401545b610100840152509092915050565b6001600160a01b03811660009081526004602052604081208054820361104f575061271092915050565b600181015460039060009060ff16600581111561106e5761106e6116f2565b600581111561107f5761107f6116f2565b815260200190815260200160002060020154915050919050565b6001600160a01b0381166000908152600460205260408120805482036110c25750600092915050565b600181015460039060009060ff1660058111156110e1576110e16116f2565b60058111156110f2576110f26116f2565b815260200190815260200160002060040154915050919050565b6111146114aa565b6001600160a01b03811661113e57604051631e4fbdf760e01b815260006004820152602401610421565b61114781611529565b50565b60026001540361116d57604051633ee5aeb560e01b815260040160405180910390fd5b6002600155565b60025460ff16156108635760405163d93c066560e01b815260040160405180910390fd5b6001600160a01b038116600090815260046020526040812080549091036111bd575050565b60006111c883610865565b9050806000036111d757505050565b428260040181905550808260050160008282546111f491906118d4565b92505081905550806007600082825461120d91906118d4565b909155505060405162ca53e560e11b81526001600160a01b038481166004830152602482018390527f00000000000000000000000000000000000000000000000000000000000000001690630194a7ca90604401600060405180830381600087803b15801561127b57600080fd5b505af115801561128f573d6000803e3d6000fd5b50505050826001600160a01b03167ffc30cddea38e2bf4d6ea7d3f9ed3b6ad7f176419f4963bd81318067a4aee73fe826040516112ce91815260200190565b60405180910390a2505050565b6040516001600160a01b0384811660248301528381166044830152606482018390526113429186918216906323b872dd906084015b604051602081830303815290604052915060e01b6020820180516001600160e01b0383818316178352505050506115b6565b50505050565b6005600090815260036020527f405aad32e1adbac89bb7f176e338b8fc6e994ca210c9bb7bdca249b46594225054821061138457506005919050565b600460005260036020527f83ec6a1f0257b830b5e016457c9cf1435391bf56cc98f369a58a54fe937724655482106113be57506004919050565b600360008190526020527fcbc4e5fb02c3d1de23a9f1e014b4d2ee5aeaea9505df5e855c9210bf472495af5482106113f857506003919050565b600260005260036020527fc3a24b0501bd2c13a7e57f2db4369ec4c223447539fc0724a9d55ac4a06ebd4d54821061143257506002919050565b600160005260036020527fa15bc60c955c405d20d9149c709e2460f1c2d9a497496a7f46004d1772c3054c54821061146c57506001919050565b506000919050565b6040516001600160a01b038381166024830152604482018390526114a591859182169063a9059cbb90606401611310565b505050565b6000546001600160a01b031633146108635760405163118cdaa760e01b8152336004820152602401610421565b6114df611627565b6002805460ff191690557f5db9ee0a495bf2e6ff9c91a7834c1ba4fdd244a5e8aa4e537bd38aeae4b073aa335b6040516001600160a01b03909116815260200160405180910390a1565b600080546001600160a01b038381166001600160a01b0319831681178455604051919092169283917f8be0079c531659141344cd1fd0a4f28419497f9722a3daafe3b4186f6b6457e09190a35050565b611581611174565b6002805460ff191660011790557f62e78cea01bee320cd4e420270b5ea74000d11b0c9f74754ebdbfc544b05a25861150c3390565b600080602060008451602086016000885af1806115d9576040513d6000823e3d81fd5b50506000513d915081156115f15780600114156115fe565b6001600160a01b0384163b155b1561134257604051635274afe760e01b81526001600160a01b0385166004820152602401610421565b60025460ff1661086357604051638dfc202b60e01b815260040160405180910390fd5b6040518060a0016040528060008152602001600081526020016000815260200160008152602001600081525090565b80356006811061168857600080fd5b919050565b600080604083850312156116a057600080fd5b823591506116b060208401611679565b90509250929050565b80356001600160a01b038116811461168857600080fd5b6000602082840312156116e257600080fd5b6116eb826116b9565b9392505050565b634e487b7160e01b600052602160045260246000fd5b6006811061172657634e487b7160e01b600052602160045260246000fd5b9052565b86815260c0810161173e6020830188611708565b8560408301528460608301528360808301528260a0830152979650505050505050565b60006020828403121561177357600080fd5b6116eb82611679565b80518252602081015160208301526040810151604083015260608101516060830152608081015160808301525050565b61032081016117bb828861177c565b6117c860a083018761177c565b6117d661014083018661177c565b6117e46101e083018561177c565b6117f261028083018461177c565b9695505050505050565b60a0810161180a828461177c565b92915050565b6000806040838503121561182357600080fd5b61182c836116b9565b946020939093013593505050565b8151815260208083015161012083019161185690840182611708565b5060408301516040830152606083015160608301526080830151608083015260a083015160a083015260c083015160c083015260e083015160e083015261010080840151818401525092915050565b634e487b7160e01b600052601160045260246000fd5b6000600182016118cd576118cd6118a5565b5060010190565b8082018082111561180a5761180a6118a5565b838152606081016118fb6020830185611708565b826040830152949350505050565b604081016119178285611708565b6116eb6020830184611708565b8181038181111561180a5761180a6118a5565b600081611946576119466118a5565b506000190190565b808202811582820484141761180a5761180a6118a5565b60008261198257634e487b7160e01b600052601260045260246000fd5b50049056fea2646970667358221220ab476e547d86f27755484a22a544e6ac108b16da8ee036f378f2dbeeaa0d23d464736f6c63430008180033","opcodes":"PUSH1 0xC0 PUSH1 0x40 MSTORE CALLVALUE DUP1 ISZERO PUSH3 0x11 JUMPI PUSH1 0x0 DUP1 REVERT JUMPDEST POP PUSH1 0x40 MLOAD PUSH3 0x2013 CODESIZE SUB DUP1 PUSH3 0x2013 DUP4 CODECOPY DUP2 ADD PUSH1 0x40 DUP2 SWAP1 MSTORE PUSH3 0x34 SWAP2 PUSH3 0x5E2 JUMP JUMPDEST CALLER DUP1 PUSH3 0x5C JUMPI PUSH1 0x40 MLOAD PUSH4 0x1E4FBDF7 PUSH1 0xE0 SHL DUP2 MSTORE PUSH1 0x0 PUSH1 0x4 DUP3 ADD MSTORE PUSH1 0x24 ADD JUMPDEST PUSH1 0x40 MLOAD DUP1 SWAP2 SUB SWAP1 REVERT JUMPDEST PUSH3 0x67 DUP2 PUSH3 0x592 JUMP JUMPDEST POP PUSH1 0x1 DUP1 SSTORE PUSH1 0x1 PUSH1 0x1 PUSH1 0xA0 SHL SUB DUP2 AND PUSH3 0xC4 JUMPI PUSH1 0x40 MLOAD PUSH3 0x461BCD PUSH1 0xE5 SHL DUP2 MSTORE PUSH1 0x20 PUSH1 0x4 DUP3 ADD MSTORE PUSH1 0x15 PUSH1 0x24 DUP3 ADD MSTORE PUSH32 0x496E76616C696420746F6B656E20616464726573730000000000000000000000 PUSH1 0x44 DUP3 ADD MSTORE PUSH1 0x64 ADD PUSH3 0x53 JUMP JUMPDEST PUSH1 0x1 PUSH1 0x1 PUSH1 0xA0 SHL SUB AND PUSH1 0x80 DUP2 DUP2 MSTORE PUSH1 0xA0 SWAP2 DUP3 MSTORE PUSH1 0x40 DUP1 MLOAD DUP1 DUP5 ADD DUP3 MSTORE PUSH9 0x56BC75E2D63100000 DUP2 MSTORE PUSH1 0x0 PUSH1 0x20 DUP1 DUP4 ADD DUP3 DUP2 MSTORE PUSH2 0x2AF8 DUP5 DUP7 ADD SWAP1 DUP2 MSTORE PUSH2 0x1F4 PUSH1 0x60 DUP1 DUP8 ADD SWAP2 DUP3 MSTORE PUSH1 0x2 DUP8 DUP11 ADD DUP2 DUP2 MSTORE PUSH1 0x1 DUP9 MSTORE PUSH1 0x3 DUP1 DUP9 MSTORE SWAP9 MLOAD PUSH32 0xA15BC60C955C405D20D9149C709E2460F1C2D9A497496A7F46004D1772C3054C SSTORE SWAP5 MLOAD PUSH32 0xA15BC60C955C405D20D9149C709E2460F1C2D9A497496A7F46004D1772C3054D SSTORE SWAP3 MLOAD PUSH32 0xA15BC60C955C405D20D9149C709E2460F1C2D9A497496A7F46004D1772C3054E SSTORE SWAP1 MLOAD PUSH32 0xA15BC60C955C405D20D9149C709E2460F1C2D9A497496A7F46004D1772C3054F SSTORE SWAP2 MLOAD PUSH32 0xA15BC60C955C405D20D9149C709E2460F1C2D9A497496A7F46004D1772C30550 SSTORE DUP6 MLOAD DUP1 DUP10 ADD DUP8 MSTORE PUSH9 0x3635C9ADC5DEA00000 DUP2 MSTORE PUSH3 0x93A80 DUP2 DUP6 ADD SWAP1 DUP2 MSTORE PUSH2 0x30D4 DUP3 DUP10 ADD SWAP1 DUP2 MSTORE PUSH2 0x320 DUP4 DUP7 ADD SWAP1 DUP2 MSTORE PUSH1 0x5 DUP5 DUP13 ADD DUP2 DUP2 MSTORE SWAP6 DUP10 MSTORE DUP10 DUP9 MSTORE SWAP4 MLOAD PUSH32 0xC3A24B0501BD2C13A7E57F2DB4369EC4C223447539FC0724A9D55AC4A06EBD4D SSTORE SWAP2 MLOAD PUSH32 0xC3A24B0501BD2C13A7E57F2DB4369EC4C223447539FC0724A9D55AC4A06EBD4E SSTORE MLOAD PUSH32 0xC3A24B0501BD2C13A7E57F2DB4369EC4C223447539FC0724A9D55AC4A06EBD4F SSTORE MLOAD PUSH32 0xC3A24B0501BD2C13A7E57F2DB4369EC4C223447539FC0724A9D55AC4A06EBD50 SSTORE SWAP1 MLOAD PUSH32 0xC3A24B0501BD2C13A7E57F2DB4369EC4C223447539FC0724A9D55AC4A06EBD51 SSTORE DUP6 MLOAD DUP1 DUP10 ADD DUP8 MSTORE PUSH10 0x10F0CF064DD59200000 DUP2 MSTORE PUSH3 0x127500 DUP2 DUP6 ADD SWAP1 DUP2 MSTORE PUSH2 0x3A98 DUP3 DUP10 ADD SWAP1 DUP2 MSTORE PUSH2 0x4B0 DUP4 DUP7 ADD SWAP1 DUP2 MSTORE PUSH1 0xA DUP5 DUP13 ADD SWAP1 DUP2 MSTORE DUP10 DUP10 MSTORE DUP10 DUP9 MSTORE SWAP4 MLOAD PUSH32 0xCBC4E5FB02C3D1DE23A9F1E014B4D2EE5AEAEA9505DF5E855C9210BF472495AF SSTORE SWAP2 MLOAD PUSH32 0xCBC4E5FB02C3D1DE23A9F1E014B4D2EE5AEAEA9505DF5E855C9210BF472495B0 SSTORE MLOAD PUSH32 0xCBC4E5FB02C3D1DE23A9F1E014B4D2EE5AEAEA9505DF5E855C9210BF472495B1 SSTORE MLOAD PUSH32 0xCBC4E5FB02C3D1DE23A9F1E014B4D2EE5AEAEA9505DF5E855C9210BF472495B2 SSTORE MLOAD PUSH32 0xCBC4E5FB02C3D1DE23A9F1E014B4D2EE5AEAEA9505DF5E855C9210BF472495B3 SSTORE DUP6 MLOAD DUP1 DUP10 ADD DUP8 MSTORE PUSH10 0x21E19E0C9BAB2400000 DUP2 MSTORE PUSH3 0x278D00 DUP2 DUP6 ADD SWAP1 DUP2 MSTORE PUSH2 0x445C DUP3 DUP10 ADD SWAP1 DUP2 MSTORE PUSH2 0x5DC DUP4 DUP7 ADD SWAP1 DUP2 MSTORE PUSH1 0xF DUP5 DUP13 ADD SWAP1 DUP2 MSTORE PUSH1 0x4 DUP10 MSTORE DUP10 DUP9 MSTORE SWAP4 MLOAD PUSH32 0x83EC6A1F0257B830B5E016457C9CF1435391BF56CC98F369A58A54FE93772465 SSTORE SWAP2 MLOAD PUSH32 0x83EC6A1F0257B830B5E016457C9CF1435391BF56CC98F369A58A54FE93772466 SSTORE MLOAD PUSH32 0x83EC6A1F0257B830B5E016457C9CF1435391BF56CC98F369A58A54FE93772467 SSTORE MLOAD PUSH32 0x83EC6A1F0257B830B5E016457C9CF1435391BF56CC98F369A58A54FE93772468 SSTORE MLOAD PUSH32 0x83EC6A1F0257B830B5E016457C9CF1435391BF56CC98F369A58A54FE93772469 SSTORE DUP6 MLOAD SWAP8 DUP9 ADD DUP7 MSTORE PUSH10 0xA968163F0A57B400000 DUP9 MSTORE PUSH3 0x76A700 DUP9 DUP5 ADD SWAP1 DUP2 MSTORE PUSH2 0x4E20 SWAP7 DUP10 ADD SWAP7 DUP8 MSTORE PUSH2 0x7D0 SWAP3 DUP10 ADD SWAP3 DUP4 MSTORE PUSH1 0x19 SWAP8 DUP10 ADD SWAP8 DUP9 MSTORE SWAP4 MSTORE SWAP3 SWAP1 MSTORE SWAP4 MLOAD PUSH32 0x405AAD32E1ADBAC89BB7F176E338B8FC6E994CA210C9BB7BDCA249B465942250 SSTORE SWAP3 MLOAD PUSH32 0x405AAD32E1ADBAC89BB7F176E338B8FC6E994CA210C9BB7BDCA249B465942251 SSTORE MLOAD PUSH32 0x405AAD32E1ADBAC89BB7F176E338B8FC6E994CA210C9BB7BDCA249B465942252 SSTORE SWAP1 MLOAD PUSH32 0x405AAD32E1ADBAC89BB7F176E338B8FC6E994CA210C9BB7BDCA249B465942253 SSTORE MLOAD PUSH32 0x405AAD32E1ADBAC89BB7F176E338B8FC6E994CA210C9BB7BDCA249B465942254 SSTORE PUSH3 0x614 JUMP JUMPDEST PUSH1 0x0 DUP1 SLOAD PUSH1 0x1 PUSH1 0x1 PUSH1 0xA0 SHL SUB DUP4 DUP2 AND PUSH1 0x1 PUSH1 0x1 PUSH1 0xA0 SHL SUB NOT DUP4 AND DUP2 OR DUP5 SSTORE PUSH1 0x40 MLOAD SWAP2 SWAP1 SWAP3 AND SWAP3 DUP4 SWAP2 PUSH32 0x8BE0079C531659141344CD1FD0A4F28419497F9722A3DAAFE3B4186F6B6457E0 SWAP2 SWAP1 LOG3 POP POP JUMP JUMPDEST PUSH1 0x0 PUSH1 0x20 DUP3 DUP5 SUB SLT ISZERO PUSH3 0x5F5 JUMPI PUSH1 0x0 DUP1 REVERT JUMPDEST DUP2 MLOAD PUSH1 0x1 PUSH1 0x1 PUSH1 0xA0 SHL SUB DUP2 AND DUP2 EQ PUSH3 0x60D JUMPI PUSH1 0x0 DUP1 REVERT JUMPDEST SWAP4 SWAP3 POP POP POP JUMP JUMPDEST PUSH1 0x80 MLOAD PUSH1 0xA0 MLOAD PUSH2 0x19BD PUSH3 0x656 PUSH1 0x0 CODECOPY PUSH1 0x0 DUP2 DUP2 PUSH2 0x26D ADD MSTORE PUSH2 0x1237 ADD MSTORE PUSH1 0x0 DUP2 DUP2 PUSH2 0x341 ADD MSTORE DUP2 DUP2 PUSH2 0x4F9 ADD MSTORE DUP2 DUP2 PUSH2 0x7FC ADD MSTORE PUSH2 0xE2B ADD MSTORE PUSH2 0x19BD PUSH1 0x0 RETURN INVALID PUSH1 0x80 PUSH1 0x40 MSTORE CALLVALUE DUP1 ISZERO PUSH2 0x10 JUMPI PUSH1 0x0 DUP1 REVERT JUMPDEST POP PUSH1 0x4 CALLDATASIZE LT PUSH2 0x14D JUMPI PUSH1 0x0 CALLDATALOAD PUSH1 0xE0 SHR DUP1 PUSH4 0x7ED85FF3 GT PUSH2 0xC3 JUMPI DUP1 PUSH4 0xA999D1C7 GT PUSH2 0x7C JUMPI DUP1 PUSH4 0xA999D1C7 EQ PUSH2 0x33C JUMPI DUP1 PUSH4 0xC3453153 EQ PUSH2 0x363 JUMPI DUP1 PUSH4 0xC5E22F3F EQ PUSH2 0x383 JUMPI DUP1 PUSH4 0xCD0FD3A2 EQ PUSH2 0x396 JUMPI DUP1 PUSH4 0xEE172546 EQ PUSH2 0x3A9 JUMPI DUP1 PUSH4 0xF2FDE38B EQ PUSH2 0x3B2 JUMPI PUSH1 0x0 DUP1 REVERT JUMPDEST DUP1 PUSH4 0x7ED85FF3 EQ PUSH2 0x2DE JUMPI DUP1 PUSH4 0x817B1CD2 EQ PUSH2 0x2FE JUMPI DUP1 PUSH4 0x8456CB59 EQ PUSH2 0x307 JUMPI DUP1 PUSH4 0x86989038 EQ PUSH2 0x30F JUMPI DUP1 PUSH4 0x8DA5CB5B EQ PUSH2 0x318 JUMPI DUP1 PUSH4 0x95CCEA67 EQ PUSH2 0x329 JUMPI PUSH1 0x0 DUP1 REVERT JUMPDEST DUP1 PUSH4 0x372500AB GT PUSH2 0x115 JUMPI DUP1 PUSH4 0x372500AB EQ PUSH2 0x258 JUMPI DUP1 PUSH4 0x3F4BA83A EQ PUSH2 0x260 JUMPI DUP1 PUSH4 0x51032B06 EQ PUSH2 0x268 JUMPI DUP1 PUSH4 0x5C975ABB EQ PUSH2 0x2A7 JUMPI DUP1 PUSH4 0x6471AF83 EQ PUSH2 0x2BD JUMPI DUP1 PUSH4 0x715018A6 EQ PUSH2 0x2D6 JUMPI PUSH1 0x0 DUP1 REVERT JUMPDEST DUP1 PUSH4 0x10087FB1 EQ PUSH2 0x152 JUMPI DUP1 PUSH4 0x16934FC4 EQ PUSH2 0x167 JUMPI DUP1 PUSH4 0x2DEF6620 EQ PUSH2 0x1C9 JUMPI DUP1 PUSH4 0x31D7A262 EQ PUSH2 0x1D1 JUMPI DUP1 PUSH4 0x35766F4B EQ PUSH2 0x1F2 JUMPI JUMPDEST PUSH1 0x0 DUP1 REVERT JUMPDEST PUSH2 0x165 PUSH2 0x160 CALLDATASIZE PUSH1 0x4 PUSH2 0x168D JUMP JUMPDEST PUSH2 0x3C5 JUMP JUMPDEST STOP JUMPDEST PUSH2 0x1AE PUSH2 0x175 CALLDATASIZE PUSH1 0x4 PUSH2 0x16D0 JUMP JUMPDEST PUSH1 0x4 PUSH1 0x20 DUP2 SWAP1 MSTORE PUSH1 0x0 SWAP2 DUP3 MSTORE PUSH1 0x40 SWAP1 SWAP2 KECCAK256 DUP1 SLOAD PUSH1 0x1 DUP3 ADD SLOAD PUSH1 0x2 DUP4 ADD SLOAD PUSH1 0x3 DUP5 ADD SLOAD SWAP5 DUP5 ADD SLOAD PUSH1 0x5 SWAP1 SWAP5 ADD SLOAD SWAP3 SWAP5 PUSH1 0xFF SWAP1 SWAP3 AND SWAP4 SWAP1 SWAP3 DUP7 JUMP JUMPDEST PUSH1 0x40 MLOAD PUSH2 0x1C0 SWAP7 SWAP6 SWAP5 SWAP4 SWAP3 SWAP2 SWAP1 PUSH2 0x172A JUMP JUMPDEST PUSH1 0x40 MLOAD DUP1 SWAP2 SUB SWAP1 RETURN JUMPDEST PUSH2 0x165 PUSH2 0x6FD JUMP JUMPDEST PUSH2 0x1E4 PUSH2 0x1DF CALLDATASIZE PUSH1 0x4 PUSH2 0x16D0 JUMP JUMPDEST PUSH2 0x865 JUMP JUMPDEST PUSH1 0x40 MLOAD SWAP1 DUP2 MSTORE PUSH1 0x20 ADD PUSH2 0x1C0 JUMP JUMPDEST PUSH2 0x230 PUSH2 0x200 CALLDATASIZE PUSH1 0x4 PUSH2 0x1761 JUMP JUMPDEST PUSH1 0x3 PUSH1 0x20 DUP2 SWAP1 MSTORE PUSH1 0x0 SWAP2 DUP3 MSTORE PUSH1 0x40 SWAP1 SWAP2 KECCAK256 DUP1 SLOAD PUSH1 0x1 DUP3 ADD SLOAD PUSH1 0x2 DUP4 ADD SLOAD SWAP4 DUP4 ADD SLOAD PUSH1 0x4 SWAP1 SWAP4 ADD SLOAD SWAP2 SWAP4 SWAP1 SWAP3 SWAP1 SWAP2 DUP6 JUMP JUMPDEST PUSH1 0x40 DUP1 MLOAD SWAP6 DUP7 MSTORE PUSH1 0x20 DUP7 ADD SWAP5 SWAP1 SWAP5 MSTORE SWAP3 DUP5 ADD SWAP2 SWAP1 SWAP2 MSTORE PUSH1 0x60 DUP4 ADD MSTORE PUSH1 0x80 DUP3 ADD MSTORE PUSH1 0xA0 ADD PUSH2 0x1C0 JUMP JUMPDEST PUSH2 0x165 PUSH2 0x92A JUMP JUMPDEST PUSH2 0x165 PUSH2 0x944 JUMP JUMPDEST PUSH2 0x28F PUSH32 0x0 DUP2 JUMP JUMPDEST PUSH1 0x40 MLOAD PUSH1 0x1 PUSH1 0x1 PUSH1 0xA0 SHL SUB SWAP1 SWAP2 AND DUP2 MSTORE PUSH1 0x20 ADD PUSH2 0x1C0 JUMP JUMPDEST PUSH1 0x2 SLOAD PUSH1 0xFF AND PUSH1 0x40 MLOAD SWAP1 ISZERO ISZERO DUP2 MSTORE PUSH1 0x20 ADD PUSH2 0x1C0 JUMP JUMPDEST PUSH2 0x2C5 PUSH2 0x954 JUMP JUMPDEST PUSH1 0x40 MLOAD PUSH2 0x1C0 SWAP6 SWAP5 SWAP4 SWAP3 SWAP2 SWAP1 PUSH2 0x17AC JUMP JUMPDEST PUSH2 0x165 PUSH2 0xD7E JUMP JUMPDEST PUSH2 0x2F1 PUSH2 0x2EC CALLDATASIZE PUSH1 0x4 PUSH2 0x1761 JUMP JUMPDEST PUSH2 0xD90 JUMP JUMPDEST PUSH1 0x40 MLOAD PUSH2 0x1C0 SWAP2 SWAP1 PUSH2 0x17FC JUMP JUMPDEST PUSH2 0x1E4 PUSH1 0x5 SLOAD DUP2 JUMP JUMPDEST PUSH2 0x165 PUSH2 0xE11 JUMP JUMPDEST PUSH2 0x1E4 PUSH1 0x6 SLOAD DUP2 JUMP JUMPDEST PUSH1 0x0 SLOAD PUSH1 0x1 PUSH1 0x1 PUSH1 0xA0 SHL SUB AND PUSH2 0x28F JUMP JUMPDEST PUSH2 0x165 PUSH2 0x337 CALLDATASIZE PUSH1 0x4 PUSH2 0x1810 JUMP JUMPDEST PUSH2 0xE21 JUMP JUMPDEST PUSH2 0x28F PUSH32 0x0 DUP2 JUMP JUMPDEST PUSH2 0x376 PUSH2 0x371 CALLDATASIZE PUSH1 0x4 PUSH2 0x16D0 JUMP JUMPDEST PUSH2 0xED0 JUMP JUMPDEST PUSH1 0x40 MLOAD PUSH2 0x1C0 SWAP2 SWAP1 PUSH2 0x183A JUMP JUMPDEST PUSH2 0x1E4 PUSH2 0x391 CALLDATASIZE PUSH1 0x4 PUSH2 0x16D0 JUMP JUMPDEST PUSH2 0x1025 JUMP JUMPDEST PUSH2 0x1E4 PUSH2 0x3A4 CALLDATASIZE PUSH1 0x4 PUSH2 0x16D0 JUMP JUMPDEST PUSH2 0x1099 JUMP JUMPDEST PUSH2 0x1E4 PUSH1 0x7 SLOAD DUP2 JUMP JUMPDEST PUSH2 0x165 PUSH2 0x3C0 CALLDATASIZE PUSH1 0x4 PUSH2 0x16D0 JUMP JUMPDEST PUSH2 0x110C JUMP JUMPDEST PUSH2 0x3CD PUSH2 0x114A JUMP JUMPDEST PUSH2 0x3D5 PUSH2 0x1174 JUMP JUMPDEST PUSH1 0x0 DUP2 PUSH1 0x5 DUP2 GT ISZERO PUSH2 0x3E9 JUMPI PUSH2 0x3E9 PUSH2 0x16F2 JUMP JUMPDEST SUB PUSH2 0x42A JUMPI PUSH1 0x40 MLOAD PUSH3 0x461BCD PUSH1 0xE5 SHL DUP2 MSTORE PUSH1 0x20 PUSH1 0x4 DUP3 ADD MSTORE PUSH1 0xC PUSH1 0x24 DUP3 ADD MSTORE PUSH12 0x24B73B30B634B2103A34B2B9 PUSH1 0xA1 SHL PUSH1 0x44 DUP3 ADD MSTORE PUSH1 0x64 ADD JUMPDEST PUSH1 0x40 MLOAD DUP1 SWAP2 SUB SWAP1 REVERT JUMPDEST PUSH1 0x3 PUSH1 0x0 DUP3 PUSH1 0x5 DUP2 GT ISZERO PUSH2 0x440 JUMPI PUSH2 0x440 PUSH2 0x16F2 JUMP JUMPDEST PUSH1 0x5 DUP2 GT ISZERO PUSH2 0x451 JUMPI PUSH2 0x451 PUSH2 0x16F2 JUMP JUMPDEST DUP2 MSTORE PUSH1 0x20 ADD SWAP1 DUP2 MSTORE PUSH1 0x20 ADD PUSH1 0x0 KECCAK256 PUSH1 0x0 ADD SLOAD DUP3 LT ISZERO PUSH2 0x4B2 JUMPI PUSH1 0x40 MLOAD PUSH3 0x461BCD PUSH1 0xE5 SHL DUP2 MSTORE PUSH1 0x20 PUSH1 0x4 DUP3 ADD MSTORE PUSH1 0x1C PUSH1 0x24 DUP3 ADD MSTORE PUSH32 0x42656C6F77206D696E696D756D207374616B6520666F72207469657200000000 PUSH1 0x44 DUP3 ADD MSTORE PUSH1 0x64 ADD PUSH2 0x421 JUMP JUMPDEST CALLER PUSH1 0x0 SWAP1 DUP2 MSTORE PUSH1 0x4 PUSH1 0x20 MSTORE PUSH1 0x40 SWAP1 KECCAK256 DUP1 SLOAD ISZERO PUSH2 0x4D6 JUMPI PUSH2 0x4D1 CALLER PUSH2 0x1198 JUMP JUMPDEST PUSH2 0x4EC JUMP JUMPDEST PUSH1 0x6 DUP1 SLOAD SWAP1 PUSH1 0x0 PUSH2 0x4E6 DUP4 PUSH2 0x18BB JUMP JUMPDEST SWAP2 SWAP1 POP SSTORE POP JUMPDEST PUSH2 0x521 PUSH1 0x1 PUSH1 0x1 PUSH1 0xA0 SHL SUB PUSH32 0x0 AND CALLER ADDRESS DUP7 PUSH2 0x12DB JUMP JUMPDEST DUP1 SLOAD PUSH1 0x0 SWAP1 PUSH2 0x531 SWAP1 DUP6 SWAP1 PUSH2 0x18D4 JUMP JUMPDEST SWAP1 POP PUSH1 0x0 PUSH1 0x3 PUSH1 0x0 DUP6 PUSH1 0x5 DUP2 GT ISZERO PUSH2 0x54B JUMPI PUSH2 0x54B PUSH2 0x16F2 JUMP JUMPDEST PUSH1 0x5 DUP2 GT ISZERO PUSH2 0x55C JUMPI PUSH2 0x55C PUSH2 0x16F2 JUMP JUMPDEST DUP2 MSTORE PUSH1 0x20 ADD SWAP1 DUP2 MSTORE PUSH1 0x20 ADD PUSH1 0x0 KECCAK256 PUSH1 0x1 ADD SLOAD TIMESTAMP PUSH2 0x579 SWAP2 SWAP1 PUSH2 0x18D4 JUMP JUMPDEST PUSH1 0x1 DUP5 ADD SLOAD SWAP1 SWAP2 POP PUSH1 0xFF AND PUSH1 0x0 PUSH2 0x58F DUP5 PUSH2 0x1348 JUMP JUMPDEST SWAP1 POP DUP6 PUSH1 0x5 DUP2 GT ISZERO PUSH2 0x5A3 JUMPI PUSH2 0x5A3 PUSH2 0x16F2 JUMP JUMPDEST DUP2 PUSH1 0x5 DUP2 GT ISZERO PUSH2 0x5B5 JUMPI PUSH2 0x5B5 PUSH2 0x16F2 JUMP JUMPDEST GT ISZERO PUSH2 0x5BF JUMPI DUP1 SWAP6 POP JUMPDEST DUP4 DUP6 SSTORE PUSH1 0x1 DUP1 DUP7 ADD DUP1 SLOAD DUP9 SWAP3 PUSH1 0xFF NOT SWAP1 SWAP2 AND SWAP1 DUP4 PUSH1 0x5 DUP2 GT ISZERO PUSH2 0x5E4 JUMPI PUSH2 0x5E4 PUSH2 0x16F2 JUMP JUMPDEST MUL OR SWAP1 SSTORE POP TIMESTAMP PUSH1 0x2 DUP7 ADD SSTORE PUSH1 0x3 DUP6 ADD DUP4 SWAP1 SSTORE PUSH1 0x4 DUP6 ADD SLOAD PUSH1 0x0 SUB PUSH2 0x609 JUMPI TIMESTAMP PUSH1 0x4 DUP7 ADD SSTORE JUMPDEST DUP7 PUSH1 0x5 PUSH1 0x0 DUP3 DUP3 SLOAD PUSH2 0x61B SWAP2 SWAP1 PUSH2 0x18D4 JUMP JUMPDEST SWAP1 SWAP2 SSTORE POP POP PUSH1 0x40 MLOAD CALLER SWAP1 PUSH32 0xBDE7F0BA1630D25515C7AB99BA47D5640B7FFB4C673B2A5464AE679195589298 SWAP1 PUSH2 0x656 SWAP1 DUP11 SWAP1 DUP11 SWAP1 DUP9 SWAP1 PUSH2 0x18E7 JUMP JUMPDEST PUSH1 0x40 MLOAD DUP1 SWAP2 SUB SWAP1 LOG2 DUP6 PUSH1 0x5 DUP2 GT ISZERO PUSH2 0x670 JUMPI PUSH2 0x670 PUSH2 0x16F2 JUMP JUMPDEST DUP3 PUSH1 0x5 DUP2 GT ISZERO PUSH2 0x682 JUMPI PUSH2 0x682 PUSH2 0x16F2 JUMP JUMPDEST EQ ISZERO DUP1 ISZERO PUSH2 0x6A2 JUMPI POP PUSH1 0x0 DUP3 PUSH1 0x5 DUP2 GT ISZERO PUSH2 0x69F JUMPI PUSH2 0x69F PUSH2 0x16F2 JUMP JUMPDEST EQ ISZERO JUMPDEST ISZERO PUSH2 0x6EB JUMPI CALLER PUSH1 0x1 PUSH1 0x1 PUSH1 0xA0 SHL SUB AND PUSH32 0xCBBF00B5F55F1857F9362F521999F79036413E420D1B236D6BC143AF30DB731A DUP4 DUP9 PUSH1 0x40 MLOAD PUSH2 0x6E2 SWAP3 SWAP2 SWAP1 PUSH2 0x1909 JUMP JUMPDEST PUSH1 0x40 MLOAD DUP1 SWAP2 SUB SWAP1 LOG2 JUMPDEST POP POP POP POP POP PUSH2 0x6F9 PUSH1 0x1 DUP1 SSTORE JUMP JUMPDEST POP POP JUMP JUMPDEST PUSH2 0x705 PUSH2 0x114A JUMP JUMPDEST CALLER PUSH1 0x0 SWAP1 DUP2 MSTORE PUSH1 0x4 PUSH1 0x20 MSTORE PUSH1 0x40 SWAP1 KECCAK256 DUP1 SLOAD PUSH2 0x753 JUMPI PUSH1 0x40 MLOAD PUSH3 0x461BCD PUSH1 0xE5 SHL DUP2 MSTORE PUSH1 0x20 PUSH1 0x4 DUP3 ADD MSTORE PUSH1 0xE PUSH1 0x24 DUP3 ADD MSTORE PUSH14 0x139BC81CDD185AD948199BDD5B99 PUSH1 0x92 SHL PUSH1 0x44 DUP3 ADD MSTORE PUSH1 0x64 ADD PUSH2 0x421 JUMP JUMPDEST DUP1 PUSH1 0x3 ADD SLOAD TIMESTAMP LT ISZERO PUSH2 0x79F JUMPI PUSH1 0x40 MLOAD PUSH3 0x461BCD PUSH1 0xE5 SHL DUP2 MSTORE PUSH1 0x20 PUSH1 0x4 DUP3 ADD MSTORE PUSH1 0x15 PUSH1 0x24 DUP3 ADD MSTORE PUSH21 0x14DD185AD9481A5CC81CDD1A5B1B081B1BD8DAD959 PUSH1 0x5A SHL PUSH1 0x44 DUP3 ADD MSTORE PUSH1 0x64 ADD PUSH2 0x421 JUMP JUMPDEST PUSH2 0x7A8 CALLER PUSH2 0x1198 JUMP JUMPDEST DUP1 SLOAD PUSH1 0x0 DUP1 DUP4 SSTORE PUSH1 0x1 DUP4 ADD DUP1 SLOAD PUSH1 0xFF NOT AND SWAP1 SSTORE PUSH1 0x3 DUP4 ADD DUP2 SWAP1 SSTORE PUSH1 0x5 DUP1 SLOAD DUP4 SWAP3 SWAP1 PUSH2 0x7D4 SWAP1 DUP5 SWAP1 PUSH2 0x1924 JUMP JUMPDEST SWAP1 SWAP2 SSTORE POP POP PUSH1 0x6 DUP1 SLOAD SWAP1 PUSH1 0x0 PUSH2 0x7E9 DUP4 PUSH2 0x1937 JUMP JUMPDEST SWAP1 SWAP2 SSTORE POP PUSH2 0x823 SWAP1 POP PUSH1 0x1 PUSH1 0x1 PUSH1 0xA0 SHL SUB PUSH32 0x0 AND CALLER DUP4 PUSH2 0x1474 JUMP JUMPDEST PUSH1 0x40 MLOAD DUP2 DUP2 MSTORE CALLER SWAP1 PUSH32 0xF5BB82176FEB1B5E747E28471AA92156A04D9F3AB9F45F28E2D704232B93F75 SWAP1 PUSH1 0x20 ADD PUSH1 0x40 MLOAD DUP1 SWAP2 SUB SWAP1 LOG2 POP POP PUSH2 0x863 PUSH1 0x1 DUP1 SSTORE JUMP JUMPDEST JUMP JUMPDEST PUSH1 0x1 PUSH1 0x1 PUSH1 0xA0 SHL SUB DUP2 AND PUSH1 0x0 SWAP1 DUP2 MSTORE PUSH1 0x4 PUSH1 0x20 MSTORE PUSH1 0x40 DUP2 KECCAK256 DUP1 SLOAD ISZERO DUP1 PUSH2 0x88D JUMPI POP PUSH1 0x4 DUP2 ADD SLOAD ISZERO JUMPDEST ISZERO PUSH2 0x89B JUMPI POP PUSH1 0x0 SWAP3 SWAP2 POP POP JUMP JUMPDEST PUSH1 0x0 DUP2 PUSH1 0x4 ADD SLOAD TIMESTAMP PUSH2 0x8AD SWAP2 SWAP1 PUSH2 0x1924 JUMP JUMPDEST PUSH1 0x1 DUP4 ADD SLOAD SWAP1 SWAP2 POP PUSH1 0x0 SWAP1 PUSH1 0x3 SWAP1 DUP3 SWAP1 PUSH1 0xFF AND PUSH1 0x5 DUP2 GT ISZERO PUSH2 0x8D1 JUMPI PUSH2 0x8D1 PUSH2 0x16F2 JUMP JUMPDEST PUSH1 0x5 DUP2 GT ISZERO PUSH2 0x8E2 JUMPI PUSH2 0x8E2 PUSH2 0x16F2 JUMP JUMPDEST DUP2 MSTORE PUSH1 0x20 ADD SWAP1 DUP2 MSTORE PUSH1 0x20 ADD PUSH1 0x0 KECCAK256 PUSH1 0x3 ADD SLOAD SWAP1 POP PUSH5 0x496CEBB800 DUP3 DUP3 DUP6 PUSH1 0x0 ADD SLOAD PUSH2 0x90D SWAP2 SWAP1 PUSH2 0x194E JUMP JUMPDEST PUSH2 0x917 SWAP2 SWAP1 PUSH2 0x194E JUMP JUMPDEST PUSH2 0x921 SWAP2 SWAP1 PUSH2 0x1965 JUMP JUMPDEST SWAP6 SWAP5 POP POP POP POP POP JUMP JUMPDEST PUSH2 0x932 PUSH2 0x114A JUMP JUMPDEST PUSH2 0x93B CALLER PUSH2 0x1198 JUMP JUMPDEST PUSH2 0x863 PUSH1 0x1 DUP1 SSTORE JUMP JUMPDEST PUSH2 0x94C PUSH2 0x14AA JUMP JUMPDEST PUSH2 0x863 PUSH2 0x14D7 JUMP JUMPDEST PUSH2 0x95C PUSH2 0x164A JUMP JUMPDEST PUSH2 0x964 PUSH2 0x164A JUMP JUMPDEST PUSH2 0x96C PUSH2 0x164A JUMP JUMPDEST PUSH2 0x974 PUSH2 0x164A JUMP JUMPDEST PUSH2 0x97C PUSH2 0x164A JUMP JUMPDEST POP POP PUSH1 0x3 PUSH1 0x20 SWAP1 DUP2 MSTORE PUSH1 0x5 PUSH1 0x0 MSTORE PUSH1 0x40 DUP1 MLOAD PUSH1 0xA0 DUP1 DUP3 ADD DUP4 MSTORE PUSH32 0xA15BC60C955C405D20D9149C709E2460F1C2D9A497496A7F46004D1772C3054C SLOAD DUP3 MSTORE PUSH32 0xA15BC60C955C405D20D9149C709E2460F1C2D9A497496A7F46004D1772C3054D SLOAD DUP3 DUP6 ADD MSTORE PUSH32 0xA15BC60C955C405D20D9149C709E2460F1C2D9A497496A7F46004D1772C3054E SLOAD DUP3 DUP5 ADD MSTORE PUSH32 0xA15BC60C955C405D20D9149C709E2460F1C2D9A497496A7F46004D1772C3054F SLOAD PUSH1 0x60 DUP1 DUP5 ADD SWAP2 SWAP1 SWAP2 MSTORE PUSH32 0xA15BC60C955C405D20D9149C709E2460F1C2D9A497496A7F46004D1772C30550 SLOAD PUSH1 0x80 DUP1 DUP6 ADD SWAP2 SWAP1 SWAP2 MSTORE DUP5 MLOAD DUP1 DUP5 ADD DUP7 MSTORE PUSH32 0xC3A24B0501BD2C13A7E57F2DB4369EC4C223447539FC0724A9D55AC4A06EBD4D SLOAD DUP2 MSTORE PUSH32 0xC3A24B0501BD2C13A7E57F2DB4369EC4C223447539FC0724A9D55AC4A06EBD4E SLOAD DUP2 DUP9 ADD MSTORE PUSH32 0xC3A24B0501BD2C13A7E57F2DB4369EC4C223447539FC0724A9D55AC4A06EBD4F SLOAD DUP2 DUP8 ADD MSTORE PUSH32 0xC3A24B0501BD2C13A7E57F2DB4369EC4C223447539FC0724A9D55AC4A06EBD50 SLOAD DUP2 DUP5 ADD MSTORE PUSH32 0xC3A24B0501BD2C13A7E57F2DB4369EC4C223447539FC0724A9D55AC4A06EBD51 SLOAD DUP2 DUP4 ADD MSTORE DUP6 MLOAD DUP1 DUP6 ADD DUP8 MSTORE PUSH32 0xCBC4E5FB02C3D1DE23A9F1E014B4D2EE5AEAEA9505DF5E855C9210BF472495AF SLOAD DUP2 MSTORE PUSH32 0xCBC4E5FB02C3D1DE23A9F1E014B4D2EE5AEAEA9505DF5E855C9210BF472495B0 SLOAD DUP2 DUP10 ADD MSTORE PUSH32 0xCBC4E5FB02C3D1DE23A9F1E014B4D2EE5AEAEA9505DF5E855C9210BF472495B1 SLOAD DUP2 DUP9 ADD MSTORE PUSH32 0xCBC4E5FB02C3D1DE23A9F1E014B4D2EE5AEAEA9505DF5E855C9210BF472495B2 SLOAD DUP2 DUP6 ADD MSTORE PUSH32 0xCBC4E5FB02C3D1DE23A9F1E014B4D2EE5AEAEA9505DF5E855C9210BF472495B3 SLOAD DUP2 DUP5 ADD MSTORE DUP7 MLOAD DUP1 DUP7 ADD DUP9 MSTORE PUSH32 0x83EC6A1F0257B830B5E016457C9CF1435391BF56CC98F369A58A54FE93772465 SLOAD DUP2 MSTORE PUSH32 0x83EC6A1F0257B830B5E016457C9CF1435391BF56CC98F369A58A54FE93772466 SLOAD DUP2 DUP11 ADD MSTORE PUSH32 0x83EC6A1F0257B830B5E016457C9CF1435391BF56CC98F369A58A54FE93772467 SLOAD DUP2 DUP10 ADD MSTORE PUSH32 0x83EC6A1F0257B830B5E016457C9CF1435391BF56CC98F369A58A54FE93772468 SLOAD DUP2 DUP7 ADD MSTORE PUSH32 0x83EC6A1F0257B830B5E016457C9CF1435391BF56CC98F369A58A54FE93772469 SLOAD DUP2 DUP6 ADD MSTORE DUP8 MLOAD SWAP6 DUP7 ADD DUP9 MSTORE PUSH32 0x405AAD32E1ADBAC89BB7F176E338B8FC6E994CA210C9BB7BDCA249B465942250 SLOAD DUP7 MSTORE PUSH32 0x405AAD32E1ADBAC89BB7F176E338B8FC6E994CA210C9BB7BDCA249B465942251 SLOAD SWAP9 DUP7 ADD SWAP9 SWAP1 SWAP9 MSTORE PUSH32 0x405AAD32E1ADBAC89BB7F176E338B8FC6E994CA210C9BB7BDCA249B465942252 SLOAD SWAP7 DUP6 ADD SWAP7 SWAP1 SWAP7 MSTORE PUSH32 0x405AAD32E1ADBAC89BB7F176E338B8FC6E994CA210C9BB7BDCA249B465942253 SLOAD SWAP3 DUP5 ADD SWAP3 SWAP1 SWAP3 MSTORE PUSH32 0x405AAD32E1ADBAC89BB7F176E338B8FC6E994CA210C9BB7BDCA249B465942254 SLOAD SWAP1 DUP4 ADD MSTORE SWAP2 SWAP8 SWAP2 SWAP7 POP SWAP2 SWAP5 POP SWAP2 SWAP3 POP SWAP1 JUMP JUMPDEST PUSH2 0xD86 PUSH2 0x14AA JUMP JUMPDEST PUSH2 0x863 PUSH1 0x0 PUSH2 0x1529 JUMP JUMPDEST PUSH2 0xD98 PUSH2 0x164A JUMP JUMPDEST PUSH1 0x3 PUSH1 0x0 DUP4 PUSH1 0x5 DUP2 GT ISZERO PUSH2 0xDAE JUMPI PUSH2 0xDAE PUSH2 0x16F2 JUMP JUMPDEST PUSH1 0x5 DUP2 GT ISZERO PUSH2 0xDBF JUMPI PUSH2 0xDBF PUSH2 0x16F2 JUMP JUMPDEST DUP2 MSTORE PUSH1 0x20 ADD SWAP1 DUP2 MSTORE PUSH1 0x20 ADD PUSH1 0x0 KECCAK256 PUSH1 0x40 MLOAD DUP1 PUSH1 0xA0 ADD PUSH1 0x40 MSTORE SWAP1 DUP2 PUSH1 0x0 DUP3 ADD SLOAD DUP2 MSTORE PUSH1 0x20 ADD PUSH1 0x1 DUP3 ADD SLOAD DUP2 MSTORE PUSH1 0x20 ADD PUSH1 0x2 DUP3 ADD SLOAD DUP2 MSTORE PUSH1 0x20 ADD PUSH1 0x3 DUP3 ADD SLOAD DUP2 MSTORE PUSH1 0x20 ADD PUSH1 0x4 DUP3 ADD SLOAD DUP2 MSTORE POP POP SWAP1 POP SWAP2 SWAP1 POP JUMP JUMPDEST PUSH2 0xE19 PUSH2 0x14AA JUMP JUMPDEST PUSH2 0x863 PUSH2 0x1579 JUMP JUMPDEST PUSH2 0xE29 PUSH2 0x14AA JUMP JUMPDEST PUSH32 0x0 PUSH1 0x1 PUSH1 0x1 PUSH1 0xA0 SHL SUB AND DUP3 PUSH1 0x1 PUSH1 0x1 PUSH1 0xA0 SHL SUB AND SUB PUSH2 0xEAA JUMPI PUSH1 0x40 MLOAD PUSH3 0x461BCD PUSH1 0xE5 SHL DUP2 MSTORE PUSH1 0x20 PUSH1 0x4 DUP3 ADD MSTORE PUSH1 0x1D PUSH1 0x24 DUP3 ADD MSTORE PUSH32 0x43616E6E6F74207769746864726177207374616B656420746F6B656E73000000 PUSH1 0x44 DUP3 ADD MSTORE PUSH1 0x64 ADD PUSH2 0x421 JUMP JUMPDEST PUSH2 0x6F9 PUSH2 0xEBF PUSH1 0x0 SLOAD PUSH1 0x1 PUSH1 0x1 PUSH1 0xA0 SHL SUB AND SWAP1 JUMP JUMPDEST PUSH1 0x1 PUSH1 0x1 PUSH1 0xA0 SHL SUB DUP5 AND SWAP1 DUP4 PUSH2 0x1474 JUMP JUMPDEST PUSH2 0xF20 PUSH1 0x40 DUP1 MLOAD PUSH2 0x120 DUP2 ADD SWAP1 SWAP2 MSTORE PUSH1 0x0 DUP1 DUP3 MSTORE PUSH1 0x20 DUP3 ADD SWAP1 DUP2 MSTORE PUSH1 0x20 ADD PUSH1 0x0 DUP2 MSTORE PUSH1 0x20 ADD PUSH1 0x0 DUP2 MSTORE PUSH1 0x20 ADD PUSH1 0x0 DUP2 MSTORE PUSH1 0x20 ADD PUSH1 0x0 DUP2 MSTORE PUSH1 0x20 ADD PUSH1 0x0 DUP2 MSTORE PUSH1 0x20 ADD PUSH1 0x0 DUP2 MSTORE PUSH1 0x20 ADD PUSH1 0x0 DUP2 MSTORE POP SWAP1 JUMP JUMPDEST PUSH1 0x1 PUSH1 0x1 PUSH1 0xA0 SHL SUB DUP3 AND PUSH1 0x0 SWAP1 DUP2 MSTORE PUSH1 0x4 PUSH1 0x20 MSTORE PUSH1 0x40 DUP2 KECCAK256 PUSH1 0x1 DUP2 ADD SLOAD SWAP1 SWAP2 SWAP1 PUSH1 0x3 SWAP1 DUP3 SWAP1 PUSH1 0xFF AND PUSH1 0x5 DUP2 GT ISZERO PUSH2 0xF59 JUMPI PUSH2 0xF59 PUSH2 0x16F2 JUMP JUMPDEST PUSH1 0x5 DUP2 GT ISZERO PUSH2 0xF6A JUMPI PUSH2 0xF6A PUSH2 0x16F2 JUMP JUMPDEST DUP2 MSTORE PUSH1 0x20 DUP1 DUP3 ADD SWAP3 SWAP1 SWAP3 MSTORE PUSH1 0x40 ADD PUSH1 0x0 KECCAK256 DUP4 SLOAD DUP6 MSTORE PUSH1 0x1 DUP5 ADD SLOAD SWAP1 SWAP3 POP SWAP1 DUP5 ADD SWAP1 PUSH1 0xFF AND PUSH1 0x5 DUP2 GT ISZERO PUSH2 0xF9F JUMPI PUSH2 0xF9F PUSH2 0x16F2 JUMP JUMPDEST SWAP1 DUP2 PUSH1 0x5 DUP2 GT ISZERO PUSH2 0xFB2 JUMPI PUSH2 0xFB2 PUSH2 0x16F2 JUMP JUMPDEST SWAP1 MSTORE POP PUSH1 0x2 DUP3 ADD SLOAD PUSH1 0x40 DUP5 ADD MSTORE PUSH1 0x3 DUP3 ADD SLOAD PUSH1 0x60 DUP5 ADD MSTORE PUSH1 0x4 DUP3 ADD SLOAD PUSH1 0x80 DUP5 ADD MSTORE PUSH1 0x5 DUP3 ADD SLOAD PUSH1 0xA0 DUP5 ADD MSTORE PUSH2 0xFE6 DUP5 PUSH2 0x865 JUMP JUMPDEST PUSH1 0xC0 DUP5 ADD MSTORE DUP2 SLOAD PUSH2 0xFF9 JUMPI PUSH2 0x2710 PUSH2 0xFFF JUMP JUMPDEST DUP1 PUSH1 0x2 ADD SLOAD JUMPDEST PUSH1 0xE0 DUP5 ADD MSTORE DUP2 SLOAD PUSH2 0x1011 JUMPI PUSH1 0x0 PUSH2 0x1017 JUMP JUMPDEST DUP1 PUSH1 0x4 ADD SLOAD JUMPDEST PUSH2 0x100 DUP5 ADD MSTORE POP SWAP1 SWAP3 SWAP2 POP POP JUMP JUMPDEST PUSH1 0x1 PUSH1 0x1 PUSH1 0xA0 SHL SUB DUP2 AND PUSH1 0x0 SWAP1 DUP2 MSTORE PUSH1 0x4 PUSH1 0x20 MSTORE PUSH1 0x40 DUP2 KECCAK256 DUP1 SLOAD DUP3 SUB PUSH2 0x104F JUMPI POP PUSH2 0x2710 SWAP3 SWAP2 POP POP JUMP JUMPDEST PUSH1 0x1 DUP2 ADD SLOAD PUSH1 0x3 SWAP1 PUSH1 0x0 SWAP1 PUSH1 0xFF AND PUSH1 0x5 DUP2 GT ISZERO PUSH2 0x106E JUMPI PUSH2 0x106E PUSH2 0x16F2 JUMP JUMPDEST PUSH1 0x5 DUP2 GT ISZERO PUSH2 0x107F JUMPI PUSH2 0x107F PUSH2 0x16F2 JUMP JUMPDEST DUP2 MSTORE PUSH1 0x20 ADD SWAP1 DUP2 MSTORE PUSH1 0x20 ADD PUSH1 0x0 KECCAK256 PUSH1 0x2 ADD SLOAD SWAP2 POP POP SWAP2 SWAP1 POP JUMP JUMPDEST PUSH1 0x1 PUSH1 0x1 PUSH1 0xA0 SHL SUB DUP2 AND PUSH1 0x0 SWAP1 DUP2 MSTORE PUSH1 0x4 PUSH1 0x20 MSTORE PUSH1 0x40 DUP2 KECCAK256 DUP1 SLOAD DUP3 SUB PUSH2 0x10C2 JUMPI POP PUSH1 0x0 SWAP3 SWAP2 POP POP JUMP JUMPDEST PUSH1 0x1 DUP2 ADD SLOAD PUSH1 0x3 SWAP1 PUSH1 0x0 SWAP1 PUSH1 0xFF AND PUSH1 0x5 DUP2 GT ISZERO PUSH2 0x10E1 JUMPI PUSH2 0x10E1 PUSH2 0x16F2 JUMP JUMPDEST PUSH1 0x5 DUP2 GT ISZERO PUSH2 0x10F2 JUMPI PUSH2 0x10F2 PUSH2 0x16F2 JUMP JUMPDEST DUP2 MSTORE PUSH1 0x20 ADD SWAP1 DUP2 MSTORE PUSH1 0x20 ADD PUSH1 0x0 KECCAK256 PUSH1 0x4 ADD SLOAD SWAP2 POP POP SWAP2 SWAP1 POP JUMP JUMPDEST PUSH2 0x1114 PUSH2 0x14AA JUMP JUMPDEST PUSH1 0x1 PUSH1 0x1 PUSH1 0xA0 SHL SUB DUP2 AND PUSH2 0x113E JUMPI PUSH1 0x40 MLOAD PUSH4 0x1E4FBDF7 PUSH1 0xE0 SHL DUP2 MSTORE PUSH1 0x0 PUSH1 0x4 DUP3 ADD MSTORE PUSH1 0x24 ADD PUSH2 0x421 JUMP JUMPDEST PUSH2 0x1147 DUP2 PUSH2 0x1529 JUMP JUMPDEST POP JUMP JUMPDEST PUSH1 0x2 PUSH1 0x1 SLOAD SUB PUSH2 0x116D JUMPI PUSH1 0x40 MLOAD PUSH4 0x3EE5AEB5 PUSH1 0xE0 SHL DUP2 MSTORE PUSH1 0x4 ADD PUSH1 0x40 MLOAD DUP1 SWAP2 SUB SWAP1 REVERT JUMPDEST PUSH1 0x2 PUSH1 0x1 SSTORE JUMP JUMPDEST PUSH1 0x2 SLOAD PUSH1 0xFF AND ISZERO PUSH2 0x863 JUMPI PUSH1 0x40 MLOAD PUSH4 0xD93C0665 PUSH1 0xE0 SHL DUP2 MSTORE PUSH1 0x4 ADD PUSH1 0x40 MLOAD DUP1 SWAP2 SUB SWAP1 REVERT JUMPDEST PUSH1 0x1 PUSH1 0x1 PUSH1 0xA0 SHL SUB DUP2 AND PUSH1 0x0 SWAP1 DUP2 MSTORE PUSH1 0x4 PUSH1 0x20 MSTORE PUSH1 0x40 DUP2 KECCAK256 DUP1 SLOAD SWAP1 SWAP2 SUB PUSH2 0x11BD JUMPI POP POP JUMP JUMPDEST PUSH1 0x0 PUSH2 0x11C8 DUP4 PUSH2 0x865 JUMP JUMPDEST SWAP1 POP DUP1 PUSH1 0x0 SUB PUSH2 0x11D7 JUMPI POP POP POP JUMP JUMPDEST TIMESTAMP DUP3 PUSH1 0x4 ADD DUP2 SWAP1 SSTORE POP DUP1 DUP3 PUSH1 0x5 ADD PUSH1 0x0 DUP3 DUP3 SLOAD PUSH2 0x11F4 SWAP2 SWAP1 PUSH2 0x18D4 JUMP JUMPDEST SWAP3 POP POP DUP2 SWAP1 SSTORE POP DUP1 PUSH1 0x7 PUSH1 0x0 DUP3 DUP3 SLOAD PUSH2 0x120D SWAP2 SWAP1 PUSH2 0x18D4 JUMP JUMPDEST SWAP1 SWAP2 SSTORE POP POP PUSH1 0x40 MLOAD PUSH3 0xCA53E5 PUSH1 0xE1 SHL DUP2 MSTORE PUSH1 0x1 PUSH1 0x1 PUSH1 0xA0 SHL SUB DUP5 DUP2 AND PUSH1 0x4 DUP4 ADD MSTORE PUSH1 0x24 DUP3 ADD DUP4 SWAP1 MSTORE PUSH32 0x0 AND SWAP1 PUSH4 0x194A7CA SWAP1 PUSH1 0x44 ADD PUSH1 0x0 PUSH1 0x40 MLOAD DUP1 DUP4 SUB DUP2 PUSH1 0x0 DUP8 DUP1 EXTCODESIZE ISZERO DUP1 ISZERO PUSH2 0x127B JUMPI PUSH1 0x0 DUP1 REVERT JUMPDEST POP GAS CALL ISZERO DUP1 ISZERO PUSH2 0x128F JUMPI RETURNDATASIZE PUSH1 0x0 DUP1 RETURNDATACOPY RETURNDATASIZE PUSH1 0x0 REVERT JUMPDEST POP POP POP POP DUP3 PUSH1 0x1 PUSH1 0x1 PUSH1 0xA0 SHL SUB AND PUSH32 0xFC30CDDEA38E2BF4D6EA7D3F9ED3B6AD7F176419F4963BD81318067A4AEE73FE DUP3 PUSH1 0x40 MLOAD PUSH2 0x12CE SWAP2 DUP2 MSTORE PUSH1 0x20 ADD SWAP1 JUMP JUMPDEST PUSH1 0x40 MLOAD DUP1 SWAP2 SUB SWAP1 LOG2 POP POP POP JUMP JUMPDEST PUSH1 0x40 MLOAD PUSH1 0x1 PUSH1 0x1 PUSH1 0xA0 SHL SUB DUP5 DUP2 AND PUSH1 0x24 DUP4 ADD MSTORE DUP4 DUP2 AND PUSH1 0x44 DUP4 ADD MSTORE PUSH1 0x64 DUP3 ADD DUP4 SWAP1 MSTORE PUSH2 0x1342 SWAP2 DUP7 SWAP2 DUP3 AND SWAP1 PUSH4 0x23B872DD SWAP1 PUSH1 0x84 ADD JUMPDEST PUSH1 0x40 MLOAD PUSH1 0x20 DUP2 DUP4 SUB SUB DUP2 MSTORE SWAP1 PUSH1 0x40 MSTORE SWAP2 POP PUSH1 0xE0 SHL PUSH1 0x20 DUP3 ADD DUP1 MLOAD PUSH1 0x1 PUSH1 0x1 PUSH1 0xE0 SHL SUB DUP4 DUP2 DUP4 AND OR DUP4 MSTORE POP POP POP POP PUSH2 0x15B6 JUMP JUMPDEST POP POP POP POP JUMP JUMPDEST PUSH1 0x5 PUSH1 0x0 SWAP1 DUP2 MSTORE PUSH1 0x3 PUSH1 0x20 MSTORE PUSH32 0x405AAD32E1ADBAC89BB7F176E338B8FC6E994CA210C9BB7BDCA249B465942250 SLOAD DUP3 LT PUSH2 0x1384 JUMPI POP PUSH1 0x5 SWAP2 SWAP1 POP JUMP JUMPDEST PUSH1 0x4 PUSH1 0x0 MSTORE PUSH1 0x3 PUSH1 0x20 MSTORE PUSH32 0x83EC6A1F0257B830B5E016457C9CF1435391BF56CC98F369A58A54FE93772465 SLOAD DUP3 LT PUSH2 0x13BE JUMPI POP PUSH1 0x4 SWAP2 SWAP1 POP JUMP JUMPDEST PUSH1 0x3 PUSH1 0x0 DUP2 SWAP1 MSTORE PUSH1 0x20 MSTORE PUSH32 0xCBC4E5FB02C3D1DE23A9F1E014B4D2EE5AEAEA9505DF5E855C9210BF472495AF SLOAD DUP3 LT PUSH2 0x13F8 JUMPI POP PUSH1 0x3 SWAP2 SWAP1 POP JUMP JUMPDEST PUSH1 0x2 PUSH1 0x0 MSTORE PUSH1 0x3 PUSH1 0x20 MSTORE PUSH32 0xC3A24B0501BD2C13A7E57F2DB4369EC4C223447539FC0724A9D55AC4A06EBD4D SLOAD DUP3 LT PUSH2 0x1432 JUMPI POP PUSH1 0x2 SWAP2 SWAP1 POP JUMP JUMPDEST PUSH1 0x1 PUSH1 0x0 MSTORE PUSH1 0x3 PUSH1 0x20 MSTORE PUSH32 0xA15BC60C955C405D20D9149C709E2460F1C2D9A497496A7F46004D1772C3054C SLOAD DUP3 LT PUSH2 0x146C JUMPI POP PUSH1 0x1 SWAP2 SWAP1 POP JUMP JUMPDEST POP PUSH1 0x0 SWAP2 SWAP1 POP JUMP JUMPDEST PUSH1 0x40 MLOAD PUSH1 0x1 PUSH1 0x1 PUSH1 0xA0 SHL SUB DUP4 DUP2 AND PUSH1 0x24 DUP4 ADD MSTORE PUSH1 0x44 DUP3 ADD DUP4 SWAP1 MSTORE PUSH2 0x14A5 SWAP2 DUP6 SWAP2 DUP3 AND SWAP1 PUSH4 0xA9059CBB SWAP1 PUSH1 0x64 ADD PUSH2 0x1310 JUMP JUMPDEST POP POP POP JUMP JUMPDEST PUSH1 0x0 SLOAD PUSH1 0x1 PUSH1 0x1 PUSH1 0xA0 SHL SUB AND CALLER EQ PUSH2 0x863 JUMPI PUSH1 0x40 MLOAD PUSH4 0x118CDAA7 PUSH1 0xE0 SHL DUP2 MSTORE CALLER PUSH1 0x4 DUP3 ADD MSTORE PUSH1 0x24 ADD PUSH2 0x421 JUMP JUMPDEST PUSH2 0x14DF PUSH2 0x1627 JUMP JUMPDEST PUSH1 0x2 DUP1 SLOAD PUSH1 0xFF NOT AND SWAP1 SSTORE PUSH32 0x5DB9EE0A495BF2E6FF9C91A7834C1BA4FDD244A5E8AA4E537BD38AEAE4B073AA CALLER JUMPDEST PUSH1 0x40 MLOAD PUSH1 0x1 PUSH1 0x1 PUSH1 0xA0 SHL SUB SWAP1 SWAP2 AND DUP2 MSTORE PUSH1 0x20 ADD PUSH1 0x40 MLOAD DUP1 SWAP2 SUB SWAP1 LOG1 JUMP JUMPDEST PUSH1 0x0 DUP1 SLOAD PUSH1 0x1 PUSH1 0x1 PUSH1 0xA0 SHL SUB DUP4 DUP2 AND PUSH1 0x1 PUSH1 0x1 PUSH1 0xA0 SHL SUB NOT DUP4 AND DUP2 OR DUP5 SSTORE PUSH1 0x40 MLOAD SWAP2 SWAP1 SWAP3 AND SWAP3 DUP4 SWAP2 PUSH32 0x8BE0079C531659141344CD1FD0A4F28419497F9722A3DAAFE3B4186F6B6457E0 SWAP2 SWAP1 LOG3 POP POP JUMP JUMPDEST PUSH2 0x1581 PUSH2 0x1174 JUMP JUMPDEST PUSH1 0x2 DUP1 SLOAD PUSH1 0xFF NOT AND PUSH1 0x1 OR SWAP1 SSTORE PUSH32 0x62E78CEA01BEE320CD4E420270B5EA74000D11B0C9F74754EBDBFC544B05A258 PUSH2 0x150C CALLER SWAP1 JUMP JUMPDEST PUSH1 0x0 DUP1 PUSH1 0x20 PUSH1 0x0 DUP5 MLOAD PUSH1 0x20 DUP7 ADD PUSH1 0x0 DUP9 GAS CALL DUP1 PUSH2 0x15D9 JUMPI PUSH1 0x40 MLOAD RETURNDATASIZE PUSH1 0x0 DUP3 RETURNDATACOPY RETURNDATASIZE DUP2 REVERT JUMPDEST POP POP PUSH1 0x0 MLOAD RETURNDATASIZE SWAP2 POP DUP2 ISZERO PUSH2 0x15F1 JUMPI DUP1 PUSH1 0x1 EQ ISZERO PUSH2 0x15FE JUMP JUMPDEST PUSH1 0x1 PUSH1 0x1 PUSH1 0xA0 SHL SUB DUP5 AND EXTCODESIZE ISZERO JUMPDEST ISZERO PUSH2 0x1342 JUMPI PUSH1 0x40 MLOAD PUSH4 0x5274AFE7 PUSH1 0xE0 SHL DUP2 MSTORE PUSH1 0x1 PUSH1 0x1 PUSH1 0xA0 SHL SUB DUP6 AND PUSH1 0x4 DUP3 ADD MSTORE PUSH1 0x24 ADD PUSH2 0x421 JUMP JUMPDEST PUSH1 0x2 SLOAD PUSH1 0xFF AND PUSH2 0x863 JUMPI PUSH1 0x40 MLOAD PUSH4 0x8DFC202B PUSH1 0xE0 SHL DUP2 MSTORE PUSH1 0x4 ADD PUSH1 0x40 MLOAD DUP1 SWAP2 SUB SWAP1 REVERT JUMPDEST PUSH1 0x40 MLOAD DUP1 PUSH1 0xA0 ADD PUSH1 0x40 MSTORE DUP1 PUSH1 0x0 DUP2 MSTORE PUSH1 0x20 ADD PUSH1 0x0 DUP2 MSTORE PUSH1 0x20 ADD PUSH1 0x0 DUP2 MSTORE PUSH1 0x20 ADD PUSH1 0x0 DUP2 MSTORE PUSH1 0x20 ADD PUSH1 0x0 DUP2 MSTORE POP SWAP1 JUMP JUMPDEST DUP1 CALLDATALOAD PUSH1 0x6 DUP2 LT PUSH2 0x1688 JUMPI PUSH1 0x0 DUP1 REVERT JUMPDEST SWAP2 SWAP1 POP JUMP JUMPDEST PUSH1 0x0 DUP1 PUSH1 0x40 DUP4 DUP6 SUB SLT ISZERO PUSH2 0x16A0 JUMPI PUSH1 0x0 DUP1 REVERT JUMPDEST DUP3 CALLDATALOAD SWAP2 POP PUSH2 0x16B0 PUSH1 0x20 DUP5 ADD PUSH2 0x1679 JUMP JUMPDEST SWAP1 POP SWAP3 POP SWAP3 SWAP1 POP JUMP JUMPDEST DUP1 CALLDATALOAD PUSH1 0x1 PUSH1 0x1 PUSH1 0xA0 SHL SUB DUP2 AND DUP2 EQ PUSH2 0x1688 JUMPI PUSH1 0x0 DUP1 REVERT JUMPDEST PUSH1 0x0 PUSH1 0x20 DUP3 DUP5 SUB SLT ISZERO PUSH2 0x16E2 JUMPI PUSH1 0x0 DUP1 REVERT JUMPDEST PUSH2 0x16EB DUP3 PUSH2 0x16B9 JUMP JUMPDEST SWAP4 SWAP3 POP POP POP JUMP JUMPDEST PUSH4 0x4E487B71 PUSH1 0xE0 SHL PUSH1 0x0 MSTORE PUSH1 0x21 PUSH1 0x4 MSTORE PUSH1 0x24 PUSH1 0x0 REVERT JUMPDEST PUSH1 0x6 DUP2 LT PUSH2 0x1726 JUMPI PUSH4 0x4E487B71 PUSH1 0xE0 SHL PUSH1 0x0 MSTORE PUSH1 0x21 PUSH1 0x4 MSTORE PUSH1 0x24 PUSH1 0x0 REVERT JUMPDEST SWAP1 MSTORE JUMP JUMPDEST DUP7 DUP2 MSTORE PUSH1 0xC0 DUP2 ADD PUSH2 0x173E PUSH1 0x20 DUP4 ADD DUP9 PUSH2 0x1708 JUMP JUMPDEST DUP6 PUSH1 0x40 DUP4 ADD MSTORE DUP5 PUSH1 0x60 DUP4 ADD MSTORE DUP4 PUSH1 0x80 DUP4 ADD MSTORE DUP3 PUSH1 0xA0 DUP4 ADD MSTORE SWAP8 SWAP7 POP POP POP POP POP POP POP JUMP JUMPDEST PUSH1 0x0 PUSH1 0x20 DUP3 DUP5 SUB SLT ISZERO PUSH2 0x1773 JUMPI PUSH1 0x0 DUP1 REVERT JUMPDEST PUSH2 0x16EB DUP3 PUSH2 0x1679 JUMP JUMPDEST DUP1 MLOAD DUP3 MSTORE PUSH1 0x20 DUP2 ADD MLOAD PUSH1 0x20 DUP4 ADD MSTORE PUSH1 0x40 DUP2 ADD MLOAD PUSH1 0x40 DUP4 ADD MSTORE PUSH1 0x60 DUP2 ADD MLOAD PUSH1 0x60 DUP4 ADD MSTORE PUSH1 0x80 DUP2 ADD MLOAD PUSH1 0x80 DUP4 ADD MSTORE POP POP JUMP JUMPDEST PUSH2 0x320 DUP2 ADD PUSH2 0x17BB DUP3 DUP9 PUSH2 0x177C JUMP JUMPDEST PUSH2 0x17C8 PUSH1 0xA0 DUP4 ADD DUP8 PUSH2 0x177C JUMP JUMPDEST PUSH2 0x17D6 PUSH2 0x140 DUP4 ADD DUP7 PUSH2 0x177C JUMP JUMPDEST PUSH2 0x17E4 PUSH2 0x1E0 DUP4 ADD DUP6 PUSH2 0x177C JUMP JUMPDEST PUSH2 0x17F2 PUSH2 0x280 DUP4 ADD DUP5 PUSH2 0x177C JUMP JUMPDEST SWAP7 SWAP6 POP POP POP POP POP POP JUMP JUMPDEST PUSH1 0xA0 DUP2 ADD PUSH2 0x180A DUP3 DUP5 PUSH2 0x177C JUMP JUMPDEST SWAP3 SWAP2 POP POP JUMP JUMPDEST PUSH1 0x0 DUP1 PUSH1 0x40 DUP4 DUP6 SUB SLT ISZERO PUSH2 0x1823 JUMPI PUSH1 0x0 DUP1 REVERT JUMPDEST PUSH2 0x182C DUP4 PUSH2 0x16B9 JUMP JUMPDEST SWAP5 PUSH1 0x20 SWAP4 SWAP1 SWAP4 ADD CALLDATALOAD SWAP4 POP POP POP JUMP JUMPDEST DUP2 MLOAD DUP2 MSTORE PUSH1 0x20 DUP1 DUP4 ADD MLOAD PUSH2 0x120 DUP4 ADD SWAP2 PUSH2 0x1856 SWAP1 DUP5 ADD DUP3 PUSH2 0x1708 JUMP JUMPDEST POP PUSH1 0x40 DUP4 ADD MLOAD PUSH1 0x40 DUP4 ADD MSTORE PUSH1 0x60 DUP4 ADD MLOAD PUSH1 0x60 DUP4 ADD MSTORE PUSH1 0x80 DUP4 ADD MLOAD PUSH1 0x80 DUP4 ADD MSTORE PUSH1 0xA0 DUP4 ADD MLOAD PUSH1 0xA0 DUP4 ADD MSTORE PUSH1 0xC0 DUP4 ADD MLOAD PUSH1 0xC0 DUP4 ADD MSTORE PUSH1 0xE0 DUP4 ADD MLOAD PUSH1 0xE0 DUP4 ADD MSTORE PUSH2 0x100 DUP1 DUP5 ADD MLOAD DUP2 DUP5 ADD MSTORE POP SWAP3 SWAP2 POP POP JUMP JUMPDEST PUSH4 0x4E487B71 PUSH1 0xE0 SHL PUSH1 0x0 MSTORE PUSH1 0x11 PUSH1 0x4 MSTORE PUSH1 0x24 PUSH1 0x0 REVERT JUMPDEST PUSH1 0x0 PUSH1 0x1 DUP3 ADD PUSH2 0x18CD JUMPI PUSH2 0x18CD PUSH2 0x18A5 JUMP JUMPDEST POP PUSH1 0x1 ADD SWAP1 JUMP JUMPDEST DUP1 DUP3 ADD DUP1 DUP3 GT ISZERO PUSH2 0x180A JUMPI PUSH2 0x180A PUSH2 0x18A5 JUMP JUMPDEST DUP4 DUP2 MSTORE PUSH1 0x60 DUP2 ADD PUSH2 0x18FB PUSH1 0x20 DUP4 ADD DUP6 PUSH2 0x1708 JUMP JUMPDEST DUP3 PUSH1 0x40 DUP4 ADD MSTORE SWAP5 SWAP4 POP POP POP POP JUMP JUMPDEST PUSH1 0x40 DUP2 ADD PUSH2 0x1917 DUP3 DUP6 PUSH2 0x1708 JUMP JUMPDEST PUSH2 0x16EB PUSH1 0x20 DUP4 ADD DUP5 PUSH2 0x1708 JUMP JUMPDEST DUP2 DUP2 SUB DUP2 DUP2 GT ISZERO PUSH2 0x180A JUMPI PUSH2 0x180A PUSH2 0x18A5 JUMP JUMPDEST PUSH1 0x0 DUP2 PUSH2 0x1946 JUMPI PUSH2 0x1946 PUSH2 0x18A5 JUMP JUMPDEST POP PUSH1 0x0 NOT ADD SWAP1 JUMP JUMPDEST DUP1 DUP3 MUL DUP2 ISZERO DUP3 DUP3 DIV DUP5 EQ OR PUSH2 0x180A JUMPI PUSH2 0x180A PUSH2 0x18A5 JUMP JUMPDEST PUSH1 0x0 DUP3 PUSH2 0x1982 JUMPI PUSH4 0x4E487B71 PUSH1 0xE0 SHL PUSH1 0x0 MSTORE PUSH1 0x12 PUSH1 0x4 MSTORE PUSH1 0x24 PUSH1 0x0 REVERT JUMPDEST POP DIV SWAP1 JUMP INVALID LOG2 PUSH5 0x6970667358 0x22 SLT KECCAK256 0xAB SELFBALANCE PUSH15 0x547D86F27755484A22A544E6AC108B AND 0xDA DUP15 0xE0 CALLDATASIZE RETURN PUSH25 0xF2DBEEAA0D23D464736F6C6343000818003300000000000000 "},"methodIdentifiers":{"claimRewards()":"372500ab","emergencyWithdraw(address,uint256)":"95ccea67","getAllTiers()":"6471af83","getStakeInfo(address)":"c3453153","getTierInfo(uint8)":"7ed85ff3","getUserBonusPlays(address)":"cd0fd3a2","getUserMultiplier(address)":"c5e22f3f","grepMinter()":"51032b06","grepToken()":"a999d1c7","owner()":"8da5cb5b","pause()":"8456cb59","paused()":"5c975abb","pendingRewards(address)":"31d7a262","renounceOwnership()":"715018a6","stake(uint256,uint8)":"10087fb1","stakes(address)":"16934fc4","tierInfo(uint8)":"35766f4b","totalRewardsDistributed()":"ee172546","totalStaked()":"817b1cd2","totalStakers()":"86989038","transferOwnership(address)":"f2fde38b","unpause()":"3f4ba83a","unstake()":"2def6620"}}}}}