{"contracts/GrepStakingPool.sol":{"GrepStakingPool":{"abi":[{"inputs":[{"internalType":"address","name":"_grepToken","type":"address"}],"stateMutability":"nonpayable","type":"constructor"},{"inputs":[{"internalType":"address","name":"owner","type":"address"}],"name":"OwnableInvalidOwner","type":"error"},{"inputs":[{"internalType":"address","name":"account","type":"address"}],"name":"OwnableUnauthorizedAccount","type":"error"},{"inputs":[],"name":"ReentrancyGuardReentrantCall","type":"error"},{"inputs":[{"internalType":"address","name":"token","type":"address"}],"name":"SafeERC20FailedOperation","type":"error"},{"anonymous":false,"inputs":[{"indexed":true,"internalType":"address","name":"previousOwner","type":"address"},{"indexed":true,"internalType":"address","name":"newOwner","type":"address"}],"name":"OwnershipTransferred","type":"event"},{"anonymous":false,"inputs":[{"indexed":true,"internalType":"address","name":"user","type":"address"},{"indexed":false,"internalType":"uint256","name":"amount","type":"uint256"}],"name":"RewardsClaimed","type":"event"},{"anonymous":false,"inputs":[{"indexed":true,"internalType":"address","name":"user","type":"address"},{"indexed":false,"internalType":"uint256","name":"amount","type":"uint256"},{"indexed":false,"internalType":"enum GrepStakingPool.Tier","name":"tier","type":"uint8"},{"indexed":false,"internalType":"uint256","name":"lockedUntil","type":"uint256"}],"name":"Staked","type":"event"},{"anonymous":false,"inputs":[{"indexed":true,"internalType":"address","name":"user","type":"address"},{"indexed":false,"internalType":"enum GrepStakingPool.Tier","name":"oldTier","type":"uint8"},{"indexed":false,"internalType":"enum GrepStakingPool.Tier","name":"newTier","type":"uint8"}],"name":"TierUpgraded","type":"event"},{"anonymous":false,"inputs":[{"indexed":true,"internalType":"address","name":"user","type":"address"},{"indexed":false,"internalType":"uint256","name":"amount","type":"uint256"}],"name":"Unstaked","type":"event"},{"inputs":[],"name":"claimRewards","outputs":[],"stateMutability":"nonpayable","type":"function"},{"inputs":[{"internalType":"address","name":"token","type":"address"},{"internalType":"uint256","name":"amount","type":"uint256"}],"name":"emergencyWithdraw","outputs":[],"stateMutability":"nonpayable","type":"function"},{"inputs":[],"name":"getAllTiers","outputs":[{"components":[{"internalType":"uint256","name":"minStake","type":"uint256"},{"internalType":"uint256","name":"lockDuration","type":"uint256"},{"internalType":"uint256","name":"multiplier","type":"uint256"},{"internalType":"uint256","name":"apyBps","type":"uint256"},{"internalType":"uint256","name":"bonusPlays","type":"uint256"}],"internalType":"struct GrepStakingPool.TierInfo","name":"flexible","type":"tuple"},{"components":[{"internalType":"uint256","name":"minStake","type":"uint256"},{"internalType":"uint256","name":"lockDuration","type":"uint256"},{"internalType":"uint256","name":"multiplier","type":"uint256"},{"internalType":"uint256","name":"apyBps","type":"uint256"},{"internalType":"uint256","name":"bonusPlays","type":"uint256"}],"internalType":"struct GrepStakingPool.TierInfo","name":"bronze","type":"tuple"},{"components":[{"internalType":"uint256","name":"minStake","type":"uint256"},{"internalType":"uint256","name":"lockDuration","type":"uint256"},{"internalType":"uint256","name":"multiplier","type":"uint256"},{"internalType":"uint256","name":"apyBps","type":"uint256"},{"internalType":"uint256","name":"bonusPlays","type":"uint256"}],"internalType":"struct GrepStakingPool.TierInfo","name":"silver","type":"tuple"},{"components":[{"internalType":"uint256","name":"minStake","type":"uint256"},{"internalType":"uint256","name":"lockDuration","type":"uint256"},{"internalType":"uint256","name":"multiplier","type":"uint256"},{"internalType":"uint256","name":"apyBps","type":"uint256"},{"internalType":"uint256","name":"bonusPlays","type":"uint256"}],"internalType":"struct GrepStakingPool.TierInfo","name":"gold","type":"tuple"},{"components":[{"internalType":"uint256","name":"minStake","type":"uint256"},{"internalType":"uint256","name":"lockDuration","type":"uint256"},{"internalType":"uint256","name":"multiplier","type":"uint256"},{"internalType":"uint256","name":"apyBps","type":"uint256"},{"internalType":"uint256","name":"bonusPlays","type":"uint256"}],"internalType":"struct GrepStakingPool.TierInfo","name":"diamond","type":"tuple"}],"stateMutability":"view","type":"function"},{"inputs":[{"internalType":"address","name":"user","type":"address"}],"name":"getStakeInfo","outputs":[{"components":[{"internalType":"uint256","name":"amount","type":"uint256"},{"internalType":"enum GrepStakingPool.Tier","name":"tier","type":"uint8"},{"internalType":"uint256","name":"stakedAt","type":"uint256"},{"internalType":"uint256","name":"lockedUntil","type":"uint256"},{"internalType":"uint256","name":"lastClaimAt","type":"uint256"},{"internalType":"uint256","name":"totalClaimed","type":"uint256"},{"internalType":"uint256","name":"pendingReward","type":"uint256"},{"internalType":"uint256","name":"multiplier","type":"uint256"},{"internalType":"uint256","name":"bonusPlays","type":"uint256"}],"internalType":"struct GrepStakingPool.FullStakeInfo","name":"info","type":"tuple"}],"stateMutability":"view","type":"function"},{"inputs":[{"internalType":"enum GrepStakingPool.Tier","name":"tier","type":"uint8"}],"name":"getTierInfo","outputs":[{"components":[{"internalType":"uint256","name":"minStake","type":"uint256"},{"internalType":"uint256","name":"lockDuration","type":"uint256"},{"internalType":"uint256","name":"multiplier","type":"uint256"},{"internalType":"uint256","name":"apyBps","type":"uint256"},{"internalType":"uint256","name":"bonusPlays","type":"uint256"}],"internalType":"struct GrepStakingPool.TierInfo","name":"","type":"tuple"}],"stateMutability":"view","type":"function"},{"inputs":[{"internalType":"address","name":"user","type":"address"}],"name":"getUserBonusPlays","outputs":[{"internalType":"uint256","name":"","type":"uint256"}],"stateMutability":"view","type":"function"},{"inputs":[{"internalType":"address","name":"user","type":"address"}],"name":"getUserMultiplier","outputs":[{"internalType":"uint256","name":"","type":"uint256"}],"stateMutability":"view","type":"function"},{"inputs":[],"name":"grepMinter","outputs":[{"internalType":"contract IGrepToken","name":"","type":"address"}],"stateMutability":"view","type":"function"},{"inputs":[],"name":"grepToken","outputs":[{"internalType":"contract IERC20","name":"","type":"address"}],"stateMutability":"view","type":"function"},{"inputs":[],"name":"owner","outputs":[{"internalType":"address","name":"","type":"address"}],"stateMutability":"view","type":"function"},{"inputs":[{"internalType":"address","name":"user","type":"address"}],"name":"pendingRewards","outputs":[{"internalType":"uint256","name":"","type":"uint256"}],"stateMutability":"view","type":"function"},{"inputs":[],"name":"renounceOwnership","outputs":[],"stateMutability":"nonpayable","type":"function"},{"inputs":[{"internalType":"uint256","name":"amount","type":"uint256"},{"internalType":"enum GrepStakingPool.Tier","name":"tier","type":"uint8"}],"name":"stake","outputs":[],"stateMutability":"nonpayable","type":"function"},{"inputs":[{"internalType":"address","name":"","type":"address"}],"name":"stakes","outputs":[{"internalType":"uint256","name":"amount","type":"uint256"},{"internalType":"enum GrepStakingPool.Tier","name":"tier","type":"uint8"},{"internalType":"uint256","name":"stakedAt","type":"uint256"},{"internalType":"uint256","name":"lockedUntil","type":"uint256"},{"internalType":"uint256","name":"lastClaimAt","type":"uint256"},{"internalType":"uint256","name":"totalClaimed","type":"uint256"}],"stateMutability":"view","type":"function"},{"inputs":[{"internalType":"enum GrepStakingPool.Tier","name":"","type":"uint8"}],"name":"tierInfo","outputs":[{"internalType":"uint256","name":"minStake","type":"uint256"},{"internalType":"uint256","name":"lockDuration","type":"uint256"},{"internalType":"uint256","name":"multiplier","type":"uint256"},{"internalType":"uint256","name":"apyBps","type":"uint256"},{"internalType":"uint256","name":"bonusPlays","type":"uint256"}],"stateMutability":"view","type":"function"},{"inputs":[],"name":"totalRewardsDistributed","outputs":[{"internalType":"uint256","name":"","type":"uint256"}],"stateMutability":"view","type":"function"},{"inputs":[],"name":"totalStaked","outputs":[{"internalType":"uint256","name":"","type":"uint256"}],"stateMutability":"view","type":"function"},{"inputs":[],"name":"totalStakers","outputs":[{"internalType":"uint256","name":"","type":"uint256"}],"stateMutability":"view","type":"function"},{"inputs":[{"internalType":"address","name":"newOwner","type":"address"}],"name":"transferOwnership","outputs":[],"stateMutability":"nonpayable","type":"function"},{"inputs":[],"name":"unstake","outputs":[],"stateMutability":"nonpayable","type":"function"}],"evm":{"bytecode":{"linkReferences":{},"object":"60c06040523480156200001157600080fd5b5060405162001ece38038062001ece8339810160408190526200003491620005e0565b33806200005c57604051631e4fbdf760e01b8152600060048201526024015b60405180910390fd5b620000678162000590565b50600180556001600160a01b038116620000c45760405162461bcd60e51b815260206004820152601560248201527f496e76616c696420746f6b656e20616464726573730000000000000000000000604482015260640162000053565b6001600160a01b0316608081815260a091825260408051808401825268056bc75e2d63100000815260006020808301828152612af88486019081526101f460608087019182526002878a018181526001885281875297517fe90b7bceb6e7df5418fb78d8ee546e97c83a08bbccc01a0644d599ccd2a7c2e05593517fe90b7bceb6e7df5418fb78d8ee546e97c83a08bbccc01a0644d599ccd2a7c2e15591517fe90b7bceb6e7df5418fb78d8ee546e97c83a08bbccc01a0644d599ccd2a7c2e255517fe90b7bceb6e7df5418fb78d8ee546e97c83a08bbccc01a0644d599ccd2a7c2e35593517fe90b7bceb6e7df5418fb78d8ee546e97c83a08bbccc01a0644d599ccd2a7c2e45584518088018652683635c9adc5dea00000815262093a808184019081526130d48288019081526103208388019081526005848b0181815286895286885294517f679795a0195a1b76cdebb7c51d74e058aee92919b8c3389af86ef24535e8a28c5592517f679795a0195a1b76cdebb7c51d74e058aee92919b8c3389af86ef24535e8a28d5590517f679795a0195a1b76cdebb7c51d74e058aee92919b8c3389af86ef24535e8a28e55517f679795a0195a1b76cdebb7c51d74e058aee92919b8c3389af86ef24535e8a28f5590517f679795a0195a1b76cdebb7c51d74e058aee92919b8c3389af86ef24535e8a290558551808901875269010f0cf064dd59200000815262127500818501908152613a988289019081526104b0838901908152600a848c019081526003895286885293517f88601476d11616a71c5be67555bd1dff4b1cbf21533d2669b768b61518cfe1c35591517f88601476d11616a71c5be67555bd1dff4b1cbf21533d2669b768b61518cfe1c455517f88601476d11616a71c5be67555bd1dff4b1cbf21533d2669b768b61518cfe1c555517f88601476d11616a71c5be67555bd1dff4b1cbf21533d2669b768b61518cfe1c655517f88601476d11616a71c5be67555bd1dff4b1cbf21533d2669b768b61518cfe1c7558551808901875269021e19e0c9bab2400000815262278d0081850190815261445c8289019081526105dc838901908152600f848c019081526004895286885293517fee60d0579bcffd98e668647d59fec1ff86a7fb340ce572e844f234ae73a6918f5591517fee60d0579bcffd98e668647d59fec1ff86a7fb340ce572e844f234ae73a6919055517fee60d0579bcffd98e668647d59fec1ff86a7fb340ce572e844f234ae73a6919155517fee60d0579bcffd98e668647d59fec1ff86a7fb340ce572e844f234ae73a6919255517fee60d0579bcffd98e668647d59fec1ff86a7fb340ce572e844f234ae73a691935585519788018652690a968163f0a57b40000088526276a700888401908152614e209689019687526107d095890195865260199789019788529352905293517fb98b78633099fa36ed8b8680c4f8092689e1e04080eb9cbb077ca38a14d7e3845592517fb98b78633099fa36ed8b8680c4f8092689e1e04080eb9cbb077ca38a14d7e38555517fb98b78633099fa36ed8b8680c4f8092689e1e04080eb9cbb077ca38a14d7e3865590517fb98b78633099fa36ed8b8680c4f8092689e1e04080eb9cbb077ca38a14d7e38755517fb98b78633099fa36ed8b8680c4f8092689e1e04080eb9cbb077ca38a14d7e3885562000612565b600080546001600160a01b038381166001600160a01b0319831681178455604051919092169283917f8be0079c531659141344cd1fd0a4f28419497f9722a3daafe3b4186f6b6457e09190a35050565b600060208284031215620005f357600080fd5b81516001600160a01b03811681146200060b57600080fd5b9392505050565b60805160a05161187a620006546000396000818161024601526111a60152600081816102fc015281816104ac015281816107af0152610dbe015261187a6000f3fe608060405234801561001057600080fd5b506004361061012c5760003560e01c8063817b1cd2116100ad578063c345315311610071578063c34531531461031e578063c5e22f3f1461033e578063cd0fd3a214610351578063ee17254614610364578063f2fde38b1461036d57600080fd5b8063817b1cd2146102c157806386989038146102ca5780638da5cb5b146102d357806395ccea67146102e4578063a999d1c7146102f757600080fd5b8063372500ab116100f4578063372500ab1461023957806351032b06146102415780636471af8314610280578063715018a6146102995780637ed85ff3146102a157600080fd5b806310087fb11461013157806316934fc4146101465780632def6620146101ab57806331d7a262146101b357806335766f4b146101d4575b600080fd5b61014461013f36600461154a565b610380565b005b61019061015436600461158d565b6003602081905260009182526040909120805460018201546002830154938301546004840154600590940154929460ff90921693919290919086565b6040516101a2969594939291906115e7565b60405180910390f35b6101446106b0565b6101c66101c136600461158d565b610818565b6040519081526020016101a2565b6102116101e236600461161e565b600260208190526000918252604090912080546001820154928201546003830154600490930154919392909185565b604080519586526020860194909452928401919091526060830152608082015260a0016101a2565b6101446108dd565b6102687f000000000000000000000000000000000000000000000000000000000000000081565b6040516001600160a01b0390911681526020016101a2565b6102886108f7565b6040516101a2959493929190611669565b610144610d21565b6102b46102af36600461161e565b610d33565b6040516101a291906116b9565b6101c660045481565b6101c660055481565b6000546001600160a01b0316610268565b6101446102f23660046116cd565b610db4565b6102687f000000000000000000000000000000000000000000000000000000000000000081565b61033161032c36600461158d565b610e63565b6040516101a291906116f7565b6101c661034c36600461158d565b610fb8565b6101c661035f36600461158d565b61102c565b6101c660065481565b61014461037b36600461158d565b61109f565b6103886110dd565b600081600581111561039c5761039c6115af565b036103dd5760405162461bcd60e51b815260206004820152600c60248201526b24b73b30b634b2103a34b2b960a11b60448201526064015b60405180910390fd5b600260008260058111156103f3576103f36115af565b6005811115610404576104046115af565b8152602001908152602001600020600001548210156104655760405162461bcd60e51b815260206004820152601c60248201527f42656c6f77206d696e696d756d207374616b6520666f7220746965720000000060448201526064016103d4565b3360009081526003602052604090208054156104895761048433611107565b61049f565b6005805490600061049983611778565b91905055505b6104d46001600160a01b037f00000000000000000000000000000000000000000000000000000000000000001633308661124a565b80546000906104e4908590611791565b90506000600260008560058111156104fe576104fe6115af565b600581111561050f5761050f6115af565b8152602001908152602001600020600101544261052c9190611791565b600184015490915060ff166000610542846112b7565b9050856005811115610556576105566115af565b816005811115610568576105686115af565b1115610572578095505b83855560018086018054889260ff1990911690836005811115610597576105976115af565b02179055504260028601556003850183905560048501546000036105bc574260048601555b86600460008282546105ce9190611791565b909155505060405133907fbde7f0ba1630d25515c7ab99ba47d5640b7ffb4c673b2a5464ae67919558929890610609908a908a9088906117a4565b60405180910390a2856005811115610623576106236115af565b826005811115610635576106356115af565b1415801561065557506000826005811115610652576106526115af565b14155b1561069e57336001600160a01b03167fcbbf00b5f55f1857f9362f521999f79036413e420d1b236d6bc143af30db731a83886040516106959291906117c6565b60405180910390a25b50505050506106ac60018055565b5050565b6106b86110dd565b33600090815260036020526040902080546107065760405162461bcd60e51b815260206004820152600e60248201526d139bc81cdd185ad948199bdd5b9960921b60448201526064016103d4565b80600301544210156107525760405162461bcd60e51b815260206004820152601560248201527414dd185ad9481a5cc81cdd1a5b1b081b1bd8dad959605a1b60448201526064016103d4565b61075b33611107565b8054600080835560018301805460ff1916905560038301819055600480548392906107879084906117e1565b90915550506005805490600061079c836117f4565b909155506107d690506001600160a01b037f00000000000000000000000000000000000000000000000000000000000000001633836113e3565b60405181815233907f0f5bb82176feb1b5e747e28471aa92156a04d9f3ab9f45f28e2d704232b93f759060200160405180910390a2505061081660018055565b565b6001600160a01b03811660009081526003602052604081208054158061084057506004810154155b1561084e5750600092915050565b600081600401544261086091906117e1565b6001830154909150600090600290829060ff166005811115610884576108846115af565b6005811115610895576108956115af565b815260200190815260200160002060030154905064496cebb800828285600001546108c0919061180b565b6108ca919061180b565b6108d49190611822565b95945050505050565b6108e56110dd565b6108ee33611107565b61081660018055565b6108ff611507565b610907611507565b61090f611507565b610917611507565b61091f611507565b50506002602090815260056000526040805160a080820183527fe90b7bceb6e7df5418fb78d8ee546e97c83a08bbccc01a0644d599ccd2a7c2e05482527fe90b7bceb6e7df5418fb78d8ee546e97c83a08bbccc01a0644d599ccd2a7c2e154828501527fe90b7bceb6e7df5418fb78d8ee546e97c83a08bbccc01a0644d599ccd2a7c2e254828401527fe90b7bceb6e7df5418fb78d8ee546e97c83a08bbccc01a0644d599ccd2a7c2e3546060808401919091527fe90b7bceb6e7df5418fb78d8ee546e97c83a08bbccc01a0644d599ccd2a7c2e454608080850191909152845180840186527f679795a0195a1b76cdebb7c51d74e058aee92919b8c3389af86ef24535e8a28c5481527f679795a0195a1b76cdebb7c51d74e058aee92919b8c3389af86ef24535e8a28d54818801527f679795a0195a1b76cdebb7c51d74e058aee92919b8c3389af86ef24535e8a28e54818701527f679795a0195a1b76cdebb7c51d74e058aee92919b8c3389af86ef24535e8a28f54818401527f679795a0195a1b76cdebb7c51d74e058aee92919b8c3389af86ef24535e8a2905481830152855180850187527f88601476d11616a71c5be67555bd1dff4b1cbf21533d2669b768b61518cfe1c35481527f88601476d11616a71c5be67555bd1dff4b1cbf21533d2669b768b61518cfe1c454818901527f88601476d11616a71c5be67555bd1dff4b1cbf21533d2669b768b61518cfe1c554818801527f88601476d11616a71c5be67555bd1dff4b1cbf21533d2669b768b61518cfe1c654818501527f88601476d11616a71c5be67555bd1dff4b1cbf21533d2669b768b61518cfe1c75481840152865180860188527fee60d0579bcffd98e668647d59fec1ff86a7fb340ce572e844f234ae73a6918f5481527fee60d0579bcffd98e668647d59fec1ff86a7fb340ce572e844f234ae73a6919054818a01527fee60d0579bcffd98e668647d59fec1ff86a7fb340ce572e844f234ae73a6919154818901527fee60d0579bcffd98e668647d59fec1ff86a7fb340ce572e844f234ae73a6919254818601527fee60d0579bcffd98e668647d59fec1ff86a7fb340ce572e844f234ae73a691935481850152875195860188527fb98b78633099fa36ed8b8680c4f8092689e1e04080eb9cbb077ca38a14d7e3845486527fb98b78633099fa36ed8b8680c4f8092689e1e04080eb9cbb077ca38a14d7e38554988601989098527fb98b78633099fa36ed8b8680c4f8092689e1e04080eb9cbb077ca38a14d7e38654968501969096527fb98b78633099fa36ed8b8680c4f8092689e1e04080eb9cbb077ca38a14d7e38754928401929092527fb98b78633099fa36ed8b8680c4f8092689e1e04080eb9cbb077ca38a14d7e3885490830152919791965091945091925090565b610d29611419565b6108166000611446565b610d3b611507565b60026000836005811115610d5157610d516115af565b6005811115610d6257610d626115af565b81526020019081526020016000206040518060a0016040529081600082015481526020016001820154815260200160028201548152602001600382015481526020016004820154815250509050919050565b610dbc611419565b7f00000000000000000000000000000000000000000000000000000000000000006001600160a01b0316826001600160a01b031603610e3d5760405162461bcd60e51b815260206004820152601d60248201527f43616e6e6f74207769746864726177207374616b656420746f6b656e7300000060448201526064016103d4565b6106ac610e526000546001600160a01b031690565b6001600160a01b03841690836113e3565b610eb3604080516101208101909152600080825260208201908152602001600081526020016000815260200160008152602001600081526020016000815260200160008152602001600081525090565b6001600160a01b03821660009081526003602052604081206001810154909190600290829060ff166005811115610eec57610eec6115af565b6005811115610efd57610efd6115af565b81526020808201929092526040016000208354855260018401549092509084019060ff166005811115610f3257610f326115af565b90816005811115610f4557610f456115af565b905250600282015460408401526003820154606084015260048201546080840152600582015460a0840152610f7984610818565b60c08401528154610f8c57612710610f92565b80600201545b60e08401528154610fa4576000610faa565b80600401545b610100840152509092915050565b6001600160a01b038116600090815260036020526040812080548203610fe2575061271092915050565b600181015460029060009060ff166005811115611001576110016115af565b6005811115611012576110126115af565b815260200190815260200160002060020154915050919050565b6001600160a01b0381166000908152600360205260408120805482036110555750600092915050565b600181015460029060009060ff166005811115611074576110746115af565b6005811115611085576110856115af565b815260200190815260200160002060040154915050919050565b6110a7611419565b6001600160a01b0381166110d157604051631e4fbdf760e01b8152600060048201526024016103d4565b6110da81611446565b50565b60026001540361110057604051633ee5aeb560e01b815260040160405180910390fd5b6002600155565b6001600160a01b0381166000908152600360205260408120805490910361112c575050565b600061113783610818565b90508060000361114657505050565b428260040181905550808260050160008282546111639190611791565b92505081905550806006600082825461117c9190611791565b909155505060405162ca53e560e11b81526001600160a01b038481166004830152602482018390527f00000000000000000000000000000000000000000000000000000000000000001690630194a7ca90604401600060405180830381600087803b1580156111ea57600080fd5b505af11580156111fe573d6000803e3d6000fd5b50505050826001600160a01b03167ffc30cddea38e2bf4d6ea7d3f9ed3b6ad7f176419f4963bd81318067a4aee73fe8260405161123d91815260200190565b60405180910390a2505050565b6040516001600160a01b0384811660248301528381166044830152606482018390526112b19186918216906323b872dd906084015b604051602081830303815290604052915060e01b6020820180516001600160e01b038381831617835250505050611496565b50505050565b6005600090815260026020527fb98b78633099fa36ed8b8680c4f8092689e1e04080eb9cbb077ca38a14d7e3845482106112f357506005919050565b600460005260026020527fee60d0579bcffd98e668647d59fec1ff86a7fb340ce572e844f234ae73a6918f54821061132d57506004919050565b600360005260026020527f88601476d11616a71c5be67555bd1dff4b1cbf21533d2669b768b61518cfe1c354821061136757506003919050565b600260008190526020527f679795a0195a1b76cdebb7c51d74e058aee92919b8c3389af86ef24535e8a28c5482106113a157506002919050565b600160005260026020527fe90b7bceb6e7df5418fb78d8ee546e97c83a08bbccc01a0644d599ccd2a7c2e05482106113db57506001919050565b506000919050565b6040516001600160a01b0383811660248301526044820183905261141491859182169063a9059cbb9060640161127f565b505050565b6000546001600160a01b031633146108165760405163118cdaa760e01b81523360048201526024016103d4565b600080546001600160a01b038381166001600160a01b0319831681178455604051919092169283917f8be0079c531659141344cd1fd0a4f28419497f9722a3daafe3b4186f6b6457e09190a35050565b600080602060008451602086016000885af1806114b9576040513d6000823e3d81fd5b50506000513d915081156114d15780600114156114de565b6001600160a01b0384163b155b156112b157604051635274afe760e01b81526001600160a01b03851660048201526024016103d4565b6040518060a0016040528060008152602001600081526020016000815260200160008152602001600081525090565b80356006811061154557600080fd5b919050565b6000806040838503121561155d57600080fd5b8235915061156d60208401611536565b90509250929050565b80356001600160a01b038116811461154557600080fd5b60006020828403121561159f57600080fd5b6115a882611576565b9392505050565b634e487b7160e01b600052602160045260246000fd5b600681106115e357634e487b7160e01b600052602160045260246000fd5b9052565b86815260c081016115fb60208301886115c5565b8560408301528460608301528360808301528260a0830152979650505050505050565b60006020828403121561163057600080fd5b6115a882611536565b80518252602081015160208301526040810151604083015260608101516060830152608081015160808301525050565b61032081016116788288611639565b61168560a0830187611639565b611693610140830186611639565b6116a16101e0830185611639565b6116af610280830184611639565b9695505050505050565b60a081016116c78284611639565b92915050565b600080604083850312156116e057600080fd5b6116e983611576565b946020939093013593505050565b81518152602080830151610120830191611713908401826115c5565b5060408301516040830152606083015160608301526080830151608083015260a083015160a083015260c083015160c083015260e083015160e083015261010080840151818401525092915050565b634e487b7160e01b600052601160045260246000fd5b60006001820161178a5761178a611762565b5060010190565b808201808211156116c7576116c7611762565b838152606081016117b860208301856115c5565b826040830152949350505050565b604081016117d482856115c5565b6115a860208301846115c5565b818103818111156116c7576116c7611762565b60008161180357611803611762565b506000190190565b80820281158282048414176116c7576116c7611762565b60008261183f57634e487b7160e01b600052601260045260246000fd5b50049056fea2646970667358221220063b12bd0d8923ee292a82a3384b98db2adca7cfd4427629363443fec452682664736f6c63430008180033","opcodes":"PUSH1 0xC0 PUSH1 0x40 MSTORE CALLVALUE DUP1 ISZERO PUSH3 0x11 JUMPI PUSH1 0x0 DUP1 REVERT JUMPDEST POP PUSH1 0x40 MLOAD PUSH3 0x1ECE CODESIZE SUB DUP1 PUSH3 0x1ECE DUP4 CODECOPY DUP2 ADD PUSH1 0x40 DUP2 SWAP1 MSTORE PUSH3 0x34 SWAP2 PUSH3 0x5E0 JUMP JUMPDEST CALLER DUP1 PUSH3 0x5C JUMPI PUSH1 0x40 MLOAD PUSH4 0x1E4FBDF7 PUSH1 0xE0 SHL DUP2 MSTORE PUSH1 0x0 PUSH1 0x4 DUP3 ADD MSTORE PUSH1 0x24 ADD JUMPDEST PUSH1 0x40 MLOAD DUP1 SWAP2 SUB SWAP1 REVERT JUMPDEST PUSH3 0x67 DUP2 PUSH3 0x590 JUMP JUMPDEST POP PUSH1 0x1 DUP1 SSTORE PUSH1 0x1 PUSH1 0x1 PUSH1 0xA0 SHL SUB DUP2 AND PUSH3 0xC4 JUMPI PUSH1 0x40 MLOAD PUSH3 0x461BCD PUSH1 0xE5 SHL DUP2 MSTORE PUSH1 0x20 PUSH1 0x4 DUP3 ADD MSTORE PUSH1 0x15 PUSH1 0x24 DUP3 ADD MSTORE PUSH32 0x496E76616C696420746F6B656E20616464726573730000000000000000000000 PUSH1 0x44 DUP3 ADD MSTORE PUSH1 0x64 ADD PUSH3 0x53 JUMP JUMPDEST PUSH1 0x1 PUSH1 0x1 PUSH1 0xA0 SHL SUB AND PUSH1 0x80 DUP2 DUP2 MSTORE PUSH1 0xA0 SWAP2 DUP3 MSTORE PUSH1 0x40 DUP1 MLOAD DUP1 DUP5 ADD DUP3 MSTORE PUSH9 0x56BC75E2D63100000 DUP2 MSTORE PUSH1 0x0 PUSH1 0x20 DUP1 DUP4 ADD DUP3 DUP2 MSTORE PUSH2 0x2AF8 DUP5 DUP7 ADD SWAP1 DUP2 MSTORE PUSH2 0x1F4 PUSH1 0x60 DUP1 DUP8 ADD SWAP2 DUP3 MSTORE PUSH1 0x2 DUP8 DUP11 ADD DUP2 DUP2 MSTORE PUSH1 0x1 DUP9 MSTORE DUP2 DUP8 MSTORE SWAP8 MLOAD PUSH32 0xE90B7BCEB6E7DF5418FB78D8EE546E97C83A08BBCCC01A0644D599CCD2A7C2E0 SSTORE SWAP4 MLOAD PUSH32 0xE90B7BCEB6E7DF5418FB78D8EE546E97C83A08BBCCC01A0644D599CCD2A7C2E1 SSTORE SWAP2 MLOAD PUSH32 0xE90B7BCEB6E7DF5418FB78D8EE546E97C83A08BBCCC01A0644D599CCD2A7C2E2 SSTORE MLOAD PUSH32 0xE90B7BCEB6E7DF5418FB78D8EE546E97C83A08BBCCC01A0644D599CCD2A7C2E3 SSTORE SWAP4 MLOAD PUSH32 0xE90B7BCEB6E7DF5418FB78D8EE546E97C83A08BBCCC01A0644D599CCD2A7C2E4 SSTORE DUP5 MLOAD DUP1 DUP9 ADD DUP7 MSTORE PUSH9 0x3635C9ADC5DEA00000 DUP2 MSTORE PUSH3 0x93A80 DUP2 DUP5 ADD SWAP1 DUP2 MSTORE PUSH2 0x30D4 DUP3 DUP9 ADD SWAP1 DUP2 MSTORE PUSH2 0x320 DUP4 DUP9 ADD SWAP1 DUP2 MSTORE PUSH1 0x5 DUP5 DUP12 ADD DUP2 DUP2 MSTORE DUP7 DUP10 MSTORE DUP7 DUP9 MSTORE SWAP5 MLOAD PUSH32 0x679795A0195A1B76CDEBB7C51D74E058AEE92919B8C3389AF86EF24535E8A28C SSTORE SWAP3 MLOAD PUSH32 0x679795A0195A1B76CDEBB7C51D74E058AEE92919B8C3389AF86EF24535E8A28D SSTORE SWAP1 MLOAD PUSH32 0x679795A0195A1B76CDEBB7C51D74E058AEE92919B8C3389AF86EF24535E8A28E SSTORE MLOAD PUSH32 0x679795A0195A1B76CDEBB7C51D74E058AEE92919B8C3389AF86EF24535E8A28F SSTORE SWAP1 MLOAD PUSH32 0x679795A0195A1B76CDEBB7C51D74E058AEE92919B8C3389AF86EF24535E8A290 SSTORE DUP6 MLOAD DUP1 DUP10 ADD DUP8 MSTORE PUSH10 0x10F0CF064DD59200000 DUP2 MSTORE PUSH3 0x127500 DUP2 DUP6 ADD SWAP1 DUP2 MSTORE PUSH2 0x3A98 DUP3 DUP10 ADD SWAP1 DUP2 MSTORE PUSH2 0x4B0 DUP4 DUP10 ADD SWAP1 DUP2 MSTORE PUSH1 0xA DUP5 DUP13 ADD SWAP1 DUP2 MSTORE PUSH1 0x3 DUP10 MSTORE DUP7 DUP9 MSTORE SWAP4 MLOAD PUSH32 0x88601476D11616A71C5BE67555BD1DFF4B1CBF21533D2669B768B61518CFE1C3 SSTORE SWAP2 MLOAD PUSH32 0x88601476D11616A71C5BE67555BD1DFF4B1CBF21533D2669B768B61518CFE1C4 SSTORE MLOAD PUSH32 0x88601476D11616A71C5BE67555BD1DFF4B1CBF21533D2669B768B61518CFE1C5 SSTORE MLOAD PUSH32 0x88601476D11616A71C5BE67555BD1DFF4B1CBF21533D2669B768B61518CFE1C6 SSTORE MLOAD PUSH32 0x88601476D11616A71C5BE67555BD1DFF4B1CBF21533D2669B768B61518CFE1C7 SSTORE DUP6 MLOAD DUP1 DUP10 ADD DUP8 MSTORE PUSH10 0x21E19E0C9BAB2400000 DUP2 MSTORE PUSH3 0x278D00 DUP2 DUP6 ADD SWAP1 DUP2 MSTORE PUSH2 0x445C DUP3 DUP10 ADD SWAP1 DUP2 MSTORE PUSH2 0x5DC DUP4 DUP10 ADD SWAP1 DUP2 MSTORE PUSH1 0xF DUP5 DUP13 ADD SWAP1 DUP2 MSTORE PUSH1 0x4 DUP10 MSTORE DUP7 DUP9 MSTORE SWAP4 MLOAD PUSH32 0xEE60D0579BCFFD98E668647D59FEC1FF86A7FB340CE572E844F234AE73A6918F SSTORE SWAP2 MLOAD PUSH32 0xEE60D0579BCFFD98E668647D59FEC1FF86A7FB340CE572E844F234AE73A69190 SSTORE MLOAD PUSH32 0xEE60D0579BCFFD98E668647D59FEC1FF86A7FB340CE572E844F234AE73A69191 SSTORE MLOAD PUSH32 0xEE60D0579BCFFD98E668647D59FEC1FF86A7FB340CE572E844F234AE73A69192 SSTORE MLOAD PUSH32 0xEE60D0579BCFFD98E668647D59FEC1FF86A7FB340CE572E844F234AE73A69193 SSTORE DUP6 MLOAD SWAP8 DUP9 ADD DUP7 MSTORE PUSH10 0xA968163F0A57B400000 DUP9 MSTORE PUSH3 0x76A700 DUP9 DUP5 ADD SWAP1 DUP2 MSTORE PUSH2 0x4E20 SWAP7 DUP10 ADD SWAP7 DUP8 MSTORE PUSH2 0x7D0 SWAP6 DUP10 ADD SWAP6 DUP7 MSTORE PUSH1 0x19 SWAP8 DUP10 ADD SWAP8 DUP9 MSTORE SWAP4 MSTORE SWAP1 MSTORE SWAP4 MLOAD PUSH32 0xB98B78633099FA36ED8B8680C4F8092689E1E04080EB9CBB077CA38A14D7E384 SSTORE SWAP3 MLOAD PUSH32 0xB98B78633099FA36ED8B8680C4F8092689E1E04080EB9CBB077CA38A14D7E385 SSTORE MLOAD PUSH32 0xB98B78633099FA36ED8B8680C4F8092689E1E04080EB9CBB077CA38A14D7E386 SSTORE SWAP1 MLOAD PUSH32 0xB98B78633099FA36ED8B8680C4F8092689E1E04080EB9CBB077CA38A14D7E387 SSTORE MLOAD PUSH32 0xB98B78633099FA36ED8B8680C4F8092689E1E04080EB9CBB077CA38A14D7E388 SSTORE PUSH3 0x612 JUMP JUMPDEST PUSH1 0x0 DUP1 SLOAD PUSH1 0x1 PUSH1 0x1 PUSH1 0xA0 SHL SUB DUP4 DUP2 AND PUSH1 0x1 PUSH1 0x1 PUSH1 0xA0 SHL SUB NOT DUP4 AND DUP2 OR DUP5 SSTORE PUSH1 0x40 MLOAD SWAP2 SWAP1 SWAP3 AND SWAP3 DUP4 SWAP2 PUSH32 0x8BE0079C531659141344CD1FD0A4F28419497F9722A3DAAFE3B4186F6B6457E0 SWAP2 SWAP1 LOG3 POP POP JUMP JUMPDEST PUSH1 0x0 PUSH1 0x20 DUP3 DUP5 SUB SLT ISZERO PUSH3 0x5F3 JUMPI PUSH1 0x0 DUP1 REVERT JUMPDEST DUP2 MLOAD PUSH1 0x1 PUSH1 0x1 PUSH1 0xA0 SHL SUB DUP2 AND DUP2 EQ PUSH3 0x60B JUMPI PUSH1 0x0 DUP1 REVERT JUMPDEST SWAP4 SWAP3 POP POP POP JUMP JUMPDEST PUSH1 0x80 MLOAD PUSH1 0xA0 MLOAD PUSH2 0x187A PUSH3 0x654 PUSH1 0x0 CODECOPY PUSH1 0x0 DUP2 DUP2 PUSH2 0x246 ADD MSTORE PUSH2 0x11A6 ADD MSTORE PUSH1 0x0 DUP2 DUP2 PUSH2 0x2FC ADD MSTORE DUP2 DUP2 PUSH2 0x4AC ADD MSTORE DUP2 DUP2 PUSH2 0x7AF ADD MSTORE PUSH2 0xDBE ADD MSTORE PUSH2 0x187A PUSH1 0x0 RETURN INVALID PUSH1 0x80 PUSH1 0x40 MSTORE CALLVALUE DUP1 ISZERO PUSH2 0x10 JUMPI PUSH1 0x0 DUP1 REVERT JUMPDEST POP PUSH1 0x4 CALLDATASIZE LT PUSH2 0x12C JUMPI PUSH1 0x0 CALLDATALOAD PUSH1 0xE0 SHR DUP1 PUSH4 0x817B1CD2 GT PUSH2 0xAD JUMPI DUP1 PUSH4 0xC3453153 GT PUSH2 0x71 JUMPI DUP1 PUSH4 0xC3453153 EQ PUSH2 0x31E JUMPI DUP1 PUSH4 0xC5E22F3F EQ PUSH2 0x33E JUMPI DUP1 PUSH4 0xCD0FD3A2 EQ PUSH2 0x351 JUMPI DUP1 PUSH4 0xEE172546 EQ PUSH2 0x364 JUMPI DUP1 PUSH4 0xF2FDE38B EQ PUSH2 0x36D JUMPI PUSH1 0x0 DUP1 REVERT JUMPDEST DUP1 PUSH4 0x817B1CD2 EQ PUSH2 0x2C1 JUMPI DUP1 PUSH4 0x86989038 EQ PUSH2 0x2CA JUMPI DUP1 PUSH4 0x8DA5CB5B EQ PUSH2 0x2D3 JUMPI DUP1 PUSH4 0x95CCEA67 EQ PUSH2 0x2E4 JUMPI DUP1 PUSH4 0xA999D1C7 EQ PUSH2 0x2F7 JUMPI PUSH1 0x0 DUP1 REVERT JUMPDEST DUP1 PUSH4 0x372500AB GT PUSH2 0xF4 JUMPI DUP1 PUSH4 0x372500AB EQ PUSH2 0x239 JUMPI DUP1 PUSH4 0x51032B06 EQ PUSH2 0x241 JUMPI DUP1 PUSH4 0x6471AF83 EQ PUSH2 0x280 JUMPI DUP1 PUSH4 0x715018A6 EQ PUSH2 0x299 JUMPI DUP1 PUSH4 0x7ED85FF3 EQ PUSH2 0x2A1 JUMPI PUSH1 0x0 DUP1 REVERT JUMPDEST DUP1 PUSH4 0x10087FB1 EQ PUSH2 0x131 JUMPI DUP1 PUSH4 0x16934FC4 EQ PUSH2 0x146 JUMPI DUP1 PUSH4 0x2DEF6620 EQ PUSH2 0x1AB JUMPI DUP1 PUSH4 0x31D7A262 EQ PUSH2 0x1B3 JUMPI DUP1 PUSH4 0x35766F4B EQ PUSH2 0x1D4 JUMPI JUMPDEST PUSH1 0x0 DUP1 REVERT JUMPDEST PUSH2 0x144 PUSH2 0x13F CALLDATASIZE PUSH1 0x4 PUSH2 0x154A JUMP JUMPDEST PUSH2 0x380 JUMP JUMPDEST STOP JUMPDEST PUSH2 0x190 PUSH2 0x154 CALLDATASIZE PUSH1 0x4 PUSH2 0x158D JUMP JUMPDEST PUSH1 0x3 PUSH1 0x20 DUP2 SWAP1 MSTORE PUSH1 0x0 SWAP2 DUP3 MSTORE PUSH1 0x40 SWAP1 SWAP2 KECCAK256 DUP1 SLOAD PUSH1 0x1 DUP3 ADD SLOAD PUSH1 0x2 DUP4 ADD SLOAD SWAP4 DUP4 ADD SLOAD PUSH1 0x4 DUP5 ADD SLOAD PUSH1 0x5 SWAP1 SWAP5 ADD SLOAD SWAP3 SWAP5 PUSH1 0xFF SWAP1 SWAP3 AND SWAP4 SWAP2 SWAP3 SWAP1 SWAP2 SWAP1 DUP7 JUMP JUMPDEST PUSH1 0x40 MLOAD PUSH2 0x1A2 SWAP7 SWAP6 SWAP5 SWAP4 SWAP3 SWAP2 SWAP1 PUSH2 0x15E7 JUMP JUMPDEST PUSH1 0x40 MLOAD DUP1 SWAP2 SUB SWAP1 RETURN JUMPDEST PUSH2 0x144 PUSH2 0x6B0 JUMP JUMPDEST PUSH2 0x1C6 PUSH2 0x1C1 CALLDATASIZE PUSH1 0x4 PUSH2 0x158D JUMP JUMPDEST PUSH2 0x818 JUMP JUMPDEST PUSH1 0x40 MLOAD SWAP1 DUP2 MSTORE PUSH1 0x20 ADD PUSH2 0x1A2 JUMP JUMPDEST PUSH2 0x211 PUSH2 0x1E2 CALLDATASIZE PUSH1 0x4 PUSH2 0x161E JUMP JUMPDEST PUSH1 0x2 PUSH1 0x20 DUP2 SWAP1 MSTORE PUSH1 0x0 SWAP2 DUP3 MSTORE PUSH1 0x40 SWAP1 SWAP2 KECCAK256 DUP1 SLOAD PUSH1 0x1 DUP3 ADD SLOAD SWAP3 DUP3 ADD SLOAD PUSH1 0x3 DUP4 ADD SLOAD PUSH1 0x4 SWAP1 SWAP4 ADD SLOAD SWAP2 SWAP4 SWAP3 SWAP1 SWAP2 DUP6 JUMP JUMPDEST PUSH1 0x40 DUP1 MLOAD SWAP6 DUP7 MSTORE PUSH1 0x20 DUP7 ADD SWAP5 SWAP1 SWAP5 MSTORE SWAP3 DUP5 ADD SWAP2 SWAP1 SWAP2 MSTORE PUSH1 0x60 DUP4 ADD MSTORE PUSH1 0x80 DUP3 ADD MSTORE PUSH1 0xA0 ADD PUSH2 0x1A2 JUMP JUMPDEST PUSH2 0x144 PUSH2 0x8DD JUMP JUMPDEST PUSH2 0x268 PUSH32 0x0 DUP2 JUMP JUMPDEST PUSH1 0x40 MLOAD PUSH1 0x1 PUSH1 0x1 PUSH1 0xA0 SHL SUB SWAP1 SWAP2 AND DUP2 MSTORE PUSH1 0x20 ADD PUSH2 0x1A2 JUMP JUMPDEST PUSH2 0x288 PUSH2 0x8F7 JUMP JUMPDEST PUSH1 0x40 MLOAD PUSH2 0x1A2 SWAP6 SWAP5 SWAP4 SWAP3 SWAP2 SWAP1 PUSH2 0x1669 JUMP JUMPDEST PUSH2 0x144 PUSH2 0xD21 JUMP JUMPDEST PUSH2 0x2B4 PUSH2 0x2AF CALLDATASIZE PUSH1 0x4 PUSH2 0x161E JUMP JUMPDEST PUSH2 0xD33 JUMP JUMPDEST PUSH1 0x40 MLOAD PUSH2 0x1A2 SWAP2 SWAP1 PUSH2 0x16B9 JUMP JUMPDEST PUSH2 0x1C6 PUSH1 0x4 SLOAD DUP2 JUMP JUMPDEST PUSH2 0x1C6 PUSH1 0x5 SLOAD DUP2 JUMP JUMPDEST PUSH1 0x0 SLOAD PUSH1 0x1 PUSH1 0x1 PUSH1 0xA0 SHL SUB AND PUSH2 0x268 JUMP JUMPDEST PUSH2 0x144 PUSH2 0x2F2 CALLDATASIZE PUSH1 0x4 PUSH2 0x16CD JUMP JUMPDEST PUSH2 0xDB4 JUMP JUMPDEST PUSH2 0x268 PUSH32 0x0 DUP2 JUMP JUMPDEST PUSH2 0x331 PUSH2 0x32C CALLDATASIZE PUSH1 0x4 PUSH2 0x158D JUMP JUMPDEST PUSH2 0xE63 JUMP JUMPDEST PUSH1 0x40 MLOAD PUSH2 0x1A2 SWAP2 SWAP1 PUSH2 0x16F7 JUMP JUMPDEST PUSH2 0x1C6 PUSH2 0x34C CALLDATASIZE PUSH1 0x4 PUSH2 0x158D JUMP JUMPDEST PUSH2 0xFB8 JUMP JUMPDEST PUSH2 0x1C6 PUSH2 0x35F CALLDATASIZE PUSH1 0x4 PUSH2 0x158D JUMP JUMPDEST PUSH2 0x102C JUMP JUMPDEST PUSH2 0x1C6 PUSH1 0x6 SLOAD DUP2 JUMP JUMPDEST PUSH2 0x144 PUSH2 0x37B CALLDATASIZE PUSH1 0x4 PUSH2 0x158D JUMP JUMPDEST PUSH2 0x109F JUMP JUMPDEST PUSH2 0x388 PUSH2 0x10DD JUMP JUMPDEST PUSH1 0x0 DUP2 PUSH1 0x5 DUP2 GT ISZERO PUSH2 0x39C JUMPI PUSH2 0x39C PUSH2 0x15AF JUMP JUMPDEST SUB PUSH2 0x3DD JUMPI PUSH1 0x40 MLOAD PUSH3 0x461BCD PUSH1 0xE5 SHL DUP2 MSTORE PUSH1 0x20 PUSH1 0x4 DUP3 ADD MSTORE PUSH1 0xC PUSH1 0x24 DUP3 ADD MSTORE PUSH12 0x24B73B30B634B2103A34B2B9 PUSH1 0xA1 SHL PUSH1 0x44 DUP3 ADD MSTORE PUSH1 0x64 ADD JUMPDEST PUSH1 0x40 MLOAD DUP1 SWAP2 SUB SWAP1 REVERT JUMPDEST PUSH1 0x2 PUSH1 0x0 DUP3 PUSH1 0x5 DUP2 GT ISZERO PUSH2 0x3F3 JUMPI PUSH2 0x3F3 PUSH2 0x15AF JUMP JUMPDEST PUSH1 0x5 DUP2 GT ISZERO PUSH2 0x404 JUMPI PUSH2 0x404 PUSH2 0x15AF JUMP JUMPDEST DUP2 MSTORE PUSH1 0x20 ADD SWAP1 DUP2 MSTORE PUSH1 0x20 ADD PUSH1 0x0 KECCAK256 PUSH1 0x0 ADD SLOAD DUP3 LT ISZERO PUSH2 0x465 JUMPI PUSH1 0x40 MLOAD PUSH3 0x461BCD PUSH1 0xE5 SHL DUP2 MSTORE PUSH1 0x20 PUSH1 0x4 DUP3 ADD MSTORE PUSH1 0x1C PUSH1 0x24 DUP3 ADD MSTORE PUSH32 0x42656C6F77206D696E696D756D207374616B6520666F72207469657200000000 PUSH1 0x44 DUP3 ADD MSTORE PUSH1 0x64 ADD PUSH2 0x3D4 JUMP JUMPDEST CALLER PUSH1 0x0 SWAP1 DUP2 MSTORE PUSH1 0x3 PUSH1 0x20 MSTORE PUSH1 0x40 SWAP1 KECCAK256 DUP1 SLOAD ISZERO PUSH2 0x489 JUMPI PUSH2 0x484 CALLER PUSH2 0x1107 JUMP JUMPDEST PUSH2 0x49F JUMP JUMPDEST PUSH1 0x5 DUP1 SLOAD SWAP1 PUSH1 0x0 PUSH2 0x499 DUP4 PUSH2 0x1778 JUMP JUMPDEST SWAP2 SWAP1 POP SSTORE POP JUMPDEST PUSH2 0x4D4 PUSH1 0x1 PUSH1 0x1 PUSH1 0xA0 SHL SUB PUSH32 0x0 AND CALLER ADDRESS DUP7 PUSH2 0x124A JUMP JUMPDEST DUP1 SLOAD PUSH1 0x0 SWAP1 PUSH2 0x4E4 SWAP1 DUP6 SWAP1 PUSH2 0x1791 JUMP JUMPDEST SWAP1 POP PUSH1 0x0 PUSH1 0x2 PUSH1 0x0 DUP6 PUSH1 0x5 DUP2 GT ISZERO PUSH2 0x4FE JUMPI PUSH2 0x4FE PUSH2 0x15AF JUMP JUMPDEST PUSH1 0x5 DUP2 GT ISZERO PUSH2 0x50F JUMPI PUSH2 0x50F PUSH2 0x15AF JUMP JUMPDEST DUP2 MSTORE PUSH1 0x20 ADD SWAP1 DUP2 MSTORE PUSH1 0x20 ADD PUSH1 0x0 KECCAK256 PUSH1 0x1 ADD SLOAD TIMESTAMP PUSH2 0x52C SWAP2 SWAP1 PUSH2 0x1791 JUMP JUMPDEST PUSH1 0x1 DUP5 ADD SLOAD SWAP1 SWAP2 POP PUSH1 0xFF AND PUSH1 0x0 PUSH2 0x542 DUP5 PUSH2 0x12B7 JUMP JUMPDEST SWAP1 POP DUP6 PUSH1 0x5 DUP2 GT ISZERO PUSH2 0x556 JUMPI PUSH2 0x556 PUSH2 0x15AF JUMP JUMPDEST DUP2 PUSH1 0x5 DUP2 GT ISZERO PUSH2 0x568 JUMPI PUSH2 0x568 PUSH2 0x15AF JUMP JUMPDEST GT ISZERO PUSH2 0x572 JUMPI DUP1 SWAP6 POP JUMPDEST DUP4 DUP6 SSTORE PUSH1 0x1 DUP1 DUP7 ADD DUP1 SLOAD DUP9 SWAP3 PUSH1 0xFF NOT SWAP1 SWAP2 AND SWAP1 DUP4 PUSH1 0x5 DUP2 GT ISZERO PUSH2 0x597 JUMPI PUSH2 0x597 PUSH2 0x15AF JUMP JUMPDEST MUL OR SWAP1 SSTORE POP TIMESTAMP PUSH1 0x2 DUP7 ADD SSTORE PUSH1 0x3 DUP6 ADD DUP4 SWAP1 SSTORE PUSH1 0x4 DUP6 ADD SLOAD PUSH1 0x0 SUB PUSH2 0x5BC JUMPI TIMESTAMP PUSH1 0x4 DUP7 ADD SSTORE JUMPDEST DUP7 PUSH1 0x4 PUSH1 0x0 DUP3 DUP3 SLOAD PUSH2 0x5CE SWAP2 SWAP1 PUSH2 0x1791 JUMP JUMPDEST SWAP1 SWAP2 SSTORE POP POP PUSH1 0x40 MLOAD CALLER SWAP1 PUSH32 0xBDE7F0BA1630D25515C7AB99BA47D5640B7FFB4C673B2A5464AE679195589298 SWAP1 PUSH2 0x609 SWAP1 DUP11 SWAP1 DUP11 SWAP1 DUP9 SWAP1 PUSH2 0x17A4 JUMP JUMPDEST PUSH1 0x40 MLOAD DUP1 SWAP2 SUB SWAP1 LOG2 DUP6 PUSH1 0x5 DUP2 GT ISZERO PUSH2 0x623 JUMPI PUSH2 0x623 PUSH2 0x15AF JUMP JUMPDEST DUP3 PUSH1 0x5 DUP2 GT ISZERO PUSH2 0x635 JUMPI PUSH2 0x635 PUSH2 0x15AF JUMP JUMPDEST EQ ISZERO DUP1 ISZERO PUSH2 0x655 JUMPI POP PUSH1 0x0 DUP3 PUSH1 0x5 DUP2 GT ISZERO PUSH2 0x652 JUMPI PUSH2 0x652 PUSH2 0x15AF JUMP JUMPDEST EQ ISZERO JUMPDEST ISZERO PUSH2 0x69E JUMPI CALLER PUSH1 0x1 PUSH1 0x1 PUSH1 0xA0 SHL SUB AND PUSH32 0xCBBF00B5F55F1857F9362F521999F79036413E420D1B236D6BC143AF30DB731A DUP4 DUP9 PUSH1 0x40 MLOAD PUSH2 0x695 SWAP3 SWAP2 SWAP1 PUSH2 0x17C6 JUMP JUMPDEST PUSH1 0x40 MLOAD DUP1 SWAP2 SUB SWAP1 LOG2 JUMPDEST POP POP POP POP POP PUSH2 0x6AC PUSH1 0x1 DUP1 SSTORE JUMP JUMPDEST POP POP JUMP JUMPDEST PUSH2 0x6B8 PUSH2 0x10DD JUMP JUMPDEST CALLER PUSH1 0x0 SWAP1 DUP2 MSTORE PUSH1 0x3 PUSH1 0x20 MSTORE PUSH1 0x40 SWAP1 KECCAK256 DUP1 SLOAD PUSH2 0x706 JUMPI PUSH1 0x40 MLOAD PUSH3 0x461BCD PUSH1 0xE5 SHL DUP2 MSTORE PUSH1 0x20 PUSH1 0x4 DUP3 ADD MSTORE PUSH1 0xE PUSH1 0x24 DUP3 ADD MSTORE PUSH14 0x139BC81CDD185AD948199BDD5B99 PUSH1 0x92 SHL PUSH1 0x44 DUP3 ADD MSTORE PUSH1 0x64 ADD PUSH2 0x3D4 JUMP JUMPDEST DUP1 PUSH1 0x3 ADD SLOAD TIMESTAMP LT ISZERO PUSH2 0x752 JUMPI PUSH1 0x40 MLOAD PUSH3 0x461BCD PUSH1 0xE5 SHL DUP2 MSTORE PUSH1 0x20 PUSH1 0x4 DUP3 ADD MSTORE PUSH1 0x15 PUSH1 0x24 DUP3 ADD MSTORE PUSH21 0x14DD185AD9481A5CC81CDD1A5B1B081B1BD8DAD959 PUSH1 0x5A SHL PUSH1 0x44 DUP3 ADD MSTORE PUSH1 0x64 ADD PUSH2 0x3D4 JUMP JUMPDEST PUSH2 0x75B CALLER PUSH2 0x1107 JUMP JUMPDEST DUP1 SLOAD PUSH1 0x0 DUP1 DUP4 SSTORE PUSH1 0x1 DUP4 ADD DUP1 SLOAD PUSH1 0xFF NOT AND SWAP1 SSTORE PUSH1 0x3 DUP4 ADD DUP2 SWAP1 SSTORE PUSH1 0x4 DUP1 SLOAD DUP4 SWAP3 SWAP1 PUSH2 0x787 SWAP1 DUP5 SWAP1 PUSH2 0x17E1 JUMP JUMPDEST SWAP1 SWAP2 SSTORE POP POP PUSH1 0x5 DUP1 SLOAD SWAP1 PUSH1 0x0 PUSH2 0x79C DUP4 PUSH2 0x17F4 JUMP JUMPDEST SWAP1 SWAP2 SSTORE POP PUSH2 0x7D6 SWAP1 POP PUSH1 0x1 PUSH1 0x1 PUSH1 0xA0 SHL SUB PUSH32 0x0 AND CALLER DUP4 PUSH2 0x13E3 JUMP JUMPDEST PUSH1 0x40 MLOAD DUP2 DUP2 MSTORE CALLER SWAP1 PUSH32 0xF5BB82176FEB1B5E747E28471AA92156A04D9F3AB9F45F28E2D704232B93F75 SWAP1 PUSH1 0x20 ADD PUSH1 0x40 MLOAD DUP1 SWAP2 SUB SWAP1 LOG2 POP POP PUSH2 0x816 PUSH1 0x1 DUP1 SSTORE JUMP JUMPDEST JUMP JUMPDEST PUSH1 0x1 PUSH1 0x1 PUSH1 0xA0 SHL SUB DUP2 AND PUSH1 0x0 SWAP1 DUP2 MSTORE PUSH1 0x3 PUSH1 0x20 MSTORE PUSH1 0x40 DUP2 KECCAK256 DUP1 SLOAD ISZERO DUP1 PUSH2 0x840 JUMPI POP PUSH1 0x4 DUP2 ADD SLOAD ISZERO JUMPDEST ISZERO PUSH2 0x84E JUMPI POP PUSH1 0x0 SWAP3 SWAP2 POP POP JUMP JUMPDEST PUSH1 0x0 DUP2 PUSH1 0x4 ADD SLOAD TIMESTAMP PUSH2 0x860 SWAP2 SWAP1 PUSH2 0x17E1 JUMP JUMPDEST PUSH1 0x1 DUP4 ADD SLOAD SWAP1 SWAP2 POP PUSH1 0x0 SWAP1 PUSH1 0x2 SWAP1 DUP3 SWAP1 PUSH1 0xFF AND PUSH1 0x5 DUP2 GT ISZERO PUSH2 0x884 JUMPI PUSH2 0x884 PUSH2 0x15AF JUMP JUMPDEST PUSH1 0x5 DUP2 GT ISZERO PUSH2 0x895 JUMPI PUSH2 0x895 PUSH2 0x15AF JUMP JUMPDEST DUP2 MSTORE PUSH1 0x20 ADD SWAP1 DUP2 MSTORE PUSH1 0x20 ADD PUSH1 0x0 KECCAK256 PUSH1 0x3 ADD SLOAD SWAP1 POP PUSH5 0x496CEBB800 DUP3 DUP3 DUP6 PUSH1 0x0 ADD SLOAD PUSH2 0x8C0 SWAP2 SWAP1 PUSH2 0x180B JUMP JUMPDEST PUSH2 0x8CA SWAP2 SWAP1 PUSH2 0x180B JUMP JUMPDEST PUSH2 0x8D4 SWAP2 SWAP1 PUSH2 0x1822 JUMP JUMPDEST SWAP6 SWAP5 POP POP POP POP POP JUMP JUMPDEST PUSH2 0x8E5 PUSH2 0x10DD JUMP JUMPDEST PUSH2 0x8EE CALLER PUSH2 0x1107 JUMP JUMPDEST PUSH2 0x816 PUSH1 0x1 DUP1 SSTORE JUMP JUMPDEST PUSH2 0x8FF PUSH2 0x1507 JUMP JUMPDEST PUSH2 0x907 PUSH2 0x1507 JUMP JUMPDEST PUSH2 0x90F PUSH2 0x1507 JUMP JUMPDEST PUSH2 0x917 PUSH2 0x1507 JUMP JUMPDEST PUSH2 0x91F PUSH2 0x1507 JUMP JUMPDEST POP POP PUSH1 0x2 PUSH1 0x20 SWAP1 DUP2 MSTORE PUSH1 0x5 PUSH1 0x0 MSTORE PUSH1 0x40 DUP1 MLOAD PUSH1 0xA0 DUP1 DUP3 ADD DUP4 MSTORE PUSH32 0xE90B7BCEB6E7DF5418FB78D8EE546E97C83A08BBCCC01A0644D599CCD2A7C2E0 SLOAD DUP3 MSTORE PUSH32 0xE90B7BCEB6E7DF5418FB78D8EE546E97C83A08BBCCC01A0644D599CCD2A7C2E1 SLOAD DUP3 DUP6 ADD MSTORE PUSH32 0xE90B7BCEB6E7DF5418FB78D8EE546E97C83A08BBCCC01A0644D599CCD2A7C2E2 SLOAD DUP3 DUP5 ADD MSTORE PUSH32 0xE90B7BCEB6E7DF5418FB78D8EE546E97C83A08BBCCC01A0644D599CCD2A7C2E3 SLOAD PUSH1 0x60 DUP1 DUP5 ADD SWAP2 SWAP1 SWAP2 MSTORE PUSH32 0xE90B7BCEB6E7DF5418FB78D8EE546E97C83A08BBCCC01A0644D599CCD2A7C2E4 SLOAD PUSH1 0x80 DUP1 DUP6 ADD SWAP2 SWAP1 SWAP2 MSTORE DUP5 MLOAD DUP1 DUP5 ADD DUP7 MSTORE PUSH32 0x679795A0195A1B76CDEBB7C51D74E058AEE92919B8C3389AF86EF24535E8A28C SLOAD DUP2 MSTORE PUSH32 0x679795A0195A1B76CDEBB7C51D74E058AEE92919B8C3389AF86EF24535E8A28D SLOAD DUP2 DUP9 ADD MSTORE PUSH32 0x679795A0195A1B76CDEBB7C51D74E058AEE92919B8C3389AF86EF24535E8A28E SLOAD DUP2 DUP8 ADD MSTORE PUSH32 0x679795A0195A1B76CDEBB7C51D74E058AEE92919B8C3389AF86EF24535E8A28F SLOAD DUP2 DUP5 ADD MSTORE PUSH32 0x679795A0195A1B76CDEBB7C51D74E058AEE92919B8C3389AF86EF24535E8A290 SLOAD DUP2 DUP4 ADD MSTORE DUP6 MLOAD DUP1 DUP6 ADD DUP8 MSTORE PUSH32 0x88601476D11616A71C5BE67555BD1DFF4B1CBF21533D2669B768B61518CFE1C3 SLOAD DUP2 MSTORE PUSH32 0x88601476D11616A71C5BE67555BD1DFF4B1CBF21533D2669B768B61518CFE1C4 SLOAD DUP2 DUP10 ADD MSTORE PUSH32 0x88601476D11616A71C5BE67555BD1DFF4B1CBF21533D2669B768B61518CFE1C5 SLOAD DUP2 DUP9 ADD MSTORE PUSH32 0x88601476D11616A71C5BE67555BD1DFF4B1CBF21533D2669B768B61518CFE1C6 SLOAD DUP2 DUP6 ADD MSTORE PUSH32 0x88601476D11616A71C5BE67555BD1DFF4B1CBF21533D2669B768B61518CFE1C7 SLOAD DUP2 DUP5 ADD MSTORE DUP7 MLOAD DUP1 DUP7 ADD DUP9 MSTORE PUSH32 0xEE60D0579BCFFD98E668647D59FEC1FF86A7FB340CE572E844F234AE73A6918F SLOAD DUP2 MSTORE PUSH32 0xEE60D0579BCFFD98E668647D59FEC1FF86A7FB340CE572E844F234AE73A69190 SLOAD DUP2 DUP11 ADD MSTORE PUSH32 0xEE60D0579BCFFD98E668647D59FEC1FF86A7FB340CE572E844F234AE73A69191 SLOAD DUP2 DUP10 ADD MSTORE PUSH32 0xEE60D0579BCFFD98E668647D59FEC1FF86A7FB340CE572E844F234AE73A69192 SLOAD DUP2 DUP7 ADD MSTORE PUSH32 0xEE60D0579BCFFD98E668647D59FEC1FF86A7FB340CE572E844F234AE73A69193 SLOAD DUP2 DUP6 ADD MSTORE DUP8 MLOAD SWAP6 DUP7 ADD DUP9 MSTORE PUSH32 0xB98B78633099FA36ED8B8680C4F8092689E1E04080EB9CBB077CA38A14D7E384 SLOAD DUP7 MSTORE PUSH32 0xB98B78633099FA36ED8B8680C4F8092689E1E04080EB9CBB077CA38A14D7E385 SLOAD SWAP9 DUP7 ADD SWAP9 SWAP1 SWAP9 MSTORE PUSH32 0xB98B78633099FA36ED8B8680C4F8092689E1E04080EB9CBB077CA38A14D7E386 SLOAD SWAP7 DUP6 ADD SWAP7 SWAP1 SWAP7 MSTORE PUSH32 0xB98B78633099FA36ED8B8680C4F8092689E1E04080EB9CBB077CA38A14D7E387 SLOAD SWAP3 DUP5 ADD SWAP3 SWAP1 SWAP3 MSTORE PUSH32 0xB98B78633099FA36ED8B8680C4F8092689E1E04080EB9CBB077CA38A14D7E388 SLOAD SWAP1 DUP4 ADD MSTORE SWAP2 SWAP8 SWAP2 SWAP7 POP SWAP2 SWAP5 POP SWAP2 SWAP3 POP SWAP1 JUMP JUMPDEST PUSH2 0xD29 PUSH2 0x1419 JUMP JUMPDEST PUSH2 0x816 PUSH1 0x0 PUSH2 0x1446 JUMP JUMPDEST PUSH2 0xD3B PUSH2 0x1507 JUMP JUMPDEST PUSH1 0x2 PUSH1 0x0 DUP4 PUSH1 0x5 DUP2 GT ISZERO PUSH2 0xD51 JUMPI PUSH2 0xD51 PUSH2 0x15AF JUMP JUMPDEST PUSH1 0x5 DUP2 GT ISZERO PUSH2 0xD62 JUMPI PUSH2 0xD62 PUSH2 0x15AF JUMP JUMPDEST DUP2 MSTORE PUSH1 0x20 ADD SWAP1 DUP2 MSTORE PUSH1 0x20 ADD PUSH1 0x0 KECCAK256 PUSH1 0x40 MLOAD DUP1 PUSH1 0xA0 ADD PUSH1 0x40 MSTORE SWAP1 DUP2 PUSH1 0x0 DUP3 ADD SLOAD DUP2 MSTORE PUSH1 0x20 ADD PUSH1 0x1 DUP3 ADD SLOAD DUP2 MSTORE PUSH1 0x20 ADD PUSH1 0x2 DUP3 ADD SLOAD DUP2 MSTORE PUSH1 0x20 ADD PUSH1 0x3 DUP3 ADD SLOAD DUP2 MSTORE PUSH1 0x20 ADD PUSH1 0x4 DUP3 ADD SLOAD DUP2 MSTORE POP POP SWAP1 POP SWAP2 SWAP1 POP JUMP JUMPDEST PUSH2 0xDBC PUSH2 0x1419 JUMP JUMPDEST PUSH32 0x0 PUSH1 0x1 PUSH1 0x1 PUSH1 0xA0 SHL SUB AND DUP3 PUSH1 0x1 PUSH1 0x1 PUSH1 0xA0 SHL SUB AND SUB PUSH2 0xE3D JUMPI PUSH1 0x40 MLOAD PUSH3 0x461BCD PUSH1 0xE5 SHL DUP2 MSTORE PUSH1 0x20 PUSH1 0x4 DUP3 ADD MSTORE PUSH1 0x1D PUSH1 0x24 DUP3 ADD MSTORE PUSH32 0x43616E6E6F74207769746864726177207374616B656420746F6B656E73000000 PUSH1 0x44 DUP3 ADD MSTORE PUSH1 0x64 ADD PUSH2 0x3D4 JUMP JUMPDEST PUSH2 0x6AC PUSH2 0xE52 PUSH1 0x0 SLOAD PUSH1 0x1 PUSH1 0x1 PUSH1 0xA0 SHL SUB AND SWAP1 JUMP JUMPDEST PUSH1 0x1 PUSH1 0x1 PUSH1 0xA0 SHL SUB DUP5 AND SWAP1 DUP4 PUSH2 0x13E3 JUMP JUMPDEST PUSH2 0xEB3 PUSH1 0x40 DUP1 MLOAD PUSH2 0x120 DUP2 ADD SWAP1 SWAP2 MSTORE PUSH1 0x0 DUP1 DUP3 MSTORE PUSH1 0x20 DUP3 ADD SWAP1 DUP2 MSTORE PUSH1 0x20 ADD PUSH1 0x0 DUP2 MSTORE PUSH1 0x20 ADD PUSH1 0x0 DUP2 MSTORE PUSH1 0x20 ADD PUSH1 0x0 DUP2 MSTORE PUSH1 0x20 ADD PUSH1 0x0 DUP2 MSTORE PUSH1 0x20 ADD PUSH1 0x0 DUP2 MSTORE PUSH1 0x20 ADD PUSH1 0x0 DUP2 MSTORE PUSH1 0x20 ADD PUSH1 0x0 DUP2 MSTORE POP SWAP1 JUMP JUMPDEST PUSH1 0x1 PUSH1 0x1 PUSH1 0xA0 SHL SUB DUP3 AND PUSH1 0x0 SWAP1 DUP2 MSTORE PUSH1 0x3 PUSH1 0x20 MSTORE PUSH1 0x40 DUP2 KECCAK256 PUSH1 0x1 DUP2 ADD SLOAD SWAP1 SWAP2 SWAP1 PUSH1 0x2 SWAP1 DUP3 SWAP1 PUSH1 0xFF AND PUSH1 0x5 DUP2 GT ISZERO PUSH2 0xEEC JUMPI PUSH2 0xEEC PUSH2 0x15AF JUMP JUMPDEST PUSH1 0x5 DUP2 GT ISZERO PUSH2 0xEFD JUMPI PUSH2 0xEFD PUSH2 0x15AF JUMP JUMPDEST DUP2 MSTORE PUSH1 0x20 DUP1 DUP3 ADD SWAP3 SWAP1 SWAP3 MSTORE PUSH1 0x40 ADD PUSH1 0x0 KECCAK256 DUP4 SLOAD DUP6 MSTORE PUSH1 0x1 DUP5 ADD SLOAD SWAP1 SWAP3 POP SWAP1 DUP5 ADD SWAP1 PUSH1 0xFF AND PUSH1 0x5 DUP2 GT ISZERO PUSH2 0xF32 JUMPI PUSH2 0xF32 PUSH2 0x15AF JUMP JUMPDEST SWAP1 DUP2 PUSH1 0x5 DUP2 GT ISZERO PUSH2 0xF45 JUMPI PUSH2 0xF45 PUSH2 0x15AF JUMP JUMPDEST SWAP1 MSTORE POP PUSH1 0x2 DUP3 ADD SLOAD PUSH1 0x40 DUP5 ADD MSTORE PUSH1 0x3 DUP3 ADD SLOAD PUSH1 0x60 DUP5 ADD MSTORE PUSH1 0x4 DUP3 ADD SLOAD PUSH1 0x80 DUP5 ADD MSTORE PUSH1 0x5 DUP3 ADD SLOAD PUSH1 0xA0 DUP5 ADD MSTORE PUSH2 0xF79 DUP5 PUSH2 0x818 JUMP JUMPDEST PUSH1 0xC0 DUP5 ADD MSTORE DUP2 SLOAD PUSH2 0xF8C JUMPI PUSH2 0x2710 PUSH2 0xF92 JUMP JUMPDEST DUP1 PUSH1 0x2 ADD SLOAD JUMPDEST PUSH1 0xE0 DUP5 ADD MSTORE DUP2 SLOAD PUSH2 0xFA4 JUMPI PUSH1 0x0 PUSH2 0xFAA JUMP JUMPDEST DUP1 PUSH1 0x4 ADD SLOAD JUMPDEST PUSH2 0x100 DUP5 ADD MSTORE POP SWAP1 SWAP3 SWAP2 POP POP JUMP JUMPDEST PUSH1 0x1 PUSH1 0x1 PUSH1 0xA0 SHL SUB DUP2 AND PUSH1 0x0 SWAP1 DUP2 MSTORE PUSH1 0x3 PUSH1 0x20 MSTORE PUSH1 0x40 DUP2 KECCAK256 DUP1 SLOAD DUP3 SUB PUSH2 0xFE2 JUMPI POP PUSH2 0x2710 SWAP3 SWAP2 POP POP JUMP JUMPDEST PUSH1 0x1 DUP2 ADD SLOAD PUSH1 0x2 SWAP1 PUSH1 0x0 SWAP1 PUSH1 0xFF AND PUSH1 0x5 DUP2 GT ISZERO PUSH2 0x1001 JUMPI PUSH2 0x1001 PUSH2 0x15AF JUMP JUMPDEST PUSH1 0x5 DUP2 GT ISZERO PUSH2 0x1012 JUMPI PUSH2 0x1012 PUSH2 0x15AF JUMP JUMPDEST DUP2 MSTORE PUSH1 0x20 ADD SWAP1 DUP2 MSTORE PUSH1 0x20 ADD PUSH1 0x0 KECCAK256 PUSH1 0x2 ADD SLOAD SWAP2 POP POP SWAP2 SWAP1 POP JUMP JUMPDEST PUSH1 0x1 PUSH1 0x1 PUSH1 0xA0 SHL SUB DUP2 AND PUSH1 0x0 SWAP1 DUP2 MSTORE PUSH1 0x3 PUSH1 0x20 MSTORE PUSH1 0x40 DUP2 KECCAK256 DUP1 SLOAD DUP3 SUB PUSH2 0x1055 JUMPI POP PUSH1 0x0 SWAP3 SWAP2 POP POP JUMP JUMPDEST PUSH1 0x1 DUP2 ADD SLOAD PUSH1 0x2 SWAP1 PUSH1 0x0 SWAP1 PUSH1 0xFF AND PUSH1 0x5 DUP2 GT ISZERO PUSH2 0x1074 JUMPI PUSH2 0x1074 PUSH2 0x15AF JUMP JUMPDEST PUSH1 0x5 DUP2 GT ISZERO PUSH2 0x1085 JUMPI PUSH2 0x1085 PUSH2 0x15AF JUMP JUMPDEST DUP2 MSTORE PUSH1 0x20 ADD SWAP1 DUP2 MSTORE PUSH1 0x20 ADD PUSH1 0x0 KECCAK256 PUSH1 0x4 ADD SLOAD SWAP2 POP POP SWAP2 SWAP1 POP JUMP JUMPDEST PUSH2 0x10A7 PUSH2 0x1419 JUMP JUMPDEST PUSH1 0x1 PUSH1 0x1 PUSH1 0xA0 SHL SUB DUP2 AND PUSH2 0x10D1 JUMPI PUSH1 0x40 MLOAD PUSH4 0x1E4FBDF7 PUSH1 0xE0 SHL DUP2 MSTORE PUSH1 0x0 PUSH1 0x4 DUP3 ADD MSTORE PUSH1 0x24 ADD PUSH2 0x3D4 JUMP JUMPDEST PUSH2 0x10DA DUP2 PUSH2 0x1446 JUMP JUMPDEST POP JUMP JUMPDEST PUSH1 0x2 PUSH1 0x1 SLOAD SUB PUSH2 0x1100 JUMPI PUSH1 0x40 MLOAD PUSH4 0x3EE5AEB5 PUSH1 0xE0 SHL DUP2 MSTORE PUSH1 0x4 ADD PUSH1 0x40 MLOAD DUP1 SWAP2 SUB SWAP1 REVERT JUMPDEST PUSH1 0x2 PUSH1 0x1 SSTORE JUMP JUMPDEST PUSH1 0x1 PUSH1 0x1 PUSH1 0xA0 SHL SUB DUP2 AND PUSH1 0x0 SWAP1 DUP2 MSTORE PUSH1 0x3 PUSH1 0x20 MSTORE PUSH1 0x40 DUP2 KECCAK256 DUP1 SLOAD SWAP1 SWAP2 SUB PUSH2 0x112C JUMPI POP POP JUMP JUMPDEST PUSH1 0x0 PUSH2 0x1137 DUP4 PUSH2 0x818 JUMP JUMPDEST SWAP1 POP DUP1 PUSH1 0x0 SUB PUSH2 0x1146 JUMPI POP POP POP JUMP JUMPDEST TIMESTAMP DUP3 PUSH1 0x4 ADD DUP2 SWAP1 SSTORE POP DUP1 DUP3 PUSH1 0x5 ADD PUSH1 0x0 DUP3 DUP3 SLOAD PUSH2 0x1163 SWAP2 SWAP1 PUSH2 0x1791 JUMP JUMPDEST SWAP3 POP POP DUP2 SWAP1 SSTORE POP DUP1 PUSH1 0x6 PUSH1 0x0 DUP3 DUP3 SLOAD PUSH2 0x117C SWAP2 SWAP1 PUSH2 0x1791 JUMP JUMPDEST SWAP1 SWAP2 SSTORE POP POP PUSH1 0x40 MLOAD PUSH3 0xCA53E5 PUSH1 0xE1 SHL DUP2 MSTORE PUSH1 0x1 PUSH1 0x1 PUSH1 0xA0 SHL SUB DUP5 DUP2 AND PUSH1 0x4 DUP4 ADD MSTORE PUSH1 0x24 DUP3 ADD DUP4 SWAP1 MSTORE PUSH32 0x0 AND SWAP1 PUSH4 0x194A7CA SWAP1 PUSH1 0x44 ADD PUSH1 0x0 PUSH1 0x40 MLOAD DUP1 DUP4 SUB DUP2 PUSH1 0x0 DUP8 DUP1 EXTCODESIZE ISZERO DUP1 ISZERO PUSH2 0x11EA JUMPI PUSH1 0x0 DUP1 REVERT JUMPDEST POP GAS CALL ISZERO DUP1 ISZERO PUSH2 0x11FE JUMPI RETURNDATASIZE PUSH1 0x0 DUP1 RETURNDATACOPY RETURNDATASIZE PUSH1 0x0 REVERT JUMPDEST POP POP POP POP DUP3 PUSH1 0x1 PUSH1 0x1 PUSH1 0xA0 SHL SUB AND PUSH32 0xFC30CDDEA38E2BF4D6EA7D3F9ED3B6AD7F176419F4963BD81318067A4AEE73FE DUP3 PUSH1 0x40 MLOAD PUSH2 0x123D SWAP2 DUP2 MSTORE PUSH1 0x20 ADD SWAP1 JUMP JUMPDEST PUSH1 0x40 MLOAD DUP1 SWAP2 SUB SWAP1 LOG2 POP POP POP JUMP JUMPDEST PUSH1 0x40 MLOAD PUSH1 0x1 PUSH1 0x1 PUSH1 0xA0 SHL SUB DUP5 DUP2 AND PUSH1 0x24 DUP4 ADD MSTORE DUP4 DUP2 AND PUSH1 0x44 DUP4 ADD MSTORE PUSH1 0x64 DUP3 ADD DUP4 SWAP1 MSTORE PUSH2 0x12B1 SWAP2 DUP7 SWAP2 DUP3 AND SWAP1 PUSH4 0x23B872DD SWAP1 PUSH1 0x84 ADD JUMPDEST PUSH1 0x40 MLOAD PUSH1 0x20 DUP2 DUP4 SUB SUB DUP2 MSTORE SWAP1 PUSH1 0x40 MSTORE SWAP2 POP PUSH1 0xE0 SHL PUSH1 0x20 DUP3 ADD DUP1 MLOAD PUSH1 0x1 PUSH1 0x1 PUSH1 0xE0 SHL SUB DUP4 DUP2 DUP4 AND OR DUP4 MSTORE POP POP POP POP PUSH2 0x1496 JUMP JUMPDEST POP POP POP POP JUMP JUMPDEST PUSH1 0x5 PUSH1 0x0 SWAP1 DUP2 MSTORE PUSH1 0x2 PUSH1 0x20 MSTORE PUSH32 0xB98B78633099FA36ED8B8680C4F8092689E1E04080EB9CBB077CA38A14D7E384 SLOAD DUP3 LT PUSH2 0x12F3 JUMPI POP PUSH1 0x5 SWAP2 SWAP1 POP JUMP JUMPDEST PUSH1 0x4 PUSH1 0x0 MSTORE PUSH1 0x2 PUSH1 0x20 MSTORE PUSH32 0xEE60D0579BCFFD98E668647D59FEC1FF86A7FB340CE572E844F234AE73A6918F SLOAD DUP3 LT PUSH2 0x132D JUMPI POP PUSH1 0x4 SWAP2 SWAP1 POP JUMP JUMPDEST PUSH1 0x3 PUSH1 0x0 MSTORE PUSH1 0x2 PUSH1 0x20 MSTORE PUSH32 0x88601476D11616A71C5BE67555BD1DFF4B1CBF21533D2669B768B61518CFE1C3 SLOAD DUP3 LT PUSH2 0x1367 JUMPI POP PUSH1 0x3 SWAP2 SWAP1 POP JUMP JUMPDEST PUSH1 0x2 PUSH1 0x0 DUP2 SWAP1 MSTORE PUSH1 0x20 MSTORE PUSH32 0x679795A0195A1B76CDEBB7C51D74E058AEE92919B8C3389AF86EF24535E8A28C SLOAD DUP3 LT PUSH2 0x13A1 JUMPI POP PUSH1 0x2 SWAP2 SWAP1 POP JUMP JUMPDEST PUSH1 0x1 PUSH1 0x0 MSTORE PUSH1 0x2 PUSH1 0x20 MSTORE PUSH32 0xE90B7BCEB6E7DF5418FB78D8EE546E97C83A08BBCCC01A0644D599CCD2A7C2E0 SLOAD DUP3 LT PUSH2 0x13DB JUMPI POP PUSH1 0x1 SWAP2 SWAP1 POP JUMP JUMPDEST POP PUSH1 0x0 SWAP2 SWAP1 POP JUMP JUMPDEST PUSH1 0x40 MLOAD PUSH1 0x1 PUSH1 0x1 PUSH1 0xA0 SHL SUB DUP4 DUP2 AND PUSH1 0x24 DUP4 ADD MSTORE PUSH1 0x44 DUP3 ADD DUP4 SWAP1 MSTORE PUSH2 0x1414 SWAP2 DUP6 SWAP2 DUP3 AND SWAP1 PUSH4 0xA9059CBB SWAP1 PUSH1 0x64 ADD PUSH2 0x127F JUMP JUMPDEST POP POP POP JUMP JUMPDEST PUSH1 0x0 SLOAD PUSH1 0x1 PUSH1 0x1 PUSH1 0xA0 SHL SUB AND CALLER EQ PUSH2 0x816 JUMPI PUSH1 0x40 MLOAD PUSH4 0x118CDAA7 PUSH1 0xE0 SHL DUP2 MSTORE CALLER PUSH1 0x4 DUP3 ADD MSTORE PUSH1 0x24 ADD PUSH2 0x3D4 JUMP JUMPDEST PUSH1 0x0 DUP1 SLOAD PUSH1 0x1 PUSH1 0x1 PUSH1 0xA0 SHL SUB DUP4 DUP2 AND PUSH1 0x1 PUSH1 0x1 PUSH1 0xA0 SHL SUB NOT DUP4 AND DUP2 OR DUP5 SSTORE PUSH1 0x40 MLOAD SWAP2 SWAP1 SWAP3 AND SWAP3 DUP4 SWAP2 PUSH32 0x8BE0079C531659141344CD1FD0A4F28419497F9722A3DAAFE3B4186F6B6457E0 SWAP2 SWAP1 LOG3 POP POP JUMP JUMPDEST PUSH1 0x0 DUP1 PUSH1 0x20 PUSH1 0x0 DUP5 MLOAD PUSH1 0x20 DUP7 ADD PUSH1 0x0 DUP9 GAS CALL DUP1 PUSH2 0x14B9 JUMPI PUSH1 0x40 MLOAD RETURNDATASIZE PUSH1 0x0 DUP3 RETURNDATACOPY RETURNDATASIZE DUP2 REVERT JUMPDEST POP POP PUSH1 0x0 MLOAD RETURNDATASIZE SWAP2 POP DUP2 ISZERO PUSH2 0x14D1 JUMPI DUP1 PUSH1 0x1 EQ ISZERO PUSH2 0x14DE JUMP JUMPDEST PUSH1 0x1 PUSH1 0x1 PUSH1 0xA0 SHL SUB DUP5 AND EXTCODESIZE ISZERO JUMPDEST ISZERO PUSH2 0x12B1 JUMPI PUSH1 0x40 MLOAD PUSH4 0x5274AFE7 PUSH1 0xE0 SHL DUP2 MSTORE PUSH1 0x1 PUSH1 0x1 PUSH1 0xA0 SHL SUB DUP6 AND PUSH1 0x4 DUP3 ADD MSTORE PUSH1 0x24 ADD PUSH2 0x3D4 JUMP JUMPDEST PUSH1 0x40 MLOAD DUP1 PUSH1 0xA0 ADD PUSH1 0x40 MSTORE DUP1 PUSH1 0x0 DUP2 MSTORE PUSH1 0x20 ADD PUSH1 0x0 DUP2 MSTORE PUSH1 0x20 ADD PUSH1 0x0 DUP2 MSTORE PUSH1 0x20 ADD PUSH1 0x0 DUP2 MSTORE PUSH1 0x20 ADD PUSH1 0x0 DUP2 MSTORE POP SWAP1 JUMP JUMPDEST DUP1 CALLDATALOAD PUSH1 0x6 DUP2 LT PUSH2 0x1545 JUMPI PUSH1 0x0 DUP1 REVERT JUMPDEST SWAP2 SWAP1 POP JUMP JUMPDEST PUSH1 0x0 DUP1 PUSH1 0x40 DUP4 DUP6 SUB SLT ISZERO PUSH2 0x155D JUMPI PUSH1 0x0 DUP1 REVERT JUMPDEST DUP3 CALLDATALOAD SWAP2 POP PUSH2 0x156D PUSH1 0x20 DUP5 ADD PUSH2 0x1536 JUMP JUMPDEST SWAP1 POP SWAP3 POP SWAP3 SWAP1 POP JUMP JUMPDEST DUP1 CALLDATALOAD PUSH1 0x1 PUSH1 0x1 PUSH1 0xA0 SHL SUB DUP2 AND DUP2 EQ PUSH2 0x1545 JUMPI PUSH1 0x0 DUP1 REVERT JUMPDEST PUSH1 0x0 PUSH1 0x20 DUP3 DUP5 SUB SLT ISZERO PUSH2 0x159F JUMPI PUSH1 0x0 DUP1 REVERT JUMPDEST PUSH2 0x15A8 DUP3 PUSH2 0x1576 JUMP JUMPDEST SWAP4 SWAP3 POP POP POP JUMP JUMPDEST PUSH4 0x4E487B71 PUSH1 0xE0 SHL PUSH1 0x0 MSTORE PUSH1 0x21 PUSH1 0x4 MSTORE PUSH1 0x24 PUSH1 0x0 REVERT JUMPDEST PUSH1 0x6 DUP2 LT PUSH2 0x15E3 JUMPI PUSH4 0x4E487B71 PUSH1 0xE0 SHL PUSH1 0x0 MSTORE PUSH1 0x21 PUSH1 0x4 MSTORE PUSH1 0x24 PUSH1 0x0 REVERT JUMPDEST SWAP1 MSTORE JUMP JUMPDEST DUP7 DUP2 MSTORE PUSH1 0xC0 DUP2 ADD PUSH2 0x15FB PUSH1 0x20 DUP4 ADD DUP9 PUSH2 0x15C5 JUMP JUMPDEST DUP6 PUSH1 0x40 DUP4 ADD MSTORE DUP5 PUSH1 0x60 DUP4 ADD MSTORE DUP4 PUSH1 0x80 DUP4 ADD MSTORE DUP3 PUSH1 0xA0 DUP4 ADD MSTORE SWAP8 SWAP7 POP POP POP POP POP POP POP JUMP JUMPDEST PUSH1 0x0 PUSH1 0x20 DUP3 DUP5 SUB SLT ISZERO PUSH2 0x1630 JUMPI PUSH1 0x0 DUP1 REVERT JUMPDEST PUSH2 0x15A8 DUP3 PUSH2 0x1536 JUMP JUMPDEST DUP1 MLOAD DUP3 MSTORE PUSH1 0x20 DUP2 ADD MLOAD PUSH1 0x20 DUP4 ADD MSTORE PUSH1 0x40 DUP2 ADD MLOAD PUSH1 0x40 DUP4 ADD MSTORE PUSH1 0x60 DUP2 ADD MLOAD PUSH1 0x60 DUP4 ADD MSTORE PUSH1 0x80 DUP2 ADD MLOAD PUSH1 0x80 DUP4 ADD MSTORE POP POP JUMP JUMPDEST PUSH2 0x320 DUP2 ADD PUSH2 0x1678 DUP3 DUP9 PUSH2 0x1639 JUMP JUMPDEST PUSH2 0x1685 PUSH1 0xA0 DUP4 ADD DUP8 PUSH2 0x1639 JUMP JUMPDEST PUSH2 0x1693 PUSH2 0x140 DUP4 ADD DUP7 PUSH2 0x1639 JUMP JUMPDEST PUSH2 0x16A1 PUSH2 0x1E0 DUP4 ADD DUP6 PUSH2 0x1639 JUMP JUMPDEST PUSH2 0x16AF PUSH2 0x280 DUP4 ADD DUP5 PUSH2 0x1639 JUMP JUMPDEST SWAP7 SWAP6 POP POP POP POP POP POP JUMP JUMPDEST PUSH1 0xA0 DUP2 ADD PUSH2 0x16C7 DUP3 DUP5 PUSH2 0x1639 JUMP JUMPDEST SWAP3 SWAP2 POP POP JUMP JUMPDEST PUSH1 0x0 DUP1 PUSH1 0x40 DUP4 DUP6 SUB SLT ISZERO PUSH2 0x16E0 JUMPI PUSH1 0x0 DUP1 REVERT JUMPDEST PUSH2 0x16E9 DUP4 PUSH2 0x1576 JUMP JUMPDEST SWAP5 PUSH1 0x20 SWAP4 SWAP1 SWAP4 ADD CALLDATALOAD SWAP4 POP POP POP JUMP JUMPDEST DUP2 MLOAD DUP2 MSTORE PUSH1 0x20 DUP1 DUP4 ADD MLOAD PUSH2 0x120 DUP4 ADD SWAP2 PUSH2 0x1713 SWAP1 DUP5 ADD DUP3 PUSH2 0x15C5 JUMP JUMPDEST POP PUSH1 0x40 DUP4 ADD MLOAD PUSH1 0x40 DUP4 ADD MSTORE PUSH1 0x60 DUP4 ADD MLOAD PUSH1 0x60 DUP4 ADD MSTORE PUSH1 0x80 DUP4 ADD MLOAD PUSH1 0x80 DUP4 ADD MSTORE PUSH1 0xA0 DUP4 ADD MLOAD PUSH1 0xA0 DUP4 ADD MSTORE PUSH1 0xC0 DUP4 ADD MLOAD PUSH1 0xC0 DUP4 ADD MSTORE PUSH1 0xE0 DUP4 ADD MLOAD PUSH1 0xE0 DUP4 ADD MSTORE PUSH2 0x100 DUP1 DUP5 ADD MLOAD DUP2 DUP5 ADD MSTORE POP SWAP3 SWAP2 POP POP JUMP JUMPDEST PUSH4 0x4E487B71 PUSH1 0xE0 SHL PUSH1 0x0 MSTORE PUSH1 0x11 PUSH1 0x4 MSTORE PUSH1 0x24 PUSH1 0x0 REVERT JUMPDEST PUSH1 0x0 PUSH1 0x1 DUP3 ADD PUSH2 0x178A JUMPI PUSH2 0x178A PUSH2 0x1762 JUMP JUMPDEST POP PUSH1 0x1 ADD SWAP1 JUMP JUMPDEST DUP1 DUP3 ADD DUP1 DUP3 GT ISZERO PUSH2 0x16C7 JUMPI PUSH2 0x16C7 PUSH2 0x1762 JUMP JUMPDEST DUP4 DUP2 MSTORE PUSH1 0x60 DUP2 ADD PUSH2 0x17B8 PUSH1 0x20 DUP4 ADD DUP6 PUSH2 0x15C5 JUMP JUMPDEST DUP3 PUSH1 0x40 DUP4 ADD MSTORE SWAP5 SWAP4 POP POP POP POP JUMP JUMPDEST PUSH1 0x40 DUP2 ADD PUSH2 0x17D4 DUP3 DUP6 PUSH2 0x15C5 JUMP JUMPDEST PUSH2 0x15A8 PUSH1 0x20 DUP4 ADD DUP5 PUSH2 0x15C5 JUMP JUMPDEST DUP2 DUP2 SUB DUP2 DUP2 GT ISZERO PUSH2 0x16C7 JUMPI PUSH2 0x16C7 PUSH2 0x1762 JUMP JUMPDEST PUSH1 0x0 DUP2 PUSH2 0x1803 JUMPI PUSH2 0x1803 PUSH2 0x1762 JUMP JUMPDEST POP PUSH1 0x0 NOT ADD SWAP1 JUMP JUMPDEST DUP1 DUP3 MUL DUP2 ISZERO DUP3 DUP3 DIV DUP5 EQ OR PUSH2 0x16C7 JUMPI PUSH2 0x16C7 PUSH2 0x1762 JUMP JUMPDEST PUSH1 0x0 DUP3 PUSH2 0x183F JUMPI PUSH4 0x4E487B71 PUSH1 0xE0 SHL PUSH1 0x0 MSTORE PUSH1 0x12 PUSH1 0x4 MSTORE PUSH1 0x24 PUSH1 0x0 REVERT JUMPDEST POP DIV SWAP1 JUMP INVALID LOG2 PUSH5 0x6970667358 0x22 SLT KECCAK256 MOD EXTCODESIZE SLT 0xBD 0xD DUP10 0x23 0xEE 0x29 0x2A DUP3 LOG3 CODESIZE 0x4B SWAP9 0xDB 0x2A 0xDC 0xA7 0xCF 0xD4 TIMESTAMP PUSH23 0x29363443FEC452682664736F6C63430008180033000000 "},"methodIdentifiers":{"claimRewards()":"372500ab","emergencyWithdraw(address,uint256)":"95ccea67","getAllTiers()":"6471af83","getStakeInfo(address)":"c3453153","getTierInfo(uint8)":"7ed85ff3","getUserBonusPlays(address)":"cd0fd3a2","getUserMultiplier(address)":"c5e22f3f","grepMinter()":"51032b06","grepToken()":"a999d1c7","owner()":"8da5cb5b","pendingRewards(address)":"31d7a262","renounceOwnership()":"715018a6","stake(uint256,uint8)":"10087fb1","stakes(address)":"16934fc4","tierInfo(uint8)":"35766f4b","totalRewardsDistributed()":"ee172546","totalStaked()":"817b1cd2","totalStakers()":"86989038","transferOwnership(address)":"f2fde38b","unstake()":"2def6620"}}}}}