{"contracts/GrepToken.sol":{"GrepToken":{"abi":[{"inputs":[],"stateMutability":"nonpayable","type":"constructor"},{"inputs":[],"name":"CheckpointUnorderedInsertion","type":"error"},{"inputs":[],"name":"ECDSAInvalidSignature","type":"error"},{"inputs":[{"internalType":"uint256","name":"length","type":"uint256"}],"name":"ECDSAInvalidSignatureLength","type":"error"},{"inputs":[{"internalType":"bytes32","name":"s","type":"bytes32"}],"name":"ECDSAInvalidSignatureS","type":"error"},{"inputs":[{"internalType":"uint256","name":"increasedSupply","type":"uint256"},{"internalType":"uint256","name":"cap","type":"uint256"}],"name":"ERC20ExceededSafeSupply","type":"error"},{"inputs":[{"internalType":"address","name":"spender","type":"address"},{"internalType":"uint256","name":"allowance","type":"uint256"},{"internalType":"uint256","name":"needed","type":"uint256"}],"name":"ERC20InsufficientAllowance","type":"error"},{"inputs":[{"internalType":"address","name":"sender","type":"address"},{"internalType":"uint256","name":"balance","type":"uint256"},{"internalType":"uint256","name":"needed","type":"uint256"}],"name":"ERC20InsufficientBalance","type":"error"},{"inputs":[{"internalType":"address","name":"approver","type":"address"}],"name":"ERC20InvalidApprover","type":"error"},{"inputs":[{"internalType":"address","name":"receiver","type":"address"}],"name":"ERC20InvalidReceiver","type":"error"},{"inputs":[{"internalType":"address","name":"sender","type":"address"}],"name":"ERC20InvalidSender","type":"error"},{"inputs":[{"internalType":"address","name":"spender","type":"address"}],"name":"ERC20InvalidSpender","type":"error"},{"inputs":[{"internalType":"uint256","name":"deadline","type":"uint256"}],"name":"ERC2612ExpiredSignature","type":"error"},{"inputs":[{"internalType":"address","name":"signer","type":"address"},{"internalType":"address","name":"owner","type":"address"}],"name":"ERC2612InvalidSigner","type":"error"},{"inputs":[{"internalType":"uint256","name":"timepoint","type":"uint256"},{"internalType":"uint48","name":"clock","type":"uint48"}],"name":"ERC5805FutureLookup","type":"error"},{"inputs":[],"name":"ERC6372InconsistentClock","type":"error"},{"inputs":[],"name":"EnforcedPause","type":"error"},{"inputs":[],"name":"ExpectedPause","type":"error"},{"inputs":[{"internalType":"address","name":"account","type":"address"},{"internalType":"uint256","name":"currentNonce","type":"uint256"}],"name":"InvalidAccountNonce","type":"error"},{"inputs":[],"name":"InvalidShortString","type":"error"},{"inputs":[{"internalType":"address","name":"owner","type":"address"}],"name":"OwnableInvalidOwner","type":"error"},{"inputs":[{"internalType":"address","name":"account","type":"address"}],"name":"OwnableUnauthorizedAccount","type":"error"},{"inputs":[{"internalType":"uint8","name":"bits","type":"uint8"},{"internalType":"uint256","name":"value","type":"uint256"}],"name":"SafeCastOverflowedUintDowncast","type":"error"},{"inputs":[{"internalType":"string","name":"str","type":"string"}],"name":"StringTooLong","type":"error"},{"inputs":[{"internalType":"uint256","name":"expiry","type":"uint256"}],"name":"VotesExpiredSignature","type":"error"},{"anonymous":false,"inputs":[{"indexed":true,"internalType":"address","name":"to","type":"address"},{"indexed":false,"internalType":"uint256","name":"amount","type":"uint256"}],"name":"AirdropMinted","type":"event"},{"anonymous":false,"inputs":[{"indexed":true,"internalType":"address","name":"owner","type":"address"},{"indexed":true,"internalType":"address","name":"spender","type":"address"},{"indexed":false,"internalType":"uint256","name":"value","type":"uint256"}],"name":"Approval","type":"event"},{"anonymous":false,"inputs":[{"indexed":true,"internalType":"address","name":"delegator","type":"address"},{"indexed":true,"internalType":"address","name":"fromDelegate","type":"address"},{"indexed":true,"internalType":"address","name":"toDelegate","type":"address"}],"name":"DelegateChanged","type":"event"},{"anonymous":false,"inputs":[{"indexed":true,"internalType":"address","name":"delegate","type":"address"},{"indexed":false,"internalType":"uint256","name":"previousVotes","type":"uint256"},{"indexed":false,"internalType":"uint256","name":"newVotes","type":"uint256"}],"name":"DelegateVotesChanged","type":"event"},{"anonymous":false,"inputs":[],"name":"EIP712DomainChanged","type":"event"},{"anonymous":false,"inputs":[{"indexed":true,"internalType":"address","name":"to","type":"address"},{"indexed":false,"internalType":"uint256","name":"amount","type":"uint256"}],"name":"GameplayRewardsMinted","type":"event"},{"anonymous":false,"inputs":[{"indexed":true,"internalType":"address","name":"minter","type":"address"}],"name":"MinterAdded","type":"event"},{"anonymous":false,"inputs":[{"indexed":true,"internalType":"address","name":"minter","type":"address"}],"name":"MinterRemoved","type":"event"},{"anonymous":false,"inputs":[{"indexed":true,"internalType":"address","name":"previousOwner","type":"address"},{"indexed":true,"internalType":"address","name":"newOwner","type":"address"}],"name":"OwnershipTransferred","type":"event"},{"anonymous":false,"inputs":[{"indexed":false,"internalType":"address","name":"account","type":"address"}],"name":"Paused","type":"event"},{"anonymous":false,"inputs":[{"indexed":true,"internalType":"address","name":"to","type":"address"},{"indexed":false,"internalType":"uint256","name":"amount","type":"uint256"}],"name":"StakingRewardsMinted","type":"event"},{"anonymous":false,"inputs":[{"indexed":true,"internalType":"address","name":"from","type":"address"},{"indexed":true,"internalType":"address","name":"to","type":"address"},{"indexed":false,"internalType":"uint256","name":"value","type":"uint256"}],"name":"Transfer","type":"event"},{"anonymous":false,"inputs":[{"indexed":false,"internalType":"address","name":"account","type":"address"}],"name":"Unpaused","type":"event"},{"inputs":[],"name":"AIRDROPS_CAP","outputs":[{"internalType":"uint256","name":"","type":"uint256"}],"stateMutability":"view","type":"function"},{"inputs":[],"name":"CLOCK_MODE","outputs":[{"internalType":"string","name":"","type":"string"}],"stateMutability":"view","type":"function"},{"inputs":[],"name":"DOMAIN_SEPARATOR","outputs":[{"internalType":"bytes32","name":"","type":"bytes32"}],"stateMutability":"view","type":"function"},{"inputs":[],"name":"GAMEPLAY_REWARDS_CAP","outputs":[{"internalType":"uint256","name":"","type":"uint256"}],"stateMutability":"view","type":"function"},{"inputs":[],"name":"MAX_SUPPLY","outputs":[{"internalType":"uint256","name":"","type":"uint256"}],"stateMutability":"view","type":"function"},{"inputs":[],"name":"STAKING_REWARDS_CAP","outputs":[{"internalType":"uint256","name":"","type":"uint256"}],"stateMutability":"view","type":"function"},{"inputs":[{"internalType":"address","name":"minter","type":"address"}],"name":"addMinter","outputs":[],"stateMutability":"nonpayable","type":"function"},{"inputs":[],"name":"airdropsMinted","outputs":[{"internalType":"uint256","name":"","type":"uint256"}],"stateMutability":"view","type":"function"},{"inputs":[{"internalType":"address","name":"owner","type":"address"},{"internalType":"address","name":"spender","type":"address"}],"name":"allowance","outputs":[{"internalType":"uint256","name":"","type":"uint256"}],"stateMutability":"view","type":"function"},{"inputs":[{"internalType":"address","name":"spender","type":"address"},{"internalType":"uint256","name":"value","type":"uint256"}],"name":"approve","outputs":[{"internalType":"bool","name":"","type":"bool"}],"stateMutability":"nonpayable","type":"function"},{"inputs":[{"internalType":"address","name":"account","type":"address"}],"name":"balanceOf","outputs":[{"internalType":"uint256","name":"","type":"uint256"}],"stateMutability":"view","type":"function"},{"inputs":[{"internalType":"uint256","name":"value","type":"uint256"}],"name":"burn","outputs":[],"stateMutability":"nonpayable","type":"function"},{"inputs":[{"internalType":"address","name":"account","type":"address"},{"internalType":"uint256","name":"value","type":"uint256"}],"name":"burnFrom","outputs":[],"stateMutability":"nonpayable","type":"function"},{"inputs":[{"internalType":"address","name":"account","type":"address"},{"internalType":"uint32","name":"pos","type":"uint32"}],"name":"checkpoints","outputs":[{"components":[{"internalType":"uint48","name":"_key","type":"uint48"},{"internalType":"uint208","name":"_value","type":"uint208"}],"internalType":"struct Checkpoints.Checkpoint208","name":"","type":"tuple"}],"stateMutability":"view","type":"function"},{"inputs":[],"name":"clock","outputs":[{"internalType":"uint48","name":"","type":"uint48"}],"stateMutability":"view","type":"function"},{"inputs":[],"name":"decimals","outputs":[{"internalType":"uint8","name":"","type":"uint8"}],"stateMutability":"view","type":"function"},{"inputs":[{"internalType":"address","name":"delegatee","type":"address"}],"name":"delegate","outputs":[],"stateMutability":"nonpayable","type":"function"},{"inputs":[{"internalType":"address","name":"delegatee","type":"address"},{"internalType":"uint256","name":"nonce","type":"uint256"},{"internalType":"uint256","name":"expiry","type":"uint256"},{"internalType":"uint8","name":"v","type":"uint8"},{"internalType":"bytes32","name":"r","type":"bytes32"},{"internalType":"bytes32","name":"s","type":"bytes32"}],"name":"delegateBySig","outputs":[],"stateMutability":"nonpayable","type":"function"},{"inputs":[{"internalType":"address","name":"account","type":"address"}],"name":"delegates","outputs":[{"internalType":"address","name":"","type":"address"}],"stateMutability":"view","type":"function"},{"inputs":[],"name":"eip712Domain","outputs":[{"internalType":"bytes1","name":"fields","type":"bytes1"},{"internalType":"string","name":"name","type":"string"},{"internalType":"string","name":"version","type":"string"},{"internalType":"uint256","name":"chainId","type":"uint256"},{"internalType":"address","name":"verifyingContract","type":"address"},{"internalType":"bytes32","name":"salt","type":"bytes32"},{"internalType":"uint256[]","name":"extensions","type":"uint256[]"}],"stateMutability":"view","type":"function"},{"inputs":[],"name":"gameplayRewardsMinted","outputs":[{"internalType":"uint256","name":"","type":"uint256"}],"stateMutability":"view","type":"function"},{"inputs":[{"internalType":"uint256","name":"timepoint","type":"uint256"}],"name":"getPastTotalSupply","outputs":[{"internalType":"uint256","name":"","type":"uint256"}],"stateMutability":"view","type":"function"},{"inputs":[{"internalType":"address","name":"account","type":"address"},{"internalType":"uint256","name":"timepoint","type":"uint256"}],"name":"getPastVotes","outputs":[{"internalType":"uint256","name":"","type":"uint256"}],"stateMutability":"view","type":"function"},{"inputs":[],"name":"getRemainingMintable","outputs":[{"internalType":"uint256","name":"stakingRemaining","type":"uint256"},{"internalType":"uint256","name":"gameplayRemaining","type":"uint256"},{"internalType":"uint256","name":"airdropsRemaining","type":"uint256"}],"stateMutability":"view","type":"function"},{"inputs":[{"internalType":"address","name":"account","type":"address"}],"name":"getVotes","outputs":[{"internalType":"uint256","name":"","type":"uint256"}],"stateMutability":"view","type":"function"},{"inputs":[{"internalType":"address","name":"to","type":"address"},{"internalType":"uint256","name":"amount","type":"uint256"}],"name":"mintAirdrop","outputs":[],"stateMutability":"nonpayable","type":"function"},{"inputs":[{"internalType":"address","name":"to","type":"address"},{"internalType":"uint256","name":"amount","type":"uint256"}],"name":"mintGameplayRewards","outputs":[],"stateMutability":"nonpayable","type":"function"},{"inputs":[{"internalType":"address","name":"to","type":"address"},{"internalType":"uint256","name":"amount","type":"uint256"}],"name":"mintStakingRewards","outputs":[],"stateMutability":"nonpayable","type":"function"},{"inputs":[{"internalType":"address","name":"","type":"address"}],"name":"minters","outputs":[{"internalType":"bool","name":"","type":"bool"}],"stateMutability":"view","type":"function"},{"inputs":[],"name":"name","outputs":[{"internalType":"string","name":"","type":"string"}],"stateMutability":"view","type":"function"},{"inputs":[{"internalType":"address","name":"owner","type":"address"}],"name":"nonces","outputs":[{"internalType":"uint256","name":"","type":"uint256"}],"stateMutability":"view","type":"function"},{"inputs":[{"internalType":"address","name":"account","type":"address"}],"name":"numCheckpoints","outputs":[{"internalType":"uint32","name":"","type":"uint32"}],"stateMutability":"view","type":"function"},{"inputs":[],"name":"owner","outputs":[{"internalType":"address","name":"","type":"address"}],"stateMutability":"view","type":"function"},{"inputs":[],"name":"pause","outputs":[],"stateMutability":"nonpayable","type":"function"},{"inputs":[],"name":"paused","outputs":[{"internalType":"bool","name":"","type":"bool"}],"stateMutability":"view","type":"function"},{"inputs":[{"internalType":"address","name":"owner","type":"address"},{"internalType":"address","name":"spender","type":"address"},{"internalType":"uint256","name":"value","type":"uint256"},{"internalType":"uint256","name":"deadline","type":"uint256"},{"internalType":"uint8","name":"v","type":"uint8"},{"internalType":"bytes32","name":"r","type":"bytes32"},{"internalType":"bytes32","name":"s","type":"bytes32"}],"name":"permit","outputs":[],"stateMutability":"nonpayable","type":"function"},{"inputs":[{"internalType":"address","name":"minter","type":"address"}],"name":"removeMinter","outputs":[],"stateMutability":"nonpayable","type":"function"},{"inputs":[],"name":"renounceOwnership","outputs":[],"stateMutability":"nonpayable","type":"function"},{"inputs":[],"name":"stakingRewardsMinted","outputs":[{"internalType":"uint256","name":"","type":"uint256"}],"stateMutability":"view","type":"function"},{"inputs":[],"name":"symbol","outputs":[{"internalType":"string","name":"","type":"string"}],"stateMutability":"view","type":"function"},{"inputs":[],"name":"totalSupply","outputs":[{"internalType":"uint256","name":"","type":"uint256"}],"stateMutability":"view","type":"function"},{"inputs":[{"internalType":"address","name":"to","type":"address"},{"internalType":"uint256","name":"value","type":"uint256"}],"name":"transfer","outputs":[{"internalType":"bool","name":"","type":"bool"}],"stateMutability":"nonpayable","type":"function"},{"inputs":[{"internalType":"address","name":"from","type":"address"},{"internalType":"address","name":"to","type":"address"},{"internalType":"uint256","name":"value","type":"uint256"}],"name":"transferFrom","outputs":[{"internalType":"bool","name":"","type":"bool"}],"stateMutability":"nonpayable","type":"function"},{"inputs":[{"internalType":"address","name":"newOwner","type":"address"}],"name":"transferOwnership","outputs":[],"stateMutability":"nonpayable","type":"function"},{"inputs":[],"name":"unpause","outputs":[],"stateMutability":"nonpayable","type":"function"}],"evm":{"bytecode":{"linkReferences":{},"object":"6101606040523480156200001257600080fd5b50336040518060400160405280600881526020016723b932b821b7b4b760c11b81525080604051806040016040528060018152602001603160f81b8152506040518060400160405280600881526020016723b932b821b7b4b760c11b815250604051806040016040528060048152602001630475245560e41b81525081600390816200009f919062000a1c565b506004620000ae828262000a1c565b50620000c091508390506005620001c3565b61012052620000d1816006620001c3565b61014052815160208084019190912060e052815190820120610100524660a0526200015f60e05161010051604080517f8b73c3c69bb8fe3d512ecc4cf759cc79239f7b179b0ffacaa9a75d522b39400f60208201529081019290925260608201524660808201523060a082015260009060c00160405160208183030381529060405280519060200120905090565b60805250503060c052506001600160a01b0381166200019957604051631e4fbdf760e01b8152600060048201526024015b60405180910390fd5b620001a481620001fc565b50620001bd336b014adf4b7320334b900000006200024e565b62000bed565b6000602083511015620001e357620001db836200028c565b9050620001f6565b81620001f0848262000a1c565b5060ff90505b92915050565b600b80546001600160a01b038381166001600160a01b0319831681179093556040519116919082907f8be0079c531659141344cd1fd0a4f28419497f9722a3daafe3b4186f6b6457e090600090a35050565b6001600160a01b0382166200027a5760405163ec442f0560e01b81526000600482015260240162000190565b6200028860008383620002cf565b5050565b600080829050601f81511115620002ba578260405163305a27a960e01b815260040162000190919062000ae8565b8051620002c78262000b39565b179392505050565b620002d9620002eb565b620002e683838362000320565b505050565b620002ff600b54600160a01b900460ff1690565b156200031e5760405163d93c066560e01b815260040160405180910390fd5b565b6200032d8383836200038f565b6001600160a01b038316620003825760006200034860025490565b90506001600160d01b03808211156200037f57604051630e58ae9360e11b8152600481018390526024810182905260440162000190565b50505b620002e6838383620004c2565b6001600160a01b038316620003be578060026000828254620003b2919062000b74565b90915550620004329050565b6001600160a01b03831660009081526020819052604090205481811015620004135760405163391434e360e21b81526001600160a01b0385166004820152602481018290526044810183905260640162000190565b6001600160a01b03841660009081526020819052604090209082900390555b6001600160a01b03821662000450576002805482900390556200046f565b6001600160a01b03821660009081526020819052604090208054820190555b816001600160a01b0316836001600160a01b03167fddf252ad1be2c89b69c2b068fc378daa952ba7f163c4a11628f55a4df523b3ef83604051620004b591815260200190565b60405180910390a3505050565b6001600160a01b038316620004f757620004f4600a6200118d6200055a60201b17620004ee846200056f565b620005a9565b50505b6001600160a01b038216620005265762000523600a62001199620005e660201b17620004ee846200056f565b50505b6001600160a01b03838116600090815260086020526040808220548584168352912054620002e692918216911683620005f4565b600062000568828462000b8a565b9392505050565b60006001600160d01b03821115620005a5576040516306dfcc6560e41b815260d060048201526024810183905260440162000190565b5090565b600080620005d9620005ba6200075b565b620005d0620005c9886200076c565b868860201c565b879190620007bb565b915091505b935093915050565b600062000568828462000bb4565b816001600160a01b0316836001600160a01b031614158015620006175750600081115b15620002e6576001600160a01b03831615620006ba576001600160a01b038316600090815260096020908152604082208291620006659190620005e6901b6200119917620004ee866200056f565b6001600160d01b031691506001600160d01b03169150846001600160a01b0316600080516020620035b78339815191528383604051620006af929190918252602082015260400190565b60405180910390a250505b6001600160a01b03821615620002e6576001600160a01b0382166000908152600960209081526040822082916200070291906200055a901b6200118d17620004ee866200056f565b6001600160d01b031691506001600160d01b03169150836001600160a01b0316600080516020620035b783398151915283836040516200074c929190918252602082015260400190565b60405180910390a25050505050565b600062000767620007cb565b905090565b80546000908015620007b25762000798836200078a60018462000bd7565b600091825260209091200190565b54660100000000000090046001600160d01b031662000568565b60009392505050565b600080620005d9858585620007d8565b6000620007674362000941565b825460009081908015620008e2576000620007fa876200078a60018562000bd7565b805490915065ffffffffffff80821691660100000000000090046001600160d01b03169088168211156200084157604051632520601d60e01b815260040160405180910390fd5b8765ffffffffffff168265ffffffffffff16036200087f57825465ffffffffffff1666010000000000006001600160d01b03891602178355620008d3565b6040805180820190915265ffffffffffff808a1682526001600160d01b03808a1660208085019182528d54600181018f5560008f815291909120945191519092166601000000000000029216919091179101555b9450859350620005de92505050565b50506040805180820190915265ffffffffffff80851682526001600160d01b0380851660208085019182528854600181018a5560008a8152918220955192519093166601000000000000029190931617920191909155905081620005de565b600065ffffffffffff821115620005a5576040516306dfcc6560e41b8152603060048201526024810183905260440162000190565b634e487b7160e01b600052604160045260246000fd5b600181811c90821680620009a157607f821691505b602082108103620009c257634e487b7160e01b600052602260045260246000fd5b50919050565b601f821115620002e6576000816000526020600020601f850160051c81016020861015620009f35750805b601f850160051c820191505b8181101562000a1457828155600101620009ff565b505050505050565b81516001600160401b0381111562000a385762000a3862000976565b62000a508162000a4984546200098c565b84620009c8565b602080601f83116001811462000a88576000841562000a6f5750858301515b600019600386901b1c1916600185901b17855562000a14565b600085815260208120601f198616915b8281101562000ab95788860151825594840194600190910190840162000a98565b508582101562000ad85787850151600019600388901b60f8161c191681555b5050505050600190811b01905550565b60006020808352835180602085015260005b8181101562000b185785810183015185820160400152820162000afa565b506000604082860101526040601f19601f8301168501019250505092915050565b80516020808301519190811015620009c25760001960209190910360031b1b16919050565b634e487b7160e01b600052601160045260246000fd5b80820180821115620001f657620001f662000b5e565b6001600160d01b0381811683821601908082111562000bad5762000bad62000b5e565b5092915050565b6001600160d01b0382811682821603908082111562000bad5762000bad62000b5e565b81810381811115620001f657620001f662000b5e565b60805160a05160c05160e05161010051610120516101405161296f62000c4860003960006117390152600061170c015260006113d2015260006113aa015260006113050152600061132f01526000611359015261296f6000f3fe608060405234801561001057600080fd5b506004361061027f5760003560e01c806379cc67901161015c5780639e1ab91d116100ce578063edc56cf511610087578063edc56cf5146105c2578063f1127ed8146105d4578063f2fde38b14610613578063f46eccc414610626578063f82c29ae14610649578063fdd7c4021461065c57600080fd5b80639e1ab91d14610535578063a9059cbb1461053e578063c3cda52014610551578063d3ff1c3b14610564578063d505accf14610576578063dd62ed3e1461058957600080fd5b80638da5cb5b116101205780638da5cb5b146104c45780638e539e8c146104d557806391ddadf4146104e857806395d89b4114610507578063983b2d561461050f5780639ab24eb01461052257600080fd5b806379cc6790146104725780637ecebe00146104855780638456cb591461049857806384b0196e146104a05780638a1e5601146104bb57600080fd5b80633f4ba83a116101f55780635c975abb116101b95780635c975abb146103d25780636f97e31c146103e45780636fcfff451461040757806370a082311461042f578063715018a6146104585780637664ce121461046057600080fd5b80633f4ba83a1461035857806342966c68146103605780634bf5d7e914610373578063587cde1e1461037b5780635c19a95c146103bf57600080fd5b8063283fd37b11610247578063283fd37b146102ff5780633092afd514610308578063313ce5671461031b57806332cb6b0c1461032a5780633644e5151461033d5780633a46b1a81461034557600080fd5b80630194a7ca1461028457806306fdde0314610299578063095ea7b3146102b757806318160ddd146102da57806323b872dd146102ec575b600080fd5b61029761029236600461247d565b61066f565b005b6102a1610812565b6040516102ae91906124ed565b60405180910390f35b6102ca6102c536600461247d565b6108a4565b60405190151581526020016102ae565b6002545b6040519081526020016102ae565b6102ca6102fa366004612500565b6108be565b6102de600e5481565b61029761031636600461253c565b6108e2565b604051601281526020016102ae565b6102de6b033b2e3c9fd0803ce800000081565b6102de610933565b6102de61035336600461247d565b610942565b61029761097e565b61029761036e366004612557565b610990565b6102a161099d565b6103a761038936600461253c565b6001600160a01b039081166000908152600860205260409020541690565b6040516001600160a01b0390911681526020016102ae565b6102976103cd36600461253c565b610a15565b600b54600160a01b900460ff166102ca565b6103ec610a24565b604080519384526020840192909252908201526060016102ae565b61041a61041536600461253c565b610a7f565b60405163ffffffff90911681526020016102ae565b6102de61043d36600461253c565b6001600160a01b031660009081526020819052604090205490565b610297610a8a565b6102de6aa56fa5b99019a5c800000081565b61029761048036600461247d565b610a9c565b6102de61049336600461253c565b610ab1565b610297610abc565b6104a8610acc565b6040516102ae9796959493929190612570565b6102de600d5481565b600b546001600160a01b03166103a7565b6102de6104e3366004612557565b610b12565b6104f0610b37565b60405165ffffffffffff90911681526020016102ae565b6102a1610b41565b61029761051d36600461253c565b610b50565b6102de61053036600461253c565b610bf3565b6102de600f5481565b6102ca61054c36600461247d565b610c14565b61029761055f36600461261a565b610c22565b6102de6a52b7d2dcc80cd2e400000081565b610297610584366004612672565b610cdf565b6102de6105973660046126dc565b6001600160a01b03918216600090815260016020908152604080832093909416825291909152205490565b6102de6af8277896582678ac00000081565b6105e76105e236600461270f565b610e19565b60408051825165ffffffffffff1681526020928301516001600160d01b031692810192909252016102ae565b61029761062136600461253c565b610e3e565b6102ca61063436600461253c565b600c6020526000908152604090205460ff1681565b61029761065736600461247d565b610e79565b61029761066a36600461247d565b611007565b336000908152600c602052604090205460ff16806106975750600b546001600160a01b031633145b6106bc5760405162461bcd60e51b81526004016106b39061274f565b60405180910390fd5b6001600160a01b0382166106e25760405162461bcd60e51b81526004016106b39061277f565b600081116107025760405162461bcd60e51b81526004016106b3906127b6565b6af8277896582678ac00000081600d5461071c9190612801565b111561076a5760405162461bcd60e51b815260206004820152601c60248201527f5374616b696e672072657761726473206361702065786365656465640000000060448201526064016106b3565b6b033b2e3c9fd0803ce80000008161078160025490565b61078b9190612801565b11156107a95760405162461bcd60e51b81526004016106b390612814565b80600d60008282546107bb9190612801565b909155506107cb905082826111a5565b816001600160a01b03167f84065b24c0c720f66ae9be3e0b0de201cac7c5ce0ea04c8bc34c3f2e1fc95ba48260405161080691815260200190565b60405180910390a25050565b60606003805461082190612841565b80601f016020809104026020016040519081016040528092919081815260200182805461084d90612841565b801561089a5780601f1061086f5761010080835404028352916020019161089a565b820191906000526020600020905b81548152906001019060200180831161087d57829003601f168201915b5050505050905090565b6000336108b28185856111db565b60019150505b92915050565b6000336108cc8582856111ed565b6108d785858561126c565b506001949350505050565b6108ea6112cb565b6001600160a01b0381166000818152600c6020526040808220805460ff19169055517fe94479a9f7e1952cc78f2d6baab678adc1b772d936c6583def489e524cb666929190a250565b600061093d6112f8565b905090565b600061096e61095083611423565b6001600160a01b038516600090815260096020526040902090611472565b6001600160d01b03169392505050565b6109866112cb565b61098e611528565b565b61099a338261157d565b50565b60606109a76115b3565b65ffffffffffff166109b7610b37565b65ffffffffffff16146109dd576040516301bfc1c560e61b815260040160405180910390fd5b5060408051808201909152601d81527f6d6f64653d626c6f636b6e756d6265722666726f6d3d64656661756c74000000602082015290565b33610a2081836115be565b5050565b6000806000600d546af8277896582678ac000000610a42919061287b565b9250600e546aa56fa5b99019a5c8000000610a5d919061287b565b9150600f546a52b7d2dcc80cd2e4000000610a78919061287b565b9050909192565b60006108b882611630565b610a926112cb565b61098e6000611652565b610aa78233836111ed565b610a20828261157d565b60006108b8826116a4565b610ac46112cb565b61098e6116c2565b600060608060008060006060610ae0611705565b610ae8611732565b60408051600080825260208201909252600f60f81b9b939a50919850469750309650945092509050565b6000610b28610b2083611423565b600a90611472565b6001600160d01b031692915050565b600061093d6115b3565b60606004805461082190612841565b610b586112cb565b6001600160a01b038116610ba75760405162461bcd60e51b8152602060048201526016602482015275496e76616c6964206d696e746572206164647265737360501b60448201526064016106b3565b6001600160a01b0381166000818152600c6020526040808220805460ff19166001179055517f6ae172837ea30b801fbfcdd4108aa1d5bf8ff775444fd70256b44e6bf3dfc3f69190a250565b6001600160a01b0381166000908152600960205260408120610b289061175f565b6000336108b281858561126c565b83421115610c4657604051632341d78760e11b8152600481018590526024016106b3565b604080517fe48329057bfd03d55e49b547132e39cffd9c1820ad7b9d4c5307691425d15adf60208201526001600160a01b038816918101919091526060810186905260808101859052600090610cc090610cb89060a00160405160208183030381529060405280519060200120611798565b8585856117c5565b9050610ccc81876117f3565b610cd681886115be565b50505050505050565b83421115610d035760405163313c898160e11b8152600481018590526024016106b3565b60007f6e71edae12b1b97f4d1f60370fef10105fa2faae0126114a169c64845d6126c9888888610d508c6001600160a01b0316600090815260076020526040902080546001810190915590565b6040805160208101969096526001600160a01b0394851690860152929091166060840152608083015260a082015260c0810186905260e0016040516020818303038152906040528051906020012090506000610dab82611798565b90506000610dbb828787876117c5565b9050896001600160a01b0316816001600160a01b031614610e02576040516325c0072360e11b81526001600160a01b0380831660048301528b1660248201526044016106b3565b610e0d8a8a8a6111db565b50505050505050505050565b6040805180820190915260008082526020820152610e378383611846565b9392505050565b610e466112cb565b6001600160a01b038116610e7057604051631e4fbdf760e01b8152600060048201526024016106b3565b61099a81611652565b336000908152600c602052604090205460ff1680610ea15750600b546001600160a01b031633145b610ebd5760405162461bcd60e51b81526004016106b39061274f565b6001600160a01b038216610ee35760405162461bcd60e51b81526004016106b39061277f565b60008111610f035760405162461bcd60e51b81526004016106b3906127b6565b6aa56fa5b99019a5c800000081600e54610f1d9190612801565b1115610f6b5760405162461bcd60e51b815260206004820152601d60248201527f47616d65706c617920726577617264732063617020657863656564656400000060448201526064016106b3565b6b033b2e3c9fd0803ce800000081610f8260025490565b610f8c9190612801565b1115610faa5760405162461bcd60e51b81526004016106b390612814565b80600e6000828254610fbc9190612801565b90915550610fcc905082826111a5565b816001600160a01b03167f785744576493a526087542942e96639e7eb10c5b6f11f54b5399815751eabf298260405161080691815260200190565b336000908152600c602052604090205460ff168061102f5750600b546001600160a01b031633145b61104b5760405162461bcd60e51b81526004016106b39061274f565b6001600160a01b0382166110715760405162461bcd60e51b81526004016106b39061277f565b600081116110915760405162461bcd60e51b81526004016106b3906127b6565b6a52b7d2dcc80cd2e400000081600f546110ab9190612801565b11156110f15760405162461bcd60e51b8152602060048201526015602482015274105a5c991c9bdc1cc818d85c08195e18d959591959605a1b60448201526064016106b3565b6b033b2e3c9fd0803ce80000008161110860025490565b6111129190612801565b11156111305760405162461bcd60e51b81526004016106b390612814565b80600f60008282546111429190612801565b90915550611152905082826111a5565b816001600160a01b03167fef1585cd9743b170e77a247f0c35cd842dbb8b59cb1981becbc26f7ec1a7fc568260405161080691815260200190565b6000610e37828461288e565b6000610e3782846128b5565b6001600160a01b0382166111cf5760405163ec442f0560e01b8152600060048201526024016106b3565b610a206000838361187c565b6111e8838383600161188f565b505050565b6001600160a01b03838116600090815260016020908152604080832093861683529290522054600019811015611266578181101561125757604051637dc7a0d960e11b81526001600160a01b038416600482015260248101829052604481018390526064016106b3565b6112668484848403600061188f565b50505050565b6001600160a01b03831661129657604051634b637e8f60e11b8152600060048201526024016106b3565b6001600160a01b0382166112c05760405163ec442f0560e01b8152600060048201526024016106b3565b6111e883838361187c565b600b546001600160a01b0316331461098e5760405163118cdaa760e01b81523360048201526024016106b3565b6000306001600160a01b037f00000000000000000000000000000000000000000000000000000000000000001614801561135157507f000000000000000000000000000000000000000000000000000000000000000046145b1561137b57507f000000000000000000000000000000000000000000000000000000000000000090565b61093d604080517f8b73c3c69bb8fe3d512ecc4cf759cc79239f7b179b0ffacaa9a75d522b39400f60208201527f0000000000000000000000000000000000000000000000000000000000000000918101919091527f000000000000000000000000000000000000000000000000000000000000000060608201524660808201523060a082015260009060c00160405160208183030381529060405280519060200120905090565b60008061142e610b37565b90508065ffffffffffff16831061146957604051637669fc0f60e11b81526004810184905265ffffffffffff821660248201526044016106b3565b610e3783611964565b8154600090818160058111156114d157600061148d8461199b565b611497908561287b565b60008881526020902090915081015465ffffffffffff90811690871610156114c1578091506114cf565b6114cc816001612801565b92505b505b60006114df87878585611af4565b9050801561151a57611504876114f660018461287b565b600091825260209091200190565b54600160301b90046001600160d01b031661151d565b60005b979650505050505050565b611530611b56565b600b805460ff60a01b191690557f5db9ee0a495bf2e6ff9c91a7834c1ba4fdd244a5e8aa4e537bd38aeae4b073aa335b6040516001600160a01b03909116815260200160405180910390a1565b6001600160a01b0382166115a757604051634b637e8f60e11b8152600060048201526024016106b3565b610a208260008361187c565b600061093d43611964565b6001600160a01b0382811660008181526008602052604080822080548686166001600160a01b0319821681179092559151919094169392849290917f3134e8a2e6d97e929a7e54011ea5485d7d196dd5f0ba4d4ef95803e8e3fc257f9190a46111e8818361162b86611b80565b611b9e565b6001600160a01b0381166000908152600960205260408120546108b890611d0a565b600b80546001600160a01b038381166001600160a01b0319831681179093556040519116919082907f8be0079c531659141344cd1fd0a4f28419497f9722a3daafe3b4186f6b6457e090600090a35050565b6001600160a01b0381166000908152600760205260408120546108b8565b6116ca611d3b565b600b805460ff60a01b1916600160a01b1790557f62e78cea01bee320cd4e420270b5ea74000d11b0c9f74754ebdbfc544b05a2586115603390565b606061093d7f00000000000000000000000000000000000000000000000000000000000000006005611d66565b606061093d7f00000000000000000000000000000000000000000000000000000000000000006006611d66565b8054600090801561178f57611779836114f660018461287b565b54600160301b90046001600160d01b0316610e37565b60009392505050565b60006108b86117a56112f8565b8360405161190160f01b8152600281019290925260228201526042902090565b6000806000806117d788888888611e11565b9250925092506117e78282611ee0565b50909695505050505050565b6001600160a01b03821660009081526007602052604090208054600181019091558181146111e8576040516301d4b62360e61b81526001600160a01b0384166004820152602481018290526044016106b3565b60408051808201909152600080825260208201526001600160a01b0383166000908152600960205260409020610e379083611f99565b611884611d3b565b6111e8838383612009565b6001600160a01b0384166118b95760405163e602df0560e01b8152600060048201526024016106b3565b6001600160a01b0383166118e357604051634a1406b160e11b8152600060048201526024016106b3565b6001600160a01b038085166000908152600160209081526040808320938716835292905220829055801561126657826001600160a01b0316846001600160a01b03167f8c5be1e5ebec7d5bd14f71427d1e84f3dd0314c0f7b2291e5b200ac8c7c3b9258460405161195691815260200190565b60405180910390a350505050565b600065ffffffffffff821115611997576040516306dfcc6560e41b815260306004820152602481018390526044016106b3565b5090565b6000600182116119a9575090565b816001600160801b82106119c25760809190911c9060401b5b6801000000000000000082106119dd5760409190911c9060201b5b64010000000082106119f45760209190911c9060101b5b620100008210611a095760109190911c9060081b5b6101008210611a1d5760089190911c9060041b5b60108210611a305760049190911c9060021b5b60048210611a3c5760011b5b600302600190811c90818581611a5457611a546128d5565b048201901c90506001818581611a6c57611a6c6128d5565b048201901c90506001818581611a8457611a846128d5565b048201901c90506001818581611a9c57611a9c6128d5565b048201901c90506001818581611ab457611ab46128d5565b048201901c90506001818581611acc57611acc6128d5565b048201901c9050611aeb818581611ae557611ae56128d5565b04821190565b90039392505050565b60005b81831015611b4e576000611b0b8484612070565b60008781526020902090915065ffffffffffff86169082015465ffffffffffff161115611b3a57809250611b48565b611b45816001612801565b93505b50611af7565b509392505050565b600b54600160a01b900460ff1661098e57604051638dfc202b60e01b815260040160405180910390fd5b6001600160a01b0381166000908152602081905260408120546108b8565b816001600160a01b0316836001600160a01b031614158015611bc05750600081115b156111e8576001600160a01b03831615611c68576001600160a01b03831660009081526009602052604081208190611c0390611199611bfe8661208b565b6120bf565b6001600160d01b031691506001600160d01b03169150846001600160a01b03167fdec2bacdd2f05b59de34da9b523dff8be42e5e38e818c82fdb0bae774387a7248383604051611c5d929190918252602082015260400190565b60405180910390a250505b6001600160a01b038216156111e8576001600160a01b03821660009081526009602052604081208190611ca19061118d611bfe8661208b565b6001600160d01b031691506001600160d01b03169150836001600160a01b03167fdec2bacdd2f05b59de34da9b523dff8be42e5e38e818c82fdb0bae774387a7248383604051611cfb929190918252602082015260400190565b60405180910390a25050505050565b600063ffffffff821115611997576040516306dfcc6560e41b815260206004820152602481018390526044016106b3565b600b54600160a01b900460ff161561098e5760405163d93c066560e01b815260040160405180910390fd5b606060ff8314611d8057611d79836120f8565b90506108b8565b818054611d8c90612841565b80601f0160208091040260200160405190810160405280929190818152602001828054611db890612841565b8015611e055780601f10611dda57610100808354040283529160200191611e05565b820191906000526020600020905b815481529060010190602001808311611de857829003601f168201915b505050505090506108b8565b600080807f7fffffffffffffffffffffffffffffff5d576e7357a4501ddfe92f46681b20a0841115611e4c5750600091506003905082611ed6565b604080516000808252602082018084528a905260ff891692820192909252606081018790526080810186905260019060a0016020604051602081039080840390855afa158015611ea0573d6000803e3d6000fd5b5050604051601f1901519150506001600160a01b038116611ecc57506000925060019150829050611ed6565b9250600091508190505b9450945094915050565b6000826003811115611ef457611ef46128eb565b03611efd575050565b6001826003811115611f1157611f116128eb565b03611f2f5760405163f645eedf60e01b815260040160405180910390fd5b6002826003811115611f4357611f436128eb565b03611f645760405163fce698f760e01b8152600481018290526024016106b3565b6003826003811115611f7857611f786128eb565b03610a20576040516335e2f38360e21b8152600481018290526024016106b3565b6040805180820190915260008082526020820152826000018263ffffffff1681548110611fc857611fc8612901565b60009182526020918290206040805180820190915291015465ffffffffffff81168252600160301b90046001600160d01b0316918101919091529392505050565b612014838383612137565b6001600160a01b03831661206557600061202d60025490565b90506001600160d01b038082111561206257604051630e58ae9360e11b815260048101839052602481018290526044016106b3565b50505b6111e8838383612261565b600061207f6002848418612917565b610e3790848416612801565b60006001600160d01b03821115611997576040516306dfcc6560e41b815260d06004820152602481018390526044016106b3565b6000806120eb6120cd610b37565b6120e36120d98861175f565b868863ffffffff16565b8791906122d7565b915091505b935093915050565b60606000612105836122e5565b604080516020808252818301909252919250600091906020820181803683375050509182525060208101929092525090565b6001600160a01b0383166121625780600260008282546121579190612801565b909155506121d49050565b6001600160a01b038316600090815260208190526040902054818110156121b55760405163391434e360e21b81526001600160a01b038516600482015260248101829052604481018390526064016106b3565b6001600160a01b03841660009081526020819052604090209082900390555b6001600160a01b0382166121f05760028054829003905561220f565b6001600160a01b03821660009081526020819052604090208054820190555b816001600160a01b0316836001600160a01b03167fddf252ad1be2c89b69c2b068fc378daa952ba7f163c4a11628f55a4df523b3ef8360405161225491815260200190565b60405180910390a3505050565b6001600160a01b03831661228357612280600a61118d611bfe8461208b565b50505b6001600160a01b0382166122a5576122a2600a611199611bfe8461208b565b50505b6001600160a01b038381166000908152600860205260408082205485841683529120546111e892918216911683611b9e565b6000806120eb85858561230d565b600060ff8216601f8111156108b857604051632cd44ac360e21b815260040160405180910390fd5b82546000908190801561240657600061232b876114f660018561287b565b805490915065ffffffffffff80821691600160301b90046001600160d01b031690881682111561236e57604051632520601d60e01b815260040160405180910390fd5b8765ffffffffffff168265ffffffffffff16036123a757825465ffffffffffff16600160301b6001600160d01b038916021783556123f8565b6040805180820190915265ffffffffffff808a1682526001600160d01b03808a1660208085019182528d54600181018f5560008f81529190912094519151909216600160301b029216919091179101555b94508593506120f092505050565b50506040805180820190915265ffffffffffff80851682526001600160d01b0380851660208085019182528854600181018a5560008a815291822095519251909316600160301b0291909316179201919091559050816120f0565b80356001600160a01b038116811461247857600080fd5b919050565b6000806040838503121561249057600080fd5b61249983612461565b946020939093013593505050565b6000815180845260005b818110156124cd576020818501810151868301820152016124b1565b506000602082860101526020601f19601f83011685010191505092915050565b602081526000610e3760208301846124a7565b60008060006060848603121561251557600080fd5b61251e84612461565b925061252c60208501612461565b9150604084013590509250925092565b60006020828403121561254e57600080fd5b610e3782612461565b60006020828403121561256957600080fd5b5035919050565b60ff60f81b881681526000602060e0602084015261259160e084018a6124a7565b83810360408501526125a3818a6124a7565b606085018990526001600160a01b038816608086015260a0850187905284810360c08601528551808252602080880193509091019060005b818110156125f7578351835292840192918401916001016125db565b50909c9b505050505050505050505050565b803560ff8116811461247857600080fd5b60008060008060008060c0878903121561263357600080fd5b61263c87612461565b9550602087013594506040870135935061265860608801612609565b92506080870135915060a087013590509295509295509295565b600080600080600080600060e0888a03121561268d57600080fd5b61269688612461565b96506126a460208901612461565b955060408801359450606088013593506126c060808901612609565b925060a0880135915060c0880135905092959891949750929550565b600080604083850312156126ef57600080fd5b6126f883612461565b915061270660208401612461565b90509250929050565b6000806040838503121561272257600080fd5b61272b83612461565b9150602083013563ffffffff8116811461274457600080fd5b809150509250929050565b602080825260169082015275139bdd08185d5d1a1bdc9a5e9959081d1bc81b5a5b9d60521b604082015260600190565b6020808252601b908201527f43616e6e6f74206d696e7420746f207a65726f20616464726573730000000000604082015260600190565b6020808252818101527f416d6f756e74206d7573742062652067726561746572207468616e207a65726f604082015260600190565b634e487b7160e01b600052601160045260246000fd5b808201808211156108b8576108b86127eb565b60208082526013908201527213585e081cdd5c1c1b1e48195e18d959591959606a1b604082015260600190565b600181811c9082168061285557607f821691505b60208210810361287557634e487b7160e01b600052602260045260246000fd5b50919050565b818103818111156108b8576108b86127eb565b6001600160d01b038181168382160190808211156128ae576128ae6127eb565b5092915050565b6001600160d01b038281168282160390808211156128ae576128ae6127eb565b634e487b7160e01b600052601260045260246000fd5b634e487b7160e01b600052602160045260246000fd5b634e487b7160e01b600052603260045260246000fd5b60008261293457634e487b7160e01b600052601260045260246000fd5b50049056fea264697066735822122032a0142bbfbbcd8dac17b2a779e097047faf775b0e93c7bf41f32f71b0c6f3a364736f6c63430008180033dec2bacdd2f05b59de34da9b523dff8be42e5e38e818c82fdb0bae774387a724","opcodes":"PUSH2 0x160 PUSH1 0x40 MSTORE CALLVALUE DUP1 ISZERO PUSH3 0x12 JUMPI PUSH1 0x0 DUP1 REVERT JUMPDEST POP CALLER PUSH1 0x40 MLOAD DUP1 PUSH1 0x40 ADD PUSH1 0x40 MSTORE DUP1 PUSH1 0x8 DUP2 MSTORE PUSH1 0x20 ADD PUSH8 0x23B932B821B7B4B7 PUSH1 0xC1 SHL DUP2 MSTORE POP DUP1 PUSH1 0x40 MLOAD DUP1 PUSH1 0x40 ADD PUSH1 0x40 MSTORE DUP1 PUSH1 0x1 DUP2 MSTORE PUSH1 0x20 ADD PUSH1 0x31 PUSH1 0xF8 SHL DUP2 MSTORE POP PUSH1 0x40 MLOAD DUP1 PUSH1 0x40 ADD PUSH1 0x40 MSTORE DUP1 PUSH1 0x8 DUP2 MSTORE PUSH1 0x20 ADD PUSH8 0x23B932B821B7B4B7 PUSH1 0xC1 SHL DUP2 MSTORE POP PUSH1 0x40 MLOAD DUP1 PUSH1 0x40 ADD PUSH1 0x40 MSTORE DUP1 PUSH1 0x4 DUP2 MSTORE PUSH1 0x20 ADD PUSH4 0x4752455 PUSH1 0xE4 SHL DUP2 MSTORE POP DUP2 PUSH1 0x3 SWAP1 DUP2 PUSH3 0x9F SWAP2 SWAP1 PUSH3 0xA1C JUMP JUMPDEST POP PUSH1 0x4 PUSH3 0xAE DUP3 DUP3 PUSH3 0xA1C JUMP JUMPDEST POP PUSH3 0xC0 SWAP2 POP DUP4 SWAP1 POP PUSH1 0x5 PUSH3 0x1C3 JUMP JUMPDEST PUSH2 0x120 MSTORE PUSH3 0xD1 DUP2 PUSH1 0x6 PUSH3 0x1C3 JUMP JUMPDEST PUSH2 0x140 MSTORE DUP2 MLOAD PUSH1 0x20 DUP1 DUP5 ADD SWAP2 SWAP1 SWAP2 KECCAK256 PUSH1 0xE0 MSTORE DUP2 MLOAD SWAP1 DUP3 ADD KECCAK256 PUSH2 0x100 MSTORE CHAINID PUSH1 0xA0 MSTORE PUSH3 0x15F PUSH1 0xE0 MLOAD PUSH2 0x100 MLOAD PUSH1 0x40 DUP1 MLOAD PUSH32 0x8B73C3C69BB8FE3D512ECC4CF759CC79239F7B179B0FFACAA9A75D522B39400F PUSH1 0x20 DUP3 ADD MSTORE SWAP1 DUP2 ADD SWAP3 SWAP1 SWAP3 MSTORE PUSH1 0x60 DUP3 ADD MSTORE CHAINID PUSH1 0x80 DUP3 ADD MSTORE ADDRESS PUSH1 0xA0 DUP3 ADD MSTORE PUSH1 0x0 SWAP1 PUSH1 0xC0 ADD PUSH1 0x40 MLOAD PUSH1 0x20 DUP2 DUP4 SUB SUB DUP2 MSTORE SWAP1 PUSH1 0x40 MSTORE DUP1 MLOAD SWAP1 PUSH1 0x20 ADD KECCAK256 SWAP1 POP SWAP1 JUMP JUMPDEST PUSH1 0x80 MSTORE POP POP ADDRESS PUSH1 0xC0 MSTORE POP PUSH1 0x1 PUSH1 0x1 PUSH1 0xA0 SHL SUB DUP2 AND PUSH3 0x199 JUMPI PUSH1 0x40 MLOAD PUSH4 0x1E4FBDF7 PUSH1 0xE0 SHL DUP2 MSTORE PUSH1 0x0 PUSH1 0x4 DUP3 ADD MSTORE PUSH1 0x24 ADD JUMPDEST PUSH1 0x40 MLOAD DUP1 SWAP2 SUB SWAP1 REVERT JUMPDEST PUSH3 0x1A4 DUP2 PUSH3 0x1FC JUMP JUMPDEST POP PUSH3 0x1BD CALLER PUSH12 0x14ADF4B7320334B90000000 PUSH3 0x24E JUMP JUMPDEST PUSH3 0xBED JUMP JUMPDEST PUSH1 0x0 PUSH1 0x20 DUP4 MLOAD LT ISZERO PUSH3 0x1E3 JUMPI PUSH3 0x1DB DUP4 PUSH3 0x28C JUMP JUMPDEST SWAP1 POP PUSH3 0x1F6 JUMP JUMPDEST DUP2 PUSH3 0x1F0 DUP5 DUP3 PUSH3 0xA1C JUMP JUMPDEST POP PUSH1 0xFF SWAP1 POP JUMPDEST SWAP3 SWAP2 POP POP JUMP JUMPDEST PUSH1 0xB DUP1 SLOAD PUSH1 0x1 PUSH1 0x1 PUSH1 0xA0 SHL SUB DUP4 DUP2 AND PUSH1 0x1 PUSH1 0x1 PUSH1 0xA0 SHL SUB NOT DUP4 AND DUP2 OR SWAP1 SWAP4 SSTORE PUSH1 0x40 MLOAD SWAP2 AND SWAP2 SWAP1 DUP3 SWAP1 PUSH32 0x8BE0079C531659141344CD1FD0A4F28419497F9722A3DAAFE3B4186F6B6457E0 SWAP1 PUSH1 0x0 SWAP1 LOG3 POP POP JUMP JUMPDEST PUSH1 0x1 PUSH1 0x1 PUSH1 0xA0 SHL SUB DUP3 AND PUSH3 0x27A JUMPI PUSH1 0x40 MLOAD PUSH4 0xEC442F05 PUSH1 0xE0 SHL DUP2 MSTORE PUSH1 0x0 PUSH1 0x4 DUP3 ADD MSTORE PUSH1 0x24 ADD PUSH3 0x190 JUMP JUMPDEST PUSH3 0x288 PUSH1 0x0 DUP4 DUP4 PUSH3 0x2CF JUMP JUMPDEST POP POP JUMP JUMPDEST PUSH1 0x0 DUP1 DUP3 SWAP1 POP PUSH1 0x1F DUP2 MLOAD GT ISZERO PUSH3 0x2BA JUMPI DUP3 PUSH1 0x40 MLOAD PUSH4 0x305A27A9 PUSH1 0xE0 SHL DUP2 MSTORE PUSH1 0x4 ADD PUSH3 0x190 SWAP2 SWAP1 PUSH3 0xAE8 JUMP JUMPDEST DUP1 MLOAD PUSH3 0x2C7 DUP3 PUSH3 0xB39 JUMP JUMPDEST OR SWAP4 SWAP3 POP POP POP JUMP JUMPDEST PUSH3 0x2D9 PUSH3 0x2EB JUMP JUMPDEST PUSH3 0x2E6 DUP4 DUP4 DUP4 PUSH3 0x320 JUMP JUMPDEST POP POP POP JUMP JUMPDEST PUSH3 0x2FF PUSH1 0xB SLOAD PUSH1 0x1 PUSH1 0xA0 SHL SWAP1 DIV PUSH1 0xFF AND SWAP1 JUMP JUMPDEST ISZERO PUSH3 0x31E JUMPI PUSH1 0x40 MLOAD PUSH4 0xD93C0665 PUSH1 0xE0 SHL DUP2 MSTORE PUSH1 0x4 ADD PUSH1 0x40 MLOAD DUP1 SWAP2 SUB SWAP1 REVERT JUMPDEST JUMP JUMPDEST PUSH3 0x32D DUP4 DUP4 DUP4 PUSH3 0x38F JUMP JUMPDEST PUSH1 0x1 PUSH1 0x1 PUSH1 0xA0 SHL SUB DUP4 AND PUSH3 0x382 JUMPI PUSH1 0x0 PUSH3 0x348 PUSH1 0x2 SLOAD SWAP1 JUMP JUMPDEST SWAP1 POP PUSH1 0x1 PUSH1 0x1 PUSH1 0xD0 SHL SUB DUP1 DUP3 GT ISZERO PUSH3 0x37F JUMPI PUSH1 0x40 MLOAD PUSH4 0xE58AE93 PUSH1 0xE1 SHL DUP2 MSTORE PUSH1 0x4 DUP2 ADD DUP4 SWAP1 MSTORE PUSH1 0x24 DUP2 ADD DUP3 SWAP1 MSTORE PUSH1 0x44 ADD PUSH3 0x190 JUMP JUMPDEST POP POP JUMPDEST PUSH3 0x2E6 DUP4 DUP4 DUP4 PUSH3 0x4C2 JUMP JUMPDEST PUSH1 0x1 PUSH1 0x1 PUSH1 0xA0 SHL SUB DUP4 AND PUSH3 0x3BE JUMPI DUP1 PUSH1 0x2 PUSH1 0x0 DUP3 DUP3 SLOAD PUSH3 0x3B2 SWAP2 SWAP1 PUSH3 0xB74 JUMP JUMPDEST SWAP1 SWAP2 SSTORE POP PUSH3 0x432 SWAP1 POP JUMP JUMPDEST PUSH1 0x1 PUSH1 0x1 PUSH1 0xA0 SHL SUB DUP4 AND PUSH1 0x0 SWAP1 DUP2 MSTORE PUSH1 0x20 DUP2 SWAP1 MSTORE PUSH1 0x40 SWAP1 KECCAK256 SLOAD DUP2 DUP2 LT ISZERO PUSH3 0x413 JUMPI PUSH1 0x40 MLOAD PUSH4 0x391434E3 PUSH1 0xE2 SHL DUP2 MSTORE PUSH1 0x1 PUSH1 0x1 PUSH1 0xA0 SHL SUB DUP6 AND PUSH1 0x4 DUP3 ADD MSTORE PUSH1 0x24 DUP2 ADD DUP3 SWAP1 MSTORE PUSH1 0x44 DUP2 ADD DUP4 SWAP1 MSTORE PUSH1 0x64 ADD PUSH3 0x190 JUMP JUMPDEST PUSH1 0x1 PUSH1 0x1 PUSH1 0xA0 SHL SUB DUP5 AND PUSH1 0x0 SWAP1 DUP2 MSTORE PUSH1 0x20 DUP2 SWAP1 MSTORE PUSH1 0x40 SWAP1 KECCAK256 SWAP1 DUP3 SWAP1 SUB SWAP1 SSTORE JUMPDEST PUSH1 0x1 PUSH1 0x1 PUSH1 0xA0 SHL SUB DUP3 AND PUSH3 0x450 JUMPI PUSH1 0x2 DUP1 SLOAD DUP3 SWAP1 SUB SWAP1 SSTORE PUSH3 0x46F JUMP JUMPDEST PUSH1 0x1 PUSH1 0x1 PUSH1 0xA0 SHL SUB DUP3 AND PUSH1 0x0 SWAP1 DUP2 MSTORE PUSH1 0x20 DUP2 SWAP1 MSTORE PUSH1 0x40 SWAP1 KECCAK256 DUP1 SLOAD DUP3 ADD SWAP1 SSTORE JUMPDEST DUP2 PUSH1 0x1 PUSH1 0x1 PUSH1 0xA0 SHL SUB AND DUP4 PUSH1 0x1 PUSH1 0x1 PUSH1 0xA0 SHL SUB AND PUSH32 0xDDF252AD1BE2C89B69C2B068FC378DAA952BA7F163C4A11628F55A4DF523B3EF DUP4 PUSH1 0x40 MLOAD PUSH3 0x4B5 SWAP2 DUP2 MSTORE PUSH1 0x20 ADD SWAP1 JUMP JUMPDEST PUSH1 0x40 MLOAD DUP1 SWAP2 SUB SWAP1 LOG3 POP POP POP JUMP JUMPDEST PUSH1 0x1 PUSH1 0x1 PUSH1 0xA0 SHL SUB DUP4 AND PUSH3 0x4F7 JUMPI PUSH3 0x4F4 PUSH1 0xA PUSH3 0x118D PUSH3 0x55A PUSH1 0x20 SHL OR PUSH3 0x4EE DUP5 PUSH3 0x56F JUMP JUMPDEST PUSH3 0x5A9 JUMP JUMPDEST POP POP JUMPDEST PUSH1 0x1 PUSH1 0x1 PUSH1 0xA0 SHL SUB DUP3 AND PUSH3 0x526 JUMPI PUSH3 0x523 PUSH1 0xA PUSH3 0x1199 PUSH3 0x5E6 PUSH1 0x20 SHL OR PUSH3 0x4EE DUP5 PUSH3 0x56F JUMP JUMPDEST POP POP JUMPDEST PUSH1 0x1 PUSH1 0x1 PUSH1 0xA0 SHL SUB DUP4 DUP2 AND PUSH1 0x0 SWAP1 DUP2 MSTORE PUSH1 0x8 PUSH1 0x20 MSTORE PUSH1 0x40 DUP1 DUP3 KECCAK256 SLOAD DUP6 DUP5 AND DUP4 MSTORE SWAP2 KECCAK256 SLOAD PUSH3 0x2E6 SWAP3 SWAP2 DUP3 AND SWAP2 AND DUP4 PUSH3 0x5F4 JUMP JUMPDEST PUSH1 0x0 PUSH3 0x568 DUP3 DUP5 PUSH3 0xB8A JUMP JUMPDEST SWAP4 SWAP3 POP POP POP JUMP JUMPDEST PUSH1 0x0 PUSH1 0x1 PUSH1 0x1 PUSH1 0xD0 SHL SUB DUP3 GT ISZERO PUSH3 0x5A5 JUMPI PUSH1 0x40 MLOAD PUSH4 0x6DFCC65 PUSH1 0xE4 SHL DUP2 MSTORE PUSH1 0xD0 PUSH1 0x4 DUP3 ADD MSTORE PUSH1 0x24 DUP2 ADD DUP4 SWAP1 MSTORE PUSH1 0x44 ADD PUSH3 0x190 JUMP JUMPDEST POP SWAP1 JUMP JUMPDEST PUSH1 0x0 DUP1 PUSH3 0x5D9 PUSH3 0x5BA PUSH3 0x75B JUMP JUMPDEST PUSH3 0x5D0 PUSH3 0x5C9 DUP9 PUSH3 0x76C JUMP JUMPDEST DUP7 DUP9 PUSH1 0x20 SHR JUMP JUMPDEST DUP8 SWAP2 SWAP1 PUSH3 0x7BB JUMP JUMPDEST SWAP2 POP SWAP2 POP JUMPDEST SWAP4 POP SWAP4 SWAP2 POP POP JUMP JUMPDEST PUSH1 0x0 PUSH3 0x568 DUP3 DUP5 PUSH3 0xBB4 JUMP JUMPDEST DUP2 PUSH1 0x1 PUSH1 0x1 PUSH1 0xA0 SHL SUB AND DUP4 PUSH1 0x1 PUSH1 0x1 PUSH1 0xA0 SHL SUB AND EQ ISZERO DUP1 ISZERO PUSH3 0x617 JUMPI POP PUSH1 0x0 DUP2 GT JUMPDEST ISZERO PUSH3 0x2E6 JUMPI PUSH1 0x1 PUSH1 0x1 PUSH1 0xA0 SHL SUB DUP4 AND ISZERO PUSH3 0x6BA JUMPI PUSH1 0x1 PUSH1 0x1 PUSH1 0xA0 SHL SUB DUP4 AND PUSH1 0x0 SWAP1 DUP2 MSTORE PUSH1 0x9 PUSH1 0x20 SWAP1 DUP2 MSTORE PUSH1 0x40 DUP3 KECCAK256 DUP3 SWAP2 PUSH3 0x665 SWAP2 SWAP1 PUSH3 0x5E6 SWAP1 SHL PUSH3 0x1199 OR PUSH3 0x4EE DUP7 PUSH3 0x56F JUMP JUMPDEST PUSH1 0x1 PUSH1 0x1 PUSH1 0xD0 SHL SUB AND SWAP2 POP PUSH1 0x1 PUSH1 0x1 PUSH1 0xD0 SHL SUB AND SWAP2 POP DUP5 PUSH1 0x1 PUSH1 0x1 PUSH1 0xA0 SHL SUB AND PUSH1 0x0 DUP1 MLOAD PUSH1 0x20 PUSH3 0x35B7 DUP4 CODECOPY DUP2 MLOAD SWAP2 MSTORE DUP4 DUP4 PUSH1 0x40 MLOAD PUSH3 0x6AF SWAP3 SWAP2 SWAP1 SWAP2 DUP3 MSTORE PUSH1 0x20 DUP3 ADD MSTORE PUSH1 0x40 ADD SWAP1 JUMP JUMPDEST PUSH1 0x40 MLOAD DUP1 SWAP2 SUB SWAP1 LOG2 POP POP JUMPDEST PUSH1 0x1 PUSH1 0x1 PUSH1 0xA0 SHL SUB DUP3 AND ISZERO PUSH3 0x2E6 JUMPI PUSH1 0x1 PUSH1 0x1 PUSH1 0xA0 SHL SUB DUP3 AND PUSH1 0x0 SWAP1 DUP2 MSTORE PUSH1 0x9 PUSH1 0x20 SWAP1 DUP2 MSTORE PUSH1 0x40 DUP3 KECCAK256 DUP3 SWAP2 PUSH3 0x702 SWAP2 SWAP1 PUSH3 0x55A SWAP1 SHL PUSH3 0x118D OR PUSH3 0x4EE DUP7 PUSH3 0x56F JUMP JUMPDEST PUSH1 0x1 PUSH1 0x1 PUSH1 0xD0 SHL SUB AND SWAP2 POP PUSH1 0x1 PUSH1 0x1 PUSH1 0xD0 SHL SUB AND SWAP2 POP DUP4 PUSH1 0x1 PUSH1 0x1 PUSH1 0xA0 SHL SUB AND PUSH1 0x0 DUP1 MLOAD PUSH1 0x20 PUSH3 0x35B7 DUP4 CODECOPY DUP2 MLOAD SWAP2 MSTORE DUP4 DUP4 PUSH1 0x40 MLOAD PUSH3 0x74C SWAP3 SWAP2 SWAP1 SWAP2 DUP3 MSTORE PUSH1 0x20 DUP3 ADD MSTORE PUSH1 0x40 ADD SWAP1 JUMP JUMPDEST PUSH1 0x40 MLOAD DUP1 SWAP2 SUB SWAP1 LOG2 POP POP POP POP POP JUMP JUMPDEST PUSH1 0x0 PUSH3 0x767 PUSH3 0x7CB JUMP JUMPDEST SWAP1 POP SWAP1 JUMP JUMPDEST DUP1 SLOAD PUSH1 0x0 SWAP1 DUP1 ISZERO PUSH3 0x7B2 JUMPI PUSH3 0x798 DUP4 PUSH3 0x78A PUSH1 0x1 DUP5 PUSH3 0xBD7 JUMP JUMPDEST PUSH1 0x0 SWAP2 DUP3 MSTORE PUSH1 0x20 SWAP1 SWAP2 KECCAK256 ADD SWAP1 JUMP JUMPDEST SLOAD PUSH7 0x1000000000000 SWAP1 DIV PUSH1 0x1 PUSH1 0x1 PUSH1 0xD0 SHL SUB AND PUSH3 0x568 JUMP JUMPDEST PUSH1 0x0 SWAP4 SWAP3 POP POP POP JUMP JUMPDEST PUSH1 0x0 DUP1 PUSH3 0x5D9 DUP6 DUP6 DUP6 PUSH3 0x7D8 JUMP JUMPDEST PUSH1 0x0 PUSH3 0x767 NUMBER PUSH3 0x941 JUMP JUMPDEST DUP3 SLOAD PUSH1 0x0 SWAP1 DUP2 SWAP1 DUP1 ISZERO PUSH3 0x8E2 JUMPI PUSH1 0x0 PUSH3 0x7FA DUP8 PUSH3 0x78A PUSH1 0x1 DUP6 PUSH3 0xBD7 JUMP JUMPDEST DUP1 SLOAD SWAP1 SWAP2 POP PUSH6 0xFFFFFFFFFFFF DUP1 DUP3 AND SWAP2 PUSH7 0x1000000000000 SWAP1 DIV PUSH1 0x1 PUSH1 0x1 PUSH1 0xD0 SHL SUB AND SWAP1 DUP9 AND DUP3 GT ISZERO PUSH3 0x841 JUMPI PUSH1 0x40 MLOAD PUSH4 0x2520601D PUSH1 0xE0 SHL DUP2 MSTORE PUSH1 0x4 ADD PUSH1 0x40 MLOAD DUP1 SWAP2 SUB SWAP1 REVERT JUMPDEST DUP8 PUSH6 0xFFFFFFFFFFFF AND DUP3 PUSH6 0xFFFFFFFFFFFF AND SUB PUSH3 0x87F JUMPI DUP3 SLOAD PUSH6 0xFFFFFFFFFFFF AND PUSH7 0x1000000000000 PUSH1 0x1 PUSH1 0x1 PUSH1 0xD0 SHL SUB DUP10 AND MUL OR DUP4 SSTORE PUSH3 0x8D3 JUMP JUMPDEST PUSH1 0x40 DUP1 MLOAD DUP1 DUP3 ADD SWAP1 SWAP2 MSTORE PUSH6 0xFFFFFFFFFFFF DUP1 DUP11 AND DUP3 MSTORE PUSH1 0x1 PUSH1 0x1 PUSH1 0xD0 SHL SUB DUP1 DUP11 AND PUSH1 0x20 DUP1 DUP6 ADD SWAP2 DUP3 MSTORE DUP14 SLOAD PUSH1 0x1 DUP2 ADD DUP16 SSTORE PUSH1 0x0 DUP16 DUP2 MSTORE SWAP2 SWAP1 SWAP2 KECCAK256 SWAP5 MLOAD SWAP2 MLOAD SWAP1 SWAP3 AND PUSH7 0x1000000000000 MUL SWAP3 AND SWAP2 SWAP1 SWAP2 OR SWAP2 ADD SSTORE JUMPDEST SWAP5 POP DUP6 SWAP4 POP PUSH3 0x5DE SWAP3 POP POP POP JUMP JUMPDEST POP POP PUSH1 0x40 DUP1 MLOAD DUP1 DUP3 ADD SWAP1 SWAP2 MSTORE PUSH6 0xFFFFFFFFFFFF DUP1 DUP6 AND DUP3 MSTORE PUSH1 0x1 PUSH1 0x1 PUSH1 0xD0 SHL SUB DUP1 DUP6 AND PUSH1 0x20 DUP1 DUP6 ADD SWAP2 DUP3 MSTORE DUP9 SLOAD PUSH1 0x1 DUP2 ADD DUP11 SSTORE PUSH1 0x0 DUP11 DUP2 MSTORE SWAP2 DUP3 KECCAK256 SWAP6 MLOAD SWAP3 MLOAD SWAP1 SWAP4 AND PUSH7 0x1000000000000 MUL SWAP2 SWAP1 SWAP4 AND OR SWAP3 ADD SWAP2 SWAP1 SWAP2 SSTORE SWAP1 POP DUP2 PUSH3 0x5DE JUMP JUMPDEST PUSH1 0x0 PUSH6 0xFFFFFFFFFFFF DUP3 GT ISZERO PUSH3 0x5A5 JUMPI PUSH1 0x40 MLOAD PUSH4 0x6DFCC65 PUSH1 0xE4 SHL DUP2 MSTORE PUSH1 0x30 PUSH1 0x4 DUP3 ADD MSTORE PUSH1 0x24 DUP2 ADD DUP4 SWAP1 MSTORE PUSH1 0x44 ADD PUSH3 0x190 JUMP JUMPDEST PUSH4 0x4E487B71 PUSH1 0xE0 SHL PUSH1 0x0 MSTORE PUSH1 0x41 PUSH1 0x4 MSTORE PUSH1 0x24 PUSH1 0x0 REVERT JUMPDEST PUSH1 0x1 DUP2 DUP2 SHR SWAP1 DUP3 AND DUP1 PUSH3 0x9A1 JUMPI PUSH1 0x7F DUP3 AND SWAP2 POP JUMPDEST PUSH1 0x20 DUP3 LT DUP2 SUB PUSH3 0x9C2 JUMPI PUSH4 0x4E487B71 PUSH1 0xE0 SHL PUSH1 0x0 MSTORE PUSH1 0x22 PUSH1 0x4 MSTORE PUSH1 0x24 PUSH1 0x0 REVERT JUMPDEST POP SWAP2 SWAP1 POP JUMP JUMPDEST PUSH1 0x1F DUP3 GT ISZERO PUSH3 0x2E6 JUMPI PUSH1 0x0 DUP2 PUSH1 0x0 MSTORE PUSH1 0x20 PUSH1 0x0 KECCAK256 PUSH1 0x1F DUP6 ADD PUSH1 0x5 SHR DUP2 ADD PUSH1 0x20 DUP7 LT ISZERO PUSH3 0x9F3 JUMPI POP DUP1 JUMPDEST PUSH1 0x1F DUP6 ADD PUSH1 0x5 SHR DUP3 ADD SWAP2 POP JUMPDEST DUP2 DUP2 LT ISZERO PUSH3 0xA14 JUMPI DUP3 DUP2 SSTORE PUSH1 0x1 ADD PUSH3 0x9FF JUMP JUMPDEST POP POP POP POP POP POP JUMP JUMPDEST DUP2 MLOAD PUSH1 0x1 PUSH1 0x1 PUSH1 0x40 SHL SUB DUP2 GT ISZERO PUSH3 0xA38 JUMPI PUSH3 0xA38 PUSH3 0x976 JUMP JUMPDEST PUSH3 0xA50 DUP2 PUSH3 0xA49 DUP5 SLOAD PUSH3 0x98C JUMP JUMPDEST DUP5 PUSH3 0x9C8 JUMP JUMPDEST PUSH1 0x20 DUP1 PUSH1 0x1F DUP4 GT PUSH1 0x1 DUP2 EQ PUSH3 0xA88 JUMPI PUSH1 0x0 DUP5 ISZERO PUSH3 0xA6F JUMPI POP DUP6 DUP4 ADD MLOAD JUMPDEST PUSH1 0x0 NOT PUSH1 0x3 DUP7 SWAP1 SHL SHR NOT AND PUSH1 0x1 DUP6 SWAP1 SHL OR DUP6 SSTORE PUSH3 0xA14 JUMP JUMPDEST PUSH1 0x0 DUP6 DUP2 MSTORE PUSH1 0x20 DUP2 KECCAK256 PUSH1 0x1F NOT DUP7 AND SWAP2 JUMPDEST DUP3 DUP2 LT ISZERO PUSH3 0xAB9 JUMPI DUP9 DUP7 ADD MLOAD DUP3 SSTORE SWAP5 DUP5 ADD SWAP5 PUSH1 0x1 SWAP1 SWAP2 ADD SWAP1 DUP5 ADD PUSH3 0xA98 JUMP JUMPDEST POP DUP6 DUP3 LT ISZERO PUSH3 0xAD8 JUMPI DUP8 DUP6 ADD MLOAD PUSH1 0x0 NOT PUSH1 0x3 DUP9 SWAP1 SHL PUSH1 0xF8 AND SHR NOT AND DUP2 SSTORE JUMPDEST POP POP POP POP POP PUSH1 0x1 SWAP1 DUP2 SHL ADD SWAP1 SSTORE POP JUMP JUMPDEST PUSH1 0x0 PUSH1 0x20 DUP1 DUP4 MSTORE DUP4 MLOAD DUP1 PUSH1 0x20 DUP6 ADD MSTORE PUSH1 0x0 JUMPDEST DUP2 DUP2 LT ISZERO PUSH3 0xB18 JUMPI DUP6 DUP2 ADD DUP4 ADD MLOAD DUP6 DUP3 ADD PUSH1 0x40 ADD MSTORE DUP3 ADD PUSH3 0xAFA JUMP JUMPDEST POP PUSH1 0x0 PUSH1 0x40 DUP3 DUP7 ADD ADD MSTORE PUSH1 0x40 PUSH1 0x1F NOT PUSH1 0x1F DUP4 ADD AND DUP6 ADD ADD SWAP3 POP POP POP SWAP3 SWAP2 POP POP JUMP JUMPDEST DUP1 MLOAD PUSH1 0x20 DUP1 DUP4 ADD MLOAD SWAP2 SWAP1 DUP2 LT ISZERO PUSH3 0x9C2 JUMPI PUSH1 0x0 NOT PUSH1 0x20 SWAP2 SWAP1 SWAP2 SUB PUSH1 0x3 SHL SHL AND SWAP2 SWAP1 POP JUMP JUMPDEST PUSH4 0x4E487B71 PUSH1 0xE0 SHL PUSH1 0x0 MSTORE PUSH1 0x11 PUSH1 0x4 MSTORE PUSH1 0x24 PUSH1 0x0 REVERT JUMPDEST DUP1 DUP3 ADD DUP1 DUP3 GT ISZERO PUSH3 0x1F6 JUMPI PUSH3 0x1F6 PUSH3 0xB5E JUMP JUMPDEST PUSH1 0x1 PUSH1 0x1 PUSH1 0xD0 SHL SUB DUP2 DUP2 AND DUP4 DUP3 AND ADD SWAP1 DUP1 DUP3 GT ISZERO PUSH3 0xBAD JUMPI PUSH3 0xBAD PUSH3 0xB5E JUMP JUMPDEST POP SWAP3 SWAP2 POP POP JUMP JUMPDEST PUSH1 0x1 PUSH1 0x1 PUSH1 0xD0 SHL SUB DUP3 DUP2 AND DUP3 DUP3 AND SUB SWAP1 DUP1 DUP3 GT ISZERO PUSH3 0xBAD JUMPI PUSH3 0xBAD PUSH3 0xB5E JUMP JUMPDEST DUP2 DUP2 SUB DUP2 DUP2 GT ISZERO PUSH3 0x1F6 JUMPI PUSH3 0x1F6 PUSH3 0xB5E JUMP JUMPDEST PUSH1 0x80 MLOAD PUSH1 0xA0 MLOAD PUSH1 0xC0 MLOAD PUSH1 0xE0 MLOAD PUSH2 0x100 MLOAD PUSH2 0x120 MLOAD PUSH2 0x140 MLOAD PUSH2 0x296F PUSH3 0xC48 PUSH1 0x0 CODECOPY PUSH1 0x0 PUSH2 0x1739 ADD MSTORE PUSH1 0x0 PUSH2 0x170C ADD MSTORE PUSH1 0x0 PUSH2 0x13D2 ADD MSTORE PUSH1 0x0 PUSH2 0x13AA ADD MSTORE PUSH1 0x0 PUSH2 0x1305 ADD MSTORE PUSH1 0x0 PUSH2 0x132F ADD MSTORE PUSH1 0x0 PUSH2 0x1359 ADD MSTORE PUSH2 0x296F PUSH1 0x0 RETURN INVALID PUSH1 0x80 PUSH1 0x40 MSTORE CALLVALUE DUP1 ISZERO PUSH2 0x10 JUMPI PUSH1 0x0 DUP1 REVERT JUMPDEST POP PUSH1 0x4 CALLDATASIZE LT PUSH2 0x27F JUMPI PUSH1 0x0 CALLDATALOAD PUSH1 0xE0 SHR DUP1 PUSH4 0x79CC6790 GT PUSH2 0x15C JUMPI DUP1 PUSH4 0x9E1AB91D GT PUSH2 0xCE JUMPI DUP1 PUSH4 0xEDC56CF5 GT PUSH2 0x87 JUMPI DUP1 PUSH4 0xEDC56CF5 EQ PUSH2 0x5C2 JUMPI DUP1 PUSH4 0xF1127ED8 EQ PUSH2 0x5D4 JUMPI DUP1 PUSH4 0xF2FDE38B EQ PUSH2 0x613 JUMPI DUP1 PUSH4 0xF46ECCC4 EQ PUSH2 0x626 JUMPI DUP1 PUSH4 0xF82C29AE EQ PUSH2 0x649 JUMPI DUP1 PUSH4 0xFDD7C402 EQ PUSH2 0x65C JUMPI PUSH1 0x0 DUP1 REVERT JUMPDEST DUP1 PUSH4 0x9E1AB91D EQ PUSH2 0x535 JUMPI DUP1 PUSH4 0xA9059CBB EQ PUSH2 0x53E JUMPI DUP1 PUSH4 0xC3CDA520 EQ PUSH2 0x551 JUMPI DUP1 PUSH4 0xD3FF1C3B EQ PUSH2 0x564 JUMPI DUP1 PUSH4 0xD505ACCF EQ PUSH2 0x576 JUMPI DUP1 PUSH4 0xDD62ED3E EQ PUSH2 0x589 JUMPI PUSH1 0x0 DUP1 REVERT JUMPDEST DUP1 PUSH4 0x8DA5CB5B GT PUSH2 0x120 JUMPI DUP1 PUSH4 0x8DA5CB5B EQ PUSH2 0x4C4 JUMPI DUP1 PUSH4 0x8E539E8C EQ PUSH2 0x4D5 JUMPI DUP1 PUSH4 0x91DDADF4 EQ PUSH2 0x4E8 JUMPI DUP1 PUSH4 0x95D89B41 EQ PUSH2 0x507 JUMPI DUP1 PUSH4 0x983B2D56 EQ PUSH2 0x50F JUMPI DUP1 PUSH4 0x9AB24EB0 EQ PUSH2 0x522 JUMPI PUSH1 0x0 DUP1 REVERT JUMPDEST DUP1 PUSH4 0x79CC6790 EQ PUSH2 0x472 JUMPI DUP1 PUSH4 0x7ECEBE00 EQ PUSH2 0x485 JUMPI DUP1 PUSH4 0x8456CB59 EQ PUSH2 0x498 JUMPI DUP1 PUSH4 0x84B0196E EQ PUSH2 0x4A0 JUMPI DUP1 PUSH4 0x8A1E5601 EQ PUSH2 0x4BB JUMPI PUSH1 0x0 DUP1 REVERT JUMPDEST DUP1 PUSH4 0x3F4BA83A GT PUSH2 0x1F5 JUMPI DUP1 PUSH4 0x5C975ABB GT PUSH2 0x1B9 JUMPI DUP1 PUSH4 0x5C975ABB EQ PUSH2 0x3D2 JUMPI DUP1 PUSH4 0x6F97E31C EQ PUSH2 0x3E4 JUMPI DUP1 PUSH4 0x6FCFFF45 EQ PUSH2 0x407 JUMPI DUP1 PUSH4 0x70A08231 EQ PUSH2 0x42F JUMPI DUP1 PUSH4 0x715018A6 EQ PUSH2 0x458 JUMPI DUP1 PUSH4 0x7664CE12 EQ PUSH2 0x460 JUMPI PUSH1 0x0 DUP1 REVERT JUMPDEST DUP1 PUSH4 0x3F4BA83A EQ PUSH2 0x358 JUMPI DUP1 PUSH4 0x42966C68 EQ PUSH2 0x360 JUMPI DUP1 PUSH4 0x4BF5D7E9 EQ PUSH2 0x373 JUMPI DUP1 PUSH4 0x587CDE1E EQ PUSH2 0x37B JUMPI DUP1 PUSH4 0x5C19A95C EQ PUSH2 0x3BF JUMPI PUSH1 0x0 DUP1 REVERT JUMPDEST DUP1 PUSH4 0x283FD37B GT PUSH2 0x247 JUMPI DUP1 PUSH4 0x283FD37B EQ PUSH2 0x2FF JUMPI DUP1 PUSH4 0x3092AFD5 EQ PUSH2 0x308 JUMPI DUP1 PUSH4 0x313CE567 EQ PUSH2 0x31B JUMPI DUP1 PUSH4 0x32CB6B0C EQ PUSH2 0x32A JUMPI DUP1 PUSH4 0x3644E515 EQ PUSH2 0x33D JUMPI DUP1 PUSH4 0x3A46B1A8 EQ PUSH2 0x345 JUMPI PUSH1 0x0 DUP1 REVERT JUMPDEST DUP1 PUSH4 0x194A7CA EQ PUSH2 0x284 JUMPI DUP1 PUSH4 0x6FDDE03 EQ PUSH2 0x299 JUMPI DUP1 PUSH4 0x95EA7B3 EQ PUSH2 0x2B7 JUMPI DUP1 PUSH4 0x18160DDD EQ PUSH2 0x2DA JUMPI DUP1 PUSH4 0x23B872DD EQ PUSH2 0x2EC JUMPI JUMPDEST PUSH1 0x0 DUP1 REVERT JUMPDEST PUSH2 0x297 PUSH2 0x292 CALLDATASIZE PUSH1 0x4 PUSH2 0x247D JUMP JUMPDEST PUSH2 0x66F JUMP JUMPDEST STOP JUMPDEST PUSH2 0x2A1 PUSH2 0x812 JUMP JUMPDEST PUSH1 0x40 MLOAD PUSH2 0x2AE SWAP2 SWAP1 PUSH2 0x24ED JUMP JUMPDEST PUSH1 0x40 MLOAD DUP1 SWAP2 SUB SWAP1 RETURN JUMPDEST PUSH2 0x2CA PUSH2 0x2C5 CALLDATASIZE PUSH1 0x4 PUSH2 0x247D JUMP JUMPDEST PUSH2 0x8A4 JUMP JUMPDEST PUSH1 0x40 MLOAD SWAP1 ISZERO ISZERO DUP2 MSTORE PUSH1 0x20 ADD PUSH2 0x2AE JUMP JUMPDEST PUSH1 0x2 SLOAD JUMPDEST PUSH1 0x40 MLOAD SWAP1 DUP2 MSTORE PUSH1 0x20 ADD PUSH2 0x2AE JUMP JUMPDEST PUSH2 0x2CA PUSH2 0x2FA CALLDATASIZE PUSH1 0x4 PUSH2 0x2500 JUMP JUMPDEST PUSH2 0x8BE JUMP JUMPDEST PUSH2 0x2DE PUSH1 0xE SLOAD DUP2 JUMP JUMPDEST PUSH2 0x297 PUSH2 0x316 CALLDATASIZE PUSH1 0x4 PUSH2 0x253C JUMP JUMPDEST PUSH2 0x8E2 JUMP JUMPDEST PUSH1 0x40 MLOAD PUSH1 0x12 DUP2 MSTORE PUSH1 0x20 ADD PUSH2 0x2AE JUMP JUMPDEST PUSH2 0x2DE PUSH12 0x33B2E3C9FD0803CE8000000 DUP2 JUMP JUMPDEST PUSH2 0x2DE PUSH2 0x933 JUMP JUMPDEST PUSH2 0x2DE PUSH2 0x353 CALLDATASIZE PUSH1 0x4 PUSH2 0x247D JUMP JUMPDEST PUSH2 0x942 JUMP JUMPDEST PUSH2 0x297 PUSH2 0x97E JUMP JUMPDEST PUSH2 0x297 PUSH2 0x36E CALLDATASIZE PUSH1 0x4 PUSH2 0x2557 JUMP JUMPDEST PUSH2 0x990 JUMP JUMPDEST PUSH2 0x2A1 PUSH2 0x99D JUMP JUMPDEST PUSH2 0x3A7 PUSH2 0x389 CALLDATASIZE PUSH1 0x4 PUSH2 0x253C JUMP JUMPDEST PUSH1 0x1 PUSH1 0x1 PUSH1 0xA0 SHL SUB SWAP1 DUP2 AND PUSH1 0x0 SWAP1 DUP2 MSTORE PUSH1 0x8 PUSH1 0x20 MSTORE PUSH1 0x40 SWAP1 KECCAK256 SLOAD AND SWAP1 JUMP JUMPDEST PUSH1 0x40 MLOAD PUSH1 0x1 PUSH1 0x1 PUSH1 0xA0 SHL SUB SWAP1 SWAP2 AND DUP2 MSTORE PUSH1 0x20 ADD PUSH2 0x2AE JUMP JUMPDEST PUSH2 0x297 PUSH2 0x3CD CALLDATASIZE PUSH1 0x4 PUSH2 0x253C JUMP JUMPDEST PUSH2 0xA15 JUMP JUMPDEST PUSH1 0xB SLOAD PUSH1 0x1 PUSH1 0xA0 SHL SWAP1 DIV PUSH1 0xFF AND PUSH2 0x2CA JUMP JUMPDEST PUSH2 0x3EC PUSH2 0xA24 JUMP JUMPDEST PUSH1 0x40 DUP1 MLOAD SWAP4 DUP5 MSTORE PUSH1 0x20 DUP5 ADD SWAP3 SWAP1 SWAP3 MSTORE SWAP1 DUP3 ADD MSTORE PUSH1 0x60 ADD PUSH2 0x2AE JUMP JUMPDEST PUSH2 0x41A PUSH2 0x415 CALLDATASIZE PUSH1 0x4 PUSH2 0x253C JUMP JUMPDEST PUSH2 0xA7F JUMP JUMPDEST PUSH1 0x40 MLOAD PUSH4 0xFFFFFFFF SWAP1 SWAP2 AND DUP2 MSTORE PUSH1 0x20 ADD PUSH2 0x2AE JUMP JUMPDEST PUSH2 0x2DE PUSH2 0x43D CALLDATASIZE PUSH1 0x4 PUSH2 0x253C JUMP JUMPDEST PUSH1 0x1 PUSH1 0x1 PUSH1 0xA0 SHL SUB AND PUSH1 0x0 SWAP1 DUP2 MSTORE PUSH1 0x20 DUP2 SWAP1 MSTORE PUSH1 0x40 SWAP1 KECCAK256 SLOAD SWAP1 JUMP JUMPDEST PUSH2 0x297 PUSH2 0xA8A JUMP JUMPDEST PUSH2 0x2DE PUSH11 0xA56FA5B99019A5C8000000 DUP2 JUMP JUMPDEST PUSH2 0x297 PUSH2 0x480 CALLDATASIZE PUSH1 0x4 PUSH2 0x247D JUMP JUMPDEST PUSH2 0xA9C JUMP JUMPDEST PUSH2 0x2DE PUSH2 0x493 CALLDATASIZE PUSH1 0x4 PUSH2 0x253C JUMP JUMPDEST PUSH2 0xAB1 JUMP JUMPDEST PUSH2 0x297 PUSH2 0xABC JUMP JUMPDEST PUSH2 0x4A8 PUSH2 0xACC JUMP JUMPDEST PUSH1 0x40 MLOAD PUSH2 0x2AE SWAP8 SWAP7 SWAP6 SWAP5 SWAP4 SWAP3 SWAP2 SWAP1 PUSH2 0x2570 JUMP JUMPDEST PUSH2 0x2DE PUSH1 0xD SLOAD DUP2 JUMP JUMPDEST PUSH1 0xB SLOAD PUSH1 0x1 PUSH1 0x1 PUSH1 0xA0 SHL SUB AND PUSH2 0x3A7 JUMP JUMPDEST PUSH2 0x2DE PUSH2 0x4E3 CALLDATASIZE PUSH1 0x4 PUSH2 0x2557 JUMP JUMPDEST PUSH2 0xB12 JUMP JUMPDEST PUSH2 0x4F0 PUSH2 0xB37 JUMP JUMPDEST PUSH1 0x40 MLOAD PUSH6 0xFFFFFFFFFFFF SWAP1 SWAP2 AND DUP2 MSTORE PUSH1 0x20 ADD PUSH2 0x2AE JUMP JUMPDEST PUSH2 0x2A1 PUSH2 0xB41 JUMP JUMPDEST PUSH2 0x297 PUSH2 0x51D CALLDATASIZE PUSH1 0x4 PUSH2 0x253C JUMP JUMPDEST PUSH2 0xB50 JUMP JUMPDEST PUSH2 0x2DE PUSH2 0x530 CALLDATASIZE PUSH1 0x4 PUSH2 0x253C JUMP JUMPDEST PUSH2 0xBF3 JUMP JUMPDEST PUSH2 0x2DE PUSH1 0xF SLOAD DUP2 JUMP JUMPDEST PUSH2 0x2CA PUSH2 0x54C CALLDATASIZE PUSH1 0x4 PUSH2 0x247D JUMP JUMPDEST PUSH2 0xC14 JUMP JUMPDEST PUSH2 0x297 PUSH2 0x55F CALLDATASIZE PUSH1 0x4 PUSH2 0x261A JUMP JUMPDEST PUSH2 0xC22 JUMP JUMPDEST PUSH2 0x2DE PUSH11 0x52B7D2DCC80CD2E4000000 DUP2 JUMP JUMPDEST PUSH2 0x297 PUSH2 0x584 CALLDATASIZE PUSH1 0x4 PUSH2 0x2672 JUMP JUMPDEST PUSH2 0xCDF JUMP JUMPDEST PUSH2 0x2DE PUSH2 0x597 CALLDATASIZE PUSH1 0x4 PUSH2 0x26DC JUMP JUMPDEST PUSH1 0x1 PUSH1 0x1 PUSH1 0xA0 SHL SUB SWAP2 DUP3 AND PUSH1 0x0 SWAP1 DUP2 MSTORE PUSH1 0x1 PUSH1 0x20 SWAP1 DUP2 MSTORE PUSH1 0x40 DUP1 DUP4 KECCAK256 SWAP4 SWAP1 SWAP5 AND DUP3 MSTORE SWAP2 SWAP1 SWAP2 MSTORE KECCAK256 SLOAD SWAP1 JUMP JUMPDEST PUSH2 0x2DE PUSH11 0xF8277896582678AC000000 DUP2 JUMP JUMPDEST PUSH2 0x5E7 PUSH2 0x5E2 CALLDATASIZE PUSH1 0x4 PUSH2 0x270F JUMP JUMPDEST PUSH2 0xE19 JUMP JUMPDEST PUSH1 0x40 DUP1 MLOAD DUP3 MLOAD PUSH6 0xFFFFFFFFFFFF AND DUP2 MSTORE PUSH1 0x20 SWAP3 DUP4 ADD MLOAD PUSH1 0x1 PUSH1 0x1 PUSH1 0xD0 SHL SUB AND SWAP3 DUP2 ADD SWAP3 SWAP1 SWAP3 MSTORE ADD PUSH2 0x2AE JUMP JUMPDEST PUSH2 0x297 PUSH2 0x621 CALLDATASIZE PUSH1 0x4 PUSH2 0x253C JUMP JUMPDEST PUSH2 0xE3E JUMP JUMPDEST PUSH2 0x2CA PUSH2 0x634 CALLDATASIZE PUSH1 0x4 PUSH2 0x253C JUMP JUMPDEST PUSH1 0xC PUSH1 0x20 MSTORE PUSH1 0x0 SWAP1 DUP2 MSTORE PUSH1 0x40 SWAP1 KECCAK256 SLOAD PUSH1 0xFF AND DUP2 JUMP JUMPDEST PUSH2 0x297 PUSH2 0x657 CALLDATASIZE PUSH1 0x4 PUSH2 0x247D JUMP JUMPDEST PUSH2 0xE79 JUMP JUMPDEST PUSH2 0x297 PUSH2 0x66A CALLDATASIZE PUSH1 0x4 PUSH2 0x247D JUMP JUMPDEST PUSH2 0x1007 JUMP JUMPDEST CALLER PUSH1 0x0 SWAP1 DUP2 MSTORE PUSH1 0xC PUSH1 0x20 MSTORE PUSH1 0x40 SWAP1 KECCAK256 SLOAD PUSH1 0xFF AND DUP1 PUSH2 0x697 JUMPI POP PUSH1 0xB SLOAD PUSH1 0x1 PUSH1 0x1 PUSH1 0xA0 SHL SUB AND CALLER EQ JUMPDEST PUSH2 0x6BC JUMPI PUSH1 0x40 MLOAD PUSH3 0x461BCD PUSH1 0xE5 SHL DUP2 MSTORE PUSH1 0x4 ADD PUSH2 0x6B3 SWAP1 PUSH2 0x274F JUMP JUMPDEST PUSH1 0x40 MLOAD DUP1 SWAP2 SUB SWAP1 REVERT JUMPDEST PUSH1 0x1 PUSH1 0x1 PUSH1 0xA0 SHL SUB DUP3 AND PUSH2 0x6E2 JUMPI PUSH1 0x40 MLOAD PUSH3 0x461BCD PUSH1 0xE5 SHL DUP2 MSTORE PUSH1 0x4 ADD PUSH2 0x6B3 SWAP1 PUSH2 0x277F JUMP JUMPDEST PUSH1 0x0 DUP2 GT PUSH2 0x702 JUMPI PUSH1 0x40 MLOAD PUSH3 0x461BCD PUSH1 0xE5 SHL DUP2 MSTORE PUSH1 0x4 ADD PUSH2 0x6B3 SWAP1 PUSH2 0x27B6 JUMP JUMPDEST PUSH11 0xF8277896582678AC000000 DUP2 PUSH1 0xD SLOAD PUSH2 0x71C SWAP2 SWAP1 PUSH2 0x2801 JUMP JUMPDEST GT ISZERO PUSH2 0x76A JUMPI PUSH1 0x40 MLOAD PUSH3 0x461BCD PUSH1 0xE5 SHL DUP2 MSTORE PUSH1 0x20 PUSH1 0x4 DUP3 ADD MSTORE PUSH1 0x1C PUSH1 0x24 DUP3 ADD MSTORE PUSH32 0x5374616B696E6720726577617264732063617020657863656564656400000000 PUSH1 0x44 DUP3 ADD MSTORE PUSH1 0x64 ADD PUSH2 0x6B3 JUMP JUMPDEST PUSH12 0x33B2E3C9FD0803CE8000000 DUP2 PUSH2 0x781 PUSH1 0x2 SLOAD SWAP1 JUMP JUMPDEST PUSH2 0x78B SWAP2 SWAP1 PUSH2 0x2801 JUMP JUMPDEST GT ISZERO PUSH2 0x7A9 JUMPI PUSH1 0x40 MLOAD PUSH3 0x461BCD PUSH1 0xE5 SHL DUP2 MSTORE PUSH1 0x4 ADD PUSH2 0x6B3 SWAP1 PUSH2 0x2814 JUMP JUMPDEST DUP1 PUSH1 0xD PUSH1 0x0 DUP3 DUP3 SLOAD PUSH2 0x7BB SWAP2 SWAP1 PUSH2 0x2801 JUMP JUMPDEST SWAP1 SWAP2 SSTORE POP PUSH2 0x7CB SWAP1 POP DUP3 DUP3 PUSH2 0x11A5 JUMP JUMPDEST DUP2 PUSH1 0x1 PUSH1 0x1 PUSH1 0xA0 SHL SUB AND PUSH32 0x84065B24C0C720F66AE9BE3E0B0DE201CAC7C5CE0EA04C8BC34C3F2E1FC95BA4 DUP3 PUSH1 0x40 MLOAD PUSH2 0x806 SWAP2 DUP2 MSTORE PUSH1 0x20 ADD SWAP1 JUMP JUMPDEST PUSH1 0x40 MLOAD DUP1 SWAP2 SUB SWAP1 LOG2 POP POP JUMP JUMPDEST PUSH1 0x60 PUSH1 0x3 DUP1 SLOAD PUSH2 0x821 SWAP1 PUSH2 0x2841 JUMP JUMPDEST DUP1 PUSH1 0x1F ADD PUSH1 0x20 DUP1 SWAP2 DIV MUL PUSH1 0x20 ADD PUSH1 0x40 MLOAD SWAP1 DUP2 ADD PUSH1 0x40 MSTORE DUP1 SWAP3 SWAP2 SWAP1 DUP2 DUP2 MSTORE PUSH1 0x20 ADD DUP3 DUP1 SLOAD PUSH2 0x84D SWAP1 PUSH2 0x2841 JUMP JUMPDEST DUP1 ISZERO PUSH2 0x89A JUMPI DUP1 PUSH1 0x1F LT PUSH2 0x86F JUMPI PUSH2 0x100 DUP1 DUP4 SLOAD DIV MUL DUP4 MSTORE SWAP2 PUSH1 0x20 ADD SWAP2 PUSH2 0x89A JUMP JUMPDEST DUP3 ADD SWAP2 SWAP1 PUSH1 0x0 MSTORE PUSH1 0x20 PUSH1 0x0 KECCAK256 SWAP1 JUMPDEST DUP2 SLOAD DUP2 MSTORE SWAP1 PUSH1 0x1 ADD SWAP1 PUSH1 0x20 ADD DUP1 DUP4 GT PUSH2 0x87D JUMPI DUP3 SWAP1 SUB PUSH1 0x1F AND DUP3 ADD SWAP2 JUMPDEST POP POP POP POP POP SWAP1 POP SWAP1 JUMP JUMPDEST PUSH1 0x0 CALLER PUSH2 0x8B2 DUP2 DUP6 DUP6 PUSH2 0x11DB JUMP JUMPDEST PUSH1 0x1 SWAP2 POP POP JUMPDEST SWAP3 SWAP2 POP POP JUMP JUMPDEST PUSH1 0x0 CALLER PUSH2 0x8CC DUP6 DUP3 DUP6 PUSH2 0x11ED JUMP JUMPDEST PUSH2 0x8D7 DUP6 DUP6 DUP6 PUSH2 0x126C JUMP JUMPDEST POP PUSH1 0x1 SWAP5 SWAP4 POP POP POP POP JUMP JUMPDEST PUSH2 0x8EA PUSH2 0x12CB JUMP JUMPDEST PUSH1 0x1 PUSH1 0x1 PUSH1 0xA0 SHL SUB DUP2 AND PUSH1 0x0 DUP2 DUP2 MSTORE PUSH1 0xC PUSH1 0x20 MSTORE PUSH1 0x40 DUP1 DUP3 KECCAK256 DUP1 SLOAD PUSH1 0xFF NOT AND SWAP1 SSTORE MLOAD PUSH32 0xE94479A9F7E1952CC78F2D6BAAB678ADC1B772D936C6583DEF489E524CB66692 SWAP2 SWAP1 LOG2 POP JUMP JUMPDEST PUSH1 0x0 PUSH2 0x93D PUSH2 0x12F8 JUMP JUMPDEST SWAP1 POP SWAP1 JUMP JUMPDEST PUSH1 0x0 PUSH2 0x96E PUSH2 0x950 DUP4 PUSH2 0x1423 JUMP JUMPDEST PUSH1 0x1 PUSH1 0x1 PUSH1 0xA0 SHL SUB DUP6 AND PUSH1 0x0 SWAP1 DUP2 MSTORE PUSH1 0x9 PUSH1 0x20 MSTORE PUSH1 0x40 SWAP1 KECCAK256 SWAP1 PUSH2 0x1472 JUMP JUMPDEST PUSH1 0x1 PUSH1 0x1 PUSH1 0xD0 SHL SUB AND SWAP4 SWAP3 POP POP POP JUMP JUMPDEST PUSH2 0x986 PUSH2 0x12CB JUMP JUMPDEST PUSH2 0x98E PUSH2 0x1528 JUMP JUMPDEST JUMP JUMPDEST PUSH2 0x99A CALLER DUP3 PUSH2 0x157D JUMP JUMPDEST POP JUMP JUMPDEST PUSH1 0x60 PUSH2 0x9A7 PUSH2 0x15B3 JUMP JUMPDEST PUSH6 0xFFFFFFFFFFFF AND PUSH2 0x9B7 PUSH2 0xB37 JUMP JUMPDEST PUSH6 0xFFFFFFFFFFFF AND EQ PUSH2 0x9DD JUMPI PUSH1 0x40 MLOAD PUSH4 0x1BFC1C5 PUSH1 0xE6 SHL DUP2 MSTORE PUSH1 0x4 ADD PUSH1 0x40 MLOAD DUP1 SWAP2 SUB SWAP1 REVERT JUMPDEST POP PUSH1 0x40 DUP1 MLOAD DUP1 DUP3 ADD SWAP1 SWAP2 MSTORE PUSH1 0x1D DUP2 MSTORE PUSH32 0x6D6F64653D626C6F636B6E756D6265722666726F6D3D64656661756C74000000 PUSH1 0x20 DUP3 ADD MSTORE SWAP1 JUMP JUMPDEST CALLER PUSH2 0xA20 DUP2 DUP4 PUSH2 0x15BE JUMP JUMPDEST POP POP JUMP JUMPDEST PUSH1 0x0 DUP1 PUSH1 0x0 PUSH1 0xD SLOAD PUSH11 0xF8277896582678AC000000 PUSH2 0xA42 SWAP2 SWAP1 PUSH2 0x287B JUMP JUMPDEST SWAP3 POP PUSH1 0xE SLOAD PUSH11 0xA56FA5B99019A5C8000000 PUSH2 0xA5D SWAP2 SWAP1 PUSH2 0x287B JUMP JUMPDEST SWAP2 POP PUSH1 0xF SLOAD PUSH11 0x52B7D2DCC80CD2E4000000 PUSH2 0xA78 SWAP2 SWAP1 PUSH2 0x287B JUMP JUMPDEST SWAP1 POP SWAP1 SWAP2 SWAP3 JUMP JUMPDEST PUSH1 0x0 PUSH2 0x8B8 DUP3 PUSH2 0x1630 JUMP JUMPDEST PUSH2 0xA92 PUSH2 0x12CB JUMP JUMPDEST PUSH2 0x98E PUSH1 0x0 PUSH2 0x1652 JUMP JUMPDEST PUSH2 0xAA7 DUP3 CALLER DUP4 PUSH2 0x11ED JUMP JUMPDEST PUSH2 0xA20 DUP3 DUP3 PUSH2 0x157D JUMP JUMPDEST PUSH1 0x0 PUSH2 0x8B8 DUP3 PUSH2 0x16A4 JUMP JUMPDEST PUSH2 0xAC4 PUSH2 0x12CB JUMP JUMPDEST PUSH2 0x98E PUSH2 0x16C2 JUMP JUMPDEST PUSH1 0x0 PUSH1 0x60 DUP1 PUSH1 0x0 DUP1 PUSH1 0x0 PUSH1 0x60 PUSH2 0xAE0 PUSH2 0x1705 JUMP JUMPDEST PUSH2 0xAE8 PUSH2 0x1732 JUMP JUMPDEST PUSH1 0x40 DUP1 MLOAD PUSH1 0x0 DUP1 DUP3 MSTORE PUSH1 0x20 DUP3 ADD SWAP1 SWAP3 MSTORE PUSH1 0xF PUSH1 0xF8 SHL SWAP12 SWAP4 SWAP11 POP SWAP2 SWAP9 POP CHAINID SWAP8 POP ADDRESS SWAP7 POP SWAP5 POP SWAP3 POP SWAP1 POP JUMP JUMPDEST PUSH1 0x0 PUSH2 0xB28 PUSH2 0xB20 DUP4 PUSH2 0x1423 JUMP JUMPDEST PUSH1 0xA SWAP1 PUSH2 0x1472 JUMP JUMPDEST PUSH1 0x1 PUSH1 0x1 PUSH1 0xD0 SHL SUB AND SWAP3 SWAP2 POP POP JUMP JUMPDEST PUSH1 0x0 PUSH2 0x93D PUSH2 0x15B3 JUMP JUMPDEST PUSH1 0x60 PUSH1 0x4 DUP1 SLOAD PUSH2 0x821 SWAP1 PUSH2 0x2841 JUMP JUMPDEST PUSH2 0xB58 PUSH2 0x12CB JUMP JUMPDEST PUSH1 0x1 PUSH1 0x1 PUSH1 0xA0 SHL SUB DUP2 AND PUSH2 0xBA7 JUMPI PUSH1 0x40 MLOAD PUSH3 0x461BCD PUSH1 0xE5 SHL DUP2 MSTORE PUSH1 0x20 PUSH1 0x4 DUP3 ADD MSTORE PUSH1 0x16 PUSH1 0x24 DUP3 ADD MSTORE PUSH22 0x496E76616C6964206D696E7465722061646472657373 PUSH1 0x50 SHL PUSH1 0x44 DUP3 ADD MSTORE PUSH1 0x64 ADD PUSH2 0x6B3 JUMP JUMPDEST PUSH1 0x1 PUSH1 0x1 PUSH1 0xA0 SHL SUB DUP2 AND PUSH1 0x0 DUP2 DUP2 MSTORE PUSH1 0xC PUSH1 0x20 MSTORE PUSH1 0x40 DUP1 DUP3 KECCAK256 DUP1 SLOAD PUSH1 0xFF NOT AND PUSH1 0x1 OR SWAP1 SSTORE MLOAD PUSH32 0x6AE172837EA30B801FBFCDD4108AA1D5BF8FF775444FD70256B44E6BF3DFC3F6 SWAP2 SWAP1 LOG2 POP JUMP JUMPDEST PUSH1 0x1 PUSH1 0x1 PUSH1 0xA0 SHL SUB DUP2 AND PUSH1 0x0 SWAP1 DUP2 MSTORE PUSH1 0x9 PUSH1 0x20 MSTORE PUSH1 0x40 DUP2 KECCAK256 PUSH2 0xB28 SWAP1 PUSH2 0x175F JUMP JUMPDEST PUSH1 0x0 CALLER PUSH2 0x8B2 DUP2 DUP6 DUP6 PUSH2 0x126C JUMP JUMPDEST DUP4 TIMESTAMP GT ISZERO PUSH2 0xC46 JUMPI PUSH1 0x40 MLOAD PUSH4 0x2341D787 PUSH1 0xE1 SHL DUP2 MSTORE PUSH1 0x4 DUP2 ADD DUP6 SWAP1 MSTORE PUSH1 0x24 ADD PUSH2 0x6B3 JUMP JUMPDEST PUSH1 0x40 DUP1 MLOAD PUSH32 0xE48329057BFD03D55E49B547132E39CFFD9C1820AD7B9D4C5307691425D15ADF PUSH1 0x20 DUP3 ADD MSTORE PUSH1 0x1 PUSH1 0x1 PUSH1 0xA0 SHL SUB DUP9 AND SWAP2 DUP2 ADD SWAP2 SWAP1 SWAP2 MSTORE PUSH1 0x60 DUP2 ADD DUP7 SWAP1 MSTORE PUSH1 0x80 DUP2 ADD DUP6 SWAP1 MSTORE PUSH1 0x0 SWAP1 PUSH2 0xCC0 SWAP1 PUSH2 0xCB8 SWAP1 PUSH1 0xA0 ADD PUSH1 0x40 MLOAD PUSH1 0x20 DUP2 DUP4 SUB SUB DUP2 MSTORE SWAP1 PUSH1 0x40 MSTORE DUP1 MLOAD SWAP1 PUSH1 0x20 ADD KECCAK256 PUSH2 0x1798 JUMP JUMPDEST DUP6 DUP6 DUP6 PUSH2 0x17C5 JUMP JUMPDEST SWAP1 POP PUSH2 0xCCC DUP2 DUP8 PUSH2 0x17F3 JUMP JUMPDEST PUSH2 0xCD6 DUP2 DUP9 PUSH2 0x15BE JUMP JUMPDEST POP POP POP POP POP POP POP JUMP JUMPDEST DUP4 TIMESTAMP GT ISZERO PUSH2 0xD03 JUMPI PUSH1 0x40 MLOAD PUSH4 0x313C8981 PUSH1 0xE1 SHL DUP2 MSTORE PUSH1 0x4 DUP2 ADD DUP6 SWAP1 MSTORE PUSH1 0x24 ADD PUSH2 0x6B3 JUMP JUMPDEST PUSH1 0x0 PUSH32 0x6E71EDAE12B1B97F4D1F60370FEF10105FA2FAAE0126114A169C64845D6126C9 DUP9 DUP9 DUP9 PUSH2 0xD50 DUP13 PUSH1 0x1 PUSH1 0x1 PUSH1 0xA0 SHL SUB AND PUSH1 0x0 SWAP1 DUP2 MSTORE PUSH1 0x7 PUSH1 0x20 MSTORE PUSH1 0x40 SWAP1 KECCAK256 DUP1 SLOAD PUSH1 0x1 DUP2 ADD SWAP1 SWAP2 SSTORE SWAP1 JUMP JUMPDEST PUSH1 0x40 DUP1 MLOAD PUSH1 0x20 DUP2 ADD SWAP7 SWAP1 SWAP7 MSTORE PUSH1 0x1 PUSH1 0x1 PUSH1 0xA0 SHL SUB SWAP5 DUP6 AND SWAP1 DUP7 ADD MSTORE SWAP3 SWAP1 SWAP2 AND PUSH1 0x60 DUP5 ADD MSTORE PUSH1 0x80 DUP4 ADD MSTORE PUSH1 0xA0 DUP3 ADD MSTORE PUSH1 0xC0 DUP2 ADD DUP7 SWAP1 MSTORE PUSH1 0xE0 ADD PUSH1 0x40 MLOAD PUSH1 0x20 DUP2 DUP4 SUB SUB DUP2 MSTORE SWAP1 PUSH1 0x40 MSTORE DUP1 MLOAD SWAP1 PUSH1 0x20 ADD KECCAK256 SWAP1 POP PUSH1 0x0 PUSH2 0xDAB DUP3 PUSH2 0x1798 JUMP JUMPDEST SWAP1 POP PUSH1 0x0 PUSH2 0xDBB DUP3 DUP8 DUP8 DUP8 PUSH2 0x17C5 JUMP JUMPDEST SWAP1 POP DUP10 PUSH1 0x1 PUSH1 0x1 PUSH1 0xA0 SHL SUB AND DUP2 PUSH1 0x1 PUSH1 0x1 PUSH1 0xA0 SHL SUB AND EQ PUSH2 0xE02 JUMPI PUSH1 0x40 MLOAD PUSH4 0x25C00723 PUSH1 0xE1 SHL DUP2 MSTORE PUSH1 0x1 PUSH1 0x1 PUSH1 0xA0 SHL SUB DUP1 DUP4 AND PUSH1 0x4 DUP4 ADD MSTORE DUP12 AND PUSH1 0x24 DUP3 ADD MSTORE PUSH1 0x44 ADD PUSH2 0x6B3 JUMP JUMPDEST PUSH2 0xE0D DUP11 DUP11 DUP11 PUSH2 0x11DB JUMP JUMPDEST POP POP POP POP POP POP POP POP POP POP JUMP JUMPDEST PUSH1 0x40 DUP1 MLOAD DUP1 DUP3 ADD SWAP1 SWAP2 MSTORE PUSH1 0x0 DUP1 DUP3 MSTORE PUSH1 0x20 DUP3 ADD MSTORE PUSH2 0xE37 DUP4 DUP4 PUSH2 0x1846 JUMP JUMPDEST SWAP4 SWAP3 POP POP POP JUMP JUMPDEST PUSH2 0xE46 PUSH2 0x12CB JUMP JUMPDEST PUSH1 0x1 PUSH1 0x1 PUSH1 0xA0 SHL SUB DUP2 AND PUSH2 0xE70 JUMPI PUSH1 0x40 MLOAD PUSH4 0x1E4FBDF7 PUSH1 0xE0 SHL DUP2 MSTORE PUSH1 0x0 PUSH1 0x4 DUP3 ADD MSTORE PUSH1 0x24 ADD PUSH2 0x6B3 JUMP JUMPDEST PUSH2 0x99A DUP2 PUSH2 0x1652 JUMP JUMPDEST CALLER PUSH1 0x0 SWAP1 DUP2 MSTORE PUSH1 0xC PUSH1 0x20 MSTORE PUSH1 0x40 SWAP1 KECCAK256 SLOAD PUSH1 0xFF AND DUP1 PUSH2 0xEA1 JUMPI POP PUSH1 0xB SLOAD PUSH1 0x1 PUSH1 0x1 PUSH1 0xA0 SHL SUB AND CALLER EQ JUMPDEST PUSH2 0xEBD JUMPI PUSH1 0x40 MLOAD PUSH3 0x461BCD PUSH1 0xE5 SHL DUP2 MSTORE PUSH1 0x4 ADD PUSH2 0x6B3 SWAP1 PUSH2 0x274F JUMP JUMPDEST PUSH1 0x1 PUSH1 0x1 PUSH1 0xA0 SHL SUB DUP3 AND PUSH2 0xEE3 JUMPI PUSH1 0x40 MLOAD PUSH3 0x461BCD PUSH1 0xE5 SHL DUP2 MSTORE PUSH1 0x4 ADD PUSH2 0x6B3 SWAP1 PUSH2 0x277F JUMP JUMPDEST PUSH1 0x0 DUP2 GT PUSH2 0xF03 JUMPI PUSH1 0x40 MLOAD PUSH3 0x461BCD PUSH1 0xE5 SHL DUP2 MSTORE PUSH1 0x4 ADD PUSH2 0x6B3 SWAP1 PUSH2 0x27B6 JUMP JUMPDEST PUSH11 0xA56FA5B99019A5C8000000 DUP2 PUSH1 0xE SLOAD PUSH2 0xF1D SWAP2 SWAP1 PUSH2 0x2801 JUMP JUMPDEST GT ISZERO PUSH2 0xF6B JUMPI PUSH1 0x40 MLOAD PUSH3 0x461BCD PUSH1 0xE5 SHL DUP2 MSTORE PUSH1 0x20 PUSH1 0x4 DUP3 ADD MSTORE PUSH1 0x1D PUSH1 0x24 DUP3 ADD MSTORE PUSH32 0x47616D65706C6179207265776172647320636170206578636565646564000000 PUSH1 0x44 DUP3 ADD MSTORE PUSH1 0x64 ADD PUSH2 0x6B3 JUMP JUMPDEST PUSH12 0x33B2E3C9FD0803CE8000000 DUP2 PUSH2 0xF82 PUSH1 0x2 SLOAD SWAP1 JUMP JUMPDEST PUSH2 0xF8C SWAP2 SWAP1 PUSH2 0x2801 JUMP JUMPDEST GT ISZERO PUSH2 0xFAA JUMPI PUSH1 0x40 MLOAD PUSH3 0x461BCD PUSH1 0xE5 SHL DUP2 MSTORE PUSH1 0x4 ADD PUSH2 0x6B3 SWAP1 PUSH2 0x2814 JUMP JUMPDEST DUP1 PUSH1 0xE PUSH1 0x0 DUP3 DUP3 SLOAD PUSH2 0xFBC SWAP2 SWAP1 PUSH2 0x2801 JUMP JUMPDEST SWAP1 SWAP2 SSTORE POP PUSH2 0xFCC SWAP1 POP DUP3 DUP3 PUSH2 0x11A5 JUMP JUMPDEST DUP2 PUSH1 0x1 PUSH1 0x1 PUSH1 0xA0 SHL SUB AND PUSH32 0x785744576493A526087542942E96639E7EB10C5B6F11F54B5399815751EABF29 DUP3 PUSH1 0x40 MLOAD PUSH2 0x806 SWAP2 DUP2 MSTORE PUSH1 0x20 ADD SWAP1 JUMP JUMPDEST CALLER PUSH1 0x0 SWAP1 DUP2 MSTORE PUSH1 0xC PUSH1 0x20 MSTORE PUSH1 0x40 SWAP1 KECCAK256 SLOAD PUSH1 0xFF AND DUP1 PUSH2 0x102F JUMPI POP PUSH1 0xB SLOAD PUSH1 0x1 PUSH1 0x1 PUSH1 0xA0 SHL SUB AND CALLER EQ JUMPDEST PUSH2 0x104B JUMPI PUSH1 0x40 MLOAD PUSH3 0x461BCD PUSH1 0xE5 SHL DUP2 MSTORE PUSH1 0x4 ADD PUSH2 0x6B3 SWAP1 PUSH2 0x274F JUMP JUMPDEST PUSH1 0x1 PUSH1 0x1 PUSH1 0xA0 SHL SUB DUP3 AND PUSH2 0x1071 JUMPI PUSH1 0x40 MLOAD PUSH3 0x461BCD PUSH1 0xE5 SHL DUP2 MSTORE PUSH1 0x4 ADD PUSH2 0x6B3 SWAP1 PUSH2 0x277F JUMP JUMPDEST PUSH1 0x0 DUP2 GT PUSH2 0x1091 JUMPI PUSH1 0x40 MLOAD PUSH3 0x461BCD PUSH1 0xE5 SHL DUP2 MSTORE PUSH1 0x4 ADD PUSH2 0x6B3 SWAP1 PUSH2 0x27B6 JUMP JUMPDEST PUSH11 0x52B7D2DCC80CD2E4000000 DUP2 PUSH1 0xF SLOAD PUSH2 0x10AB SWAP2 SWAP1 PUSH2 0x2801 JUMP JUMPDEST GT ISZERO PUSH2 0x10F1 JUMPI PUSH1 0x40 MLOAD PUSH3 0x461BCD PUSH1 0xE5 SHL DUP2 MSTORE PUSH1 0x20 PUSH1 0x4 DUP3 ADD MSTORE PUSH1 0x15 PUSH1 0x24 DUP3 ADD MSTORE PUSH21 0x105A5C991C9BDC1CC818D85C08195E18D959591959 PUSH1 0x5A SHL PUSH1 0x44 DUP3 ADD MSTORE PUSH1 0x64 ADD PUSH2 0x6B3 JUMP JUMPDEST PUSH12 0x33B2E3C9FD0803CE8000000 DUP2 PUSH2 0x1108 PUSH1 0x2 SLOAD SWAP1 JUMP JUMPDEST PUSH2 0x1112 SWAP2 SWAP1 PUSH2 0x2801 JUMP JUMPDEST GT ISZERO PUSH2 0x1130 JUMPI PUSH1 0x40 MLOAD PUSH3 0x461BCD PUSH1 0xE5 SHL DUP2 MSTORE PUSH1 0x4 ADD PUSH2 0x6B3 SWAP1 PUSH2 0x2814 JUMP JUMPDEST DUP1 PUSH1 0xF PUSH1 0x0 DUP3 DUP3 SLOAD PUSH2 0x1142 SWAP2 SWAP1 PUSH2 0x2801 JUMP JUMPDEST SWAP1 SWAP2 SSTORE POP PUSH2 0x1152 SWAP1 POP DUP3 DUP3 PUSH2 0x11A5 JUMP JUMPDEST DUP2 PUSH1 0x1 PUSH1 0x1 PUSH1 0xA0 SHL SUB AND PUSH32 0xEF1585CD9743B170E77A247F0C35CD842DBB8B59CB1981BECBC26F7EC1A7FC56 DUP3 PUSH1 0x40 MLOAD PUSH2 0x806 SWAP2 DUP2 MSTORE PUSH1 0x20 ADD SWAP1 JUMP JUMPDEST PUSH1 0x0 PUSH2 0xE37 DUP3 DUP5 PUSH2 0x288E JUMP JUMPDEST PUSH1 0x0 PUSH2 0xE37 DUP3 DUP5 PUSH2 0x28B5 JUMP JUMPDEST PUSH1 0x1 PUSH1 0x1 PUSH1 0xA0 SHL SUB DUP3 AND PUSH2 0x11CF JUMPI PUSH1 0x40 MLOAD PUSH4 0xEC442F05 PUSH1 0xE0 SHL DUP2 MSTORE PUSH1 0x0 PUSH1 0x4 DUP3 ADD MSTORE PUSH1 0x24 ADD PUSH2 0x6B3 JUMP JUMPDEST PUSH2 0xA20 PUSH1 0x0 DUP4 DUP4 PUSH2 0x187C JUMP JUMPDEST PUSH2 0x11E8 DUP4 DUP4 DUP4 PUSH1 0x1 PUSH2 0x188F JUMP JUMPDEST POP POP POP JUMP JUMPDEST PUSH1 0x1 PUSH1 0x1 PUSH1 0xA0 SHL SUB DUP4 DUP2 AND PUSH1 0x0 SWAP1 DUP2 MSTORE PUSH1 0x1 PUSH1 0x20 SWAP1 DUP2 MSTORE PUSH1 0x40 DUP1 DUP4 KECCAK256 SWAP4 DUP7 AND DUP4 MSTORE SWAP3 SWAP1 MSTORE KECCAK256 SLOAD PUSH1 0x0 NOT DUP2 LT ISZERO PUSH2 0x1266 JUMPI DUP2 DUP2 LT ISZERO PUSH2 0x1257 JUMPI PUSH1 0x40 MLOAD PUSH4 0x7DC7A0D9 PUSH1 0xE1 SHL DUP2 MSTORE PUSH1 0x1 PUSH1 0x1 PUSH1 0xA0 SHL SUB DUP5 AND PUSH1 0x4 DUP3 ADD MSTORE PUSH1 0x24 DUP2 ADD DUP3 SWAP1 MSTORE PUSH1 0x44 DUP2 ADD DUP4 SWAP1 MSTORE PUSH1 0x64 ADD PUSH2 0x6B3 JUMP JUMPDEST PUSH2 0x1266 DUP5 DUP5 DUP5 DUP5 SUB PUSH1 0x0 PUSH2 0x188F JUMP JUMPDEST POP POP POP POP JUMP JUMPDEST PUSH1 0x1 PUSH1 0x1 PUSH1 0xA0 SHL SUB DUP4 AND PUSH2 0x1296 JUMPI PUSH1 0x40 MLOAD PUSH4 0x4B637E8F PUSH1 0xE1 SHL DUP2 MSTORE PUSH1 0x0 PUSH1 0x4 DUP3 ADD MSTORE PUSH1 0x24 ADD PUSH2 0x6B3 JUMP JUMPDEST PUSH1 0x1 PUSH1 0x1 PUSH1 0xA0 SHL SUB DUP3 AND PUSH2 0x12C0 JUMPI PUSH1 0x40 MLOAD PUSH4 0xEC442F05 PUSH1 0xE0 SHL DUP2 MSTORE PUSH1 0x0 PUSH1 0x4 DUP3 ADD MSTORE PUSH1 0x24 ADD PUSH2 0x6B3 JUMP JUMPDEST PUSH2 0x11E8 DUP4 DUP4 DUP4 PUSH2 0x187C JUMP JUMPDEST PUSH1 0xB SLOAD PUSH1 0x1 PUSH1 0x1 PUSH1 0xA0 SHL SUB AND CALLER EQ PUSH2 0x98E JUMPI PUSH1 0x40 MLOAD PUSH4 0x118CDAA7 PUSH1 0xE0 SHL DUP2 MSTORE CALLER PUSH1 0x4 DUP3 ADD MSTORE PUSH1 0x24 ADD PUSH2 0x6B3 JUMP JUMPDEST PUSH1 0x0 ADDRESS PUSH1 0x1 PUSH1 0x1 PUSH1 0xA0 SHL SUB PUSH32 0x0 AND EQ DUP1 ISZERO PUSH2 0x1351 JUMPI POP PUSH32 0x0 CHAINID EQ JUMPDEST ISZERO PUSH2 0x137B JUMPI POP PUSH32 0x0 SWAP1 JUMP JUMPDEST PUSH2 0x93D PUSH1 0x40 DUP1 MLOAD PUSH32 0x8B73C3C69BB8FE3D512ECC4CF759CC79239F7B179B0FFACAA9A75D522B39400F PUSH1 0x20 DUP3 ADD MSTORE PUSH32 0x0 SWAP2 DUP2 ADD SWAP2 SWAP1 SWAP2 MSTORE PUSH32 0x0 PUSH1 0x60 DUP3 ADD MSTORE CHAINID PUSH1 0x80 DUP3 ADD MSTORE ADDRESS PUSH1 0xA0 DUP3 ADD MSTORE PUSH1 0x0 SWAP1 PUSH1 0xC0 ADD PUSH1 0x40 MLOAD PUSH1 0x20 DUP2 DUP4 SUB SUB DUP2 MSTORE SWAP1 PUSH1 0x40 MSTORE DUP1 MLOAD SWAP1 PUSH1 0x20 ADD KECCAK256 SWAP1 POP SWAP1 JUMP JUMPDEST PUSH1 0x0 DUP1 PUSH2 0x142E PUSH2 0xB37 JUMP JUMPDEST SWAP1 POP DUP1 PUSH6 0xFFFFFFFFFFFF AND DUP4 LT PUSH2 0x1469 JUMPI PUSH1 0x40 MLOAD PUSH4 0x7669FC0F PUSH1 0xE1 SHL DUP2 MSTORE PUSH1 0x4 DUP2 ADD DUP5 SWAP1 MSTORE PUSH6 0xFFFFFFFFFFFF DUP3 AND PUSH1 0x24 DUP3 ADD MSTORE PUSH1 0x44 ADD PUSH2 0x6B3 JUMP JUMPDEST PUSH2 0xE37 DUP4 PUSH2 0x1964 JUMP JUMPDEST DUP2 SLOAD PUSH1 0x0 SWAP1 DUP2 DUP2 PUSH1 0x5 DUP2 GT ISZERO PUSH2 0x14D1 JUMPI PUSH1 0x0 PUSH2 0x148D DUP5 PUSH2 0x199B JUMP JUMPDEST PUSH2 0x1497 SWAP1 DUP6 PUSH2 0x287B JUMP JUMPDEST PUSH1 0x0 DUP9 DUP2 MSTORE PUSH1 0x20 SWAP1 KECCAK256 SWAP1 SWAP2 POP DUP2 ADD SLOAD PUSH6 0xFFFFFFFFFFFF SWAP1 DUP2 AND SWAP1 DUP8 AND LT ISZERO PUSH2 0x14C1 JUMPI DUP1 SWAP2 POP PUSH2 0x14CF JUMP JUMPDEST PUSH2 0x14CC DUP2 PUSH1 0x1 PUSH2 0x2801 JUMP JUMPDEST SWAP3 POP JUMPDEST POP JUMPDEST PUSH1 0x0 PUSH2 0x14DF DUP8 DUP8 DUP6 DUP6 PUSH2 0x1AF4 JUMP JUMPDEST SWAP1 POP DUP1 ISZERO PUSH2 0x151A JUMPI PUSH2 0x1504 DUP8 PUSH2 0x14F6 PUSH1 0x1 DUP5 PUSH2 0x287B JUMP JUMPDEST PUSH1 0x0 SWAP2 DUP3 MSTORE PUSH1 0x20 SWAP1 SWAP2 KECCAK256 ADD SWAP1 JUMP JUMPDEST SLOAD PUSH1 0x1 PUSH1 0x30 SHL SWAP1 DIV PUSH1 0x1 PUSH1 0x1 PUSH1 0xD0 SHL SUB AND PUSH2 0x151D JUMP JUMPDEST PUSH1 0x0 JUMPDEST SWAP8 SWAP7 POP POP POP POP POP POP POP JUMP JUMPDEST PUSH2 0x1530 PUSH2 0x1B56 JUMP JUMPDEST PUSH1 0xB DUP1 SLOAD PUSH1 0xFF PUSH1 0xA0 SHL NOT AND SWAP1 SSTORE PUSH32 0x5DB9EE0A495BF2E6FF9C91A7834C1BA4FDD244A5E8AA4E537BD38AEAE4B073AA CALLER JUMPDEST PUSH1 0x40 MLOAD PUSH1 0x1 PUSH1 0x1 PUSH1 0xA0 SHL SUB SWAP1 SWAP2 AND DUP2 MSTORE PUSH1 0x20 ADD PUSH1 0x40 MLOAD DUP1 SWAP2 SUB SWAP1 LOG1 JUMP JUMPDEST PUSH1 0x1 PUSH1 0x1 PUSH1 0xA0 SHL SUB DUP3 AND PUSH2 0x15A7 JUMPI PUSH1 0x40 MLOAD PUSH4 0x4B637E8F PUSH1 0xE1 SHL DUP2 MSTORE PUSH1 0x0 PUSH1 0x4 DUP3 ADD MSTORE PUSH1 0x24 ADD PUSH2 0x6B3 JUMP JUMPDEST PUSH2 0xA20 DUP3 PUSH1 0x0 DUP4 PUSH2 0x187C JUMP JUMPDEST PUSH1 0x0 PUSH2 0x93D NUMBER PUSH2 0x1964 JUMP JUMPDEST PUSH1 0x1 PUSH1 0x1 PUSH1 0xA0 SHL SUB DUP3 DUP2 AND PUSH1 0x0 DUP2 DUP2 MSTORE PUSH1 0x8 PUSH1 0x20 MSTORE PUSH1 0x40 DUP1 DUP3 KECCAK256 DUP1 SLOAD DUP7 DUP7 AND PUSH1 0x1 PUSH1 0x1 PUSH1 0xA0 SHL SUB NOT DUP3 AND DUP2 OR SWAP1 SWAP3 SSTORE SWAP2 MLOAD SWAP2 SWAP1 SWAP5 AND SWAP4 SWAP3 DUP5 SWAP3 SWAP1 SWAP2 PUSH32 0x3134E8A2E6D97E929A7E54011EA5485D7D196DD5F0BA4D4EF95803E8E3FC257F SWAP2 SWAP1 LOG4 PUSH2 0x11E8 DUP2 DUP4 PUSH2 0x162B DUP7 PUSH2 0x1B80 JUMP JUMPDEST PUSH2 0x1B9E JUMP JUMPDEST PUSH1 0x1 PUSH1 0x1 PUSH1 0xA0 SHL SUB DUP2 AND PUSH1 0x0 SWAP1 DUP2 MSTORE PUSH1 0x9 PUSH1 0x20 MSTORE PUSH1 0x40 DUP2 KECCAK256 SLOAD PUSH2 0x8B8 SWAP1 PUSH2 0x1D0A JUMP JUMPDEST PUSH1 0xB DUP1 SLOAD PUSH1 0x1 PUSH1 0x1 PUSH1 0xA0 SHL SUB DUP4 DUP2 AND PUSH1 0x1 PUSH1 0x1 PUSH1 0xA0 SHL SUB NOT DUP4 AND DUP2 OR SWAP1 SWAP4 SSTORE PUSH1 0x40 MLOAD SWAP2 AND SWAP2 SWAP1 DUP3 SWAP1 PUSH32 0x8BE0079C531659141344CD1FD0A4F28419497F9722A3DAAFE3B4186F6B6457E0 SWAP1 PUSH1 0x0 SWAP1 LOG3 POP POP JUMP JUMPDEST PUSH1 0x1 PUSH1 0x1 PUSH1 0xA0 SHL SUB DUP2 AND PUSH1 0x0 SWAP1 DUP2 MSTORE PUSH1 0x7 PUSH1 0x20 MSTORE PUSH1 0x40 DUP2 KECCAK256 SLOAD PUSH2 0x8B8 JUMP JUMPDEST PUSH2 0x16CA PUSH2 0x1D3B JUMP JUMPDEST PUSH1 0xB DUP1 SLOAD PUSH1 0xFF PUSH1 0xA0 SHL NOT AND PUSH1 0x1 PUSH1 0xA0 SHL OR SWAP1 SSTORE PUSH32 0x62E78CEA01BEE320CD4E420270B5EA74000D11B0C9F74754EBDBFC544B05A258 PUSH2 0x1560 CALLER SWAP1 JUMP JUMPDEST PUSH1 0x60 PUSH2 0x93D PUSH32 0x0 PUSH1 0x5 PUSH2 0x1D66 JUMP JUMPDEST PUSH1 0x60 PUSH2 0x93D PUSH32 0x0 PUSH1 0x6 PUSH2 0x1D66 JUMP JUMPDEST DUP1 SLOAD PUSH1 0x0 SWAP1 DUP1 ISZERO PUSH2 0x178F JUMPI PUSH2 0x1779 DUP4 PUSH2 0x14F6 PUSH1 0x1 DUP5 PUSH2 0x287B JUMP JUMPDEST SLOAD PUSH1 0x1 PUSH1 0x30 SHL SWAP1 DIV PUSH1 0x1 PUSH1 0x1 PUSH1 0xD0 SHL SUB AND PUSH2 0xE37 JUMP JUMPDEST PUSH1 0x0 SWAP4 SWAP3 POP POP POP JUMP JUMPDEST PUSH1 0x0 PUSH2 0x8B8 PUSH2 0x17A5 PUSH2 0x12F8 JUMP JUMPDEST DUP4 PUSH1 0x40 MLOAD PUSH2 0x1901 PUSH1 0xF0 SHL DUP2 MSTORE PUSH1 0x2 DUP2 ADD SWAP3 SWAP1 SWAP3 MSTORE PUSH1 0x22 DUP3 ADD MSTORE PUSH1 0x42 SWAP1 KECCAK256 SWAP1 JUMP JUMPDEST PUSH1 0x0 DUP1 PUSH1 0x0 DUP1 PUSH2 0x17D7 DUP9 DUP9 DUP9 DUP9 PUSH2 0x1E11 JUMP JUMPDEST SWAP3 POP SWAP3 POP SWAP3 POP PUSH2 0x17E7 DUP3 DUP3 PUSH2 0x1EE0 JUMP JUMPDEST POP SWAP1 SWAP7 SWAP6 POP POP POP POP POP POP JUMP JUMPDEST PUSH1 0x1 PUSH1 0x1 PUSH1 0xA0 SHL SUB DUP3 AND PUSH1 0x0 SWAP1 DUP2 MSTORE PUSH1 0x7 PUSH1 0x20 MSTORE PUSH1 0x40 SWAP1 KECCAK256 DUP1 SLOAD PUSH1 0x1 DUP2 ADD SWAP1 SWAP2 SSTORE DUP2 DUP2 EQ PUSH2 0x11E8 JUMPI PUSH1 0x40 MLOAD PUSH4 0x1D4B623 PUSH1 0xE6 SHL DUP2 MSTORE PUSH1 0x1 PUSH1 0x1 PUSH1 0xA0 SHL SUB DUP5 AND PUSH1 0x4 DUP3 ADD MSTORE PUSH1 0x24 DUP2 ADD DUP3 SWAP1 MSTORE PUSH1 0x44 ADD PUSH2 0x6B3 JUMP JUMPDEST PUSH1 0x40 DUP1 MLOAD DUP1 DUP3 ADD SWAP1 SWAP2 MSTORE PUSH1 0x0 DUP1 DUP3 MSTORE PUSH1 0x20 DUP3 ADD MSTORE PUSH1 0x1 PUSH1 0x1 PUSH1 0xA0 SHL SUB DUP4 AND PUSH1 0x0 SWAP1 DUP2 MSTORE PUSH1 0x9 PUSH1 0x20 MSTORE PUSH1 0x40 SWAP1 KECCAK256 PUSH2 0xE37 SWAP1 DUP4 PUSH2 0x1F99 JUMP JUMPDEST PUSH2 0x1884 PUSH2 0x1D3B JUMP JUMPDEST PUSH2 0x11E8 DUP4 DUP4 DUP4 PUSH2 0x2009 JUMP JUMPDEST PUSH1 0x1 PUSH1 0x1 PUSH1 0xA0 SHL SUB DUP5 AND PUSH2 0x18B9 JUMPI PUSH1 0x40 MLOAD PUSH4 0xE602DF05 PUSH1 0xE0 SHL DUP2 MSTORE PUSH1 0x0 PUSH1 0x4 DUP3 ADD MSTORE PUSH1 0x24 ADD PUSH2 0x6B3 JUMP JUMPDEST PUSH1 0x1 PUSH1 0x1 PUSH1 0xA0 SHL SUB DUP4 AND PUSH2 0x18E3 JUMPI PUSH1 0x40 MLOAD PUSH4 0x4A1406B1 PUSH1 0xE1 SHL DUP2 MSTORE PUSH1 0x0 PUSH1 0x4 DUP3 ADD MSTORE PUSH1 0x24 ADD PUSH2 0x6B3 JUMP JUMPDEST PUSH1 0x1 PUSH1 0x1 PUSH1 0xA0 SHL SUB DUP1 DUP6 AND PUSH1 0x0 SWAP1 DUP2 MSTORE PUSH1 0x1 PUSH1 0x20 SWAP1 DUP2 MSTORE PUSH1 0x40 DUP1 DUP4 KECCAK256 SWAP4 DUP8 AND DUP4 MSTORE SWAP3 SWAP1 MSTORE KECCAK256 DUP3 SWAP1 SSTORE DUP1 ISZERO PUSH2 0x1266 JUMPI DUP3 PUSH1 0x1 PUSH1 0x1 PUSH1 0xA0 SHL SUB AND DUP5 PUSH1 0x1 PUSH1 0x1 PUSH1 0xA0 SHL SUB AND PUSH32 0x8C5BE1E5EBEC7D5BD14F71427D1E84F3DD0314C0F7B2291E5B200AC8C7C3B925 DUP5 PUSH1 0x40 MLOAD PUSH2 0x1956 SWAP2 DUP2 MSTORE PUSH1 0x20 ADD SWAP1 JUMP JUMPDEST PUSH1 0x40 MLOAD DUP1 SWAP2 SUB SWAP1 LOG3 POP POP POP POP JUMP JUMPDEST PUSH1 0x0 PUSH6 0xFFFFFFFFFFFF DUP3 GT ISZERO PUSH2 0x1997 JUMPI PUSH1 0x40 MLOAD PUSH4 0x6DFCC65 PUSH1 0xE4 SHL DUP2 MSTORE PUSH1 0x30 PUSH1 0x4 DUP3 ADD MSTORE PUSH1 0x24 DUP2 ADD DUP4 SWAP1 MSTORE PUSH1 0x44 ADD PUSH2 0x6B3 JUMP JUMPDEST POP SWAP1 JUMP JUMPDEST PUSH1 0x0 PUSH1 0x1 DUP3 GT PUSH2 0x19A9 JUMPI POP SWAP1 JUMP JUMPDEST DUP2 PUSH1 0x1 PUSH1 0x1 PUSH1 0x80 SHL DUP3 LT PUSH2 0x19C2 JUMPI PUSH1 0x80 SWAP2 SWAP1 SWAP2 SHR SWAP1 PUSH1 0x40 SHL JUMPDEST PUSH9 0x10000000000000000 DUP3 LT PUSH2 0x19DD JUMPI PUSH1 0x40 SWAP2 SWAP1 SWAP2 SHR SWAP1 PUSH1 0x20 SHL JUMPDEST PUSH5 0x100000000 DUP3 LT PUSH2 0x19F4 JUMPI PUSH1 0x20 SWAP2 SWAP1 SWAP2 SHR SWAP1 PUSH1 0x10 SHL JUMPDEST PUSH3 0x10000 DUP3 LT PUSH2 0x1A09 JUMPI PUSH1 0x10 SWAP2 SWAP1 SWAP2 SHR SWAP1 PUSH1 0x8 SHL JUMPDEST PUSH2 0x100 DUP3 LT PUSH2 0x1A1D JUMPI PUSH1 0x8 SWAP2 SWAP1 SWAP2 SHR SWAP1 PUSH1 0x4 SHL JUMPDEST PUSH1 0x10 DUP3 LT PUSH2 0x1A30 JUMPI PUSH1 0x4 SWAP2 SWAP1 SWAP2 SHR SWAP1 PUSH1 0x2 SHL JUMPDEST PUSH1 0x4 DUP3 LT PUSH2 0x1A3C JUMPI PUSH1 0x1 SHL JUMPDEST PUSH1 0x3 MUL PUSH1 0x1 SWAP1 DUP2 SHR SWAP1 DUP2 DUP6 DUP2 PUSH2 0x1A54 JUMPI PUSH2 0x1A54 PUSH2 0x28D5 JUMP JUMPDEST DIV DUP3 ADD SWAP1 SHR SWAP1 POP PUSH1 0x1 DUP2 DUP6 DUP2 PUSH2 0x1A6C JUMPI PUSH2 0x1A6C PUSH2 0x28D5 JUMP JUMPDEST DIV DUP3 ADD SWAP1 SHR SWAP1 POP PUSH1 0x1 DUP2 DUP6 DUP2 PUSH2 0x1A84 JUMPI PUSH2 0x1A84 PUSH2 0x28D5 JUMP JUMPDEST DIV DUP3 ADD SWAP1 SHR SWAP1 POP PUSH1 0x1 DUP2 DUP6 DUP2 PUSH2 0x1A9C JUMPI PUSH2 0x1A9C PUSH2 0x28D5 JUMP JUMPDEST DIV DUP3 ADD SWAP1 SHR SWAP1 POP PUSH1 0x1 DUP2 DUP6 DUP2 PUSH2 0x1AB4 JUMPI PUSH2 0x1AB4 PUSH2 0x28D5 JUMP JUMPDEST DIV DUP3 ADD SWAP1 SHR SWAP1 POP PUSH1 0x1 DUP2 DUP6 DUP2 PUSH2 0x1ACC JUMPI PUSH2 0x1ACC PUSH2 0x28D5 JUMP JUMPDEST DIV DUP3 ADD SWAP1 SHR SWAP1 POP PUSH2 0x1AEB DUP2 DUP6 DUP2 PUSH2 0x1AE5 JUMPI PUSH2 0x1AE5 PUSH2 0x28D5 JUMP JUMPDEST DIV DUP3 GT SWAP1 JUMP JUMPDEST SWAP1 SUB SWAP4 SWAP3 POP POP POP JUMP JUMPDEST PUSH1 0x0 JUMPDEST DUP2 DUP4 LT ISZERO PUSH2 0x1B4E JUMPI PUSH1 0x0 PUSH2 0x1B0B DUP5 DUP5 PUSH2 0x2070 JUMP JUMPDEST PUSH1 0x0 DUP8 DUP2 MSTORE PUSH1 0x20 SWAP1 KECCAK256 SWAP1 SWAP2 POP PUSH6 0xFFFFFFFFFFFF DUP7 AND SWAP1 DUP3 ADD SLOAD PUSH6 0xFFFFFFFFFFFF AND GT ISZERO PUSH2 0x1B3A JUMPI DUP1 SWAP3 POP PUSH2 0x1B48 JUMP JUMPDEST PUSH2 0x1B45 DUP2 PUSH1 0x1 PUSH2 0x2801 JUMP JUMPDEST SWAP4 POP JUMPDEST POP PUSH2 0x1AF7 JUMP JUMPDEST POP SWAP4 SWAP3 POP POP POP JUMP JUMPDEST PUSH1 0xB SLOAD PUSH1 0x1 PUSH1 0xA0 SHL SWAP1 DIV PUSH1 0xFF AND PUSH2 0x98E JUMPI PUSH1 0x40 MLOAD PUSH4 0x8DFC202B PUSH1 0xE0 SHL DUP2 MSTORE PUSH1 0x4 ADD PUSH1 0x40 MLOAD DUP1 SWAP2 SUB SWAP1 REVERT JUMPDEST PUSH1 0x1 PUSH1 0x1 PUSH1 0xA0 SHL SUB DUP2 AND PUSH1 0x0 SWAP1 DUP2 MSTORE PUSH1 0x20 DUP2 SWAP1 MSTORE PUSH1 0x40 DUP2 KECCAK256 SLOAD PUSH2 0x8B8 JUMP JUMPDEST DUP2 PUSH1 0x1 PUSH1 0x1 PUSH1 0xA0 SHL SUB AND DUP4 PUSH1 0x1 PUSH1 0x1 PUSH1 0xA0 SHL SUB AND EQ ISZERO DUP1 ISZERO PUSH2 0x1BC0 JUMPI POP PUSH1 0x0 DUP2 GT JUMPDEST ISZERO PUSH2 0x11E8 JUMPI PUSH1 0x1 PUSH1 0x1 PUSH1 0xA0 SHL SUB DUP4 AND ISZERO PUSH2 0x1C68 JUMPI PUSH1 0x1 PUSH1 0x1 PUSH1 0xA0 SHL SUB DUP4 AND PUSH1 0x0 SWAP1 DUP2 MSTORE PUSH1 0x9 PUSH1 0x20 MSTORE PUSH1 0x40 DUP2 KECCAK256 DUP2 SWAP1 PUSH2 0x1C03 SWAP1 PUSH2 0x1199 PUSH2 0x1BFE DUP7 PUSH2 0x208B JUMP JUMPDEST PUSH2 0x20BF JUMP JUMPDEST PUSH1 0x1 PUSH1 0x1 PUSH1 0xD0 SHL SUB AND SWAP2 POP PUSH1 0x1 PUSH1 0x1 PUSH1 0xD0 SHL SUB AND SWAP2 POP DUP5 PUSH1 0x1 PUSH1 0x1 PUSH1 0xA0 SHL SUB AND PUSH32 0xDEC2BACDD2F05B59DE34DA9B523DFF8BE42E5E38E818C82FDB0BAE774387A724 DUP4 DUP4 PUSH1 0x40 MLOAD PUSH2 0x1C5D SWAP3 SWAP2 SWAP1 SWAP2 DUP3 MSTORE PUSH1 0x20 DUP3 ADD MSTORE PUSH1 0x40 ADD SWAP1 JUMP JUMPDEST PUSH1 0x40 MLOAD DUP1 SWAP2 SUB SWAP1 LOG2 POP POP JUMPDEST PUSH1 0x1 PUSH1 0x1 PUSH1 0xA0 SHL SUB DUP3 AND ISZERO PUSH2 0x11E8 JUMPI PUSH1 0x1 PUSH1 0x1 PUSH1 0xA0 SHL SUB DUP3 AND PUSH1 0x0 SWAP1 DUP2 MSTORE PUSH1 0x9 PUSH1 0x20 MSTORE PUSH1 0x40 DUP2 KECCAK256 DUP2 SWAP1 PUSH2 0x1CA1 SWAP1 PUSH2 0x118D PUSH2 0x1BFE DUP7 PUSH2 0x208B JUMP JUMPDEST PUSH1 0x1 PUSH1 0x1 PUSH1 0xD0 SHL SUB AND SWAP2 POP PUSH1 0x1 PUSH1 0x1 PUSH1 0xD0 SHL SUB AND SWAP2 POP DUP4 PUSH1 0x1 PUSH1 0x1 PUSH1 0xA0 SHL SUB AND PUSH32 0xDEC2BACDD2F05B59DE34DA9B523DFF8BE42E5E38E818C82FDB0BAE774387A724 DUP4 DUP4 PUSH1 0x40 MLOAD PUSH2 0x1CFB SWAP3 SWAP2 SWAP1 SWAP2 DUP3 MSTORE PUSH1 0x20 DUP3 ADD MSTORE PUSH1 0x40 ADD SWAP1 JUMP JUMPDEST PUSH1 0x40 MLOAD DUP1 SWAP2 SUB SWAP1 LOG2 POP POP POP POP POP JUMP JUMPDEST PUSH1 0x0 PUSH4 0xFFFFFFFF DUP3 GT ISZERO PUSH2 0x1997 JUMPI PUSH1 0x40 MLOAD PUSH4 0x6DFCC65 PUSH1 0xE4 SHL DUP2 MSTORE PUSH1 0x20 PUSH1 0x4 DUP3 ADD MSTORE PUSH1 0x24 DUP2 ADD DUP4 SWAP1 MSTORE PUSH1 0x44 ADD PUSH2 0x6B3 JUMP JUMPDEST PUSH1 0xB SLOAD PUSH1 0x1 PUSH1 0xA0 SHL SWAP1 DIV PUSH1 0xFF AND ISZERO PUSH2 0x98E JUMPI PUSH1 0x40 MLOAD PUSH4 0xD93C0665 PUSH1 0xE0 SHL DUP2 MSTORE PUSH1 0x4 ADD PUSH1 0x40 MLOAD DUP1 SWAP2 SUB SWAP1 REVERT JUMPDEST PUSH1 0x60 PUSH1 0xFF DUP4 EQ PUSH2 0x1D80 JUMPI PUSH2 0x1D79 DUP4 PUSH2 0x20F8 JUMP JUMPDEST SWAP1 POP PUSH2 0x8B8 JUMP JUMPDEST DUP2 DUP1 SLOAD PUSH2 0x1D8C SWAP1 PUSH2 0x2841 JUMP JUMPDEST DUP1 PUSH1 0x1F ADD PUSH1 0x20 DUP1 SWAP2 DIV MUL PUSH1 0x20 ADD PUSH1 0x40 MLOAD SWAP1 DUP2 ADD PUSH1 0x40 MSTORE DUP1 SWAP3 SWAP2 SWAP1 DUP2 DUP2 MSTORE PUSH1 0x20 ADD DUP3 DUP1 SLOAD PUSH2 0x1DB8 SWAP1 PUSH2 0x2841 JUMP JUMPDEST DUP1 ISZERO PUSH2 0x1E05 JUMPI DUP1 PUSH1 0x1F LT PUSH2 0x1DDA JUMPI PUSH2 0x100 DUP1 DUP4 SLOAD DIV MUL DUP4 MSTORE SWAP2 PUSH1 0x20 ADD SWAP2 PUSH2 0x1E05 JUMP JUMPDEST DUP3 ADD SWAP2 SWAP1 PUSH1 0x0 MSTORE PUSH1 0x20 PUSH1 0x0 KECCAK256 SWAP1 JUMPDEST DUP2 SLOAD DUP2 MSTORE SWAP1 PUSH1 0x1 ADD SWAP1 PUSH1 0x20 ADD DUP1 DUP4 GT PUSH2 0x1DE8 JUMPI DUP3 SWAP1 SUB PUSH1 0x1F AND DUP3 ADD SWAP2 JUMPDEST POP POP POP POP POP SWAP1 POP PUSH2 0x8B8 JUMP JUMPDEST PUSH1 0x0 DUP1 DUP1 PUSH32 0x7FFFFFFFFFFFFFFFFFFFFFFFFFFFFFFF5D576E7357A4501DDFE92F46681B20A0 DUP5 GT ISZERO PUSH2 0x1E4C JUMPI POP PUSH1 0x0 SWAP2 POP PUSH1 0x3 SWAP1 POP DUP3 PUSH2 0x1ED6 JUMP JUMPDEST PUSH1 0x40 DUP1 MLOAD PUSH1 0x0 DUP1 DUP3 MSTORE PUSH1 0x20 DUP3 ADD DUP1 DUP5 MSTORE DUP11 SWAP1 MSTORE PUSH1 0xFF DUP10 AND SWAP3 DUP3 ADD SWAP3 SWAP1 SWAP3 MSTORE PUSH1 0x60 DUP2 ADD DUP8 SWAP1 MSTORE PUSH1 0x80 DUP2 ADD DUP7 SWAP1 MSTORE PUSH1 0x1 SWAP1 PUSH1 0xA0 ADD PUSH1 0x20 PUSH1 0x40 MLOAD PUSH1 0x20 DUP2 SUB SWAP1 DUP1 DUP5 SUB SWAP1 DUP6 GAS STATICCALL ISZERO DUP1 ISZERO PUSH2 0x1EA0 JUMPI RETURNDATASIZE PUSH1 0x0 DUP1 RETURNDATACOPY RETURNDATASIZE PUSH1 0x0 REVERT JUMPDEST POP POP PUSH1 0x40 MLOAD PUSH1 0x1F NOT ADD MLOAD SWAP2 POP POP PUSH1 0x1 PUSH1 0x1 PUSH1 0xA0 SHL SUB DUP2 AND PUSH2 0x1ECC JUMPI POP PUSH1 0x0 SWAP3 POP PUSH1 0x1 SWAP2 POP DUP3 SWAP1 POP PUSH2 0x1ED6 JUMP JUMPDEST SWAP3 POP PUSH1 0x0 SWAP2 POP DUP2 SWAP1 POP JUMPDEST SWAP5 POP SWAP5 POP SWAP5 SWAP2 POP POP JUMP JUMPDEST PUSH1 0x0 DUP3 PUSH1 0x3 DUP2 GT ISZERO PUSH2 0x1EF4 JUMPI PUSH2 0x1EF4 PUSH2 0x28EB JUMP JUMPDEST SUB PUSH2 0x1EFD JUMPI POP POP JUMP JUMPDEST PUSH1 0x1 DUP3 PUSH1 0x3 DUP2 GT ISZERO PUSH2 0x1F11 JUMPI PUSH2 0x1F11 PUSH2 0x28EB JUMP JUMPDEST SUB PUSH2 0x1F2F JUMPI PUSH1 0x40 MLOAD PUSH4 0xF645EEDF PUSH1 0xE0 SHL DUP2 MSTORE PUSH1 0x4 ADD PUSH1 0x40 MLOAD DUP1 SWAP2 SUB SWAP1 REVERT JUMPDEST PUSH1 0x2 DUP3 PUSH1 0x3 DUP2 GT ISZERO PUSH2 0x1F43 JUMPI PUSH2 0x1F43 PUSH2 0x28EB JUMP JUMPDEST SUB PUSH2 0x1F64 JUMPI PUSH1 0x40 MLOAD PUSH4 0xFCE698F7 PUSH1 0xE0 SHL DUP2 MSTORE PUSH1 0x4 DUP2 ADD DUP3 SWAP1 MSTORE PUSH1 0x24 ADD PUSH2 0x6B3 JUMP JUMPDEST PUSH1 0x3 DUP3 PUSH1 0x3 DUP2 GT ISZERO PUSH2 0x1F78 JUMPI PUSH2 0x1F78 PUSH2 0x28EB JUMP JUMPDEST SUB PUSH2 0xA20 JUMPI PUSH1 0x40 MLOAD PUSH4 0x35E2F383 PUSH1 0xE2 SHL DUP2 MSTORE PUSH1 0x4 DUP2 ADD DUP3 SWAP1 MSTORE PUSH1 0x24 ADD PUSH2 0x6B3 JUMP JUMPDEST PUSH1 0x40 DUP1 MLOAD DUP1 DUP3 ADD SWAP1 SWAP2 MSTORE PUSH1 0x0 DUP1 DUP3 MSTORE PUSH1 0x20 DUP3 ADD MSTORE DUP3 PUSH1 0x0 ADD DUP3 PUSH4 0xFFFFFFFF AND DUP2 SLOAD DUP2 LT PUSH2 0x1FC8 JUMPI PUSH2 0x1FC8 PUSH2 0x2901 JUMP JUMPDEST PUSH1 0x0 SWAP2 DUP3 MSTORE PUSH1 0x20 SWAP2 DUP3 SWAP1 KECCAK256 PUSH1 0x40 DUP1 MLOAD DUP1 DUP3 ADD SWAP1 SWAP2 MSTORE SWAP2 ADD SLOAD PUSH6 0xFFFFFFFFFFFF DUP2 AND DUP3 MSTORE PUSH1 0x1 PUSH1 0x30 SHL SWAP1 DIV PUSH1 0x1 PUSH1 0x1 PUSH1 0xD0 SHL SUB AND SWAP2 DUP2 ADD SWAP2 SWAP1 SWAP2 MSTORE SWAP4 SWAP3 POP POP POP JUMP JUMPDEST PUSH2 0x2014 DUP4 DUP4 DUP4 PUSH2 0x2137 JUMP JUMPDEST PUSH1 0x1 PUSH1 0x1 PUSH1 0xA0 SHL SUB DUP4 AND PUSH2 0x2065 JUMPI PUSH1 0x0 PUSH2 0x202D PUSH1 0x2 SLOAD SWAP1 JUMP JUMPDEST SWAP1 POP PUSH1 0x1 PUSH1 0x1 PUSH1 0xD0 SHL SUB DUP1 DUP3 GT ISZERO PUSH2 0x2062 JUMPI PUSH1 0x40 MLOAD PUSH4 0xE58AE93 PUSH1 0xE1 SHL DUP2 MSTORE PUSH1 0x4 DUP2 ADD DUP4 SWAP1 MSTORE PUSH1 0x24 DUP2 ADD DUP3 SWAP1 MSTORE PUSH1 0x44 ADD PUSH2 0x6B3 JUMP JUMPDEST POP POP JUMPDEST PUSH2 0x11E8 DUP4 DUP4 DUP4 PUSH2 0x2261 JUMP JUMPDEST PUSH1 0x0 PUSH2 0x207F PUSH1 0x2 DUP5 DUP5 XOR PUSH2 0x2917 JUMP JUMPDEST PUSH2 0xE37 SWAP1 DUP5 DUP5 AND PUSH2 0x2801 JUMP JUMPDEST PUSH1 0x0 PUSH1 0x1 PUSH1 0x1 PUSH1 0xD0 SHL SUB DUP3 GT ISZERO PUSH2 0x1997 JUMPI PUSH1 0x40 MLOAD PUSH4 0x6DFCC65 PUSH1 0xE4 SHL DUP2 MSTORE PUSH1 0xD0 PUSH1 0x4 DUP3 ADD MSTORE PUSH1 0x24 DUP2 ADD DUP4 SWAP1 MSTORE PUSH1 0x44 ADD PUSH2 0x6B3 JUMP JUMPDEST PUSH1 0x0 DUP1 PUSH2 0x20EB PUSH2 0x20CD PUSH2 0xB37 JUMP JUMPDEST PUSH2 0x20E3 PUSH2 0x20D9 DUP9 PUSH2 0x175F JUMP JUMPDEST DUP7 DUP9 PUSH4 0xFFFFFFFF AND JUMP JUMPDEST DUP8 SWAP2 SWAP1 PUSH2 0x22D7 JUMP JUMPDEST SWAP2 POP SWAP2 POP JUMPDEST SWAP4 POP SWAP4 SWAP2 POP POP JUMP JUMPDEST PUSH1 0x60 PUSH1 0x0 PUSH2 0x2105 DUP4 PUSH2 0x22E5 JUMP JUMPDEST PUSH1 0x40 DUP1 MLOAD PUSH1 0x20 DUP1 DUP3 MSTORE DUP2 DUP4 ADD SWAP1 SWAP3 MSTORE SWAP2 SWAP3 POP PUSH1 0x0 SWAP2 SWAP1 PUSH1 0x20 DUP3 ADD DUP2 DUP1 CALLDATASIZE DUP4 CALLDATACOPY POP POP POP SWAP2 DUP3 MSTORE POP PUSH1 0x20 DUP2 ADD SWAP3 SWAP1 SWAP3 MSTORE POP SWAP1 JUMP JUMPDEST PUSH1 0x1 PUSH1 0x1 PUSH1 0xA0 SHL SUB DUP4 AND PUSH2 0x2162 JUMPI DUP1 PUSH1 0x2 PUSH1 0x0 DUP3 DUP3 SLOAD PUSH2 0x2157 SWAP2 SWAP1 PUSH2 0x2801 JUMP JUMPDEST SWAP1 SWAP2 SSTORE POP PUSH2 0x21D4 SWAP1 POP JUMP JUMPDEST PUSH1 0x1 PUSH1 0x1 PUSH1 0xA0 SHL SUB DUP4 AND PUSH1 0x0 SWAP1 DUP2 MSTORE PUSH1 0x20 DUP2 SWAP1 MSTORE PUSH1 0x40 SWAP1 KECCAK256 SLOAD DUP2 DUP2 LT ISZERO PUSH2 0x21B5 JUMPI PUSH1 0x40 MLOAD PUSH4 0x391434E3 PUSH1 0xE2 SHL DUP2 MSTORE PUSH1 0x1 PUSH1 0x1 PUSH1 0xA0 SHL SUB DUP6 AND PUSH1 0x4 DUP3 ADD MSTORE PUSH1 0x24 DUP2 ADD DUP3 SWAP1 MSTORE PUSH1 0x44 DUP2 ADD DUP4 SWAP1 MSTORE PUSH1 0x64 ADD PUSH2 0x6B3 JUMP JUMPDEST PUSH1 0x1 PUSH1 0x1 PUSH1 0xA0 SHL SUB DUP5 AND PUSH1 0x0 SWAP1 DUP2 MSTORE PUSH1 0x20 DUP2 SWAP1 MSTORE PUSH1 0x40 SWAP1 KECCAK256 SWAP1 DUP3 SWAP1 SUB SWAP1 SSTORE JUMPDEST PUSH1 0x1 PUSH1 0x1 PUSH1 0xA0 SHL SUB DUP3 AND PUSH2 0x21F0 JUMPI PUSH1 0x2 DUP1 SLOAD DUP3 SWAP1 SUB SWAP1 SSTORE PUSH2 0x220F JUMP JUMPDEST PUSH1 0x1 PUSH1 0x1 PUSH1 0xA0 SHL SUB DUP3 AND PUSH1 0x0 SWAP1 DUP2 MSTORE PUSH1 0x20 DUP2 SWAP1 MSTORE PUSH1 0x40 SWAP1 KECCAK256 DUP1 SLOAD DUP3 ADD SWAP1 SSTORE JUMPDEST DUP2 PUSH1 0x1 PUSH1 0x1 PUSH1 0xA0 SHL SUB AND DUP4 PUSH1 0x1 PUSH1 0x1 PUSH1 0xA0 SHL SUB AND PUSH32 0xDDF252AD1BE2C89B69C2B068FC378DAA952BA7F163C4A11628F55A4DF523B3EF DUP4 PUSH1 0x40 MLOAD PUSH2 0x2254 SWAP2 DUP2 MSTORE PUSH1 0x20 ADD SWAP1 JUMP JUMPDEST PUSH1 0x40 MLOAD DUP1 SWAP2 SUB SWAP1 LOG3 POP POP POP JUMP JUMPDEST PUSH1 0x1 PUSH1 0x1 PUSH1 0xA0 SHL SUB DUP4 AND PUSH2 0x2283 JUMPI PUSH2 0x2280 PUSH1 0xA PUSH2 0x118D PUSH2 0x1BFE DUP5 PUSH2 0x208B JUMP JUMPDEST POP POP JUMPDEST PUSH1 0x1 PUSH1 0x1 PUSH1 0xA0 SHL SUB DUP3 AND PUSH2 0x22A5 JUMPI PUSH2 0x22A2 PUSH1 0xA PUSH2 0x1199 PUSH2 0x1BFE DUP5 PUSH2 0x208B JUMP JUMPDEST POP POP JUMPDEST PUSH1 0x1 PUSH1 0x1 PUSH1 0xA0 SHL SUB DUP4 DUP2 AND PUSH1 0x0 SWAP1 DUP2 MSTORE PUSH1 0x8 PUSH1 0x20 MSTORE PUSH1 0x40 DUP1 DUP3 KECCAK256 SLOAD DUP6 DUP5 AND DUP4 MSTORE SWAP2 KECCAK256 SLOAD PUSH2 0x11E8 SWAP3 SWAP2 DUP3 AND SWAP2 AND DUP4 PUSH2 0x1B9E JUMP JUMPDEST PUSH1 0x0 DUP1 PUSH2 0x20EB DUP6 DUP6 DUP6 PUSH2 0x230D JUMP JUMPDEST PUSH1 0x0 PUSH1 0xFF DUP3 AND PUSH1 0x1F DUP2 GT ISZERO PUSH2 0x8B8 JUMPI PUSH1 0x40 MLOAD PUSH4 0x2CD44AC3 PUSH1 0xE2 SHL DUP2 MSTORE PUSH1 0x4 ADD PUSH1 0x40 MLOAD DUP1 SWAP2 SUB SWAP1 REVERT JUMPDEST DUP3 SLOAD PUSH1 0x0 SWAP1 DUP2 SWAP1 DUP1 ISZERO PUSH2 0x2406 JUMPI PUSH1 0x0 PUSH2 0x232B DUP8 PUSH2 0x14F6 PUSH1 0x1 DUP6 PUSH2 0x287B JUMP JUMPDEST DUP1 SLOAD SWAP1 SWAP2 POP PUSH6 0xFFFFFFFFFFFF DUP1 DUP3 AND SWAP2 PUSH1 0x1 PUSH1 0x30 SHL SWAP1 DIV PUSH1 0x1 PUSH1 0x1 PUSH1 0xD0 SHL SUB AND SWAP1 DUP9 AND DUP3 GT ISZERO PUSH2 0x236E JUMPI PUSH1 0x40 MLOAD PUSH4 0x2520601D PUSH1 0xE0 SHL DUP2 MSTORE PUSH1 0x4 ADD PUSH1 0x40 MLOAD DUP1 SWAP2 SUB SWAP1 REVERT JUMPDEST DUP8 PUSH6 0xFFFFFFFFFFFF AND DUP3 PUSH6 0xFFFFFFFFFFFF AND SUB PUSH2 0x23A7 JUMPI DUP3 SLOAD PUSH6 0xFFFFFFFFFFFF AND PUSH1 0x1 PUSH1 0x30 SHL PUSH1 0x1 PUSH1 0x1 PUSH1 0xD0 SHL SUB DUP10 AND MUL OR DUP4 SSTORE PUSH2 0x23F8 JUMP JUMPDEST PUSH1 0x40 DUP1 MLOAD DUP1 DUP3 ADD SWAP1 SWAP2 MSTORE PUSH6 0xFFFFFFFFFFFF DUP1 DUP11 AND DUP3 MSTORE PUSH1 0x1 PUSH1 0x1 PUSH1 0xD0 SHL SUB DUP1 DUP11 AND PUSH1 0x20 DUP1 DUP6 ADD SWAP2 DUP3 MSTORE DUP14 SLOAD PUSH1 0x1 DUP2 ADD DUP16 SSTORE PUSH1 0x0 DUP16 DUP2 MSTORE SWAP2 SWAP1 SWAP2 KECCAK256 SWAP5 MLOAD SWAP2 MLOAD SWAP1 SWAP3 AND PUSH1 0x1 PUSH1 0x30 SHL MUL SWAP3 AND SWAP2 SWAP1 SWAP2 OR SWAP2 ADD SSTORE JUMPDEST SWAP5 POP DUP6 SWAP4 POP PUSH2 0x20F0 SWAP3 POP POP POP JUMP JUMPDEST POP POP PUSH1 0x40 DUP1 MLOAD DUP1 DUP3 ADD SWAP1 SWAP2 MSTORE PUSH6 0xFFFFFFFFFFFF DUP1 DUP6 AND DUP3 MSTORE PUSH1 0x1 PUSH1 0x1 PUSH1 0xD0 SHL SUB DUP1 DUP6 AND PUSH1 0x20 DUP1 DUP6 ADD SWAP2 DUP3 MSTORE DUP9 SLOAD PUSH1 0x1 DUP2 ADD DUP11 SSTORE PUSH1 0x0 DUP11 DUP2 MSTORE SWAP2 DUP3 KECCAK256 SWAP6 MLOAD SWAP3 MLOAD SWAP1 SWAP4 AND PUSH1 0x1 PUSH1 0x30 SHL MUL SWAP2 SWAP1 SWAP4 AND OR SWAP3 ADD SWAP2 SWAP1 SWAP2 SSTORE SWAP1 POP DUP2 PUSH2 0x20F0 JUMP JUMPDEST DUP1 CALLDATALOAD PUSH1 0x1 PUSH1 0x1 PUSH1 0xA0 SHL SUB DUP2 AND DUP2 EQ PUSH2 0x2478 JUMPI PUSH1 0x0 DUP1 REVERT JUMPDEST SWAP2 SWAP1 POP JUMP JUMPDEST PUSH1 0x0 DUP1 PUSH1 0x40 DUP4 DUP6 SUB SLT ISZERO PUSH2 0x2490 JUMPI PUSH1 0x0 DUP1 REVERT JUMPDEST PUSH2 0x2499 DUP4 PUSH2 0x2461 JUMP JUMPDEST SWAP5 PUSH1 0x20 SWAP4 SWAP1 SWAP4 ADD CALLDATALOAD SWAP4 POP POP POP JUMP JUMPDEST PUSH1 0x0 DUP2 MLOAD DUP1 DUP5 MSTORE PUSH1 0x0 JUMPDEST DUP2 DUP2 LT ISZERO PUSH2 0x24CD JUMPI PUSH1 0x20 DUP2 DUP6 ADD DUP2 ADD MLOAD DUP7 DUP4 ADD DUP3 ADD MSTORE ADD PUSH2 0x24B1 JUMP JUMPDEST POP PUSH1 0x0 PUSH1 0x20 DUP3 DUP7 ADD ADD MSTORE PUSH1 0x20 PUSH1 0x1F NOT PUSH1 0x1F DUP4 ADD AND DUP6 ADD ADD SWAP2 POP POP SWAP3 SWAP2 POP POP JUMP JUMPDEST PUSH1 0x20 DUP2 MSTORE PUSH1 0x0 PUSH2 0xE37 PUSH1 0x20 DUP4 ADD DUP5 PUSH2 0x24A7 JUMP JUMPDEST PUSH1 0x0 DUP1 PUSH1 0x0 PUSH1 0x60 DUP5 DUP7 SUB SLT ISZERO PUSH2 0x2515 JUMPI PUSH1 0x0 DUP1 REVERT JUMPDEST PUSH2 0x251E DUP5 PUSH2 0x2461 JUMP JUMPDEST SWAP3 POP PUSH2 0x252C PUSH1 0x20 DUP6 ADD PUSH2 0x2461 JUMP JUMPDEST SWAP2 POP PUSH1 0x40 DUP5 ADD CALLDATALOAD SWAP1 POP SWAP3 POP SWAP3 POP SWAP3 JUMP JUMPDEST PUSH1 0x0 PUSH1 0x20 DUP3 DUP5 SUB SLT ISZERO PUSH2 0x254E JUMPI PUSH1 0x0 DUP1 REVERT JUMPDEST PUSH2 0xE37 DUP3 PUSH2 0x2461 JUMP JUMPDEST PUSH1 0x0 PUSH1 0x20 DUP3 DUP5 SUB SLT ISZERO PUSH2 0x2569 JUMPI PUSH1 0x0 DUP1 REVERT JUMPDEST POP CALLDATALOAD SWAP2 SWAP1 POP JUMP JUMPDEST PUSH1 0xFF PUSH1 0xF8 SHL DUP9 AND DUP2 MSTORE PUSH1 0x0 PUSH1 0x20 PUSH1 0xE0 PUSH1 0x20 DUP5 ADD MSTORE PUSH2 0x2591 PUSH1 0xE0 DUP5 ADD DUP11 PUSH2 0x24A7 JUMP JUMPDEST DUP4 DUP2 SUB PUSH1 0x40 DUP6 ADD MSTORE PUSH2 0x25A3 DUP2 DUP11 PUSH2 0x24A7 JUMP JUMPDEST PUSH1 0x60 DUP6 ADD DUP10 SWAP1 MSTORE PUSH1 0x1 PUSH1 0x1 PUSH1 0xA0 SHL SUB DUP9 AND PUSH1 0x80 DUP7 ADD MSTORE PUSH1 0xA0 DUP6 ADD DUP8 SWAP1 MSTORE DUP5 DUP2 SUB PUSH1 0xC0 DUP7 ADD MSTORE DUP6 MLOAD DUP1 DUP3 MSTORE PUSH1 0x20 DUP1 DUP9 ADD SWAP4 POP SWAP1 SWAP2 ADD SWAP1 PUSH1 0x0 JUMPDEST DUP2 DUP2 LT ISZERO PUSH2 0x25F7 JUMPI DUP4 MLOAD DUP4 MSTORE SWAP3 DUP5 ADD SWAP3 SWAP2 DUP5 ADD SWAP2 PUSH1 0x1 ADD PUSH2 0x25DB JUMP JUMPDEST POP SWAP1 SWAP13 SWAP12 POP POP POP POP POP POP POP POP POP POP POP POP JUMP JUMPDEST DUP1 CALLDATALOAD PUSH1 0xFF DUP2 AND DUP2 EQ PUSH2 0x2478 JUMPI PUSH1 0x0 DUP1 REVERT JUMPDEST PUSH1 0x0 DUP1 PUSH1 0x0 DUP1 PUSH1 0x0 DUP1 PUSH1 0xC0 DUP8 DUP10 SUB SLT ISZERO PUSH2 0x2633 JUMPI PUSH1 0x0 DUP1 REVERT JUMPDEST PUSH2 0x263C DUP8 PUSH2 0x2461 JUMP JUMPDEST SWAP6 POP PUSH1 0x20 DUP8 ADD CALLDATALOAD SWAP5 POP PUSH1 0x40 DUP8 ADD CALLDATALOAD SWAP4 POP PUSH2 0x2658 PUSH1 0x60 DUP9 ADD PUSH2 0x2609 JUMP JUMPDEST SWAP3 POP PUSH1 0x80 DUP8 ADD CALLDATALOAD SWAP2 POP PUSH1 0xA0 DUP8 ADD CALLDATALOAD SWAP1 POP SWAP3 SWAP6 POP SWAP3 SWAP6 POP SWAP3 SWAP6 JUMP JUMPDEST PUSH1 0x0 DUP1 PUSH1 0x0 DUP1 PUSH1 0x0 DUP1 PUSH1 0x0 PUSH1 0xE0 DUP9 DUP11 SUB SLT ISZERO PUSH2 0x268D JUMPI PUSH1 0x0 DUP1 REVERT JUMPDEST PUSH2 0x2696 DUP9 PUSH2 0x2461 JUMP JUMPDEST SWAP7 POP PUSH2 0x26A4 PUSH1 0x20 DUP10 ADD PUSH2 0x2461 JUMP JUMPDEST SWAP6 POP PUSH1 0x40 DUP9 ADD CALLDATALOAD SWAP5 POP PUSH1 0x60 DUP9 ADD CALLDATALOAD SWAP4 POP PUSH2 0x26C0 PUSH1 0x80 DUP10 ADD PUSH2 0x2609 JUMP JUMPDEST SWAP3 POP PUSH1 0xA0 DUP9 ADD CALLDATALOAD SWAP2 POP PUSH1 0xC0 DUP9 ADD CALLDATALOAD SWAP1 POP SWAP3 SWAP6 SWAP9 SWAP2 SWAP5 SWAP8 POP SWAP3 SWAP6 POP JUMP JUMPDEST PUSH1 0x0 DUP1 PUSH1 0x40 DUP4 DUP6 SUB SLT ISZERO PUSH2 0x26EF JUMPI PUSH1 0x0 DUP1 REVERT JUMPDEST PUSH2 0x26F8 DUP4 PUSH2 0x2461 JUMP JUMPDEST SWAP2 POP PUSH2 0x2706 PUSH1 0x20 DUP5 ADD PUSH2 0x2461 JUMP JUMPDEST SWAP1 POP SWAP3 POP SWAP3 SWAP1 POP JUMP JUMPDEST PUSH1 0x0 DUP1 PUSH1 0x40 DUP4 DUP6 SUB SLT ISZERO PUSH2 0x2722 JUMPI PUSH1 0x0 DUP1 REVERT JUMPDEST PUSH2 0x272B DUP4 PUSH2 0x2461 JUMP JUMPDEST SWAP2 POP PUSH1 0x20 DUP4 ADD CALLDATALOAD PUSH4 0xFFFFFFFF DUP2 AND DUP2 EQ PUSH2 0x2744 JUMPI PUSH1 0x0 DUP1 REVERT JUMPDEST DUP1 SWAP2 POP POP SWAP3 POP SWAP3 SWAP1 POP JUMP JUMPDEST PUSH1 0x20 DUP1 DUP3 MSTORE PUSH1 0x16 SWAP1 DUP3 ADD MSTORE PUSH22 0x139BDD08185D5D1A1BDC9A5E9959081D1BC81B5A5B9D PUSH1 0x52 SHL PUSH1 0x40 DUP3 ADD MSTORE PUSH1 0x60 ADD SWAP1 JUMP JUMPDEST PUSH1 0x20 DUP1 DUP3 MSTORE PUSH1 0x1B SWAP1 DUP3 ADD MSTORE PUSH32 0x43616E6E6F74206D696E7420746F207A65726F20616464726573730000000000 PUSH1 0x40 DUP3 ADD MSTORE PUSH1 0x60 ADD SWAP1 JUMP JUMPDEST PUSH1 0x20 DUP1 DUP3 MSTORE DUP2 DUP2 ADD MSTORE PUSH32 0x416D6F756E74206D7573742062652067726561746572207468616E207A65726F PUSH1 0x40 DUP3 ADD MSTORE PUSH1 0x60 ADD SWAP1 JUMP JUMPDEST PUSH4 0x4E487B71 PUSH1 0xE0 SHL PUSH1 0x0 MSTORE PUSH1 0x11 PUSH1 0x4 MSTORE PUSH1 0x24 PUSH1 0x0 REVERT JUMPDEST DUP1 DUP3 ADD DUP1 DUP3 GT ISZERO PUSH2 0x8B8 JUMPI PUSH2 0x8B8 PUSH2 0x27EB JUMP JUMPDEST PUSH1 0x20 DUP1 DUP3 MSTORE PUSH1 0x13 SWAP1 DUP3 ADD MSTORE PUSH19 0x13585E081CDD5C1C1B1E48195E18D959591959 PUSH1 0x6A SHL PUSH1 0x40 DUP3 ADD MSTORE PUSH1 0x60 ADD SWAP1 JUMP JUMPDEST PUSH1 0x1 DUP2 DUP2 SHR SWAP1 DUP3 AND DUP1 PUSH2 0x2855 JUMPI PUSH1 0x7F DUP3 AND SWAP2 POP JUMPDEST PUSH1 0x20 DUP3 LT DUP2 SUB PUSH2 0x2875 JUMPI PUSH4 0x4E487B71 PUSH1 0xE0 SHL PUSH1 0x0 MSTORE PUSH1 0x22 PUSH1 0x4 MSTORE PUSH1 0x24 PUSH1 0x0 REVERT JUMPDEST POP SWAP2 SWAP1 POP JUMP JUMPDEST DUP2 DUP2 SUB DUP2 DUP2 GT ISZERO PUSH2 0x8B8 JUMPI PUSH2 0x8B8 PUSH2 0x27EB JUMP JUMPDEST PUSH1 0x1 PUSH1 0x1 PUSH1 0xD0 SHL SUB DUP2 DUP2 AND DUP4 DUP3 AND ADD SWAP1 DUP1 DUP3 GT ISZERO PUSH2 0x28AE JUMPI PUSH2 0x28AE PUSH2 0x27EB JUMP JUMPDEST POP SWAP3 SWAP2 POP POP JUMP JUMPDEST PUSH1 0x1 PUSH1 0x1 PUSH1 0xD0 SHL SUB DUP3 DUP2 AND DUP3 DUP3 AND SUB SWAP1 DUP1 DUP3 GT ISZERO PUSH2 0x28AE JUMPI PUSH2 0x28AE PUSH2 0x27EB JUMP JUMPDEST PUSH4 0x4E487B71 PUSH1 0xE0 SHL PUSH1 0x0 MSTORE PUSH1 0x12 PUSH1 0x4 MSTORE PUSH1 0x24 PUSH1 0x0 REVERT JUMPDEST PUSH4 0x4E487B71 PUSH1 0xE0 SHL PUSH1 0x0 MSTORE PUSH1 0x21 PUSH1 0x4 MSTORE PUSH1 0x24 PUSH1 0x0 REVERT JUMPDEST PUSH4 0x4E487B71 PUSH1 0xE0 SHL PUSH1 0x0 MSTORE PUSH1 0x32 PUSH1 0x4 MSTORE PUSH1 0x24 PUSH1 0x0 REVERT JUMPDEST PUSH1 0x0 DUP3 PUSH2 0x2934 JUMPI PUSH4 0x4E487B71 PUSH1 0xE0 SHL PUSH1 0x0 MSTORE PUSH1 0x12 PUSH1 0x4 MSTORE PUSH1 0x24 PUSH1 0x0 REVERT JUMPDEST POP DIV SWAP1 JUMP INVALID LOG2 PUSH5 0x6970667358 0x22 SLT KECCAK256 ORIGIN LOG0 EQ 0x2B 0xBF 0xBB 0xCD DUP14 0xAC OR 0xB2 0xA7 PUSH26 0xE097047FAF775B0E93C7BF41F32F71B0C6F3A364736F6C634300 ADDMOD XOR STOP CALLER 0xDE 0xC2 0xBA 0xCD 0xD2 CREATE JUMPDEST MSIZE 0xDE CALLVALUE 0xDA SWAP12 MSTORE RETURNDATASIZE SELFDESTRUCT DUP12 0xE4 0x2E MCOPY CODESIZE 0xE8 XOR 0xC8 0x2F 0xDB SIGNEXTEND 0xAE PUSH24 0x4387A7240000000000000000000000000000000000000000 "},"methodIdentifiers":{"AIRDROPS_CAP()":"d3ff1c3b","CLOCK_MODE()":"4bf5d7e9","DOMAIN_SEPARATOR()":"3644e515","GAMEPLAY_REWARDS_CAP()":"7664ce12","MAX_SUPPLY()":"32cb6b0c","STAKING_REWARDS_CAP()":"edc56cf5","addMinter(address)":"983b2d56","airdropsMinted()":"9e1ab91d","allowance(address,address)":"dd62ed3e","approve(address,uint256)":"095ea7b3","balanceOf(address)":"70a08231","burn(uint256)":"42966c68","burnFrom(address,uint256)":"79cc6790","checkpoints(address,uint32)":"f1127ed8","clock()":"91ddadf4","decimals()":"313ce567","delegate(address)":"5c19a95c","delegateBySig(address,uint256,uint256,uint8,bytes32,bytes32)":"c3cda520","delegates(address)":"587cde1e","eip712Domain()":"84b0196e","gameplayRewardsMinted()":"283fd37b","getPastTotalSupply(uint256)":"8e539e8c","getPastVotes(address,uint256)":"3a46b1a8","getRemainingMintable()":"6f97e31c","getVotes(address)":"9ab24eb0","mintAirdrop(address,uint256)":"fdd7c402","mintGameplayRewards(address,uint256)":"f82c29ae","mintStakingRewards(address,uint256)":"0194a7ca","minters(address)":"f46eccc4","name()":"06fdde03","nonces(address)":"7ecebe00","numCheckpoints(address)":"6fcfff45","owner()":"8da5cb5b","pause()":"8456cb59","paused()":"5c975abb","permit(address,address,uint256,uint256,uint8,bytes32,bytes32)":"d505accf","removeMinter(address)":"3092afd5","renounceOwnership()":"715018a6","stakingRewardsMinted()":"8a1e5601","symbol()":"95d89b41","totalSupply()":"18160ddd","transfer(address,uint256)":"a9059cbb","transferFrom(address,address,uint256)":"23b872dd","transferOwnership(address)":"f2fde38b","unpause()":"3f4ba83a"}}}}}