{"contracts/GrepStakingPool.sol":{"GrepStakingPool":{"abi":[{"inputs":[{"internalType":"address","name":"_grepToken","type":"address"}],"stateMutability":"nonpayable","type":"constructor"},{"inputs":[],"name":"EnforcedPause","type":"error"},{"inputs":[],"name":"ExpectedPause","type":"error"},{"inputs":[{"internalType":"address","name":"owner","type":"address"}],"name":"OwnableInvalidOwner","type":"error"},{"inputs":[{"internalType":"address","name":"account","type":"address"}],"name":"OwnableUnauthorizedAccount","type":"error"},{"inputs":[],"name":"ReentrancyGuardReentrantCall","type":"error"},{"inputs":[{"internalType":"address","name":"token","type":"address"}],"name":"SafeERC20FailedOperation","type":"error"},{"anonymous":false,"inputs":[{"indexed":true,"internalType":"address","name":"previousOwner","type":"address"},{"indexed":true,"internalType":"address","name":"newOwner","type":"address"}],"name":"OwnershipTransferred","type":"event"},{"anonymous":false,"inputs":[{"indexed":false,"internalType":"address","name":"account","type":"address"}],"name":"Paused","type":"event"},{"anonymous":false,"inputs":[{"indexed":false,"internalType":"uint256","name":"amount","type":"uint256"},{"indexed":true,"internalType":"address","name":"from","type":"address"}],"name":"RewardsAdded","type":"event"},{"anonymous":false,"inputs":[{"indexed":true,"internalType":"address","name":"user","type":"address"},{"indexed":false,"internalType":"uint256","name":"amount","type":"uint256"}],"name":"RewardsClaimed","type":"event"},{"anonymous":false,"inputs":[{"indexed":true,"internalType":"address","name":"user","type":"address"},{"indexed":false,"internalType":"uint256","name":"amount","type":"uint256"},{"indexed":false,"internalType":"enum GrepStakingPool.Tier","name":"tier","type":"uint8"},{"indexed":false,"internalType":"uint256","name":"lockedUntil","type":"uint256"}],"name":"Staked","type":"event"},{"anonymous":false,"inputs":[{"indexed":true,"internalType":"address","name":"user","type":"address"},{"indexed":false,"internalType":"enum GrepStakingPool.Tier","name":"oldTier","type":"uint8"},{"indexed":false,"internalType":"enum GrepStakingPool.Tier","name":"newTier","type":"uint8"}],"name":"TierUpgraded","type":"event"},{"anonymous":false,"inputs":[{"indexed":false,"internalType":"address","name":"account","type":"address"}],"name":"Unpaused","type":"event"},{"anonymous":false,"inputs":[{"indexed":true,"internalType":"address","name":"user","type":"address"},{"indexed":false,"internalType":"uint256","name":"amount","type":"uint256"}],"name":"Unstaked","type":"event"},{"inputs":[],"name":"accRewardPerShare","outputs":[{"internalType":"uint256","name":"","type":"uint256"}],"stateMutability":"view","type":"function"},{"inputs":[{"internalType":"uint256","name":"amount","type":"uint256"}],"name":"addRewards","outputs":[],"stateMutability":"nonpayable","type":"function"},{"inputs":[],"name":"claimRewards","outputs":[],"stateMutability":"nonpayable","type":"function"},{"inputs":[{"internalType":"address","name":"token","type":"address"},{"internalType":"uint256","name":"amount","type":"uint256"}],"name":"emergencyWithdraw","outputs":[],"stateMutability":"nonpayable","type":"function"},{"inputs":[],"name":"getPoolStats","outputs":[{"internalType":"uint256","name":"_totalStaked","type":"uint256"},{"internalType":"uint256","name":"_totalStakers","type":"uint256"},{"internalType":"uint256","name":"_rewardPool","type":"uint256"},{"internalType":"uint256","name":"_totalDistributed","type":"uint256"}],"stateMutability":"view","type":"function"},{"inputs":[{"internalType":"address","name":"user","type":"address"}],"name":"getStakeInfo","outputs":[{"components":[{"internalType":"uint256","name":"amount","type":"uint256"},{"internalType":"enum GrepStakingPool.Tier","name":"tier","type":"uint8"},{"internalType":"uint256","name":"stakedAt","type":"uint256"},{"internalType":"uint256","name":"lockedUntil","type":"uint256"},{"internalType":"uint256","name":"totalClaimed","type":"uint256"},{"internalType":"uint256","name":"pendingReward","type":"uint256"},{"internalType":"uint256","name":"rewardWeight","type":"uint256"},{"internalType":"uint256","name":"bonusPlays","type":"uint256"}],"internalType":"struct GrepStakingPool.FullStakeInfo","name":"info","type":"tuple"}],"stateMutability":"view","type":"function"},{"inputs":[{"internalType":"address","name":"user","type":"address"}],"name":"getUserBonusPlays","outputs":[{"internalType":"uint256","name":"","type":"uint256"}],"stateMutability":"view","type":"function"},{"inputs":[{"internalType":"address","name":"user","type":"address"}],"name":"getUserWeight","outputs":[{"internalType":"uint256","name":"","type":"uint256"}],"stateMutability":"view","type":"function"},{"inputs":[],"name":"grepToken","outputs":[{"internalType":"contract IERC20","name":"","type":"address"}],"stateMutability":"view","type":"function"},{"inputs":[],"name":"lastRewardTime","outputs":[{"internalType":"uint256","name":"","type":"uint256"}],"stateMutability":"view","type":"function"},{"inputs":[],"name":"owner","outputs":[{"internalType":"address","name":"","type":"address"}],"stateMutability":"view","type":"function"},{"inputs":[],"name":"pause","outputs":[],"stateMutability":"nonpayable","type":"function"},{"inputs":[],"name":"paused","outputs":[{"internalType":"bool","name":"","type":"bool"}],"stateMutability":"view","type":"function"},{"inputs":[{"internalType":"address","name":"user","type":"address"}],"name":"pendingRewards","outputs":[{"internalType":"uint256","name":"","type":"uint256"}],"stateMutability":"view","type":"function"},{"inputs":[],"name":"renounceOwnership","outputs":[],"stateMutability":"nonpayable","type":"function"},{"inputs":[],"name":"rewardPool","outputs":[{"internalType":"uint256","name":"","type":"uint256"}],"stateMutability":"view","type":"function"},{"inputs":[{"internalType":"uint256","name":"amount","type":"uint256"},{"internalType":"enum GrepStakingPool.Tier","name":"tier","type":"uint8"}],"name":"stake","outputs":[],"stateMutability":"nonpayable","type":"function"},{"inputs":[{"internalType":"address","name":"","type":"address"}],"name":"stakes","outputs":[{"internalType":"uint256","name":"amount","type":"uint256"},{"internalType":"enum GrepStakingPool.Tier","name":"tier","type":"uint8"},{"internalType":"uint256","name":"stakedAt","type":"uint256"},{"internalType":"uint256","name":"lockedUntil","type":"uint256"},{"internalType":"uint256","name":"rewardDebt","type":"uint256"},{"internalType":"uint256","name":"totalClaimed","type":"uint256"}],"stateMutability":"view","type":"function"},{"inputs":[{"internalType":"enum GrepStakingPool.Tier","name":"","type":"uint8"}],"name":"tierInfo","outputs":[{"internalType":"uint256","name":"minStake","type":"uint256"},{"internalType":"uint256","name":"lockDuration","type":"uint256"},{"internalType":"uint256","name":"rewardWeight","type":"uint256"},{"internalType":"uint256","name":"bonusPlays","type":"uint256"}],"stateMutability":"view","type":"function"},{"inputs":[],"name":"totalRewardsDistributed","outputs":[{"internalType":"uint256","name":"","type":"uint256"}],"stateMutability":"view","type":"function"},{"inputs":[],"name":"totalStaked","outputs":[{"internalType":"uint256","name":"","type":"uint256"}],"stateMutability":"view","type":"function"},{"inputs":[],"name":"totalStakers","outputs":[{"internalType":"uint256","name":"","type":"uint256"}],"stateMutability":"view","type":"function"},{"inputs":[],"name":"totalWeightedStake","outputs":[{"internalType":"uint256","name":"","type":"uint256"}],"stateMutability":"view","type":"function"},{"inputs":[{"internalType":"address","name":"newOwner","type":"address"}],"name":"transferOwnership","outputs":[],"stateMutability":"nonpayable","type":"function"},{"inputs":[],"name":"unpause","outputs":[],"stateMutability":"nonpayable","type":"function"},{"inputs":[],"name":"unstake","outputs":[],"stateMutability":"nonpayable","type":"function"}],"evm":{"bytecode":{"linkReferences":{},"object":"60a06040523480156200001157600080fd5b5060405162001d0938038062001d0983398101604081905262000034916200043d565b33806200005c57604051631e4fbdf760e01b8152600060048201526024015b60405180910390fd5b6200006781620003ed565b50600180556001600160a01b038116620000c45760405162461bcd60e51b815260206004820152601560248201527f496e76616c696420746f6b656e20616464726573730000000000000000000000604482015260640162000053565b6001600160a01b031660809081524260075560408051808301825268056bc75e2d6310000081526000602080830182815260648486019081526002606080870182815260018752600380875297517fa15bc60c955c405d20d9149c709e2460f1c2d9a497496a7f46004d1772c3054c5593517fa15bc60c955c405d20d9149c709e2460f1c2d9a497496a7f46004d1772c3054d5591517fa15bc60c955c405d20d9149c709e2460f1c2d9a497496a7f46004d1772c3054e5591517fa15bc60c955c405d20d9149c709e2460f1c2d9a497496a7f46004d1772c3054f5585518088018752683635c9adc5dea00000815262093a80818501908152607d828901908152600583850190815294875287865291517fc3a24b0501bd2c13a7e57f2db4369ec4c223447539fc0724a9d55ac4a06ebd4d55517fc3a24b0501bd2c13a7e57f2db4369ec4c223447539fc0724a9d55ac4a06ebd4e55517fc3a24b0501bd2c13a7e57f2db4369ec4c223447539fc0724a9d55ac4a06ebd4f5590517fc3a24b0501bd2c13a7e57f2db4369ec4c223447539fc0724a9d55ac4a06ebd50558451808701865269010f0cf064dd59200000815262278d008184019081526096828801908152600a83850190815287875287865292517fcbc4e5fb02c3d1de23a9f1e014b4d2ee5aeaea9505df5e855c9210bf472495af5590517fcbc4e5fb02c3d1de23a9f1e014b4d2ee5aeaea9505df5e855c9210bf472495b055517fcbc4e5fb02c3d1de23a9f1e014b4d2ee5aeaea9505df5e855c9210bf472495b155517fcbc4e5fb02c3d1de23a9f1e014b4d2ee5aeaea9505df5e855c9210bf472495b2558451958601855269054b40b1f852bda0000086526276a70086830190815260c89587019586526014918701918252600490935292905292517f83ec6a1f0257b830b5e016457c9cf1435391bf56cc98f369a58a54fe937724655591517f83ec6a1f0257b830b5e016457c9cf1435391bf56cc98f369a58a54fe9377246655517f83ec6a1f0257b830b5e016457c9cf1435391bf56cc98f369a58a54fe9377246755517f83ec6a1f0257b830b5e016457c9cf1435391bf56cc98f369a58a54fe93772468556200046f565b600080546001600160a01b038381166001600160a01b0319831681178455604051919092169283917f8be0079c531659141344cd1fd0a4f28419497f9722a3daafe3b4186f6b6457e09190a35050565b6000602082840312156200045057600080fd5b81516001600160a01b03811681146200046857600080fd5b9392505050565b60805161184d620004bc6000396000818161032a01528181610539015281816105df015281816109a501528181610a7c01528181610c1901528181610cae0152610db8015261184d6000f3fe608060405234801561001057600080fd5b506004361061018e5760003560e01c80638da5cb5b116100de578063beceed3911610097578063cd0fd3a211610071578063cd0fd3a2146103a3578063ee172546146103b6578063eed9da1f146103bf578063f2fde38b146103c857600080fd5b8063beceed391461035d578063c345315314610370578063c925c6801461039057600080fd5b80638da5cb5b146102db5780639231cf7414610300578063939d62371461030957806395ccea6714610312578063a999d1c714610325578063bbb851881461034c57600080fd5b80633f4ba83a1161014b578063715018a611610125578063715018a6146102b9578063817b1cd2146102c15780638456cb59146102ca57806386989038146102d257600080fd5b80633f4ba83a146102925780635c975abb1461029a57806366666aa9146102b057600080fd5b806310087fb11461019357806316934fc4146101a85780632def66201461020a57806331d7a2621461021257806335766f4b14610233578063372500ab1461028a575b600080fd5b6101a66101a13660046115ab565b6103db565b005b6101ef6101b63660046115ee565b6004602081905260009182526040909120805460018201546002830154600384015494840154600590940154929460ff90921693909286565b60405161020196959493929190611641565b60405180910390f35b6101a66108a8565b6102256102203660046115ee565b610ae7565b604051908152602001610201565b61026a610241366004611678565b600360208190526000918252604090912080546001820154600283015492909301549092919084565b604080519485526020850193909352918301526060820152608001610201565b6101a6610af8565b6101a6610c72565b60025460ff166040519015158152602001610201565b61022560055481565b6101a6610c82565b61022560085481565b6101a6610c94565b610225600a5481565b6000546001600160a01b03165b6040516001600160a01b039091168152602001610201565b61022560075481565b61022560065481565b6101a6610320366004611693565b610ca4565b6102e87f000000000000000000000000000000000000000000000000000000000000000081565b600854600a54600554600b5461026a565b6101a661036b3660046116bd565b610d53565b61038361037e3660046115ee565b610e41565b60405161020191906116d6565b61022561039e3660046115ee565b610f86565b6102256103b13660046115ee565b610ff9565b610225600b5481565b61022560095481565b6101a66103d63660046115ee565b61106c565b6103e36110a7565b6103eb6110d1565b60008160048111156103ff576103ff611609565b036104405760405162461bcd60e51b815260206004820152600c60248201526b24b73b30b634b2103a34b2b960a11b60448201526064015b60405180910390fd5b6003600082600481111561045657610456611609565b600481111561046757610467611609565b8152602001908152602001600020600001548210156104c85760405162461bcd60e51b815260206004820152601c60248201527f42656c6f77206d696e696d756d207374616b6520666f722074696572000000006044820152606401610437565b6104d06110f5565b3360009081526004602052604090208054156105bc5760006104f13361114e565b90508015610596578082600501600082825461050d919061174b565b9250508190555080600b6000828254610526919061174b565b9091555061056090506001600160a01b037f00000000000000000000000000000000000000000000000000000000000000001633836111d4565b60405181815233907ffc30cddea38e2bf4d6ea7d3f9ed3b6ad7f176419f4963bd81318067a4aee73fe9060200160405180910390a25b61059f33611238565b600960008282546105b0919061175e565b909155506105d2915050565b600a80549060006105cc83611771565b91905055505b6106076001600160a01b037f0000000000000000000000000000000000000000000000000000000000000000163330866112c6565b805460009061061790859061174b565b905060006003600085600481111561063157610631611609565b600481111561064257610642611609565b8152602001908152602001600020600101544261065f919061174b565b600184015490915060ff16600061067584611305565b905085600481111561068957610689611609565b81600481111561069b5761069b611609565b11156106eb57809550600360008760048111156106ba576106ba611609565b60048111156106cb576106cb611609565b815260200190815260200160002060010154426106e8919061174b565b92505b83855560018086018054889260ff199091169083600481111561071057610710611609565b021790555042600286015560038086018490556000906064908289600481111561073c5761073c611609565b600481111561074d5761074d611609565b8152602001908152602001600020600201548661076a919061178a565b61077491906117a1565b90508060096000828254610788919061174b565b909155505060065464e8d4a51000906107a1908361178a565b6107ab91906117a1565b866004018190555087600860008282546107c5919061174b565b909155505060405133907fbde7f0ba1630d25515c7ab99ba47d5640b7ffb4c673b2a5464ae67919558929890610800908b908b9089906117c3565b60405180910390a286600481111561081a5761081a611609565b83600481111561082c5761082c611609565b1415801561084c5750600083600481111561084957610849611609565b14155b1561089557336001600160a01b03167fcbbf00b5f55f1857f9362f521999f79036413e420d1b236d6bc143af30db731a848960405161088c9291906117e5565b60405180910390a25b5050505050506108a460018055565b5050565b6108b06110a7565b33600090815260046020526040902080546108fe5760405162461bcd60e51b815260206004820152600e60248201526d139bc81cdd185ad948199bdd5b9960921b6044820152606401610437565b806003015442101561094a5760405162461bcd60e51b815260206004820152601560248201527414dd185ad9481a5cc81cdd1a5b1b081b1bd8dad959605a1b6044820152606401610437565b6109526110f5565b600061095d3361114e565b90508015610a025780826005016000828254610979919061174b565b9250508190555080600b6000828254610992919061174b565b909155506109cc90506001600160a01b037f00000000000000000000000000000000000000000000000000000000000000001633836111d4565b60405181815233907ffc30cddea38e2bf4d6ea7d3f9ed3b6ad7f176419f4963bd81318067a4aee73fe9060200160405180910390a25b8154610a0d33611238565b60096000828254610a1e919061175e565b9091555050600080845560018401805460ff19169055600384018190556004840181905560088054839290610a5490849061175e565b9091555050600a8054906000610a6983611800565b90915550610aa390506001600160a01b037f00000000000000000000000000000000000000000000000000000000000000001633836111d4565b60405181815233907f0f5bb82176feb1b5e747e28471aa92156a04d9f3ab9f45f28e2d704232b93f75906020015b60405180910390a2505050610ae560018055565b565b6000610af28261114e565b92915050565b610b006110a7565b610b086110f5565b3360009081526004602052604090208054610b565760405162461bcd60e51b815260206004820152600e60248201526d139bc81cdd185ad948199bdd5b9960921b6044820152606401610437565b6000610b613361114e565b905060008111610ba95760405162461bcd60e51b81526020600482015260136024820152724e6f207265776172647320746f20636c61696d60681b6044820152606401610437565b80826005016000828254610bbd919061174b565b9250508190555080600b6000828254610bd6919061174b565b9091555060009050610be733611238565b905064e8d4a5100060065482610bfd919061178a565b610c0791906117a1565b6004840155610c406001600160a01b037f00000000000000000000000000000000000000000000000000000000000000001633846111d4565b60405182815233907ffc30cddea38e2bf4d6ea7d3f9ed3b6ad7f176419f4963bd81318067a4aee73fe90602001610ad1565b610c7a6113f7565b610ae5611424565b610c8a6113f7565b610ae56000611476565b610c9c6113f7565b610ae56114c6565b610cac6113f7565b7f00000000000000000000000000000000000000000000000000000000000000006001600160a01b0316826001600160a01b031603610d2d5760405162461bcd60e51b815260206004820152601d60248201527f43616e6e6f74207769746864726177207374616b656420746f6b656e730000006044820152606401610437565b6108a4610d426000546001600160a01b031690565b6001600160a01b03841690836111d4565b610d5b6110a7565b60008111610dab5760405162461bcd60e51b815260206004820152601d60248201527f416d6f756e74206d7573742062652067726561746572207468616e20300000006044820152606401610437565b610de06001600160a01b037f0000000000000000000000000000000000000000000000000000000000000000163330846112c6565b8060056000828254610df2919061174b565b90915550610e0090506110f5565b60405181815233907f5e60183dabac4cd15ced44d40b9f2f385ce62ad9238550fa50f4fe58f3db9de59060200160405180910390a2610e3e60018055565b50565b610e8a6040805161010081019091526000808252602082019081526020016000815260200160008152602001600081526020016000815260200160008152602001600081525090565b6001600160a01b038216600090815260046020819052604082206001810154909291600391839160ff90911690811115610ec657610ec6611609565b6004811115610ed757610ed7611609565b81526020808201929092526040016000208354855260018401549092509084019060ff166004811115610f0c57610f0c611609565b90816004811115610f1f57610f1f611609565b905250600282015460408401526003820154606084015260058201546080840152610f4984610ae7565b60a08401528154610f5b576064610f61565b80600201545b60c08401528154610f73576000610f79565b80600301545b60e0840152509092915050565b6001600160a01b038116600090815260046020526040812080548203610faf5750606492915050565b600181015460039060009060ff166004811115610fce57610fce611609565b6004811115610fdf57610fdf611609565b815260200190815260200160002060020154915050919050565b6001600160a01b0381166000908152600460205260408120805482036110225750600092915050565b600181015460039060009060ff16600481111561104157611041611609565b600481111561105257611052611609565b815260200190815260200160002060030154915050919050565b6110746113f7565b6001600160a01b03811661109e57604051631e4fbdf760e01b815260006004820152602401610437565b610e3e81611476565b6002600154036110ca57604051633ee5aeb560e01b815260040160405180910390fd5b6002600155565b60025460ff1615610ae55760405163d93c066560e01b815260040160405180910390fd5b6009546000036111055742600755565b60055415611148576009546005546111229064e8d4a5100061178a565b61112c91906117a1565b6006600082825461113d919061174b565b909155505060006005555b42600755565b6001600160a01b0381166000908152600460205260408120805482036111775750600092915050565b600061118284611238565b9050600064e8d4a510006006548361119a919061178a565b6111a491906117a1565b9050826004015481116111bc57506000949350505050565b60048301546111cb908261175e565b95945050505050565b6040516001600160a01b0383811660248301526044820183905261123391859182169063a9059cbb906064015b604051602081830303815290604052915060e01b6020820180516001600160e01b038381831617835250505050611503565b505050565b6001600160a01b0381166000908152600460205260408120805482036112615750600092915050565b600181015460649060039060009060ff16600481111561128357611283611609565b600481111561129457611294611609565b81526020019081526020016000206002015482600001546112b5919061178a565b6112bf91906117a1565b9392505050565b6040516001600160a01b0384811660248301528381166044830152606482018390526112ff9186918216906323b872dd90608401611201565b50505050565b6004600090815260036020527f83ec6a1f0257b830b5e016457c9cf1435391bf56cc98f369a58a54fe9377246554821061134157506004919050565b600360008190526020527fcbc4e5fb02c3d1de23a9f1e014b4d2ee5aeaea9505df5e855c9210bf472495af54821061137b57506003919050565b600260005260036020527fc3a24b0501bd2c13a7e57f2db4369ec4c223447539fc0724a9d55ac4a06ebd4d5482106113b557506002919050565b600160005260036020527fa15bc60c955c405d20d9149c709e2460f1c2d9a497496a7f46004d1772c3054c5482106113ef57506001919050565b506000919050565b6000546001600160a01b03163314610ae55760405163118cdaa760e01b8152336004820152602401610437565b61142c611574565b6002805460ff191690557f5db9ee0a495bf2e6ff9c91a7834c1ba4fdd244a5e8aa4e537bd38aeae4b073aa335b6040516001600160a01b03909116815260200160405180910390a1565b600080546001600160a01b038381166001600160a01b0319831681178455604051919092169283917f8be0079c531659141344cd1fd0a4f28419497f9722a3daafe3b4186f6b6457e09190a35050565b6114ce6110d1565b6002805460ff191660011790557f62e78cea01bee320cd4e420270b5ea74000d11b0c9f74754ebdbfc544b05a2586114593390565b600080602060008451602086016000885af180611526576040513d6000823e3d81fd5b50506000513d9150811561153e57806001141561154b565b6001600160a01b0384163b155b156112ff57604051635274afe760e01b81526001600160a01b0385166004820152602401610437565b60025460ff16610ae557604051638dfc202b60e01b815260040160405180910390fd5b8035600581106115a657600080fd5b919050565b600080604083850312156115be57600080fd5b823591506115ce60208401611597565b90509250929050565b80356001600160a01b03811681146115a657600080fd5b60006020828403121561160057600080fd5b6112bf826115d7565b634e487b7160e01b600052602160045260246000fd5b6005811061163d57634e487b7160e01b600052602160045260246000fd5b9052565b86815260c08101611655602083018861161f565b8560408301528460608301528360808301528260a0830152979650505050505050565b60006020828403121561168a57600080fd5b6112bf82611597565b600080604083850312156116a657600080fd5b6116af836115d7565b946020939093013593505050565b6000602082840312156116cf57600080fd5b5035919050565b815181526020808301516101008301916116f29084018261161f565b5060408301516040830152606083015160608301526080830151608083015260a083015160a083015260c083015160c083015260e083015160e083015292915050565b634e487b7160e01b600052601160045260246000fd5b80820180821115610af257610af2611735565b81810381811115610af257610af2611735565b60006001820161178357611783611735565b5060010190565b8082028115828204841417610af257610af2611735565b6000826117be57634e487b7160e01b600052601260045260246000fd5b500490565b838152606081016117d7602083018561161f565b826040830152949350505050565b604081016117f3828561161f565b6112bf602083018461161f565b60008161180f5761180f611735565b50600019019056fea26469706673582212209d3f04e7d790d4fd75ee377e2fe85cfd577e9d2ae50a0735612a07b175bf741f64736f6c63430008180033","opcodes":"PUSH1 0xA0 PUSH1 0x40 MSTORE CALLVALUE DUP1 ISZERO PUSH3 0x11 JUMPI PUSH1 0x0 DUP1 REVERT JUMPDEST POP PUSH1 0x40 MLOAD PUSH3 0x1D09 CODESIZE SUB DUP1 PUSH3 0x1D09 DUP4 CODECOPY DUP2 ADD PUSH1 0x40 DUP2 SWAP1 MSTORE PUSH3 0x34 SWAP2 PUSH3 0x43D JUMP JUMPDEST CALLER DUP1 PUSH3 0x5C JUMPI PUSH1 0x40 MLOAD PUSH4 0x1E4FBDF7 PUSH1 0xE0 SHL DUP2 MSTORE PUSH1 0x0 PUSH1 0x4 DUP3 ADD MSTORE PUSH1 0x24 ADD JUMPDEST PUSH1 0x40 MLOAD DUP1 SWAP2 SUB SWAP1 REVERT JUMPDEST PUSH3 0x67 DUP2 PUSH3 0x3ED JUMP JUMPDEST POP PUSH1 0x1 DUP1 SSTORE PUSH1 0x1 PUSH1 0x1 PUSH1 0xA0 SHL SUB DUP2 AND PUSH3 0xC4 JUMPI PUSH1 0x40 MLOAD PUSH3 0x461BCD PUSH1 0xE5 SHL DUP2 MSTORE PUSH1 0x20 PUSH1 0x4 DUP3 ADD MSTORE PUSH1 0x15 PUSH1 0x24 DUP3 ADD MSTORE PUSH32 0x496E76616C696420746F6B656E20616464726573730000000000000000000000 PUSH1 0x44 DUP3 ADD MSTORE PUSH1 0x64 ADD PUSH3 0x53 JUMP JUMPDEST PUSH1 0x1 PUSH1 0x1 PUSH1 0xA0 SHL SUB AND PUSH1 0x80 SWAP1 DUP2 MSTORE TIMESTAMP PUSH1 0x7 SSTORE PUSH1 0x40 DUP1 MLOAD DUP1 DUP4 ADD DUP3 MSTORE PUSH9 0x56BC75E2D63100000 DUP2 MSTORE PUSH1 0x0 PUSH1 0x20 DUP1 DUP4 ADD DUP3 DUP2 MSTORE PUSH1 0x64 DUP5 DUP7 ADD SWAP1 DUP2 MSTORE PUSH1 0x2 PUSH1 0x60 DUP1 DUP8 ADD DUP3 DUP2 MSTORE PUSH1 0x1 DUP8 MSTORE PUSH1 0x3 DUP1 DUP8 MSTORE SWAP8 MLOAD PUSH32 0xA15BC60C955C405D20D9149C709E2460F1C2D9A497496A7F46004D1772C3054C SSTORE SWAP4 MLOAD PUSH32 0xA15BC60C955C405D20D9149C709E2460F1C2D9A497496A7F46004D1772C3054D SSTORE SWAP2 MLOAD PUSH32 0xA15BC60C955C405D20D9149C709E2460F1C2D9A497496A7F46004D1772C3054E SSTORE SWAP2 MLOAD PUSH32 0xA15BC60C955C405D20D9149C709E2460F1C2D9A497496A7F46004D1772C3054F SSTORE DUP6 MLOAD DUP1 DUP9 ADD DUP8 MSTORE PUSH9 0x3635C9ADC5DEA00000 DUP2 MSTORE PUSH3 0x93A80 DUP2 DUP6 ADD SWAP1 DUP2 MSTORE PUSH1 0x7D DUP3 DUP10 ADD SWAP1 DUP2 MSTORE PUSH1 0x5 DUP4 DUP6 ADD SWAP1 DUP2 MSTORE SWAP5 DUP8 MSTORE DUP8 DUP7 MSTORE SWAP2 MLOAD PUSH32 0xC3A24B0501BD2C13A7E57F2DB4369EC4C223447539FC0724A9D55AC4A06EBD4D SSTORE MLOAD PUSH32 0xC3A24B0501BD2C13A7E57F2DB4369EC4C223447539FC0724A9D55AC4A06EBD4E SSTORE MLOAD PUSH32 0xC3A24B0501BD2C13A7E57F2DB4369EC4C223447539FC0724A9D55AC4A06EBD4F SSTORE SWAP1 MLOAD PUSH32 0xC3A24B0501BD2C13A7E57F2DB4369EC4C223447539FC0724A9D55AC4A06EBD50 SSTORE DUP5 MLOAD DUP1 DUP8 ADD DUP7 MSTORE PUSH10 0x10F0CF064DD59200000 DUP2 MSTORE PUSH3 0x278D00 DUP2 DUP5 ADD SWAP1 DUP2 MSTORE PUSH1 0x96 DUP3 DUP9 ADD SWAP1 DUP2 MSTORE PUSH1 0xA DUP4 DUP6 ADD SWAP1 DUP2 MSTORE DUP8 DUP8 MSTORE DUP8 DUP7 MSTORE SWAP3 MLOAD PUSH32 0xCBC4E5FB02C3D1DE23A9F1E014B4D2EE5AEAEA9505DF5E855C9210BF472495AF SSTORE SWAP1 MLOAD PUSH32 0xCBC4E5FB02C3D1DE23A9F1E014B4D2EE5AEAEA9505DF5E855C9210BF472495B0 SSTORE MLOAD PUSH32 0xCBC4E5FB02C3D1DE23A9F1E014B4D2EE5AEAEA9505DF5E855C9210BF472495B1 SSTORE MLOAD PUSH32 0xCBC4E5FB02C3D1DE23A9F1E014B4D2EE5AEAEA9505DF5E855C9210BF472495B2 SSTORE DUP5 MLOAD SWAP6 DUP7 ADD DUP6 MSTORE PUSH10 0x54B40B1F852BDA00000 DUP7 MSTORE PUSH3 0x76A700 DUP7 DUP4 ADD SWAP1 DUP2 MSTORE PUSH1 0xC8 SWAP6 DUP8 ADD SWAP6 DUP7 MSTORE PUSH1 0x14 SWAP2 DUP8 ADD SWAP2 DUP3 MSTORE PUSH1 0x4 SWAP1 SWAP4 MSTORE SWAP3 SWAP1 MSTORE SWAP3 MLOAD PUSH32 0x83EC6A1F0257B830B5E016457C9CF1435391BF56CC98F369A58A54FE93772465 SSTORE SWAP2 MLOAD PUSH32 0x83EC6A1F0257B830B5E016457C9CF1435391BF56CC98F369A58A54FE93772466 SSTORE MLOAD PUSH32 0x83EC6A1F0257B830B5E016457C9CF1435391BF56CC98F369A58A54FE93772467 SSTORE MLOAD PUSH32 0x83EC6A1F0257B830B5E016457C9CF1435391BF56CC98F369A58A54FE93772468 SSTORE PUSH3 0x46F JUMP JUMPDEST PUSH1 0x0 DUP1 SLOAD PUSH1 0x1 PUSH1 0x1 PUSH1 0xA0 SHL SUB DUP4 DUP2 AND PUSH1 0x1 PUSH1 0x1 PUSH1 0xA0 SHL SUB NOT DUP4 AND DUP2 OR DUP5 SSTORE PUSH1 0x40 MLOAD SWAP2 SWAP1 SWAP3 AND SWAP3 DUP4 SWAP2 PUSH32 0x8BE0079C531659141344CD1FD0A4F28419497F9722A3DAAFE3B4186F6B6457E0 SWAP2 SWAP1 LOG3 POP POP JUMP JUMPDEST PUSH1 0x0 PUSH1 0x20 DUP3 DUP5 SUB SLT ISZERO PUSH3 0x450 JUMPI PUSH1 0x0 DUP1 REVERT JUMPDEST DUP2 MLOAD PUSH1 0x1 PUSH1 0x1 PUSH1 0xA0 SHL SUB DUP2 AND DUP2 EQ PUSH3 0x468 JUMPI PUSH1 0x0 DUP1 REVERT JUMPDEST SWAP4 SWAP3 POP POP POP JUMP JUMPDEST PUSH1 0x80 MLOAD PUSH2 0x184D PUSH3 0x4BC PUSH1 0x0 CODECOPY PUSH1 0x0 DUP2 DUP2 PUSH2 0x32A ADD MSTORE DUP2 DUP2 PUSH2 0x539 ADD MSTORE DUP2 DUP2 PUSH2 0x5DF ADD MSTORE DUP2 DUP2 PUSH2 0x9A5 ADD MSTORE DUP2 DUP2 PUSH2 0xA7C ADD MSTORE DUP2 DUP2 PUSH2 0xC19 ADD MSTORE DUP2 DUP2 PUSH2 0xCAE ADD MSTORE PUSH2 0xDB8 ADD MSTORE PUSH2 0x184D PUSH1 0x0 RETURN INVALID PUSH1 0x80 PUSH1 0x40 MSTORE CALLVALUE DUP1 ISZERO PUSH2 0x10 JUMPI PUSH1 0x0 DUP1 REVERT JUMPDEST POP PUSH1 0x4 CALLDATASIZE LT PUSH2 0x18E JUMPI PUSH1 0x0 CALLDATALOAD PUSH1 0xE0 SHR DUP1 PUSH4 0x8DA5CB5B GT PUSH2 0xDE JUMPI DUP1 PUSH4 0xBECEED39 GT PUSH2 0x97 JUMPI DUP1 PUSH4 0xCD0FD3A2 GT PUSH2 0x71 JUMPI DUP1 PUSH4 0xCD0FD3A2 EQ PUSH2 0x3A3 JUMPI DUP1 PUSH4 0xEE172546 EQ PUSH2 0x3B6 JUMPI DUP1 PUSH4 0xEED9DA1F EQ PUSH2 0x3BF JUMPI DUP1 PUSH4 0xF2FDE38B EQ PUSH2 0x3C8 JUMPI PUSH1 0x0 DUP1 REVERT JUMPDEST DUP1 PUSH4 0xBECEED39 EQ PUSH2 0x35D JUMPI DUP1 PUSH4 0xC3453153 EQ PUSH2 0x370 JUMPI DUP1 PUSH4 0xC925C680 EQ PUSH2 0x390 JUMPI PUSH1 0x0 DUP1 REVERT JUMPDEST DUP1 PUSH4 0x8DA5CB5B EQ PUSH2 0x2DB JUMPI DUP1 PUSH4 0x9231CF74 EQ PUSH2 0x300 JUMPI DUP1 PUSH4 0x939D6237 EQ PUSH2 0x309 JUMPI DUP1 PUSH4 0x95CCEA67 EQ PUSH2 0x312 JUMPI DUP1 PUSH4 0xA999D1C7 EQ PUSH2 0x325 JUMPI DUP1 PUSH4 0xBBB85188 EQ PUSH2 0x34C JUMPI PUSH1 0x0 DUP1 REVERT JUMPDEST DUP1 PUSH4 0x3F4BA83A GT PUSH2 0x14B JUMPI DUP1 PUSH4 0x715018A6 GT PUSH2 0x125 JUMPI DUP1 PUSH4 0x715018A6 EQ PUSH2 0x2B9 JUMPI DUP1 PUSH4 0x817B1CD2 EQ PUSH2 0x2C1 JUMPI DUP1 PUSH4 0x8456CB59 EQ PUSH2 0x2CA JUMPI DUP1 PUSH4 0x86989038 EQ PUSH2 0x2D2 JUMPI PUSH1 0x0 DUP1 REVERT JUMPDEST DUP1 PUSH4 0x3F4BA83A EQ PUSH2 0x292 JUMPI DUP1 PUSH4 0x5C975ABB EQ PUSH2 0x29A JUMPI DUP1 PUSH4 0x66666AA9 EQ PUSH2 0x2B0 JUMPI PUSH1 0x0 DUP1 REVERT JUMPDEST DUP1 PUSH4 0x10087FB1 EQ PUSH2 0x193 JUMPI DUP1 PUSH4 0x16934FC4 EQ PUSH2 0x1A8 JUMPI DUP1 PUSH4 0x2DEF6620 EQ PUSH2 0x20A JUMPI DUP1 PUSH4 0x31D7A262 EQ PUSH2 0x212 JUMPI DUP1 PUSH4 0x35766F4B EQ PUSH2 0x233 JUMPI DUP1 PUSH4 0x372500AB EQ PUSH2 0x28A JUMPI JUMPDEST PUSH1 0x0 DUP1 REVERT JUMPDEST PUSH2 0x1A6 PUSH2 0x1A1 CALLDATASIZE PUSH1 0x4 PUSH2 0x15AB JUMP JUMPDEST PUSH2 0x3DB JUMP JUMPDEST STOP JUMPDEST PUSH2 0x1EF PUSH2 0x1B6 CALLDATASIZE PUSH1 0x4 PUSH2 0x15EE JUMP JUMPDEST PUSH1 0x4 PUSH1 0x20 DUP2 SWAP1 MSTORE PUSH1 0x0 SWAP2 DUP3 MSTORE PUSH1 0x40 SWAP1 SWAP2 KECCAK256 DUP1 SLOAD PUSH1 0x1 DUP3 ADD SLOAD PUSH1 0x2 DUP4 ADD SLOAD PUSH1 0x3 DUP5 ADD SLOAD SWAP5 DUP5 ADD SLOAD PUSH1 0x5 SWAP1 SWAP5 ADD SLOAD SWAP3 SWAP5 PUSH1 0xFF SWAP1 SWAP3 AND SWAP4 SWAP1 SWAP3 DUP7 JUMP JUMPDEST PUSH1 0x40 MLOAD PUSH2 0x201 SWAP7 SWAP6 SWAP5 SWAP4 SWAP3 SWAP2 SWAP1 PUSH2 0x1641 JUMP JUMPDEST PUSH1 0x40 MLOAD DUP1 SWAP2 SUB SWAP1 RETURN JUMPDEST PUSH2 0x1A6 PUSH2 0x8A8 JUMP JUMPDEST PUSH2 0x225 PUSH2 0x220 CALLDATASIZE PUSH1 0x4 PUSH2 0x15EE JUMP JUMPDEST PUSH2 0xAE7 JUMP JUMPDEST PUSH1 0x40 MLOAD SWAP1 DUP2 MSTORE PUSH1 0x20 ADD PUSH2 0x201 JUMP JUMPDEST PUSH2 0x26A PUSH2 0x241 CALLDATASIZE PUSH1 0x4 PUSH2 0x1678 JUMP JUMPDEST PUSH1 0x3 PUSH1 0x20 DUP2 SWAP1 MSTORE PUSH1 0x0 SWAP2 DUP3 MSTORE PUSH1 0x40 SWAP1 SWAP2 KECCAK256 DUP1 SLOAD PUSH1 0x1 DUP3 ADD SLOAD PUSH1 0x2 DUP4 ADD SLOAD SWAP3 SWAP1 SWAP4 ADD SLOAD SWAP1 SWAP3 SWAP2 SWAP1 DUP5 JUMP JUMPDEST PUSH1 0x40 DUP1 MLOAD SWAP5 DUP6 MSTORE PUSH1 0x20 DUP6 ADD SWAP4 SWAP1 SWAP4 MSTORE SWAP2 DUP4 ADD MSTORE PUSH1 0x60 DUP3 ADD MSTORE PUSH1 0x80 ADD PUSH2 0x201 JUMP JUMPDEST PUSH2 0x1A6 PUSH2 0xAF8 JUMP JUMPDEST PUSH2 0x1A6 PUSH2 0xC72 JUMP JUMPDEST PUSH1 0x2 SLOAD PUSH1 0xFF AND PUSH1 0x40 MLOAD SWAP1 ISZERO ISZERO DUP2 MSTORE PUSH1 0x20 ADD PUSH2 0x201 JUMP JUMPDEST PUSH2 0x225 PUSH1 0x5 SLOAD DUP2 JUMP JUMPDEST PUSH2 0x1A6 PUSH2 0xC82 JUMP JUMPDEST PUSH2 0x225 PUSH1 0x8 SLOAD DUP2 JUMP JUMPDEST PUSH2 0x1A6 PUSH2 0xC94 JUMP JUMPDEST PUSH2 0x225 PUSH1 0xA SLOAD DUP2 JUMP JUMPDEST PUSH1 0x0 SLOAD PUSH1 0x1 PUSH1 0x1 PUSH1 0xA0 SHL SUB AND JUMPDEST PUSH1 0x40 MLOAD PUSH1 0x1 PUSH1 0x1 PUSH1 0xA0 SHL SUB SWAP1 SWAP2 AND DUP2 MSTORE PUSH1 0x20 ADD PUSH2 0x201 JUMP JUMPDEST PUSH2 0x225 PUSH1 0x7 SLOAD DUP2 JUMP JUMPDEST PUSH2 0x225 PUSH1 0x6 SLOAD DUP2 JUMP JUMPDEST PUSH2 0x1A6 PUSH2 0x320 CALLDATASIZE PUSH1 0x4 PUSH2 0x1693 JUMP JUMPDEST PUSH2 0xCA4 JUMP JUMPDEST PUSH2 0x2E8 PUSH32 0x0 DUP2 JUMP JUMPDEST PUSH1 0x8 SLOAD PUSH1 0xA SLOAD PUSH1 0x5 SLOAD PUSH1 0xB SLOAD PUSH2 0x26A JUMP JUMPDEST PUSH2 0x1A6 PUSH2 0x36B CALLDATASIZE PUSH1 0x4 PUSH2 0x16BD JUMP JUMPDEST PUSH2 0xD53 JUMP JUMPDEST PUSH2 0x383 PUSH2 0x37E CALLDATASIZE PUSH1 0x4 PUSH2 0x15EE JUMP JUMPDEST PUSH2 0xE41 JUMP JUMPDEST PUSH1 0x40 MLOAD PUSH2 0x201 SWAP2 SWAP1 PUSH2 0x16D6 JUMP JUMPDEST PUSH2 0x225 PUSH2 0x39E CALLDATASIZE PUSH1 0x4 PUSH2 0x15EE JUMP JUMPDEST PUSH2 0xF86 JUMP JUMPDEST PUSH2 0x225 PUSH2 0x3B1 CALLDATASIZE PUSH1 0x4 PUSH2 0x15EE JUMP JUMPDEST PUSH2 0xFF9 JUMP JUMPDEST PUSH2 0x225 PUSH1 0xB SLOAD DUP2 JUMP JUMPDEST PUSH2 0x225 PUSH1 0x9 SLOAD DUP2 JUMP JUMPDEST PUSH2 0x1A6 PUSH2 0x3D6 CALLDATASIZE PUSH1 0x4 PUSH2 0x15EE JUMP JUMPDEST PUSH2 0x106C JUMP JUMPDEST PUSH2 0x3E3 PUSH2 0x10A7 JUMP JUMPDEST PUSH2 0x3EB PUSH2 0x10D1 JUMP JUMPDEST PUSH1 0x0 DUP2 PUSH1 0x4 DUP2 GT ISZERO PUSH2 0x3FF JUMPI PUSH2 0x3FF PUSH2 0x1609 JUMP JUMPDEST SUB PUSH2 0x440 JUMPI PUSH1 0x40 MLOAD PUSH3 0x461BCD PUSH1 0xE5 SHL DUP2 MSTORE PUSH1 0x20 PUSH1 0x4 DUP3 ADD MSTORE PUSH1 0xC PUSH1 0x24 DUP3 ADD MSTORE PUSH12 0x24B73B30B634B2103A34B2B9 PUSH1 0xA1 SHL PUSH1 0x44 DUP3 ADD MSTORE PUSH1 0x64 ADD JUMPDEST PUSH1 0x40 MLOAD DUP1 SWAP2 SUB SWAP1 REVERT JUMPDEST PUSH1 0x3 PUSH1 0x0 DUP3 PUSH1 0x4 DUP2 GT ISZERO PUSH2 0x456 JUMPI PUSH2 0x456 PUSH2 0x1609 JUMP JUMPDEST PUSH1 0x4 DUP2 GT ISZERO PUSH2 0x467 JUMPI PUSH2 0x467 PUSH2 0x1609 JUMP JUMPDEST DUP2 MSTORE PUSH1 0x20 ADD SWAP1 DUP2 MSTORE PUSH1 0x20 ADD PUSH1 0x0 KECCAK256 PUSH1 0x0 ADD SLOAD DUP3 LT ISZERO PUSH2 0x4C8 JUMPI PUSH1 0x40 MLOAD PUSH3 0x461BCD PUSH1 0xE5 SHL DUP2 MSTORE PUSH1 0x20 PUSH1 0x4 DUP3 ADD MSTORE PUSH1 0x1C PUSH1 0x24 DUP3 ADD MSTORE PUSH32 0x42656C6F77206D696E696D756D207374616B6520666F72207469657200000000 PUSH1 0x44 DUP3 ADD MSTORE PUSH1 0x64 ADD PUSH2 0x437 JUMP JUMPDEST PUSH2 0x4D0 PUSH2 0x10F5 JUMP JUMPDEST CALLER PUSH1 0x0 SWAP1 DUP2 MSTORE PUSH1 0x4 PUSH1 0x20 MSTORE PUSH1 0x40 SWAP1 KECCAK256 DUP1 SLOAD ISZERO PUSH2 0x5BC JUMPI PUSH1 0x0 PUSH2 0x4F1 CALLER PUSH2 0x114E JUMP JUMPDEST SWAP1 POP DUP1 ISZERO PUSH2 0x596 JUMPI DUP1 DUP3 PUSH1 0x5 ADD PUSH1 0x0 DUP3 DUP3 SLOAD PUSH2 0x50D SWAP2 SWAP1 PUSH2 0x174B JUMP JUMPDEST SWAP3 POP POP DUP2 SWAP1 SSTORE POP DUP1 PUSH1 0xB PUSH1 0x0 DUP3 DUP3 SLOAD PUSH2 0x526 SWAP2 SWAP1 PUSH2 0x174B JUMP JUMPDEST SWAP1 SWAP2 SSTORE POP PUSH2 0x560 SWAP1 POP PUSH1 0x1 PUSH1 0x1 PUSH1 0xA0 SHL SUB PUSH32 0x0 AND CALLER DUP4 PUSH2 0x11D4 JUMP JUMPDEST PUSH1 0x40 MLOAD DUP2 DUP2 MSTORE CALLER SWAP1 PUSH32 0xFC30CDDEA38E2BF4D6EA7D3F9ED3B6AD7F176419F4963BD81318067A4AEE73FE SWAP1 PUSH1 0x20 ADD PUSH1 0x40 MLOAD DUP1 SWAP2 SUB SWAP1 LOG2 JUMPDEST PUSH2 0x59F CALLER PUSH2 0x1238 JUMP JUMPDEST PUSH1 0x9 PUSH1 0x0 DUP3 DUP3 SLOAD PUSH2 0x5B0 SWAP2 SWAP1 PUSH2 0x175E JUMP JUMPDEST SWAP1 SWAP2 SSTORE POP PUSH2 0x5D2 SWAP2 POP POP JUMP JUMPDEST PUSH1 0xA DUP1 SLOAD SWAP1 PUSH1 0x0 PUSH2 0x5CC DUP4 PUSH2 0x1771 JUMP JUMPDEST SWAP2 SWAP1 POP SSTORE POP JUMPDEST PUSH2 0x607 PUSH1 0x1 PUSH1 0x1 PUSH1 0xA0 SHL SUB PUSH32 0x0 AND CALLER ADDRESS DUP7 PUSH2 0x12C6 JUMP JUMPDEST DUP1 SLOAD PUSH1 0x0 SWAP1 PUSH2 0x617 SWAP1 DUP6 SWAP1 PUSH2 0x174B JUMP JUMPDEST SWAP1 POP PUSH1 0x0 PUSH1 0x3 PUSH1 0x0 DUP6 PUSH1 0x4 DUP2 GT ISZERO PUSH2 0x631 JUMPI PUSH2 0x631 PUSH2 0x1609 JUMP JUMPDEST PUSH1 0x4 DUP2 GT ISZERO PUSH2 0x642 JUMPI PUSH2 0x642 PUSH2 0x1609 JUMP JUMPDEST DUP2 MSTORE PUSH1 0x20 ADD SWAP1 DUP2 MSTORE PUSH1 0x20 ADD PUSH1 0x0 KECCAK256 PUSH1 0x1 ADD SLOAD TIMESTAMP PUSH2 0x65F SWAP2 SWAP1 PUSH2 0x174B JUMP JUMPDEST PUSH1 0x1 DUP5 ADD SLOAD SWAP1 SWAP2 POP PUSH1 0xFF AND PUSH1 0x0 PUSH2 0x675 DUP5 PUSH2 0x1305 JUMP JUMPDEST SWAP1 POP DUP6 PUSH1 0x4 DUP2 GT ISZERO PUSH2 0x689 JUMPI PUSH2 0x689 PUSH2 0x1609 JUMP JUMPDEST DUP2 PUSH1 0x4 DUP2 GT ISZERO PUSH2 0x69B JUMPI PUSH2 0x69B PUSH2 0x1609 JUMP JUMPDEST GT ISZERO PUSH2 0x6EB JUMPI DUP1 SWAP6 POP PUSH1 0x3 PUSH1 0x0 DUP8 PUSH1 0x4 DUP2 GT ISZERO PUSH2 0x6BA JUMPI PUSH2 0x6BA PUSH2 0x1609 JUMP JUMPDEST PUSH1 0x4 DUP2 GT ISZERO PUSH2 0x6CB JUMPI PUSH2 0x6CB PUSH2 0x1609 JUMP JUMPDEST DUP2 MSTORE PUSH1 0x20 ADD SWAP1 DUP2 MSTORE PUSH1 0x20 ADD PUSH1 0x0 KECCAK256 PUSH1 0x1 ADD SLOAD TIMESTAMP PUSH2 0x6E8 SWAP2 SWAP1 PUSH2 0x174B JUMP JUMPDEST SWAP3 POP JUMPDEST DUP4 DUP6 SSTORE PUSH1 0x1 DUP1 DUP7 ADD DUP1 SLOAD DUP9 SWAP3 PUSH1 0xFF NOT SWAP1 SWAP2 AND SWAP1 DUP4 PUSH1 0x4 DUP2 GT ISZERO PUSH2 0x710 JUMPI PUSH2 0x710 PUSH2 0x1609 JUMP JUMPDEST MUL OR SWAP1 SSTORE POP TIMESTAMP PUSH1 0x2 DUP7 ADD SSTORE PUSH1 0x3 DUP1 DUP7 ADD DUP5 SWAP1 SSTORE PUSH1 0x0 SWAP1 PUSH1 0x64 SWAP1 DUP3 DUP10 PUSH1 0x4 DUP2 GT ISZERO PUSH2 0x73C JUMPI PUSH2 0x73C PUSH2 0x1609 JUMP JUMPDEST PUSH1 0x4 DUP2 GT ISZERO PUSH2 0x74D JUMPI PUSH2 0x74D PUSH2 0x1609 JUMP JUMPDEST DUP2 MSTORE PUSH1 0x20 ADD SWAP1 DUP2 MSTORE PUSH1 0x20 ADD PUSH1 0x0 KECCAK256 PUSH1 0x2 ADD SLOAD DUP7 PUSH2 0x76A SWAP2 SWAP1 PUSH2 0x178A JUMP JUMPDEST PUSH2 0x774 SWAP2 SWAP1 PUSH2 0x17A1 JUMP JUMPDEST SWAP1 POP DUP1 PUSH1 0x9 PUSH1 0x0 DUP3 DUP3 SLOAD PUSH2 0x788 SWAP2 SWAP1 PUSH2 0x174B JUMP JUMPDEST SWAP1 SWAP2 SSTORE POP POP PUSH1 0x6 SLOAD PUSH5 0xE8D4A51000 SWAP1 PUSH2 0x7A1 SWAP1 DUP4 PUSH2 0x178A JUMP JUMPDEST PUSH2 0x7AB SWAP2 SWAP1 PUSH2 0x17A1 JUMP JUMPDEST DUP7 PUSH1 0x4 ADD DUP2 SWAP1 SSTORE POP DUP8 PUSH1 0x8 PUSH1 0x0 DUP3 DUP3 SLOAD PUSH2 0x7C5 SWAP2 SWAP1 PUSH2 0x174B JUMP JUMPDEST SWAP1 SWAP2 SSTORE POP POP PUSH1 0x40 MLOAD CALLER SWAP1 PUSH32 0xBDE7F0BA1630D25515C7AB99BA47D5640B7FFB4C673B2A5464AE679195589298 SWAP1 PUSH2 0x800 SWAP1 DUP12 SWAP1 DUP12 SWAP1 DUP10 SWAP1 PUSH2 0x17C3 JUMP JUMPDEST PUSH1 0x40 MLOAD DUP1 SWAP2 SUB SWAP1 LOG2 DUP7 PUSH1 0x4 DUP2 GT ISZERO PUSH2 0x81A JUMPI PUSH2 0x81A PUSH2 0x1609 JUMP JUMPDEST DUP4 PUSH1 0x4 DUP2 GT ISZERO PUSH2 0x82C JUMPI PUSH2 0x82C PUSH2 0x1609 JUMP JUMPDEST EQ ISZERO DUP1 ISZERO PUSH2 0x84C JUMPI POP PUSH1 0x0 DUP4 PUSH1 0x4 DUP2 GT ISZERO PUSH2 0x849 JUMPI PUSH2 0x849 PUSH2 0x1609 JUMP JUMPDEST EQ ISZERO JUMPDEST ISZERO PUSH2 0x895 JUMPI CALLER PUSH1 0x1 PUSH1 0x1 PUSH1 0xA0 SHL SUB AND PUSH32 0xCBBF00B5F55F1857F9362F521999F79036413E420D1B236D6BC143AF30DB731A DUP5 DUP10 PUSH1 0x40 MLOAD PUSH2 0x88C SWAP3 SWAP2 SWAP1 PUSH2 0x17E5 JUMP JUMPDEST PUSH1 0x40 MLOAD DUP1 SWAP2 SUB SWAP1 LOG2 JUMPDEST POP POP POP POP POP POP PUSH2 0x8A4 PUSH1 0x1 DUP1 SSTORE JUMP JUMPDEST POP POP JUMP JUMPDEST PUSH2 0x8B0 PUSH2 0x10A7 JUMP JUMPDEST CALLER PUSH1 0x0 SWAP1 DUP2 MSTORE PUSH1 0x4 PUSH1 0x20 MSTORE PUSH1 0x40 SWAP1 KECCAK256 DUP1 SLOAD PUSH2 0x8FE JUMPI PUSH1 0x40 MLOAD PUSH3 0x461BCD PUSH1 0xE5 SHL DUP2 MSTORE PUSH1 0x20 PUSH1 0x4 DUP3 ADD MSTORE PUSH1 0xE PUSH1 0x24 DUP3 ADD MSTORE PUSH14 0x139BC81CDD185AD948199BDD5B99 PUSH1 0x92 SHL PUSH1 0x44 DUP3 ADD MSTORE PUSH1 0x64 ADD PUSH2 0x437 JUMP JUMPDEST DUP1 PUSH1 0x3 ADD SLOAD TIMESTAMP LT ISZERO PUSH2 0x94A JUMPI PUSH1 0x40 MLOAD PUSH3 0x461BCD PUSH1 0xE5 SHL DUP2 MSTORE PUSH1 0x20 PUSH1 0x4 DUP3 ADD MSTORE PUSH1 0x15 PUSH1 0x24 DUP3 ADD MSTORE PUSH21 0x14DD185AD9481A5CC81CDD1A5B1B081B1BD8DAD959 PUSH1 0x5A SHL PUSH1 0x44 DUP3 ADD MSTORE PUSH1 0x64 ADD PUSH2 0x437 JUMP JUMPDEST PUSH2 0x952 PUSH2 0x10F5 JUMP JUMPDEST PUSH1 0x0 PUSH2 0x95D CALLER PUSH2 0x114E JUMP JUMPDEST SWAP1 POP DUP1 ISZERO PUSH2 0xA02 JUMPI DUP1 DUP3 PUSH1 0x5 ADD PUSH1 0x0 DUP3 DUP3 SLOAD PUSH2 0x979 SWAP2 SWAP1 PUSH2 0x174B JUMP JUMPDEST SWAP3 POP POP DUP2 SWAP1 SSTORE POP DUP1 PUSH1 0xB PUSH1 0x0 DUP3 DUP3 SLOAD PUSH2 0x992 SWAP2 SWAP1 PUSH2 0x174B JUMP JUMPDEST SWAP1 SWAP2 SSTORE POP PUSH2 0x9CC SWAP1 POP PUSH1 0x1 PUSH1 0x1 PUSH1 0xA0 SHL SUB PUSH32 0x0 AND CALLER DUP4 PUSH2 0x11D4 JUMP JUMPDEST PUSH1 0x40 MLOAD DUP2 DUP2 MSTORE CALLER SWAP1 PUSH32 0xFC30CDDEA38E2BF4D6EA7D3F9ED3B6AD7F176419F4963BD81318067A4AEE73FE SWAP1 PUSH1 0x20 ADD PUSH1 0x40 MLOAD DUP1 SWAP2 SUB SWAP1 LOG2 JUMPDEST DUP2 SLOAD PUSH2 0xA0D CALLER PUSH2 0x1238 JUMP JUMPDEST PUSH1 0x9 PUSH1 0x0 DUP3 DUP3 SLOAD PUSH2 0xA1E SWAP2 SWAP1 PUSH2 0x175E JUMP JUMPDEST SWAP1 SWAP2 SSTORE POP POP PUSH1 0x0 DUP1 DUP5 SSTORE PUSH1 0x1 DUP5 ADD DUP1 SLOAD PUSH1 0xFF NOT AND SWAP1 SSTORE PUSH1 0x3 DUP5 ADD DUP2 SWAP1 SSTORE PUSH1 0x4 DUP5 ADD DUP2 SWAP1 SSTORE PUSH1 0x8 DUP1 SLOAD DUP4 SWAP3 SWAP1 PUSH2 0xA54 SWAP1 DUP5 SWAP1 PUSH2 0x175E JUMP JUMPDEST SWAP1 SWAP2 SSTORE POP POP PUSH1 0xA DUP1 SLOAD SWAP1 PUSH1 0x0 PUSH2 0xA69 DUP4 PUSH2 0x1800 JUMP JUMPDEST SWAP1 SWAP2 SSTORE POP PUSH2 0xAA3 SWAP1 POP PUSH1 0x1 PUSH1 0x1 PUSH1 0xA0 SHL SUB PUSH32 0x0 AND CALLER DUP4 PUSH2 0x11D4 JUMP JUMPDEST PUSH1 0x40 MLOAD DUP2 DUP2 MSTORE CALLER SWAP1 PUSH32 0xF5BB82176FEB1B5E747E28471AA92156A04D9F3AB9F45F28E2D704232B93F75 SWAP1 PUSH1 0x20 ADD JUMPDEST PUSH1 0x40 MLOAD DUP1 SWAP2 SUB SWAP1 LOG2 POP POP POP PUSH2 0xAE5 PUSH1 0x1 DUP1 SSTORE JUMP JUMPDEST JUMP JUMPDEST PUSH1 0x0 PUSH2 0xAF2 DUP3 PUSH2 0x114E JUMP JUMPDEST SWAP3 SWAP2 POP POP JUMP JUMPDEST PUSH2 0xB00 PUSH2 0x10A7 JUMP JUMPDEST PUSH2 0xB08 PUSH2 0x10F5 JUMP JUMPDEST CALLER PUSH1 0x0 SWAP1 DUP2 MSTORE PUSH1 0x4 PUSH1 0x20 MSTORE PUSH1 0x40 SWAP1 KECCAK256 DUP1 SLOAD PUSH2 0xB56 JUMPI PUSH1 0x40 MLOAD PUSH3 0x461BCD PUSH1 0xE5 SHL DUP2 MSTORE PUSH1 0x20 PUSH1 0x4 DUP3 ADD MSTORE PUSH1 0xE PUSH1 0x24 DUP3 ADD MSTORE PUSH14 0x139BC81CDD185AD948199BDD5B99 PUSH1 0x92 SHL PUSH1 0x44 DUP3 ADD MSTORE PUSH1 0x64 ADD PUSH2 0x437 JUMP JUMPDEST PUSH1 0x0 PUSH2 0xB61 CALLER PUSH2 0x114E JUMP JUMPDEST SWAP1 POP PUSH1 0x0 DUP2 GT PUSH2 0xBA9 JUMPI PUSH1 0x40 MLOAD PUSH3 0x461BCD PUSH1 0xE5 SHL DUP2 MSTORE PUSH1 0x20 PUSH1 0x4 DUP3 ADD MSTORE PUSH1 0x13 PUSH1 0x24 DUP3 ADD MSTORE PUSH19 0x4E6F207265776172647320746F20636C61696D PUSH1 0x68 SHL PUSH1 0x44 DUP3 ADD MSTORE PUSH1 0x64 ADD PUSH2 0x437 JUMP JUMPDEST DUP1 DUP3 PUSH1 0x5 ADD PUSH1 0x0 DUP3 DUP3 SLOAD PUSH2 0xBBD SWAP2 SWAP1 PUSH2 0x174B JUMP JUMPDEST SWAP3 POP POP DUP2 SWAP1 SSTORE POP DUP1 PUSH1 0xB PUSH1 0x0 DUP3 DUP3 SLOAD PUSH2 0xBD6 SWAP2 SWAP1 PUSH2 0x174B JUMP JUMPDEST SWAP1 SWAP2 SSTORE POP PUSH1 0x0 SWAP1 POP PUSH2 0xBE7 CALLER PUSH2 0x1238 JUMP JUMPDEST SWAP1 POP PUSH5 0xE8D4A51000 PUSH1 0x6 SLOAD DUP3 PUSH2 0xBFD SWAP2 SWAP1 PUSH2 0x178A JUMP JUMPDEST PUSH2 0xC07 SWAP2 SWAP1 PUSH2 0x17A1 JUMP JUMPDEST PUSH1 0x4 DUP5 ADD SSTORE PUSH2 0xC40 PUSH1 0x1 PUSH1 0x1 PUSH1 0xA0 SHL SUB PUSH32 0x0 AND CALLER DUP5 PUSH2 0x11D4 JUMP JUMPDEST PUSH1 0x40 MLOAD DUP3 DUP2 MSTORE CALLER SWAP1 PUSH32 0xFC30CDDEA38E2BF4D6EA7D3F9ED3B6AD7F176419F4963BD81318067A4AEE73FE SWAP1 PUSH1 0x20 ADD PUSH2 0xAD1 JUMP JUMPDEST PUSH2 0xC7A PUSH2 0x13F7 JUMP JUMPDEST PUSH2 0xAE5 PUSH2 0x1424 JUMP JUMPDEST PUSH2 0xC8A PUSH2 0x13F7 JUMP JUMPDEST PUSH2 0xAE5 PUSH1 0x0 PUSH2 0x1476 JUMP JUMPDEST PUSH2 0xC9C PUSH2 0x13F7 JUMP JUMPDEST PUSH2 0xAE5 PUSH2 0x14C6 JUMP JUMPDEST PUSH2 0xCAC PUSH2 0x13F7 JUMP JUMPDEST PUSH32 0x0 PUSH1 0x1 PUSH1 0x1 PUSH1 0xA0 SHL SUB AND DUP3 PUSH1 0x1 PUSH1 0x1 PUSH1 0xA0 SHL SUB AND SUB PUSH2 0xD2D JUMPI PUSH1 0x40 MLOAD PUSH3 0x461BCD PUSH1 0xE5 SHL DUP2 MSTORE PUSH1 0x20 PUSH1 0x4 DUP3 ADD MSTORE PUSH1 0x1D PUSH1 0x24 DUP3 ADD MSTORE PUSH32 0x43616E6E6F74207769746864726177207374616B656420746F6B656E73000000 PUSH1 0x44 DUP3 ADD MSTORE PUSH1 0x64 ADD PUSH2 0x437 JUMP JUMPDEST PUSH2 0x8A4 PUSH2 0xD42 PUSH1 0x0 SLOAD PUSH1 0x1 PUSH1 0x1 PUSH1 0xA0 SHL SUB AND SWAP1 JUMP JUMPDEST PUSH1 0x1 PUSH1 0x1 PUSH1 0xA0 SHL SUB DUP5 AND SWAP1 DUP4 PUSH2 0x11D4 JUMP JUMPDEST PUSH2 0xD5B PUSH2 0x10A7 JUMP JUMPDEST PUSH1 0x0 DUP2 GT PUSH2 0xDAB JUMPI PUSH1 0x40 MLOAD PUSH3 0x461BCD PUSH1 0xE5 SHL DUP2 MSTORE PUSH1 0x20 PUSH1 0x4 DUP3 ADD MSTORE PUSH1 0x1D PUSH1 0x24 DUP3 ADD MSTORE PUSH32 0x416D6F756E74206D7573742062652067726561746572207468616E2030000000 PUSH1 0x44 DUP3 ADD MSTORE PUSH1 0x64 ADD PUSH2 0x437 JUMP JUMPDEST PUSH2 0xDE0 PUSH1 0x1 PUSH1 0x1 PUSH1 0xA0 SHL SUB PUSH32 0x0 AND CALLER ADDRESS DUP5 PUSH2 0x12C6 JUMP JUMPDEST DUP1 PUSH1 0x5 PUSH1 0x0 DUP3 DUP3 SLOAD PUSH2 0xDF2 SWAP2 SWAP1 PUSH2 0x174B JUMP JUMPDEST SWAP1 SWAP2 SSTORE POP PUSH2 0xE00 SWAP1 POP PUSH2 0x10F5 JUMP JUMPDEST PUSH1 0x40 MLOAD DUP2 DUP2 MSTORE CALLER SWAP1 PUSH32 0x5E60183DABAC4CD15CED44D40B9F2F385CE62AD9238550FA50F4FE58F3DB9DE5 SWAP1 PUSH1 0x20 ADD PUSH1 0x40 MLOAD DUP1 SWAP2 SUB SWAP1 LOG2 PUSH2 0xE3E PUSH1 0x1 DUP1 SSTORE JUMP JUMPDEST POP JUMP JUMPDEST PUSH2 0xE8A PUSH1 0x40 DUP1 MLOAD PUSH2 0x100 DUP2 ADD SWAP1 SWAP2 MSTORE PUSH1 0x0 DUP1 DUP3 MSTORE PUSH1 0x20 DUP3 ADD SWAP1 DUP2 MSTORE PUSH1 0x20 ADD PUSH1 0x0 DUP2 MSTORE PUSH1 0x20 ADD PUSH1 0x0 DUP2 MSTORE PUSH1 0x20 ADD PUSH1 0x0 DUP2 MSTORE PUSH1 0x20 ADD PUSH1 0x0 DUP2 MSTORE PUSH1 0x20 ADD PUSH1 0x0 DUP2 MSTORE PUSH1 0x20 ADD PUSH1 0x0 DUP2 MSTORE POP SWAP1 JUMP JUMPDEST PUSH1 0x1 PUSH1 0x1 PUSH1 0xA0 SHL SUB DUP3 AND PUSH1 0x0 SWAP1 DUP2 MSTORE PUSH1 0x4 PUSH1 0x20 DUP2 SWAP1 MSTORE PUSH1 0x40 DUP3 KECCAK256 PUSH1 0x1 DUP2 ADD SLOAD SWAP1 SWAP3 SWAP2 PUSH1 0x3 SWAP2 DUP4 SWAP2 PUSH1 0xFF SWAP1 SWAP2 AND SWAP1 DUP2 GT ISZERO PUSH2 0xEC6 JUMPI PUSH2 0xEC6 PUSH2 0x1609 JUMP JUMPDEST PUSH1 0x4 DUP2 GT ISZERO PUSH2 0xED7 JUMPI PUSH2 0xED7 PUSH2 0x1609 JUMP JUMPDEST DUP2 MSTORE PUSH1 0x20 DUP1 DUP3 ADD SWAP3 SWAP1 SWAP3 MSTORE PUSH1 0x40 ADD PUSH1 0x0 KECCAK256 DUP4 SLOAD DUP6 MSTORE PUSH1 0x1 DUP5 ADD SLOAD SWAP1 SWAP3 POP SWAP1 DUP5 ADD SWAP1 PUSH1 0xFF AND PUSH1 0x4 DUP2 GT ISZERO PUSH2 0xF0C JUMPI PUSH2 0xF0C PUSH2 0x1609 JUMP JUMPDEST SWAP1 DUP2 PUSH1 0x4 DUP2 GT ISZERO PUSH2 0xF1F JUMPI PUSH2 0xF1F PUSH2 0x1609 JUMP JUMPDEST SWAP1 MSTORE POP PUSH1 0x2 DUP3 ADD SLOAD PUSH1 0x40 DUP5 ADD MSTORE PUSH1 0x3 DUP3 ADD SLOAD PUSH1 0x60 DUP5 ADD MSTORE PUSH1 0x5 DUP3 ADD SLOAD PUSH1 0x80 DUP5 ADD MSTORE PUSH2 0xF49 DUP5 PUSH2 0xAE7 JUMP JUMPDEST PUSH1 0xA0 DUP5 ADD MSTORE DUP2 SLOAD PUSH2 0xF5B JUMPI PUSH1 0x64 PUSH2 0xF61 JUMP JUMPDEST DUP1 PUSH1 0x2 ADD SLOAD JUMPDEST PUSH1 0xC0 DUP5 ADD MSTORE DUP2 SLOAD PUSH2 0xF73 JUMPI PUSH1 0x0 PUSH2 0xF79 JUMP JUMPDEST DUP1 PUSH1 0x3 ADD SLOAD JUMPDEST PUSH1 0xE0 DUP5 ADD MSTORE POP SWAP1 SWAP3 SWAP2 POP POP JUMP JUMPDEST PUSH1 0x1 PUSH1 0x1 PUSH1 0xA0 SHL SUB DUP2 AND PUSH1 0x0 SWAP1 DUP2 MSTORE PUSH1 0x4 PUSH1 0x20 MSTORE PUSH1 0x40 DUP2 KECCAK256 DUP1 SLOAD DUP3 SUB PUSH2 0xFAF JUMPI POP PUSH1 0x64 SWAP3 SWAP2 POP POP JUMP JUMPDEST PUSH1 0x1 DUP2 ADD SLOAD PUSH1 0x3 SWAP1 PUSH1 0x0 SWAP1 PUSH1 0xFF AND PUSH1 0x4 DUP2 GT ISZERO PUSH2 0xFCE JUMPI PUSH2 0xFCE PUSH2 0x1609 JUMP JUMPDEST PUSH1 0x4 DUP2 GT ISZERO PUSH2 0xFDF JUMPI PUSH2 0xFDF PUSH2 0x1609 JUMP JUMPDEST DUP2 MSTORE PUSH1 0x20 ADD SWAP1 DUP2 MSTORE PUSH1 0x20 ADD PUSH1 0x0 KECCAK256 PUSH1 0x2 ADD SLOAD SWAP2 POP POP SWAP2 SWAP1 POP JUMP JUMPDEST PUSH1 0x1 PUSH1 0x1 PUSH1 0xA0 SHL SUB DUP2 AND PUSH1 0x0 SWAP1 DUP2 MSTORE PUSH1 0x4 PUSH1 0x20 MSTORE PUSH1 0x40 DUP2 KECCAK256 DUP1 SLOAD DUP3 SUB PUSH2 0x1022 JUMPI POP PUSH1 0x0 SWAP3 SWAP2 POP POP JUMP JUMPDEST PUSH1 0x1 DUP2 ADD SLOAD PUSH1 0x3 SWAP1 PUSH1 0x0 SWAP1 PUSH1 0xFF AND PUSH1 0x4 DUP2 GT ISZERO PUSH2 0x1041 JUMPI PUSH2 0x1041 PUSH2 0x1609 JUMP JUMPDEST PUSH1 0x4 DUP2 GT ISZERO PUSH2 0x1052 JUMPI PUSH2 0x1052 PUSH2 0x1609 JUMP JUMPDEST DUP2 MSTORE PUSH1 0x20 ADD SWAP1 DUP2 MSTORE PUSH1 0x20 ADD PUSH1 0x0 KECCAK256 PUSH1 0x3 ADD SLOAD SWAP2 POP POP SWAP2 SWAP1 POP JUMP JUMPDEST PUSH2 0x1074 PUSH2 0x13F7 JUMP JUMPDEST PUSH1 0x1 PUSH1 0x1 PUSH1 0xA0 SHL SUB DUP2 AND PUSH2 0x109E JUMPI PUSH1 0x40 MLOAD PUSH4 0x1E4FBDF7 PUSH1 0xE0 SHL DUP2 MSTORE PUSH1 0x0 PUSH1 0x4 DUP3 ADD MSTORE PUSH1 0x24 ADD PUSH2 0x437 JUMP JUMPDEST PUSH2 0xE3E DUP2 PUSH2 0x1476 JUMP JUMPDEST PUSH1 0x2 PUSH1 0x1 SLOAD SUB PUSH2 0x10CA JUMPI PUSH1 0x40 MLOAD PUSH4 0x3EE5AEB5 PUSH1 0xE0 SHL DUP2 MSTORE PUSH1 0x4 ADD PUSH1 0x40 MLOAD DUP1 SWAP2 SUB SWAP1 REVERT JUMPDEST PUSH1 0x2 PUSH1 0x1 SSTORE JUMP JUMPDEST PUSH1 0x2 SLOAD PUSH1 0xFF AND ISZERO PUSH2 0xAE5 JUMPI PUSH1 0x40 MLOAD PUSH4 0xD93C0665 PUSH1 0xE0 SHL DUP2 MSTORE PUSH1 0x4 ADD PUSH1 0x40 MLOAD DUP1 SWAP2 SUB SWAP1 REVERT JUMPDEST PUSH1 0x9 SLOAD PUSH1 0x0 SUB PUSH2 0x1105 JUMPI TIMESTAMP PUSH1 0x7 SSTORE JUMP JUMPDEST PUSH1 0x5 SLOAD ISZERO PUSH2 0x1148 JUMPI PUSH1 0x9 SLOAD PUSH1 0x5 SLOAD PUSH2 0x1122 SWAP1 PUSH5 0xE8D4A51000 PUSH2 0x178A JUMP JUMPDEST PUSH2 0x112C SWAP2 SWAP1 PUSH2 0x17A1 JUMP JUMPDEST PUSH1 0x6 PUSH1 0x0 DUP3 DUP3 SLOAD PUSH2 0x113D SWAP2 SWAP1 PUSH2 0x174B JUMP JUMPDEST SWAP1 SWAP2 SSTORE POP POP PUSH1 0x0 PUSH1 0x5 SSTORE JUMPDEST TIMESTAMP PUSH1 0x7 SSTORE JUMP JUMPDEST PUSH1 0x1 PUSH1 0x1 PUSH1 0xA0 SHL SUB DUP2 AND PUSH1 0x0 SWAP1 DUP2 MSTORE PUSH1 0x4 PUSH1 0x20 MSTORE PUSH1 0x40 DUP2 KECCAK256 DUP1 SLOAD DUP3 SUB PUSH2 0x1177 JUMPI POP PUSH1 0x0 SWAP3 SWAP2 POP POP JUMP JUMPDEST PUSH1 0x0 PUSH2 0x1182 DUP5 PUSH2 0x1238 JUMP JUMPDEST SWAP1 POP PUSH1 0x0 PUSH5 0xE8D4A51000 PUSH1 0x6 SLOAD DUP4 PUSH2 0x119A SWAP2 SWAP1 PUSH2 0x178A JUMP JUMPDEST PUSH2 0x11A4 SWAP2 SWAP1 PUSH2 0x17A1 JUMP JUMPDEST SWAP1 POP DUP3 PUSH1 0x4 ADD SLOAD DUP2 GT PUSH2 0x11BC JUMPI POP PUSH1 0x0 SWAP5 SWAP4 POP POP POP POP JUMP JUMPDEST PUSH1 0x4 DUP4 ADD SLOAD PUSH2 0x11CB SWAP1 DUP3 PUSH2 0x175E JUMP JUMPDEST SWAP6 SWAP5 POP POP POP POP POP JUMP JUMPDEST PUSH1 0x40 MLOAD PUSH1 0x1 PUSH1 0x1 PUSH1 0xA0 SHL SUB DUP4 DUP2 AND PUSH1 0x24 DUP4 ADD MSTORE PUSH1 0x44 DUP3 ADD DUP4 SWAP1 MSTORE PUSH2 0x1233 SWAP2 DUP6 SWAP2 DUP3 AND SWAP1 PUSH4 0xA9059CBB SWAP1 PUSH1 0x64 ADD JUMPDEST PUSH1 0x40 MLOAD PUSH1 0x20 DUP2 DUP4 SUB SUB DUP2 MSTORE SWAP1 PUSH1 0x40 MSTORE SWAP2 POP PUSH1 0xE0 SHL PUSH1 0x20 DUP3 ADD DUP1 MLOAD PUSH1 0x1 PUSH1 0x1 PUSH1 0xE0 SHL SUB DUP4 DUP2 DUP4 AND OR DUP4 MSTORE POP POP POP POP PUSH2 0x1503 JUMP JUMPDEST POP POP POP JUMP JUMPDEST PUSH1 0x1 PUSH1 0x1 PUSH1 0xA0 SHL SUB DUP2 AND PUSH1 0x0 SWAP1 DUP2 MSTORE PUSH1 0x4 PUSH1 0x20 MSTORE PUSH1 0x40 DUP2 KECCAK256 DUP1 SLOAD DUP3 SUB PUSH2 0x1261 JUMPI POP PUSH1 0x0 SWAP3 SWAP2 POP POP JUMP JUMPDEST PUSH1 0x1 DUP2 ADD SLOAD PUSH1 0x64 SWAP1 PUSH1 0x3 SWAP1 PUSH1 0x0 SWAP1 PUSH1 0xFF AND PUSH1 0x4 DUP2 GT ISZERO PUSH2 0x1283 JUMPI PUSH2 0x1283 PUSH2 0x1609 JUMP JUMPDEST PUSH1 0x4 DUP2 GT ISZERO PUSH2 0x1294 JUMPI PUSH2 0x1294 PUSH2 0x1609 JUMP JUMPDEST DUP2 MSTORE PUSH1 0x20 ADD SWAP1 DUP2 MSTORE PUSH1 0x20 ADD PUSH1 0x0 KECCAK256 PUSH1 0x2 ADD SLOAD DUP3 PUSH1 0x0 ADD SLOAD PUSH2 0x12B5 SWAP2 SWAP1 PUSH2 0x178A JUMP JUMPDEST PUSH2 0x12BF SWAP2 SWAP1 PUSH2 0x17A1 JUMP JUMPDEST SWAP4 SWAP3 POP POP POP JUMP JUMPDEST PUSH1 0x40 MLOAD PUSH1 0x1 PUSH1 0x1 PUSH1 0xA0 SHL SUB DUP5 DUP2 AND PUSH1 0x24 DUP4 ADD MSTORE DUP4 DUP2 AND PUSH1 0x44 DUP4 ADD MSTORE PUSH1 0x64 DUP3 ADD DUP4 SWAP1 MSTORE PUSH2 0x12FF SWAP2 DUP7 SWAP2 DUP3 AND SWAP1 PUSH4 0x23B872DD SWAP1 PUSH1 0x84 ADD PUSH2 0x1201 JUMP JUMPDEST POP POP POP POP JUMP JUMPDEST PUSH1 0x4 PUSH1 0x0 SWAP1 DUP2 MSTORE PUSH1 0x3 PUSH1 0x20 MSTORE PUSH32 0x83EC6A1F0257B830B5E016457C9CF1435391BF56CC98F369A58A54FE93772465 SLOAD DUP3 LT PUSH2 0x1341 JUMPI POP PUSH1 0x4 SWAP2 SWAP1 POP JUMP JUMPDEST PUSH1 0x3 PUSH1 0x0 DUP2 SWAP1 MSTORE PUSH1 0x20 MSTORE PUSH32 0xCBC4E5FB02C3D1DE23A9F1E014B4D2EE5AEAEA9505DF5E855C9210BF472495AF SLOAD DUP3 LT PUSH2 0x137B JUMPI POP PUSH1 0x3 SWAP2 SWAP1 POP JUMP JUMPDEST PUSH1 0x2 PUSH1 0x0 MSTORE PUSH1 0x3 PUSH1 0x20 MSTORE PUSH32 0xC3A24B0501BD2C13A7E57F2DB4369EC4C223447539FC0724A9D55AC4A06EBD4D SLOAD DUP3 LT PUSH2 0x13B5 JUMPI POP PUSH1 0x2 SWAP2 SWAP1 POP JUMP JUMPDEST PUSH1 0x1 PUSH1 0x0 MSTORE PUSH1 0x3 PUSH1 0x20 MSTORE PUSH32 0xA15BC60C955C405D20D9149C709E2460F1C2D9A497496A7F46004D1772C3054C SLOAD DUP3 LT PUSH2 0x13EF JUMPI POP PUSH1 0x1 SWAP2 SWAP1 POP JUMP JUMPDEST POP PUSH1 0x0 SWAP2 SWAP1 POP JUMP JUMPDEST PUSH1 0x0 SLOAD PUSH1 0x1 PUSH1 0x1 PUSH1 0xA0 SHL SUB AND CALLER EQ PUSH2 0xAE5 JUMPI PUSH1 0x40 MLOAD PUSH4 0x118CDAA7 PUSH1 0xE0 SHL DUP2 MSTORE CALLER PUSH1 0x4 DUP3 ADD MSTORE PUSH1 0x24 ADD PUSH2 0x437 JUMP JUMPDEST PUSH2 0x142C PUSH2 0x1574 JUMP JUMPDEST PUSH1 0x2 DUP1 SLOAD PUSH1 0xFF NOT AND SWAP1 SSTORE PUSH32 0x5DB9EE0A495BF2E6FF9C91A7834C1BA4FDD244A5E8AA4E537BD38AEAE4B073AA CALLER JUMPDEST PUSH1 0x40 MLOAD PUSH1 0x1 PUSH1 0x1 PUSH1 0xA0 SHL SUB SWAP1 SWAP2 AND DUP2 MSTORE PUSH1 0x20 ADD PUSH1 0x40 MLOAD DUP1 SWAP2 SUB SWAP1 LOG1 JUMP JUMPDEST PUSH1 0x0 DUP1 SLOAD PUSH1 0x1 PUSH1 0x1 PUSH1 0xA0 SHL SUB DUP4 DUP2 AND PUSH1 0x1 PUSH1 0x1 PUSH1 0xA0 SHL SUB NOT DUP4 AND DUP2 OR DUP5 SSTORE PUSH1 0x40 MLOAD SWAP2 SWAP1 SWAP3 AND SWAP3 DUP4 SWAP2 PUSH32 0x8BE0079C531659141344CD1FD0A4F28419497F9722A3DAAFE3B4186F6B6457E0 SWAP2 SWAP1 LOG3 POP POP JUMP JUMPDEST PUSH2 0x14CE PUSH2 0x10D1 JUMP JUMPDEST PUSH1 0x2 DUP1 SLOAD PUSH1 0xFF NOT AND PUSH1 0x1 OR SWAP1 SSTORE PUSH32 0x62E78CEA01BEE320CD4E420270B5EA74000D11B0C9F74754EBDBFC544B05A258 PUSH2 0x1459 CALLER SWAP1 JUMP JUMPDEST PUSH1 0x0 DUP1 PUSH1 0x20 PUSH1 0x0 DUP5 MLOAD PUSH1 0x20 DUP7 ADD PUSH1 0x0 DUP9 GAS CALL DUP1 PUSH2 0x1526 JUMPI PUSH1 0x40 MLOAD RETURNDATASIZE PUSH1 0x0 DUP3 RETURNDATACOPY RETURNDATASIZE DUP2 REVERT JUMPDEST POP POP PUSH1 0x0 MLOAD RETURNDATASIZE SWAP2 POP DUP2 ISZERO PUSH2 0x153E JUMPI DUP1 PUSH1 0x1 EQ ISZERO PUSH2 0x154B JUMP JUMPDEST PUSH1 0x1 PUSH1 0x1 PUSH1 0xA0 SHL SUB DUP5 AND EXTCODESIZE ISZERO JUMPDEST ISZERO PUSH2 0x12FF JUMPI PUSH1 0x40 MLOAD PUSH4 0x5274AFE7 PUSH1 0xE0 SHL DUP2 MSTORE PUSH1 0x1 PUSH1 0x1 PUSH1 0xA0 SHL SUB DUP6 AND PUSH1 0x4 DUP3 ADD MSTORE PUSH1 0x24 ADD PUSH2 0x437 JUMP JUMPDEST PUSH1 0x2 SLOAD PUSH1 0xFF AND PUSH2 0xAE5 JUMPI PUSH1 0x40 MLOAD PUSH4 0x8DFC202B PUSH1 0xE0 SHL DUP2 MSTORE PUSH1 0x4 ADD PUSH1 0x40 MLOAD DUP1 SWAP2 SUB SWAP1 REVERT JUMPDEST DUP1 CALLDATALOAD PUSH1 0x5 DUP2 LT PUSH2 0x15A6 JUMPI PUSH1 0x0 DUP1 REVERT JUMPDEST SWAP2 SWAP1 POP JUMP JUMPDEST PUSH1 0x0 DUP1 PUSH1 0x40 DUP4 DUP6 SUB SLT ISZERO PUSH2 0x15BE JUMPI PUSH1 0x0 DUP1 REVERT JUMPDEST DUP3 CALLDATALOAD SWAP2 POP PUSH2 0x15CE PUSH1 0x20 DUP5 ADD PUSH2 0x1597 JUMP JUMPDEST SWAP1 POP SWAP3 POP SWAP3 SWAP1 POP JUMP JUMPDEST DUP1 CALLDATALOAD PUSH1 0x1 PUSH1 0x1 PUSH1 0xA0 SHL SUB DUP2 AND DUP2 EQ PUSH2 0x15A6 JUMPI PUSH1 0x0 DUP1 REVERT JUMPDEST PUSH1 0x0 PUSH1 0x20 DUP3 DUP5 SUB SLT ISZERO PUSH2 0x1600 JUMPI PUSH1 0x0 DUP1 REVERT JUMPDEST PUSH2 0x12BF DUP3 PUSH2 0x15D7 JUMP JUMPDEST PUSH4 0x4E487B71 PUSH1 0xE0 SHL PUSH1 0x0 MSTORE PUSH1 0x21 PUSH1 0x4 MSTORE PUSH1 0x24 PUSH1 0x0 REVERT JUMPDEST PUSH1 0x5 DUP2 LT PUSH2 0x163D JUMPI PUSH4 0x4E487B71 PUSH1 0xE0 SHL PUSH1 0x0 MSTORE PUSH1 0x21 PUSH1 0x4 MSTORE PUSH1 0x24 PUSH1 0x0 REVERT JUMPDEST SWAP1 MSTORE JUMP JUMPDEST DUP7 DUP2 MSTORE PUSH1 0xC0 DUP2 ADD PUSH2 0x1655 PUSH1 0x20 DUP4 ADD DUP9 PUSH2 0x161F JUMP JUMPDEST DUP6 PUSH1 0x40 DUP4 ADD MSTORE DUP5 PUSH1 0x60 DUP4 ADD MSTORE DUP4 PUSH1 0x80 DUP4 ADD MSTORE DUP3 PUSH1 0xA0 DUP4 ADD MSTORE SWAP8 SWAP7 POP POP POP POP POP POP POP JUMP JUMPDEST PUSH1 0x0 PUSH1 0x20 DUP3 DUP5 SUB SLT ISZERO PUSH2 0x168A JUMPI PUSH1 0x0 DUP1 REVERT JUMPDEST PUSH2 0x12BF DUP3 PUSH2 0x1597 JUMP JUMPDEST PUSH1 0x0 DUP1 PUSH1 0x40 DUP4 DUP6 SUB SLT ISZERO PUSH2 0x16A6 JUMPI PUSH1 0x0 DUP1 REVERT JUMPDEST PUSH2 0x16AF DUP4 PUSH2 0x15D7 JUMP JUMPDEST SWAP5 PUSH1 0x20 SWAP4 SWAP1 SWAP4 ADD CALLDATALOAD SWAP4 POP POP POP JUMP JUMPDEST PUSH1 0x0 PUSH1 0x20 DUP3 DUP5 SUB SLT ISZERO PUSH2 0x16CF JUMPI PUSH1 0x0 DUP1 REVERT JUMPDEST POP CALLDATALOAD SWAP2 SWAP1 POP JUMP JUMPDEST DUP2 MLOAD DUP2 MSTORE PUSH1 0x20 DUP1 DUP4 ADD MLOAD PUSH2 0x100 DUP4 ADD SWAP2 PUSH2 0x16F2 SWAP1 DUP5 ADD DUP3 PUSH2 0x161F JUMP JUMPDEST POP PUSH1 0x40 DUP4 ADD MLOAD PUSH1 0x40 DUP4 ADD MSTORE PUSH1 0x60 DUP4 ADD MLOAD PUSH1 0x60 DUP4 ADD MSTORE PUSH1 0x80 DUP4 ADD MLOAD PUSH1 0x80 DUP4 ADD MSTORE PUSH1 0xA0 DUP4 ADD MLOAD PUSH1 0xA0 DUP4 ADD MSTORE PUSH1 0xC0 DUP4 ADD MLOAD PUSH1 0xC0 DUP4 ADD MSTORE PUSH1 0xE0 DUP4 ADD MLOAD PUSH1 0xE0 DUP4 ADD MSTORE SWAP3 SWAP2 POP POP JUMP JUMPDEST PUSH4 0x4E487B71 PUSH1 0xE0 SHL PUSH1 0x0 MSTORE PUSH1 0x11 PUSH1 0x4 MSTORE PUSH1 0x24 PUSH1 0x0 REVERT JUMPDEST DUP1 DUP3 ADD DUP1 DUP3 GT ISZERO PUSH2 0xAF2 JUMPI PUSH2 0xAF2 PUSH2 0x1735 JUMP JUMPDEST DUP2 DUP2 SUB DUP2 DUP2 GT ISZERO PUSH2 0xAF2 JUMPI PUSH2 0xAF2 PUSH2 0x1735 JUMP JUMPDEST PUSH1 0x0 PUSH1 0x1 DUP3 ADD PUSH2 0x1783 JUMPI PUSH2 0x1783 PUSH2 0x1735 JUMP JUMPDEST POP PUSH1 0x1 ADD SWAP1 JUMP JUMPDEST DUP1 DUP3 MUL DUP2 ISZERO DUP3 DUP3 DIV DUP5 EQ OR PUSH2 0xAF2 JUMPI PUSH2 0xAF2 PUSH2 0x1735 JUMP JUMPDEST PUSH1 0x0 DUP3 PUSH2 0x17BE JUMPI PUSH4 0x4E487B71 PUSH1 0xE0 SHL PUSH1 0x0 MSTORE PUSH1 0x12 PUSH1 0x4 MSTORE PUSH1 0x24 PUSH1 0x0 REVERT JUMPDEST POP DIV SWAP1 JUMP JUMPDEST DUP4 DUP2 MSTORE PUSH1 0x60 DUP2 ADD PUSH2 0x17D7 PUSH1 0x20 DUP4 ADD DUP6 PUSH2 0x161F JUMP JUMPDEST DUP3 PUSH1 0x40 DUP4 ADD MSTORE SWAP5 SWAP4 POP POP POP POP JUMP JUMPDEST PUSH1 0x40 DUP2 ADD PUSH2 0x17F3 DUP3 DUP6 PUSH2 0x161F JUMP JUMPDEST PUSH2 0x12BF PUSH1 0x20 DUP4 ADD DUP5 PUSH2 0x161F JUMP JUMPDEST PUSH1 0x0 DUP2 PUSH2 0x180F JUMPI PUSH2 0x180F PUSH2 0x1735 JUMP JUMPDEST POP PUSH1 0x0 NOT ADD SWAP1 JUMP INVALID LOG2 PUSH5 0x6970667358 0x22 SLT KECCAK256 SWAP14 EXTCODEHASH DIV 0xE7 0xD7 SWAP1 0xD4 REVERT PUSH22 0xEE377E2FE85CFD577E9D2AE50A0735612A07B175BF74 0x1F PUSH5 0x736F6C6343 STOP ADDMOD XOR STOP CALLER "},"methodIdentifiers":{"accRewardPerShare()":"939d6237","addRewards(uint256)":"beceed39","claimRewards()":"372500ab","emergencyWithdraw(address,uint256)":"95ccea67","getPoolStats()":"bbb85188","getStakeInfo(address)":"c3453153","getUserBonusPlays(address)":"cd0fd3a2","getUserWeight(address)":"c925c680","grepToken()":"a999d1c7","lastRewardTime()":"9231cf74","owner()":"8da5cb5b","pause()":"8456cb59","paused()":"5c975abb","pendingRewards(address)":"31d7a262","renounceOwnership()":"715018a6","rewardPool()":"66666aa9","stake(uint256,uint8)":"10087fb1","stakes(address)":"16934fc4","tierInfo(uint8)":"35766f4b","totalRewardsDistributed()":"ee172546","totalStaked()":"817b1cd2","totalStakers()":"86989038","totalWeightedStake()":"eed9da1f","transferOwnership(address)":"f2fde38b","unpause()":"3f4ba83a","unstake()":"2def6620"}}}}}