{
  "_format": "hh-sol-artifact-1",
  "contractName": "GrepStakingPool",
  "sourceName": "contracts/GrepStakingPool.sol",
  "abi": [
    {
      "inputs": [
        {
          "internalType": "address",
          "name": "_grepToken",
          "type": "address"
        }
      ],
      "stateMutability": "nonpayable",
      "type": "constructor"
    },
    {
      "inputs": [],
      "name": "EnforcedPause",
      "type": "error"
    },
    {
      "inputs": [],
      "name": "ExpectedPause",
      "type": "error"
    },
    {
      "inputs": [
        {
          "internalType": "address",
          "name": "owner",
          "type": "address"
        }
      ],
      "name": "OwnableInvalidOwner",
      "type": "error"
    },
    {
      "inputs": [
        {
          "internalType": "address",
          "name": "account",
          "type": "address"
        }
      ],
      "name": "OwnableUnauthorizedAccount",
      "type": "error"
    },
    {
      "inputs": [],
      "name": "ReentrancyGuardReentrantCall",
      "type": "error"
    },
    {
      "inputs": [
        {
          "internalType": "address",
          "name": "token",
          "type": "address"
        }
      ],
      "name": "SafeERC20FailedOperation",
      "type": "error"
    },
    {
      "anonymous": false,
      "inputs": [
        {
          "indexed": true,
          "internalType": "address",
          "name": "previousOwner",
          "type": "address"
        },
        {
          "indexed": true,
          "internalType": "address",
          "name": "newOwner",
          "type": "address"
        }
      ],
      "name": "OwnershipTransferred",
      "type": "event"
    },
    {
      "anonymous": false,
      "inputs": [
        {
          "indexed": false,
          "internalType": "address",
          "name": "account",
          "type": "address"
        }
      ],
      "name": "Paused",
      "type": "event"
    },
    {
      "anonymous": false,
      "inputs": [
        {
          "indexed": false,
          "internalType": "uint256",
          "name": "amount",
          "type": "uint256"
        },
        {
          "indexed": true,
          "internalType": "address",
          "name": "from",
          "type": "address"
        }
      ],
      "name": "RewardsAdded",
      "type": "event"
    },
    {
      "anonymous": false,
      "inputs": [
        {
          "indexed": true,
          "internalType": "address",
          "name": "user",
          "type": "address"
        },
        {
          "indexed": false,
          "internalType": "uint256",
          "name": "amount",
          "type": "uint256"
        }
      ],
      "name": "RewardsClaimed",
      "type": "event"
    },
    {
      "anonymous": false,
      "inputs": [
        {
          "indexed": true,
          "internalType": "address",
          "name": "user",
          "type": "address"
        },
        {
          "indexed": false,
          "internalType": "uint256",
          "name": "amount",
          "type": "uint256"
        },
        {
          "indexed": false,
          "internalType": "enum GrepStakingPool.Tier",
          "name": "tier",
          "type": "uint8"
        },
        {
          "indexed": false,
          "internalType": "uint256",
          "name": "lockedUntil",
          "type": "uint256"
        }
      ],
      "name": "Staked",
      "type": "event"
    },
    {
      "anonymous": false,
      "inputs": [
        {
          "indexed": true,
          "internalType": "address",
          "name": "user",
          "type": "address"
        },
        {
          "indexed": false,
          "internalType": "enum GrepStakingPool.Tier",
          "name": "oldTier",
          "type": "uint8"
        },
        {
          "indexed": false,
          "internalType": "enum GrepStakingPool.Tier",
          "name": "newTier",
          "type": "uint8"
        }
      ],
      "name": "TierUpgraded",
      "type": "event"
    },
    {
      "anonymous": false,
      "inputs": [
        {
          "indexed": false,
          "internalType": "address",
          "name": "account",
          "type": "address"
        }
      ],
      "name": "Unpaused",
      "type": "event"
    },
    {
      "anonymous": false,
      "inputs": [
        {
          "indexed": true,
          "internalType": "address",
          "name": "user",
          "type": "address"
        },
        {
          "indexed": false,
          "internalType": "uint256",
          "name": "amount",
          "type": "uint256"
        }
      ],
      "name": "Unstaked",
      "type": "event"
    },
    {
      "inputs": [],
      "name": "accRewardPerShare",
      "outputs": [
        {
          "internalType": "uint256",
          "name": "",
          "type": "uint256"
        }
      ],
      "stateMutability": "view",
      "type": "function"
    },
    {
      "inputs": [
        {
          "internalType": "uint256",
          "name": "amount",
          "type": "uint256"
        }
      ],
      "name": "addRewards",
      "outputs": [],
      "stateMutability": "nonpayable",
      "type": "function"
    },
    {
      "inputs": [],
      "name": "claimRewards",
      "outputs": [],
      "stateMutability": "nonpayable",
      "type": "function"
    },
    {
      "inputs": [
        {
          "internalType": "address",
          "name": "token",
          "type": "address"
        },
        {
          "internalType": "uint256",
          "name": "amount",
          "type": "uint256"
        }
      ],
      "name": "emergencyWithdraw",
      "outputs": [],
      "stateMutability": "nonpayable",
      "type": "function"
    },
    {
      "inputs": [],
      "name": "getPoolStats",
      "outputs": [
        {
          "internalType": "uint256",
          "name": "_totalStaked",
          "type": "uint256"
        },
        {
          "internalType": "uint256",
          "name": "_totalStakers",
          "type": "uint256"
        },
        {
          "internalType": "uint256",
          "name": "_rewardPool",
          "type": "uint256"
        },
        {
          "internalType": "uint256",
          "name": "_totalDistributed",
          "type": "uint256"
        }
      ],
      "stateMutability": "view",
      "type": "function"
    },
    {
      "inputs": [
        {
          "internalType": "address",
          "name": "user",
          "type": "address"
        }
      ],
      "name": "getStakeInfo",
      "outputs": [
        {
          "components": [
            {
              "internalType": "uint256",
              "name": "amount",
              "type": "uint256"
            },
            {
              "internalType": "enum GrepStakingPool.Tier",
              "name": "tier",
              "type": "uint8"
            },
            {
              "internalType": "uint256",
              "name": "stakedAt",
              "type": "uint256"
            },
            {
              "internalType": "uint256",
              "name": "lockedUntil",
              "type": "uint256"
            },
            {
              "internalType": "uint256",
              "name": "totalClaimed",
              "type": "uint256"
            },
            {
              "internalType": "uint256",
              "name": "pendingReward",
              "type": "uint256"
            },
            {
              "internalType": "uint256",
              "name": "rewardWeight",
              "type": "uint256"
            },
            {
              "internalType": "uint256",
              "name": "bonusPlays",
              "type": "uint256"
            }
          ],
          "internalType": "struct GrepStakingPool.FullStakeInfo",
          "name": "info",
          "type": "tuple"
        }
      ],
      "stateMutability": "view",
      "type": "function"
    },
    {
      "inputs": [
        {
          "internalType": "address",
          "name": "user",
          "type": "address"
        }
      ],
      "name": "getUserBonusPlays",
      "outputs": [
        {
          "internalType": "uint256",
          "name": "",
          "type": "uint256"
        }
      ],
      "stateMutability": "view",
      "type": "function"
    },
    {
      "inputs": [
        {
          "internalType": "address",
          "name": "user",
          "type": "address"
        }
      ],
      "name": "getUserWeight",
      "outputs": [
        {
          "internalType": "uint256",
          "name": "",
          "type": "uint256"
        }
      ],
      "stateMutability": "view",
      "type": "function"
    },
    {
      "inputs": [],
      "name": "grepToken",
      "outputs": [
        {
          "internalType": "contract IERC20",
          "name": "",
          "type": "address"
        }
      ],
      "stateMutability": "view",
      "type": "function"
    },
    {
      "inputs": [],
      "name": "lastRewardTime",
      "outputs": [
        {
          "internalType": "uint256",
          "name": "",
          "type": "uint256"
        }
      ],
      "stateMutability": "view",
      "type": "function"
    },
    {
      "inputs": [],
      "name": "owner",
      "outputs": [
        {
          "internalType": "address",
          "name": "",
          "type": "address"
        }
      ],
      "stateMutability": "view",
      "type": "function"
    },
    {
      "inputs": [],
      "name": "pause",
      "outputs": [],
      "stateMutability": "nonpayable",
      "type": "function"
    },
    {
      "inputs": [],
      "name": "paused",
      "outputs": [
        {
          "internalType": "bool",
          "name": "",
          "type": "bool"
        }
      ],
      "stateMutability": "view",
      "type": "function"
    },
    {
      "inputs": [
        {
          "internalType": "address",
          "name": "user",
          "type": "address"
        }
      ],
      "name": "pendingRewards",
      "outputs": [
        {
          "internalType": "uint256",
          "name": "",
          "type": "uint256"
        }
      ],
      "stateMutability": "view",
      "type": "function"
    },
    {
      "inputs": [],
      "name": "renounceOwnership",
      "outputs": [],
      "stateMutability": "nonpayable",
      "type": "function"
    },
    {
      "inputs": [],
      "name": "rewardPool",
      "outputs": [
        {
          "internalType": "uint256",
          "name": "",
          "type": "uint256"
        }
      ],
      "stateMutability": "view",
      "type": "function"
    },
    {
      "inputs": [
        {
          "internalType": "uint256",
          "name": "amount",
          "type": "uint256"
        },
        {
          "internalType": "enum GrepStakingPool.Tier",
          "name": "tier",
          "type": "uint8"
        }
      ],
      "name": "stake",
      "outputs": [],
      "stateMutability": "nonpayable",
      "type": "function"
    },
    {
      "inputs": [
        {
          "internalType": "address",
          "name": "",
          "type": "address"
        }
      ],
      "name": "stakes",
      "outputs": [
        {
          "internalType": "uint256",
          "name": "amount",
          "type": "uint256"
        },
        {
          "internalType": "enum GrepStakingPool.Tier",
          "name": "tier",
          "type": "uint8"
        },
        {
          "internalType": "uint256",
          "name": "stakedAt",
          "type": "uint256"
        },
        {
          "internalType": "uint256",
          "name": "lockedUntil",
          "type": "uint256"
        },
        {
          "internalType": "uint256",
          "name": "rewardDebt",
          "type": "uint256"
        },
        {
          "internalType": "uint256",
          "name": "totalClaimed",
          "type": "uint256"
        }
      ],
      "stateMutability": "view",
      "type": "function"
    },
    {
      "inputs": [
        {
          "internalType": "enum GrepStakingPool.Tier",
          "name": "",
          "type": "uint8"
        }
      ],
      "name": "tierInfo",
      "outputs": [
        {
          "internalType": "uint256",
          "name": "minStake",
          "type": "uint256"
        },
        {
          "internalType": "uint256",
          "name": "lockDuration",
          "type": "uint256"
        },
        {
          "internalType": "uint256",
          "name": "rewardWeight",
          "type": "uint256"
        },
        {
          "internalType": "uint256",
          "name": "bonusPlays",
          "type": "uint256"
        }
      ],
      "stateMutability": "view",
      "type": "function"
    },
    {
      "inputs": [],
      "name": "totalRewardsDistributed",
      "outputs": [
        {
          "internalType": "uint256",
          "name": "",
          "type": "uint256"
        }
      ],
      "stateMutability": "view",
      "type": "function"
    },
    {
      "inputs": [],
      "name": "totalStaked",
      "outputs": [
        {
          "internalType": "uint256",
          "name": "",
          "type": "uint256"
        }
      ],
      "stateMutability": "view",
      "type": "function"
    },
    {
      "inputs": [],
      "name": "totalStakers",
      "outputs": [
        {
          "internalType": "uint256",
          "name": "",
          "type": "uint256"
        }
      ],
      "stateMutability": "view",
      "type": "function"
    },
    {
      "inputs": [],
      "name": "totalWeightedStake",
      "outputs": [
        {
          "internalType": "uint256",
          "name": "",
          "type": "uint256"
        }
      ],
      "stateMutability": "view",
      "type": "function"
    },
    {
      "inputs": [
        {
          "internalType": "address",
          "name": "newOwner",
          "type": "address"
        }
      ],
      "name": "transferOwnership",
      "outputs": [],
      "stateMutability": "nonpayable",
      "type": "function"
    },
    {
      "inputs": [],
      "name": "unpause",
      "outputs": [],
      "stateMutability": "nonpayable",
      "type": "function"
    },
    {
      "inputs": [],
      "name": "unstake",
      "outputs": [],
      "stateMutability": "nonpayable",
      "type": "function"
    }
  ],
  "bytecode": "0x60a06040523480156200001157600080fd5b5060405162001d0938038062001d0983398101604081905262000034916200043d565b33806200005c57604051631e4fbdf760e01b8152600060048201526024015b60405180910390fd5b6200006781620003ed565b50600180556001600160a01b038116620000c45760405162461bcd60e51b815260206004820152601560248201527f496e76616c696420746f6b656e20616464726573730000000000000000000000604482015260640162000053565b6001600160a01b031660809081524260075560408051808301825268056bc75e2d6310000081526000602080830182815260648486019081526002606080870182815260018752600380875297517fa15bc60c955c405d20d9149c709e2460f1c2d9a497496a7f46004d1772c3054c5593517fa15bc60c955c405d20d9149c709e2460f1c2d9a497496a7f46004d1772c3054d5591517fa15bc60c955c405d20d9149c709e2460f1c2d9a497496a7f46004d1772c3054e5591517fa15bc60c955c405d20d9149c709e2460f1c2d9a497496a7f46004d1772c3054f5585518088018752683635c9adc5dea00000815262093a80818501908152607d828901908152600583850190815294875287865291517fc3a24b0501bd2c13a7e57f2db4369ec4c223447539fc0724a9d55ac4a06ebd4d55517fc3a24b0501bd2c13a7e57f2db4369ec4c223447539fc0724a9d55ac4a06ebd4e55517fc3a24b0501bd2c13a7e57f2db4369ec4c223447539fc0724a9d55ac4a06ebd4f5590517fc3a24b0501bd2c13a7e57f2db4369ec4c223447539fc0724a9d55ac4a06ebd50558451808701865269010f0cf064dd59200000815262278d008184019081526096828801908152600a83850190815287875287865292517fcbc4e5fb02c3d1de23a9f1e014b4d2ee5aeaea9505df5e855c9210bf472495af5590517fcbc4e5fb02c3d1de23a9f1e014b4d2ee5aeaea9505df5e855c9210bf472495b055517fcbc4e5fb02c3d1de23a9f1e014b4d2ee5aeaea9505df5e855c9210bf472495b155517fcbc4e5fb02c3d1de23a9f1e014b4d2ee5aeaea9505df5e855c9210bf472495b2558451958601855269054b40b1f852bda0000086526276a70086830190815260c89587019586526014918701918252600490935292905292517f83ec6a1f0257b830b5e016457c9cf1435391bf56cc98f369a58a54fe937724655591517f83ec6a1f0257b830b5e016457c9cf1435391bf56cc98f369a58a54fe9377246655517f83ec6a1f0257b830b5e016457c9cf1435391bf56cc98f369a58a54fe9377246755517f83ec6a1f0257b830b5e016457c9cf1435391bf56cc98f369a58a54fe93772468556200046f565b600080546001600160a01b038381166001600160a01b0319831681178455604051919092169283917f8be0079c531659141344cd1fd0a4f28419497f9722a3daafe3b4186f6b6457e09190a35050565b6000602082840312156200045057600080fd5b81516001600160a01b03811681146200046857600080fd5b9392505050565b60805161184d620004bc6000396000818161032a01528181610539015281816105df015281816109a501528181610a7c01528181610c1901528181610cae0152610db8015261184d6000f3fe608060405234801561001057600080fd5b506004361061018e5760003560e01c80638da5cb5b116100de578063beceed3911610097578063cd0fd3a211610071578063cd0fd3a2146103a3578063ee172546146103b6578063eed9da1f146103bf578063f2fde38b146103c857600080fd5b8063beceed391461035d578063c345315314610370578063c925c6801461039057600080fd5b80638da5cb5b146102db5780639231cf7414610300578063939d62371461030957806395ccea6714610312578063a999d1c714610325578063bbb851881461034c57600080fd5b80633f4ba83a1161014b578063715018a611610125578063715018a6146102b9578063817b1cd2146102c15780638456cb59146102ca57806386989038146102d257600080fd5b80633f4ba83a146102925780635c975abb1461029a57806366666aa9146102b057600080fd5b806310087fb11461019357806316934fc4146101a85780632def66201461020a57806331d7a2621461021257806335766f4b14610233578063372500ab1461028a575b600080fd5b6101a66101a13660046115ab565b6103db565b005b6101ef6101b63660046115ee565b6004602081905260009182526040909120805460018201546002830154600384015494840154600590940154929460ff90921693909286565b60405161020196959493929190611641565b60405180910390f35b6101a66108a8565b6102256102203660046115ee565b610ae7565b604051908152602001610201565b61026a610241366004611678565b600360208190526000918252604090912080546001820154600283015492909301549092919084565b604080519485526020850193909352918301526060820152608001610201565b6101a6610af8565b6101a6610c72565b60025460ff166040519015158152602001610201565b61022560055481565b6101a6610c82565b61022560085481565b6101a6610c94565b610225600a5481565b6000546001600160a01b03165b6040516001600160a01b039091168152602001610201565b61022560075481565b61022560065481565b6101a6610320366004611693565b610ca4565b6102e87f000000000000000000000000000000000000000000000000000000000000000081565b600854600a54600554600b5461026a565b6101a661036b3660046116bd565b610d53565b61038361037e3660046115ee565b610e41565b60405161020191906116d6565b61022561039e3660046115ee565b610f86565b6102256103b13660046115ee565b610ff9565b610225600b5481565b61022560095481565b6101a66103d63660046115ee565b61106c565b6103e36110a7565b6103eb6110d1565b60008160048111156103ff576103ff611609565b036104405760405162461bcd60e51b815260206004820152600c60248201526b24b73b30b634b2103a34b2b960a11b60448201526064015b60405180910390fd5b6003600082600481111561045657610456611609565b600481111561046757610467611609565b8152602001908152602001600020600001548210156104c85760405162461bcd60e51b815260206004820152601c60248201527f42656c6f77206d696e696d756d207374616b6520666f722074696572000000006044820152606401610437565b6104d06110f5565b3360009081526004602052604090208054156105bc5760006104f13361114e565b90508015610596578082600501600082825461050d919061174b565b9250508190555080600b6000828254610526919061174b565b9091555061056090506001600160a01b037f00000000000000000000000000000000000000000000000000000000000000001633836111d4565b60405181815233907ffc30cddea38e2bf4d6ea7d3f9ed3b6ad7f176419f4963bd81318067a4aee73fe9060200160405180910390a25b61059f33611238565b600960008282546105b0919061175e565b909155506105d2915050565b600a80549060006105cc83611771565b91905055505b6106076001600160a01b037f0000000000000000000000000000000000000000000000000000000000000000163330866112c6565b805460009061061790859061174b565b905060006003600085600481111561063157610631611609565b600481111561064257610642611609565b8152602001908152602001600020600101544261065f919061174b565b600184015490915060ff16600061067584611305565b905085600481111561068957610689611609565b81600481111561069b5761069b611609565b11156106eb57809550600360008760048111156106ba576106ba611609565b60048111156106cb576106cb611609565b815260200190815260200160002060010154426106e8919061174b565b92505b83855560018086018054889260ff199091169083600481111561071057610710611609565b021790555042600286015560038086018490556000906064908289600481111561073c5761073c611609565b600481111561074d5761074d611609565b8152602001908152602001600020600201548661076a919061178a565b61077491906117a1565b90508060096000828254610788919061174b565b909155505060065464e8d4a51000906107a1908361178a565b6107ab91906117a1565b866004018190555087600860008282546107c5919061174b565b909155505060405133907fbde7f0ba1630d25515c7ab99ba47d5640b7ffb4c673b2a5464ae67919558929890610800908b908b9089906117c3565b60405180910390a286600481111561081a5761081a611609565b83600481111561082c5761082c611609565b1415801561084c5750600083600481111561084957610849611609565b14155b1561089557336001600160a01b03167fcbbf00b5f55f1857f9362f521999f79036413e420d1b236d6bc143af30db731a848960405161088c9291906117e5565b60405180910390a25b5050505050506108a460018055565b5050565b6108b06110a7565b33600090815260046020526040902080546108fe5760405162461bcd60e51b815260206004820152600e60248201526d139bc81cdd185ad948199bdd5b9960921b6044820152606401610437565b806003015442101561094a5760405162461bcd60e51b815260206004820152601560248201527414dd185ad9481a5cc81cdd1a5b1b081b1bd8dad959605a1b6044820152606401610437565b6109526110f5565b600061095d3361114e565b90508015610a025780826005016000828254610979919061174b565b9250508190555080600b6000828254610992919061174b565b909155506109cc90506001600160a01b037f00000000000000000000000000000000000000000000000000000000000000001633836111d4565b60405181815233907ffc30cddea38e2bf4d6ea7d3f9ed3b6ad7f176419f4963bd81318067a4aee73fe9060200160405180910390a25b8154610a0d33611238565b60096000828254610a1e919061175e565b9091555050600080845560018401805460ff19169055600384018190556004840181905560088054839290610a5490849061175e565b9091555050600a8054906000610a6983611800565b90915550610aa390506001600160a01b037f00000000000000000000000000000000000000000000000000000000000000001633836111d4565b60405181815233907f0f5bb82176feb1b5e747e28471aa92156a04d9f3ab9f45f28e2d704232b93f75906020015b60405180910390a2505050610ae560018055565b565b6000610af28261114e565b92915050565b610b006110a7565b610b086110f5565b3360009081526004602052604090208054610b565760405162461bcd60e51b815260206004820152600e60248201526d139bc81cdd185ad948199bdd5b9960921b6044820152606401610437565b6000610b613361114e565b905060008111610ba95760405162461bcd60e51b81526020600482015260136024820152724e6f207265776172647320746f20636c61696d60681b6044820152606401610437565b80826005016000828254610bbd919061174b565b9250508190555080600b6000828254610bd6919061174b565b9091555060009050610be733611238565b905064e8d4a5100060065482610bfd919061178a565b610c0791906117a1565b6004840155610c406001600160a01b037f00000000000000000000000000000000000000000000000000000000000000001633846111d4565b60405182815233907ffc30cddea38e2bf4d6ea7d3f9ed3b6ad7f176419f4963bd81318067a4aee73fe90602001610ad1565b610c7a6113f7565b610ae5611424565b610c8a6113f7565b610ae56000611476565b610c9c6113f7565b610ae56114c6565b610cac6113f7565b7f00000000000000000000000000000000000000000000000000000000000000006001600160a01b0316826001600160a01b031603610d2d5760405162461bcd60e51b815260206004820152601d60248201527f43616e6e6f74207769746864726177207374616b656420746f6b656e730000006044820152606401610437565b6108a4610d426000546001600160a01b031690565b6001600160a01b03841690836111d4565b610d5b6110a7565b60008111610dab5760405162461bcd60e51b815260206004820152601d60248201527f416d6f756e74206d7573742062652067726561746572207468616e20300000006044820152606401610437565b610de06001600160a01b037f0000000000000000000000000000000000000000000000000000000000000000163330846112c6565b8060056000828254610df2919061174b565b90915550610e0090506110f5565b60405181815233907f5e60183dabac4cd15ced44d40b9f2f385ce62ad9238550fa50f4fe58f3db9de59060200160405180910390a2610e3e60018055565b50565b610e8a6040805161010081019091526000808252602082019081526020016000815260200160008152602001600081526020016000815260200160008152602001600081525090565b6001600160a01b038216600090815260046020819052604082206001810154909291600391839160ff90911690811115610ec657610ec6611609565b6004811115610ed757610ed7611609565b81526020808201929092526040016000208354855260018401549092509084019060ff166004811115610f0c57610f0c611609565b90816004811115610f1f57610f1f611609565b905250600282015460408401526003820154606084015260058201546080840152610f4984610ae7565b60a08401528154610f5b576064610f61565b80600201545b60c08401528154610f73576000610f79565b80600301545b60e0840152509092915050565b6001600160a01b038116600090815260046020526040812080548203610faf5750606492915050565b600181015460039060009060ff166004811115610fce57610fce611609565b6004811115610fdf57610fdf611609565b815260200190815260200160002060020154915050919050565b6001600160a01b0381166000908152600460205260408120805482036110225750600092915050565b600181015460039060009060ff16600481111561104157611041611609565b600481111561105257611052611609565b815260200190815260200160002060030154915050919050565b6110746113f7565b6001600160a01b03811661109e57604051631e4fbdf760e01b815260006004820152602401610437565b610e3e81611476565b6002600154036110ca57604051633ee5aeb560e01b815260040160405180910390fd5b6002600155565b60025460ff1615610ae55760405163d93c066560e01b815260040160405180910390fd5b6009546000036111055742600755565b60055415611148576009546005546111229064e8d4a5100061178a565b61112c91906117a1565b6006600082825461113d919061174b565b909155505060006005555b42600755565b6001600160a01b0381166000908152600460205260408120805482036111775750600092915050565b600061118284611238565b9050600064e8d4a510006006548361119a919061178a565b6111a491906117a1565b9050826004015481116111bc57506000949350505050565b60048301546111cb908261175e565b95945050505050565b6040516001600160a01b0383811660248301526044820183905261123391859182169063a9059cbb906064015b604051602081830303815290604052915060e01b6020820180516001600160e01b038381831617835250505050611503565b505050565b6001600160a01b0381166000908152600460205260408120805482036112615750600092915050565b600181015460649060039060009060ff16600481111561128357611283611609565b600481111561129457611294611609565b81526020019081526020016000206002015482600001546112b5919061178a565b6112bf91906117a1565b9392505050565b6040516001600160a01b0384811660248301528381166044830152606482018390526112ff9186918216906323b872dd90608401611201565b50505050565b6004600090815260036020527f83ec6a1f0257b830b5e016457c9cf1435391bf56cc98f369a58a54fe9377246554821061134157506004919050565b600360008190526020527fcbc4e5fb02c3d1de23a9f1e014b4d2ee5aeaea9505df5e855c9210bf472495af54821061137b57506003919050565b600260005260036020527fc3a24b0501bd2c13a7e57f2db4369ec4c223447539fc0724a9d55ac4a06ebd4d5482106113b557506002919050565b600160005260036020527fa15bc60c955c405d20d9149c709e2460f1c2d9a497496a7f46004d1772c3054c5482106113ef57506001919050565b506000919050565b6000546001600160a01b03163314610ae55760405163118cdaa760e01b8152336004820152602401610437565b61142c611574565b6002805460ff191690557f5db9ee0a495bf2e6ff9c91a7834c1ba4fdd244a5e8aa4e537bd38aeae4b073aa335b6040516001600160a01b03909116815260200160405180910390a1565b600080546001600160a01b038381166001600160a01b0319831681178455604051919092169283917f8be0079c531659141344cd1fd0a4f28419497f9722a3daafe3b4186f6b6457e09190a35050565b6114ce6110d1565b6002805460ff191660011790557f62e78cea01bee320cd4e420270b5ea74000d11b0c9f74754ebdbfc544b05a2586114593390565b600080602060008451602086016000885af180611526576040513d6000823e3d81fd5b50506000513d9150811561153e57806001141561154b565b6001600160a01b0384163b155b156112ff57604051635274afe760e01b81526001600160a01b0385166004820152602401610437565b60025460ff16610ae557604051638dfc202b60e01b815260040160405180910390fd5b8035600581106115a657600080fd5b919050565b600080604083850312156115be57600080fd5b823591506115ce60208401611597565b90509250929050565b80356001600160a01b03811681146115a657600080fd5b60006020828403121561160057600080fd5b6112bf826115d7565b634e487b7160e01b600052602160045260246000fd5b6005811061163d57634e487b7160e01b600052602160045260246000fd5b9052565b86815260c08101611655602083018861161f565b8560408301528460608301528360808301528260a0830152979650505050505050565b60006020828403121561168a57600080fd5b6112bf82611597565b600080604083850312156116a657600080fd5b6116af836115d7565b946020939093013593505050565b6000602082840312156116cf57600080fd5b5035919050565b815181526020808301516101008301916116f29084018261161f565b5060408301516040830152606083015160608301526080830151608083015260a083015160a083015260c083015160c083015260e083015160e083015292915050565b634e487b7160e01b600052601160045260246000fd5b80820180821115610af257610af2611735565b81810381811115610af257610af2611735565b60006001820161178357611783611735565b5060010190565b8082028115828204841417610af257610af2611735565b6000826117be57634e487b7160e01b600052601260045260246000fd5b500490565b838152606081016117d7602083018561161f565b826040830152949350505050565b604081016117f3828561161f565b6112bf602083018461161f565b60008161180f5761180f611735565b50600019019056fea26469706673582212209d3f04e7d790d4fd75ee377e2fe85cfd577e9d2ae50a0735612a07b175bf741f64736f6c63430008180033",
  "linkReferences": {},
  "deployedLinkReferences": {}
}