{
  "_format": "hh-sol-artifact-1",
  "contractName": "GrepStakingPool",
  "sourceName": "contracts/GrepStakingPool.sol",
  "abi": [
    {
      "inputs": [
        {
          "internalType": "address",
          "name": "_grepToken",
          "type": "address"
        }
      ],
      "stateMutability": "nonpayable",
      "type": "constructor"
    },
    {
      "inputs": [],
      "name": "EnforcedPause",
      "type": "error"
    },
    {
      "inputs": [],
      "name": "ExpectedPause",
      "type": "error"
    },
    {
      "inputs": [
        {
          "internalType": "address",
          "name": "owner",
          "type": "address"
        }
      ],
      "name": "OwnableInvalidOwner",
      "type": "error"
    },
    {
      "inputs": [
        {
          "internalType": "address",
          "name": "account",
          "type": "address"
        }
      ],
      "name": "OwnableUnauthorizedAccount",
      "type": "error"
    },
    {
      "inputs": [],
      "name": "ReentrancyGuardReentrantCall",
      "type": "error"
    },
    {
      "inputs": [
        {
          "internalType": "address",
          "name": "token",
          "type": "address"
        }
      ],
      "name": "SafeERC20FailedOperation",
      "type": "error"
    },
    {
      "anonymous": false,
      "inputs": [
        {
          "indexed": true,
          "internalType": "address",
          "name": "previousOwner",
          "type": "address"
        },
        {
          "indexed": true,
          "internalType": "address",
          "name": "newOwner",
          "type": "address"
        }
      ],
      "name": "OwnershipTransferred",
      "type": "event"
    },
    {
      "anonymous": false,
      "inputs": [
        {
          "indexed": false,
          "internalType": "address",
          "name": "account",
          "type": "address"
        }
      ],
      "name": "Paused",
      "type": "event"
    },
    {
      "anonymous": false,
      "inputs": [
        {
          "indexed": true,
          "internalType": "address",
          "name": "user",
          "type": "address"
        },
        {
          "indexed": false,
          "internalType": "uint256",
          "name": "amount",
          "type": "uint256"
        }
      ],
      "name": "RewardsClaimed",
      "type": "event"
    },
    {
      "anonymous": false,
      "inputs": [
        {
          "indexed": true,
          "internalType": "address",
          "name": "user",
          "type": "address"
        },
        {
          "indexed": false,
          "internalType": "uint256",
          "name": "amount",
          "type": "uint256"
        },
        {
          "indexed": false,
          "internalType": "enum GrepStakingPool.Tier",
          "name": "tier",
          "type": "uint8"
        },
        {
          "indexed": false,
          "internalType": "uint256",
          "name": "lockedUntil",
          "type": "uint256"
        }
      ],
      "name": "Staked",
      "type": "event"
    },
    {
      "anonymous": false,
      "inputs": [
        {
          "indexed": true,
          "internalType": "address",
          "name": "user",
          "type": "address"
        },
        {
          "indexed": false,
          "internalType": "enum GrepStakingPool.Tier",
          "name": "oldTier",
          "type": "uint8"
        },
        {
          "indexed": false,
          "internalType": "enum GrepStakingPool.Tier",
          "name": "newTier",
          "type": "uint8"
        }
      ],
      "name": "TierUpgraded",
      "type": "event"
    },
    {
      "anonymous": false,
      "inputs": [
        {
          "indexed": false,
          "internalType": "address",
          "name": "account",
          "type": "address"
        }
      ],
      "name": "Unpaused",
      "type": "event"
    },
    {
      "anonymous": false,
      "inputs": [
        {
          "indexed": true,
          "internalType": "address",
          "name": "user",
          "type": "address"
        },
        {
          "indexed": false,
          "internalType": "uint256",
          "name": "amount",
          "type": "uint256"
        }
      ],
      "name": "Unstaked",
      "type": "event"
    },
    {
      "inputs": [],
      "name": "claimRewards",
      "outputs": [],
      "stateMutability": "nonpayable",
      "type": "function"
    },
    {
      "inputs": [
        {
          "internalType": "address",
          "name": "token",
          "type": "address"
        },
        {
          "internalType": "uint256",
          "name": "amount",
          "type": "uint256"
        }
      ],
      "name": "emergencyWithdraw",
      "outputs": [],
      "stateMutability": "nonpayable",
      "type": "function"
    },
    {
      "inputs": [],
      "name": "getAllTiers",
      "outputs": [
        {
          "components": [
            {
              "internalType": "uint256",
              "name": "minStake",
              "type": "uint256"
            },
            {
              "internalType": "uint256",
              "name": "lockDuration",
              "type": "uint256"
            },
            {
              "internalType": "uint256",
              "name": "multiplier",
              "type": "uint256"
            },
            {
              "internalType": "uint256",
              "name": "apyBps",
              "type": "uint256"
            },
            {
              "internalType": "uint256",
              "name": "bonusPlays",
              "type": "uint256"
            }
          ],
          "internalType": "struct GrepStakingPool.TierInfo",
          "name": "flexible",
          "type": "tuple"
        },
        {
          "components": [
            {
              "internalType": "uint256",
              "name": "minStake",
              "type": "uint256"
            },
            {
              "internalType": "uint256",
              "name": "lockDuration",
              "type": "uint256"
            },
            {
              "internalType": "uint256",
              "name": "multiplier",
              "type": "uint256"
            },
            {
              "internalType": "uint256",
              "name": "apyBps",
              "type": "uint256"
            },
            {
              "internalType": "uint256",
              "name": "bonusPlays",
              "type": "uint256"
            }
          ],
          "internalType": "struct GrepStakingPool.TierInfo",
          "name": "bronze",
          "type": "tuple"
        },
        {
          "components": [
            {
              "internalType": "uint256",
              "name": "minStake",
              "type": "uint256"
            },
            {
              "internalType": "uint256",
              "name": "lockDuration",
              "type": "uint256"
            },
            {
              "internalType": "uint256",
              "name": "multiplier",
              "type": "uint256"
            },
            {
              "internalType": "uint256",
              "name": "apyBps",
              "type": "uint256"
            },
            {
              "internalType": "uint256",
              "name": "bonusPlays",
              "type": "uint256"
            }
          ],
          "internalType": "struct GrepStakingPool.TierInfo",
          "name": "silver",
          "type": "tuple"
        },
        {
          "components": [
            {
              "internalType": "uint256",
              "name": "minStake",
              "type": "uint256"
            },
            {
              "internalType": "uint256",
              "name": "lockDuration",
              "type": "uint256"
            },
            {
              "internalType": "uint256",
              "name": "multiplier",
              "type": "uint256"
            },
            {
              "internalType": "uint256",
              "name": "apyBps",
              "type": "uint256"
            },
            {
              "internalType": "uint256",
              "name": "bonusPlays",
              "type": "uint256"
            }
          ],
          "internalType": "struct GrepStakingPool.TierInfo",
          "name": "gold",
          "type": "tuple"
        },
        {
          "components": [
            {
              "internalType": "uint256",
              "name": "minStake",
              "type": "uint256"
            },
            {
              "internalType": "uint256",
              "name": "lockDuration",
              "type": "uint256"
            },
            {
              "internalType": "uint256",
              "name": "multiplier",
              "type": "uint256"
            },
            {
              "internalType": "uint256",
              "name": "apyBps",
              "type": "uint256"
            },
            {
              "internalType": "uint256",
              "name": "bonusPlays",
              "type": "uint256"
            }
          ],
          "internalType": "struct GrepStakingPool.TierInfo",
          "name": "diamond",
          "type": "tuple"
        }
      ],
      "stateMutability": "view",
      "type": "function"
    },
    {
      "inputs": [
        {
          "internalType": "address",
          "name": "user",
          "type": "address"
        }
      ],
      "name": "getStakeInfo",
      "outputs": [
        {
          "components": [
            {
              "internalType": "uint256",
              "name": "amount",
              "type": "uint256"
            },
            {
              "internalType": "enum GrepStakingPool.Tier",
              "name": "tier",
              "type": "uint8"
            },
            {
              "internalType": "uint256",
              "name": "stakedAt",
              "type": "uint256"
            },
            {
              "internalType": "uint256",
              "name": "lockedUntil",
              "type": "uint256"
            },
            {
              "internalType": "uint256",
              "name": "lastClaimAt",
              "type": "uint256"
            },
            {
              "internalType": "uint256",
              "name": "totalClaimed",
              "type": "uint256"
            },
            {
              "internalType": "uint256",
              "name": "pendingReward",
              "type": "uint256"
            },
            {
              "internalType": "uint256",
              "name": "multiplier",
              "type": "uint256"
            },
            {
              "internalType": "uint256",
              "name": "bonusPlays",
              "type": "uint256"
            }
          ],
          "internalType": "struct GrepStakingPool.FullStakeInfo",
          "name": "info",
          "type": "tuple"
        }
      ],
      "stateMutability": "view",
      "type": "function"
    },
    {
      "inputs": [
        {
          "internalType": "enum GrepStakingPool.Tier",
          "name": "tier",
          "type": "uint8"
        }
      ],
      "name": "getTierInfo",
      "outputs": [
        {
          "components": [
            {
              "internalType": "uint256",
              "name": "minStake",
              "type": "uint256"
            },
            {
              "internalType": "uint256",
              "name": "lockDuration",
              "type": "uint256"
            },
            {
              "internalType": "uint256",
              "name": "multiplier",
              "type": "uint256"
            },
            {
              "internalType": "uint256",
              "name": "apyBps",
              "type": "uint256"
            },
            {
              "internalType": "uint256",
              "name": "bonusPlays",
              "type": "uint256"
            }
          ],
          "internalType": "struct GrepStakingPool.TierInfo",
          "name": "",
          "type": "tuple"
        }
      ],
      "stateMutability": "view",
      "type": "function"
    },
    {
      "inputs": [
        {
          "internalType": "address",
          "name": "user",
          "type": "address"
        }
      ],
      "name": "getUserBonusPlays",
      "outputs": [
        {
          "internalType": "uint256",
          "name": "",
          "type": "uint256"
        }
      ],
      "stateMutability": "view",
      "type": "function"
    },
    {
      "inputs": [
        {
          "internalType": "address",
          "name": "user",
          "type": "address"
        }
      ],
      "name": "getUserMultiplier",
      "outputs": [
        {
          "internalType": "uint256",
          "name": "",
          "type": "uint256"
        }
      ],
      "stateMutability": "view",
      "type": "function"
    },
    {
      "inputs": [],
      "name": "grepMinter",
      "outputs": [
        {
          "internalType": "contract IGrepToken",
          "name": "",
          "type": "address"
        }
      ],
      "stateMutability": "view",
      "type": "function"
    },
    {
      "inputs": [],
      "name": "grepToken",
      "outputs": [
        {
          "internalType": "contract IERC20",
          "name": "",
          "type": "address"
        }
      ],
      "stateMutability": "view",
      "type": "function"
    },
    {
      "inputs": [],
      "name": "owner",
      "outputs": [
        {
          "internalType": "address",
          "name": "",
          "type": "address"
        }
      ],
      "stateMutability": "view",
      "type": "function"
    },
    {
      "inputs": [],
      "name": "pause",
      "outputs": [],
      "stateMutability": "nonpayable",
      "type": "function"
    },
    {
      "inputs": [],
      "name": "paused",
      "outputs": [
        {
          "internalType": "bool",
          "name": "",
          "type": "bool"
        }
      ],
      "stateMutability": "view",
      "type": "function"
    },
    {
      "inputs": [
        {
          "internalType": "address",
          "name": "user",
          "type": "address"
        }
      ],
      "name": "pendingRewards",
      "outputs": [
        {
          "internalType": "uint256",
          "name": "",
          "type": "uint256"
        }
      ],
      "stateMutability": "view",
      "type": "function"
    },
    {
      "inputs": [],
      "name": "renounceOwnership",
      "outputs": [],
      "stateMutability": "nonpayable",
      "type": "function"
    },
    {
      "inputs": [
        {
          "internalType": "uint256",
          "name": "amount",
          "type": "uint256"
        },
        {
          "internalType": "enum GrepStakingPool.Tier",
          "name": "tier",
          "type": "uint8"
        }
      ],
      "name": "stake",
      "outputs": [],
      "stateMutability": "nonpayable",
      "type": "function"
    },
    {
      "inputs": [
        {
          "internalType": "address",
          "name": "",
          "type": "address"
        }
      ],
      "name": "stakes",
      "outputs": [
        {
          "internalType": "uint256",
          "name": "amount",
          "type": "uint256"
        },
        {
          "internalType": "enum GrepStakingPool.Tier",
          "name": "tier",
          "type": "uint8"
        },
        {
          "internalType": "uint256",
          "name": "stakedAt",
          "type": "uint256"
        },
        {
          "internalType": "uint256",
          "name": "lockedUntil",
          "type": "uint256"
        },
        {
          "internalType": "uint256",
          "name": "lastClaimAt",
          "type": "uint256"
        },
        {
          "internalType": "uint256",
          "name": "totalClaimed",
          "type": "uint256"
        }
      ],
      "stateMutability": "view",
      "type": "function"
    },
    {
      "inputs": [
        {
          "internalType": "enum GrepStakingPool.Tier",
          "name": "",
          "type": "uint8"
        }
      ],
      "name": "tierInfo",
      "outputs": [
        {
          "internalType": "uint256",
          "name": "minStake",
          "type": "uint256"
        },
        {
          "internalType": "uint256",
          "name": "lockDuration",
          "type": "uint256"
        },
        {
          "internalType": "uint256",
          "name": "multiplier",
          "type": "uint256"
        },
        {
          "internalType": "uint256",
          "name": "apyBps",
          "type": "uint256"
        },
        {
          "internalType": "uint256",
          "name": "bonusPlays",
          "type": "uint256"
        }
      ],
      "stateMutability": "view",
      "type": "function"
    },
    {
      "inputs": [],
      "name": "totalRewardsDistributed",
      "outputs": [
        {
          "internalType": "uint256",
          "name": "",
          "type": "uint256"
        }
      ],
      "stateMutability": "view",
      "type": "function"
    },
    {
      "inputs": [],
      "name": "totalStaked",
      "outputs": [
        {
          "internalType": "uint256",
          "name": "",
          "type": "uint256"
        }
      ],
      "stateMutability": "view",
      "type": "function"
    },
    {
      "inputs": [],
      "name": "totalStakers",
      "outputs": [
        {
          "internalType": "uint256",
          "name": "",
          "type": "uint256"
        }
      ],
      "stateMutability": "view",
      "type": "function"
    },
    {
      "inputs": [
        {
          "internalType": "address",
          "name": "newOwner",
          "type": "address"
        }
      ],
      "name": "transferOwnership",
      "outputs": [],
      "stateMutability": "nonpayable",
      "type": "function"
    },
    {
      "inputs": [],
      "name": "unpause",
      "outputs": [],
      "stateMutability": "nonpayable",
      "type": "function"
    },
    {
      "inputs": [],
      "name": "unstake",
      "outputs": [],
      "stateMutability": "nonpayable",
      "type": "function"
    }
  ],
  "bytecode": "0x60c06040523480156200001157600080fd5b5060405162002013380380620020138339810160408190526200003491620005e2565b33806200005c57604051631e4fbdf760e01b8152600060048201526024015b60405180910390fd5b620000678162000592565b50600180556001600160a01b038116620000c45760405162461bcd60e51b815260206004820152601560248201527f496e76616c696420746f6b656e20616464726573730000000000000000000000604482015260640162000053565b6001600160a01b0316608081815260a091825260408051808401825268056bc75e2d63100000815260006020808301828152612af88486019081526101f460608087019182526002878a0181815260018852600380885298517fa15bc60c955c405d20d9149c709e2460f1c2d9a497496a7f46004d1772c3054c5594517fa15bc60c955c405d20d9149c709e2460f1c2d9a497496a7f46004d1772c3054d5592517fa15bc60c955c405d20d9149c709e2460f1c2d9a497496a7f46004d1772c3054e5590517fa15bc60c955c405d20d9149c709e2460f1c2d9a497496a7f46004d1772c3054f5591517fa15bc60c955c405d20d9149c709e2460f1c2d9a497496a7f46004d1772c305505585518089018752683635c9adc5dea00000815262093a808185019081526130d48289019081526103208386019081526005848c0181815295895289885293517fc3a24b0501bd2c13a7e57f2db4369ec4c223447539fc0724a9d55ac4a06ebd4d5591517fc3a24b0501bd2c13a7e57f2db4369ec4c223447539fc0724a9d55ac4a06ebd4e55517fc3a24b0501bd2c13a7e57f2db4369ec4c223447539fc0724a9d55ac4a06ebd4f55517fc3a24b0501bd2c13a7e57f2db4369ec4c223447539fc0724a9d55ac4a06ebd505590517fc3a24b0501bd2c13a7e57f2db4369ec4c223447539fc0724a9d55ac4a06ebd51558551808901875269010f0cf064dd59200000815262127500818501908152613a988289019081526104b0838601908152600a848c0190815289895289885293517fcbc4e5fb02c3d1de23a9f1e014b4d2ee5aeaea9505df5e855c9210bf472495af5591517fcbc4e5fb02c3d1de23a9f1e014b4d2ee5aeaea9505df5e855c9210bf472495b055517fcbc4e5fb02c3d1de23a9f1e014b4d2ee5aeaea9505df5e855c9210bf472495b155517fcbc4e5fb02c3d1de23a9f1e014b4d2ee5aeaea9505df5e855c9210bf472495b255517fcbc4e5fb02c3d1de23a9f1e014b4d2ee5aeaea9505df5e855c9210bf472495b3558551808901875269021e19e0c9bab2400000815262278d0081850190815261445c8289019081526105dc838601908152600f848c019081526004895289885293517f83ec6a1f0257b830b5e016457c9cf1435391bf56cc98f369a58a54fe937724655591517f83ec6a1f0257b830b5e016457c9cf1435391bf56cc98f369a58a54fe9377246655517f83ec6a1f0257b830b5e016457c9cf1435391bf56cc98f369a58a54fe9377246755517f83ec6a1f0257b830b5e016457c9cf1435391bf56cc98f369a58a54fe9377246855517f83ec6a1f0257b830b5e016457c9cf1435391bf56cc98f369a58a54fe937724695585519788018652690a968163f0a57b40000088526276a700888401908152614e209689019687526107d09289019283526019978901978852935292905293517f405aad32e1adbac89bb7f176e338b8fc6e994ca210c9bb7bdca249b4659422505592517f405aad32e1adbac89bb7f176e338b8fc6e994ca210c9bb7bdca249b46594225155517f405aad32e1adbac89bb7f176e338b8fc6e994ca210c9bb7bdca249b4659422525590517f405aad32e1adbac89bb7f176e338b8fc6e994ca210c9bb7bdca249b46594225355517f405aad32e1adbac89bb7f176e338b8fc6e994ca210c9bb7bdca249b4659422545562000614565b600080546001600160a01b038381166001600160a01b0319831681178455604051919092169283917f8be0079c531659141344cd1fd0a4f28419497f9722a3daafe3b4186f6b6457e09190a35050565b600060208284031215620005f557600080fd5b81516001600160a01b03811681146200060d57600080fd5b9392505050565b60805160a0516119bd620006566000396000818161026d0152611237015260008181610341015281816104f9015281816107fc0152610e2b01526119bd6000f3fe608060405234801561001057600080fd5b506004361061014d5760003560e01c80637ed85ff3116100c3578063a999d1c71161007c578063a999d1c71461033c578063c345315314610363578063c5e22f3f14610383578063cd0fd3a214610396578063ee172546146103a9578063f2fde38b146103b257600080fd5b80637ed85ff3146102de578063817b1cd2146102fe5780638456cb5914610307578063869890381461030f5780638da5cb5b1461031857806395ccea671461032957600080fd5b8063372500ab11610115578063372500ab146102585780633f4ba83a1461026057806351032b06146102685780635c975abb146102a75780636471af83146102bd578063715018a6146102d657600080fd5b806310087fb11461015257806316934fc4146101675780632def6620146101c957806331d7a262146101d157806335766f4b146101f2575b600080fd5b61016561016036600461168d565b6103c5565b005b6101ae6101753660046116d0565b6004602081905260009182526040909120805460018201546002830154600384015494840154600590940154929460ff90921693909286565b6040516101c09695949392919061172a565b60405180910390f35b6101656106fd565b6101e46101df3660046116d0565b610865565b6040519081526020016101c0565b610230610200366004611761565b60036020819052600091825260409091208054600182015460028301549383015460049093015491939092909185565b604080519586526020860194909452928401919091526060830152608082015260a0016101c0565b61016561092a565b610165610944565b61028f7f000000000000000000000000000000000000000000000000000000000000000081565b6040516001600160a01b0390911681526020016101c0565b60025460ff1660405190151581526020016101c0565b6102c5610954565b6040516101c09594939291906117ac565b610165610d7e565b6102f16102ec366004611761565b610d90565b6040516101c091906117fc565b6101e460055481565b610165610e11565b6101e460065481565b6000546001600160a01b031661028f565b610165610337366004611810565b610e21565b61028f7f000000000000000000000000000000000000000000000000000000000000000081565b6103766103713660046116d0565b610ed0565b6040516101c0919061183a565b6101e46103913660046116d0565b611025565b6101e46103a43660046116d0565b611099565b6101e460075481565b6101656103c03660046116d0565b61110c565b6103cd61114a565b6103d5611174565b60008160058111156103e9576103e96116f2565b0361042a5760405162461bcd60e51b815260206004820152600c60248201526b24b73b30b634b2103a34b2b960a11b60448201526064015b60405180910390fd5b60036000826005811115610440576104406116f2565b6005811115610451576104516116f2565b8152602001908152602001600020600001548210156104b25760405162461bcd60e51b815260206004820152601c60248201527f42656c6f77206d696e696d756d207374616b6520666f722074696572000000006044820152606401610421565b3360009081526004602052604090208054156104d6576104d133611198565b6104ec565b600680549060006104e6836118bb565b91905055505b6105216001600160a01b037f0000000000000000000000000000000000000000000000000000000000000000163330866112db565b80546000906105319085906118d4565b905060006003600085600581111561054b5761054b6116f2565b600581111561055c5761055c6116f2565b8152602001908152602001600020600101544261057991906118d4565b600184015490915060ff16600061058f84611348565b90508560058111156105a3576105a36116f2565b8160058111156105b5576105b56116f2565b11156105bf578095505b83855560018086018054889260ff19909116908360058111156105e4576105e46116f2565b0217905550426002860155600385018390556004850154600003610609574260048601555b866005600082825461061b91906118d4565b909155505060405133907fbde7f0ba1630d25515c7ab99ba47d5640b7ffb4c673b2a5464ae67919558929890610656908a908a9088906118e7565b60405180910390a2856005811115610670576106706116f2565b826005811115610682576106826116f2565b141580156106a25750600082600581111561069f5761069f6116f2565b14155b156106eb57336001600160a01b03167fcbbf00b5f55f1857f9362f521999f79036413e420d1b236d6bc143af30db731a83886040516106e2929190611909565b60405180910390a25b50505050506106f960018055565b5050565b61070561114a565b33600090815260046020526040902080546107535760405162461bcd60e51b815260206004820152600e60248201526d139bc81cdd185ad948199bdd5b9960921b6044820152606401610421565b806003015442101561079f5760405162461bcd60e51b815260206004820152601560248201527414dd185ad9481a5cc81cdd1a5b1b081b1bd8dad959605a1b6044820152606401610421565b6107a833611198565b8054600080835560018301805460ff1916905560038301819055600580548392906107d4908490611924565b9091555050600680549060006107e983611937565b9091555061082390506001600160a01b037f0000000000000000000000000000000000000000000000000000000000000000163383611474565b60405181815233907f0f5bb82176feb1b5e747e28471aa92156a04d9f3ab9f45f28e2d704232b93f759060200160405180910390a2505061086360018055565b565b6001600160a01b03811660009081526004602052604081208054158061088d57506004810154155b1561089b5750600092915050565b60008160040154426108ad9190611924565b6001830154909150600090600390829060ff1660058111156108d1576108d16116f2565b60058111156108e2576108e26116f2565b815260200190815260200160002060030154905064496cebb8008282856000015461090d919061194e565b610917919061194e565b6109219190611965565b95945050505050565b61093261114a565b61093b33611198565b61086360018055565b61094c6114aa565b6108636114d7565b61095c61164a565b61096461164a565b61096c61164a565b61097461164a565b61097c61164a565b50506003602090815260056000526040805160a080820183527fa15bc60c955c405d20d9149c709e2460f1c2d9a497496a7f46004d1772c3054c5482527fa15bc60c955c405d20d9149c709e2460f1c2d9a497496a7f46004d1772c3054d54828501527fa15bc60c955c405d20d9149c709e2460f1c2d9a497496a7f46004d1772c3054e54828401527fa15bc60c955c405d20d9149c709e2460f1c2d9a497496a7f46004d1772c3054f546060808401919091527fa15bc60c955c405d20d9149c709e2460f1c2d9a497496a7f46004d1772c3055054608080850191909152845180840186527fc3a24b0501bd2c13a7e57f2db4369ec4c223447539fc0724a9d55ac4a06ebd4d5481527fc3a24b0501bd2c13a7e57f2db4369ec4c223447539fc0724a9d55ac4a06ebd4e54818801527fc3a24b0501bd2c13a7e57f2db4369ec4c223447539fc0724a9d55ac4a06ebd4f54818701527fc3a24b0501bd2c13a7e57f2db4369ec4c223447539fc0724a9d55ac4a06ebd5054818401527fc3a24b0501bd2c13a7e57f2db4369ec4c223447539fc0724a9d55ac4a06ebd515481830152855180850187527fcbc4e5fb02c3d1de23a9f1e014b4d2ee5aeaea9505df5e855c9210bf472495af5481527fcbc4e5fb02c3d1de23a9f1e014b4d2ee5aeaea9505df5e855c9210bf472495b054818901527fcbc4e5fb02c3d1de23a9f1e014b4d2ee5aeaea9505df5e855c9210bf472495b154818801527fcbc4e5fb02c3d1de23a9f1e014b4d2ee5aeaea9505df5e855c9210bf472495b254818501527fcbc4e5fb02c3d1de23a9f1e014b4d2ee5aeaea9505df5e855c9210bf472495b35481840152865180860188527f83ec6a1f0257b830b5e016457c9cf1435391bf56cc98f369a58a54fe937724655481527f83ec6a1f0257b830b5e016457c9cf1435391bf56cc98f369a58a54fe9377246654818a01527f83ec6a1f0257b830b5e016457c9cf1435391bf56cc98f369a58a54fe9377246754818901527f83ec6a1f0257b830b5e016457c9cf1435391bf56cc98f369a58a54fe9377246854818601527f83ec6a1f0257b830b5e016457c9cf1435391bf56cc98f369a58a54fe937724695481850152875195860188527f405aad32e1adbac89bb7f176e338b8fc6e994ca210c9bb7bdca249b4659422505486527f405aad32e1adbac89bb7f176e338b8fc6e994ca210c9bb7bdca249b46594225154988601989098527f405aad32e1adbac89bb7f176e338b8fc6e994ca210c9bb7bdca249b46594225254968501969096527f405aad32e1adbac89bb7f176e338b8fc6e994ca210c9bb7bdca249b46594225354928401929092527f405aad32e1adbac89bb7f176e338b8fc6e994ca210c9bb7bdca249b4659422545490830152919791965091945091925090565b610d866114aa565b6108636000611529565b610d9861164a565b60036000836005811115610dae57610dae6116f2565b6005811115610dbf57610dbf6116f2565b81526020019081526020016000206040518060a0016040529081600082015481526020016001820154815260200160028201548152602001600382015481526020016004820154815250509050919050565b610e196114aa565b610863611579565b610e296114aa565b7f00000000000000000000000000000000000000000000000000000000000000006001600160a01b0316826001600160a01b031603610eaa5760405162461bcd60e51b815260206004820152601d60248201527f43616e6e6f74207769746864726177207374616b656420746f6b656e730000006044820152606401610421565b6106f9610ebf6000546001600160a01b031690565b6001600160a01b0384169083611474565b610f20604080516101208101909152600080825260208201908152602001600081526020016000815260200160008152602001600081526020016000815260200160008152602001600081525090565b6001600160a01b03821660009081526004602052604081206001810154909190600390829060ff166005811115610f5957610f596116f2565b6005811115610f6a57610f6a6116f2565b81526020808201929092526040016000208354855260018401549092509084019060ff166005811115610f9f57610f9f6116f2565b90816005811115610fb257610fb26116f2565b905250600282015460408401526003820154606084015260048201546080840152600582015460a0840152610fe684610865565b60c08401528154610ff957612710610fff565b80600201545b60e08401528154611011576000611017565b80600401545b610100840152509092915050565b6001600160a01b03811660009081526004602052604081208054820361104f575061271092915050565b600181015460039060009060ff16600581111561106e5761106e6116f2565b600581111561107f5761107f6116f2565b815260200190815260200160002060020154915050919050565b6001600160a01b0381166000908152600460205260408120805482036110c25750600092915050565b600181015460039060009060ff1660058111156110e1576110e16116f2565b60058111156110f2576110f26116f2565b815260200190815260200160002060040154915050919050565b6111146114aa565b6001600160a01b03811661113e57604051631e4fbdf760e01b815260006004820152602401610421565b61114781611529565b50565b60026001540361116d57604051633ee5aeb560e01b815260040160405180910390fd5b6002600155565b60025460ff16156108635760405163d93c066560e01b815260040160405180910390fd5b6001600160a01b038116600090815260046020526040812080549091036111bd575050565b60006111c883610865565b9050806000036111d757505050565b428260040181905550808260050160008282546111f491906118d4565b92505081905550806007600082825461120d91906118d4565b909155505060405162ca53e560e11b81526001600160a01b038481166004830152602482018390527f00000000000000000000000000000000000000000000000000000000000000001690630194a7ca90604401600060405180830381600087803b15801561127b57600080fd5b505af115801561128f573d6000803e3d6000fd5b50505050826001600160a01b03167ffc30cddea38e2bf4d6ea7d3f9ed3b6ad7f176419f4963bd81318067a4aee73fe826040516112ce91815260200190565b60405180910390a2505050565b6040516001600160a01b0384811660248301528381166044830152606482018390526113429186918216906323b872dd906084015b604051602081830303815290604052915060e01b6020820180516001600160e01b0383818316178352505050506115b6565b50505050565b6005600090815260036020527f405aad32e1adbac89bb7f176e338b8fc6e994ca210c9bb7bdca249b46594225054821061138457506005919050565b600460005260036020527f83ec6a1f0257b830b5e016457c9cf1435391bf56cc98f369a58a54fe937724655482106113be57506004919050565b600360008190526020527fcbc4e5fb02c3d1de23a9f1e014b4d2ee5aeaea9505df5e855c9210bf472495af5482106113f857506003919050565b600260005260036020527fc3a24b0501bd2c13a7e57f2db4369ec4c223447539fc0724a9d55ac4a06ebd4d54821061143257506002919050565b600160005260036020527fa15bc60c955c405d20d9149c709e2460f1c2d9a497496a7f46004d1772c3054c54821061146c57506001919050565b506000919050565b6040516001600160a01b038381166024830152604482018390526114a591859182169063a9059cbb90606401611310565b505050565b6000546001600160a01b031633146108635760405163118cdaa760e01b8152336004820152602401610421565b6114df611627565b6002805460ff191690557f5db9ee0a495bf2e6ff9c91a7834c1ba4fdd244a5e8aa4e537bd38aeae4b073aa335b6040516001600160a01b03909116815260200160405180910390a1565b600080546001600160a01b038381166001600160a01b0319831681178455604051919092169283917f8be0079c531659141344cd1fd0a4f28419497f9722a3daafe3b4186f6b6457e09190a35050565b611581611174565b6002805460ff191660011790557f62e78cea01bee320cd4e420270b5ea74000d11b0c9f74754ebdbfc544b05a25861150c3390565b600080602060008451602086016000885af1806115d9576040513d6000823e3d81fd5b50506000513d915081156115f15780600114156115fe565b6001600160a01b0384163b155b1561134257604051635274afe760e01b81526001600160a01b0385166004820152602401610421565b60025460ff1661086357604051638dfc202b60e01b815260040160405180910390fd5b6040518060a0016040528060008152602001600081526020016000815260200160008152602001600081525090565b80356006811061168857600080fd5b919050565b600080604083850312156116a057600080fd5b823591506116b060208401611679565b90509250929050565b80356001600160a01b038116811461168857600080fd5b6000602082840312156116e257600080fd5b6116eb826116b9565b9392505050565b634e487b7160e01b600052602160045260246000fd5b6006811061172657634e487b7160e01b600052602160045260246000fd5b9052565b86815260c0810161173e6020830188611708565b8560408301528460608301528360808301528260a0830152979650505050505050565b60006020828403121561177357600080fd5b6116eb82611679565b80518252602081015160208301526040810151604083015260608101516060830152608081015160808301525050565b61032081016117bb828861177c565b6117c860a083018761177c565b6117d661014083018661177c565b6117e46101e083018561177c565b6117f261028083018461177c565b9695505050505050565b60a0810161180a828461177c565b92915050565b6000806040838503121561182357600080fd5b61182c836116b9565b946020939093013593505050565b8151815260208083015161012083019161185690840182611708565b5060408301516040830152606083015160608301526080830151608083015260a083015160a083015260c083015160c083015260e083015160e083015261010080840151818401525092915050565b634e487b7160e01b600052601160045260246000fd5b6000600182016118cd576118cd6118a5565b5060010190565b8082018082111561180a5761180a6118a5565b838152606081016118fb6020830185611708565b826040830152949350505050565b604081016119178285611708565b6116eb6020830184611708565b8181038181111561180a5761180a6118a5565b600081611946576119466118a5565b506000190190565b808202811582820484141761180a5761180a6118a5565b60008261198257634e487b7160e01b600052601260045260246000fd5b50049056fea2646970667358221220ab476e547d86f27755484a22a544e6ac108b16da8ee036f378f2dbeeaa0d23d464736f6c63430008180033",
  "linkReferences": {},
  "deployedLinkReferences": {}
}