{
  "_format": "hh-sol-artifact-1",
  "contractName": "GrepAchievements",
  "sourceName": "contracts/GrepAchievements.sol",
  "abi": [
    {
      "inputs": [
        {
          "internalType": "string",
          "name": "_baseUri",
          "type": "string"
        },
        {
          "internalType": "address",
          "name": "_signer",
          "type": "address"
        }
      ],
      "stateMutability": "nonpayable",
      "type": "constructor"
    },
    {
      "inputs": [],
      "name": "ECDSAInvalidSignature",
      "type": "error"
    },
    {
      "inputs": [
        {
          "internalType": "uint256",
          "name": "length",
          "type": "uint256"
        }
      ],
      "name": "ECDSAInvalidSignatureLength",
      "type": "error"
    },
    {
      "inputs": [
        {
          "internalType": "bytes32",
          "name": "s",
          "type": "bytes32"
        }
      ],
      "name": "ECDSAInvalidSignatureS",
      "type": "error"
    },
    {
      "inputs": [
        {
          "internalType": "address",
          "name": "sender",
          "type": "address"
        },
        {
          "internalType": "uint256",
          "name": "balance",
          "type": "uint256"
        },
        {
          "internalType": "uint256",
          "name": "needed",
          "type": "uint256"
        },
        {
          "internalType": "uint256",
          "name": "tokenId",
          "type": "uint256"
        }
      ],
      "name": "ERC1155InsufficientBalance",
      "type": "error"
    },
    {
      "inputs": [
        {
          "internalType": "address",
          "name": "approver",
          "type": "address"
        }
      ],
      "name": "ERC1155InvalidApprover",
      "type": "error"
    },
    {
      "inputs": [
        {
          "internalType": "uint256",
          "name": "idsLength",
          "type": "uint256"
        },
        {
          "internalType": "uint256",
          "name": "valuesLength",
          "type": "uint256"
        }
      ],
      "name": "ERC1155InvalidArrayLength",
      "type": "error"
    },
    {
      "inputs": [
        {
          "internalType": "address",
          "name": "operator",
          "type": "address"
        }
      ],
      "name": "ERC1155InvalidOperator",
      "type": "error"
    },
    {
      "inputs": [
        {
          "internalType": "address",
          "name": "receiver",
          "type": "address"
        }
      ],
      "name": "ERC1155InvalidReceiver",
      "type": "error"
    },
    {
      "inputs": [
        {
          "internalType": "address",
          "name": "sender",
          "type": "address"
        }
      ],
      "name": "ERC1155InvalidSender",
      "type": "error"
    },
    {
      "inputs": [
        {
          "internalType": "address",
          "name": "operator",
          "type": "address"
        },
        {
          "internalType": "address",
          "name": "owner",
          "type": "address"
        }
      ],
      "name": "ERC1155MissingApprovalForAll",
      "type": "error"
    },
    {
      "inputs": [],
      "name": "EnforcedPause",
      "type": "error"
    },
    {
      "inputs": [],
      "name": "ExpectedPause",
      "type": "error"
    },
    {
      "inputs": [],
      "name": "InvalidShortString",
      "type": "error"
    },
    {
      "inputs": [
        {
          "internalType": "address",
          "name": "owner",
          "type": "address"
        }
      ],
      "name": "OwnableInvalidOwner",
      "type": "error"
    },
    {
      "inputs": [
        {
          "internalType": "address",
          "name": "account",
          "type": "address"
        }
      ],
      "name": "OwnableUnauthorizedAccount",
      "type": "error"
    },
    {
      "inputs": [
        {
          "internalType": "string",
          "name": "str",
          "type": "string"
        }
      ],
      "name": "StringTooLong",
      "type": "error"
    },
    {
      "anonymous": false,
      "inputs": [
        {
          "indexed": true,
          "internalType": "address",
          "name": "player",
          "type": "address"
        },
        {
          "indexed": true,
          "internalType": "uint256",
          "name": "achievementId",
          "type": "uint256"
        },
        {
          "indexed": false,
          "internalType": "uint256",
          "name": "nonce",
          "type": "uint256"
        }
      ],
      "name": "AchievementClaimed",
      "type": "event"
    },
    {
      "anonymous": false,
      "inputs": [
        {
          "indexed": true,
          "internalType": "address",
          "name": "account",
          "type": "address"
        },
        {
          "indexed": true,
          "internalType": "address",
          "name": "operator",
          "type": "address"
        },
        {
          "indexed": false,
          "internalType": "bool",
          "name": "approved",
          "type": "bool"
        }
      ],
      "name": "ApprovalForAll",
      "type": "event"
    },
    {
      "anonymous": false,
      "inputs": [],
      "name": "EIP712DomainChanged",
      "type": "event"
    },
    {
      "anonymous": false,
      "inputs": [
        {
          "indexed": true,
          "internalType": "address",
          "name": "previousOwner",
          "type": "address"
        },
        {
          "indexed": true,
          "internalType": "address",
          "name": "newOwner",
          "type": "address"
        }
      ],
      "name": "OwnershipTransferred",
      "type": "event"
    },
    {
      "anonymous": false,
      "inputs": [
        {
          "indexed": false,
          "internalType": "address",
          "name": "account",
          "type": "address"
        }
      ],
      "name": "Paused",
      "type": "event"
    },
    {
      "anonymous": false,
      "inputs": [
        {
          "indexed": true,
          "internalType": "address",
          "name": "oldSigner",
          "type": "address"
        },
        {
          "indexed": true,
          "internalType": "address",
          "name": "newSigner",
          "type": "address"
        }
      ],
      "name": "SignerUpdated",
      "type": "event"
    },
    {
      "anonymous": false,
      "inputs": [
        {
          "indexed": true,
          "internalType": "address",
          "name": "operator",
          "type": "address"
        },
        {
          "indexed": true,
          "internalType": "address",
          "name": "from",
          "type": "address"
        },
        {
          "indexed": true,
          "internalType": "address",
          "name": "to",
          "type": "address"
        },
        {
          "indexed": false,
          "internalType": "uint256[]",
          "name": "ids",
          "type": "uint256[]"
        },
        {
          "indexed": false,
          "internalType": "uint256[]",
          "name": "values",
          "type": "uint256[]"
        }
      ],
      "name": "TransferBatch",
      "type": "event"
    },
    {
      "anonymous": false,
      "inputs": [
        {
          "indexed": true,
          "internalType": "address",
          "name": "operator",
          "type": "address"
        },
        {
          "indexed": true,
          "internalType": "address",
          "name": "from",
          "type": "address"
        },
        {
          "indexed": true,
          "internalType": "address",
          "name": "to",
          "type": "address"
        },
        {
          "indexed": false,
          "internalType": "uint256",
          "name": "id",
          "type": "uint256"
        },
        {
          "indexed": false,
          "internalType": "uint256",
          "name": "value",
          "type": "uint256"
        }
      ],
      "name": "TransferSingle",
      "type": "event"
    },
    {
      "anonymous": false,
      "inputs": [
        {
          "indexed": false,
          "internalType": "string",
          "name": "value",
          "type": "string"
        },
        {
          "indexed": true,
          "internalType": "uint256",
          "name": "id",
          "type": "uint256"
        }
      ],
      "name": "URI",
      "type": "event"
    },
    {
      "anonymous": false,
      "inputs": [
        {
          "indexed": false,
          "internalType": "string",
          "name": "newUri",
          "type": "string"
        }
      ],
      "name": "URIUpdated",
      "type": "event"
    },
    {
      "anonymous": false,
      "inputs": [
        {
          "indexed": false,
          "internalType": "address",
          "name": "account",
          "type": "address"
        }
      ],
      "name": "Unpaused",
      "type": "event"
    },
    {
      "inputs": [],
      "name": "CLAIM_TYPEHASH",
      "outputs": [
        {
          "internalType": "bytes32",
          "name": "",
          "type": "bytes32"
        }
      ],
      "stateMutability": "view",
      "type": "function"
    },
    {
      "inputs": [
        {
          "internalType": "address",
          "name": "account",
          "type": "address"
        },
        {
          "internalType": "uint256",
          "name": "id",
          "type": "uint256"
        }
      ],
      "name": "balanceOf",
      "outputs": [
        {
          "internalType": "uint256",
          "name": "",
          "type": "uint256"
        }
      ],
      "stateMutability": "view",
      "type": "function"
    },
    {
      "inputs": [
        {
          "internalType": "address[]",
          "name": "accounts",
          "type": "address[]"
        },
        {
          "internalType": "uint256[]",
          "name": "ids",
          "type": "uint256[]"
        }
      ],
      "name": "balanceOfBatch",
      "outputs": [
        {
          "internalType": "uint256[]",
          "name": "",
          "type": "uint256[]"
        }
      ],
      "stateMutability": "view",
      "type": "function"
    },
    {
      "inputs": [
        {
          "internalType": "uint256",
          "name": "achievementId",
          "type": "uint256"
        },
        {
          "internalType": "bytes",
          "name": "signature",
          "type": "bytes"
        }
      ],
      "name": "claim",
      "outputs": [],
      "stateMutability": "nonpayable",
      "type": "function"
    },
    {
      "inputs": [
        {
          "internalType": "address",
          "name": "",
          "type": "address"
        },
        {
          "internalType": "uint256",
          "name": "",
          "type": "uint256"
        }
      ],
      "name": "claimed",
      "outputs": [
        {
          "internalType": "bool",
          "name": "",
          "type": "bool"
        }
      ],
      "stateMutability": "view",
      "type": "function"
    },
    {
      "inputs": [],
      "name": "domainSeparator",
      "outputs": [
        {
          "internalType": "bytes32",
          "name": "",
          "type": "bytes32"
        }
      ],
      "stateMutability": "view",
      "type": "function"
    },
    {
      "inputs": [],
      "name": "eip712Domain",
      "outputs": [
        {
          "internalType": "bytes1",
          "name": "fields",
          "type": "bytes1"
        },
        {
          "internalType": "string",
          "name": "name",
          "type": "string"
        },
        {
          "internalType": "string",
          "name": "version",
          "type": "string"
        },
        {
          "internalType": "uint256",
          "name": "chainId",
          "type": "uint256"
        },
        {
          "internalType": "address",
          "name": "verifyingContract",
          "type": "address"
        },
        {
          "internalType": "bytes32",
          "name": "salt",
          "type": "bytes32"
        },
        {
          "internalType": "uint256[]",
          "name": "extensions",
          "type": "uint256[]"
        }
      ],
      "stateMutability": "view",
      "type": "function"
    },
    {
      "inputs": [
        {
          "internalType": "address",
          "name": "player",
          "type": "address"
        },
        {
          "internalType": "uint256",
          "name": "achievementId",
          "type": "uint256"
        },
        {
          "internalType": "uint256",
          "name": "nonce",
          "type": "uint256"
        }
      ],
      "name": "getClaimHash",
      "outputs": [
        {
          "internalType": "bytes32",
          "name": "",
          "type": "bytes32"
        }
      ],
      "stateMutability": "view",
      "type": "function"
    },
    {
      "inputs": [
        {
          "internalType": "address",
          "name": "player",
          "type": "address"
        }
      ],
      "name": "getNonce",
      "outputs": [
        {
          "internalType": "uint256",
          "name": "",
          "type": "uint256"
        }
      ],
      "stateMutability": "view",
      "type": "function"
    },
    {
      "inputs": [
        {
          "internalType": "address",
          "name": "player",
          "type": "address"
        },
        {
          "internalType": "uint256",
          "name": "achievementId",
          "type": "uint256"
        }
      ],
      "name": "hasClaimed",
      "outputs": [
        {
          "internalType": "bool",
          "name": "",
          "type": "bool"
        }
      ],
      "stateMutability": "view",
      "type": "function"
    },
    {
      "inputs": [
        {
          "internalType": "address",
          "name": "account",
          "type": "address"
        },
        {
          "internalType": "address",
          "name": "operator",
          "type": "address"
        }
      ],
      "name": "isApprovedForAll",
      "outputs": [
        {
          "internalType": "bool",
          "name": "",
          "type": "bool"
        }
      ],
      "stateMutability": "view",
      "type": "function"
    },
    {
      "inputs": [
        {
          "internalType": "address",
          "name": "",
          "type": "address"
        }
      ],
      "name": "nonces",
      "outputs": [
        {
          "internalType": "uint256",
          "name": "",
          "type": "uint256"
        }
      ],
      "stateMutability": "view",
      "type": "function"
    },
    {
      "inputs": [],
      "name": "owner",
      "outputs": [
        {
          "internalType": "address",
          "name": "",
          "type": "address"
        }
      ],
      "stateMutability": "view",
      "type": "function"
    },
    {
      "inputs": [],
      "name": "pause",
      "outputs": [],
      "stateMutability": "nonpayable",
      "type": "function"
    },
    {
      "inputs": [],
      "name": "paused",
      "outputs": [
        {
          "internalType": "bool",
          "name": "",
          "type": "bool"
        }
      ],
      "stateMutability": "view",
      "type": "function"
    },
    {
      "inputs": [],
      "name": "renounceOwnership",
      "outputs": [],
      "stateMutability": "nonpayable",
      "type": "function"
    },
    {
      "inputs": [
        {
          "internalType": "address",
          "name": "from",
          "type": "address"
        },
        {
          "internalType": "address",
          "name": "to",
          "type": "address"
        },
        {
          "internalType": "uint256[]",
          "name": "ids",
          "type": "uint256[]"
        },
        {
          "internalType": "uint256[]",
          "name": "values",
          "type": "uint256[]"
        },
        {
          "internalType": "bytes",
          "name": "data",
          "type": "bytes"
        }
      ],
      "name": "safeBatchTransferFrom",
      "outputs": [],
      "stateMutability": "nonpayable",
      "type": "function"
    },
    {
      "inputs": [
        {
          "internalType": "address",
          "name": "from",
          "type": "address"
        },
        {
          "internalType": "address",
          "name": "to",
          "type": "address"
        },
        {
          "internalType": "uint256",
          "name": "id",
          "type": "uint256"
        },
        {
          "internalType": "uint256",
          "name": "value",
          "type": "uint256"
        },
        {
          "internalType": "bytes",
          "name": "data",
          "type": "bytes"
        }
      ],
      "name": "safeTransferFrom",
      "outputs": [],
      "stateMutability": "nonpayable",
      "type": "function"
    },
    {
      "inputs": [
        {
          "internalType": "address",
          "name": "operator",
          "type": "address"
        },
        {
          "internalType": "bool",
          "name": "approved",
          "type": "bool"
        }
      ],
      "name": "setApprovalForAll",
      "outputs": [],
      "stateMutability": "nonpayable",
      "type": "function"
    },
    {
      "inputs": [
        {
          "internalType": "address",
          "name": "newSigner",
          "type": "address"
        }
      ],
      "name": "setSigner",
      "outputs": [],
      "stateMutability": "nonpayable",
      "type": "function"
    },
    {
      "inputs": [
        {
          "internalType": "string",
          "name": "newUri",
          "type": "string"
        }
      ],
      "name": "setURI",
      "outputs": [],
      "stateMutability": "nonpayable",
      "type": "function"
    },
    {
      "inputs": [],
      "name": "signer",
      "outputs": [
        {
          "internalType": "address",
          "name": "",
          "type": "address"
        }
      ],
      "stateMutability": "view",
      "type": "function"
    },
    {
      "inputs": [
        {
          "internalType": "bytes4",
          "name": "interfaceId",
          "type": "bytes4"
        }
      ],
      "name": "supportsInterface",
      "outputs": [
        {
          "internalType": "bool",
          "name": "",
          "type": "bool"
        }
      ],
      "stateMutability": "view",
      "type": "function"
    },
    {
      "inputs": [
        {
          "internalType": "address",
          "name": "newOwner",
          "type": "address"
        }
      ],
      "name": "transferOwnership",
      "outputs": [],
      "stateMutability": "nonpayable",
      "type": "function"
    },
    {
      "inputs": [],
      "name": "unpause",
      "outputs": [],
      "stateMutability": "nonpayable",
      "type": "function"
    },
    {
      "inputs": [
        {
          "internalType": "uint256",
          "name": "",
          "type": "uint256"
        }
      ],
      "name": "uri",
      "outputs": [
        {
          "internalType": "string",
          "name": "",
          "type": "string"
        }
      ],
      "stateMutability": "view",
      "type": "function"
    }
  ],
  "bytecode": "0x6101606040523480156200001257600080fd5b506040516200276c3803806200276c833981016040819052620000359162000335565b336040518060400160405280601081526020016f47726570416368696576656d656e747360801b815250604051806040016040528060018152602001603160f81b815250846200008b81620001fc60201b60201c565b50620000998260036200020e565b61012052620000aa8160046200020e565b61014052815160208084019190912060e052815190820120610100524660a0526200013860e05161010051604080517f8b73c3c69bb8fe3d512ecc4cf759cc79239f7b179b0ffacaa9a75d522b39400f60208201529081019290925260608201524660808201523060a082015260009060c00160405160208183030381529060405280519060200120905090565b60805250503060c0526001600160a01b0381166200017157604051631e4fbdf760e01b8152600060048201526024015b60405180910390fd5b6200017c8162000247565b506001600160a01b038116620001d55760405162461bcd60e51b815260206004820152601660248201527f496e76616c6964207369676e6572206164647265737300000000000000000000604482015260640162000168565b600680546001600160a01b0319166001600160a01b039290921691909117905550620005b9565b60026200020a828262000493565b5050565b60006020835110156200022e57620002268362000299565b905062000241565b816200023b848262000493565b5060ff90505b92915050565b600580546001600160a01b038381166001600160a01b0319831681179093556040519116919082907f8be0079c531659141344cd1fd0a4f28419497f9722a3daafe3b4186f6b6457e090600090a35050565b600080829050601f81511115620002c7578260405163305a27a960e01b81526004016200016891906200055f565b8051620002d48262000594565b179392505050565b634e487b7160e01b600052604160045260246000fd5b60005b838110156200030f578181015183820152602001620002f5565b50506000910152565b80516001600160a01b03811681146200033057600080fd5b919050565b600080604083850312156200034957600080fd5b82516001600160401b03808211156200036157600080fd5b818501915085601f8301126200037657600080fd5b8151818111156200038b576200038b620002dc565b604051601f8201601f19908116603f01168101908382118183101715620003b657620003b6620002dc565b81604052828152886020848701011115620003d057600080fd5b620003e3836020830160208801620002f2565b8096505050505050620003f96020840162000318565b90509250929050565b600181811c908216806200041757607f821691505b6020821081036200043857634e487b7160e01b600052602260045260246000fd5b50919050565b601f8211156200048e576000816000526020600020601f850160051c81016020861015620004695750805b601f850160051c820191505b818110156200048a5782815560010162000475565b5050505b505050565b81516001600160401b03811115620004af57620004af620002dc565b620004c781620004c0845462000402565b846200043e565b602080601f831160018114620004ff5760008415620004e65750858301515b600019600386901b1c1916600185901b1785556200048a565b600085815260208120601f198616915b8281101562000530578886015182559484019460019091019084016200050f565b50858210156200054f5787850151600019600388901b60f8161c191681555b5050505050600190811b01905550565b602081526000825180602084015262000580816040850160208701620002f2565b601f01601f19169190910160400192915050565b80516020808301519190811015620004385760001960209190910360031b1b16919050565b60805160a05160c05160e051610100516101205161014051612158620006146000396000610e3901526000610e0c0152600061105d0152600061103501526000610f9001526000610fba01526000610fe401526121586000f3fe608060405234801561001057600080fd5b506004361061018d5760003560e01c80636c19e783116100de5780638da5cb5b11610097578063e985e9c511610071578063e985e9c5146103e7578063f242432a146103fa578063f2fde38b1461040d578063f698da251461042057600080fd5b80638da5cb5b1461038a578063a22cb4651461039b578063b2931096146103ae57600080fd5b80636c19e78314610319578063715018a61461032c578063783a41c4146103345780637ecebe00146103475780638456cb591461036757806384b0196e1461036f57600080fd5b80632eb2c2d61161014b5780634dd6c8de116101255780634dd6c8de146102925780634e1273f4146102c05780635c975abb146102e05780636b0509b1146102f257600080fd5b80632eb2c2d61461026457806338926b6d146102775780633f4ba83a1461028a57600080fd5b8062fdd58e1461019257806301ffc9a7146101b857806302fe5305146101db5780630e89341c146101f0578063238ac933146102105780632d0335ab1461023b575b600080fd5b6101a56101a0366004611869565b610428565b6040519081526020015b60405180910390f35b6101cb6101c63660046118a9565b610450565b60405190151581526020016101af565b6101ee6101e936600461196c565b6104a0565b005b6102036101fe3660046119bd565b6104eb565b6040516101af9190611a1c565b600654610223906001600160a01b031681565b6040516001600160a01b0390911681526020016101af565b6101a5610249366004611a2f565b6001600160a01b031660009081526008602052604090205490565b6101ee610272366004611afd565b61057f565b6101ee610285366004611ba7565b6105eb565b6101ee610848565b6101cb6102a0366004611869565b600760209081526000928352604080842090915290825290205460ff1681565b6102d36102ce366004611c23565b61085a565b6040516101af9190611d1f565b600554600160a01b900460ff166101cb565b6101a57f33527f4b69723fc3de24d553b57e4b1aa2d6ff6a69965ad6577ef0172d73e21b81565b6101ee610327366004611a2f565b610927565b6101ee6109d0565b6101a5610342366004611d32565b6109e2565b6101a5610355366004611a2f565b60086020526000908152604090205481565b6101ee610a5d565b610377610a6d565b6040516101af9796959493929190611d65565b6005546001600160a01b0316610223565b6101ee6103a9366004611dd5565b610ab3565b6101cb6103bc366004611869565b6001600160a01b03919091166000908152600760209081526040808320938352929052205460ff1690565b6101cb6103f5366004611e11565b610ac2565b6101ee610408366004611e44565b610af0565b6101ee61041b366004611a2f565b610b4f565b6101a5610b8d565b6000818152602081815260408083206001600160a01b03861684529091529020545b92915050565b60006001600160e01b03198216636cdb3d1360e11b148061048157506001600160e01b031982166303a24d0760e21b145b8061044a57506301ffc9a760e01b6001600160e01b031983161461044a565b6104a8610b9c565b6104b181610bc9565b7fe3afa94108b5f5e82e5f6e539d161ff4b5402a85f696c67b9768ec3ae54ce366816040516104e09190611a1c565b60405180910390a150565b6060600280546104fa90611ea9565b80601f016020809104026020016040519081016040528092919081815260200182805461052690611ea9565b80156105735780601f1061054857610100808354040283529160200191610573565b820191906000526020600020905b81548152906001019060200180831161055657829003601f168201915b50505050509050919050565b336001600160a01b03861681148015906105a0575061059e8682610ac2565b155b156105d65760405163711bec9160e11b81526001600160a01b038083166004830152871660248201526044015b60405180910390fd5b6105e38686868686610bd5565b505050505050565b6105f3610c3c565b33600081815260076020908152604080832087845290915290205460ff161561065e5760405162461bcd60e51b815260206004820152601b60248201527f416368696576656d656e7420616c726561647920636c61696d6564000000000060448201526064016105cd565b6001600160a01b03811660008181526008602090815260408083205481517f33527f4b69723fc3de24d553b57e4b1aa2d6ff6a69965ad6577ef0172d73e21b9381019390935290820193909352606081018790526080810183905260a00160405160208183030381529060405280519060200120905060006106df82610c67565b9050600061072587878080601f0160208091040260200160405190810160405280939291908181526020018383808284376000920191909152508693925050610c949050565b6006549091506001600160a01b038083169116146107795760405162461bcd60e51b8152602060048201526011602482015270496e76616c6964207369676e617475726560781b60448201526064016105cd565b6001600160a01b03851660009081526007602090815260408083208b84529091529020805460ff191660019081179091556107b5908590611ee3565b60086000876001600160a01b03166001600160a01b03168152602001908152602001600020819055506107fa8589600160405180602001604052806000815250610cbe565b87856001600160a01b03167f9a40520adb225b08d2a6e6ccb3d02f1735260893aa2b16d7ac01e83942e100ec8660405161083691815260200190565b60405180910390a35050505050505050565b610850610b9c565b610858610d1b565b565b6060815183511461088b5781518351604051635b05999160e01b8152600481019290925260248201526044016105cd565b6000835167ffffffffffffffff8111156108a7576108a76118cd565b6040519080825280602002602001820160405280156108d0578160200160208202803683370190505b50905060005b845181101561091f576020808202860101516108fa90602080840287010151610428565b82828151811061090c5761090c611f04565b60209081029190910101526001016108d6565b509392505050565b61092f610b9c565b6001600160a01b03811661097e5760405162461bcd60e51b8152602060048201526016602482015275496e76616c6964207369676e6572206164647265737360501b60448201526064016105cd565b600680546001600160a01b038381166001600160a01b0319831681179093556040519116919082907f2d025324f0a785e8c12d0a0d91a9caa49df4ef20ff87e0df7213a1d4f3157beb90600090a35050565b6109d8610b9c565b6108586000610d70565b604080517f33527f4b69723fc3de24d553b57e4b1aa2d6ff6a69965ad6577ef0172d73e21b60208201526001600160a01b038516918101919091526060810183905260808101829052600090819060a001604051602081830303815290604052805190602001209050610a5481610c67565b95945050505050565b610a65610b9c565b610858610dc2565b600060608060008060006060610a81610e05565b610a89610e32565b60408051600080825260208201909252600f60f81b9b939a50919850469750309650945092509050565b610abe338383610e5f565b5050565b6001600160a01b03918216600090815260016020908152604080832093909416825291909152205460ff1690565b336001600160a01b0386168114801590610b115750610b0f8682610ac2565b155b15610b425760405163711bec9160e11b81526001600160a01b038083166004830152871660248201526044016105cd565b6105e38686868686610ef5565b610b57610b9c565b6001600160a01b038116610b8157604051631e4fbdf760e01b8152600060048201526024016105cd565b610b8a81610d70565b50565b6000610b97610f83565b905090565b6005546001600160a01b031633146108585760405163118cdaa760e01b81523360048201526024016105cd565b6002610abe8282611f67565b6001600160a01b038416610bff57604051632bfa23e760e11b8152600060048201526024016105cd565b6001600160a01b038516610c2857604051626a0d4560e21b8152600060048201526024016105cd565b610c3585858585856110ae565b5050505050565b600554600160a01b900460ff16156108585760405163d93c066560e01b815260040160405180910390fd5b600061044a610c74610f83565b8360405161190160f01b8152600281019290925260228201526042902090565b600080600080610ca48686611101565b925092509250610cb4828261114e565b5090949350505050565b6001600160a01b038416610ce857604051632bfa23e760e11b8152600060048201526024016105cd565b604080516001808252602082018690528183019081526060820185905260808201909252906105e36000878484876110ae565b610d23611207565b6005805460ff60a01b191690557f5db9ee0a495bf2e6ff9c91a7834c1ba4fdd244a5e8aa4e537bd38aeae4b073aa335b6040516001600160a01b03909116815260200160405180910390a1565b600580546001600160a01b038381166001600160a01b0319831681179093556040519116919082907f8be0079c531659141344cd1fd0a4f28419497f9722a3daafe3b4186f6b6457e090600090a35050565b610dca610c3c565b6005805460ff60a01b1916600160a01b1790557f62e78cea01bee320cd4e420270b5ea74000d11b0c9f74754ebdbfc544b05a258610d533390565b6060610b977f00000000000000000000000000000000000000000000000000000000000000006003611231565b6060610b977f00000000000000000000000000000000000000000000000000000000000000006004611231565b6001600160a01b038216610e885760405162ced3e160e81b8152600060048201526024016105cd565b6001600160a01b03838116600081815260016020908152604080832094871680845294825291829020805460ff191686151590811790915591519182527f17307eab39ab6107e8899845ad3d59bd9653f200f220920489ca2b5937696c31910160405180910390a3505050565b6001600160a01b038416610f1f57604051632bfa23e760e11b8152600060048201526024016105cd565b6001600160a01b038516610f4857604051626a0d4560e21b8152600060048201526024016105cd565b60408051600180825260208201869052818301908152606082018590526080820190925290610f7a87878484876110ae565b50505050505050565b6000306001600160a01b037f000000000000000000000000000000000000000000000000000000000000000016148015610fdc57507f000000000000000000000000000000000000000000000000000000000000000046145b1561100657507f000000000000000000000000000000000000000000000000000000000000000090565b610b97604080517f8b73c3c69bb8fe3d512ecc4cf759cc79239f7b179b0ffacaa9a75d522b39400f60208201527f0000000000000000000000000000000000000000000000000000000000000000918101919091527f000000000000000000000000000000000000000000000000000000000000000060608201524660808201523060a082015260009060c00160405160208183030381529060405280519060200120905090565b6110ba858585856112dc565b6001600160a01b03841615610c3557825133906001036110f357602084810151908401516110ec8389898585896112f6565b50506105e3565b6105e381878787878761141a565b6000806000835160410361113b5760208401516040850151606086015160001a61112d88828585611503565b955095509550505050611147565b50508151600091506002905b9250925092565b600082600381111561116257611162612027565b0361116b575050565b600182600381111561117f5761117f612027565b0361119d5760405163f645eedf60e01b815260040160405180910390fd5b60028260038111156111b1576111b1612027565b036111d25760405163fce698f760e01b8152600481018290526024016105cd565b60038260038111156111e6576111e6612027565b03610abe576040516335e2f38360e21b8152600481018290526024016105cd565b600554600160a01b900460ff1661085857604051638dfc202b60e01b815260040160405180910390fd5b606060ff831461124b57611244836115d2565b905061044a565b81805461125790611ea9565b80601f016020809104026020016040519081016040528092919081815260200182805461128390611ea9565b80156112d05780601f106112a5576101008083540402835291602001916112d0565b820191906000526020600020905b8154815290600101906020018083116112b357829003601f168201915b5050505050905061044a565b6112e4610c3c565b6112f084848484611611565b50505050565b6001600160a01b0384163b156105e35760405163f23a6e6160e01b81526001600160a01b0385169063f23a6e619061133a908990899088908890889060040161203d565b6020604051808303816000875af1925050508015611375575060408051601f3d908101601f1916820190925261137291810190612082565b60015b6113de573d8080156113a3576040519150601f19603f3d011682016040523d82523d6000602084013e6113a8565b606091505b5080516000036113d657604051632bfa23e760e11b81526001600160a01b03861660048201526024016105cd565b805160208201fd5b6001600160e01b0319811663f23a6e6160e01b14610f7a57604051632bfa23e760e11b81526001600160a01b03861660048201526024016105cd565b6001600160a01b0384163b156105e35760405163bc197c8160e01b81526001600160a01b0385169063bc197c819061145e908990899088908890889060040161209f565b6020604051808303816000875af1925050508015611499575060408051601f3d908101601f1916820190925261149691810190612082565b60015b6114c7573d8080156113a3576040519150601f19603f3d011682016040523d82523d6000602084013e6113a8565b6001600160e01b0319811663bc197c8160e01b14610f7a57604051632bfa23e760e11b81526001600160a01b03861660048201526024016105cd565b600080807f7fffffffffffffffffffffffffffffff5d576e7357a4501ddfe92f46681b20a084111561153e57506000915060039050826115c8565b604080516000808252602082018084528a905260ff891692820192909252606081018790526080810186905260019060a0016020604051602081039080840390855afa158015611592573d6000803e3d6000fd5b5050604051601f1901519150506001600160a01b0381166115be575060009250600191508290506115c8565b9250600091508190505b9450945094915050565b606060006115df83611825565b604080516020808252818301909252919250600091906020820181803683375050509182525060208101929092525090565b80518251146116405781518151604051635b05999160e01b8152600481019290925260248201526044016105cd565b3360005b8351811015611746576020818102858101820151908501909101516001600160a01b038816156116f7576000828152602081815260408083206001600160a01b038c168452909152902054818110156116d0576040516303dee4c560e01b81526001600160a01b038a1660048201526024810182905260448101839052606481018490526084016105cd565b6000838152602081815260408083206001600160a01b038d16845290915290209082900390555b6001600160a01b0387161561173c576000828152602081815260408083206001600160a01b038b16845290915281208054839290611736908490611ee3565b90915550505b5050600101611644565b5082516001036117c75760208301516000906020840151909150856001600160a01b0316876001600160a01b0316846001600160a01b03167fc3d58168c5ae7397731d063d5bbf3d657854427343f4c083240f7aacaa2d0f6285856040516117b8929190918252602082015260400190565b60405180910390a45050610c35565b836001600160a01b0316856001600160a01b0316826001600160a01b03167f4a39dc06d4c0dbc64b70af90fd698a233a518aa5d07e595d983b8c0526c8f7fb86866040516118169291906120fd565b60405180910390a45050505050565b600060ff8216601f81111561044a57604051632cd44ac360e21b815260040160405180910390fd5b80356001600160a01b038116811461186457600080fd5b919050565b6000806040838503121561187c57600080fd5b6118858361184d565b946020939093013593505050565b6001600160e01b031981168114610b8a57600080fd5b6000602082840312156118bb57600080fd5b81356118c681611893565b9392505050565b634e487b7160e01b600052604160045260246000fd5b604051601f8201601f1916810167ffffffffffffffff8111828210171561190c5761190c6118cd565b604052919050565b600067ffffffffffffffff83111561192e5761192e6118cd565b611941601f8401601f19166020016118e3565b905082815283838301111561195557600080fd5b828260208301376000602084830101529392505050565b60006020828403121561197e57600080fd5b813567ffffffffffffffff81111561199557600080fd5b8201601f810184136119a657600080fd5b6119b584823560208401611914565b949350505050565b6000602082840312156119cf57600080fd5b5035919050565b6000815180845260005b818110156119fc576020818501810151868301820152016119e0565b506000602082860101526020601f19601f83011685010191505092915050565b6020815260006118c660208301846119d6565b600060208284031215611a4157600080fd5b6118c68261184d565b600067ffffffffffffffff821115611a6457611a646118cd565b5060051b60200190565b600082601f830112611a7f57600080fd5b81356020611a94611a8f83611a4a565b6118e3565b8083825260208201915060208460051b870101935086841115611ab657600080fd5b602086015b84811015611ad25780358352918301918301611abb565b509695505050505050565b600082601f830112611aee57600080fd5b6118c683833560208501611914565b600080600080600060a08688031215611b1557600080fd5b611b1e8661184d565b9450611b2c6020870161184d565b9350604086013567ffffffffffffffff80821115611b4957600080fd5b611b5589838a01611a6e565b94506060880135915080821115611b6b57600080fd5b611b7789838a01611a6e565b93506080880135915080821115611b8d57600080fd5b50611b9a88828901611add565b9150509295509295909350565b600080600060408486031215611bbc57600080fd5b83359250602084013567ffffffffffffffff80821115611bdb57600080fd5b818601915086601f830112611bef57600080fd5b813581811115611bfe57600080fd5b876020828501011115611c1057600080fd5b6020830194508093505050509250925092565b60008060408385031215611c3657600080fd5b823567ffffffffffffffff80821115611c4e57600080fd5b818501915085601f830112611c6257600080fd5b81356020611c72611a8f83611a4a565b82815260059290921b84018101918181019089841115611c9157600080fd5b948201945b83861015611cb657611ca78661184d565b82529482019490820190611c96565b96505086013592505080821115611ccc57600080fd5b50611cd985828601611a6e565b9150509250929050565b60008151808452602080850194506020840160005b83811015611d1457815187529582019590820190600101611cf8565b509495945050505050565b6020815260006118c66020830184611ce3565b600080600060608486031215611d4757600080fd5b611d508461184d565b95602085013595506040909401359392505050565b60ff60f81b8816815260e060208201526000611d8460e08301896119d6565b8281036040840152611d9681896119d6565b606084018890526001600160a01b038716608085015260a0840186905283810360c08501529050611dc78185611ce3565b9a9950505050505050505050565b60008060408385031215611de857600080fd5b611df18361184d565b915060208301358015158114611e0657600080fd5b809150509250929050565b60008060408385031215611e2457600080fd5b611e2d8361184d565b9150611e3b6020840161184d565b90509250929050565b600080600080600060a08688031215611e5c57600080fd5b611e658661184d565b9450611e736020870161184d565b93506040860135925060608601359150608086013567ffffffffffffffff811115611e9d57600080fd5b611b9a88828901611add565b600181811c90821680611ebd57607f821691505b602082108103611edd57634e487b7160e01b600052602260045260246000fd5b50919050565b8082018082111561044a57634e487b7160e01b600052601160045260246000fd5b634e487b7160e01b600052603260045260246000fd5b601f821115611f62576000816000526020600020601f850160051c81016020861015611f435750805b601f850160051c820191505b818110156105e357828155600101611f4f565b505050565b815167ffffffffffffffff811115611f8157611f816118cd565b611f9581611f8f8454611ea9565b84611f1a565b602080601f831160018114611fca5760008415611fb25750858301515b600019600386901b1c1916600185901b1785556105e3565b600085815260208120601f198616915b82811015611ff957888601518255948401946001909101908401611fda565b50858210156120175787850151600019600388901b60f8161c191681555b5050505050600190811b01905550565b634e487b7160e01b600052602160045260246000fd5b6001600160a01b03868116825285166020820152604081018490526060810183905260a060808201819052600090612077908301846119d6565b979650505050505050565b60006020828403121561209457600080fd5b81516118c681611893565b6001600160a01b0386811682528516602082015260a0604082018190526000906120cb90830186611ce3565b82810360608401526120dd8186611ce3565b905082810360808401526120f181856119d6565b98975050505050505050565b6040815260006121106040830185611ce3565b8281036020840152610a548185611ce356fea2646970667358221220274838c4a858f7f9bb172514a9b0a5f8ee61f02b86c9778476e3d6e3cd926afa64736f6c63430008180033",
  "linkReferences": {},
  "deployedLinkReferences": {}
}