{
  "_format": "hh-sol-artifact-1",
  "contractName": "GrepToken",
  "sourceName": "contracts/GrepToken.sol",
  "abi": [
    {
      "inputs": [],
      "stateMutability": "nonpayable",
      "type": "constructor"
    },
    {
      "inputs": [],
      "name": "ECDSAInvalidSignature",
      "type": "error"
    },
    {
      "inputs": [
        {
          "internalType": "uint256",
          "name": "length",
          "type": "uint256"
        }
      ],
      "name": "ECDSAInvalidSignatureLength",
      "type": "error"
    },
    {
      "inputs": [
        {
          "internalType": "bytes32",
          "name": "s",
          "type": "bytes32"
        }
      ],
      "name": "ECDSAInvalidSignatureS",
      "type": "error"
    },
    {
      "inputs": [
        {
          "internalType": "address",
          "name": "spender",
          "type": "address"
        },
        {
          "internalType": "uint256",
          "name": "allowance",
          "type": "uint256"
        },
        {
          "internalType": "uint256",
          "name": "needed",
          "type": "uint256"
        }
      ],
      "name": "ERC20InsufficientAllowance",
      "type": "error"
    },
    {
      "inputs": [
        {
          "internalType": "address",
          "name": "sender",
          "type": "address"
        },
        {
          "internalType": "uint256",
          "name": "balance",
          "type": "uint256"
        },
        {
          "internalType": "uint256",
          "name": "needed",
          "type": "uint256"
        }
      ],
      "name": "ERC20InsufficientBalance",
      "type": "error"
    },
    {
      "inputs": [
        {
          "internalType": "address",
          "name": "approver",
          "type": "address"
        }
      ],
      "name": "ERC20InvalidApprover",
      "type": "error"
    },
    {
      "inputs": [
        {
          "internalType": "address",
          "name": "receiver",
          "type": "address"
        }
      ],
      "name": "ERC20InvalidReceiver",
      "type": "error"
    },
    {
      "inputs": [
        {
          "internalType": "address",
          "name": "sender",
          "type": "address"
        }
      ],
      "name": "ERC20InvalidSender",
      "type": "error"
    },
    {
      "inputs": [
        {
          "internalType": "address",
          "name": "spender",
          "type": "address"
        }
      ],
      "name": "ERC20InvalidSpender",
      "type": "error"
    },
    {
      "inputs": [
        {
          "internalType": "uint256",
          "name": "deadline",
          "type": "uint256"
        }
      ],
      "name": "ERC2612ExpiredSignature",
      "type": "error"
    },
    {
      "inputs": [
        {
          "internalType": "address",
          "name": "signer",
          "type": "address"
        },
        {
          "internalType": "address",
          "name": "owner",
          "type": "address"
        }
      ],
      "name": "ERC2612InvalidSigner",
      "type": "error"
    },
    {
      "inputs": [
        {
          "internalType": "address",
          "name": "account",
          "type": "address"
        },
        {
          "internalType": "uint256",
          "name": "currentNonce",
          "type": "uint256"
        }
      ],
      "name": "InvalidAccountNonce",
      "type": "error"
    },
    {
      "inputs": [],
      "name": "InvalidShortString",
      "type": "error"
    },
    {
      "inputs": [
        {
          "internalType": "address",
          "name": "owner",
          "type": "address"
        }
      ],
      "name": "OwnableInvalidOwner",
      "type": "error"
    },
    {
      "inputs": [
        {
          "internalType": "address",
          "name": "account",
          "type": "address"
        }
      ],
      "name": "OwnableUnauthorizedAccount",
      "type": "error"
    },
    {
      "inputs": [
        {
          "internalType": "string",
          "name": "str",
          "type": "string"
        }
      ],
      "name": "StringTooLong",
      "type": "error"
    },
    {
      "anonymous": false,
      "inputs": [
        {
          "indexed": true,
          "internalType": "address",
          "name": "to",
          "type": "address"
        },
        {
          "indexed": false,
          "internalType": "uint256",
          "name": "amount",
          "type": "uint256"
        }
      ],
      "name": "AirdropMinted",
      "type": "event"
    },
    {
      "anonymous": false,
      "inputs": [
        {
          "indexed": true,
          "internalType": "address",
          "name": "owner",
          "type": "address"
        },
        {
          "indexed": true,
          "internalType": "address",
          "name": "spender",
          "type": "address"
        },
        {
          "indexed": false,
          "internalType": "uint256",
          "name": "value",
          "type": "uint256"
        }
      ],
      "name": "Approval",
      "type": "event"
    },
    {
      "anonymous": false,
      "inputs": [],
      "name": "EIP712DomainChanged",
      "type": "event"
    },
    {
      "anonymous": false,
      "inputs": [
        {
          "indexed": true,
          "internalType": "address",
          "name": "to",
          "type": "address"
        },
        {
          "indexed": false,
          "internalType": "uint256",
          "name": "amount",
          "type": "uint256"
        }
      ],
      "name": "GameplayRewardsMinted",
      "type": "event"
    },
    {
      "anonymous": false,
      "inputs": [
        {
          "indexed": true,
          "internalType": "address",
          "name": "minter",
          "type": "address"
        }
      ],
      "name": "MinterAdded",
      "type": "event"
    },
    {
      "anonymous": false,
      "inputs": [
        {
          "indexed": true,
          "internalType": "address",
          "name": "minter",
          "type": "address"
        }
      ],
      "name": "MinterRemoved",
      "type": "event"
    },
    {
      "anonymous": false,
      "inputs": [
        {
          "indexed": true,
          "internalType": "address",
          "name": "previousOwner",
          "type": "address"
        },
        {
          "indexed": true,
          "internalType": "address",
          "name": "newOwner",
          "type": "address"
        }
      ],
      "name": "OwnershipTransferred",
      "type": "event"
    },
    {
      "anonymous": false,
      "inputs": [
        {
          "indexed": true,
          "internalType": "address",
          "name": "to",
          "type": "address"
        },
        {
          "indexed": false,
          "internalType": "uint256",
          "name": "amount",
          "type": "uint256"
        }
      ],
      "name": "StakingRewardsMinted",
      "type": "event"
    },
    {
      "anonymous": false,
      "inputs": [
        {
          "indexed": true,
          "internalType": "address",
          "name": "from",
          "type": "address"
        },
        {
          "indexed": true,
          "internalType": "address",
          "name": "to",
          "type": "address"
        },
        {
          "indexed": false,
          "internalType": "uint256",
          "name": "value",
          "type": "uint256"
        }
      ],
      "name": "Transfer",
      "type": "event"
    },
    {
      "inputs": [],
      "name": "AIRDROPS_CAP",
      "outputs": [
        {
          "internalType": "uint256",
          "name": "",
          "type": "uint256"
        }
      ],
      "stateMutability": "view",
      "type": "function"
    },
    {
      "inputs": [],
      "name": "DOMAIN_SEPARATOR",
      "outputs": [
        {
          "internalType": "bytes32",
          "name": "",
          "type": "bytes32"
        }
      ],
      "stateMutability": "view",
      "type": "function"
    },
    {
      "inputs": [],
      "name": "GAMEPLAY_REWARDS_CAP",
      "outputs": [
        {
          "internalType": "uint256",
          "name": "",
          "type": "uint256"
        }
      ],
      "stateMutability": "view",
      "type": "function"
    },
    {
      "inputs": [],
      "name": "MAX_SUPPLY",
      "outputs": [
        {
          "internalType": "uint256",
          "name": "",
          "type": "uint256"
        }
      ],
      "stateMutability": "view",
      "type": "function"
    },
    {
      "inputs": [],
      "name": "STAKING_REWARDS_CAP",
      "outputs": [
        {
          "internalType": "uint256",
          "name": "",
          "type": "uint256"
        }
      ],
      "stateMutability": "view",
      "type": "function"
    },
    {
      "inputs": [
        {
          "internalType": "address",
          "name": "minter",
          "type": "address"
        }
      ],
      "name": "addMinter",
      "outputs": [],
      "stateMutability": "nonpayable",
      "type": "function"
    },
    {
      "inputs": [],
      "name": "airdropsMinted",
      "outputs": [
        {
          "internalType": "uint256",
          "name": "",
          "type": "uint256"
        }
      ],
      "stateMutability": "view",
      "type": "function"
    },
    {
      "inputs": [
        {
          "internalType": "address",
          "name": "owner",
          "type": "address"
        },
        {
          "internalType": "address",
          "name": "spender",
          "type": "address"
        }
      ],
      "name": "allowance",
      "outputs": [
        {
          "internalType": "uint256",
          "name": "",
          "type": "uint256"
        }
      ],
      "stateMutability": "view",
      "type": "function"
    },
    {
      "inputs": [
        {
          "internalType": "address",
          "name": "spender",
          "type": "address"
        },
        {
          "internalType": "uint256",
          "name": "value",
          "type": "uint256"
        }
      ],
      "name": "approve",
      "outputs": [
        {
          "internalType": "bool",
          "name": "",
          "type": "bool"
        }
      ],
      "stateMutability": "nonpayable",
      "type": "function"
    },
    {
      "inputs": [
        {
          "internalType": "address",
          "name": "account",
          "type": "address"
        }
      ],
      "name": "balanceOf",
      "outputs": [
        {
          "internalType": "uint256",
          "name": "",
          "type": "uint256"
        }
      ],
      "stateMutability": "view",
      "type": "function"
    },
    {
      "inputs": [
        {
          "internalType": "uint256",
          "name": "value",
          "type": "uint256"
        }
      ],
      "name": "burn",
      "outputs": [],
      "stateMutability": "nonpayable",
      "type": "function"
    },
    {
      "inputs": [
        {
          "internalType": "address",
          "name": "account",
          "type": "address"
        },
        {
          "internalType": "uint256",
          "name": "value",
          "type": "uint256"
        }
      ],
      "name": "burnFrom",
      "outputs": [],
      "stateMutability": "nonpayable",
      "type": "function"
    },
    {
      "inputs": [],
      "name": "decimals",
      "outputs": [
        {
          "internalType": "uint8",
          "name": "",
          "type": "uint8"
        }
      ],
      "stateMutability": "view",
      "type": "function"
    },
    {
      "inputs": [],
      "name": "eip712Domain",
      "outputs": [
        {
          "internalType": "bytes1",
          "name": "fields",
          "type": "bytes1"
        },
        {
          "internalType": "string",
          "name": "name",
          "type": "string"
        },
        {
          "internalType": "string",
          "name": "version",
          "type": "string"
        },
        {
          "internalType": "uint256",
          "name": "chainId",
          "type": "uint256"
        },
        {
          "internalType": "address",
          "name": "verifyingContract",
          "type": "address"
        },
        {
          "internalType": "bytes32",
          "name": "salt",
          "type": "bytes32"
        },
        {
          "internalType": "uint256[]",
          "name": "extensions",
          "type": "uint256[]"
        }
      ],
      "stateMutability": "view",
      "type": "function"
    },
    {
      "inputs": [],
      "name": "gameplayRewardsMinted",
      "outputs": [
        {
          "internalType": "uint256",
          "name": "",
          "type": "uint256"
        }
      ],
      "stateMutability": "view",
      "type": "function"
    },
    {
      "inputs": [],
      "name": "getRemainingMintable",
      "outputs": [
        {
          "internalType": "uint256",
          "name": "stakingRemaining",
          "type": "uint256"
        },
        {
          "internalType": "uint256",
          "name": "gameplayRemaining",
          "type": "uint256"
        },
        {
          "internalType": "uint256",
          "name": "airdropsRemaining",
          "type": "uint256"
        }
      ],
      "stateMutability": "view",
      "type": "function"
    },
    {
      "inputs": [
        {
          "internalType": "address",
          "name": "to",
          "type": "address"
        },
        {
          "internalType": "uint256",
          "name": "amount",
          "type": "uint256"
        }
      ],
      "name": "mintAirdrop",
      "outputs": [],
      "stateMutability": "nonpayable",
      "type": "function"
    },
    {
      "inputs": [
        {
          "internalType": "address",
          "name": "to",
          "type": "address"
        },
        {
          "internalType": "uint256",
          "name": "amount",
          "type": "uint256"
        }
      ],
      "name": "mintGameplayRewards",
      "outputs": [],
      "stateMutability": "nonpayable",
      "type": "function"
    },
    {
      "inputs": [
        {
          "internalType": "address",
          "name": "to",
          "type": "address"
        },
        {
          "internalType": "uint256",
          "name": "amount",
          "type": "uint256"
        }
      ],
      "name": "mintStakingRewards",
      "outputs": [],
      "stateMutability": "nonpayable",
      "type": "function"
    },
    {
      "inputs": [
        {
          "internalType": "address",
          "name": "",
          "type": "address"
        }
      ],
      "name": "minters",
      "outputs": [
        {
          "internalType": "bool",
          "name": "",
          "type": "bool"
        }
      ],
      "stateMutability": "view",
      "type": "function"
    },
    {
      "inputs": [],
      "name": "name",
      "outputs": [
        {
          "internalType": "string",
          "name": "",
          "type": "string"
        }
      ],
      "stateMutability": "view",
      "type": "function"
    },
    {
      "inputs": [
        {
          "internalType": "address",
          "name": "owner",
          "type": "address"
        }
      ],
      "name": "nonces",
      "outputs": [
        {
          "internalType": "uint256",
          "name": "",
          "type": "uint256"
        }
      ],
      "stateMutability": "view",
      "type": "function"
    },
    {
      "inputs": [],
      "name": "owner",
      "outputs": [
        {
          "internalType": "address",
          "name": "",
          "type": "address"
        }
      ],
      "stateMutability": "view",
      "type": "function"
    },
    {
      "inputs": [
        {
          "internalType": "address",
          "name": "owner",
          "type": "address"
        },
        {
          "internalType": "address",
          "name": "spender",
          "type": "address"
        },
        {
          "internalType": "uint256",
          "name": "value",
          "type": "uint256"
        },
        {
          "internalType": "uint256",
          "name": "deadline",
          "type": "uint256"
        },
        {
          "internalType": "uint8",
          "name": "v",
          "type": "uint8"
        },
        {
          "internalType": "bytes32",
          "name": "r",
          "type": "bytes32"
        },
        {
          "internalType": "bytes32",
          "name": "s",
          "type": "bytes32"
        }
      ],
      "name": "permit",
      "outputs": [],
      "stateMutability": "nonpayable",
      "type": "function"
    },
    {
      "inputs": [
        {
          "internalType": "address",
          "name": "minter",
          "type": "address"
        }
      ],
      "name": "removeMinter",
      "outputs": [],
      "stateMutability": "nonpayable",
      "type": "function"
    },
    {
      "inputs": [],
      "name": "renounceOwnership",
      "outputs": [],
      "stateMutability": "nonpayable",
      "type": "function"
    },
    {
      "inputs": [],
      "name": "stakingRewardsMinted",
      "outputs": [
        {
          "internalType": "uint256",
          "name": "",
          "type": "uint256"
        }
      ],
      "stateMutability": "view",
      "type": "function"
    },
    {
      "inputs": [],
      "name": "symbol",
      "outputs": [
        {
          "internalType": "string",
          "name": "",
          "type": "string"
        }
      ],
      "stateMutability": "view",
      "type": "function"
    },
    {
      "inputs": [],
      "name": "totalSupply",
      "outputs": [
        {
          "internalType": "uint256",
          "name": "",
          "type": "uint256"
        }
      ],
      "stateMutability": "view",
      "type": "function"
    },
    {
      "inputs": [
        {
          "internalType": "address",
          "name": "to",
          "type": "address"
        },
        {
          "internalType": "uint256",
          "name": "value",
          "type": "uint256"
        }
      ],
      "name": "transfer",
      "outputs": [
        {
          "internalType": "bool",
          "name": "",
          "type": "bool"
        }
      ],
      "stateMutability": "nonpayable",
      "type": "function"
    },
    {
      "inputs": [
        {
          "internalType": "address",
          "name": "from",
          "type": "address"
        },
        {
          "internalType": "address",
          "name": "to",
          "type": "address"
        },
        {
          "internalType": "uint256",
          "name": "value",
          "type": "uint256"
        }
      ],
      "name": "transferFrom",
      "outputs": [
        {
          "internalType": "bool",
          "name": "",
          "type": "bool"
        }
      ],
      "stateMutability": "nonpayable",
      "type": "function"
    },
    {
      "inputs": [
        {
          "internalType": "address",
          "name": "newOwner",
          "type": "address"
        }
      ],
      "name": "transferOwnership",
      "outputs": [],
      "stateMutability": "nonpayable",
      "type": "function"
    }
  ],
  "bytecode": "0x6101606040523480156200001257600080fd5b50336040518060400160405280600881526020016723b932b821b7b4b760c11b81525080604051806040016040528060018152602001603160f81b8152506040518060400160405280600881526020016723b932b821b7b4b760c11b815250604051806040016040528060048152602001630475245560e41b81525081600390816200009f9190620004a9565b506004620000ae8282620004a9565b50620000c091508390506005620001c3565b61012052620000d1816006620001c3565b61014052815160208084019190912060e052815190820120610100524660a0526200015f60e05161010051604080517f8b73c3c69bb8fe3d512ecc4cf759cc79239f7b179b0ffacaa9a75d522b39400f60208201529081019290925260608201524660808201523060a082015260009060c00160405160208183030381529060405280519060200120905090565b60805250503060c052506001600160a01b0381166200019957604051631e4fbdf760e01b8152600060048201526024015b60405180910390fd5b620001a481620001fc565b50620001bd336b014adf4b7320334b900000006200024e565b6200060d565b6000602083511015620001e357620001db836200028c565b9050620001f6565b81620001f08482620004a9565b5060ff90505b92915050565b600880546001600160a01b038381166001600160a01b0319831681179093556040519116919082907f8be0079c531659141344cd1fd0a4f28419497f9722a3daafe3b4186f6b6457e090600090a35050565b6001600160a01b0382166200027a5760405163ec442f0560e01b81526000600482015260240162000190565b6200028860008383620002cf565b5050565b600080829050601f81511115620002ba578260405163305a27a960e01b815260040162000190919062000575565b8051620002c782620005c6565b179392505050565b6001600160a01b038316620002fe578060026000828254620002f29190620005eb565b90915550620003729050565b6001600160a01b03831660009081526020819052604090205481811015620003535760405163391434e360e21b81526001600160a01b0385166004820152602481018290526044810183905260640162000190565b6001600160a01b03841660009081526020819052604090209082900390555b6001600160a01b0382166200039057600280548290039055620003af565b6001600160a01b03821660009081526020819052604090208054820190555b816001600160a01b0316836001600160a01b03167fddf252ad1be2c89b69c2b068fc378daa952ba7f163c4a11628f55a4df523b3ef83604051620003f591815260200190565b60405180910390a3505050565b634e487b7160e01b600052604160045260246000fd5b600181811c908216806200042d57607f821691505b6020821081036200044e57634e487b7160e01b600052602260045260246000fd5b50919050565b601f821115620004a4576000816000526020600020601f850160051c810160208610156200047f5750805b601f850160051c820191505b81811015620004a0578281556001016200048b565b5050505b505050565b81516001600160401b03811115620004c557620004c562000402565b620004dd81620004d6845462000418565b8462000454565b602080601f831160018114620005155760008415620004fc5750858301515b600019600386901b1c1916600185901b178555620004a0565b600085815260208120601f198616915b82811015620005465788860151825594840194600190910190840162000525565b5085821015620005655787850151600019600388901b60f8161c191681555b5050505050600190811b01905550565b60006020808352835180602085015260005b81811015620005a55785810183015185820160400152820162000587565b506000604082860101526040601f19601f8301168501019250505092915050565b805160208083015191908110156200044e5760001960209190910360031b1b16919050565b80820180821115620001f657634e487b7160e01b600052601160045260246000fd5b60805160a05160c05160e0516101005161012051610140516118a262000668600039600061101401526000610fe701526000610f0701526000610edf01526000610e3a01526000610e6401526000610e8e01526118a26000f3fe608060405234801561001057600080fd5b50600436106101f05760003560e01c80637ecebe001161010f578063d3ff1c3b116100a2578063f2fde38b11610071578063f2fde38b1461043b578063f46eccc41461044e578063f82c29ae14610471578063fdd7c4021461048457600080fd5b8063d3ff1c3b146103cb578063d505accf146103dd578063dd62ed3e146103f0578063edc56cf51461042957600080fd5b806395d89b41116100de57806395d89b4114610394578063983b2d561461039c5780639e1ab91d146103af578063a9059cbb146103b857600080fd5b80637ecebe001461034257806384b0196e146103555780638a1e5601146103705780638da5cb5b1461037957600080fd5b806332cb6b0c1161018757806370a082311161015657806370a08231146102ec578063715018a6146103155780637664ce121461031d57806379cc67901461032f57600080fd5b806332cb6b0c1461029b5780633644e515146102ae57806342966c68146102b65780636f97e31c146102c957600080fd5b806323b872dd116101c357806323b872dd1461025d578063283fd37b146102705780633092afd514610279578063313ce5671461028c57600080fd5b80630194a7ca146101f557806306fdde031461020a578063095ea7b31461022857806318160ddd1461024b575b600080fd5b61020861020336600461154a565b610497565b005b6102126105f4565b60405161021f91906115ba565b60405180910390f35b61023b61023636600461154a565b610686565b604051901515815260200161021f565b6002545b60405190815260200161021f565b61023b61026b3660046115d4565b6106a0565b61024f600b5481565b610208610287366004611610565b6106c4565b6040516012815260200161021f565b61024f6b033b2e3c9fd0803ce800000081565b61024f610715565b6102086102c436600461162b565b610724565b6102d1610731565b6040805193845260208401929092529082015260600161021f565b61024f6102fa366004611610565b6001600160a01b031660009081526020819052604090205490565b61020861078c565b61024f6aa56fa5b99019a5c800000081565b61020861033d36600461154a565b6107a0565b61024f610350366004611610565b6107b9565b61035d6107d7565b60405161021f9796959493929190611644565b61024f600a5481565b6008546040516001600160a01b03909116815260200161021f565b61021261081d565b6102086103aa366004611610565b61082c565b61024f600c5481565b61023b6103c636600461154a565b6108cf565b61024f6a52b7d2dcc80cd2e400000081565b6102086103eb3660046116dd565b6108dd565b61024f6103fe366004611750565b6001600160a01b03918216600090815260016020908152604080832093909416825291909152205490565b61024f6af8277896582678ac00000081565b610208610449366004611610565b610a17565b61023b61045c366004611610565b60096020526000908152604090205460ff1681565b61020861047f36600461154a565b610a52565b61020861049236600461154a565b610b9a565b3360009081526009602052604090205460ff16806104bf57506008546001600160a01b031633145b6104e45760405162461bcd60e51b81526004016104db90611783565b60405180910390fd5b6af8277896582678ac00000081600a546104fe91906117c9565b111561054c5760405162461bcd60e51b815260206004820152601c60248201527f5374616b696e672072657761726473206361702065786365656465640000000060448201526064016104db565b6b033b2e3c9fd0803ce80000008161056360025490565b61056d91906117c9565b111561058b5760405162461bcd60e51b81526004016104db906117dc565b80600a600082825461059d91906117c9565b909155506105ad90508282610cda565b816001600160a01b03167f84065b24c0c720f66ae9be3e0b0de201cac7c5ce0ea04c8bc34c3f2e1fc95ba4826040516105e891815260200190565b60405180910390a25050565b60606003805461060390611809565b80601f016020809104026020016040519081016040528092919081815260200182805461062f90611809565b801561067c5780601f106106515761010080835404028352916020019161067c565b820191906000526020600020905b81548152906001019060200180831161065f57829003601f168201915b5050505050905090565b600033610694818585610d10565b60019150505b92915050565b6000336106ae858285610d22565b6106b9858585610da1565b506001949350505050565b6106cc610e00565b6001600160a01b038116600081815260096020526040808220805460ff19169055517fe94479a9f7e1952cc78f2d6baab678adc1b772d936c6583def489e524cb666929190a250565b600061071f610e2d565b905090565b61072e3382610f58565b50565b6000806000600a546af8277896582678ac00000061074f9190611843565b9250600b546aa56fa5b99019a5c800000061076a9190611843565b9150600c546a52b7d2dcc80cd2e40000006107859190611843565b9050909192565b610794610e00565b61079e6000610f8e565b565b6107ab823383610d22565b6107b58282610f58565b5050565b6001600160a01b03811660009081526007602052604081205461069a565b6000606080600080600060606107eb610fe0565b6107f361100d565b60408051600080825260208201909252600f60f81b9b939a50919850469750309650945092509050565b60606004805461060390611809565b610834610e00565b6001600160a01b0381166108835760405162461bcd60e51b8152602060048201526016602482015275496e76616c6964206d696e746572206164647265737360501b60448201526064016104db565b6001600160a01b038116600081815260096020526040808220805460ff19166001179055517f6ae172837ea30b801fbfcdd4108aa1d5bf8ff775444fd70256b44e6bf3dfc3f69190a250565b600033610694818585610da1565b834211156109015760405163313c898160e11b8152600481018590526024016104db565b60007f6e71edae12b1b97f4d1f60370fef10105fa2faae0126114a169c64845d6126c988888861094e8c6001600160a01b0316600090815260076020526040902080546001810190915590565b6040805160208101969096526001600160a01b0394851690860152929091166060840152608083015260a082015260c0810186905260e00160405160208183030381529060405280519060200120905060006109a98261103a565b905060006109b982878787611067565b9050896001600160a01b0316816001600160a01b031614610a00576040516325c0072360e11b81526001600160a01b0380831660048301528b1660248201526044016104db565b610a0b8a8a8a610d10565b50505050505050505050565b610a1f610e00565b6001600160a01b038116610a4957604051631e4fbdf760e01b8152600060048201526024016104db565b61072e81610f8e565b3360009081526009602052604090205460ff1680610a7a57506008546001600160a01b031633145b610a965760405162461bcd60e51b81526004016104db90611783565b6aa56fa5b99019a5c800000081600b54610ab091906117c9565b1115610afe5760405162461bcd60e51b815260206004820152601d60248201527f47616d65706c617920726577617264732063617020657863656564656400000060448201526064016104db565b6b033b2e3c9fd0803ce800000081610b1560025490565b610b1f91906117c9565b1115610b3d5760405162461bcd60e51b81526004016104db906117dc565b80600b6000828254610b4f91906117c9565b90915550610b5f90508282610cda565b816001600160a01b03167f785744576493a526087542942e96639e7eb10c5b6f11f54b5399815751eabf29826040516105e891815260200190565b3360009081526009602052604090205460ff1680610bc257506008546001600160a01b031633145b610bde5760405162461bcd60e51b81526004016104db90611783565b6a52b7d2dcc80cd2e400000081600c54610bf891906117c9565b1115610c3e5760405162461bcd60e51b8152602060048201526015602482015274105a5c991c9bdc1cc818d85c08195e18d959591959605a1b60448201526064016104db565b6b033b2e3c9fd0803ce800000081610c5560025490565b610c5f91906117c9565b1115610c7d5760405162461bcd60e51b81526004016104db906117dc565b80600c6000828254610c8f91906117c9565b90915550610c9f90508282610cda565b816001600160a01b03167fef1585cd9743b170e77a247f0c35cd842dbb8b59cb1981becbc26f7ec1a7fc56826040516105e891815260200190565b6001600160a01b038216610d045760405163ec442f0560e01b8152600060048201526024016104db565b6107b560008383611095565b610d1d83838360016111bf565b505050565b6001600160a01b03838116600090815260016020908152604080832093861683529290522054600019811015610d9b5781811015610d8c57604051637dc7a0d960e11b81526001600160a01b038416600482015260248101829052604481018390526064016104db565b610d9b848484840360006111bf565b50505050565b6001600160a01b038316610dcb57604051634b637e8f60e11b8152600060048201526024016104db565b6001600160a01b038216610df55760405163ec442f0560e01b8152600060048201526024016104db565b610d1d838383611095565b6008546001600160a01b0316331461079e5760405163118cdaa760e01b81523360048201526024016104db565b6000306001600160a01b037f000000000000000000000000000000000000000000000000000000000000000016148015610e8657507f000000000000000000000000000000000000000000000000000000000000000046145b15610eb057507f000000000000000000000000000000000000000000000000000000000000000090565b61071f604080517f8b73c3c69bb8fe3d512ecc4cf759cc79239f7b179b0ffacaa9a75d522b39400f60208201527f0000000000000000000000000000000000000000000000000000000000000000918101919091527f000000000000000000000000000000000000000000000000000000000000000060608201524660808201523060a082015260009060c00160405160208183030381529060405280519060200120905090565b6001600160a01b038216610f8257604051634b637e8f60e11b8152600060048201526024016104db565b6107b582600083611095565b600880546001600160a01b038381166001600160a01b0319831681179093556040519116919082907f8be0079c531659141344cd1fd0a4f28419497f9722a3daafe3b4186f6b6457e090600090a35050565b606061071f7f00000000000000000000000000000000000000000000000000000000000000006005611294565b606061071f7f00000000000000000000000000000000000000000000000000000000000000006006611294565b600061069a611047610e2d565b8360405161190160f01b8152600281019290925260228201526042902090565b6000806000806110798888888861133f565b925092509250611089828261140e565b50909695505050505050565b6001600160a01b0383166110c05780600260008282546110b591906117c9565b909155506111329050565b6001600160a01b038316600090815260208190526040902054818110156111135760405163391434e360e21b81526001600160a01b038516600482015260248101829052604481018390526064016104db565b6001600160a01b03841660009081526020819052604090209082900390555b6001600160a01b03821661114e5760028054829003905561116d565b6001600160a01b03821660009081526020819052604090208054820190555b816001600160a01b0316836001600160a01b03167fddf252ad1be2c89b69c2b068fc378daa952ba7f163c4a11628f55a4df523b3ef836040516111b291815260200190565b60405180910390a3505050565b6001600160a01b0384166111e95760405163e602df0560e01b8152600060048201526024016104db565b6001600160a01b03831661121357604051634a1406b160e11b8152600060048201526024016104db565b6001600160a01b0380851660009081526001602090815260408083209387168352929052208290558015610d9b57826001600160a01b0316846001600160a01b03167f8c5be1e5ebec7d5bd14f71427d1e84f3dd0314c0f7b2291e5b200ac8c7c3b9258460405161128691815260200190565b60405180910390a350505050565b606060ff83146112ae576112a7836114c7565b905061069a565b8180546112ba90611809565b80601f01602080910402602001604051908101604052809291908181526020018280546112e690611809565b80156113335780601f1061130857610100808354040283529160200191611333565b820191906000526020600020905b81548152906001019060200180831161131657829003601f168201915b5050505050905061069a565b600080807f7fffffffffffffffffffffffffffffff5d576e7357a4501ddfe92f46681b20a084111561137a5750600091506003905082611404565b604080516000808252602082018084528a905260ff891692820192909252606081018790526080810186905260019060a0016020604051602081039080840390855afa1580156113ce573d6000803e3d6000fd5b5050604051601f1901519150506001600160a01b0381166113fa57506000925060019150829050611404565b9250600091508190505b9450945094915050565b600082600381111561142257611422611856565b0361142b575050565b600182600381111561143f5761143f611856565b0361145d5760405163f645eedf60e01b815260040160405180910390fd5b600282600381111561147157611471611856565b036114925760405163fce698f760e01b8152600481018290526024016104db565b60038260038111156114a6576114a6611856565b036107b5576040516335e2f38360e21b8152600481018290526024016104db565b606060006114d483611506565b604080516020808252818301909252919250600091906020820181803683375050509182525060208101929092525090565b600060ff8216601f81111561069a57604051632cd44ac360e21b815260040160405180910390fd5b80356001600160a01b038116811461154557600080fd5b919050565b6000806040838503121561155d57600080fd5b6115668361152e565b946020939093013593505050565b6000815180845260005b8181101561159a5760208185018101518683018201520161157e565b506000602082860101526020601f19601f83011685010191505092915050565b6020815260006115cd6020830184611574565b9392505050565b6000806000606084860312156115e957600080fd5b6115f28461152e565b92506116006020850161152e565b9150604084013590509250925092565b60006020828403121561162257600080fd5b6115cd8261152e565b60006020828403121561163d57600080fd5b5035919050565b60ff60f81b881681526000602060e0602084015261166560e084018a611574565b8381036040850152611677818a611574565b606085018990526001600160a01b038816608086015260a0850187905284810360c08601528551808252602080880193509091019060005b818110156116cb578351835292840192918401916001016116af565b50909c9b505050505050505050505050565b600080600080600080600060e0888a0312156116f857600080fd5b6117018861152e565b965061170f6020890161152e565b95506040880135945060608801359350608088013560ff8116811461173357600080fd5b9699959850939692959460a0840135945060c09093013592915050565b6000806040838503121561176357600080fd5b61176c8361152e565b915061177a6020840161152e565b90509250929050565b602080825260169082015275139bdd08185d5d1a1bdc9a5e9959081d1bc81b5a5b9d60521b604082015260600190565b634e487b7160e01b600052601160045260246000fd5b8082018082111561069a5761069a6117b3565b60208082526013908201527213585e081cdd5c1c1b1e48195e18d959591959606a1b604082015260600190565b600181811c9082168061181d57607f821691505b60208210810361183d57634e487b7160e01b600052602260045260246000fd5b50919050565b8181038181111561069a5761069a6117b3565b634e487b7160e01b600052602160045260246000fdfea2646970667358221220d3791f7f81ede678076bf7202a77cf003704d45bfb09acca5ad81b46b621b83164736f6c63430008180033",
  "linkReferences": {},
  "deployedLinkReferences": {}
}