{
  "_format": "hh-sol-artifact-1",
  "contractName": "GrepItems",
  "sourceName": "contracts/GrepItems.sol",
  "abi": [
    {
      "inputs": [
        {
          "internalType": "string",
          "name": "baseURI_",
          "type": "string"
        }
      ],
      "stateMutability": "nonpayable",
      "type": "constructor"
    },
    {
      "inputs": [
        {
          "internalType": "address",
          "name": "sender",
          "type": "address"
        },
        {
          "internalType": "uint256",
          "name": "balance",
          "type": "uint256"
        },
        {
          "internalType": "uint256",
          "name": "needed",
          "type": "uint256"
        },
        {
          "internalType": "uint256",
          "name": "tokenId",
          "type": "uint256"
        }
      ],
      "name": "ERC1155InsufficientBalance",
      "type": "error"
    },
    {
      "inputs": [
        {
          "internalType": "address",
          "name": "approver",
          "type": "address"
        }
      ],
      "name": "ERC1155InvalidApprover",
      "type": "error"
    },
    {
      "inputs": [
        {
          "internalType": "uint256",
          "name": "idsLength",
          "type": "uint256"
        },
        {
          "internalType": "uint256",
          "name": "valuesLength",
          "type": "uint256"
        }
      ],
      "name": "ERC1155InvalidArrayLength",
      "type": "error"
    },
    {
      "inputs": [
        {
          "internalType": "address",
          "name": "operator",
          "type": "address"
        }
      ],
      "name": "ERC1155InvalidOperator",
      "type": "error"
    },
    {
      "inputs": [
        {
          "internalType": "address",
          "name": "receiver",
          "type": "address"
        }
      ],
      "name": "ERC1155InvalidReceiver",
      "type": "error"
    },
    {
      "inputs": [
        {
          "internalType": "address",
          "name": "sender",
          "type": "address"
        }
      ],
      "name": "ERC1155InvalidSender",
      "type": "error"
    },
    {
      "inputs": [
        {
          "internalType": "address",
          "name": "operator",
          "type": "address"
        },
        {
          "internalType": "address",
          "name": "owner",
          "type": "address"
        }
      ],
      "name": "ERC1155MissingApprovalForAll",
      "type": "error"
    },
    {
      "inputs": [],
      "name": "EnforcedPause",
      "type": "error"
    },
    {
      "inputs": [],
      "name": "ExpectedPause",
      "type": "error"
    },
    {
      "inputs": [
        {
          "internalType": "address",
          "name": "owner",
          "type": "address"
        }
      ],
      "name": "OwnableInvalidOwner",
      "type": "error"
    },
    {
      "inputs": [
        {
          "internalType": "address",
          "name": "account",
          "type": "address"
        }
      ],
      "name": "OwnableUnauthorizedAccount",
      "type": "error"
    },
    {
      "anonymous": false,
      "inputs": [
        {
          "indexed": true,
          "internalType": "address",
          "name": "account",
          "type": "address"
        },
        {
          "indexed": true,
          "internalType": "address",
          "name": "operator",
          "type": "address"
        },
        {
          "indexed": false,
          "internalType": "bool",
          "name": "approved",
          "type": "bool"
        }
      ],
      "name": "ApprovalForAll",
      "type": "event"
    },
    {
      "anonymous": false,
      "inputs": [
        {
          "indexed": false,
          "internalType": "string",
          "name": "baseURI",
          "type": "string"
        }
      ],
      "name": "BaseURISet",
      "type": "event"
    },
    {
      "anonymous": false,
      "inputs": [
        {
          "indexed": true,
          "internalType": "address",
          "name": "to",
          "type": "address"
        },
        {
          "indexed": false,
          "internalType": "uint256[]",
          "name": "tokenIds",
          "type": "uint256[]"
        },
        {
          "indexed": false,
          "internalType": "uint256[]",
          "name": "amounts",
          "type": "uint256[]"
        }
      ],
      "name": "BatchItemMinted",
      "type": "event"
    },
    {
      "anonymous": false,
      "inputs": [
        {
          "indexed": true,
          "internalType": "address",
          "name": "to",
          "type": "address"
        },
        {
          "indexed": true,
          "internalType": "uint256",
          "name": "tokenId",
          "type": "uint256"
        },
        {
          "indexed": false,
          "internalType": "uint256",
          "name": "amount",
          "type": "uint256"
        }
      ],
      "name": "ItemMinted",
      "type": "event"
    },
    {
      "anonymous": false,
      "inputs": [
        {
          "indexed": true,
          "internalType": "address",
          "name": "minter",
          "type": "address"
        }
      ],
      "name": "MinterAdded",
      "type": "event"
    },
    {
      "anonymous": false,
      "inputs": [
        {
          "indexed": true,
          "internalType": "address",
          "name": "minter",
          "type": "address"
        }
      ],
      "name": "MinterRemoved",
      "type": "event"
    },
    {
      "anonymous": false,
      "inputs": [
        {
          "indexed": true,
          "internalType": "address",
          "name": "previousOwner",
          "type": "address"
        },
        {
          "indexed": true,
          "internalType": "address",
          "name": "newOwner",
          "type": "address"
        }
      ],
      "name": "OwnershipTransferred",
      "type": "event"
    },
    {
      "anonymous": false,
      "inputs": [
        {
          "indexed": false,
          "internalType": "address",
          "name": "account",
          "type": "address"
        }
      ],
      "name": "Paused",
      "type": "event"
    },
    {
      "anonymous": false,
      "inputs": [
        {
          "indexed": true,
          "internalType": "uint256",
          "name": "tokenId",
          "type": "uint256"
        },
        {
          "indexed": false,
          "internalType": "string",
          "name": "uri",
          "type": "string"
        }
      ],
      "name": "TokenURISet",
      "type": "event"
    },
    {
      "anonymous": false,
      "inputs": [
        {
          "indexed": true,
          "internalType": "address",
          "name": "operator",
          "type": "address"
        },
        {
          "indexed": true,
          "internalType": "address",
          "name": "from",
          "type": "address"
        },
        {
          "indexed": true,
          "internalType": "address",
          "name": "to",
          "type": "address"
        },
        {
          "indexed": false,
          "internalType": "uint256[]",
          "name": "ids",
          "type": "uint256[]"
        },
        {
          "indexed": false,
          "internalType": "uint256[]",
          "name": "values",
          "type": "uint256[]"
        }
      ],
      "name": "TransferBatch",
      "type": "event"
    },
    {
      "anonymous": false,
      "inputs": [
        {
          "indexed": true,
          "internalType": "address",
          "name": "operator",
          "type": "address"
        },
        {
          "indexed": true,
          "internalType": "address",
          "name": "from",
          "type": "address"
        },
        {
          "indexed": true,
          "internalType": "address",
          "name": "to",
          "type": "address"
        },
        {
          "indexed": false,
          "internalType": "uint256",
          "name": "id",
          "type": "uint256"
        },
        {
          "indexed": false,
          "internalType": "uint256",
          "name": "value",
          "type": "uint256"
        }
      ],
      "name": "TransferSingle",
      "type": "event"
    },
    {
      "anonymous": false,
      "inputs": [
        {
          "indexed": false,
          "internalType": "string",
          "name": "value",
          "type": "string"
        },
        {
          "indexed": true,
          "internalType": "uint256",
          "name": "id",
          "type": "uint256"
        }
      ],
      "name": "URI",
      "type": "event"
    },
    {
      "anonymous": false,
      "inputs": [
        {
          "indexed": false,
          "internalType": "address",
          "name": "account",
          "type": "address"
        }
      ],
      "name": "Unpaused",
      "type": "event"
    },
    {
      "inputs": [
        {
          "internalType": "address",
          "name": "minter",
          "type": "address"
        }
      ],
      "name": "addMinter",
      "outputs": [],
      "stateMutability": "nonpayable",
      "type": "function"
    },
    {
      "inputs": [
        {
          "internalType": "address",
          "name": "account",
          "type": "address"
        },
        {
          "internalType": "uint256",
          "name": "id",
          "type": "uint256"
        }
      ],
      "name": "balanceOf",
      "outputs": [
        {
          "internalType": "uint256",
          "name": "",
          "type": "uint256"
        }
      ],
      "stateMutability": "view",
      "type": "function"
    },
    {
      "inputs": [
        {
          "internalType": "address[]",
          "name": "accounts",
          "type": "address[]"
        },
        {
          "internalType": "uint256[]",
          "name": "ids",
          "type": "uint256[]"
        }
      ],
      "name": "balanceOfBatch",
      "outputs": [
        {
          "internalType": "uint256[]",
          "name": "",
          "type": "uint256[]"
        }
      ],
      "stateMutability": "view",
      "type": "function"
    },
    {
      "inputs": [
        {
          "internalType": "address",
          "name": "account",
          "type": "address"
        },
        {
          "internalType": "uint256",
          "name": "id",
          "type": "uint256"
        },
        {
          "internalType": "uint256",
          "name": "value",
          "type": "uint256"
        }
      ],
      "name": "burn",
      "outputs": [],
      "stateMutability": "nonpayable",
      "type": "function"
    },
    {
      "inputs": [
        {
          "internalType": "address",
          "name": "account",
          "type": "address"
        },
        {
          "internalType": "uint256[]",
          "name": "ids",
          "type": "uint256[]"
        },
        {
          "internalType": "uint256[]",
          "name": "values",
          "type": "uint256[]"
        }
      ],
      "name": "burnBatch",
      "outputs": [],
      "stateMutability": "nonpayable",
      "type": "function"
    },
    {
      "inputs": [
        {
          "internalType": "uint256",
          "name": "id",
          "type": "uint256"
        }
      ],
      "name": "exists",
      "outputs": [
        {
          "internalType": "bool",
          "name": "",
          "type": "bool"
        }
      ],
      "stateMutability": "view",
      "type": "function"
    },
    {
      "inputs": [
        {
          "internalType": "uint256",
          "name": "tokenId",
          "type": "uint256"
        }
      ],
      "name": "getItemInfo",
      "outputs": [
        {
          "internalType": "uint8",
          "name": "rarity",
          "type": "uint8"
        },
        {
          "internalType": "bool",
          "name": "isTradeable",
          "type": "bool"
        },
        {
          "internalType": "uint256",
          "name": "supply",
          "type": "uint256"
        },
        {
          "internalType": "string",
          "name": "tokenURI",
          "type": "string"
        }
      ],
      "stateMutability": "view",
      "type": "function"
    },
    {
      "inputs": [
        {
          "internalType": "address",
          "name": "user",
          "type": "address"
        },
        {
          "internalType": "uint256[]",
          "name": "tokenIds",
          "type": "uint256[]"
        }
      ],
      "name": "getUserItems",
      "outputs": [
        {
          "internalType": "uint256[]",
          "name": "",
          "type": "uint256[]"
        }
      ],
      "stateMutability": "view",
      "type": "function"
    },
    {
      "inputs": [
        {
          "internalType": "address",
          "name": "account",
          "type": "address"
        },
        {
          "internalType": "address",
          "name": "operator",
          "type": "address"
        }
      ],
      "name": "isApprovedForAll",
      "outputs": [
        {
          "internalType": "bool",
          "name": "",
          "type": "bool"
        }
      ],
      "stateMutability": "view",
      "type": "function"
    },
    {
      "inputs": [
        {
          "internalType": "uint256",
          "name": "",
          "type": "uint256"
        }
      ],
      "name": "itemRarity",
      "outputs": [
        {
          "internalType": "uint8",
          "name": "",
          "type": "uint8"
        }
      ],
      "stateMutability": "view",
      "type": "function"
    },
    {
      "inputs": [
        {
          "internalType": "address",
          "name": "to",
          "type": "address"
        },
        {
          "internalType": "uint256",
          "name": "tokenId",
          "type": "uint256"
        },
        {
          "internalType": "uint256",
          "name": "amount",
          "type": "uint256"
        },
        {
          "internalType": "bytes",
          "name": "data",
          "type": "bytes"
        }
      ],
      "name": "mint",
      "outputs": [],
      "stateMutability": "nonpayable",
      "type": "function"
    },
    {
      "inputs": [
        {
          "internalType": "address",
          "name": "to",
          "type": "address"
        },
        {
          "internalType": "uint256[]",
          "name": "tokenIds",
          "type": "uint256[]"
        },
        {
          "internalType": "uint256[]",
          "name": "amounts",
          "type": "uint256[]"
        },
        {
          "internalType": "bytes",
          "name": "data",
          "type": "bytes"
        }
      ],
      "name": "mintBatch",
      "outputs": [],
      "stateMutability": "nonpayable",
      "type": "function"
    },
    {
      "inputs": [
        {
          "internalType": "address",
          "name": "",
          "type": "address"
        }
      ],
      "name": "minters",
      "outputs": [
        {
          "internalType": "bool",
          "name": "",
          "type": "bool"
        }
      ],
      "stateMutability": "view",
      "type": "function"
    },
    {
      "inputs": [],
      "name": "owner",
      "outputs": [
        {
          "internalType": "address",
          "name": "",
          "type": "address"
        }
      ],
      "stateMutability": "view",
      "type": "function"
    },
    {
      "inputs": [],
      "name": "pause",
      "outputs": [],
      "stateMutability": "nonpayable",
      "type": "function"
    },
    {
      "inputs": [],
      "name": "paused",
      "outputs": [
        {
          "internalType": "bool",
          "name": "",
          "type": "bool"
        }
      ],
      "stateMutability": "view",
      "type": "function"
    },
    {
      "inputs": [
        {
          "internalType": "address",
          "name": "minter",
          "type": "address"
        }
      ],
      "name": "removeMinter",
      "outputs": [],
      "stateMutability": "nonpayable",
      "type": "function"
    },
    {
      "inputs": [],
      "name": "renounceOwnership",
      "outputs": [],
      "stateMutability": "nonpayable",
      "type": "function"
    },
    {
      "inputs": [
        {
          "internalType": "address",
          "name": "from",
          "type": "address"
        },
        {
          "internalType": "address",
          "name": "to",
          "type": "address"
        },
        {
          "internalType": "uint256[]",
          "name": "ids",
          "type": "uint256[]"
        },
        {
          "internalType": "uint256[]",
          "name": "values",
          "type": "uint256[]"
        },
        {
          "internalType": "bytes",
          "name": "data",
          "type": "bytes"
        }
      ],
      "name": "safeBatchTransferFrom",
      "outputs": [],
      "stateMutability": "nonpayable",
      "type": "function"
    },
    {
      "inputs": [
        {
          "internalType": "address",
          "name": "from",
          "type": "address"
        },
        {
          "internalType": "address",
          "name": "to",
          "type": "address"
        },
        {
          "internalType": "uint256",
          "name": "id",
          "type": "uint256"
        },
        {
          "internalType": "uint256",
          "name": "value",
          "type": "uint256"
        },
        {
          "internalType": "bytes",
          "name": "data",
          "type": "bytes"
        }
      ],
      "name": "safeTransferFrom",
      "outputs": [],
      "stateMutability": "nonpayable",
      "type": "function"
    },
    {
      "inputs": [
        {
          "internalType": "address",
          "name": "operator",
          "type": "address"
        },
        {
          "internalType": "bool",
          "name": "approved",
          "type": "bool"
        }
      ],
      "name": "setApprovalForAll",
      "outputs": [],
      "stateMutability": "nonpayable",
      "type": "function"
    },
    {
      "inputs": [
        {
          "internalType": "string",
          "name": "baseURI_",
          "type": "string"
        }
      ],
      "name": "setBaseURI",
      "outputs": [],
      "stateMutability": "nonpayable",
      "type": "function"
    },
    {
      "inputs": [
        {
          "internalType": "uint256",
          "name": "tokenId",
          "type": "uint256"
        },
        {
          "internalType": "uint8",
          "name": "rarity",
          "type": "uint8"
        }
      ],
      "name": "setItemRarity",
      "outputs": [],
      "stateMutability": "nonpayable",
      "type": "function"
    },
    {
      "inputs": [
        {
          "internalType": "uint256",
          "name": "tokenId",
          "type": "uint256"
        },
        {
          "internalType": "string",
          "name": "tokenURI",
          "type": "string"
        }
      ],
      "name": "setTokenURI",
      "outputs": [],
      "stateMutability": "nonpayable",
      "type": "function"
    },
    {
      "inputs": [
        {
          "internalType": "uint256",
          "name": "tokenId",
          "type": "uint256"
        },
        {
          "internalType": "bool",
          "name": "_tradeable",
          "type": "bool"
        }
      ],
      "name": "setTradeable",
      "outputs": [],
      "stateMutability": "nonpayable",
      "type": "function"
    },
    {
      "inputs": [
        {
          "internalType": "bytes4",
          "name": "interfaceId",
          "type": "bytes4"
        }
      ],
      "name": "supportsInterface",
      "outputs": [
        {
          "internalType": "bool",
          "name": "",
          "type": "bool"
        }
      ],
      "stateMutability": "view",
      "type": "function"
    },
    {
      "inputs": [],
      "name": "totalSupply",
      "outputs": [
        {
          "internalType": "uint256",
          "name": "",
          "type": "uint256"
        }
      ],
      "stateMutability": "view",
      "type": "function"
    },
    {
      "inputs": [
        {
          "internalType": "uint256",
          "name": "id",
          "type": "uint256"
        }
      ],
      "name": "totalSupply",
      "outputs": [
        {
          "internalType": "uint256",
          "name": "",
          "type": "uint256"
        }
      ],
      "stateMutability": "view",
      "type": "function"
    },
    {
      "inputs": [
        {
          "internalType": "uint256",
          "name": "",
          "type": "uint256"
        }
      ],
      "name": "tradeable",
      "outputs": [
        {
          "internalType": "bool",
          "name": "",
          "type": "bool"
        }
      ],
      "stateMutability": "view",
      "type": "function"
    },
    {
      "inputs": [
        {
          "internalType": "address",
          "name": "newOwner",
          "type": "address"
        }
      ],
      "name": "transferOwnership",
      "outputs": [],
      "stateMutability": "nonpayable",
      "type": "function"
    },
    {
      "inputs": [],
      "name": "unpause",
      "outputs": [],
      "stateMutability": "nonpayable",
      "type": "function"
    },
    {
      "inputs": [
        {
          "internalType": "uint256",
          "name": "tokenId",
          "type": "uint256"
        }
      ],
      "name": "uri",
      "outputs": [
        {
          "internalType": "string",
          "name": "",
          "type": "string"
        }
      ],
      "stateMutability": "view",
      "type": "function"
    }
  ],
  "bytecode": "0x60806040523480156200001157600080fd5b506040516200280b3803806200280b83398101604081905262000034916200010d565b3381620000418162000093565b506001600160a01b0381166200007157604051631e4fbdf760e01b81526000600482015260240160405180910390fd5b6200007c81620000a5565b5060066200008b828262000273565b50506200033f565b6002620000a1828262000273565b5050565b600580546001600160a01b038381166001600160a01b0319831681179093556040519116919082907f8be0079c531659141344cd1fd0a4f28419497f9722a3daafe3b4186f6b6457e090600090a35050565b634e487b7160e01b600052604160045260246000fd5b600060208083850312156200012157600080fd5b82516001600160401b03808211156200013957600080fd5b818501915085601f8301126200014e57600080fd5b815181811115620001635762000163620000f7565b604051601f8201601f19908116603f011681019083821181831017156200018e576200018e620000f7565b816040528281528886848701011115620001a757600080fd5b600093505b82841015620001cb5784840186015181850187015292850192620001ac565b600086848301015280965050505050505092915050565b600181811c90821680620001f757607f821691505b6020821081036200021857634e487b7160e01b600052602260045260246000fd5b50919050565b601f8211156200026e576000816000526020600020601f850160051c81016020861015620002495750805b601f850160051c820191505b818110156200026a5782815560010162000255565b5050505b505050565b81516001600160401b038111156200028f576200028f620000f7565b620002a781620002a08454620001e2565b846200021e565b602080601f831160018114620002df5760008415620002c65750858301515b600019600386901b1c1916600185901b1785556200026a565b600085815260208120601f198616915b828110156200031057888601518255948401946001909101908401620002ef565b50858210156200032f5787850151600019600388901b60f8161c191681555b5050505050600190811b01905550565b6124bc806200034f6000396000f3fe608060405234801561001057600080fd5b50600436106101ef5760003560e01c80636b20c4541161010f578063bab8e54f116100a2578063f242432a11610071578063f242432a14610480578063f2fde38b14610493578063f46eccc4146104a6578063f5298aca146104c957600080fd5b8063bab8e54f14610417578063bd85b0391461042a578063de7fe3e71461044a578063e985e9c51461046d57600080fd5b80638da5cb5b116100de5780638da5cb5b146103c3578063983b2d56146103de578063a22cb465146103f1578063a4a41c0f1461040457600080fd5b80636b20c4541461038d578063715018a6146103a0578063731133e9146103a85780638456cb59146103bb57600080fd5b80633092afd51161018757806355f804b31161015657806355f804b314610310578063583eab45146103235780635bacdab1146103585780635c975abb1461037b57600080fd5b80633092afd5146102b35780633f4ba83a146102c65780634e1273f4146102ce5780634f558e79146102ee57600080fd5b806318160ddd116101c357806318160ddd146102725780631f7fdffa1461027a5780632362009e1461028d5780632eb2c2d6146102a057600080fd5b8062fdd58e146101f457806301ffc9a71461021a5780630e89341c1461023d578063162094c41461025d575b600080fd5b610207610202366004611a45565b6104dc565b6040519081526020015b60405180910390f35b61022d610228366004611a85565b610504565b6040519015158152602001610211565b61025061024b366004611aa9565b610554565b6040516102119190611b12565b61027061026b366004611bda565b6106e2565b005b600454610207565b610270610288366004611cb2565b61073f565b61027061029b366004611d5a565b610806565b6102706102ae366004611d86565b61082e565b6102706102c1366004611e2f565b610895565b6102706108e6565b6102e16102dc366004611e4a565b6108f8565b6040516102119190611f3b565b61022d6102fc366004611aa9565b600090815260036020526040902054151590565b61027061031e366004611f4e565b6109c4565b610346610331366004611aa9565b60096020526000908152604090205460ff1681565b60405160ff9091168152602001610211565b61022d610366366004611aa9565b600a6020526000908152604090205460ff1681565b600554600160a01b900460ff1661022d565b61027061039b366004611f82565b610a13565b610270610a77565b6102706103b6366004611ff5565b610a89565b610270610b4c565b6005546040516001600160a01b039091168152602001610211565b6102706103ec366004611e2f565b610b5c565b6102706103ff366004612049565b610bff565b6102e1610412366004612073565b610c0e565b6102706104253660046120b6565b610cab565b610207610438366004611aa9565b60009081526003602052604090205490565b61045d610458366004611aa9565b610d1a565b60405161021194939291906120ec565b61022d61047b366004612120565b610d5a565b61027061048e36600461214a565b610d88565b6102706104a1366004611e2f565b610de7565b61022d6104b4366004611e2f565b60086020526000908152604090205460ff1681565b6102706104d73660046121ae565b610e25565b6000818152602081815260408083206001600160a01b03861684529091529020545b92915050565b60006001600160e01b03198216636cdb3d1360e11b148061053557506001600160e01b031982166303a24d0760e21b145b806104fe57506301ffc9a760e01b6001600160e01b03198316146104fe565b600081815260076020526040812080546060929190610572906121e1565b80601f016020809104026020016040519081016040528092919081815260200182805461059e906121e1565b80156105eb5780601f106105c0576101008083540402835291602001916105eb565b820191906000526020600020905b8154815290600101906020018083116105ce57829003601f168201915b505050505090506000815111156106025792915050565b600060068054610611906121e1565b80601f016020809104026020016040519081016040528092919081815260200182805461063d906121e1565b801561068a5780601f1061065f5761010080835404028352916020019161068a565b820191906000526020600020905b81548152906001019060200180831161066d57829003601f168201915b5050505050905060008151116106af57604051806020016040528060008152506106da565b806106b985610e5b565b6040516020016106ca92919061221b565b6040516020818303038152906040525b949350505050565b6106ea610eed565b600082815260076020526040902061070282826122a2565b50817fda84ca2183491f179a603e877b2cb058e42195041c2b9c53d746427e519a34df826040516107339190611b12565b60405180910390a25050565b3360009081526008602052604090205460ff168061076757506005546001600160a01b031633145b6107b15760405162461bcd60e51b8152602060048201526016602482015275139bdd08185d5d1a1bdc9a5e9959081d1bc81b5a5b9d60521b60448201526064015b60405180910390fd5b6107bd84848484610f1a565b836001600160a01b03167ff9a452dabcf567b4369000121c42fa86a13d126a6de6b54fc4e6845bdee8a27e84846040516107f8929190612361565b60405180910390a250505050565b61080e610eed565b6000918252600a6020526040909120805460ff1916911515919091179055565b336001600160a01b038616811480159061084f575061084d8682610d5a565b155b156108805760405163711bec9160e11b81526001600160a01b038083166004830152871660248201526044016107a8565b61088d8686868686610f58565b505050505050565b61089d610eed565b6001600160a01b038116600081815260086020526040808220805460ff19169055517fe94479a9f7e1952cc78f2d6baab678adc1b772d936c6583def489e524cb666929190a250565b6108ee610eed565b6108f6610fbf565b565b606081518351146109295781518351604051635b05999160e01b8152600481019290925260248201526044016107a8565b600083516001600160401b0381111561094457610944611b25565b60405190808252806020026020018201604052801561096d578160200160208202803683370190505b50905060005b84518110156109bc57602080820286010151610997906020808402870101516104dc565b8282815181106109a9576109a961238f565b6020908102919091010152600101610973565b509392505050565b6109cc610eed565b60066109d882826122a2565b507ff9c7803e94e0d3c02900d8a90893a6d5e90dd04d32a4cfe825520f82bf9f32f681604051610a089190611b12565b60405180910390a150565b6001600160a01b0383163314801590610a335750610a318333610d5a565b155b15610a6757335b60405163711bec9160e11b81526001600160a01b03918216600482015290841660248201526044016107a8565b610a72838383611014565b505050565b610a7f610eed565b6108f6600061105a565b3360009081526008602052604090205460ff1680610ab157506005546001600160a01b031633145b610af65760405162461bcd60e51b8152602060048201526016602482015275139bdd08185d5d1a1bdc9a5e9959081d1bc81b5a5b9d60521b60448201526064016107a8565b610b02848484846110ac565b82846001600160a01b03167fd9be9c40c7e99dfc974fa3fe3b790af02afd2939b5dedfccb1ba12933eb27a8e84604051610b3e91815260200190565b60405180910390a350505050565b610b54610eed565b6108f6611109565b610b64610eed565b6001600160a01b038116610bb35760405162461bcd60e51b8152602060048201526016602482015275496e76616c6964206d696e746572206164647265737360501b60448201526064016107a8565b6001600160a01b038116600081815260086020526040808220805460ff19166001179055517f6ae172837ea30b801fbfcdd4108aa1d5bf8ff775444fd70256b44e6bf3dfc3f69190a250565b610c0a33838361114c565b5050565b6060600082516001600160401b03811115610c2b57610c2b611b25565b604051908082528060200260200182016040528015610c54578160200160208202803683370190505b50905060005b83518110156109bc57610c8685858381518110610c7957610c7961238f565b60200260200101516104dc565b828281518110610c9857610c9861238f565b6020908102919091010152600101610c5a565b610cb3610eed565b60038160ff161115610cf85760405162461bcd60e51b815260206004820152600e60248201526d496e76616c69642072617269747960901b60448201526064016107a8565b600091825260096020526040909120805460ff191660ff909216919091179055565b600081815260096020908152604080832054600a835281842054600390935292205460ff92831692909116906060610d5185610554565b90509193509193565b6001600160a01b03918216600090815260016020908152604080832093909416825291909152205460ff1690565b336001600160a01b0386168114801590610da95750610da78682610d5a565b155b15610dda5760405163711bec9160e11b81526001600160a01b038083166004830152871660248201526044016107a8565b61088d86868686866111e2565b610def610eed565b6001600160a01b038116610e1957604051631e4fbdf760e01b8152600060048201526024016107a8565b610e228161105a565b50565b6001600160a01b0383163314801590610e455750610e438333610d5a565b155b15610e505733610a3a565b610a72838383611270565b60606000610e68836112d8565b60010190506000816001600160401b03811115610e8757610e87611b25565b6040519080825280601f01601f191660200182016040528015610eb1576020820181803683370190505b5090508181016020015b600019016f181899199a1a9b1b9c1cb0b131b232b360811b600a86061a8153600a8504945084610ebb57509392505050565b6005546001600160a01b031633146108f65760405163118cdaa760e01b81523360048201526024016107a8565b6001600160a01b038416610f4457604051632bfa23e760e11b8152600060048201526024016107a8565b610f526000858585856113b0565b50505050565b6001600160a01b038416610f8257604051632bfa23e760e11b8152600060048201526024016107a8565b6001600160a01b038516610fab57604051626a0d4560e21b8152600060048201526024016107a8565b610fb885858585856113b0565b5050505050565b610fc7611403565b6005805460ff60a01b191690557f5db9ee0a495bf2e6ff9c91a7834c1ba4fdd244a5e8aa4e537bd38aeae4b073aa335b6040516001600160a01b03909116815260200160405180910390a1565b6001600160a01b03831661103d57604051626a0d4560e21b8152600060048201526024016107a8565b610a728360008484604051806020016040528060008152506113b0565b600580546001600160a01b038381166001600160a01b0319831681179093556040519116919082907f8be0079c531659141344cd1fd0a4f28419497f9722a3daafe3b4186f6b6457e090600090a35050565b6001600160a01b0384166110d657604051632bfa23e760e11b8152600060048201526024016107a8565b6040805160018082526020820186905281830190815260608201859052608082019092529061088d6000878484876113b0565b61111161142d565b6005805460ff60a01b1916600160a01b1790557f62e78cea01bee320cd4e420270b5ea74000d11b0c9f74754ebdbfc544b05a258610ff73390565b6001600160a01b0382166111755760405162ced3e160e81b8152600060048201526024016107a8565b6001600160a01b03838116600081815260016020908152604080832094871680845294825291829020805460ff191686151590811790915591519182527f17307eab39ab6107e8899845ad3d59bd9653f200f220920489ca2b5937696c31910160405180910390a3505050565b6001600160a01b03841661120c57604051632bfa23e760e11b8152600060048201526024016107a8565b6001600160a01b03851661123557604051626a0d4560e21b8152600060048201526024016107a8565b6040805160018082526020820186905281830190815260608201859052608082019092529061126787878484876113b0565b50505050505050565b6001600160a01b03831661129957604051626a0d4560e21b8152600060048201526024016107a8565b604080516001808252602082018590528183019081526060820184905260a08201909252600060808201818152919291610fb8918791859085906113b0565b60008072184f03e93ff9f4daa797ed6e38ed64bf6a1f0160401b83106113175772184f03e93ff9f4daa797ed6e38ed64bf6a1f0160401b830492506040015b6d04ee2d6d415b85acef81000000008310611343576d04ee2d6d415b85acef8100000000830492506020015b662386f26fc10000831061136157662386f26fc10000830492506010015b6305f5e1008310611379576305f5e100830492506008015b612710831061138d57612710830492506004015b6064831061139f576064830492506002015b600a83106104fe5760010192915050565b6113bc85858585611458565b6001600160a01b03841615610fb857825133906001036113f557602084810151908401516113ee83898985858961151c565b505061088d565b61088d818787878787611640565b600554600160a01b900460ff166108f657604051638dfc202b60e01b815260040160405180910390fd5b600554600160a01b900460ff16156108f65760405163d93c066560e01b815260040160405180910390fd5b61146061142d565b6001600160a01b0384161580159061148057506001600160a01b03831615155b156115105760005b825181101561150e57600a60008483815181106114a7576114a761238f565b60209081029190910181015182528101919091526040016000205460ff166115065760405162461bcd60e51b81526020600482015260126024820152714974656d206e6f7420747261646561626c6560701b60448201526064016107a8565b600101611488565b505b610f5284848484611729565b6001600160a01b0384163b1561088d5760405163f23a6e6160e01b81526001600160a01b0385169063f23a6e619061156090899089908890889088906004016123a5565b6020604051808303816000875af192505050801561159b575060408051601f3d908101601f19168201909252611598918101906123ea565b60015b611604573d8080156115c9576040519150601f19603f3d011682016040523d82523d6000602084013e6115ce565b606091505b5080516000036115fc57604051632bfa23e760e11b81526001600160a01b03861660048201526024016107a8565b805160208201fd5b6001600160e01b0319811663f23a6e6160e01b1461126757604051632bfa23e760e11b81526001600160a01b03861660048201526024016107a8565b6001600160a01b0384163b1561088d5760405163bc197c8160e01b81526001600160a01b0385169063bc197c81906116849089908990889088908890600401612407565b6020604051808303816000875af19250505080156116bf575060408051601f3d908101601f191682019092526116bc918101906123ea565b60015b6116ed573d8080156115c9576040519150601f19603f3d011682016040523d82523d6000602084013e6115ce565b6001600160e01b0319811663bc197c8160e01b1461126757604051632bfa23e760e11b81526001600160a01b03861660048201526024016107a8565b61173584848484611815565b6001600160a01b0384166117b5576000805b835181101561179b5760208181028481018201519086018201516000908152600390925260408220805491928392611780908490612465565b9091555061179090508184612465565b925050600101611747565b5080600460008282546117ae9190612465565b9091555050505b6001600160a01b038316610f52576000805b83518110156118045760208181028481018201519086018201516000908152600390925260409091208054829003905591909101906001016117c7565b506004805491909103905550505050565b80518251146118445781518151604051635b05999160e01b8152600481019290925260248201526044016107a8565b3360005b835181101561194a576020818102858101820151908501909101516001600160a01b038816156118fb576000828152602081815260408083206001600160a01b038c168452909152902054818110156118d4576040516303dee4c560e01b81526001600160a01b038a1660048201526024810182905260448101839052606481018490526084016107a8565b6000838152602081815260408083206001600160a01b038d16845290915290209082900390555b6001600160a01b03871615611940576000828152602081815260408083206001600160a01b038b1684529091528120805483929061193a908490612465565b90915550505b5050600101611848565b5082516001036119cb5760208301516000906020840151909150856001600160a01b0316876001600160a01b0316846001600160a01b03167fc3d58168c5ae7397731d063d5bbf3d657854427343f4c083240f7aacaa2d0f6285856040516119bc929190918252602082015260400190565b60405180910390a45050610fb8565b836001600160a01b0316856001600160a01b0316826001600160a01b03167f4a39dc06d4c0dbc64b70af90fd698a233a518aa5d07e595d983b8c0526c8f7fb8686604051611a1a929190612361565b60405180910390a45050505050565b80356001600160a01b0381168114611a4057600080fd5b919050565b60008060408385031215611a5857600080fd5b611a6183611a29565b946020939093013593505050565b6001600160e01b031981168114610e2257600080fd5b600060208284031215611a9757600080fd5b8135611aa281611a6f565b9392505050565b600060208284031215611abb57600080fd5b5035919050565b60005b83811015611add578181015183820152602001611ac5565b50506000910152565b60008151808452611afe816020860160208601611ac2565b601f01601f19169290920160200192915050565b602081526000611aa26020830184611ae6565b634e487b7160e01b600052604160045260246000fd5b604051601f8201601f191681016001600160401b0381118282101715611b6357611b63611b25565b604052919050565b600082601f830112611b7c57600080fd5b81356001600160401b03811115611b9557611b95611b25565b611ba8601f8201601f1916602001611b3b565b818152846020838601011115611bbd57600080fd5b816020850160208301376000918101602001919091529392505050565b60008060408385031215611bed57600080fd5b8235915060208301356001600160401b03811115611c0a57600080fd5b611c1685828601611b6b565b9150509250929050565b60006001600160401b03821115611c3957611c39611b25565b5060051b60200190565b600082601f830112611c5457600080fd5b81356020611c69611c6483611c20565b611b3b565b8083825260208201915060208460051b870101935086841115611c8b57600080fd5b602086015b84811015611ca75780358352918301918301611c90565b509695505050505050565b60008060008060808587031215611cc857600080fd5b611cd185611a29565b935060208501356001600160401b0380821115611ced57600080fd5b611cf988838901611c43565b94506040870135915080821115611d0f57600080fd5b611d1b88838901611c43565b93506060870135915080821115611d3157600080fd5b50611d3e87828801611b6b565b91505092959194509250565b80358015158114611a4057600080fd5b60008060408385031215611d6d57600080fd5b82359150611d7d60208401611d4a565b90509250929050565b600080600080600060a08688031215611d9e57600080fd5b611da786611a29565b9450611db560208701611a29565b935060408601356001600160401b0380821115611dd157600080fd5b611ddd89838a01611c43565b94506060880135915080821115611df357600080fd5b611dff89838a01611c43565b93506080880135915080821115611e1557600080fd5b50611e2288828901611b6b565b9150509295509295909350565b600060208284031215611e4157600080fd5b611aa282611a29565b60008060408385031215611e5d57600080fd5b82356001600160401b0380821115611e7457600080fd5b818501915085601f830112611e8857600080fd5b81356020611e98611c6483611c20565b82815260059290921b84018101918181019089841115611eb757600080fd5b948201945b83861015611edc57611ecd86611a29565b82529482019490820190611ebc565b96505086013592505080821115611ef257600080fd5b50611c1685828601611c43565b60008151808452602080850194506020840160005b83811015611f3057815187529582019590820190600101611f14565b509495945050505050565b602081526000611aa26020830184611eff565b600060208284031215611f6057600080fd5b81356001600160401b03811115611f7657600080fd5b6106da84828501611b6b565b600080600060608486031215611f9757600080fd5b611fa084611a29565b925060208401356001600160401b0380821115611fbc57600080fd5b611fc887838801611c43565b93506040860135915080821115611fde57600080fd5b50611feb86828701611c43565b9150509250925092565b6000806000806080858703121561200b57600080fd5b61201485611a29565b9350602085013592506040850135915060608501356001600160401b0381111561203d57600080fd5b611d3e87828801611b6b565b6000806040838503121561205c57600080fd5b61206583611a29565b9150611d7d60208401611d4a565b6000806040838503121561208657600080fd5b61208f83611a29565b915060208301356001600160401b038111156120aa57600080fd5b611c1685828601611c43565b600080604083850312156120c957600080fd5b82359150602083013560ff811681146120e157600080fd5b809150509250929050565b60ff8516815283151560208201528260408201526080606082015260006121166080830184611ae6565b9695505050505050565b6000806040838503121561213357600080fd5b61213c83611a29565b9150611d7d60208401611a29565b600080600080600060a0868803121561216257600080fd5b61216b86611a29565b945061217960208701611a29565b9350604086013592506060860135915060808601356001600160401b038111156121a257600080fd5b611e2288828901611b6b565b6000806000606084860312156121c357600080fd5b6121cc84611a29565b95602085013595506040909401359392505050565b600181811c908216806121f557607f821691505b60208210810361221557634e487b7160e01b600052602260045260246000fd5b50919050565b6000835161222d818460208801611ac2565b835190830190612241818360208801611ac2565b64173539b7b760d91b9101908152600501949350505050565b601f821115610a72576000816000526020600020601f850160051c810160208610156122835750805b601f850160051c820191505b8181101561088d5782815560010161228f565b81516001600160401b038111156122bb576122bb611b25565b6122cf816122c984546121e1565b8461225a565b602080601f83116001811461230457600084156122ec5750858301515b600019600386901b1c1916600185901b17855561088d565b600085815260208120601f198616915b8281101561233357888601518255948401946001909101908401612314565b50858210156123515787850151600019600388901b60f8161c191681555b5050505050600190811b01905550565b6040815260006123746040830185611eff565b82810360208401526123868185611eff565b95945050505050565b634e487b7160e01b600052603260045260246000fd5b6001600160a01b03868116825285166020820152604081018490526060810183905260a0608082018190526000906123df90830184611ae6565b979650505050505050565b6000602082840312156123fc57600080fd5b8151611aa281611a6f565b6001600160a01b0386811682528516602082015260a06040820181905260009061243390830186611eff565b82810360608401526124458186611eff565b905082810360808401526124598185611ae6565b98975050505050505050565b808201808211156104fe57634e487b7160e01b600052601160045260246000fdfea2646970667358221220c03df5ba1b9c542c382e38285c529f5edefb62cff598acc7dcd16f3fad89a41264736f6c63430008180033",
  "linkReferences": {},
  "deployedLinkReferences": {}
}