{
  "_format": "hh-sol-artifact-1",
  "contractName": "GrepItems",
  "sourceName": "contracts/GrepItems.sol",
  "abi": [
    {
      "inputs": [
        {
          "internalType": "string",
          "name": "baseURI_",
          "type": "string"
        }
      ],
      "stateMutability": "nonpayable",
      "type": "constructor"
    },
    {
      "inputs": [
        {
          "internalType": "address",
          "name": "sender",
          "type": "address"
        },
        {
          "internalType": "uint256",
          "name": "balance",
          "type": "uint256"
        },
        {
          "internalType": "uint256",
          "name": "needed",
          "type": "uint256"
        },
        {
          "internalType": "uint256",
          "name": "tokenId",
          "type": "uint256"
        }
      ],
      "name": "ERC1155InsufficientBalance",
      "type": "error"
    },
    {
      "inputs": [
        {
          "internalType": "address",
          "name": "approver",
          "type": "address"
        }
      ],
      "name": "ERC1155InvalidApprover",
      "type": "error"
    },
    {
      "inputs": [
        {
          "internalType": "uint256",
          "name": "idsLength",
          "type": "uint256"
        },
        {
          "internalType": "uint256",
          "name": "valuesLength",
          "type": "uint256"
        }
      ],
      "name": "ERC1155InvalidArrayLength",
      "type": "error"
    },
    {
      "inputs": [
        {
          "internalType": "address",
          "name": "operator",
          "type": "address"
        }
      ],
      "name": "ERC1155InvalidOperator",
      "type": "error"
    },
    {
      "inputs": [
        {
          "internalType": "address",
          "name": "receiver",
          "type": "address"
        }
      ],
      "name": "ERC1155InvalidReceiver",
      "type": "error"
    },
    {
      "inputs": [
        {
          "internalType": "address",
          "name": "sender",
          "type": "address"
        }
      ],
      "name": "ERC1155InvalidSender",
      "type": "error"
    },
    {
      "inputs": [
        {
          "internalType": "address",
          "name": "operator",
          "type": "address"
        },
        {
          "internalType": "address",
          "name": "owner",
          "type": "address"
        }
      ],
      "name": "ERC1155MissingApprovalForAll",
      "type": "error"
    },
    {
      "inputs": [],
      "name": "EnforcedPause",
      "type": "error"
    },
    {
      "inputs": [],
      "name": "ExpectedPause",
      "type": "error"
    },
    {
      "inputs": [
        {
          "internalType": "address",
          "name": "owner",
          "type": "address"
        }
      ],
      "name": "OwnableInvalidOwner",
      "type": "error"
    },
    {
      "inputs": [
        {
          "internalType": "address",
          "name": "account",
          "type": "address"
        }
      ],
      "name": "OwnableUnauthorizedAccount",
      "type": "error"
    },
    {
      "anonymous": false,
      "inputs": [
        {
          "indexed": true,
          "internalType": "address",
          "name": "account",
          "type": "address"
        },
        {
          "indexed": true,
          "internalType": "address",
          "name": "operator",
          "type": "address"
        },
        {
          "indexed": false,
          "internalType": "bool",
          "name": "approved",
          "type": "bool"
        }
      ],
      "name": "ApprovalForAll",
      "type": "event"
    },
    {
      "anonymous": false,
      "inputs": [
        {
          "indexed": false,
          "internalType": "string",
          "name": "baseURI",
          "type": "string"
        }
      ],
      "name": "BaseURISet",
      "type": "event"
    },
    {
      "anonymous": false,
      "inputs": [
        {
          "indexed": true,
          "internalType": "address",
          "name": "to",
          "type": "address"
        },
        {
          "indexed": false,
          "internalType": "uint256[]",
          "name": "tokenIds",
          "type": "uint256[]"
        },
        {
          "indexed": false,
          "internalType": "uint256[]",
          "name": "amounts",
          "type": "uint256[]"
        }
      ],
      "name": "BatchItemMinted",
      "type": "event"
    },
    {
      "anonymous": false,
      "inputs": [
        {
          "indexed": true,
          "internalType": "address",
          "name": "to",
          "type": "address"
        },
        {
          "indexed": true,
          "internalType": "uint256",
          "name": "tokenId",
          "type": "uint256"
        },
        {
          "indexed": false,
          "internalType": "uint256",
          "name": "amount",
          "type": "uint256"
        }
      ],
      "name": "ItemMinted",
      "type": "event"
    },
    {
      "anonymous": false,
      "inputs": [
        {
          "indexed": true,
          "internalType": "address",
          "name": "minter",
          "type": "address"
        }
      ],
      "name": "MinterAdded",
      "type": "event"
    },
    {
      "anonymous": false,
      "inputs": [
        {
          "indexed": true,
          "internalType": "address",
          "name": "minter",
          "type": "address"
        }
      ],
      "name": "MinterRemoved",
      "type": "event"
    },
    {
      "anonymous": false,
      "inputs": [
        {
          "indexed": true,
          "internalType": "address",
          "name": "previousOwner",
          "type": "address"
        },
        {
          "indexed": true,
          "internalType": "address",
          "name": "newOwner",
          "type": "address"
        }
      ],
      "name": "OwnershipTransferred",
      "type": "event"
    },
    {
      "anonymous": false,
      "inputs": [
        {
          "indexed": false,
          "internalType": "address",
          "name": "account",
          "type": "address"
        }
      ],
      "name": "Paused",
      "type": "event"
    },
    {
      "anonymous": false,
      "inputs": [
        {
          "indexed": true,
          "internalType": "uint256",
          "name": "tokenId",
          "type": "uint256"
        },
        {
          "indexed": false,
          "internalType": "string",
          "name": "uri",
          "type": "string"
        }
      ],
      "name": "TokenURISet",
      "type": "event"
    },
    {
      "anonymous": false,
      "inputs": [
        {
          "indexed": true,
          "internalType": "address",
          "name": "operator",
          "type": "address"
        },
        {
          "indexed": true,
          "internalType": "address",
          "name": "from",
          "type": "address"
        },
        {
          "indexed": true,
          "internalType": "address",
          "name": "to",
          "type": "address"
        },
        {
          "indexed": false,
          "internalType": "uint256[]",
          "name": "ids",
          "type": "uint256[]"
        },
        {
          "indexed": false,
          "internalType": "uint256[]",
          "name": "values",
          "type": "uint256[]"
        }
      ],
      "name": "TransferBatch",
      "type": "event"
    },
    {
      "anonymous": false,
      "inputs": [
        {
          "indexed": true,
          "internalType": "address",
          "name": "operator",
          "type": "address"
        },
        {
          "indexed": true,
          "internalType": "address",
          "name": "from",
          "type": "address"
        },
        {
          "indexed": true,
          "internalType": "address",
          "name": "to",
          "type": "address"
        },
        {
          "indexed": false,
          "internalType": "uint256",
          "name": "id",
          "type": "uint256"
        },
        {
          "indexed": false,
          "internalType": "uint256",
          "name": "value",
          "type": "uint256"
        }
      ],
      "name": "TransferSingle",
      "type": "event"
    },
    {
      "anonymous": false,
      "inputs": [
        {
          "indexed": false,
          "internalType": "string",
          "name": "value",
          "type": "string"
        },
        {
          "indexed": true,
          "internalType": "uint256",
          "name": "id",
          "type": "uint256"
        }
      ],
      "name": "URI",
      "type": "event"
    },
    {
      "anonymous": false,
      "inputs": [
        {
          "indexed": false,
          "internalType": "address",
          "name": "account",
          "type": "address"
        }
      ],
      "name": "Unpaused",
      "type": "event"
    },
    {
      "inputs": [
        {
          "internalType": "address",
          "name": "minter",
          "type": "address"
        }
      ],
      "name": "addMinter",
      "outputs": [],
      "stateMutability": "nonpayable",
      "type": "function"
    },
    {
      "inputs": [
        {
          "internalType": "address",
          "name": "account",
          "type": "address"
        },
        {
          "internalType": "uint256",
          "name": "id",
          "type": "uint256"
        }
      ],
      "name": "balanceOf",
      "outputs": [
        {
          "internalType": "uint256",
          "name": "",
          "type": "uint256"
        }
      ],
      "stateMutability": "view",
      "type": "function"
    },
    {
      "inputs": [
        {
          "internalType": "address[]",
          "name": "accounts",
          "type": "address[]"
        },
        {
          "internalType": "uint256[]",
          "name": "ids",
          "type": "uint256[]"
        }
      ],
      "name": "balanceOfBatch",
      "outputs": [
        {
          "internalType": "uint256[]",
          "name": "",
          "type": "uint256[]"
        }
      ],
      "stateMutability": "view",
      "type": "function"
    },
    {
      "inputs": [
        {
          "internalType": "address",
          "name": "account",
          "type": "address"
        },
        {
          "internalType": "uint256",
          "name": "id",
          "type": "uint256"
        },
        {
          "internalType": "uint256",
          "name": "value",
          "type": "uint256"
        }
      ],
      "name": "burn",
      "outputs": [],
      "stateMutability": "nonpayable",
      "type": "function"
    },
    {
      "inputs": [
        {
          "internalType": "address",
          "name": "account",
          "type": "address"
        },
        {
          "internalType": "uint256[]",
          "name": "ids",
          "type": "uint256[]"
        },
        {
          "internalType": "uint256[]",
          "name": "values",
          "type": "uint256[]"
        }
      ],
      "name": "burnBatch",
      "outputs": [],
      "stateMutability": "nonpayable",
      "type": "function"
    },
    {
      "inputs": [
        {
          "internalType": "uint256",
          "name": "id",
          "type": "uint256"
        }
      ],
      "name": "exists",
      "outputs": [
        {
          "internalType": "bool",
          "name": "",
          "type": "bool"
        }
      ],
      "stateMutability": "view",
      "type": "function"
    },
    {
      "inputs": [
        {
          "internalType": "uint256",
          "name": "tokenId",
          "type": "uint256"
        }
      ],
      "name": "getItemInfo",
      "outputs": [
        {
          "internalType": "uint8",
          "name": "rarity",
          "type": "uint8"
        },
        {
          "internalType": "bool",
          "name": "isTradeable",
          "type": "bool"
        },
        {
          "internalType": "uint256",
          "name": "supply",
          "type": "uint256"
        },
        {
          "internalType": "string",
          "name": "tokenURI",
          "type": "string"
        }
      ],
      "stateMutability": "view",
      "type": "function"
    },
    {
      "inputs": [
        {
          "internalType": "address",
          "name": "user",
          "type": "address"
        },
        {
          "internalType": "uint256[]",
          "name": "tokenIds",
          "type": "uint256[]"
        }
      ],
      "name": "getUserItems",
      "outputs": [
        {
          "internalType": "uint256[]",
          "name": "",
          "type": "uint256[]"
        }
      ],
      "stateMutability": "view",
      "type": "function"
    },
    {
      "inputs": [
        {
          "internalType": "address",
          "name": "account",
          "type": "address"
        },
        {
          "internalType": "address",
          "name": "operator",
          "type": "address"
        }
      ],
      "name": "isApprovedForAll",
      "outputs": [
        {
          "internalType": "bool",
          "name": "",
          "type": "bool"
        }
      ],
      "stateMutability": "view",
      "type": "function"
    },
    {
      "inputs": [
        {
          "internalType": "uint256",
          "name": "",
          "type": "uint256"
        }
      ],
      "name": "itemRarity",
      "outputs": [
        {
          "internalType": "uint8",
          "name": "",
          "type": "uint8"
        }
      ],
      "stateMutability": "view",
      "type": "function"
    },
    {
      "inputs": [
        {
          "internalType": "address",
          "name": "to",
          "type": "address"
        },
        {
          "internalType": "uint256",
          "name": "tokenId",
          "type": "uint256"
        },
        {
          "internalType": "uint256",
          "name": "amount",
          "type": "uint256"
        },
        {
          "internalType": "bytes",
          "name": "data",
          "type": "bytes"
        }
      ],
      "name": "mint",
      "outputs": [],
      "stateMutability": "nonpayable",
      "type": "function"
    },
    {
      "inputs": [
        {
          "internalType": "address",
          "name": "to",
          "type": "address"
        },
        {
          "internalType": "uint256[]",
          "name": "tokenIds",
          "type": "uint256[]"
        },
        {
          "internalType": "uint256[]",
          "name": "amounts",
          "type": "uint256[]"
        },
        {
          "internalType": "bytes",
          "name": "data",
          "type": "bytes"
        }
      ],
      "name": "mintBatch",
      "outputs": [],
      "stateMutability": "nonpayable",
      "type": "function"
    },
    {
      "inputs": [
        {
          "internalType": "address",
          "name": "",
          "type": "address"
        }
      ],
      "name": "minters",
      "outputs": [
        {
          "internalType": "bool",
          "name": "",
          "type": "bool"
        }
      ],
      "stateMutability": "view",
      "type": "function"
    },
    {
      "inputs": [],
      "name": "owner",
      "outputs": [
        {
          "internalType": "address",
          "name": "",
          "type": "address"
        }
      ],
      "stateMutability": "view",
      "type": "function"
    },
    {
      "inputs": [],
      "name": "pause",
      "outputs": [],
      "stateMutability": "nonpayable",
      "type": "function"
    },
    {
      "inputs": [],
      "name": "paused",
      "outputs": [
        {
          "internalType": "bool",
          "name": "",
          "type": "bool"
        }
      ],
      "stateMutability": "view",
      "type": "function"
    },
    {
      "inputs": [
        {
          "internalType": "address",
          "name": "minter",
          "type": "address"
        }
      ],
      "name": "removeMinter",
      "outputs": [],
      "stateMutability": "nonpayable",
      "type": "function"
    },
    {
      "inputs": [],
      "name": "renounceOwnership",
      "outputs": [],
      "stateMutability": "nonpayable",
      "type": "function"
    },
    {
      "inputs": [
        {
          "internalType": "address",
          "name": "from",
          "type": "address"
        },
        {
          "internalType": "address",
          "name": "to",
          "type": "address"
        },
        {
          "internalType": "uint256[]",
          "name": "ids",
          "type": "uint256[]"
        },
        {
          "internalType": "uint256[]",
          "name": "values",
          "type": "uint256[]"
        },
        {
          "internalType": "bytes",
          "name": "data",
          "type": "bytes"
        }
      ],
      "name": "safeBatchTransferFrom",
      "outputs": [],
      "stateMutability": "nonpayable",
      "type": "function"
    },
    {
      "inputs": [
        {
          "internalType": "address",
          "name": "from",
          "type": "address"
        },
        {
          "internalType": "address",
          "name": "to",
          "type": "address"
        },
        {
          "internalType": "uint256",
          "name": "id",
          "type": "uint256"
        },
        {
          "internalType": "uint256",
          "name": "value",
          "type": "uint256"
        },
        {
          "internalType": "bytes",
          "name": "data",
          "type": "bytes"
        }
      ],
      "name": "safeTransferFrom",
      "outputs": [],
      "stateMutability": "nonpayable",
      "type": "function"
    },
    {
      "inputs": [
        {
          "internalType": "address",
          "name": "operator",
          "type": "address"
        },
        {
          "internalType": "bool",
          "name": "approved",
          "type": "bool"
        }
      ],
      "name": "setApprovalForAll",
      "outputs": [],
      "stateMutability": "nonpayable",
      "type": "function"
    },
    {
      "inputs": [
        {
          "internalType": "string",
          "name": "baseURI_",
          "type": "string"
        }
      ],
      "name": "setBaseURI",
      "outputs": [],
      "stateMutability": "nonpayable",
      "type": "function"
    },
    {
      "inputs": [
        {
          "internalType": "uint256",
          "name": "tokenId",
          "type": "uint256"
        },
        {
          "internalType": "uint8",
          "name": "rarity",
          "type": "uint8"
        }
      ],
      "name": "setItemRarity",
      "outputs": [],
      "stateMutability": "nonpayable",
      "type": "function"
    },
    {
      "inputs": [
        {
          "internalType": "uint256",
          "name": "tokenId",
          "type": "uint256"
        },
        {
          "internalType": "string",
          "name": "tokenURI",
          "type": "string"
        }
      ],
      "name": "setTokenURI",
      "outputs": [],
      "stateMutability": "nonpayable",
      "type": "function"
    },
    {
      "inputs": [
        {
          "internalType": "uint256",
          "name": "tokenId",
          "type": "uint256"
        },
        {
          "internalType": "bool",
          "name": "_tradeable",
          "type": "bool"
        }
      ],
      "name": "setTradeable",
      "outputs": [],
      "stateMutability": "nonpayable",
      "type": "function"
    },
    {
      "inputs": [
        {
          "internalType": "bytes4",
          "name": "interfaceId",
          "type": "bytes4"
        }
      ],
      "name": "supportsInterface",
      "outputs": [
        {
          "internalType": "bool",
          "name": "",
          "type": "bool"
        }
      ],
      "stateMutability": "view",
      "type": "function"
    },
    {
      "inputs": [],
      "name": "totalSupply",
      "outputs": [
        {
          "internalType": "uint256",
          "name": "",
          "type": "uint256"
        }
      ],
      "stateMutability": "view",
      "type": "function"
    },
    {
      "inputs": [
        {
          "internalType": "uint256",
          "name": "id",
          "type": "uint256"
        }
      ],
      "name": "totalSupply",
      "outputs": [
        {
          "internalType": "uint256",
          "name": "",
          "type": "uint256"
        }
      ],
      "stateMutability": "view",
      "type": "function"
    },
    {
      "inputs": [
        {
          "internalType": "uint256",
          "name": "",
          "type": "uint256"
        }
      ],
      "name": "tradeable",
      "outputs": [
        {
          "internalType": "bool",
          "name": "",
          "type": "bool"
        }
      ],
      "stateMutability": "view",
      "type": "function"
    },
    {
      "inputs": [
        {
          "internalType": "address",
          "name": "newOwner",
          "type": "address"
        }
      ],
      "name": "transferOwnership",
      "outputs": [],
      "stateMutability": "nonpayable",
      "type": "function"
    },
    {
      "inputs": [],
      "name": "unpause",
      "outputs": [],
      "stateMutability": "nonpayable",
      "type": "function"
    },
    {
      "inputs": [
        {
          "internalType": "uint256",
          "name": "tokenId",
          "type": "uint256"
        }
      ],
      "name": "uri",
      "outputs": [
        {
          "internalType": "string",
          "name": "",
          "type": "string"
        }
      ],
      "stateMutability": "view",
      "type": "function"
    }
  ],
  "bytecode": "0x60806040523480156200001157600080fd5b50604051620029953803806200299583398101604081905262000034916200010d565b3381620000418162000093565b506001600160a01b0381166200007157604051631e4fbdf760e01b81526000600482015260240160405180910390fd5b6200007c81620000a5565b5060066200008b828262000273565b50506200033f565b6002620000a1828262000273565b5050565b600580546001600160a01b038381166001600160a01b0319831681179093556040519116919082907f8be0079c531659141344cd1fd0a4f28419497f9722a3daafe3b4186f6b6457e090600090a35050565b634e487b7160e01b600052604160045260246000fd5b600060208083850312156200012157600080fd5b82516001600160401b03808211156200013957600080fd5b818501915085601f8301126200014e57600080fd5b815181811115620001635762000163620000f7565b604051601f8201601f19908116603f011681019083821181831017156200018e576200018e620000f7565b816040528281528886848701011115620001a757600080fd5b600093505b82841015620001cb5784840186015181850187015292850192620001ac565b600086848301015280965050505050505092915050565b600181811c90821680620001f757607f821691505b6020821081036200021857634e487b7160e01b600052602260045260246000fd5b50919050565b601f8211156200026e576000816000526020600020601f850160051c81016020861015620002495750805b601f850160051c820191505b818110156200026a5782815560010162000255565b5050505b505050565b81516001600160401b038111156200028f576200028f620000f7565b620002a781620002a08454620001e2565b846200021e565b602080601f831160018114620002df5760008415620002c65750858301515b600019600386901b1c1916600185901b1785556200026a565b600085815260208120601f198616915b828110156200031057888601518255948401946001909101908401620002ef565b50858210156200032f5787850151600019600388901b60f8161c191681555b5050505050600190811b01905550565b612646806200034f6000396000f3fe608060405234801561001057600080fd5b50600436106101ef5760003560e01c80636b20c4541161010f578063bab8e54f116100a2578063f242432a11610071578063f242432a14610480578063f2fde38b14610493578063f46eccc4146104a6578063f5298aca146104c957600080fd5b8063bab8e54f14610417578063bd85b0391461042a578063de7fe3e71461044a578063e985e9c51461046d57600080fd5b80638da5cb5b116100de5780638da5cb5b146103c3578063983b2d56146103de578063a22cb465146103f1578063a4a41c0f1461040457600080fd5b80636b20c4541461038d578063715018a6146103a0578063731133e9146103a85780638456cb59146103bb57600080fd5b80633092afd51161018757806355f804b31161015657806355f804b314610310578063583eab45146103235780635bacdab1146103585780635c975abb1461037b57600080fd5b80633092afd5146102b35780633f4ba83a146102c65780634e1273f4146102ce5780634f558e79146102ee57600080fd5b806318160ddd116101c357806318160ddd146102725780631f7fdffa1461027a5780632362009e1461028d5780632eb2c2d6146102a057600080fd5b8062fdd58e146101f457806301ffc9a71461021a5780630e89341c1461023d578063162094c41461025d575b600080fd5b610207610202366004611bcf565b6104dc565b6040519081526020015b60405180910390f35b61022d610228366004611c0f565b610504565b6040519015158152602001610211565b61025061024b366004611c33565b610554565b6040516102119190611c9c565b61027061026b366004611d64565b6106e2565b005b600454610207565b610270610288366004611e3c565b61073f565b61027061029b366004611ee4565b6108ea565b6102706102ae366004611f10565b610912565b6102706102c1366004611fb9565b610979565b6102706109ca565b6102e16102dc366004611fd4565b6109dc565b60405161021191906120c5565b61022d6102fc366004611c33565b600090815260036020526040902054151590565b61027061031e3660046120d8565b610aa8565b610346610331366004611c33565b60096020526000908152604090205460ff1681565b60405160ff9091168152602001610211565b61022d610366366004611c33565b600a6020526000908152604090205460ff1681565b600554600160a01b900460ff1661022d565b61027061039b36600461210c565b610af7565b610270610b5b565b6102706103b636600461217f565b610b6d565b610270610cd6565b6005546040516001600160a01b039091168152602001610211565b6102706103ec366004611fb9565b610ce6565b6102706103ff3660046121d3565b610d89565b6102e16104123660046121fd565b610d98565b610270610425366004612240565b610e35565b610207610438366004611c33565b60009081526003602052604090205490565b61045d610458366004611c33565b610ea4565b6040516102119493929190612276565b61022d61047b3660046122aa565b610ee4565b61027061048e3660046122d4565b610f12565b6102706104a1366004611fb9565b610f71565b61022d6104b4366004611fb9565b60086020526000908152604090205460ff1681565b6102706104d7366004612338565b610faf565b6000818152602081815260408083206001600160a01b03861684529091529020545b92915050565b60006001600160e01b03198216636cdb3d1360e11b148061053557506001600160e01b031982166303a24d0760e21b145b806104fe57506301ffc9a760e01b6001600160e01b03198316146104fe565b6000818152600760205260408120805460609291906105729061236b565b80601f016020809104026020016040519081016040528092919081815260200182805461059e9061236b565b80156105eb5780601f106105c0576101008083540402835291602001916105eb565b820191906000526020600020905b8154815290600101906020018083116105ce57829003601f168201915b505050505090506000815111156106025792915050565b6000600680546106119061236b565b80601f016020809104026020016040519081016040528092919081815260200182805461063d9061236b565b801561068a5780601f1061065f5761010080835404028352916020019161068a565b820191906000526020600020905b81548152906001019060200180831161066d57829003601f168201915b5050505050905060008151116106af57604051806020016040528060008152506106da565b806106b985610fe5565b6040516020016106ca9291906123a5565b6040516020818303038152906040525b949350505050565b6106ea611077565b6000828152600760205260409020610702828261242c565b50817fda84ca2183491f179a603e877b2cb058e42195041c2b9c53d746427e519a34df826040516107339190611c9c565b60405180910390a25050565b3360009081526008602052604090205460ff168061076757506005546001600160a01b031633145b6107b15760405162461bcd60e51b8152602060048201526016602482015275139bdd08185d5d1a1bdc9a5e9959081d1bc81b5a5b9d60521b60448201526064015b60405180910390fd5b6001600160a01b0384166108075760405162461bcd60e51b815260206004820152601b60248201527f43616e6e6f74206d696e7420746f207a65726f2061646472657373000000000060448201526064016107a8565b600083511161084c5760405162461bcd60e51b8152602060048201526011602482015270456d70747920746f6b656e20617272617960781b60448201526064016107a8565b81518351146108955760405162461bcd60e51b8152602060048201526015602482015274082e4e4c2f240d8cadccee8d040dad2e6dac2e8c6d605b1b60448201526064016107a8565b6108a1848484846110a4565b836001600160a01b03167ff9a452dabcf567b4369000121c42fa86a13d126a6de6b54fc4e6845bdee8a27e84846040516108dc9291906124eb565b60405180910390a250505050565b6108f2611077565b6000918252600a6020526040909120805460ff1916911515919091179055565b336001600160a01b038616811480159061093357506109318682610ee4565b155b156109645760405163711bec9160e11b81526001600160a01b038083166004830152871660248201526044016107a8565b61097186868686866110e2565b505050505050565b610981611077565b6001600160a01b038116600081815260086020526040808220805460ff19169055517fe94479a9f7e1952cc78f2d6baab678adc1b772d936c6583def489e524cb666929190a250565b6109d2611077565b6109da611149565b565b60608151835114610a0d5781518351604051635b05999160e01b8152600481019290925260248201526044016107a8565b600083516001600160401b03811115610a2857610a28611caf565b604051908082528060200260200182016040528015610a51578160200160208202803683370190505b50905060005b8451811015610aa057602080820286010151610a7b906020808402870101516104dc565b828281518110610a8d57610a8d612519565b6020908102919091010152600101610a57565b509392505050565b610ab0611077565b6006610abc828261242c565b507ff9c7803e94e0d3c02900d8a90893a6d5e90dd04d32a4cfe825520f82bf9f32f681604051610aec9190611c9c565b60405180910390a150565b6001600160a01b0383163314801590610b175750610b158333610ee4565b155b15610b4b57335b60405163711bec9160e11b81526001600160a01b03918216600482015290841660248201526044016107a8565b610b5683838361119e565b505050565b610b63611077565b6109da60006111e4565b3360009081526008602052604090205460ff1680610b9557506005546001600160a01b031633145b610bda5760405162461bcd60e51b8152602060048201526016602482015275139bdd08185d5d1a1bdc9a5e9959081d1bc81b5a5b9d60521b60448201526064016107a8565b6001600160a01b038416610c305760405162461bcd60e51b815260206004820152601b60248201527f43616e6e6f74206d696e7420746f207a65726f2061646472657373000000000060448201526064016107a8565b60008211610c805760405162461bcd60e51b815260206004820181905260248201527f416d6f756e74206d7573742062652067726561746572207468616e207a65726f60448201526064016107a8565b610c8c84848484611236565b82846001600160a01b03167fd9be9c40c7e99dfc974fa3fe3b790af02afd2939b5dedfccb1ba12933eb27a8e84604051610cc891815260200190565b60405180910390a350505050565b610cde611077565b6109da611293565b610cee611077565b6001600160a01b038116610d3d5760405162461bcd60e51b8152602060048201526016602482015275496e76616c6964206d696e746572206164647265737360501b60448201526064016107a8565b6001600160a01b038116600081815260086020526040808220805460ff19166001179055517f6ae172837ea30b801fbfcdd4108aa1d5bf8ff775444fd70256b44e6bf3dfc3f69190a250565b610d943383836112d6565b5050565b6060600082516001600160401b03811115610db557610db5611caf565b604051908082528060200260200182016040528015610dde578160200160208202803683370190505b50905060005b8351811015610aa057610e1085858381518110610e0357610e03612519565b60200260200101516104dc565b828281518110610e2257610e22612519565b6020908102919091010152600101610de4565b610e3d611077565b60038160ff161115610e825760405162461bcd60e51b815260206004820152600e60248201526d496e76616c69642072617269747960901b60448201526064016107a8565b600091825260096020526040909120805460ff191660ff909216919091179055565b600081815260096020908152604080832054600a835281842054600390935292205460ff92831692909116906060610edb85610554565b90509193509193565b6001600160a01b03918216600090815260016020908152604080832093909416825291909152205460ff1690565b336001600160a01b0386168114801590610f335750610f318682610ee4565b155b15610f645760405163711bec9160e11b81526001600160a01b038083166004830152871660248201526044016107a8565b610971868686868661136c565b610f79611077565b6001600160a01b038116610fa357604051631e4fbdf760e01b8152600060048201526024016107a8565b610fac816111e4565b50565b6001600160a01b0383163314801590610fcf5750610fcd8333610ee4565b155b15610fda5733610b1e565b610b568383836113fa565b60606000610ff283611462565b60010190506000816001600160401b0381111561101157611011611caf565b6040519080825280601f01601f19166020018201604052801561103b576020820181803683370190505b5090508181016020015b600019016f181899199a1a9b1b9c1cb0b131b232b360811b600a86061a8153600a850494508461104557509392505050565b6005546001600160a01b031633146109da5760405163118cdaa760e01b81523360048201526024016107a8565b6001600160a01b0384166110ce57604051632bfa23e760e11b8152600060048201526024016107a8565b6110dc60008585858561153a565b50505050565b6001600160a01b03841661110c57604051632bfa23e760e11b8152600060048201526024016107a8565b6001600160a01b03851661113557604051626a0d4560e21b8152600060048201526024016107a8565b611142858585858561153a565b5050505050565b61115161158d565b6005805460ff60a01b191690557f5db9ee0a495bf2e6ff9c91a7834c1ba4fdd244a5e8aa4e537bd38aeae4b073aa335b6040516001600160a01b03909116815260200160405180910390a1565b6001600160a01b0383166111c757604051626a0d4560e21b8152600060048201526024016107a8565b610b5683600084846040518060200160405280600081525061153a565b600580546001600160a01b038381166001600160a01b0319831681179093556040519116919082907f8be0079c531659141344cd1fd0a4f28419497f9722a3daafe3b4186f6b6457e090600090a35050565b6001600160a01b03841661126057604051632bfa23e760e11b8152600060048201526024016107a8565b6040805160018082526020820186905281830190815260608201859052608082019092529061097160008784848761153a565b61129b6115b7565b6005805460ff60a01b1916600160a01b1790557f62e78cea01bee320cd4e420270b5ea74000d11b0c9f74754ebdbfc544b05a2586111813390565b6001600160a01b0382166112ff5760405162ced3e160e81b8152600060048201526024016107a8565b6001600160a01b03838116600081815260016020908152604080832094871680845294825291829020805460ff191686151590811790915591519182527f17307eab39ab6107e8899845ad3d59bd9653f200f220920489ca2b5937696c31910160405180910390a3505050565b6001600160a01b03841661139657604051632bfa23e760e11b8152600060048201526024016107a8565b6001600160a01b0385166113bf57604051626a0d4560e21b8152600060048201526024016107a8565b604080516001808252602082018690528183019081526060820185905260808201909252906113f1878784848761153a565b50505050505050565b6001600160a01b03831661142357604051626a0d4560e21b8152600060048201526024016107a8565b604080516001808252602082018590528183019081526060820184905260a082019092526000608082018181529192916111429187918590859061153a565b60008072184f03e93ff9f4daa797ed6e38ed64bf6a1f0160401b83106114a15772184f03e93ff9f4daa797ed6e38ed64bf6a1f0160401b830492506040015b6d04ee2d6d415b85acef810000000083106114cd576d04ee2d6d415b85acef8100000000830492506020015b662386f26fc1000083106114eb57662386f26fc10000830492506010015b6305f5e1008310611503576305f5e100830492506008015b612710831061151757612710830492506004015b60648310611529576064830492506002015b600a83106104fe5760010192915050565b611546858585856115e2565b6001600160a01b03841615611142578251339060010361157f57602084810151908401516115788389898585896116a6565b5050610971565b6109718187878787876117ca565b600554600160a01b900460ff166109da57604051638dfc202b60e01b815260040160405180910390fd5b600554600160a01b900460ff16156109da5760405163d93c066560e01b815260040160405180910390fd5b6115ea6115b7565b6001600160a01b0384161580159061160a57506001600160a01b03831615155b1561169a5760005b825181101561169857600a600084838151811061163157611631612519565b60209081029190910181015182528101919091526040016000205460ff166116905760405162461bcd60e51b81526020600482015260126024820152714974656d206e6f7420747261646561626c6560701b60448201526064016107a8565b600101611612565b505b6110dc848484846118b3565b6001600160a01b0384163b156109715760405163f23a6e6160e01b81526001600160a01b0385169063f23a6e61906116ea908990899088908890889060040161252f565b6020604051808303816000875af1925050508015611725575060408051601f3d908101601f1916820190925261172291810190612574565b60015b61178e573d808015611753576040519150601f19603f3d011682016040523d82523d6000602084013e611758565b606091505b50805160000361178657604051632bfa23e760e11b81526001600160a01b03861660048201526024016107a8565b805160208201fd5b6001600160e01b0319811663f23a6e6160e01b146113f157604051632bfa23e760e11b81526001600160a01b03861660048201526024016107a8565b6001600160a01b0384163b156109715760405163bc197c8160e01b81526001600160a01b0385169063bc197c819061180e9089908990889088908890600401612591565b6020604051808303816000875af1925050508015611849575060408051601f3d908101601f1916820190925261184691810190612574565b60015b611877573d808015611753576040519150601f19603f3d011682016040523d82523d6000602084013e611758565b6001600160e01b0319811663bc197c8160e01b146113f157604051632bfa23e760e11b81526001600160a01b03861660048201526024016107a8565b6118bf8484848461199f565b6001600160a01b03841661193f576000805b8351811015611925576020818102848101820151908601820151600090815260039092526040822080549192839261190a9084906125ef565b9091555061191a905081846125ef565b9250506001016118d1565b50806004600082825461193891906125ef565b9091555050505b6001600160a01b0383166110dc576000805b835181101561198e576020818102848101820151908601820151600090815260039092526040909120805482900390559190910190600101611951565b506004805491909103905550505050565b80518251146119ce5781518151604051635b05999160e01b8152600481019290925260248201526044016107a8565b3360005b8351811015611ad4576020818102858101820151908501909101516001600160a01b03881615611a85576000828152602081815260408083206001600160a01b038c16845290915290205481811015611a5e576040516303dee4c560e01b81526001600160a01b038a1660048201526024810182905260448101839052606481018490526084016107a8565b6000838152602081815260408083206001600160a01b038d16845290915290209082900390555b6001600160a01b03871615611aca576000828152602081815260408083206001600160a01b038b16845290915281208054839290611ac49084906125ef565b90915550505b50506001016119d2565b508251600103611b555760208301516000906020840151909150856001600160a01b0316876001600160a01b0316846001600160a01b03167fc3d58168c5ae7397731d063d5bbf3d657854427343f4c083240f7aacaa2d0f628585604051611b46929190918252602082015260400190565b60405180910390a45050611142565b836001600160a01b0316856001600160a01b0316826001600160a01b03167f4a39dc06d4c0dbc64b70af90fd698a233a518aa5d07e595d983b8c0526c8f7fb8686604051611ba49291906124eb565b60405180910390a45050505050565b80356001600160a01b0381168114611bca57600080fd5b919050565b60008060408385031215611be257600080fd5b611beb83611bb3565b946020939093013593505050565b6001600160e01b031981168114610fac57600080fd5b600060208284031215611c2157600080fd5b8135611c2c81611bf9565b9392505050565b600060208284031215611c4557600080fd5b5035919050565b60005b83811015611c67578181015183820152602001611c4f565b50506000910152565b60008151808452611c88816020860160208601611c4c565b601f01601f19169290920160200192915050565b602081526000611c2c6020830184611c70565b634e487b7160e01b600052604160045260246000fd5b604051601f8201601f191681016001600160401b0381118282101715611ced57611ced611caf565b604052919050565b600082601f830112611d0657600080fd5b81356001600160401b03811115611d1f57611d1f611caf565b611d32601f8201601f1916602001611cc5565b818152846020838601011115611d4757600080fd5b816020850160208301376000918101602001919091529392505050565b60008060408385031215611d7757600080fd5b8235915060208301356001600160401b03811115611d9457600080fd5b611da085828601611cf5565b9150509250929050565b60006001600160401b03821115611dc357611dc3611caf565b5060051b60200190565b600082601f830112611dde57600080fd5b81356020611df3611dee83611daa565b611cc5565b8083825260208201915060208460051b870101935086841115611e1557600080fd5b602086015b84811015611e315780358352918301918301611e1a565b509695505050505050565b60008060008060808587031215611e5257600080fd5b611e5b85611bb3565b935060208501356001600160401b0380821115611e7757600080fd5b611e8388838901611dcd565b94506040870135915080821115611e9957600080fd5b611ea588838901611dcd565b93506060870135915080821115611ebb57600080fd5b50611ec887828801611cf5565b91505092959194509250565b80358015158114611bca57600080fd5b60008060408385031215611ef757600080fd5b82359150611f0760208401611ed4565b90509250929050565b600080600080600060a08688031215611f2857600080fd5b611f3186611bb3565b9450611f3f60208701611bb3565b935060408601356001600160401b0380821115611f5b57600080fd5b611f6789838a01611dcd565b94506060880135915080821115611f7d57600080fd5b611f8989838a01611dcd565b93506080880135915080821115611f9f57600080fd5b50611fac88828901611cf5565b9150509295509295909350565b600060208284031215611fcb57600080fd5b611c2c82611bb3565b60008060408385031215611fe757600080fd5b82356001600160401b0380821115611ffe57600080fd5b818501915085601f83011261201257600080fd5b81356020612022611dee83611daa565b82815260059290921b8401810191818101908984111561204157600080fd5b948201945b838610156120665761205786611bb3565b82529482019490820190612046565b9650508601359250508082111561207c57600080fd5b50611da085828601611dcd565b60008151808452602080850194506020840160005b838110156120ba5781518752958201959082019060010161209e565b509495945050505050565b602081526000611c2c6020830184612089565b6000602082840312156120ea57600080fd5b81356001600160401b0381111561210057600080fd5b6106da84828501611cf5565b60008060006060848603121561212157600080fd5b61212a84611bb3565b925060208401356001600160401b038082111561214657600080fd5b61215287838801611dcd565b9350604086013591508082111561216857600080fd5b5061217586828701611dcd565b9150509250925092565b6000806000806080858703121561219557600080fd5b61219e85611bb3565b9350602085013592506040850135915060608501356001600160401b038111156121c757600080fd5b611ec887828801611cf5565b600080604083850312156121e657600080fd5b6121ef83611bb3565b9150611f0760208401611ed4565b6000806040838503121561221057600080fd5b61221983611bb3565b915060208301356001600160401b0381111561223457600080fd5b611da085828601611dcd565b6000806040838503121561225357600080fd5b82359150602083013560ff8116811461226b57600080fd5b809150509250929050565b60ff8516815283151560208201528260408201526080606082015260006122a06080830184611c70565b9695505050505050565b600080604083850312156122bd57600080fd5b6122c683611bb3565b9150611f0760208401611bb3565b600080600080600060a086880312156122ec57600080fd5b6122f586611bb3565b945061230360208701611bb3565b9350604086013592506060860135915060808601356001600160401b0381111561232c57600080fd5b611fac88828901611cf5565b60008060006060848603121561234d57600080fd5b61235684611bb3565b95602085013595506040909401359392505050565b600181811c9082168061237f57607f821691505b60208210810361239f57634e487b7160e01b600052602260045260246000fd5b50919050565b600083516123b7818460208801611c4c565b8351908301906123cb818360208801611c4c565b64173539b7b760d91b9101908152600501949350505050565b601f821115610b56576000816000526020600020601f850160051c8101602086101561240d5750805b601f850160051c820191505b8181101561097157828155600101612419565b81516001600160401b0381111561244557612445611caf565b61245981612453845461236b565b846123e4565b602080601f83116001811461248e57600084156124765750858301515b600019600386901b1c1916600185901b178555610971565b600085815260208120601f198616915b828110156124bd5788860151825594840194600190910190840161249e565b50858210156124db5787850151600019600388901b60f8161c191681555b5050505050600190811b01905550565b6040815260006124fe6040830185612089565b82810360208401526125108185612089565b95945050505050565b634e487b7160e01b600052603260045260246000fd5b6001600160a01b03868116825285166020820152604081018490526060810183905260a06080820181905260009061256990830184611c70565b979650505050505050565b60006020828403121561258657600080fd5b8151611c2c81611bf9565b6001600160a01b0386811682528516602082015260a0604082018190526000906125bd90830186612089565b82810360608401526125cf8186612089565b905082810360808401526125e38185611c70565b98975050505050505050565b808201808211156104fe57634e487b7160e01b600052601160045260246000fdfea2646970667358221220a3187a621e6bd340b0226199e3c26b3cf39edffb407b718d14523caaa8bc7d8a64736f6c63430008180033",
  "linkReferences": {},
  "deployedLinkReferences": {}
}