{
  "_format": "hh-sol-artifact-1",
  "contractName": "GrepToken",
  "sourceName": "contracts/GrepToken.sol",
  "abi": [
    {
      "inputs": [],
      "stateMutability": "nonpayable",
      "type": "constructor"
    },
    {
      "inputs": [],
      "name": "CheckpointUnorderedInsertion",
      "type": "error"
    },
    {
      "inputs": [],
      "name": "ECDSAInvalidSignature",
      "type": "error"
    },
    {
      "inputs": [
        {
          "internalType": "uint256",
          "name": "length",
          "type": "uint256"
        }
      ],
      "name": "ECDSAInvalidSignatureLength",
      "type": "error"
    },
    {
      "inputs": [
        {
          "internalType": "bytes32",
          "name": "s",
          "type": "bytes32"
        }
      ],
      "name": "ECDSAInvalidSignatureS",
      "type": "error"
    },
    {
      "inputs": [
        {
          "internalType": "uint256",
          "name": "increasedSupply",
          "type": "uint256"
        },
        {
          "internalType": "uint256",
          "name": "cap",
          "type": "uint256"
        }
      ],
      "name": "ERC20ExceededSafeSupply",
      "type": "error"
    },
    {
      "inputs": [
        {
          "internalType": "address",
          "name": "spender",
          "type": "address"
        },
        {
          "internalType": "uint256",
          "name": "allowance",
          "type": "uint256"
        },
        {
          "internalType": "uint256",
          "name": "needed",
          "type": "uint256"
        }
      ],
      "name": "ERC20InsufficientAllowance",
      "type": "error"
    },
    {
      "inputs": [
        {
          "internalType": "address",
          "name": "sender",
          "type": "address"
        },
        {
          "internalType": "uint256",
          "name": "balance",
          "type": "uint256"
        },
        {
          "internalType": "uint256",
          "name": "needed",
          "type": "uint256"
        }
      ],
      "name": "ERC20InsufficientBalance",
      "type": "error"
    },
    {
      "inputs": [
        {
          "internalType": "address",
          "name": "approver",
          "type": "address"
        }
      ],
      "name": "ERC20InvalidApprover",
      "type": "error"
    },
    {
      "inputs": [
        {
          "internalType": "address",
          "name": "receiver",
          "type": "address"
        }
      ],
      "name": "ERC20InvalidReceiver",
      "type": "error"
    },
    {
      "inputs": [
        {
          "internalType": "address",
          "name": "sender",
          "type": "address"
        }
      ],
      "name": "ERC20InvalidSender",
      "type": "error"
    },
    {
      "inputs": [
        {
          "internalType": "address",
          "name": "spender",
          "type": "address"
        }
      ],
      "name": "ERC20InvalidSpender",
      "type": "error"
    },
    {
      "inputs": [
        {
          "internalType": "uint256",
          "name": "deadline",
          "type": "uint256"
        }
      ],
      "name": "ERC2612ExpiredSignature",
      "type": "error"
    },
    {
      "inputs": [
        {
          "internalType": "address",
          "name": "signer",
          "type": "address"
        },
        {
          "internalType": "address",
          "name": "owner",
          "type": "address"
        }
      ],
      "name": "ERC2612InvalidSigner",
      "type": "error"
    },
    {
      "inputs": [
        {
          "internalType": "uint256",
          "name": "timepoint",
          "type": "uint256"
        },
        {
          "internalType": "uint48",
          "name": "clock",
          "type": "uint48"
        }
      ],
      "name": "ERC5805FutureLookup",
      "type": "error"
    },
    {
      "inputs": [],
      "name": "ERC6372InconsistentClock",
      "type": "error"
    },
    {
      "inputs": [],
      "name": "EnforcedPause",
      "type": "error"
    },
    {
      "inputs": [],
      "name": "ExpectedPause",
      "type": "error"
    },
    {
      "inputs": [
        {
          "internalType": "address",
          "name": "account",
          "type": "address"
        },
        {
          "internalType": "uint256",
          "name": "currentNonce",
          "type": "uint256"
        }
      ],
      "name": "InvalidAccountNonce",
      "type": "error"
    },
    {
      "inputs": [],
      "name": "InvalidShortString",
      "type": "error"
    },
    {
      "inputs": [
        {
          "internalType": "address",
          "name": "owner",
          "type": "address"
        }
      ],
      "name": "OwnableInvalidOwner",
      "type": "error"
    },
    {
      "inputs": [
        {
          "internalType": "address",
          "name": "account",
          "type": "address"
        }
      ],
      "name": "OwnableUnauthorizedAccount",
      "type": "error"
    },
    {
      "inputs": [
        {
          "internalType": "uint8",
          "name": "bits",
          "type": "uint8"
        },
        {
          "internalType": "uint256",
          "name": "value",
          "type": "uint256"
        }
      ],
      "name": "SafeCastOverflowedUintDowncast",
      "type": "error"
    },
    {
      "inputs": [
        {
          "internalType": "string",
          "name": "str",
          "type": "string"
        }
      ],
      "name": "StringTooLong",
      "type": "error"
    },
    {
      "inputs": [
        {
          "internalType": "uint256",
          "name": "expiry",
          "type": "uint256"
        }
      ],
      "name": "VotesExpiredSignature",
      "type": "error"
    },
    {
      "anonymous": false,
      "inputs": [
        {
          "indexed": true,
          "internalType": "address",
          "name": "owner",
          "type": "address"
        },
        {
          "indexed": true,
          "internalType": "address",
          "name": "spender",
          "type": "address"
        },
        {
          "indexed": false,
          "internalType": "uint256",
          "name": "value",
          "type": "uint256"
        }
      ],
      "name": "Approval",
      "type": "event"
    },
    {
      "anonymous": false,
      "inputs": [
        {
          "indexed": true,
          "internalType": "address",
          "name": "burner",
          "type": "address"
        }
      ],
      "name": "BurnerAdded",
      "type": "event"
    },
    {
      "anonymous": false,
      "inputs": [
        {
          "indexed": true,
          "internalType": "address",
          "name": "burner",
          "type": "address"
        }
      ],
      "name": "BurnerRemoved",
      "type": "event"
    },
    {
      "anonymous": false,
      "inputs": [
        {
          "indexed": true,
          "internalType": "address",
          "name": "delegator",
          "type": "address"
        },
        {
          "indexed": true,
          "internalType": "address",
          "name": "fromDelegate",
          "type": "address"
        },
        {
          "indexed": true,
          "internalType": "address",
          "name": "toDelegate",
          "type": "address"
        }
      ],
      "name": "DelegateChanged",
      "type": "event"
    },
    {
      "anonymous": false,
      "inputs": [
        {
          "indexed": true,
          "internalType": "address",
          "name": "delegate",
          "type": "address"
        },
        {
          "indexed": false,
          "internalType": "uint256",
          "name": "previousVotes",
          "type": "uint256"
        },
        {
          "indexed": false,
          "internalType": "uint256",
          "name": "newVotes",
          "type": "uint256"
        }
      ],
      "name": "DelegateVotesChanged",
      "type": "event"
    },
    {
      "anonymous": false,
      "inputs": [],
      "name": "EIP712DomainChanged",
      "type": "event"
    },
    {
      "anonymous": false,
      "inputs": [
        {
          "indexed": true,
          "internalType": "address",
          "name": "previousOwner",
          "type": "address"
        },
        {
          "indexed": true,
          "internalType": "address",
          "name": "newOwner",
          "type": "address"
        }
      ],
      "name": "OwnershipTransferred",
      "type": "event"
    },
    {
      "anonymous": false,
      "inputs": [
        {
          "indexed": false,
          "internalType": "address",
          "name": "account",
          "type": "address"
        }
      ],
      "name": "Paused",
      "type": "event"
    },
    {
      "anonymous": false,
      "inputs": [
        {
          "indexed": true,
          "internalType": "address",
          "name": "from",
          "type": "address"
        },
        {
          "indexed": false,
          "internalType": "uint256",
          "name": "amount",
          "type": "uint256"
        },
        {
          "indexed": false,
          "internalType": "string",
          "name": "reason",
          "type": "string"
        }
      ],
      "name": "TokensBurnedFor",
      "type": "event"
    },
    {
      "anonymous": false,
      "inputs": [
        {
          "indexed": true,
          "internalType": "address",
          "name": "from",
          "type": "address"
        },
        {
          "indexed": true,
          "internalType": "address",
          "name": "to",
          "type": "address"
        },
        {
          "indexed": false,
          "internalType": "uint256",
          "name": "value",
          "type": "uint256"
        }
      ],
      "name": "Transfer",
      "type": "event"
    },
    {
      "anonymous": false,
      "inputs": [
        {
          "indexed": false,
          "internalType": "address",
          "name": "account",
          "type": "address"
        }
      ],
      "name": "Unpaused",
      "type": "event"
    },
    {
      "inputs": [],
      "name": "CLOCK_MODE",
      "outputs": [
        {
          "internalType": "string",
          "name": "",
          "type": "string"
        }
      ],
      "stateMutability": "view",
      "type": "function"
    },
    {
      "inputs": [],
      "name": "DOMAIN_SEPARATOR",
      "outputs": [
        {
          "internalType": "bytes32",
          "name": "",
          "type": "bytes32"
        }
      ],
      "stateMutability": "view",
      "type": "function"
    },
    {
      "inputs": [],
      "name": "TOTAL_SUPPLY",
      "outputs": [
        {
          "internalType": "uint256",
          "name": "",
          "type": "uint256"
        }
      ],
      "stateMutability": "view",
      "type": "function"
    },
    {
      "inputs": [
        {
          "internalType": "address",
          "name": "burner",
          "type": "address"
        }
      ],
      "name": "addBurner",
      "outputs": [],
      "stateMutability": "nonpayable",
      "type": "function"
    },
    {
      "inputs": [
        {
          "internalType": "address",
          "name": "owner",
          "type": "address"
        },
        {
          "internalType": "address",
          "name": "spender",
          "type": "address"
        }
      ],
      "name": "allowance",
      "outputs": [
        {
          "internalType": "uint256",
          "name": "",
          "type": "uint256"
        }
      ],
      "stateMutability": "view",
      "type": "function"
    },
    {
      "inputs": [
        {
          "internalType": "address",
          "name": "spender",
          "type": "address"
        },
        {
          "internalType": "uint256",
          "name": "value",
          "type": "uint256"
        }
      ],
      "name": "approve",
      "outputs": [
        {
          "internalType": "bool",
          "name": "",
          "type": "bool"
        }
      ],
      "stateMutability": "nonpayable",
      "type": "function"
    },
    {
      "inputs": [
        {
          "internalType": "address",
          "name": "account",
          "type": "address"
        }
      ],
      "name": "balanceOf",
      "outputs": [
        {
          "internalType": "uint256",
          "name": "",
          "type": "uint256"
        }
      ],
      "stateMutability": "view",
      "type": "function"
    },
    {
      "inputs": [
        {
          "internalType": "uint256",
          "name": "amount",
          "type": "uint256"
        }
      ],
      "name": "burn",
      "outputs": [],
      "stateMutability": "nonpayable",
      "type": "function"
    },
    {
      "inputs": [
        {
          "internalType": "address",
          "name": "account",
          "type": "address"
        },
        {
          "internalType": "uint256",
          "name": "amount",
          "type": "uint256"
        }
      ],
      "name": "burnFrom",
      "outputs": [],
      "stateMutability": "nonpayable",
      "type": "function"
    },
    {
      "inputs": [
        {
          "internalType": "address",
          "name": "account",
          "type": "address"
        },
        {
          "internalType": "uint256",
          "name": "amount",
          "type": "uint256"
        },
        {
          "internalType": "string",
          "name": "reason",
          "type": "string"
        }
      ],
      "name": "burnFromWithReason",
      "outputs": [],
      "stateMutability": "nonpayable",
      "type": "function"
    },
    {
      "inputs": [],
      "name": "burnPercentage",
      "outputs": [
        {
          "internalType": "uint256",
          "name": "",
          "type": "uint256"
        }
      ],
      "stateMutability": "view",
      "type": "function"
    },
    {
      "inputs": [
        {
          "internalType": "uint256",
          "name": "amount",
          "type": "uint256"
        },
        {
          "internalType": "string",
          "name": "reason",
          "type": "string"
        }
      ],
      "name": "burnWithReason",
      "outputs": [],
      "stateMutability": "nonpayable",
      "type": "function"
    },
    {
      "inputs": [
        {
          "internalType": "address",
          "name": "",
          "type": "address"
        }
      ],
      "name": "burners",
      "outputs": [
        {
          "internalType": "bool",
          "name": "",
          "type": "bool"
        }
      ],
      "stateMutability": "view",
      "type": "function"
    },
    {
      "inputs": [
        {
          "internalType": "address",
          "name": "account",
          "type": "address"
        },
        {
          "internalType": "uint32",
          "name": "pos",
          "type": "uint32"
        }
      ],
      "name": "checkpoints",
      "outputs": [
        {
          "components": [
            {
              "internalType": "uint48",
              "name": "_key",
              "type": "uint48"
            },
            {
              "internalType": "uint208",
              "name": "_value",
              "type": "uint208"
            }
          ],
          "internalType": "struct Checkpoints.Checkpoint208",
          "name": "",
          "type": "tuple"
        }
      ],
      "stateMutability": "view",
      "type": "function"
    },
    {
      "inputs": [],
      "name": "circulatingSupply",
      "outputs": [
        {
          "internalType": "uint256",
          "name": "",
          "type": "uint256"
        }
      ],
      "stateMutability": "view",
      "type": "function"
    },
    {
      "inputs": [],
      "name": "clock",
      "outputs": [
        {
          "internalType": "uint48",
          "name": "",
          "type": "uint48"
        }
      ],
      "stateMutability": "view",
      "type": "function"
    },
    {
      "inputs": [],
      "name": "decimals",
      "outputs": [
        {
          "internalType": "uint8",
          "name": "",
          "type": "uint8"
        }
      ],
      "stateMutability": "view",
      "type": "function"
    },
    {
      "inputs": [
        {
          "internalType": "address",
          "name": "delegatee",
          "type": "address"
        }
      ],
      "name": "delegate",
      "outputs": [],
      "stateMutability": "nonpayable",
      "type": "function"
    },
    {
      "inputs": [
        {
          "internalType": "address",
          "name": "delegatee",
          "type": "address"
        },
        {
          "internalType": "uint256",
          "name": "nonce",
          "type": "uint256"
        },
        {
          "internalType": "uint256",
          "name": "expiry",
          "type": "uint256"
        },
        {
          "internalType": "uint8",
          "name": "v",
          "type": "uint8"
        },
        {
          "internalType": "bytes32",
          "name": "r",
          "type": "bytes32"
        },
        {
          "internalType": "bytes32",
          "name": "s",
          "type": "bytes32"
        }
      ],
      "name": "delegateBySig",
      "outputs": [],
      "stateMutability": "nonpayable",
      "type": "function"
    },
    {
      "inputs": [
        {
          "internalType": "address",
          "name": "account",
          "type": "address"
        }
      ],
      "name": "delegates",
      "outputs": [
        {
          "internalType": "address",
          "name": "",
          "type": "address"
        }
      ],
      "stateMutability": "view",
      "type": "function"
    },
    {
      "inputs": [],
      "name": "eip712Domain",
      "outputs": [
        {
          "internalType": "bytes1",
          "name": "fields",
          "type": "bytes1"
        },
        {
          "internalType": "string",
          "name": "name",
          "type": "string"
        },
        {
          "internalType": "string",
          "name": "version",
          "type": "string"
        },
        {
          "internalType": "uint256",
          "name": "chainId",
          "type": "uint256"
        },
        {
          "internalType": "address",
          "name": "verifyingContract",
          "type": "address"
        },
        {
          "internalType": "bytes32",
          "name": "salt",
          "type": "bytes32"
        },
        {
          "internalType": "uint256[]",
          "name": "extensions",
          "type": "uint256[]"
        }
      ],
      "stateMutability": "view",
      "type": "function"
    },
    {
      "inputs": [
        {
          "internalType": "uint256",
          "name": "timepoint",
          "type": "uint256"
        }
      ],
      "name": "getPastTotalSupply",
      "outputs": [
        {
          "internalType": "uint256",
          "name": "",
          "type": "uint256"
        }
      ],
      "stateMutability": "view",
      "type": "function"
    },
    {
      "inputs": [
        {
          "internalType": "address",
          "name": "account",
          "type": "address"
        },
        {
          "internalType": "uint256",
          "name": "timepoint",
          "type": "uint256"
        }
      ],
      "name": "getPastVotes",
      "outputs": [
        {
          "internalType": "uint256",
          "name": "",
          "type": "uint256"
        }
      ],
      "stateMutability": "view",
      "type": "function"
    },
    {
      "inputs": [
        {
          "internalType": "address",
          "name": "account",
          "type": "address"
        }
      ],
      "name": "getVotes",
      "outputs": [
        {
          "internalType": "uint256",
          "name": "",
          "type": "uint256"
        }
      ],
      "stateMutability": "view",
      "type": "function"
    },
    {
      "inputs": [],
      "name": "name",
      "outputs": [
        {
          "internalType": "string",
          "name": "",
          "type": "string"
        }
      ],
      "stateMutability": "view",
      "type": "function"
    },
    {
      "inputs": [
        {
          "internalType": "address",
          "name": "owner",
          "type": "address"
        }
      ],
      "name": "nonces",
      "outputs": [
        {
          "internalType": "uint256",
          "name": "",
          "type": "uint256"
        }
      ],
      "stateMutability": "view",
      "type": "function"
    },
    {
      "inputs": [
        {
          "internalType": "address",
          "name": "account",
          "type": "address"
        }
      ],
      "name": "numCheckpoints",
      "outputs": [
        {
          "internalType": "uint32",
          "name": "",
          "type": "uint32"
        }
      ],
      "stateMutability": "view",
      "type": "function"
    },
    {
      "inputs": [],
      "name": "owner",
      "outputs": [
        {
          "internalType": "address",
          "name": "",
          "type": "address"
        }
      ],
      "stateMutability": "view",
      "type": "function"
    },
    {
      "inputs": [],
      "name": "pause",
      "outputs": [],
      "stateMutability": "nonpayable",
      "type": "function"
    },
    {
      "inputs": [],
      "name": "paused",
      "outputs": [
        {
          "internalType": "bool",
          "name": "",
          "type": "bool"
        }
      ],
      "stateMutability": "view",
      "type": "function"
    },
    {
      "inputs": [
        {
          "internalType": "address",
          "name": "owner",
          "type": "address"
        },
        {
          "internalType": "address",
          "name": "spender",
          "type": "address"
        },
        {
          "internalType": "uint256",
          "name": "value",
          "type": "uint256"
        },
        {
          "internalType": "uint256",
          "name": "deadline",
          "type": "uint256"
        },
        {
          "internalType": "uint8",
          "name": "v",
          "type": "uint8"
        },
        {
          "internalType": "bytes32",
          "name": "r",
          "type": "bytes32"
        },
        {
          "internalType": "bytes32",
          "name": "s",
          "type": "bytes32"
        }
      ],
      "name": "permit",
      "outputs": [],
      "stateMutability": "nonpayable",
      "type": "function"
    },
    {
      "inputs": [
        {
          "internalType": "address",
          "name": "burner",
          "type": "address"
        }
      ],
      "name": "removeBurner",
      "outputs": [],
      "stateMutability": "nonpayable",
      "type": "function"
    },
    {
      "inputs": [],
      "name": "renounceOwnership",
      "outputs": [],
      "stateMutability": "nonpayable",
      "type": "function"
    },
    {
      "inputs": [],
      "name": "symbol",
      "outputs": [
        {
          "internalType": "string",
          "name": "",
          "type": "string"
        }
      ],
      "stateMutability": "view",
      "type": "function"
    },
    {
      "inputs": [],
      "name": "totalBurned",
      "outputs": [
        {
          "internalType": "uint256",
          "name": "",
          "type": "uint256"
        }
      ],
      "stateMutability": "view",
      "type": "function"
    },
    {
      "inputs": [],
      "name": "totalSupply",
      "outputs": [
        {
          "internalType": "uint256",
          "name": "",
          "type": "uint256"
        }
      ],
      "stateMutability": "view",
      "type": "function"
    },
    {
      "inputs": [
        {
          "internalType": "address",
          "name": "to",
          "type": "address"
        },
        {
          "internalType": "uint256",
          "name": "value",
          "type": "uint256"
        }
      ],
      "name": "transfer",
      "outputs": [
        {
          "internalType": "bool",
          "name": "",
          "type": "bool"
        }
      ],
      "stateMutability": "nonpayable",
      "type": "function"
    },
    {
      "inputs": [
        {
          "internalType": "address",
          "name": "from",
          "type": "address"
        },
        {
          "internalType": "address",
          "name": "to",
          "type": "address"
        },
        {
          "internalType": "uint256",
          "name": "value",
          "type": "uint256"
        }
      ],
      "name": "transferFrom",
      "outputs": [
        {
          "internalType": "bool",
          "name": "",
          "type": "bool"
        }
      ],
      "stateMutability": "nonpayable",
      "type": "function"
    },
    {
      "inputs": [
        {
          "internalType": "address",
          "name": "newOwner",
          "type": "address"
        }
      ],
      "name": "transferOwnership",
      "outputs": [],
      "stateMutability": "nonpayable",
      "type": "function"
    },
    {
      "inputs": [],
      "name": "unpause",
      "outputs": [],
      "stateMutability": "nonpayable",
      "type": "function"
    }
  ],
  "bytecode": "0x6101606040523480156200001257600080fd5b50336040518060400160405280600881526020016723b932b821b7b4b760c11b81525080604051806040016040528060018152602001603160f81b8152506040518060400160405280600881526020016723b932b821b7b4b760c11b815250604051806040016040528060048152602001630475245560e41b81525081600390816200009f919062000a1c565b506004620000ae828262000a1c565b50620000c091508390506005620001c3565b61012052620000d1816006620001c3565b61014052815160208084019190912060e052815190820120610100524660a0526200015f60e05161010051604080517f8b73c3c69bb8fe3d512ecc4cf759cc79239f7b179b0ffacaa9a75d522b39400f60208201529081019290925260608201524660808201523060a082015260009060c00160405160208183030381529060405280519060200120905090565b60805250503060c052506001600160a01b0381166200019957604051631e4fbdf760e01b8152600060048201526024015b60405180910390fd5b620001a481620001fc565b50620001bd336b019d971e4fe8401e740000006200024e565b62000bed565b6000602083511015620001e357620001db836200028c565b9050620001f6565b81620001f0848262000a1c565b5060ff90505b92915050565b600b80546001600160a01b038381166001600160a01b0319831681179093556040519116919082907f8be0079c531659141344cd1fd0a4f28419497f9722a3daafe3b4186f6b6457e090600090a35050565b6001600160a01b0382166200027a5760405163ec442f0560e01b81526000600482015260240162000190565b6200028860008383620002cf565b5050565b600080829050601f81511115620002ba578260405163305a27a960e01b815260040162000190919062000ae8565b8051620002c78262000b39565b179392505050565b620002d9620002eb565b620002e683838362000320565b505050565b620002ff600b54600160a01b900460ff1690565b156200031e5760405163d93c066560e01b815260040160405180910390fd5b565b6200032d8383836200038f565b6001600160a01b038316620003825760006200034860025490565b90506001600160d01b03808211156200037f57604051630e58ae9360e11b8152600481018390526024810182905260440162000190565b50505b620002e6838383620004c2565b6001600160a01b038316620003be578060026000828254620003b2919062000b74565b90915550620004329050565b6001600160a01b03831660009081526020819052604090205481811015620004135760405163391434e360e21b81526001600160a01b0385166004820152602481018290526044810183905260640162000190565b6001600160a01b03841660009081526020819052604090209082900390555b6001600160a01b03821662000450576002805482900390556200046f565b6001600160a01b03821660009081526020819052604090208054820190555b816001600160a01b0316836001600160a01b03167fddf252ad1be2c89b69c2b068fc378daa952ba7f163c4a11628f55a4df523b3ef83604051620004b591815260200190565b60405180910390a3505050565b6001600160a01b038316620004f757620004f4600a62000d8f6200055a60201b17620004ee846200056f565b620005a9565b50505b6001600160a01b038216620005265762000523600a62000d9b620005e660201b17620004ee846200056f565b50505b6001600160a01b03838116600090815260086020526040808220548584168352912054620002e692918216911683620005f4565b600062000568828462000b8a565b9392505050565b60006001600160d01b03821115620005a5576040516306dfcc6560e41b815260d060048201526024810183905260440162000190565b5090565b600080620005d9620005ba6200075b565b620005d0620005c9886200076c565b868860201c565b879190620007bb565b915091505b935093915050565b600062000568828462000bb4565b816001600160a01b0316836001600160a01b031614158015620006175750600081115b15620002e6576001600160a01b03831615620006ba576001600160a01b038316600090815260096020908152604082208291620006659190620005e6901b62000d9b17620004ee866200056f565b6001600160d01b031691506001600160d01b03169150846001600160a01b0316600080516020620032158339815191528383604051620006af929190918252602082015260400190565b60405180910390a250505b6001600160a01b03821615620002e6576001600160a01b0382166000908152600960209081526040822082916200070291906200055a901b62000d8f17620004ee866200056f565b6001600160d01b031691506001600160d01b03169150836001600160a01b03166000805160206200321583398151915283836040516200074c929190918252602082015260400190565b60405180910390a25050505050565b600062000767620007cb565b905090565b80546000908015620007b25762000798836200078a60018462000bd7565b600091825260209091200190565b54660100000000000090046001600160d01b031662000568565b60009392505050565b600080620005d9858585620007d8565b6000620007674362000941565b825460009081908015620008e2576000620007fa876200078a60018562000bd7565b805490915065ffffffffffff80821691660100000000000090046001600160d01b03169088168211156200084157604051632520601d60e01b815260040160405180910390fd5b8765ffffffffffff168265ffffffffffff16036200087f57825465ffffffffffff1666010000000000006001600160d01b03891602178355620008d3565b6040805180820190915265ffffffffffff808a1682526001600160d01b03808a1660208085019182528d54600181018f5560008f815291909120945191519092166601000000000000029216919091179101555b9450859350620005de92505050565b50506040805180820190915265ffffffffffff80851682526001600160d01b0380851660208085019182528854600181018a5560008a8152918220955192519093166601000000000000029190931617920191909155905081620005de565b600065ffffffffffff821115620005a5576040516306dfcc6560e41b8152603060048201526024810183905260440162000190565b634e487b7160e01b600052604160045260246000fd5b600181811c90821680620009a157607f821691505b602082108103620009c257634e487b7160e01b600052602260045260246000fd5b50919050565b601f821115620002e6576000816000526020600020601f850160051c81016020861015620009f35750805b601f850160051c820191505b8181101562000a1457828155600101620009ff565b505050505050565b81516001600160401b0381111562000a385762000a3862000976565b62000a508162000a4984546200098c565b84620009c8565b602080601f83116001811462000a88576000841562000a6f5750858301515b600019600386901b1c1916600185901b17855562000a14565b600085815260208120601f198616915b8281101562000ab95788860151825594840194600190910190840162000a98565b508582101562000ad85787850151600019600388901b60f8161c191681555b5050505050600190811b01905550565b60006020808352835180602085015260005b8181101562000b185785810183015185820160400152820162000afa565b506000604082860101526040601f19601f8301168501019250505092915050565b80516020808301519190811015620009c25760001960209190910360031b1b16919050565b634e487b7160e01b600052601160045260246000fd5b80820180821115620001f657620001f662000b5e565b6001600160d01b0381811683821601908082111562000bad5762000bad62000b5e565b5092915050565b6001600160d01b0382811682821603908082111562000bad5762000bad62000b5e565b81810381811115620001f657620001f662000b5e565b60805160a05160c05160e0516101005161012051610140516125cd62000c486000396000611324015260006112f701526000610fd401526000610fac01526000610f0701526000610f3101526000610f5b01526125cd6000f3fe608060405234801561001057600080fd5b50600436106102485760003560e01c80637ecebe001161013b578063a9059cbb116100b8578063dd62ed3e1161007c578063dd62ed3e14610520578063f01f20df14610559578063f1127ed814610561578063f2fde38b146105a0578063f44637ba146105b357600080fd5b8063a9059cbb146104cb578063c3cda520146104de578063d505accf146104f1578063d6b8de9314610504578063d89135cd1461051757600080fd5b8063902d55a5116100ff578063902d55a51461047657806391ddadf4146104895780639358928b146104a857806395d89b41146104b05780639ab24eb0146104b857600080fd5b80637ecebe001461041c5780638456cb591461042f57806384b0196e146104375780638da5cb5b146104525780638e539e8c1461046357600080fd5b80633f4ba83a116101c95780635c975abb1161018d5780635c975abb1461039e5780636fcfff45146103b057806370a08231146103d8578063715018a61461040157806379cc67901461040957600080fd5b80633f4ba83a1461032457806342966c681461032c5780634bf5d7e91461033f578063587cde1e146103475780635c19a95c1461038b57600080fd5b806318160ddd1161021057806318160ddd146102d557806323b872dd146102e7578063313ce567146102fa5780633644e515146103095780633a46b1a81461031157600080fd5b8063028468581461024d57806303d41e0e1461026257806306fdde031461029a578063091273a7146102af578063095ea7b3146102c2575b600080fd5b61026061025b366004612068565b6105c6565b005b610285610270366004612068565b600d6020526000908152604090205460ff1681565b60405190151581526020015b60405180910390f35b6102a2610617565b60405161029191906120c9565b6102606102bd366004612125565b6106a9565b6102856102d0366004612171565b61070d565b6002545b604051908152602001610291565b6102856102f536600461219b565b610727565b60405160128152602001610291565b6102d961074b565b6102d961031f366004612171565b61075a565b610260610796565b61026061033a3660046121d7565b6107a8565b6102a26107cb565b610373610355366004612068565b6001600160a01b039081166000908152600860205260409020541690565b6040516001600160a01b039091168152602001610291565b610260610399366004612068565b610843565b600b54600160a01b900460ff16610285565b6103c36103be366004612068565b610852565b60405163ffffffff9091168152602001610291565b6102d96103e6366004612068565b6001600160a01b031660009081526020819052604090205490565b61026061085d565b610260610417366004612171565b61086f565b6102d961042a366004612068565b610894565b61026061089f565b61043f6108af565b60405161029197969594939291906121f0565b600b546001600160a01b0316610373565b6102d96104713660046121d7565b6108f5565b6102d96b019d971e4fe8401e7400000081565b61049161091a565b60405165ffffffffffff9091168152602001610291565b6102d9610924565b6102a2610940565b6102d96104c6366004612068565b61094f565b6102856104d9366004612171565b610970565b6102606104ec36600461229a565b61097e565b6102606104ff3660046122f2565b610a40565b61026061051236600461235c565b610b7a565b6102d9600c5481565b6102d961052e3660046123b6565b6001600160a01b03918216600090815260016020908152604080832093909416825291909152205490565b6102d9610c60565b61057461056f3660046123e9565b610c89565b60408051825165ffffffffffff1681526020928301516001600160d01b03169281019290925201610291565b6102606105ae366004612068565b610cae565b6102606105c1366004612068565b610cec565b6105ce610da7565b6001600160a01b0381166000818152600d6020526040808220805460ff19169055517f90eabbc0c667db2a5029ed6bc0f5fe9f356d11684a4ca9fcfaec0e53f12b9c8e9190a250565b60606003805461062690612429565b80601f016020809104026020016040519081016040528092919081815260200182805461065290612429565b801561069f5780601f106106745761010080835404028352916020019161069f565b820191906000526020600020905b81548152906001019060200180831161068257829003601f168201915b5050505050905090565b6106b33384610dd4565b82600c60008282546106c59190612479565b909155505060405133907fdad39f8d1141af92826fd54753af04a262d63abb2d79804e2e13f86ce52bd5e3906107009086908690869061248c565b60405180910390a2505050565b60003361071b818585610e0a565b60019150505b92915050565b600033610735858285610e1c565b610740858585610e9b565b506001949350505050565b6000610755610efa565b905090565b600061078661076883611025565b6001600160a01b038516600090815260096020526040902090611074565b6001600160d01b03169392505050565b61079e610da7565b6107a661112a565b565b6107b18161117f565b80600c60008282546107c39190612479565b909155505050565b60606107d5611189565b65ffffffffffff166107e561091a565b65ffffffffffff161461080b576040516301bfc1c560e61b815260040160405180910390fd5b5060408051808201909152601d81527f6d6f64653d626c6f636b6e756d6265722666726f6d3d64656661756c74000000602082015290565b3361084e8183611194565b5050565b600061072182611206565b610865610da7565b6107a66000611228565b610879828261127a565b80600c600082825461088b9190612479565b90915550505050565b60006107218261128f565b6108a7610da7565b6107a66112ad565b6000606080600080600060606108c36112f0565b6108cb61131d565b60408051600080825260208201909252600f60f81b9b939a50919850469750309650945092509050565b600061090b61090383611025565b600a90611074565b6001600160d01b031692915050565b6000610755611189565b6000600c546b019d971e4fe8401e7400000061075591906124c2565b60606004805461062690612429565b6001600160a01b038116600090815260096020526040812061090b9061134a565b60003361071b818585610e9b565b834211156109a757604051632341d78760e11b8152600481018590526024015b60405180910390fd5b604080517fe48329057bfd03d55e49b547132e39cffd9c1820ad7b9d4c5307691425d15adf60208201526001600160a01b038816918101919091526060810186905260808101859052600090610a2190610a199060a00160405160208183030381529060405280519060200120611383565b8585856113b0565b9050610a2d81876113de565b610a378188611194565b50505050505050565b83421115610a645760405163313c898160e11b81526004810185905260240161099e565b60007f6e71edae12b1b97f4d1f60370fef10105fa2faae0126114a169c64845d6126c9888888610ab18c6001600160a01b0316600090815260076020526040902080546001810190915590565b6040805160208101969096526001600160a01b0394851690860152929091166060840152608083015260a082015260c0810186905260e0016040516020818303038152906040528051906020012090506000610b0c82611383565b90506000610b1c828787876113b0565b9050896001600160a01b0316816001600160a01b031614610b63576040516325c0072360e11b81526001600160a01b0380831660048301528b16602482015260440161099e565b610b6e8a8a8a610e0a565b50505050505050505050565b336000908152600d602052604090205460ff1680610ba25750600b546001600160a01b031633145b610be75760405162461bcd60e51b81526020600482015260166024820152752737ba1030baba3437b934bd32b2103a3790313ab93760511b604482015260640161099e565b610bf2843385610e1c565b610bfc8484610dd4565b82600c6000828254610c0e9190612479565b92505081905550836001600160a01b03167fdad39f8d1141af92826fd54753af04a262d63abb2d79804e2e13f86ce52bd5e3848484604051610c529392919061248c565b60405180910390a250505050565b60006b019d971e4fe8401e74000000600c54612710610c7f91906124d5565b6107559190612502565b6040805180820190915260008082526020820152610ca78383611431565b9392505050565b610cb6610da7565b6001600160a01b038116610ce057604051631e4fbdf760e01b81526000600482015260240161099e565b610ce981611228565b50565b610cf4610da7565b6001600160a01b038116610d435760405162461bcd60e51b8152602060048201526016602482015275496e76616c6964206275726e6572206164647265737360501b604482015260640161099e565b6001600160a01b0381166000818152600d6020526040808220805460ff19166001179055517f86e57fd2b90329052917118de7c3f521f400d439b9650deaa906a25b08b945609190a250565b6000610ca78284612524565b6000610ca7828461254b565b600b546001600160a01b031633146107a65760405163118cdaa760e01b815233600482015260240161099e565b6001600160a01b038216610dfe57604051634b637e8f60e11b81526000600482015260240161099e565b61084e82600083611467565b610e17838383600161147a565b505050565b6001600160a01b03838116600090815260016020908152604080832093861683529290522054600019811015610e955781811015610e8657604051637dc7a0d960e11b81526001600160a01b0384166004820152602481018290526044810183905260640161099e565b610e958484848403600061147a565b50505050565b6001600160a01b038316610ec557604051634b637e8f60e11b81526000600482015260240161099e565b6001600160a01b038216610eef5760405163ec442f0560e01b81526000600482015260240161099e565b610e17838383611467565b6000306001600160a01b037f000000000000000000000000000000000000000000000000000000000000000016148015610f5357507f000000000000000000000000000000000000000000000000000000000000000046145b15610f7d57507f000000000000000000000000000000000000000000000000000000000000000090565b610755604080517f8b73c3c69bb8fe3d512ecc4cf759cc79239f7b179b0ffacaa9a75d522b39400f60208201527f0000000000000000000000000000000000000000000000000000000000000000918101919091527f000000000000000000000000000000000000000000000000000000000000000060608201524660808201523060a082015260009060c00160405160208183030381529060405280519060200120905090565b60008061103061091a565b90508065ffffffffffff16831061106b57604051637669fc0f60e11b81526004810184905265ffffffffffff8216602482015260440161099e565b610ca78361154f565b8154600090818160058111156110d357600061108f84611586565b61109990856124c2565b60008881526020902090915081015465ffffffffffff90811690871610156110c3578091506110d1565b6110ce816001612479565b92505b505b60006110e1878785856116df565b9050801561111c57611106876110f86001846124c2565b600091825260209091200190565b54600160301b90046001600160d01b031661111f565b60005b979650505050505050565b611132611741565b600b805460ff60a01b191690557f5db9ee0a495bf2e6ff9c91a7834c1ba4fdd244a5e8aa4e537bd38aeae4b073aa335b6040516001600160a01b03909116815260200160405180910390a1565b610ce93382610dd4565b60006107554361154f565b6001600160a01b0382811660008181526008602052604080822080548686166001600160a01b0319821681179092559151919094169392849290917f3134e8a2e6d97e929a7e54011ea5485d7d196dd5f0ba4d4ef95803e8e3fc257f9190a4610e1781836112018661176b565b611789565b6001600160a01b038116600090815260096020526040812054610721906118f5565b600b80546001600160a01b038381166001600160a01b0319831681179093556040519116919082907f8be0079c531659141344cd1fd0a4f28419497f9722a3daafe3b4186f6b6457e090600090a35050565b611285823383610e1c565b61084e8282610dd4565b6001600160a01b038116600090815260076020526040812054610721565b6112b5611926565b600b805460ff60a01b1916600160a01b1790557f62e78cea01bee320cd4e420270b5ea74000d11b0c9f74754ebdbfc544b05a2586111623390565b60606107557f00000000000000000000000000000000000000000000000000000000000000006005611951565b60606107557f00000000000000000000000000000000000000000000000000000000000000006006611951565b8054600090801561137a57611364836110f86001846124c2565b54600160301b90046001600160d01b0316610ca7565b60009392505050565b6000610721611390610efa565b8360405161190160f01b8152600281019290925260228201526042902090565b6000806000806113c2888888886119fc565b9250925092506113d28282611acb565b50909695505050505050565b6001600160a01b0382166000908152600760205260409020805460018101909155818114610e17576040516301d4b62360e61b81526001600160a01b03841660048201526024810182905260440161099e565b60408051808201909152600080825260208201526001600160a01b0383166000908152600960205260409020610ca79083611b84565b61146f611926565b610e17838383611bf4565b6001600160a01b0384166114a45760405163e602df0560e01b81526000600482015260240161099e565b6001600160a01b0383166114ce57604051634a1406b160e11b81526000600482015260240161099e565b6001600160a01b0380851660009081526001602090815260408083209387168352929052208290558015610e9557826001600160a01b0316846001600160a01b03167f8c5be1e5ebec7d5bd14f71427d1e84f3dd0314c0f7b2291e5b200ac8c7c3b9258460405161154191815260200190565b60405180910390a350505050565b600065ffffffffffff821115611582576040516306dfcc6560e41b8152603060048201526024810183905260440161099e565b5090565b600060018211611594575090565b816001600160801b82106115ad5760809190911c9060401b5b6801000000000000000082106115c85760409190911c9060201b5b64010000000082106115df5760209190911c9060101b5b6201000082106115f45760109190911c9060081b5b61010082106116085760089190911c9060041b5b6010821061161b5760049190911c9060021b5b600482106116275760011b5b600302600190811c9081858161163f5761163f6124ec565b048201901c90506001818581611657576116576124ec565b048201901c9050600181858161166f5761166f6124ec565b048201901c90506001818581611687576116876124ec565b048201901c9050600181858161169f5761169f6124ec565b048201901c905060018185816116b7576116b76124ec565b048201901c90506116d68185816116d0576116d06124ec565b04821190565b90039392505050565b60005b818310156117395760006116f68484611c5b565b60008781526020902090915065ffffffffffff86169082015465ffffffffffff16111561172557809250611733565b611730816001612479565b93505b506116e2565b509392505050565b600b54600160a01b900460ff166107a657604051638dfc202b60e01b815260040160405180910390fd5b6001600160a01b038116600090815260208190526040812054610721565b816001600160a01b0316836001600160a01b0316141580156117ab5750600081115b15610e17576001600160a01b03831615611853576001600160a01b038316600090815260096020526040812081906117ee90610d9b6117e986611c76565b611caa565b6001600160d01b031691506001600160d01b03169150846001600160a01b03167fdec2bacdd2f05b59de34da9b523dff8be42e5e38e818c82fdb0bae774387a7248383604051611848929190918252602082015260400190565b60405180910390a250505b6001600160a01b03821615610e17576001600160a01b0382166000908152600960205260408120819061188c90610d8f6117e986611c76565b6001600160d01b031691506001600160d01b03169150836001600160a01b03167fdec2bacdd2f05b59de34da9b523dff8be42e5e38e818c82fdb0bae774387a72483836040516118e6929190918252602082015260400190565b60405180910390a25050505050565b600063ffffffff821115611582576040516306dfcc6560e41b8152602060048201526024810183905260440161099e565b600b54600160a01b900460ff16156107a65760405163d93c066560e01b815260040160405180910390fd5b606060ff831461196b5761196483611ce3565b9050610721565b81805461197790612429565b80601f01602080910402602001604051908101604052809291908181526020018280546119a390612429565b80156119f05780601f106119c5576101008083540402835291602001916119f0565b820191906000526020600020905b8154815290600101906020018083116119d357829003601f168201915b50505050509050610721565b600080807f7fffffffffffffffffffffffffffffff5d576e7357a4501ddfe92f46681b20a0841115611a375750600091506003905082611ac1565b604080516000808252602082018084528a905260ff891692820192909252606081018790526080810186905260019060a0016020604051602081039080840390855afa158015611a8b573d6000803e3d6000fd5b5050604051601f1901519150506001600160a01b038116611ab757506000925060019150829050611ac1565b9250600091508190505b9450945094915050565b6000826003811115611adf57611adf61256b565b03611ae8575050565b6001826003811115611afc57611afc61256b565b03611b1a5760405163f645eedf60e01b815260040160405180910390fd5b6002826003811115611b2e57611b2e61256b565b03611b4f5760405163fce698f760e01b81526004810182905260240161099e565b6003826003811115611b6357611b6361256b565b0361084e576040516335e2f38360e21b81526004810182905260240161099e565b6040805180820190915260008082526020820152826000018263ffffffff1681548110611bb357611bb3612581565b60009182526020918290206040805180820190915291015465ffffffffffff81168252600160301b90046001600160d01b0316918101919091529392505050565b611bff838383611d22565b6001600160a01b038316611c50576000611c1860025490565b90506001600160d01b0380821115611c4d57604051630e58ae9360e11b8152600481018390526024810182905260440161099e565b50505b610e17838383611e4c565b6000611c6a6002848418612502565b610ca790848416612479565b60006001600160d01b03821115611582576040516306dfcc6560e41b815260d060048201526024810183905260440161099e565b600080611cd6611cb861091a565b611cce611cc48861134a565b868863ffffffff16565b879190611ec2565b915091505b935093915050565b60606000611cf083611ed0565b604080516020808252818301909252919250600091906020820181803683375050509182525060208101929092525090565b6001600160a01b038316611d4d578060026000828254611d429190612479565b90915550611dbf9050565b6001600160a01b03831660009081526020819052604090205481811015611da05760405163391434e360e21b81526001600160a01b0385166004820152602481018290526044810183905260640161099e565b6001600160a01b03841660009081526020819052604090209082900390555b6001600160a01b038216611ddb57600280548290039055611dfa565b6001600160a01b03821660009081526020819052604090208054820190555b816001600160a01b0316836001600160a01b03167fddf252ad1be2c89b69c2b068fc378daa952ba7f163c4a11628f55a4df523b3ef83604051611e3f91815260200190565b60405180910390a3505050565b6001600160a01b038316611e6e57611e6b600a610d8f6117e984611c76565b50505b6001600160a01b038216611e9057611e8d600a610d9b6117e984611c76565b50505b6001600160a01b03838116600090815260086020526040808220548584168352912054610e1792918216911683611789565b600080611cd6858585611ef8565b600060ff8216601f81111561072157604051632cd44ac360e21b815260040160405180910390fd5b825460009081908015611ff1576000611f16876110f86001856124c2565b805490915065ffffffffffff80821691600160301b90046001600160d01b0316908816821115611f5957604051632520601d60e01b815260040160405180910390fd5b8765ffffffffffff168265ffffffffffff1603611f9257825465ffffffffffff16600160301b6001600160d01b03891602178355611fe3565b6040805180820190915265ffffffffffff808a1682526001600160d01b03808a1660208085019182528d54600181018f5560008f81529190912094519151909216600160301b029216919091179101555b9450859350611cdb92505050565b50506040805180820190915265ffffffffffff80851682526001600160d01b0380851660208085019182528854600181018a5560008a815291822095519251909316600160301b029190931617920191909155905081611cdb565b80356001600160a01b038116811461206357600080fd5b919050565b60006020828403121561207a57600080fd5b610ca78261204c565b6000815180845260005b818110156120a95760208185018101518683018201520161208d565b506000602082860101526020601f19601f83011685010191505092915050565b602081526000610ca76020830184612083565b60008083601f8401126120ee57600080fd5b50813567ffffffffffffffff81111561210657600080fd5b60208301915083602082850101111561211e57600080fd5b9250929050565b60008060006040848603121561213a57600080fd5b83359250602084013567ffffffffffffffff81111561215857600080fd5b612164868287016120dc565b9497909650939450505050565b6000806040838503121561218457600080fd5b61218d8361204c565b946020939093013593505050565b6000806000606084860312156121b057600080fd5b6121b98461204c565b92506121c76020850161204c565b9150604084013590509250925092565b6000602082840312156121e957600080fd5b5035919050565b60ff60f81b881681526000602060e0602084015261221160e084018a612083565b8381036040850152612223818a612083565b606085018990526001600160a01b038816608086015260a0850187905284810360c08601528551808252602080880193509091019060005b818110156122775783518352928401929184019160010161225b565b50909c9b505050505050505050505050565b803560ff8116811461206357600080fd5b60008060008060008060c087890312156122b357600080fd5b6122bc8761204c565b955060208701359450604087013593506122d860608801612289565b92506080870135915060a087013590509295509295509295565b600080600080600080600060e0888a03121561230d57600080fd5b6123168861204c565b96506123246020890161204c565b9550604088013594506060880135935061234060808901612289565b925060a0880135915060c0880135905092959891949750929550565b6000806000806060858703121561237257600080fd5b61237b8561204c565b935060208501359250604085013567ffffffffffffffff81111561239e57600080fd5b6123aa878288016120dc565b95989497509550505050565b600080604083850312156123c957600080fd5b6123d28361204c565b91506123e06020840161204c565b90509250929050565b600080604083850312156123fc57600080fd5b6124058361204c565b9150602083013563ffffffff8116811461241e57600080fd5b809150509250929050565b600181811c9082168061243d57607f821691505b60208210810361245d57634e487b7160e01b600052602260045260246000fd5b50919050565b634e487b7160e01b600052601160045260246000fd5b8082018082111561072157610721612463565b83815260406020820152816040820152818360608301376000818301606090810191909152601f909201601f1916010192915050565b8181038181111561072157610721612463565b808202811582820484141761072157610721612463565b634e487b7160e01b600052601260045260246000fd5b60008261251f57634e487b7160e01b600052601260045260246000fd5b500490565b6001600160d01b0381811683821601908082111561254457612544612463565b5092915050565b6001600160d01b0382811682821603908082111561254457612544612463565b634e487b7160e01b600052602160045260246000fd5b634e487b7160e01b600052603260045260246000fdfea26469706673582212201005e7ab12618fb89ac38996a4547ddd355aa623f1fc35c2f037e88363efd5ea64736f6c63430008180033dec2bacdd2f05b59de34da9b523dff8be42e5e38e818c82fdb0bae774387a724",
  "linkReferences": {},
  "deployedLinkReferences": {}
}