{
  "_format": "hh-sol-artifact-1",
  "contractName": "GrepToken",
  "sourceName": "contracts/GrepToken.sol",
  "abi": [
    {
      "inputs": [],
      "stateMutability": "nonpayable",
      "type": "constructor"
    },
    {
      "inputs": [],
      "name": "CheckpointUnorderedInsertion",
      "type": "error"
    },
    {
      "inputs": [],
      "name": "ECDSAInvalidSignature",
      "type": "error"
    },
    {
      "inputs": [
        {
          "internalType": "uint256",
          "name": "length",
          "type": "uint256"
        }
      ],
      "name": "ECDSAInvalidSignatureLength",
      "type": "error"
    },
    {
      "inputs": [
        {
          "internalType": "bytes32",
          "name": "s",
          "type": "bytes32"
        }
      ],
      "name": "ECDSAInvalidSignatureS",
      "type": "error"
    },
    {
      "inputs": [
        {
          "internalType": "uint256",
          "name": "increasedSupply",
          "type": "uint256"
        },
        {
          "internalType": "uint256",
          "name": "cap",
          "type": "uint256"
        }
      ],
      "name": "ERC20ExceededSafeSupply",
      "type": "error"
    },
    {
      "inputs": [
        {
          "internalType": "address",
          "name": "spender",
          "type": "address"
        },
        {
          "internalType": "uint256",
          "name": "allowance",
          "type": "uint256"
        },
        {
          "internalType": "uint256",
          "name": "needed",
          "type": "uint256"
        }
      ],
      "name": "ERC20InsufficientAllowance",
      "type": "error"
    },
    {
      "inputs": [
        {
          "internalType": "address",
          "name": "sender",
          "type": "address"
        },
        {
          "internalType": "uint256",
          "name": "balance",
          "type": "uint256"
        },
        {
          "internalType": "uint256",
          "name": "needed",
          "type": "uint256"
        }
      ],
      "name": "ERC20InsufficientBalance",
      "type": "error"
    },
    {
      "inputs": [
        {
          "internalType": "address",
          "name": "approver",
          "type": "address"
        }
      ],
      "name": "ERC20InvalidApprover",
      "type": "error"
    },
    {
      "inputs": [
        {
          "internalType": "address",
          "name": "receiver",
          "type": "address"
        }
      ],
      "name": "ERC20InvalidReceiver",
      "type": "error"
    },
    {
      "inputs": [
        {
          "internalType": "address",
          "name": "sender",
          "type": "address"
        }
      ],
      "name": "ERC20InvalidSender",
      "type": "error"
    },
    {
      "inputs": [
        {
          "internalType": "address",
          "name": "spender",
          "type": "address"
        }
      ],
      "name": "ERC20InvalidSpender",
      "type": "error"
    },
    {
      "inputs": [
        {
          "internalType": "uint256",
          "name": "deadline",
          "type": "uint256"
        }
      ],
      "name": "ERC2612ExpiredSignature",
      "type": "error"
    },
    {
      "inputs": [
        {
          "internalType": "address",
          "name": "signer",
          "type": "address"
        },
        {
          "internalType": "address",
          "name": "owner",
          "type": "address"
        }
      ],
      "name": "ERC2612InvalidSigner",
      "type": "error"
    },
    {
      "inputs": [
        {
          "internalType": "uint256",
          "name": "timepoint",
          "type": "uint256"
        },
        {
          "internalType": "uint48",
          "name": "clock",
          "type": "uint48"
        }
      ],
      "name": "ERC5805FutureLookup",
      "type": "error"
    },
    {
      "inputs": [],
      "name": "ERC6372InconsistentClock",
      "type": "error"
    },
    {
      "inputs": [],
      "name": "EnforcedPause",
      "type": "error"
    },
    {
      "inputs": [],
      "name": "ExpectedPause",
      "type": "error"
    },
    {
      "inputs": [
        {
          "internalType": "address",
          "name": "account",
          "type": "address"
        },
        {
          "internalType": "uint256",
          "name": "currentNonce",
          "type": "uint256"
        }
      ],
      "name": "InvalidAccountNonce",
      "type": "error"
    },
    {
      "inputs": [],
      "name": "InvalidShortString",
      "type": "error"
    },
    {
      "inputs": [
        {
          "internalType": "address",
          "name": "owner",
          "type": "address"
        }
      ],
      "name": "OwnableInvalidOwner",
      "type": "error"
    },
    {
      "inputs": [
        {
          "internalType": "address",
          "name": "account",
          "type": "address"
        }
      ],
      "name": "OwnableUnauthorizedAccount",
      "type": "error"
    },
    {
      "inputs": [
        {
          "internalType": "uint8",
          "name": "bits",
          "type": "uint8"
        },
        {
          "internalType": "uint256",
          "name": "value",
          "type": "uint256"
        }
      ],
      "name": "SafeCastOverflowedUintDowncast",
      "type": "error"
    },
    {
      "inputs": [
        {
          "internalType": "string",
          "name": "str",
          "type": "string"
        }
      ],
      "name": "StringTooLong",
      "type": "error"
    },
    {
      "inputs": [
        {
          "internalType": "uint256",
          "name": "expiry",
          "type": "uint256"
        }
      ],
      "name": "VotesExpiredSignature",
      "type": "error"
    },
    {
      "anonymous": false,
      "inputs": [
        {
          "indexed": true,
          "internalType": "address",
          "name": "to",
          "type": "address"
        },
        {
          "indexed": false,
          "internalType": "uint256",
          "name": "amount",
          "type": "uint256"
        }
      ],
      "name": "AirdropMinted",
      "type": "event"
    },
    {
      "anonymous": false,
      "inputs": [
        {
          "indexed": true,
          "internalType": "address",
          "name": "owner",
          "type": "address"
        },
        {
          "indexed": true,
          "internalType": "address",
          "name": "spender",
          "type": "address"
        },
        {
          "indexed": false,
          "internalType": "uint256",
          "name": "value",
          "type": "uint256"
        }
      ],
      "name": "Approval",
      "type": "event"
    },
    {
      "anonymous": false,
      "inputs": [
        {
          "indexed": true,
          "internalType": "address",
          "name": "delegator",
          "type": "address"
        },
        {
          "indexed": true,
          "internalType": "address",
          "name": "fromDelegate",
          "type": "address"
        },
        {
          "indexed": true,
          "internalType": "address",
          "name": "toDelegate",
          "type": "address"
        }
      ],
      "name": "DelegateChanged",
      "type": "event"
    },
    {
      "anonymous": false,
      "inputs": [
        {
          "indexed": true,
          "internalType": "address",
          "name": "delegate",
          "type": "address"
        },
        {
          "indexed": false,
          "internalType": "uint256",
          "name": "previousVotes",
          "type": "uint256"
        },
        {
          "indexed": false,
          "internalType": "uint256",
          "name": "newVotes",
          "type": "uint256"
        }
      ],
      "name": "DelegateVotesChanged",
      "type": "event"
    },
    {
      "anonymous": false,
      "inputs": [],
      "name": "EIP712DomainChanged",
      "type": "event"
    },
    {
      "anonymous": false,
      "inputs": [
        {
          "indexed": true,
          "internalType": "address",
          "name": "to",
          "type": "address"
        },
        {
          "indexed": false,
          "internalType": "uint256",
          "name": "amount",
          "type": "uint256"
        }
      ],
      "name": "GameplayRewardsMinted",
      "type": "event"
    },
    {
      "anonymous": false,
      "inputs": [
        {
          "indexed": true,
          "internalType": "address",
          "name": "minter",
          "type": "address"
        }
      ],
      "name": "MinterAdded",
      "type": "event"
    },
    {
      "anonymous": false,
      "inputs": [
        {
          "indexed": true,
          "internalType": "address",
          "name": "minter",
          "type": "address"
        }
      ],
      "name": "MinterRemoved",
      "type": "event"
    },
    {
      "anonymous": false,
      "inputs": [
        {
          "indexed": true,
          "internalType": "address",
          "name": "previousOwner",
          "type": "address"
        },
        {
          "indexed": true,
          "internalType": "address",
          "name": "newOwner",
          "type": "address"
        }
      ],
      "name": "OwnershipTransferred",
      "type": "event"
    },
    {
      "anonymous": false,
      "inputs": [
        {
          "indexed": false,
          "internalType": "address",
          "name": "account",
          "type": "address"
        }
      ],
      "name": "Paused",
      "type": "event"
    },
    {
      "anonymous": false,
      "inputs": [
        {
          "indexed": true,
          "internalType": "address",
          "name": "to",
          "type": "address"
        },
        {
          "indexed": false,
          "internalType": "uint256",
          "name": "amount",
          "type": "uint256"
        }
      ],
      "name": "StakingRewardsMinted",
      "type": "event"
    },
    {
      "anonymous": false,
      "inputs": [
        {
          "indexed": true,
          "internalType": "address",
          "name": "from",
          "type": "address"
        },
        {
          "indexed": true,
          "internalType": "address",
          "name": "to",
          "type": "address"
        },
        {
          "indexed": false,
          "internalType": "uint256",
          "name": "value",
          "type": "uint256"
        }
      ],
      "name": "Transfer",
      "type": "event"
    },
    {
      "anonymous": false,
      "inputs": [
        {
          "indexed": false,
          "internalType": "address",
          "name": "account",
          "type": "address"
        }
      ],
      "name": "Unpaused",
      "type": "event"
    },
    {
      "inputs": [],
      "name": "AIRDROPS_CAP",
      "outputs": [
        {
          "internalType": "uint256",
          "name": "",
          "type": "uint256"
        }
      ],
      "stateMutability": "view",
      "type": "function"
    },
    {
      "inputs": [],
      "name": "CLOCK_MODE",
      "outputs": [
        {
          "internalType": "string",
          "name": "",
          "type": "string"
        }
      ],
      "stateMutability": "view",
      "type": "function"
    },
    {
      "inputs": [],
      "name": "DOMAIN_SEPARATOR",
      "outputs": [
        {
          "internalType": "bytes32",
          "name": "",
          "type": "bytes32"
        }
      ],
      "stateMutability": "view",
      "type": "function"
    },
    {
      "inputs": [],
      "name": "GAMEPLAY_REWARDS_CAP",
      "outputs": [
        {
          "internalType": "uint256",
          "name": "",
          "type": "uint256"
        }
      ],
      "stateMutability": "view",
      "type": "function"
    },
    {
      "inputs": [],
      "name": "MAX_SUPPLY",
      "outputs": [
        {
          "internalType": "uint256",
          "name": "",
          "type": "uint256"
        }
      ],
      "stateMutability": "view",
      "type": "function"
    },
    {
      "inputs": [],
      "name": "STAKING_REWARDS_CAP",
      "outputs": [
        {
          "internalType": "uint256",
          "name": "",
          "type": "uint256"
        }
      ],
      "stateMutability": "view",
      "type": "function"
    },
    {
      "inputs": [
        {
          "internalType": "address",
          "name": "minter",
          "type": "address"
        }
      ],
      "name": "addMinter",
      "outputs": [],
      "stateMutability": "nonpayable",
      "type": "function"
    },
    {
      "inputs": [],
      "name": "airdropsMinted",
      "outputs": [
        {
          "internalType": "uint256",
          "name": "",
          "type": "uint256"
        }
      ],
      "stateMutability": "view",
      "type": "function"
    },
    {
      "inputs": [
        {
          "internalType": "address",
          "name": "owner",
          "type": "address"
        },
        {
          "internalType": "address",
          "name": "spender",
          "type": "address"
        }
      ],
      "name": "allowance",
      "outputs": [
        {
          "internalType": "uint256",
          "name": "",
          "type": "uint256"
        }
      ],
      "stateMutability": "view",
      "type": "function"
    },
    {
      "inputs": [
        {
          "internalType": "address",
          "name": "spender",
          "type": "address"
        },
        {
          "internalType": "uint256",
          "name": "value",
          "type": "uint256"
        }
      ],
      "name": "approve",
      "outputs": [
        {
          "internalType": "bool",
          "name": "",
          "type": "bool"
        }
      ],
      "stateMutability": "nonpayable",
      "type": "function"
    },
    {
      "inputs": [
        {
          "internalType": "address",
          "name": "account",
          "type": "address"
        }
      ],
      "name": "balanceOf",
      "outputs": [
        {
          "internalType": "uint256",
          "name": "",
          "type": "uint256"
        }
      ],
      "stateMutability": "view",
      "type": "function"
    },
    {
      "inputs": [
        {
          "internalType": "uint256",
          "name": "value",
          "type": "uint256"
        }
      ],
      "name": "burn",
      "outputs": [],
      "stateMutability": "nonpayable",
      "type": "function"
    },
    {
      "inputs": [
        {
          "internalType": "address",
          "name": "account",
          "type": "address"
        },
        {
          "internalType": "uint256",
          "name": "value",
          "type": "uint256"
        }
      ],
      "name": "burnFrom",
      "outputs": [],
      "stateMutability": "nonpayable",
      "type": "function"
    },
    {
      "inputs": [
        {
          "internalType": "address",
          "name": "account",
          "type": "address"
        },
        {
          "internalType": "uint32",
          "name": "pos",
          "type": "uint32"
        }
      ],
      "name": "checkpoints",
      "outputs": [
        {
          "components": [
            {
              "internalType": "uint48",
              "name": "_key",
              "type": "uint48"
            },
            {
              "internalType": "uint208",
              "name": "_value",
              "type": "uint208"
            }
          ],
          "internalType": "struct Checkpoints.Checkpoint208",
          "name": "",
          "type": "tuple"
        }
      ],
      "stateMutability": "view",
      "type": "function"
    },
    {
      "inputs": [],
      "name": "clock",
      "outputs": [
        {
          "internalType": "uint48",
          "name": "",
          "type": "uint48"
        }
      ],
      "stateMutability": "view",
      "type": "function"
    },
    {
      "inputs": [],
      "name": "decimals",
      "outputs": [
        {
          "internalType": "uint8",
          "name": "",
          "type": "uint8"
        }
      ],
      "stateMutability": "view",
      "type": "function"
    },
    {
      "inputs": [
        {
          "internalType": "address",
          "name": "delegatee",
          "type": "address"
        }
      ],
      "name": "delegate",
      "outputs": [],
      "stateMutability": "nonpayable",
      "type": "function"
    },
    {
      "inputs": [
        {
          "internalType": "address",
          "name": "delegatee",
          "type": "address"
        },
        {
          "internalType": "uint256",
          "name": "nonce",
          "type": "uint256"
        },
        {
          "internalType": "uint256",
          "name": "expiry",
          "type": "uint256"
        },
        {
          "internalType": "uint8",
          "name": "v",
          "type": "uint8"
        },
        {
          "internalType": "bytes32",
          "name": "r",
          "type": "bytes32"
        },
        {
          "internalType": "bytes32",
          "name": "s",
          "type": "bytes32"
        }
      ],
      "name": "delegateBySig",
      "outputs": [],
      "stateMutability": "nonpayable",
      "type": "function"
    },
    {
      "inputs": [
        {
          "internalType": "address",
          "name": "account",
          "type": "address"
        }
      ],
      "name": "delegates",
      "outputs": [
        {
          "internalType": "address",
          "name": "",
          "type": "address"
        }
      ],
      "stateMutability": "view",
      "type": "function"
    },
    {
      "inputs": [],
      "name": "eip712Domain",
      "outputs": [
        {
          "internalType": "bytes1",
          "name": "fields",
          "type": "bytes1"
        },
        {
          "internalType": "string",
          "name": "name",
          "type": "string"
        },
        {
          "internalType": "string",
          "name": "version",
          "type": "string"
        },
        {
          "internalType": "uint256",
          "name": "chainId",
          "type": "uint256"
        },
        {
          "internalType": "address",
          "name": "verifyingContract",
          "type": "address"
        },
        {
          "internalType": "bytes32",
          "name": "salt",
          "type": "bytes32"
        },
        {
          "internalType": "uint256[]",
          "name": "extensions",
          "type": "uint256[]"
        }
      ],
      "stateMutability": "view",
      "type": "function"
    },
    {
      "inputs": [],
      "name": "gameplayRewardsMinted",
      "outputs": [
        {
          "internalType": "uint256",
          "name": "",
          "type": "uint256"
        }
      ],
      "stateMutability": "view",
      "type": "function"
    },
    {
      "inputs": [
        {
          "internalType": "uint256",
          "name": "timepoint",
          "type": "uint256"
        }
      ],
      "name": "getPastTotalSupply",
      "outputs": [
        {
          "internalType": "uint256",
          "name": "",
          "type": "uint256"
        }
      ],
      "stateMutability": "view",
      "type": "function"
    },
    {
      "inputs": [
        {
          "internalType": "address",
          "name": "account",
          "type": "address"
        },
        {
          "internalType": "uint256",
          "name": "timepoint",
          "type": "uint256"
        }
      ],
      "name": "getPastVotes",
      "outputs": [
        {
          "internalType": "uint256",
          "name": "",
          "type": "uint256"
        }
      ],
      "stateMutability": "view",
      "type": "function"
    },
    {
      "inputs": [],
      "name": "getRemainingMintable",
      "outputs": [
        {
          "internalType": "uint256",
          "name": "stakingRemaining",
          "type": "uint256"
        },
        {
          "internalType": "uint256",
          "name": "gameplayRemaining",
          "type": "uint256"
        },
        {
          "internalType": "uint256",
          "name": "airdropsRemaining",
          "type": "uint256"
        }
      ],
      "stateMutability": "view",
      "type": "function"
    },
    {
      "inputs": [
        {
          "internalType": "address",
          "name": "account",
          "type": "address"
        }
      ],
      "name": "getVotes",
      "outputs": [
        {
          "internalType": "uint256",
          "name": "",
          "type": "uint256"
        }
      ],
      "stateMutability": "view",
      "type": "function"
    },
    {
      "inputs": [
        {
          "internalType": "address",
          "name": "to",
          "type": "address"
        },
        {
          "internalType": "uint256",
          "name": "amount",
          "type": "uint256"
        }
      ],
      "name": "mintAirdrop",
      "outputs": [],
      "stateMutability": "nonpayable",
      "type": "function"
    },
    {
      "inputs": [
        {
          "internalType": "address",
          "name": "to",
          "type": "address"
        },
        {
          "internalType": "uint256",
          "name": "amount",
          "type": "uint256"
        }
      ],
      "name": "mintGameplayRewards",
      "outputs": [],
      "stateMutability": "nonpayable",
      "type": "function"
    },
    {
      "inputs": [
        {
          "internalType": "address",
          "name": "to",
          "type": "address"
        },
        {
          "internalType": "uint256",
          "name": "amount",
          "type": "uint256"
        }
      ],
      "name": "mintStakingRewards",
      "outputs": [],
      "stateMutability": "nonpayable",
      "type": "function"
    },
    {
      "inputs": [
        {
          "internalType": "address",
          "name": "",
          "type": "address"
        }
      ],
      "name": "minters",
      "outputs": [
        {
          "internalType": "bool",
          "name": "",
          "type": "bool"
        }
      ],
      "stateMutability": "view",
      "type": "function"
    },
    {
      "inputs": [],
      "name": "name",
      "outputs": [
        {
          "internalType": "string",
          "name": "",
          "type": "string"
        }
      ],
      "stateMutability": "view",
      "type": "function"
    },
    {
      "inputs": [
        {
          "internalType": "address",
          "name": "owner",
          "type": "address"
        }
      ],
      "name": "nonces",
      "outputs": [
        {
          "internalType": "uint256",
          "name": "",
          "type": "uint256"
        }
      ],
      "stateMutability": "view",
      "type": "function"
    },
    {
      "inputs": [
        {
          "internalType": "address",
          "name": "account",
          "type": "address"
        }
      ],
      "name": "numCheckpoints",
      "outputs": [
        {
          "internalType": "uint32",
          "name": "",
          "type": "uint32"
        }
      ],
      "stateMutability": "view",
      "type": "function"
    },
    {
      "inputs": [],
      "name": "owner",
      "outputs": [
        {
          "internalType": "address",
          "name": "",
          "type": "address"
        }
      ],
      "stateMutability": "view",
      "type": "function"
    },
    {
      "inputs": [],
      "name": "pause",
      "outputs": [],
      "stateMutability": "nonpayable",
      "type": "function"
    },
    {
      "inputs": [],
      "name": "paused",
      "outputs": [
        {
          "internalType": "bool",
          "name": "",
          "type": "bool"
        }
      ],
      "stateMutability": "view",
      "type": "function"
    },
    {
      "inputs": [
        {
          "internalType": "address",
          "name": "owner",
          "type": "address"
        },
        {
          "internalType": "address",
          "name": "spender",
          "type": "address"
        },
        {
          "internalType": "uint256",
          "name": "value",
          "type": "uint256"
        },
        {
          "internalType": "uint256",
          "name": "deadline",
          "type": "uint256"
        },
        {
          "internalType": "uint8",
          "name": "v",
          "type": "uint8"
        },
        {
          "internalType": "bytes32",
          "name": "r",
          "type": "bytes32"
        },
        {
          "internalType": "bytes32",
          "name": "s",
          "type": "bytes32"
        }
      ],
      "name": "permit",
      "outputs": [],
      "stateMutability": "nonpayable",
      "type": "function"
    },
    {
      "inputs": [
        {
          "internalType": "address",
          "name": "minter",
          "type": "address"
        }
      ],
      "name": "removeMinter",
      "outputs": [],
      "stateMutability": "nonpayable",
      "type": "function"
    },
    {
      "inputs": [],
      "name": "renounceOwnership",
      "outputs": [],
      "stateMutability": "nonpayable",
      "type": "function"
    },
    {
      "inputs": [],
      "name": "stakingRewardsMinted",
      "outputs": [
        {
          "internalType": "uint256",
          "name": "",
          "type": "uint256"
        }
      ],
      "stateMutability": "view",
      "type": "function"
    },
    {
      "inputs": [],
      "name": "symbol",
      "outputs": [
        {
          "internalType": "string",
          "name": "",
          "type": "string"
        }
      ],
      "stateMutability": "view",
      "type": "function"
    },
    {
      "inputs": [],
      "name": "totalSupply",
      "outputs": [
        {
          "internalType": "uint256",
          "name": "",
          "type": "uint256"
        }
      ],
      "stateMutability": "view",
      "type": "function"
    },
    {
      "inputs": [
        {
          "internalType": "address",
          "name": "to",
          "type": "address"
        },
        {
          "internalType": "uint256",
          "name": "value",
          "type": "uint256"
        }
      ],
      "name": "transfer",
      "outputs": [
        {
          "internalType": "bool",
          "name": "",
          "type": "bool"
        }
      ],
      "stateMutability": "nonpayable",
      "type": "function"
    },
    {
      "inputs": [
        {
          "internalType": "address",
          "name": "from",
          "type": "address"
        },
        {
          "internalType": "address",
          "name": "to",
          "type": "address"
        },
        {
          "internalType": "uint256",
          "name": "value",
          "type": "uint256"
        }
      ],
      "name": "transferFrom",
      "outputs": [
        {
          "internalType": "bool",
          "name": "",
          "type": "bool"
        }
      ],
      "stateMutability": "nonpayable",
      "type": "function"
    },
    {
      "inputs": [
        {
          "internalType": "address",
          "name": "newOwner",
          "type": "address"
        }
      ],
      "name": "transferOwnership",
      "outputs": [],
      "stateMutability": "nonpayable",
      "type": "function"
    },
    {
      "inputs": [],
      "name": "unpause",
      "outputs": [],
      "stateMutability": "nonpayable",
      "type": "function"
    }
  ],
  "bytecode": "0x6101606040523480156200001257600080fd5b50336040518060400160405280600881526020016723b932b821b7b4b760c11b81525080604051806040016040528060018152602001603160f81b8152506040518060400160405280600881526020016723b932b821b7b4b760c11b815250604051806040016040528060048152602001630475245560e41b81525081600390816200009f919062000a1c565b506004620000ae828262000a1c565b50620000c091508390506005620001c3565b61012052620000d1816006620001c3565b61014052815160208084019190912060e052815190820120610100524660a0526200015f60e05161010051604080517f8b73c3c69bb8fe3d512ecc4cf759cc79239f7b179b0ffacaa9a75d522b39400f60208201529081019290925260608201524660808201523060a082015260009060c00160405160208183030381529060405280519060200120905090565b60805250503060c052506001600160a01b0381166200019957604051631e4fbdf760e01b8152600060048201526024015b60405180910390fd5b620001a481620001fc565b50620001bd336b014adf4b7320334b900000006200024e565b62000bed565b6000602083511015620001e357620001db836200028c565b9050620001f6565b81620001f0848262000a1c565b5060ff90505b92915050565b600b80546001600160a01b038381166001600160a01b0319831681179093556040519116919082907f8be0079c531659141344cd1fd0a4f28419497f9722a3daafe3b4186f6b6457e090600090a35050565b6001600160a01b0382166200027a5760405163ec442f0560e01b81526000600482015260240162000190565b6200028860008383620002cf565b5050565b600080829050601f81511115620002ba578260405163305a27a960e01b815260040162000190919062000ae8565b8051620002c78262000b39565b179392505050565b620002d9620002eb565b620002e683838362000320565b505050565b620002ff600b54600160a01b900460ff1690565b156200031e5760405163d93c066560e01b815260040160405180910390fd5b565b6200032d8383836200038f565b6001600160a01b038316620003825760006200034860025490565b90506001600160d01b03808211156200037f57604051630e58ae9360e11b8152600481018390526024810182905260440162000190565b50505b620002e6838383620004c2565b6001600160a01b038316620003be578060026000828254620003b2919062000b74565b90915550620004329050565b6001600160a01b03831660009081526020819052604090205481811015620004135760405163391434e360e21b81526001600160a01b0385166004820152602481018290526044810183905260640162000190565b6001600160a01b03841660009081526020819052604090209082900390555b6001600160a01b03821662000450576002805482900390556200046f565b6001600160a01b03821660009081526020819052604090208054820190555b816001600160a01b0316836001600160a01b03167fddf252ad1be2c89b69c2b068fc378daa952ba7f163c4a11628f55a4df523b3ef83604051620004b591815260200190565b60405180910390a3505050565b6001600160a01b038316620004f757620004f4600a6200118d6200055a60201b17620004ee846200056f565b620005a9565b50505b6001600160a01b038216620005265762000523600a62001199620005e660201b17620004ee846200056f565b50505b6001600160a01b03838116600090815260086020526040808220548584168352912054620002e692918216911683620005f4565b600062000568828462000b8a565b9392505050565b60006001600160d01b03821115620005a5576040516306dfcc6560e41b815260d060048201526024810183905260440162000190565b5090565b600080620005d9620005ba6200075b565b620005d0620005c9886200076c565b868860201c565b879190620007bb565b915091505b935093915050565b600062000568828462000bb4565b816001600160a01b0316836001600160a01b031614158015620006175750600081115b15620002e6576001600160a01b03831615620006ba576001600160a01b038316600090815260096020908152604082208291620006659190620005e6901b6200119917620004ee866200056f565b6001600160d01b031691506001600160d01b03169150846001600160a01b0316600080516020620035b78339815191528383604051620006af929190918252602082015260400190565b60405180910390a250505b6001600160a01b03821615620002e6576001600160a01b0382166000908152600960209081526040822082916200070291906200055a901b6200118d17620004ee866200056f565b6001600160d01b031691506001600160d01b03169150836001600160a01b0316600080516020620035b783398151915283836040516200074c929190918252602082015260400190565b60405180910390a25050505050565b600062000767620007cb565b905090565b80546000908015620007b25762000798836200078a60018462000bd7565b600091825260209091200190565b54660100000000000090046001600160d01b031662000568565b60009392505050565b600080620005d9858585620007d8565b6000620007674362000941565b825460009081908015620008e2576000620007fa876200078a60018562000bd7565b805490915065ffffffffffff80821691660100000000000090046001600160d01b03169088168211156200084157604051632520601d60e01b815260040160405180910390fd5b8765ffffffffffff168265ffffffffffff16036200087f57825465ffffffffffff1666010000000000006001600160d01b03891602178355620008d3565b6040805180820190915265ffffffffffff808a1682526001600160d01b03808a1660208085019182528d54600181018f5560008f815291909120945191519092166601000000000000029216919091179101555b9450859350620005de92505050565b50506040805180820190915265ffffffffffff80851682526001600160d01b0380851660208085019182528854600181018a5560008a8152918220955192519093166601000000000000029190931617920191909155905081620005de565b600065ffffffffffff821115620005a5576040516306dfcc6560e41b8152603060048201526024810183905260440162000190565b634e487b7160e01b600052604160045260246000fd5b600181811c90821680620009a157607f821691505b602082108103620009c257634e487b7160e01b600052602260045260246000fd5b50919050565b601f821115620002e6576000816000526020600020601f850160051c81016020861015620009f35750805b601f850160051c820191505b8181101562000a1457828155600101620009ff565b505050505050565b81516001600160401b0381111562000a385762000a3862000976565b62000a508162000a4984546200098c565b84620009c8565b602080601f83116001811462000a88576000841562000a6f5750858301515b600019600386901b1c1916600185901b17855562000a14565b600085815260208120601f198616915b8281101562000ab95788860151825594840194600190910190840162000a98565b508582101562000ad85787850151600019600388901b60f8161c191681555b5050505050600190811b01905550565b60006020808352835180602085015260005b8181101562000b185785810183015185820160400152820162000afa565b506000604082860101526040601f19601f8301168501019250505092915050565b80516020808301519190811015620009c25760001960209190910360031b1b16919050565b634e487b7160e01b600052601160045260246000fd5b80820180821115620001f657620001f662000b5e565b6001600160d01b0381811683821601908082111562000bad5762000bad62000b5e565b5092915050565b6001600160d01b0382811682821603908082111562000bad5762000bad62000b5e565b81810381811115620001f657620001f662000b5e565b60805160a05160c05160e05161010051610120516101405161296f62000c4860003960006117390152600061170c015260006113d2015260006113aa015260006113050152600061132f01526000611359015261296f6000f3fe608060405234801561001057600080fd5b506004361061027f5760003560e01c806379cc67901161015c5780639e1ab91d116100ce578063edc56cf511610087578063edc56cf5146105c2578063f1127ed8146105d4578063f2fde38b14610613578063f46eccc414610626578063f82c29ae14610649578063fdd7c4021461065c57600080fd5b80639e1ab91d14610535578063a9059cbb1461053e578063c3cda52014610551578063d3ff1c3b14610564578063d505accf14610576578063dd62ed3e1461058957600080fd5b80638da5cb5b116101205780638da5cb5b146104c45780638e539e8c146104d557806391ddadf4146104e857806395d89b4114610507578063983b2d561461050f5780639ab24eb01461052257600080fd5b806379cc6790146104725780637ecebe00146104855780638456cb591461049857806384b0196e146104a05780638a1e5601146104bb57600080fd5b80633f4ba83a116101f55780635c975abb116101b95780635c975abb146103d25780636f97e31c146103e45780636fcfff451461040757806370a082311461042f578063715018a6146104585780637664ce121461046057600080fd5b80633f4ba83a1461035857806342966c68146103605780634bf5d7e914610373578063587cde1e1461037b5780635c19a95c146103bf57600080fd5b8063283fd37b11610247578063283fd37b146102ff5780633092afd514610308578063313ce5671461031b57806332cb6b0c1461032a5780633644e5151461033d5780633a46b1a81461034557600080fd5b80630194a7ca1461028457806306fdde0314610299578063095ea7b3146102b757806318160ddd146102da57806323b872dd146102ec575b600080fd5b61029761029236600461247d565b61066f565b005b6102a1610812565b6040516102ae91906124ed565b60405180910390f35b6102ca6102c536600461247d565b6108a4565b60405190151581526020016102ae565b6002545b6040519081526020016102ae565b6102ca6102fa366004612500565b6108be565b6102de600e5481565b61029761031636600461253c565b6108e2565b604051601281526020016102ae565b6102de6b033b2e3c9fd0803ce800000081565b6102de610933565b6102de61035336600461247d565b610942565b61029761097e565b61029761036e366004612557565b610990565b6102a161099d565b6103a761038936600461253c565b6001600160a01b039081166000908152600860205260409020541690565b6040516001600160a01b0390911681526020016102ae565b6102976103cd36600461253c565b610a15565b600b54600160a01b900460ff166102ca565b6103ec610a24565b604080519384526020840192909252908201526060016102ae565b61041a61041536600461253c565b610a7f565b60405163ffffffff90911681526020016102ae565b6102de61043d36600461253c565b6001600160a01b031660009081526020819052604090205490565b610297610a8a565b6102de6aa56fa5b99019a5c800000081565b61029761048036600461247d565b610a9c565b6102de61049336600461253c565b610ab1565b610297610abc565b6104a8610acc565b6040516102ae9796959493929190612570565b6102de600d5481565b600b546001600160a01b03166103a7565b6102de6104e3366004612557565b610b12565b6104f0610b37565b60405165ffffffffffff90911681526020016102ae565b6102a1610b41565b61029761051d36600461253c565b610b50565b6102de61053036600461253c565b610bf3565b6102de600f5481565b6102ca61054c36600461247d565b610c14565b61029761055f36600461261a565b610c22565b6102de6a52b7d2dcc80cd2e400000081565b610297610584366004612672565b610cdf565b6102de6105973660046126dc565b6001600160a01b03918216600090815260016020908152604080832093909416825291909152205490565b6102de6af8277896582678ac00000081565b6105e76105e236600461270f565b610e19565b60408051825165ffffffffffff1681526020928301516001600160d01b031692810192909252016102ae565b61029761062136600461253c565b610e3e565b6102ca61063436600461253c565b600c6020526000908152604090205460ff1681565b61029761065736600461247d565b610e79565b61029761066a36600461247d565b611007565b336000908152600c602052604090205460ff16806106975750600b546001600160a01b031633145b6106bc5760405162461bcd60e51b81526004016106b39061274f565b60405180910390fd5b6001600160a01b0382166106e25760405162461bcd60e51b81526004016106b39061277f565b600081116107025760405162461bcd60e51b81526004016106b3906127b6565b6af8277896582678ac00000081600d5461071c9190612801565b111561076a5760405162461bcd60e51b815260206004820152601c60248201527f5374616b696e672072657761726473206361702065786365656465640000000060448201526064016106b3565b6b033b2e3c9fd0803ce80000008161078160025490565b61078b9190612801565b11156107a95760405162461bcd60e51b81526004016106b390612814565b80600d60008282546107bb9190612801565b909155506107cb905082826111a5565b816001600160a01b03167f84065b24c0c720f66ae9be3e0b0de201cac7c5ce0ea04c8bc34c3f2e1fc95ba48260405161080691815260200190565b60405180910390a25050565b60606003805461082190612841565b80601f016020809104026020016040519081016040528092919081815260200182805461084d90612841565b801561089a5780601f1061086f5761010080835404028352916020019161089a565b820191906000526020600020905b81548152906001019060200180831161087d57829003601f168201915b5050505050905090565b6000336108b28185856111db565b60019150505b92915050565b6000336108cc8582856111ed565b6108d785858561126c565b506001949350505050565b6108ea6112cb565b6001600160a01b0381166000818152600c6020526040808220805460ff19169055517fe94479a9f7e1952cc78f2d6baab678adc1b772d936c6583def489e524cb666929190a250565b600061093d6112f8565b905090565b600061096e61095083611423565b6001600160a01b038516600090815260096020526040902090611472565b6001600160d01b03169392505050565b6109866112cb565b61098e611528565b565b61099a338261157d565b50565b60606109a76115b3565b65ffffffffffff166109b7610b37565b65ffffffffffff16146109dd576040516301bfc1c560e61b815260040160405180910390fd5b5060408051808201909152601d81527f6d6f64653d626c6f636b6e756d6265722666726f6d3d64656661756c74000000602082015290565b33610a2081836115be565b5050565b6000806000600d546af8277896582678ac000000610a42919061287b565b9250600e546aa56fa5b99019a5c8000000610a5d919061287b565b9150600f546a52b7d2dcc80cd2e4000000610a78919061287b565b9050909192565b60006108b882611630565b610a926112cb565b61098e6000611652565b610aa78233836111ed565b610a20828261157d565b60006108b8826116a4565b610ac46112cb565b61098e6116c2565b600060608060008060006060610ae0611705565b610ae8611732565b60408051600080825260208201909252600f60f81b9b939a50919850469750309650945092509050565b6000610b28610b2083611423565b600a90611472565b6001600160d01b031692915050565b600061093d6115b3565b60606004805461082190612841565b610b586112cb565b6001600160a01b038116610ba75760405162461bcd60e51b8152602060048201526016602482015275496e76616c6964206d696e746572206164647265737360501b60448201526064016106b3565b6001600160a01b0381166000818152600c6020526040808220805460ff19166001179055517f6ae172837ea30b801fbfcdd4108aa1d5bf8ff775444fd70256b44e6bf3dfc3f69190a250565b6001600160a01b0381166000908152600960205260408120610b289061175f565b6000336108b281858561126c565b83421115610c4657604051632341d78760e11b8152600481018590526024016106b3565b604080517fe48329057bfd03d55e49b547132e39cffd9c1820ad7b9d4c5307691425d15adf60208201526001600160a01b038816918101919091526060810186905260808101859052600090610cc090610cb89060a00160405160208183030381529060405280519060200120611798565b8585856117c5565b9050610ccc81876117f3565b610cd681886115be565b50505050505050565b83421115610d035760405163313c898160e11b8152600481018590526024016106b3565b60007f6e71edae12b1b97f4d1f60370fef10105fa2faae0126114a169c64845d6126c9888888610d508c6001600160a01b0316600090815260076020526040902080546001810190915590565b6040805160208101969096526001600160a01b0394851690860152929091166060840152608083015260a082015260c0810186905260e0016040516020818303038152906040528051906020012090506000610dab82611798565b90506000610dbb828787876117c5565b9050896001600160a01b0316816001600160a01b031614610e02576040516325c0072360e11b81526001600160a01b0380831660048301528b1660248201526044016106b3565b610e0d8a8a8a6111db565b50505050505050505050565b6040805180820190915260008082526020820152610e378383611846565b9392505050565b610e466112cb565b6001600160a01b038116610e7057604051631e4fbdf760e01b8152600060048201526024016106b3565b61099a81611652565b336000908152600c602052604090205460ff1680610ea15750600b546001600160a01b031633145b610ebd5760405162461bcd60e51b81526004016106b39061274f565b6001600160a01b038216610ee35760405162461bcd60e51b81526004016106b39061277f565b60008111610f035760405162461bcd60e51b81526004016106b3906127b6565b6aa56fa5b99019a5c800000081600e54610f1d9190612801565b1115610f6b5760405162461bcd60e51b815260206004820152601d60248201527f47616d65706c617920726577617264732063617020657863656564656400000060448201526064016106b3565b6b033b2e3c9fd0803ce800000081610f8260025490565b610f8c9190612801565b1115610faa5760405162461bcd60e51b81526004016106b390612814565b80600e6000828254610fbc9190612801565b90915550610fcc905082826111a5565b816001600160a01b03167f785744576493a526087542942e96639e7eb10c5b6f11f54b5399815751eabf298260405161080691815260200190565b336000908152600c602052604090205460ff168061102f5750600b546001600160a01b031633145b61104b5760405162461bcd60e51b81526004016106b39061274f565b6001600160a01b0382166110715760405162461bcd60e51b81526004016106b39061277f565b600081116110915760405162461bcd60e51b81526004016106b3906127b6565b6a52b7d2dcc80cd2e400000081600f546110ab9190612801565b11156110f15760405162461bcd60e51b8152602060048201526015602482015274105a5c991c9bdc1cc818d85c08195e18d959591959605a1b60448201526064016106b3565b6b033b2e3c9fd0803ce80000008161110860025490565b6111129190612801565b11156111305760405162461bcd60e51b81526004016106b390612814565b80600f60008282546111429190612801565b90915550611152905082826111a5565b816001600160a01b03167fef1585cd9743b170e77a247f0c35cd842dbb8b59cb1981becbc26f7ec1a7fc568260405161080691815260200190565b6000610e37828461288e565b6000610e3782846128b5565b6001600160a01b0382166111cf5760405163ec442f0560e01b8152600060048201526024016106b3565b610a206000838361187c565b6111e8838383600161188f565b505050565b6001600160a01b03838116600090815260016020908152604080832093861683529290522054600019811015611266578181101561125757604051637dc7a0d960e11b81526001600160a01b038416600482015260248101829052604481018390526064016106b3565b6112668484848403600061188f565b50505050565b6001600160a01b03831661129657604051634b637e8f60e11b8152600060048201526024016106b3565b6001600160a01b0382166112c05760405163ec442f0560e01b8152600060048201526024016106b3565b6111e883838361187c565b600b546001600160a01b0316331461098e5760405163118cdaa760e01b81523360048201526024016106b3565b6000306001600160a01b037f00000000000000000000000000000000000000000000000000000000000000001614801561135157507f000000000000000000000000000000000000000000000000000000000000000046145b1561137b57507f000000000000000000000000000000000000000000000000000000000000000090565b61093d604080517f8b73c3c69bb8fe3d512ecc4cf759cc79239f7b179b0ffacaa9a75d522b39400f60208201527f0000000000000000000000000000000000000000000000000000000000000000918101919091527f000000000000000000000000000000000000000000000000000000000000000060608201524660808201523060a082015260009060c00160405160208183030381529060405280519060200120905090565b60008061142e610b37565b90508065ffffffffffff16831061146957604051637669fc0f60e11b81526004810184905265ffffffffffff821660248201526044016106b3565b610e3783611964565b8154600090818160058111156114d157600061148d8461199b565b611497908561287b565b60008881526020902090915081015465ffffffffffff90811690871610156114c1578091506114cf565b6114cc816001612801565b92505b505b60006114df87878585611af4565b9050801561151a57611504876114f660018461287b565b600091825260209091200190565b54600160301b90046001600160d01b031661151d565b60005b979650505050505050565b611530611b56565b600b805460ff60a01b191690557f5db9ee0a495bf2e6ff9c91a7834c1ba4fdd244a5e8aa4e537bd38aeae4b073aa335b6040516001600160a01b03909116815260200160405180910390a1565b6001600160a01b0382166115a757604051634b637e8f60e11b8152600060048201526024016106b3565b610a208260008361187c565b600061093d43611964565b6001600160a01b0382811660008181526008602052604080822080548686166001600160a01b0319821681179092559151919094169392849290917f3134e8a2e6d97e929a7e54011ea5485d7d196dd5f0ba4d4ef95803e8e3fc257f9190a46111e8818361162b86611b80565b611b9e565b6001600160a01b0381166000908152600960205260408120546108b890611d0a565b600b80546001600160a01b038381166001600160a01b0319831681179093556040519116919082907f8be0079c531659141344cd1fd0a4f28419497f9722a3daafe3b4186f6b6457e090600090a35050565b6001600160a01b0381166000908152600760205260408120546108b8565b6116ca611d3b565b600b805460ff60a01b1916600160a01b1790557f62e78cea01bee320cd4e420270b5ea74000d11b0c9f74754ebdbfc544b05a2586115603390565b606061093d7f00000000000000000000000000000000000000000000000000000000000000006005611d66565b606061093d7f00000000000000000000000000000000000000000000000000000000000000006006611d66565b8054600090801561178f57611779836114f660018461287b565b54600160301b90046001600160d01b0316610e37565b60009392505050565b60006108b86117a56112f8565b8360405161190160f01b8152600281019290925260228201526042902090565b6000806000806117d788888888611e11565b9250925092506117e78282611ee0565b50909695505050505050565b6001600160a01b03821660009081526007602052604090208054600181019091558181146111e8576040516301d4b62360e61b81526001600160a01b0384166004820152602481018290526044016106b3565b60408051808201909152600080825260208201526001600160a01b0383166000908152600960205260409020610e379083611f99565b611884611d3b565b6111e8838383612009565b6001600160a01b0384166118b95760405163e602df0560e01b8152600060048201526024016106b3565b6001600160a01b0383166118e357604051634a1406b160e11b8152600060048201526024016106b3565b6001600160a01b038085166000908152600160209081526040808320938716835292905220829055801561126657826001600160a01b0316846001600160a01b03167f8c5be1e5ebec7d5bd14f71427d1e84f3dd0314c0f7b2291e5b200ac8c7c3b9258460405161195691815260200190565b60405180910390a350505050565b600065ffffffffffff821115611997576040516306dfcc6560e41b815260306004820152602481018390526044016106b3565b5090565b6000600182116119a9575090565b816001600160801b82106119c25760809190911c9060401b5b6801000000000000000082106119dd5760409190911c9060201b5b64010000000082106119f45760209190911c9060101b5b620100008210611a095760109190911c9060081b5b6101008210611a1d5760089190911c9060041b5b60108210611a305760049190911c9060021b5b60048210611a3c5760011b5b600302600190811c90818581611a5457611a546128d5565b048201901c90506001818581611a6c57611a6c6128d5565b048201901c90506001818581611a8457611a846128d5565b048201901c90506001818581611a9c57611a9c6128d5565b048201901c90506001818581611ab457611ab46128d5565b048201901c90506001818581611acc57611acc6128d5565b048201901c9050611aeb818581611ae557611ae56128d5565b04821190565b90039392505050565b60005b81831015611b4e576000611b0b8484612070565b60008781526020902090915065ffffffffffff86169082015465ffffffffffff161115611b3a57809250611b48565b611b45816001612801565b93505b50611af7565b509392505050565b600b54600160a01b900460ff1661098e57604051638dfc202b60e01b815260040160405180910390fd5b6001600160a01b0381166000908152602081905260408120546108b8565b816001600160a01b0316836001600160a01b031614158015611bc05750600081115b156111e8576001600160a01b03831615611c68576001600160a01b03831660009081526009602052604081208190611c0390611199611bfe8661208b565b6120bf565b6001600160d01b031691506001600160d01b03169150846001600160a01b03167fdec2bacdd2f05b59de34da9b523dff8be42e5e38e818c82fdb0bae774387a7248383604051611c5d929190918252602082015260400190565b60405180910390a250505b6001600160a01b038216156111e8576001600160a01b03821660009081526009602052604081208190611ca19061118d611bfe8661208b565b6001600160d01b031691506001600160d01b03169150836001600160a01b03167fdec2bacdd2f05b59de34da9b523dff8be42e5e38e818c82fdb0bae774387a7248383604051611cfb929190918252602082015260400190565b60405180910390a25050505050565b600063ffffffff821115611997576040516306dfcc6560e41b815260206004820152602481018390526044016106b3565b600b54600160a01b900460ff161561098e5760405163d93c066560e01b815260040160405180910390fd5b606060ff8314611d8057611d79836120f8565b90506108b8565b818054611d8c90612841565b80601f0160208091040260200160405190810160405280929190818152602001828054611db890612841565b8015611e055780601f10611dda57610100808354040283529160200191611e05565b820191906000526020600020905b815481529060010190602001808311611de857829003601f168201915b505050505090506108b8565b600080807f7fffffffffffffffffffffffffffffff5d576e7357a4501ddfe92f46681b20a0841115611e4c5750600091506003905082611ed6565b604080516000808252602082018084528a905260ff891692820192909252606081018790526080810186905260019060a0016020604051602081039080840390855afa158015611ea0573d6000803e3d6000fd5b5050604051601f1901519150506001600160a01b038116611ecc57506000925060019150829050611ed6565b9250600091508190505b9450945094915050565b6000826003811115611ef457611ef46128eb565b03611efd575050565b6001826003811115611f1157611f116128eb565b03611f2f5760405163f645eedf60e01b815260040160405180910390fd5b6002826003811115611f4357611f436128eb565b03611f645760405163fce698f760e01b8152600481018290526024016106b3565b6003826003811115611f7857611f786128eb565b03610a20576040516335e2f38360e21b8152600481018290526024016106b3565b6040805180820190915260008082526020820152826000018263ffffffff1681548110611fc857611fc8612901565b60009182526020918290206040805180820190915291015465ffffffffffff81168252600160301b90046001600160d01b0316918101919091529392505050565b612014838383612137565b6001600160a01b03831661206557600061202d60025490565b90506001600160d01b038082111561206257604051630e58ae9360e11b815260048101839052602481018290526044016106b3565b50505b6111e8838383612261565b600061207f6002848418612917565b610e3790848416612801565b60006001600160d01b03821115611997576040516306dfcc6560e41b815260d06004820152602481018390526044016106b3565b6000806120eb6120cd610b37565b6120e36120d98861175f565b868863ffffffff16565b8791906122d7565b915091505b935093915050565b60606000612105836122e5565b604080516020808252818301909252919250600091906020820181803683375050509182525060208101929092525090565b6001600160a01b0383166121625780600260008282546121579190612801565b909155506121d49050565b6001600160a01b038316600090815260208190526040902054818110156121b55760405163391434e360e21b81526001600160a01b038516600482015260248101829052604481018390526064016106b3565b6001600160a01b03841660009081526020819052604090209082900390555b6001600160a01b0382166121f05760028054829003905561220f565b6001600160a01b03821660009081526020819052604090208054820190555b816001600160a01b0316836001600160a01b03167fddf252ad1be2c89b69c2b068fc378daa952ba7f163c4a11628f55a4df523b3ef8360405161225491815260200190565b60405180910390a3505050565b6001600160a01b03831661228357612280600a61118d611bfe8461208b565b50505b6001600160a01b0382166122a5576122a2600a611199611bfe8461208b565b50505b6001600160a01b038381166000908152600860205260408082205485841683529120546111e892918216911683611b9e565b6000806120eb85858561230d565b600060ff8216601f8111156108b857604051632cd44ac360e21b815260040160405180910390fd5b82546000908190801561240657600061232b876114f660018561287b565b805490915065ffffffffffff80821691600160301b90046001600160d01b031690881682111561236e57604051632520601d60e01b815260040160405180910390fd5b8765ffffffffffff168265ffffffffffff16036123a757825465ffffffffffff16600160301b6001600160d01b038916021783556123f8565b6040805180820190915265ffffffffffff808a1682526001600160d01b03808a1660208085019182528d54600181018f5560008f81529190912094519151909216600160301b029216919091179101555b94508593506120f092505050565b50506040805180820190915265ffffffffffff80851682526001600160d01b0380851660208085019182528854600181018a5560008a815291822095519251909316600160301b0291909316179201919091559050816120f0565b80356001600160a01b038116811461247857600080fd5b919050565b6000806040838503121561249057600080fd5b61249983612461565b946020939093013593505050565b6000815180845260005b818110156124cd576020818501810151868301820152016124b1565b506000602082860101526020601f19601f83011685010191505092915050565b602081526000610e3760208301846124a7565b60008060006060848603121561251557600080fd5b61251e84612461565b925061252c60208501612461565b9150604084013590509250925092565b60006020828403121561254e57600080fd5b610e3782612461565b60006020828403121561256957600080fd5b5035919050565b60ff60f81b881681526000602060e0602084015261259160e084018a6124a7565b83810360408501526125a3818a6124a7565b606085018990526001600160a01b038816608086015260a0850187905284810360c08601528551808252602080880193509091019060005b818110156125f7578351835292840192918401916001016125db565b50909c9b505050505050505050505050565b803560ff8116811461247857600080fd5b60008060008060008060c0878903121561263357600080fd5b61263c87612461565b9550602087013594506040870135935061265860608801612609565b92506080870135915060a087013590509295509295509295565b600080600080600080600060e0888a03121561268d57600080fd5b61269688612461565b96506126a460208901612461565b955060408801359450606088013593506126c060808901612609565b925060a0880135915060c0880135905092959891949750929550565b600080604083850312156126ef57600080fd5b6126f883612461565b915061270660208401612461565b90509250929050565b6000806040838503121561272257600080fd5b61272b83612461565b9150602083013563ffffffff8116811461274457600080fd5b809150509250929050565b602080825260169082015275139bdd08185d5d1a1bdc9a5e9959081d1bc81b5a5b9d60521b604082015260600190565b6020808252601b908201527f43616e6e6f74206d696e7420746f207a65726f20616464726573730000000000604082015260600190565b6020808252818101527f416d6f756e74206d7573742062652067726561746572207468616e207a65726f604082015260600190565b634e487b7160e01b600052601160045260246000fd5b808201808211156108b8576108b86127eb565b60208082526013908201527213585e081cdd5c1c1b1e48195e18d959591959606a1b604082015260600190565b600181811c9082168061285557607f821691505b60208210810361287557634e487b7160e01b600052602260045260246000fd5b50919050565b818103818111156108b8576108b86127eb565b6001600160d01b038181168382160190808211156128ae576128ae6127eb565b5092915050565b6001600160d01b038281168282160390808211156128ae576128ae6127eb565b634e487b7160e01b600052601260045260246000fd5b634e487b7160e01b600052602160045260246000fd5b634e487b7160e01b600052603260045260246000fd5b60008261293457634e487b7160e01b600052601260045260246000fd5b50049056fea264697066735822122032a0142bbfbbcd8dac17b2a779e097047faf775b0e93c7bf41f32f71b0c6f3a364736f6c63430008180033dec2bacdd2f05b59de34da9b523dff8be42e5e38e818c82fdb0bae774387a724",
  "linkReferences": {},
  "deployedLinkReferences": {}
}