{
  "_format": "hh-sol-artifact-1",
  "contractName": "GrepToken",
  "sourceName": "contracts/GrepToken.sol",
  "abi": [
    {
      "inputs": [],
      "stateMutability": "nonpayable",
      "type": "constructor"
    },
    {
      "inputs": [],
      "name": "ECDSAInvalidSignature",
      "type": "error"
    },
    {
      "inputs": [
        {
          "internalType": "uint256",
          "name": "length",
          "type": "uint256"
        }
      ],
      "name": "ECDSAInvalidSignatureLength",
      "type": "error"
    },
    {
      "inputs": [
        {
          "internalType": "bytes32",
          "name": "s",
          "type": "bytes32"
        }
      ],
      "name": "ECDSAInvalidSignatureS",
      "type": "error"
    },
    {
      "inputs": [
        {
          "internalType": "address",
          "name": "spender",
          "type": "address"
        },
        {
          "internalType": "uint256",
          "name": "allowance",
          "type": "uint256"
        },
        {
          "internalType": "uint256",
          "name": "needed",
          "type": "uint256"
        }
      ],
      "name": "ERC20InsufficientAllowance",
      "type": "error"
    },
    {
      "inputs": [
        {
          "internalType": "address",
          "name": "sender",
          "type": "address"
        },
        {
          "internalType": "uint256",
          "name": "balance",
          "type": "uint256"
        },
        {
          "internalType": "uint256",
          "name": "needed",
          "type": "uint256"
        }
      ],
      "name": "ERC20InsufficientBalance",
      "type": "error"
    },
    {
      "inputs": [
        {
          "internalType": "address",
          "name": "approver",
          "type": "address"
        }
      ],
      "name": "ERC20InvalidApprover",
      "type": "error"
    },
    {
      "inputs": [
        {
          "internalType": "address",
          "name": "receiver",
          "type": "address"
        }
      ],
      "name": "ERC20InvalidReceiver",
      "type": "error"
    },
    {
      "inputs": [
        {
          "internalType": "address",
          "name": "sender",
          "type": "address"
        }
      ],
      "name": "ERC20InvalidSender",
      "type": "error"
    },
    {
      "inputs": [
        {
          "internalType": "address",
          "name": "spender",
          "type": "address"
        }
      ],
      "name": "ERC20InvalidSpender",
      "type": "error"
    },
    {
      "inputs": [
        {
          "internalType": "uint256",
          "name": "deadline",
          "type": "uint256"
        }
      ],
      "name": "ERC2612ExpiredSignature",
      "type": "error"
    },
    {
      "inputs": [
        {
          "internalType": "address",
          "name": "signer",
          "type": "address"
        },
        {
          "internalType": "address",
          "name": "owner",
          "type": "address"
        }
      ],
      "name": "ERC2612InvalidSigner",
      "type": "error"
    },
    {
      "inputs": [],
      "name": "EnforcedPause",
      "type": "error"
    },
    {
      "inputs": [],
      "name": "ExpectedPause",
      "type": "error"
    },
    {
      "inputs": [
        {
          "internalType": "address",
          "name": "account",
          "type": "address"
        },
        {
          "internalType": "uint256",
          "name": "currentNonce",
          "type": "uint256"
        }
      ],
      "name": "InvalidAccountNonce",
      "type": "error"
    },
    {
      "inputs": [],
      "name": "InvalidShortString",
      "type": "error"
    },
    {
      "inputs": [
        {
          "internalType": "address",
          "name": "owner",
          "type": "address"
        }
      ],
      "name": "OwnableInvalidOwner",
      "type": "error"
    },
    {
      "inputs": [
        {
          "internalType": "address",
          "name": "account",
          "type": "address"
        }
      ],
      "name": "OwnableUnauthorizedAccount",
      "type": "error"
    },
    {
      "inputs": [
        {
          "internalType": "string",
          "name": "str",
          "type": "string"
        }
      ],
      "name": "StringTooLong",
      "type": "error"
    },
    {
      "anonymous": false,
      "inputs": [
        {
          "indexed": true,
          "internalType": "address",
          "name": "to",
          "type": "address"
        },
        {
          "indexed": false,
          "internalType": "uint256",
          "name": "amount",
          "type": "uint256"
        }
      ],
      "name": "AirdropMinted",
      "type": "event"
    },
    {
      "anonymous": false,
      "inputs": [
        {
          "indexed": true,
          "internalType": "address",
          "name": "owner",
          "type": "address"
        },
        {
          "indexed": true,
          "internalType": "address",
          "name": "spender",
          "type": "address"
        },
        {
          "indexed": false,
          "internalType": "uint256",
          "name": "value",
          "type": "uint256"
        }
      ],
      "name": "Approval",
      "type": "event"
    },
    {
      "anonymous": false,
      "inputs": [],
      "name": "EIP712DomainChanged",
      "type": "event"
    },
    {
      "anonymous": false,
      "inputs": [
        {
          "indexed": true,
          "internalType": "address",
          "name": "to",
          "type": "address"
        },
        {
          "indexed": false,
          "internalType": "uint256",
          "name": "amount",
          "type": "uint256"
        }
      ],
      "name": "GameplayRewardsMinted",
      "type": "event"
    },
    {
      "anonymous": false,
      "inputs": [
        {
          "indexed": true,
          "internalType": "address",
          "name": "minter",
          "type": "address"
        }
      ],
      "name": "MinterAdded",
      "type": "event"
    },
    {
      "anonymous": false,
      "inputs": [
        {
          "indexed": true,
          "internalType": "address",
          "name": "minter",
          "type": "address"
        }
      ],
      "name": "MinterRemoved",
      "type": "event"
    },
    {
      "anonymous": false,
      "inputs": [
        {
          "indexed": true,
          "internalType": "address",
          "name": "previousOwner",
          "type": "address"
        },
        {
          "indexed": true,
          "internalType": "address",
          "name": "newOwner",
          "type": "address"
        }
      ],
      "name": "OwnershipTransferred",
      "type": "event"
    },
    {
      "anonymous": false,
      "inputs": [
        {
          "indexed": false,
          "internalType": "address",
          "name": "account",
          "type": "address"
        }
      ],
      "name": "Paused",
      "type": "event"
    },
    {
      "anonymous": false,
      "inputs": [
        {
          "indexed": true,
          "internalType": "address",
          "name": "to",
          "type": "address"
        },
        {
          "indexed": false,
          "internalType": "uint256",
          "name": "amount",
          "type": "uint256"
        }
      ],
      "name": "StakingRewardsMinted",
      "type": "event"
    },
    {
      "anonymous": false,
      "inputs": [
        {
          "indexed": true,
          "internalType": "address",
          "name": "from",
          "type": "address"
        },
        {
          "indexed": true,
          "internalType": "address",
          "name": "to",
          "type": "address"
        },
        {
          "indexed": false,
          "internalType": "uint256",
          "name": "value",
          "type": "uint256"
        }
      ],
      "name": "Transfer",
      "type": "event"
    },
    {
      "anonymous": false,
      "inputs": [
        {
          "indexed": false,
          "internalType": "address",
          "name": "account",
          "type": "address"
        }
      ],
      "name": "Unpaused",
      "type": "event"
    },
    {
      "inputs": [],
      "name": "AIRDROPS_CAP",
      "outputs": [
        {
          "internalType": "uint256",
          "name": "",
          "type": "uint256"
        }
      ],
      "stateMutability": "view",
      "type": "function"
    },
    {
      "inputs": [],
      "name": "DOMAIN_SEPARATOR",
      "outputs": [
        {
          "internalType": "bytes32",
          "name": "",
          "type": "bytes32"
        }
      ],
      "stateMutability": "view",
      "type": "function"
    },
    {
      "inputs": [],
      "name": "GAMEPLAY_REWARDS_CAP",
      "outputs": [
        {
          "internalType": "uint256",
          "name": "",
          "type": "uint256"
        }
      ],
      "stateMutability": "view",
      "type": "function"
    },
    {
      "inputs": [],
      "name": "MAX_SUPPLY",
      "outputs": [
        {
          "internalType": "uint256",
          "name": "",
          "type": "uint256"
        }
      ],
      "stateMutability": "view",
      "type": "function"
    },
    {
      "inputs": [],
      "name": "STAKING_REWARDS_CAP",
      "outputs": [
        {
          "internalType": "uint256",
          "name": "",
          "type": "uint256"
        }
      ],
      "stateMutability": "view",
      "type": "function"
    },
    {
      "inputs": [
        {
          "internalType": "address",
          "name": "minter",
          "type": "address"
        }
      ],
      "name": "addMinter",
      "outputs": [],
      "stateMutability": "nonpayable",
      "type": "function"
    },
    {
      "inputs": [],
      "name": "airdropsMinted",
      "outputs": [
        {
          "internalType": "uint256",
          "name": "",
          "type": "uint256"
        }
      ],
      "stateMutability": "view",
      "type": "function"
    },
    {
      "inputs": [
        {
          "internalType": "address",
          "name": "owner",
          "type": "address"
        },
        {
          "internalType": "address",
          "name": "spender",
          "type": "address"
        }
      ],
      "name": "allowance",
      "outputs": [
        {
          "internalType": "uint256",
          "name": "",
          "type": "uint256"
        }
      ],
      "stateMutability": "view",
      "type": "function"
    },
    {
      "inputs": [
        {
          "internalType": "address",
          "name": "spender",
          "type": "address"
        },
        {
          "internalType": "uint256",
          "name": "value",
          "type": "uint256"
        }
      ],
      "name": "approve",
      "outputs": [
        {
          "internalType": "bool",
          "name": "",
          "type": "bool"
        }
      ],
      "stateMutability": "nonpayable",
      "type": "function"
    },
    {
      "inputs": [
        {
          "internalType": "address",
          "name": "account",
          "type": "address"
        }
      ],
      "name": "balanceOf",
      "outputs": [
        {
          "internalType": "uint256",
          "name": "",
          "type": "uint256"
        }
      ],
      "stateMutability": "view",
      "type": "function"
    },
    {
      "inputs": [
        {
          "internalType": "uint256",
          "name": "value",
          "type": "uint256"
        }
      ],
      "name": "burn",
      "outputs": [],
      "stateMutability": "nonpayable",
      "type": "function"
    },
    {
      "inputs": [
        {
          "internalType": "address",
          "name": "account",
          "type": "address"
        },
        {
          "internalType": "uint256",
          "name": "value",
          "type": "uint256"
        }
      ],
      "name": "burnFrom",
      "outputs": [],
      "stateMutability": "nonpayable",
      "type": "function"
    },
    {
      "inputs": [],
      "name": "decimals",
      "outputs": [
        {
          "internalType": "uint8",
          "name": "",
          "type": "uint8"
        }
      ],
      "stateMutability": "view",
      "type": "function"
    },
    {
      "inputs": [],
      "name": "eip712Domain",
      "outputs": [
        {
          "internalType": "bytes1",
          "name": "fields",
          "type": "bytes1"
        },
        {
          "internalType": "string",
          "name": "name",
          "type": "string"
        },
        {
          "internalType": "string",
          "name": "version",
          "type": "string"
        },
        {
          "internalType": "uint256",
          "name": "chainId",
          "type": "uint256"
        },
        {
          "internalType": "address",
          "name": "verifyingContract",
          "type": "address"
        },
        {
          "internalType": "bytes32",
          "name": "salt",
          "type": "bytes32"
        },
        {
          "internalType": "uint256[]",
          "name": "extensions",
          "type": "uint256[]"
        }
      ],
      "stateMutability": "view",
      "type": "function"
    },
    {
      "inputs": [],
      "name": "gameplayRewardsMinted",
      "outputs": [
        {
          "internalType": "uint256",
          "name": "",
          "type": "uint256"
        }
      ],
      "stateMutability": "view",
      "type": "function"
    },
    {
      "inputs": [],
      "name": "getRemainingMintable",
      "outputs": [
        {
          "internalType": "uint256",
          "name": "stakingRemaining",
          "type": "uint256"
        },
        {
          "internalType": "uint256",
          "name": "gameplayRemaining",
          "type": "uint256"
        },
        {
          "internalType": "uint256",
          "name": "airdropsRemaining",
          "type": "uint256"
        }
      ],
      "stateMutability": "view",
      "type": "function"
    },
    {
      "inputs": [
        {
          "internalType": "address",
          "name": "to",
          "type": "address"
        },
        {
          "internalType": "uint256",
          "name": "amount",
          "type": "uint256"
        }
      ],
      "name": "mintAirdrop",
      "outputs": [],
      "stateMutability": "nonpayable",
      "type": "function"
    },
    {
      "inputs": [
        {
          "internalType": "address",
          "name": "to",
          "type": "address"
        },
        {
          "internalType": "uint256",
          "name": "amount",
          "type": "uint256"
        }
      ],
      "name": "mintGameplayRewards",
      "outputs": [],
      "stateMutability": "nonpayable",
      "type": "function"
    },
    {
      "inputs": [
        {
          "internalType": "address",
          "name": "to",
          "type": "address"
        },
        {
          "internalType": "uint256",
          "name": "amount",
          "type": "uint256"
        }
      ],
      "name": "mintStakingRewards",
      "outputs": [],
      "stateMutability": "nonpayable",
      "type": "function"
    },
    {
      "inputs": [
        {
          "internalType": "address",
          "name": "",
          "type": "address"
        }
      ],
      "name": "minters",
      "outputs": [
        {
          "internalType": "bool",
          "name": "",
          "type": "bool"
        }
      ],
      "stateMutability": "view",
      "type": "function"
    },
    {
      "inputs": [],
      "name": "name",
      "outputs": [
        {
          "internalType": "string",
          "name": "",
          "type": "string"
        }
      ],
      "stateMutability": "view",
      "type": "function"
    },
    {
      "inputs": [
        {
          "internalType": "address",
          "name": "owner",
          "type": "address"
        }
      ],
      "name": "nonces",
      "outputs": [
        {
          "internalType": "uint256",
          "name": "",
          "type": "uint256"
        }
      ],
      "stateMutability": "view",
      "type": "function"
    },
    {
      "inputs": [],
      "name": "owner",
      "outputs": [
        {
          "internalType": "address",
          "name": "",
          "type": "address"
        }
      ],
      "stateMutability": "view",
      "type": "function"
    },
    {
      "inputs": [],
      "name": "pause",
      "outputs": [],
      "stateMutability": "nonpayable",
      "type": "function"
    },
    {
      "inputs": [],
      "name": "paused",
      "outputs": [
        {
          "internalType": "bool",
          "name": "",
          "type": "bool"
        }
      ],
      "stateMutability": "view",
      "type": "function"
    },
    {
      "inputs": [
        {
          "internalType": "address",
          "name": "owner",
          "type": "address"
        },
        {
          "internalType": "address",
          "name": "spender",
          "type": "address"
        },
        {
          "internalType": "uint256",
          "name": "value",
          "type": "uint256"
        },
        {
          "internalType": "uint256",
          "name": "deadline",
          "type": "uint256"
        },
        {
          "internalType": "uint8",
          "name": "v",
          "type": "uint8"
        },
        {
          "internalType": "bytes32",
          "name": "r",
          "type": "bytes32"
        },
        {
          "internalType": "bytes32",
          "name": "s",
          "type": "bytes32"
        }
      ],
      "name": "permit",
      "outputs": [],
      "stateMutability": "nonpayable",
      "type": "function"
    },
    {
      "inputs": [
        {
          "internalType": "address",
          "name": "minter",
          "type": "address"
        }
      ],
      "name": "removeMinter",
      "outputs": [],
      "stateMutability": "nonpayable",
      "type": "function"
    },
    {
      "inputs": [],
      "name": "renounceOwnership",
      "outputs": [],
      "stateMutability": "nonpayable",
      "type": "function"
    },
    {
      "inputs": [],
      "name": "stakingRewardsMinted",
      "outputs": [
        {
          "internalType": "uint256",
          "name": "",
          "type": "uint256"
        }
      ],
      "stateMutability": "view",
      "type": "function"
    },
    {
      "inputs": [],
      "name": "symbol",
      "outputs": [
        {
          "internalType": "string",
          "name": "",
          "type": "string"
        }
      ],
      "stateMutability": "view",
      "type": "function"
    },
    {
      "inputs": [],
      "name": "totalSupply",
      "outputs": [
        {
          "internalType": "uint256",
          "name": "",
          "type": "uint256"
        }
      ],
      "stateMutability": "view",
      "type": "function"
    },
    {
      "inputs": [
        {
          "internalType": "address",
          "name": "to",
          "type": "address"
        },
        {
          "internalType": "uint256",
          "name": "value",
          "type": "uint256"
        }
      ],
      "name": "transfer",
      "outputs": [
        {
          "internalType": "bool",
          "name": "",
          "type": "bool"
        }
      ],
      "stateMutability": "nonpayable",
      "type": "function"
    },
    {
      "inputs": [
        {
          "internalType": "address",
          "name": "from",
          "type": "address"
        },
        {
          "internalType": "address",
          "name": "to",
          "type": "address"
        },
        {
          "internalType": "uint256",
          "name": "value",
          "type": "uint256"
        }
      ],
      "name": "transferFrom",
      "outputs": [
        {
          "internalType": "bool",
          "name": "",
          "type": "bool"
        }
      ],
      "stateMutability": "nonpayable",
      "type": "function"
    },
    {
      "inputs": [
        {
          "internalType": "address",
          "name": "newOwner",
          "type": "address"
        }
      ],
      "name": "transferOwnership",
      "outputs": [],
      "stateMutability": "nonpayable",
      "type": "function"
    },
    {
      "inputs": [],
      "name": "unpause",
      "outputs": [],
      "stateMutability": "nonpayable",
      "type": "function"
    }
  ],
  "bytecode": "0x6101606040523480156200001257600080fd5b50336040518060400160405280600881526020016723b932b821b7b4b760c11b81525080604051806040016040528060018152602001603160f81b8152506040518060400160405280600881526020016723b932b821b7b4b760c11b815250604051806040016040528060048152602001630475245560e41b81525081600390816200009f9190620004f9565b506004620000ae8282620004f9565b50620000c091508390506005620001c3565b61012052620000d1816006620001c3565b61014052815160208084019190912060e052815190820120610100524660a0526200015f60e05161010051604080517f8b73c3c69bb8fe3d512ecc4cf759cc79239f7b179b0ffacaa9a75d522b39400f60208201529081019290925260608201524660808201523060a082015260009060c00160405160208183030381529060405280519060200120905090565b60805250503060c052506001600160a01b0381166200019957604051631e4fbdf760e01b8152600060048201526024015b60405180910390fd5b620001a481620001fc565b50620001bd336b014adf4b7320334b900000006200024e565b6200065d565b6000602083511015620001e357620001db836200028c565b9050620001f6565b81620001f08482620004f9565b5060ff90505b92915050565b600880546001600160a01b038381166001600160a01b0319831681179093556040519116919082907f8be0079c531659141344cd1fd0a4f28419497f9722a3daafe3b4186f6b6457e090600090a35050565b6001600160a01b0382166200027a5760405163ec442f0560e01b81526000600482015260240162000190565b6200028860008383620002cf565b5050565b600080829050601f81511115620002ba578260405163305a27a960e01b8152600401620001909190620005c5565b8051620002c78262000616565b179392505050565b620002d9620002eb565b620002e683838362000320565b505050565b620002ff600854600160a01b900460ff1690565b156200031e5760405163d93c066560e01b815260040160405180910390fd5b565b6001600160a01b0383166200034f5780600260008282546200034391906200063b565b90915550620003c39050565b6001600160a01b03831660009081526020819052604090205481811015620003a45760405163391434e360e21b81526001600160a01b0385166004820152602481018290526044810183905260640162000190565b6001600160a01b03841660009081526020819052604090209082900390555b6001600160a01b038216620003e15760028054829003905562000400565b6001600160a01b03821660009081526020819052604090208054820190555b816001600160a01b0316836001600160a01b03167fddf252ad1be2c89b69c2b068fc378daa952ba7f163c4a11628f55a4df523b3ef836040516200044691815260200190565b60405180910390a3505050565b634e487b7160e01b600052604160045260246000fd5b600181811c908216806200047e57607f821691505b6020821081036200049f57634e487b7160e01b600052602260045260246000fd5b50919050565b601f821115620002e6576000816000526020600020601f850160051c81016020861015620004d05750805b601f850160051c820191505b81811015620004f157828155600101620004dc565b505050505050565b81516001600160401b0381111562000515576200051562000453565b6200052d8162000526845462000469565b84620004a5565b602080601f8311600181146200056557600084156200054c5750858301515b600019600386901b1c1916600185901b178555620004f1565b600085815260208120601f198616915b82811015620005965788860151825594840194600190910190840162000575565b5085821015620005b55787850151600019600388901b60f8161c191681555b5050505050600190811b01905550565b60006020808352835180602085015260005b81811015620005f557858101830151858201604001528201620005d7565b506000604082860101526040601f19601f8301168501019250505092915050565b805160208083015191908110156200049f5760001960209190910360031b1b16919050565b80820180821115620001f657634e487b7160e01b600052601160045260246000fd5b60805160a05160c05160e051610100516101205161014051611a05620006b8600039600061110f015260006110e201526000610f6a01526000610f4201526000610e9d01526000610ec701526000610ef10152611a056000f3fe608060405234801561001057600080fd5b50600436106102115760003560e01c806379cc679011610125578063a9059cbb116100ad578063edc56cf51161007c578063edc56cf51461046c578063f2fde38b1461047e578063f46eccc414610491578063f82c29ae146104b4578063fdd7c402146104c757600080fd5b8063a9059cbb146103fb578063d3ff1c3b1461040e578063d505accf14610420578063dd62ed3e1461043357600080fd5b80638a1e5601116100f45780638a1e5601146103b35780638da5cb5b146103bc57806395d89b41146103d7578063983b2d56146103df5780639e1ab91d146103f257600080fd5b806379cc67901461036a5780637ecebe001461037d5780638456cb591461039057806384b0196e1461039857600080fd5b806332cb6b0c116101a85780635c975abb116101775780635c975abb146102f25780636f97e31c1461030457806370a0823114610327578063715018a6146103505780637664ce121461035857600080fd5b806332cb6b0c146102bc5780633644e515146102cf5780633f4ba83a146102d757806342966c68146102df57600080fd5b806323b872dd116101e457806323b872dd1461027e578063283fd37b146102915780633092afd51461029a578063313ce567146102ad57600080fd5b80630194a7ca1461021657806306fdde031461022b578063095ea7b31461024957806318160ddd1461026c575b600080fd5b6102296102243660046116ad565b6104da565b005b610233610637565b604051610240919061171d565b60405180910390f35b61025c6102573660046116ad565b6106c9565b6040519015158152602001610240565b6002545b604051908152602001610240565b61025c61028c366004611737565b6106e3565b610270600b5481565b6102296102a8366004611773565b610707565b60405160128152602001610240565b6102706b033b2e3c9fd0803ce800000081565b610270610758565b610229610767565b6102296102ed36600461178e565b610779565b600854600160a01b900460ff1661025c565b61030c610786565b60408051938452602084019290925290820152606001610240565b610270610335366004611773565b6001600160a01b031660009081526020819052604090205490565b6102296107e1565b6102706aa56fa5b99019a5c800000081565b6102296103783660046116ad565b6107f3565b61027061038b366004611773565b61080c565b61022961082a565b6103a061083a565b60405161024097969594939291906117a7565b610270600a5481565b6008546040516001600160a01b039091168152602001610240565b610233610880565b6102296103ed366004611773565b61088f565b610270600c5481565b61025c6104093660046116ad565b610932565b6102706a52b7d2dcc80cd2e400000081565b61022961042e366004611840565b610940565b6102706104413660046118b3565b6001600160a01b03918216600090815260016020908152604080832093909416825291909152205490565b6102706af8277896582678ac00000081565b61022961048c366004611773565b610a7a565b61025c61049f366004611773565b60096020526000908152604090205460ff1681565b6102296104c23660046116ad565b610ab5565b6102296104d53660046116ad565b610bfd565b3360009081526009602052604090205460ff168061050257506008546001600160a01b031633145b6105275760405162461bcd60e51b815260040161051e906118e6565b60405180910390fd5b6af8277896582678ac00000081600a54610541919061192c565b111561058f5760405162461bcd60e51b815260206004820152601c60248201527f5374616b696e6720726577617264732063617020657863656564656400000000604482015260640161051e565b6b033b2e3c9fd0803ce8000000816105a660025490565b6105b0919061192c565b11156105ce5760405162461bcd60e51b815260040161051e9061193f565b80600a60008282546105e0919061192c565b909155506105f090508282610d3d565b816001600160a01b03167f84065b24c0c720f66ae9be3e0b0de201cac7c5ce0ea04c8bc34c3f2e1fc95ba48260405161062b91815260200190565b60405180910390a25050565b6060600380546106469061196c565b80601f01602080910402602001604051908101604052809291908181526020018280546106729061196c565b80156106bf5780601f10610694576101008083540402835291602001916106bf565b820191906000526020600020905b8154815290600101906020018083116106a257829003601f168201915b5050505050905090565b6000336106d7818585610d73565b60019150505b92915050565b6000336106f1858285610d85565b6106fc858585610e04565b506001949350505050565b61070f610e63565b6001600160a01b038116600081815260096020526040808220805460ff19169055517fe94479a9f7e1952cc78f2d6baab678adc1b772d936c6583def489e524cb666929190a250565b6000610762610e90565b905090565b61076f610e63565b610777610fbb565b565b6107833382611010565b50565b6000806000600a546af8277896582678ac0000006107a491906119a6565b9250600b546aa56fa5b99019a5c80000006107bf91906119a6565b9150600c546a52b7d2dcc80cd2e40000006107da91906119a6565b9050909192565b6107e9610e63565b6107776000611046565b6107fe823383610d85565b6108088282611010565b5050565b6001600160a01b0381166000908152600760205260408120546106dd565b610832610e63565b610777611098565b60006060806000806000606061084e6110db565b610856611108565b60408051600080825260208201909252600f60f81b9b939a50919850469750309650945092509050565b6060600480546106469061196c565b610897610e63565b6001600160a01b0381166108e65760405162461bcd60e51b8152602060048201526016602482015275496e76616c6964206d696e746572206164647265737360501b604482015260640161051e565b6001600160a01b038116600081815260096020526040808220805460ff19166001179055517f6ae172837ea30b801fbfcdd4108aa1d5bf8ff775444fd70256b44e6bf3dfc3f69190a250565b6000336106d7818585610e04565b834211156109645760405163313c898160e11b81526004810185905260240161051e565b60007f6e71edae12b1b97f4d1f60370fef10105fa2faae0126114a169c64845d6126c98888886109b18c6001600160a01b0316600090815260076020526040902080546001810190915590565b6040805160208101969096526001600160a01b0394851690860152929091166060840152608083015260a082015260c0810186905260e0016040516020818303038152906040528051906020012090506000610a0c82611135565b90506000610a1c82878787611162565b9050896001600160a01b0316816001600160a01b031614610a63576040516325c0072360e11b81526001600160a01b0380831660048301528b16602482015260440161051e565b610a6e8a8a8a610d73565b50505050505050505050565b610a82610e63565b6001600160a01b038116610aac57604051631e4fbdf760e01b81526000600482015260240161051e565b61078381611046565b3360009081526009602052604090205460ff1680610add57506008546001600160a01b031633145b610af95760405162461bcd60e51b815260040161051e906118e6565b6aa56fa5b99019a5c800000081600b54610b13919061192c565b1115610b615760405162461bcd60e51b815260206004820152601d60248201527f47616d65706c6179207265776172647320636170206578636565646564000000604482015260640161051e565b6b033b2e3c9fd0803ce800000081610b7860025490565b610b82919061192c565b1115610ba05760405162461bcd60e51b815260040161051e9061193f565b80600b6000828254610bb2919061192c565b90915550610bc290508282610d3d565b816001600160a01b03167f785744576493a526087542942e96639e7eb10c5b6f11f54b5399815751eabf298260405161062b91815260200190565b3360009081526009602052604090205460ff1680610c2557506008546001600160a01b031633145b610c415760405162461bcd60e51b815260040161051e906118e6565b6a52b7d2dcc80cd2e400000081600c54610c5b919061192c565b1115610ca15760405162461bcd60e51b8152602060048201526015602482015274105a5c991c9bdc1cc818d85c08195e18d959591959605a1b604482015260640161051e565b6b033b2e3c9fd0803ce800000081610cb860025490565b610cc2919061192c565b1115610ce05760405162461bcd60e51b815260040161051e9061193f565b80600c6000828254610cf2919061192c565b90915550610d0290508282610d3d565b816001600160a01b03167fef1585cd9743b170e77a247f0c35cd842dbb8b59cb1981becbc26f7ec1a7fc568260405161062b91815260200190565b6001600160a01b038216610d675760405163ec442f0560e01b81526000600482015260240161051e565b61080860008383611190565b610d8083838360016111a3565b505050565b6001600160a01b03838116600090815260016020908152604080832093861683529290522054600019811015610dfe5781811015610def57604051637dc7a0d960e11b81526001600160a01b0384166004820152602481018290526044810183905260640161051e565b610dfe848484840360006111a3565b50505050565b6001600160a01b038316610e2e57604051634b637e8f60e11b81526000600482015260240161051e565b6001600160a01b038216610e585760405163ec442f0560e01b81526000600482015260240161051e565b610d80838383611190565b6008546001600160a01b031633146107775760405163118cdaa760e01b815233600482015260240161051e565b6000306001600160a01b037f000000000000000000000000000000000000000000000000000000000000000016148015610ee957507f000000000000000000000000000000000000000000000000000000000000000046145b15610f1357507f000000000000000000000000000000000000000000000000000000000000000090565b610762604080517f8b73c3c69bb8fe3d512ecc4cf759cc79239f7b179b0ffacaa9a75d522b39400f60208201527f0000000000000000000000000000000000000000000000000000000000000000918101919091527f000000000000000000000000000000000000000000000000000000000000000060608201524660808201523060a082015260009060c00160405160208183030381529060405280519060200120905090565b610fc3611278565b6008805460ff60a01b191690557f5db9ee0a495bf2e6ff9c91a7834c1ba4fdd244a5e8aa4e537bd38aeae4b073aa335b6040516001600160a01b03909116815260200160405180910390a1565b6001600160a01b03821661103a57604051634b637e8f60e11b81526000600482015260240161051e565b61080882600083611190565b600880546001600160a01b038381166001600160a01b0319831681179093556040519116919082907f8be0079c531659141344cd1fd0a4f28419497f9722a3daafe3b4186f6b6457e090600090a35050565b6110a06112a2565b6008805460ff60a01b1916600160a01b1790557f62e78cea01bee320cd4e420270b5ea74000d11b0c9f74754ebdbfc544b05a258610ff33390565b60606107627f000000000000000000000000000000000000000000000000000000000000000060056112cd565b60606107627f000000000000000000000000000000000000000000000000000000000000000060066112cd565b60006106dd611142610e90565b8360405161190160f01b8152600281019290925260228201526042902090565b60008060008061117488888888611378565b9250925092506111848282611447565b50909695505050505050565b6111986112a2565b610d80838383611500565b6001600160a01b0384166111cd5760405163e602df0560e01b81526000600482015260240161051e565b6001600160a01b0383166111f757604051634a1406b160e11b81526000600482015260240161051e565b6001600160a01b0380851660009081526001602090815260408083209387168352929052208290558015610dfe57826001600160a01b0316846001600160a01b03167f8c5be1e5ebec7d5bd14f71427d1e84f3dd0314c0f7b2291e5b200ac8c7c3b9258460405161126a91815260200190565b60405180910390a350505050565b600854600160a01b900460ff1661077757604051638dfc202b60e01b815260040160405180910390fd5b600854600160a01b900460ff16156107775760405163d93c066560e01b815260040160405180910390fd5b606060ff83146112e7576112e08361162a565b90506106dd565b8180546112f39061196c565b80601f016020809104026020016040519081016040528092919081815260200182805461131f9061196c565b801561136c5780601f106113415761010080835404028352916020019161136c565b820191906000526020600020905b81548152906001019060200180831161134f57829003601f168201915b505050505090506106dd565b600080807f7fffffffffffffffffffffffffffffff5d576e7357a4501ddfe92f46681b20a08411156113b3575060009150600390508261143d565b604080516000808252602082018084528a905260ff891692820192909252606081018790526080810186905260019060a0016020604051602081039080840390855afa158015611407573d6000803e3d6000fd5b5050604051601f1901519150506001600160a01b0381166114335750600092506001915082905061143d565b9250600091508190505b9450945094915050565b600082600381111561145b5761145b6119b9565b03611464575050565b6001826003811115611478576114786119b9565b036114965760405163f645eedf60e01b815260040160405180910390fd5b60028260038111156114aa576114aa6119b9565b036114cb5760405163fce698f760e01b81526004810182905260240161051e565b60038260038111156114df576114df6119b9565b03610808576040516335e2f38360e21b81526004810182905260240161051e565b6001600160a01b03831661152b578060026000828254611520919061192c565b9091555061159d9050565b6001600160a01b0383166000908152602081905260409020548181101561157e5760405163391434e360e21b81526001600160a01b0385166004820152602481018290526044810183905260640161051e565b6001600160a01b03841660009081526020819052604090209082900390555b6001600160a01b0382166115b9576002805482900390556115d8565b6001600160a01b03821660009081526020819052604090208054820190555b816001600160a01b0316836001600160a01b03167fddf252ad1be2c89b69c2b068fc378daa952ba7f163c4a11628f55a4df523b3ef8360405161161d91815260200190565b60405180910390a3505050565b6060600061163783611669565b604080516020808252818301909252919250600091906020820181803683375050509182525060208101929092525090565b600060ff8216601f8111156106dd57604051632cd44ac360e21b815260040160405180910390fd5b80356001600160a01b03811681146116a857600080fd5b919050565b600080604083850312156116c057600080fd5b6116c983611691565b946020939093013593505050565b6000815180845260005b818110156116fd576020818501810151868301820152016116e1565b506000602082860101526020601f19601f83011685010191505092915050565b60208152600061173060208301846116d7565b9392505050565b60008060006060848603121561174c57600080fd5b61175584611691565b925061176360208501611691565b9150604084013590509250925092565b60006020828403121561178557600080fd5b61173082611691565b6000602082840312156117a057600080fd5b5035919050565b60ff60f81b881681526000602060e060208401526117c860e084018a6116d7565b83810360408501526117da818a6116d7565b606085018990526001600160a01b038816608086015260a0850187905284810360c08601528551808252602080880193509091019060005b8181101561182e57835183529284019291840191600101611812565b50909c9b505050505050505050505050565b600080600080600080600060e0888a03121561185b57600080fd5b61186488611691565b965061187260208901611691565b95506040880135945060608801359350608088013560ff8116811461189657600080fd5b9699959850939692959460a0840135945060c09093013592915050565b600080604083850312156118c657600080fd5b6118cf83611691565b91506118dd60208401611691565b90509250929050565b602080825260169082015275139bdd08185d5d1a1bdc9a5e9959081d1bc81b5a5b9d60521b604082015260600190565b634e487b7160e01b600052601160045260246000fd5b808201808211156106dd576106dd611916565b60208082526013908201527213585e081cdd5c1c1b1e48195e18d959591959606a1b604082015260600190565b600181811c9082168061198057607f821691505b6020821081036119a057634e487b7160e01b600052602260045260246000fd5b50919050565b818103818111156106dd576106dd611916565b634e487b7160e01b600052602160045260246000fdfea2646970667358221220bc1c50d7f9fbabbd2cb54e99661f4f4d97de579adddfd30dab6153257706397364736f6c63430008180033",
  "linkReferences": {},
  "deployedLinkReferences": {}
}