{
  "_format": "hh-sol-artifact-1",
  "contractName": "GrepBurner",
  "sourceName": "contracts/GrepBurner.sol",
  "abi": [
    {
      "inputs": [
        {
          "internalType": "address",
          "name": "_grepToken",
          "type": "address"
        }
      ],
      "stateMutability": "nonpayable",
      "type": "constructor"
    },
    {
      "inputs": [
        {
          "internalType": "address",
          "name": "owner",
          "type": "address"
        }
      ],
      "name": "OwnableInvalidOwner",
      "type": "error"
    },
    {
      "inputs": [
        {
          "internalType": "address",
          "name": "account",
          "type": "address"
        }
      ],
      "name": "OwnableUnauthorizedAccount",
      "type": "error"
    },
    {
      "inputs": [],
      "name": "ReentrancyGuardReentrantCall",
      "type": "error"
    },
    {
      "inputs": [
        {
          "internalType": "address",
          "name": "token",
          "type": "address"
        }
      ],
      "name": "SafeERC20FailedOperation",
      "type": "error"
    },
    {
      "anonymous": false,
      "inputs": [
        {
          "indexed": true,
          "internalType": "address",
          "name": "previousOwner",
          "type": "address"
        },
        {
          "indexed": true,
          "internalType": "address",
          "name": "newOwner",
          "type": "address"
        }
      ],
      "name": "OwnershipTransferred",
      "type": "event"
    },
    {
      "anonymous": false,
      "inputs": [
        {
          "indexed": true,
          "internalType": "address",
          "name": "user",
          "type": "address"
        },
        {
          "indexed": false,
          "internalType": "string",
          "name": "tier",
          "type": "string"
        }
      ],
      "name": "TierReached",
      "type": "event"
    },
    {
      "anonymous": false,
      "inputs": [
        {
          "indexed": true,
          "internalType": "address",
          "name": "burner",
          "type": "address"
        },
        {
          "indexed": false,
          "internalType": "uint256",
          "name": "amount",
          "type": "uint256"
        },
        {
          "indexed": false,
          "internalType": "string",
          "name": "reason",
          "type": "string"
        }
      ],
      "name": "TokensBurned",
      "type": "event"
    },
    {
      "inputs": [],
      "name": "BRONZE_THRESHOLD",
      "outputs": [
        {
          "internalType": "uint256",
          "name": "",
          "type": "uint256"
        }
      ],
      "stateMutability": "view",
      "type": "function"
    },
    {
      "inputs": [],
      "name": "DIAMOND_THRESHOLD",
      "outputs": [
        {
          "internalType": "uint256",
          "name": "",
          "type": "uint256"
        }
      ],
      "stateMutability": "view",
      "type": "function"
    },
    {
      "inputs": [],
      "name": "GOLD_THRESHOLD",
      "outputs": [
        {
          "internalType": "uint256",
          "name": "",
          "type": "uint256"
        }
      ],
      "stateMutability": "view",
      "type": "function"
    },
    {
      "inputs": [],
      "name": "SILVER_THRESHOLD",
      "outputs": [
        {
          "internalType": "uint256",
          "name": "",
          "type": "uint256"
        }
      ],
      "stateMutability": "view",
      "type": "function"
    },
    {
      "inputs": [
        {
          "internalType": "uint256",
          "name": "",
          "type": "uint256"
        }
      ],
      "name": "allBurns",
      "outputs": [
        {
          "internalType": "address",
          "name": "burner",
          "type": "address"
        },
        {
          "internalType": "uint256",
          "name": "amount",
          "type": "uint256"
        },
        {
          "internalType": "uint256",
          "name": "timestamp",
          "type": "uint256"
        },
        {
          "internalType": "string",
          "name": "reason",
          "type": "string"
        }
      ],
      "stateMutability": "view",
      "type": "function"
    },
    {
      "inputs": [
        {
          "internalType": "uint256",
          "name": "amount",
          "type": "uint256"
        },
        {
          "internalType": "string",
          "name": "reason",
          "type": "string"
        }
      ],
      "name": "burn",
      "outputs": [],
      "stateMutability": "nonpayable",
      "type": "function"
    },
    {
      "inputs": [],
      "name": "burnCount",
      "outputs": [
        {
          "internalType": "uint256",
          "name": "",
          "type": "uint256"
        }
      ],
      "stateMutability": "view",
      "type": "function"
    },
    {
      "inputs": [
        {
          "internalType": "uint256",
          "name": "count",
          "type": "uint256"
        }
      ],
      "name": "getRecentBurns",
      "outputs": [
        {
          "components": [
            {
              "internalType": "address",
              "name": "burner",
              "type": "address"
            },
            {
              "internalType": "uint256",
              "name": "amount",
              "type": "uint256"
            },
            {
              "internalType": "uint256",
              "name": "timestamp",
              "type": "uint256"
            },
            {
              "internalType": "string",
              "name": "reason",
              "type": "string"
            }
          ],
          "internalType": "struct GrepBurner.BurnRecord[]",
          "name": "",
          "type": "tuple[]"
        }
      ],
      "stateMutability": "view",
      "type": "function"
    },
    {
      "inputs": [
        {
          "internalType": "address",
          "name": "user",
          "type": "address"
        }
      ],
      "name": "getUserBurnCount",
      "outputs": [
        {
          "internalType": "uint256",
          "name": "",
          "type": "uint256"
        }
      ],
      "stateMutability": "view",
      "type": "function"
    },
    {
      "inputs": [
        {
          "internalType": "address",
          "name": "user",
          "type": "address"
        }
      ],
      "name": "getUserTier",
      "outputs": [
        {
          "internalType": "string",
          "name": "",
          "type": "string"
        }
      ],
      "stateMutability": "view",
      "type": "function"
    },
    {
      "inputs": [],
      "name": "grepToken",
      "outputs": [
        {
          "internalType": "contract IERC20",
          "name": "",
          "type": "address"
        }
      ],
      "stateMutability": "view",
      "type": "function"
    },
    {
      "inputs": [],
      "name": "owner",
      "outputs": [
        {
          "internalType": "address",
          "name": "",
          "type": "address"
        }
      ],
      "stateMutability": "view",
      "type": "function"
    },
    {
      "inputs": [],
      "name": "renounceOwnership",
      "outputs": [],
      "stateMutability": "nonpayable",
      "type": "function"
    },
    {
      "inputs": [],
      "name": "totalBurned",
      "outputs": [
        {
          "internalType": "uint256",
          "name": "",
          "type": "uint256"
        }
      ],
      "stateMutability": "view",
      "type": "function"
    },
    {
      "inputs": [
        {
          "internalType": "address",
          "name": "newOwner",
          "type": "address"
        }
      ],
      "name": "transferOwnership",
      "outputs": [],
      "stateMutability": "nonpayable",
      "type": "function"
    },
    {
      "inputs": [
        {
          "internalType": "address",
          "name": "",
          "type": "address"
        },
        {
          "internalType": "uint256",
          "name": "",
          "type": "uint256"
        }
      ],
      "name": "userBurnHistory",
      "outputs": [
        {
          "internalType": "address",
          "name": "burner",
          "type": "address"
        },
        {
          "internalType": "uint256",
          "name": "amount",
          "type": "uint256"
        },
        {
          "internalType": "uint256",
          "name": "timestamp",
          "type": "uint256"
        },
        {
          "internalType": "string",
          "name": "reason",
          "type": "string"
        }
      ],
      "stateMutability": "view",
      "type": "function"
    },
    {
      "inputs": [
        {
          "internalType": "address",
          "name": "",
          "type": "address"
        }
      ],
      "name": "userTotalBurned",
      "outputs": [
        {
          "internalType": "uint256",
          "name": "",
          "type": "uint256"
        }
      ],
      "stateMutability": "view",
      "type": "function"
    }
  ],
  "bytecode": "0x608060405234801561001057600080fd5b506040516112d83803806112d883398101604081905261002f916100d8565b338061005557604051631e4fbdf760e01b81526000600482015260240160405180910390fd5b61005e81610088565b5060018055600280546001600160a01b0319166001600160a01b0392909216919091179055610108565b600080546001600160a01b038381166001600160a01b0319831681178455604051919092169283917f8be0079c531659141344cd1fd0a4f28419497f9722a3daafe3b4186f6b6457e09190a35050565b6000602082840312156100ea57600080fd5b81516001600160a01b038116811461010157600080fd5b9392505050565b6111c1806101176000396000f3fe608060405234801561001057600080fd5b506004361061010b5760003560e01c8063715018a6116100a2578063a999d1c711610071578063a999d1c71461023f578063c1a0db3014610252578063d89135cd14610263578063e4d2620e1461026c578063f2fde38b1461028c57600080fd5b8063715018a6146101ea5780637641e6f3146101f45780638566cde4146102075780638da5cb5b1461021a57600080fd5b80633d989d0f116100de5780633d989d0f146101a0578063524773ce146101c057806356973974146101c957806369a2f026146101da57600080fd5b80630b8df9f1146101105780631e0d4ce9146101345780631f5c20ec1461015457806326d9815c1461017d575b600080fd5b61012169d3c21bcecceda100000081565b6040519081526020015b60405180910390f35b610121610142366004610d5d565b60056020526000908152604090205481565b610121610162366004610d5d565b6001600160a01b031660009081526006602052604090205490565b61019061018b366004610d7f565b61029f565b60405161012b9493929190610def565b6101b36101ae366004610e26565b61037b565b60405161012b9190610e3f565b61012160045481565b61012169152d02c7e14af680000081565b610121683635c9adc5dea0000081565b6101f261055d565b005b6101f2610202366004610ed5565b610571565b610190610215366004610e26565b610867565b6000546001600160a01b03165b6040516001600160a01b03909116815260200161012b565b600254610227906001600160a01b031681565b61012169021e19e0c9bab240000081565b61012160035481565b61027f61027a366004610d5d565b6108b6565b60405161012b9190610f51565b6101f261029a366004610d5d565b6109c6565b600660205281600052604060002081815481106102bb57600080fd5b600091825260209091206004909102018054600182015460028301546003840180546001600160a01b03909416965091945092916102f890610f64565b80601f016020809104026020016040519081016040528092919081815260200182805461032490610f64565b80156103715780601f1061034657610100808354040283529160200191610371565b820191906000526020600020905b81548152906001019060200180831161035457829003601f168201915b5050505050905084565b6007546060908083111561038d578092505b60008367ffffffffffffffff8111156103a8576103a8610f9e565b60405190808252806020026020018201604052801561040d57816020015b6103fa604051806080016040528060006001600160a01b031681526020016000815260200160008152602001606081525090565b8152602001906001900390816103c65790505b50905060005b84811015610555576007816104288786610fca565b6104329190610fe3565b8154811061044257610442610ff6565b90600052602060002090600402016040518060800160405290816000820160009054906101000a90046001600160a01b03166001600160a01b03166001600160a01b0316815260200160018201548152602001600282015481526020016003820180546104ae90610f64565b80601f01602080910402602001604051908101604052809291908181526020018280546104da90610f64565b80156105275780601f106104fc57610100808354040283529160200191610527565b820191906000526020600020905b81548152906001019060200180831161050a57829003601f168201915b50505050508152505082828151811061054257610542610ff6565b6020908102919091010152600101610413565b509392505050565b610565610a04565b61056f6000610a31565b565b610579610a81565b600083116105ce5760405162461bcd60e51b815260206004820152601d60248201527f416d6f756e74206d7573742062652067726561746572207468616e203000000060448201526064015b60405180910390fd5b3360008181526005602052604090205460025490916105fa916001600160a01b03169061dead87610aab565b836003600082825461060c9190610fe3565b9091555050600480549060006106218361100c565b90915550503360009081526005602052604081208054869290610645908490610fe3565b909155505060408051608081018252338152602080820187905242828401528251601f860182900482028101820190935284835260009260608301918790879081908401838280828437600092018290525093909452505033815260066020908152604080832080546001808201835591855293839020865160049095020180546001600160a01b0319166001600160a01b03909516949094178455918501519183019190915583015160028201556060830151929350839290915060038201906107109082611075565b50506007805460018101825560009190915282517fa66cc928b5edb82af9bd49922954155ab7b0942694bea4ce44661d9a8736c688600490920291820180546001600160a01b0319166001600160a01b0390921691909117815560208401517fa66cc928b5edb82af9bd49922954155ab7b0942694bea4ce44661d9a8736c68983015560408401517fa66cc928b5edb82af9bd49922954155ab7b0942694bea4ce44661d9a8736c68a830155606084015184935090917fa66cc928b5edb82af9bd49922954155ab7b0942694bea4ce44661d9a8736c68b01906107f39082611075565b505050336001600160a01b03167ffad31924d655455395c87544c8aa1ffdb5a7505a22a3c2e03f28003b6556a75f86868660405161083393929190611135565b60405180910390a23360008181526005602052604090205461085791908490610b0b565b505061086260018055565b505050565b6007818154811061087757600080fd5b600091825260209091206004909102018054600182015460028301546003840180546001600160a01b039094169550919390929091906102f890610f64565b6001600160a01b03811660009081526005602052604090205460609069d3c21bcecceda10000008110610908575050604080518082019091526007815266111a585b5bdb9960ca1b6020820152919050565b69152d02c7e14af6800000811061093b57505060408051808201909152600481526311dbdb1960e21b6020820152919050565b69021e19e0c9bab2400000811061097057505060408051808201909152600681526529b4b63b32b960d11b6020820152919050565b683635c9adc5dea0000081106109a457505060408051808201909152600681526542726f6e7a6560d01b6020820152919050565b50506040805180820190915260048152634e6f6e6560e01b6020820152919050565b6109ce610a04565b6001600160a01b0381166109f857604051631e4fbdf760e01b8152600060048201526024016105c5565b610a0181610a31565b50565b6000546001600160a01b0316331461056f5760405163118cdaa760e01b81523360048201526024016105c5565b600080546001600160a01b038381166001600160a01b0319831681178455604051919092169283917f8be0079c531659141344cd1fd0a4f28419497f9722a3daafe3b4186f6b6457e09190a35050565b600260015403610aa457604051633ee5aeb560e01b815260040160405180910390fd5b6002600155565b604080516001600160a01b0385811660248301528416604482015260648082018490528251808303909101815260849091019091526020810180516001600160e01b03166323b872dd60e01b179052610b05908590610cd0565b50505050565b683635c9adc5dea0000082108015610b2c5750683635c9adc5dea000008110155b15610b7a57826001600160a01b031660008051602061116c833981519152604051610b719060208082526006908201526542726f6e7a6560d01b604082015260600190565b60405180910390a25b69021e19e0c9bab240000082108015610b9d575069021e19e0c9bab24000008110155b15610beb57826001600160a01b031660008051602061116c833981519152604051610be29060208082526006908201526529b4b63b32b960d11b604082015260600190565b60405180910390a25b69152d02c7e14af680000082108015610c0e575069152d02c7e14af68000008110155b15610c5a57826001600160a01b031660008051602061116c833981519152604051610c519060208082526004908201526311dbdb1960e21b604082015260600190565b60405180910390a25b69d3c21bcecceda100000082108015610c7d575069d3c21bcecceda10000008110155b1561086257826001600160a01b031660008051602061116c833981519152604051610cc390602080825260079082015266111a585b5bdb9960ca1b604082015260600190565b60405180910390a2505050565b600080602060008451602086016000885af180610cf3576040513d6000823e3d81fd5b50506000513d91508115610d0b578060011415610d18565b6001600160a01b0384163b155b15610b0557604051635274afe760e01b81526001600160a01b03851660048201526024016105c5565b80356001600160a01b0381168114610d5857600080fd5b919050565b600060208284031215610d6f57600080fd5b610d7882610d41565b9392505050565b60008060408385031215610d9257600080fd5b610d9b83610d41565b946020939093013593505050565b6000815180845260005b81811015610dcf57602081850181015186830182015201610db3565b506000602082860101526020601f19601f83011685010191505092915050565b60018060a01b0385168152836020820152826040820152608060608201526000610e1c6080830184610da9565b9695505050505050565b600060208284031215610e3857600080fd5b5035919050565b600060208083018184528085518083526040925060408601915060408160051b87010184880160005b83811015610ec757888303603f19018552815180516001600160a01b0316845287810151888501528681015187850152606090810151608091850182905290610eb381860183610da9565b968901969450505090860190600101610e68565b509098975050505050505050565b600080600060408486031215610eea57600080fd5b83359250602084013567ffffffffffffffff80821115610f0957600080fd5b818601915086601f830112610f1d57600080fd5b813581811115610f2c57600080fd5b876020828501011115610f3e57600080fd5b6020830194508093505050509250925092565b602081526000610d786020830184610da9565b600181811c90821680610f7857607f821691505b602082108103610f9857634e487b7160e01b600052602260045260246000fd5b50919050565b634e487b7160e01b600052604160045260246000fd5b634e487b7160e01b600052601160045260246000fd5b81810381811115610fdd57610fdd610fb4565b92915050565b80820180821115610fdd57610fdd610fb4565b634e487b7160e01b600052603260045260246000fd5b60006001820161101e5761101e610fb4565b5060010190565b601f821115610862576000816000526020600020601f850160051c8101602086101561104e5750805b601f850160051c820191505b8181101561106d5782815560010161105a565b505050505050565b815167ffffffffffffffff81111561108f5761108f610f9e565b6110a38161109d8454610f64565b84611025565b602080601f8311600181146110d857600084156110c05750858301515b600019600386901b1c1916600185901b17855561106d565b600085815260208120601f198616915b82811015611107578886015182559484019460019091019084016110e8565b50858210156111255787850151600019600388901b60f8161c191681555b5050505050600190811b01905550565b83815260406020820152816040820152818360608301376000818301606090810191909152601f909201601f191601019291505056fec39d33847446a4f746a2e9adbe56edb215158f00469c13b53d99195c9e36877da2646970667358221220a4d25f400a9d73bd47df5b436cd51cc13d8f4cf5f382309d21199e9aca8882d064736f6c63430008180033",
  "linkReferences": {},
  "deployedLinkReferences": {}
}