{
  "_format": "hh-sol-artifact-1",
  "contractName": "GrepGovernance",
  "sourceName": "contracts/GrepGovernance.sol",
  "abi": [
    {
      "inputs": [
        {
          "internalType": "address",
          "name": "_grepToken",
          "type": "address"
        }
      ],
      "stateMutability": "nonpayable",
      "type": "constructor"
    },
    {
      "inputs": [
        {
          "internalType": "address",
          "name": "owner",
          "type": "address"
        }
      ],
      "name": "OwnableInvalidOwner",
      "type": "error"
    },
    {
      "inputs": [
        {
          "internalType": "address",
          "name": "account",
          "type": "address"
        }
      ],
      "name": "OwnableUnauthorizedAccount",
      "type": "error"
    },
    {
      "inputs": [],
      "name": "ReentrancyGuardReentrantCall",
      "type": "error"
    },
    {
      "anonymous": false,
      "inputs": [
        {
          "indexed": true,
          "internalType": "address",
          "name": "previousOwner",
          "type": "address"
        },
        {
          "indexed": true,
          "internalType": "address",
          "name": "newOwner",
          "type": "address"
        }
      ],
      "name": "OwnershipTransferred",
      "type": "event"
    },
    {
      "anonymous": false,
      "inputs": [
        {
          "indexed": true,
          "internalType": "uint256",
          "name": "id",
          "type": "uint256"
        }
      ],
      "name": "ProposalCancelled",
      "type": "event"
    },
    {
      "anonymous": false,
      "inputs": [
        {
          "indexed": true,
          "internalType": "uint256",
          "name": "id",
          "type": "uint256"
        },
        {
          "indexed": false,
          "internalType": "address",
          "name": "proposer",
          "type": "address"
        },
        {
          "indexed": false,
          "internalType": "string",
          "name": "title",
          "type": "string"
        },
        {
          "indexed": false,
          "internalType": "uint256",
          "name": "startTime",
          "type": "uint256"
        },
        {
          "indexed": false,
          "internalType": "uint256",
          "name": "endTime",
          "type": "uint256"
        }
      ],
      "name": "ProposalCreated",
      "type": "event"
    },
    {
      "anonymous": false,
      "inputs": [
        {
          "indexed": true,
          "internalType": "uint256",
          "name": "id",
          "type": "uint256"
        }
      ],
      "name": "ProposalExecuted",
      "type": "event"
    },
    {
      "anonymous": false,
      "inputs": [
        {
          "indexed": true,
          "internalType": "uint256",
          "name": "proposalId",
          "type": "uint256"
        },
        {
          "indexed": false,
          "internalType": "address",
          "name": "voter",
          "type": "address"
        },
        {
          "indexed": false,
          "internalType": "bool",
          "name": "support",
          "type": "bool"
        },
        {
          "indexed": false,
          "internalType": "uint256",
          "name": "votes",
          "type": "uint256"
        }
      ],
      "name": "VoteCast",
      "type": "event"
    },
    {
      "inputs": [],
      "name": "MIN_PROPOSAL_THRESHOLD",
      "outputs": [
        {
          "internalType": "uint256",
          "name": "",
          "type": "uint256"
        }
      ],
      "stateMutability": "view",
      "type": "function"
    },
    {
      "inputs": [],
      "name": "QUORUM_PERCENTAGE",
      "outputs": [
        {
          "internalType": "uint256",
          "name": "",
          "type": "uint256"
        }
      ],
      "stateMutability": "view",
      "type": "function"
    },
    {
      "inputs": [],
      "name": "VOTING_PERIOD",
      "outputs": [
        {
          "internalType": "uint256",
          "name": "",
          "type": "uint256"
        }
      ],
      "stateMutability": "view",
      "type": "function"
    },
    {
      "inputs": [
        {
          "internalType": "uint256",
          "name": "proposalId",
          "type": "uint256"
        }
      ],
      "name": "cancel",
      "outputs": [],
      "stateMutability": "nonpayable",
      "type": "function"
    },
    {
      "inputs": [
        {
          "internalType": "uint256",
          "name": "proposalId",
          "type": "uint256"
        }
      ],
      "name": "execute",
      "outputs": [],
      "stateMutability": "nonpayable",
      "type": "function"
    },
    {
      "inputs": [
        {
          "internalType": "uint256",
          "name": "proposalId",
          "type": "uint256"
        }
      ],
      "name": "getProposalState",
      "outputs": [
        {
          "internalType": "enum GrepGovernance.ProposalState",
          "name": "",
          "type": "uint8"
        }
      ],
      "stateMutability": "view",
      "type": "function"
    },
    {
      "inputs": [
        {
          "internalType": "uint256",
          "name": "proposalId",
          "type": "uint256"
        }
      ],
      "name": "getVotes",
      "outputs": [
        {
          "internalType": "uint256",
          "name": "forVotes",
          "type": "uint256"
        },
        {
          "internalType": "uint256",
          "name": "againstVotes",
          "type": "uint256"
        }
      ],
      "stateMutability": "view",
      "type": "function"
    },
    {
      "inputs": [],
      "name": "grepToken",
      "outputs": [
        {
          "internalType": "contract IERC20",
          "name": "",
          "type": "address"
        }
      ],
      "stateMutability": "view",
      "type": "function"
    },
    {
      "inputs": [
        {
          "internalType": "uint256",
          "name": "proposalId",
          "type": "uint256"
        },
        {
          "internalType": "address",
          "name": "voter",
          "type": "address"
        }
      ],
      "name": "hasVoted",
      "outputs": [
        {
          "internalType": "bool",
          "name": "",
          "type": "bool"
        }
      ],
      "stateMutability": "view",
      "type": "function"
    },
    {
      "inputs": [],
      "name": "owner",
      "outputs": [
        {
          "internalType": "address",
          "name": "",
          "type": "address"
        }
      ],
      "stateMutability": "view",
      "type": "function"
    },
    {
      "inputs": [],
      "name": "proposalCount",
      "outputs": [
        {
          "internalType": "uint256",
          "name": "",
          "type": "uint256"
        }
      ],
      "stateMutability": "view",
      "type": "function"
    },
    {
      "inputs": [
        {
          "internalType": "uint256",
          "name": "",
          "type": "uint256"
        }
      ],
      "name": "proposals",
      "outputs": [
        {
          "internalType": "uint256",
          "name": "id",
          "type": "uint256"
        },
        {
          "internalType": "address",
          "name": "proposer",
          "type": "address"
        },
        {
          "internalType": "string",
          "name": "title",
          "type": "string"
        },
        {
          "internalType": "string",
          "name": "description",
          "type": "string"
        },
        {
          "internalType": "uint256",
          "name": "forVotes",
          "type": "uint256"
        },
        {
          "internalType": "uint256",
          "name": "againstVotes",
          "type": "uint256"
        },
        {
          "internalType": "uint256",
          "name": "startTime",
          "type": "uint256"
        },
        {
          "internalType": "uint256",
          "name": "endTime",
          "type": "uint256"
        },
        {
          "internalType": "bool",
          "name": "executed",
          "type": "bool"
        },
        {
          "internalType": "bool",
          "name": "cancelled",
          "type": "bool"
        }
      ],
      "stateMutability": "view",
      "type": "function"
    },
    {
      "inputs": [
        {
          "internalType": "string",
          "name": "title",
          "type": "string"
        },
        {
          "internalType": "string",
          "name": "description",
          "type": "string"
        }
      ],
      "name": "propose",
      "outputs": [
        {
          "internalType": "uint256",
          "name": "",
          "type": "uint256"
        }
      ],
      "stateMutability": "nonpayable",
      "type": "function"
    },
    {
      "inputs": [],
      "name": "renounceOwnership",
      "outputs": [],
      "stateMutability": "nonpayable",
      "type": "function"
    },
    {
      "inputs": [
        {
          "internalType": "address",
          "name": "newOwner",
          "type": "address"
        }
      ],
      "name": "transferOwnership",
      "outputs": [],
      "stateMutability": "nonpayable",
      "type": "function"
    },
    {
      "inputs": [
        {
          "internalType": "uint256",
          "name": "proposalId",
          "type": "uint256"
        },
        {
          "internalType": "bool",
          "name": "support",
          "type": "bool"
        }
      ],
      "name": "vote",
      "outputs": [],
      "stateMutability": "nonpayable",
      "type": "function"
    }
  ],
  "bytecode": "0x608060405234801561001057600080fd5b5060405161126c38038061126c83398101604081905261002f916100d8565b338061005557604051631e4fbdf760e01b81526000600482015260240160405180910390fd5b61005e81610088565b5060018055600280546001600160a01b0319166001600160a01b0392909216919091179055610108565b600080546001600160a01b038381166001600160a01b0319831681178455604051919092169283917f8be0079c531659141344cd1fd0a4f28419497f9722a3daafe3b4186f6b6457e09190a35050565b6000602082840312156100ea57600080fd5b81516001600160a01b038116811461010157600080fd5b9392505050565b611155806101176000396000f3fe608060405234801561001057600080fd5b50600436106101005760003560e01c8063a999d1c711610097578063ee8a7c1511610066578063ee8a7c1514610227578063f2fde38b1461022f578063fe0d94c114610242578063ff9810991461025557600080fd5b8063a999d1c7146101ee578063b1610d7e14610201578063c9d27afe1461020b578063da35c6641461021e57600080fd5b8063715018a6116100d3578063715018a614610190578063791f5d23146101985780638da5cb5b146101a95780639080936f146101ce57600080fd5b8063013cf08b146101055780631c4afc571461013757806340e58ee514610158578063438596321461016d575b600080fd5b610118610113366004610c6d565b610297565b60405161012e9a99989796959493929190610ccc565b60405180910390f35b61014a610145366004610d8f565b610405565b60405190815260200161012e565b61016b610166366004610c6d565b6105a2565b005b61018061017b366004610e17565b61069a565b604051901515815260200161012e565b61016b6106ca565b61014a69021e19e0c9bab240000081565b6000546001600160a01b03165b6040516001600160a01b03909116815260200161012e565b6101e16101dc366004610c6d565b6106de565b60405161012e9190610e59565b6002546101b6906001600160a01b031681565b61014a6203f48081565b61016b610219366004610e81565b61085f565b61014a60035481565b61014a600481565b61016b61023d366004610eb6565b610ad8565b61016b610250366004610c6d565b610b16565b610282610263366004610c6d565b6000908152600460208190526040909120908101546005909101549091565b6040805192835260208301919091520161012e565b60046020526000908152604090208054600182015460028301805492936001600160a01b03909216926102c990610ed8565b80601f01602080910402602001604051908101604052809291908181526020018280546102f590610ed8565b80156103425780601f1061031757610100808354040283529160200191610342565b820191906000526020600020905b81548152906001019060200180831161032557829003601f168201915b50505050509080600301805461035790610ed8565b80601f016020809104026020016040519081016040528092919081815260200182805461038390610ed8565b80156103d05780601f106103a5576101008083540402835291602001916103d0565b820191906000526020600020905b8154815290600101906020018083116103b357829003601f168201915b505050600484015460058501546006860154600787015460089097015495969295919450925060ff808216916101009004168a565b6002546040516370a0823160e01b815233600482015260009169021e19e0c9bab2400000916001600160a01b03909116906370a0823190602401602060405180830381865afa15801561045c573d6000803e3d6000fd5b505050506040513d601f19601f820116820180604052508101906104809190610f12565b10156104d35760405162461bcd60e51b815260206004820152601c60248201527f496e73756666696369656e74204752455020746f2070726f706f73650000000060448201526064015b60405180910390fd5b600380549060006104e383610f41565b909155505060035460008181526004602052604090209081556001810180546001600160a01b031916331790556002810161051f868883610fc1565b506003810161052f848683610fc1565b504260068201819055610546906203f48090611082565b60078201819055600354600683015460405191927f6c98a8c940418b35614f0cd02412d5c9606faff474cbb6cdd6640ba5d1a9f06b9261058d9233928c928c929190611095565b60405180910390a25050600354949350505050565b600081815260046020526040902060018101546001600160a01b03163314806105d557506000546001600160a01b031633145b6106125760405162461bcd60e51b815260206004820152600e60248201526d139bdd08185d5d1a1bdc9a5e995960921b60448201526064016104ca565b600881015460ff161561065a5760405162461bcd60e51b815260206004820152601060248201526f105b1c9958591e48195e1958dd5d195960821b60448201526064016104ca565b60088101805461ff00191661010017905560405182907f416e669c63d9a3a5e36ee7cc7e2104b8db28ccd286aa18966e98fa230c73b08c90600090a25050565b60008281526004602090815260408083206001600160a01b038516845260090190915290205460ff165b92915050565b6106d2610bc6565b6106dc6000610bf3565b565b6000818152600460205260408120805482036107365760405162461bcd60e51b8152602060048201526017602482015276141c9bdc1bdcd85b08191bd95cc81b9bdd08195e1a5cdd604a1b60448201526064016104ca565b6008810154610100900460ff16156107515750600592915050565b600881015460ff16156107675750600492915050565b8060070154421161077b5750600192915050565b6000816005015482600401546107919190611082565b9050600060646004600260009054906101000a90046001600160a01b03166001600160a01b03166318160ddd6040518163ffffffff1660e01b8152600401602060405180830381865afa1580156107ec573d6000803e3d6000fd5b505050506040513d601f19601f820116820180604052508101906108109190610f12565b61081a91906110e6565b61082491906110fd565b90508082101561083957506003949350505050565b82600501548360040154111561085457506002949350505050565b506003949350505050565b610867610c43565b600082815260046020526040812080549091036108c05760405162461bcd60e51b8152602060048201526017602482015276141c9bdc1bdcd85b08191bd95cc81b9bdd08195e1a5cdd604a1b60448201526064016104ca565b806006015442101580156108d8575080600701544211155b6109185760405162461bcd60e51b8152602060048201526011602482015270566f74696e67206e6f742061637469766560781b60448201526064016104ca565b33600090815260098201602052604090205460ff161561096a5760405162461bcd60e51b815260206004820152600d60248201526c105b1c9958591e481d9bdd1959609a1b60448201526064016104ca565b6002546040516370a0823160e01b81523360048201526000916001600160a01b0316906370a0823190602401602060405180830381865afa1580156109b3573d6000803e3d6000fd5b505050506040513d601f19601f820116820180604052508101906109d79190610f12565b905060008111610a1b5760405162461bcd60e51b815260206004820152600f60248201526e2737903b37ba34b733903837bbb2b960891b60448201526064016104ca565b3360009081526009830160209081526040808320805460ff19166001179055600a850190915290208190558215610a6b5780826004016000828254610a609190611082565b90915550610a859050565b80826005016000828254610a7f9190611082565b90915550505b60408051338152841515602082015290810182905284907fcbdf6214089cba887ecbf35a0b6a734589959c9763342c756bb2a80ca2bc9f6e9060600160405180910390a25050610ad460018055565b5050565b610ae0610bc6565b6001600160a01b038116610b0a57604051631e4fbdf760e01b8152600060048201526024016104ca565b610b1381610bf3565b50565b610b1e610bc6565b6002610b29826106de565b6005811115610b3a57610b3a610e43565b14610b805760405162461bcd60e51b8152602060048201526016602482015275141c9bdc1bdcd85b081b9bdd081cdd58d8d95959195960521b60448201526064016104ca565b600081815260046020526040808220600801805460ff191660011790555182917f712ae1383f79ac853f8d882153778e0260ef8f03b504e2866e0593e04d2b291f91a250565b6000546001600160a01b031633146106dc5760405163118cdaa760e01b81523360048201526024016104ca565b600080546001600160a01b038381166001600160a01b0319831681178455604051919092169283917f8be0079c531659141344cd1fd0a4f28419497f9722a3daafe3b4186f6b6457e09190a35050565b600260015403610c6657604051633ee5aeb560e01b815260040160405180910390fd5b6002600155565b600060208284031215610c7f57600080fd5b5035919050565b6000815180845260005b81811015610cac57602081850181015186830182015201610c90565b506000602082860101526020601f19601f83011685010191505092915050565b8a81526001600160a01b038a16602082015261014060408201819052600090610cf78382018c610c86565b90508281036060840152610d0b818b610c86565b6080840199909952505060a081019590955260c085019390935260e08401919091521515610100830152151561012090910152949350505050565b60008083601f840112610d5857600080fd5b50813567ffffffffffffffff811115610d7057600080fd5b602083019150836020828501011115610d8857600080fd5b9250929050565b60008060008060408587031215610da557600080fd5b843567ffffffffffffffff80821115610dbd57600080fd5b610dc988838901610d46565b90965094506020870135915080821115610de257600080fd5b50610def87828801610d46565b95989497509550505050565b80356001600160a01b0381168114610e1257600080fd5b919050565b60008060408385031215610e2a57600080fd5b82359150610e3a60208401610dfb565b90509250929050565b634e487b7160e01b600052602160045260246000fd5b6020810160068310610e7b57634e487b7160e01b600052602160045260246000fd5b91905290565b60008060408385031215610e9457600080fd5b8235915060208301358015158114610eab57600080fd5b809150509250929050565b600060208284031215610ec857600080fd5b610ed182610dfb565b9392505050565b600181811c90821680610eec57607f821691505b602082108103610f0c57634e487b7160e01b600052602260045260246000fd5b50919050565b600060208284031215610f2457600080fd5b5051919050565b634e487b7160e01b600052601160045260246000fd5b600060018201610f5357610f53610f2b565b5060010190565b634e487b7160e01b600052604160045260246000fd5b601f821115610fbc576000816000526020600020601f850160051c81016020861015610f995750805b601f850160051c820191505b81811015610fb857828155600101610fa5565b5050505b505050565b67ffffffffffffffff831115610fd957610fd9610f5a565b610fed83610fe78354610ed8565b83610f70565b6000601f84116001811461102157600085156110095750838201355b600019600387901b1c1916600186901b17835561107b565b600083815260209020601f19861690835b828110156110525786850135825560209485019460019092019101611032565b508682101561106f5760001960f88860031b161c19848701351681555b505060018560011b0183555b5050505050565b808201808211156106c4576106c4610f2b565b6001600160a01b03861681526080602082018190528101849052838560a0830137600060a08583010152600060a0601f19601f87011683010190508360408301528260608301529695505050505050565b80820281158282048414176106c4576106c4610f2b565b60008261111a57634e487b7160e01b600052601260045260246000fd5b50049056fea26469706673582212209c3688b3ec8fb349ad73d12e3609c56ea36bc7d31f72f2ba10508f7bb80b579064736f6c63430008180033",
  "linkReferences": {},
  "deployedLinkReferences": {}
}