{
  "_format": "hh-sol-artifact-1",
  "contractName": "GrepGovernance",
  "sourceName": "contracts/GrepGovernance.sol",
  "abi": [
    {
      "inputs": [
        {
          "internalType": "address",
          "name": "_grepToken",
          "type": "address"
        }
      ],
      "stateMutability": "nonpayable",
      "type": "constructor"
    },
    {
      "inputs": [
        {
          "internalType": "address",
          "name": "owner",
          "type": "address"
        }
      ],
      "name": "OwnableInvalidOwner",
      "type": "error"
    },
    {
      "inputs": [
        {
          "internalType": "address",
          "name": "account",
          "type": "address"
        }
      ],
      "name": "OwnableUnauthorizedAccount",
      "type": "error"
    },
    {
      "inputs": [],
      "name": "ReentrancyGuardReentrantCall",
      "type": "error"
    },
    {
      "anonymous": false,
      "inputs": [
        {
          "indexed": true,
          "internalType": "address",
          "name": "previousOwner",
          "type": "address"
        },
        {
          "indexed": true,
          "internalType": "address",
          "name": "newOwner",
          "type": "address"
        }
      ],
      "name": "OwnershipTransferred",
      "type": "event"
    },
    {
      "anonymous": false,
      "inputs": [
        {
          "indexed": true,
          "internalType": "uint256",
          "name": "id",
          "type": "uint256"
        }
      ],
      "name": "ProposalCancelled",
      "type": "event"
    },
    {
      "anonymous": false,
      "inputs": [
        {
          "indexed": true,
          "internalType": "uint256",
          "name": "id",
          "type": "uint256"
        },
        {
          "indexed": false,
          "internalType": "address",
          "name": "proposer",
          "type": "address"
        },
        {
          "indexed": false,
          "internalType": "string",
          "name": "title",
          "type": "string"
        },
        {
          "indexed": false,
          "internalType": "uint256",
          "name": "startTime",
          "type": "uint256"
        },
        {
          "indexed": false,
          "internalType": "uint256",
          "name": "endTime",
          "type": "uint256"
        }
      ],
      "name": "ProposalCreated",
      "type": "event"
    },
    {
      "anonymous": false,
      "inputs": [
        {
          "indexed": true,
          "internalType": "uint256",
          "name": "id",
          "type": "uint256"
        }
      ],
      "name": "ProposalExecuted",
      "type": "event"
    },
    {
      "anonymous": false,
      "inputs": [
        {
          "indexed": true,
          "internalType": "uint256",
          "name": "proposalId",
          "type": "uint256"
        },
        {
          "indexed": false,
          "internalType": "address",
          "name": "voter",
          "type": "address"
        },
        {
          "indexed": false,
          "internalType": "bool",
          "name": "support",
          "type": "bool"
        },
        {
          "indexed": false,
          "internalType": "uint256",
          "name": "votes",
          "type": "uint256"
        }
      ],
      "name": "VoteCast",
      "type": "event"
    },
    {
      "inputs": [],
      "name": "MIN_PROPOSAL_THRESHOLD",
      "outputs": [
        {
          "internalType": "uint256",
          "name": "",
          "type": "uint256"
        }
      ],
      "stateMutability": "view",
      "type": "function"
    },
    {
      "inputs": [],
      "name": "QUORUM_PERCENTAGE",
      "outputs": [
        {
          "internalType": "uint256",
          "name": "",
          "type": "uint256"
        }
      ],
      "stateMutability": "view",
      "type": "function"
    },
    {
      "inputs": [],
      "name": "VOTING_PERIOD",
      "outputs": [
        {
          "internalType": "uint256",
          "name": "",
          "type": "uint256"
        }
      ],
      "stateMutability": "view",
      "type": "function"
    },
    {
      "inputs": [
        {
          "internalType": "uint256",
          "name": "proposalId",
          "type": "uint256"
        }
      ],
      "name": "cancel",
      "outputs": [],
      "stateMutability": "nonpayable",
      "type": "function"
    },
    {
      "inputs": [
        {
          "internalType": "uint256",
          "name": "proposalId",
          "type": "uint256"
        }
      ],
      "name": "execute",
      "outputs": [],
      "stateMutability": "nonpayable",
      "type": "function"
    },
    {
      "inputs": [
        {
          "internalType": "uint256",
          "name": "proposalId",
          "type": "uint256"
        }
      ],
      "name": "getProposalState",
      "outputs": [
        {
          "internalType": "enum GrepGovernance.ProposalState",
          "name": "",
          "type": "uint8"
        }
      ],
      "stateMutability": "view",
      "type": "function"
    },
    {
      "inputs": [
        {
          "internalType": "uint256",
          "name": "proposalId",
          "type": "uint256"
        }
      ],
      "name": "getVotes",
      "outputs": [
        {
          "internalType": "uint256",
          "name": "forVotes",
          "type": "uint256"
        },
        {
          "internalType": "uint256",
          "name": "againstVotes",
          "type": "uint256"
        }
      ],
      "stateMutability": "view",
      "type": "function"
    },
    {
      "inputs": [],
      "name": "grepToken",
      "outputs": [
        {
          "internalType": "contract IVotes",
          "name": "",
          "type": "address"
        }
      ],
      "stateMutability": "view",
      "type": "function"
    },
    {
      "inputs": [
        {
          "internalType": "uint256",
          "name": "proposalId",
          "type": "uint256"
        },
        {
          "internalType": "address",
          "name": "voter",
          "type": "address"
        }
      ],
      "name": "hasVoted",
      "outputs": [
        {
          "internalType": "bool",
          "name": "",
          "type": "bool"
        }
      ],
      "stateMutability": "view",
      "type": "function"
    },
    {
      "inputs": [],
      "name": "owner",
      "outputs": [
        {
          "internalType": "address",
          "name": "",
          "type": "address"
        }
      ],
      "stateMutability": "view",
      "type": "function"
    },
    {
      "inputs": [],
      "name": "proposalCount",
      "outputs": [
        {
          "internalType": "uint256",
          "name": "",
          "type": "uint256"
        }
      ],
      "stateMutability": "view",
      "type": "function"
    },
    {
      "inputs": [
        {
          "internalType": "uint256",
          "name": "",
          "type": "uint256"
        }
      ],
      "name": "proposals",
      "outputs": [
        {
          "internalType": "uint256",
          "name": "id",
          "type": "uint256"
        },
        {
          "internalType": "address",
          "name": "proposer",
          "type": "address"
        },
        {
          "internalType": "string",
          "name": "title",
          "type": "string"
        },
        {
          "internalType": "string",
          "name": "description",
          "type": "string"
        },
        {
          "internalType": "uint256",
          "name": "forVotes",
          "type": "uint256"
        },
        {
          "internalType": "uint256",
          "name": "againstVotes",
          "type": "uint256"
        },
        {
          "internalType": "uint256",
          "name": "startTime",
          "type": "uint256"
        },
        {
          "internalType": "uint256",
          "name": "endTime",
          "type": "uint256"
        },
        {
          "internalType": "uint256",
          "name": "snapshotBlock",
          "type": "uint256"
        },
        {
          "internalType": "bool",
          "name": "executed",
          "type": "bool"
        },
        {
          "internalType": "bool",
          "name": "cancelled",
          "type": "bool"
        }
      ],
      "stateMutability": "view",
      "type": "function"
    },
    {
      "inputs": [
        {
          "internalType": "string",
          "name": "title",
          "type": "string"
        },
        {
          "internalType": "string",
          "name": "description",
          "type": "string"
        }
      ],
      "name": "propose",
      "outputs": [
        {
          "internalType": "uint256",
          "name": "",
          "type": "uint256"
        }
      ],
      "stateMutability": "nonpayable",
      "type": "function"
    },
    {
      "inputs": [],
      "name": "renounceOwnership",
      "outputs": [],
      "stateMutability": "nonpayable",
      "type": "function"
    },
    {
      "inputs": [
        {
          "internalType": "address",
          "name": "newOwner",
          "type": "address"
        }
      ],
      "name": "transferOwnership",
      "outputs": [],
      "stateMutability": "nonpayable",
      "type": "function"
    },
    {
      "inputs": [
        {
          "internalType": "uint256",
          "name": "proposalId",
          "type": "uint256"
        },
        {
          "internalType": "bool",
          "name": "support",
          "type": "bool"
        }
      ],
      "name": "vote",
      "outputs": [],
      "stateMutability": "nonpayable",
      "type": "function"
    }
  ],
  "bytecode": "0x608060405234801561001057600080fd5b506040516112b63803806112b683398101604081905261002f916100d8565b338061005557604051631e4fbdf760e01b81526000600482015260240160405180910390fd5b61005e81610088565b5060018055600280546001600160a01b0319166001600160a01b0392909216919091179055610108565b600080546001600160a01b038381166001600160a01b0319831681178455604051919092169283917f8be0079c531659141344cd1fd0a4f28419497f9722a3daafe3b4186f6b6457e09190a35050565b6000602082840312156100ea57600080fd5b81516001600160a01b038116811461010157600080fd5b9392505050565b61119f806101176000396000f3fe608060405234801561001057600080fd5b50600436106101005760003560e01c8063a999d1c711610097578063ee8a7c1511610066578063ee8a7c1514610228578063f2fde38b14610230578063fe0d94c114610243578063ff9810991461025657600080fd5b8063a999d1c7146101ef578063b1610d7e14610202578063c9d27afe1461020c578063da35c6641461021f57600080fd5b8063715018a6116100d3578063715018a614610191578063791f5d23146101995780638da5cb5b146101aa5780639080936f146101cf57600080fd5b8063013cf08b146101055780631c4afc571461013857806340e58ee514610159578063438596321461016e575b600080fd5b610118610113366004610cb1565b610298565b60405161012f9b9a99989796959493929190610d10565b60405180910390f35b61014b610146366004610dd9565b61040e565b60405190815260200161012f565b61016c610167366004610cb1565b6105c2565b005b61018161017c366004610e61565b6106ba565b604051901515815260200161012f565b61016c6106ea565b61014b69021e19e0c9bab240000081565b6000546001600160a01b03165b6040516001600160a01b03909116815260200161012f565b6101e26101dd366004610cb1565b6106fe565b60405161012f9190610ea3565b6002546101b7906001600160a01b031681565b61014b6203f48081565b61016c61021a366004610ecb565b610888565b61014b60035481565b61014b600481565b61016c61023e366004610f00565b610b1c565b61016c610251366004610cb1565b610b5a565b610283610264366004610cb1565b6000908152600460208190526040909120908101546005909101549091565b6040805192835260208301919091520161012f565b60046020526000908152604090208054600182015460028301805492936001600160a01b03909216926102ca90610f22565b80601f01602080910402602001604051908101604052809291908181526020018280546102f690610f22565b80156103435780601f1061031857610100808354040283529160200191610343565b820191906000526020600020905b81548152906001019060200180831161032657829003601f168201915b50505050509080600301805461035890610f22565b80601f016020809104026020016040519081016040528092919081815260200182805461038490610f22565b80156103d15780601f106103a6576101008083540402835291602001916103d1565b820191906000526020600020905b8154815290600101906020018083116103b457829003601f168201915b5050506004840154600585015460068601546007870154600888015460099098015496979396929550909350919060ff808216916101009004168b565b6002546040516309ab24eb60e41b815233600482015260009182916001600160a01b0390911690639ab24eb090602401602060405180830381865afa15801561045b573d6000803e3d6000fd5b505050506040513d601f19601f8201168201806040525081019061047f9190610f5c565b905069021e19e0c9bab24000008110156104ec5760405162461bcd60e51b8152602060048201526024808201527f496e73756666696369656e7420766f74696e6720706f77657220746f2070726f604482015263706f736560e01b60648201526084015b60405180910390fd5b600380549060006104fc83610f8b565b909155505060035460008181526004602052604090209081556001810180546001600160a01b031916331790556002810161053887898361100b565b506003810161054885878361100b565b50426006820181905561055f906203f480906110cc565b60078201819055436008830155600354600683015460405191927f6c98a8c940418b35614f0cd02412d5c9606faff474cbb6cdd6640ba5d1a9f06b926105ac9233928d928d9291906110df565b60405180910390a2505060035495945050505050565b600081815260046020526040902060018101546001600160a01b03163314806105f557506000546001600160a01b031633145b6106325760405162461bcd60e51b815260206004820152600e60248201526d139bdd08185d5d1a1bdc9a5e995960921b60448201526064016104e3565b600981015460ff161561067a5760405162461bcd60e51b815260206004820152601060248201526f105b1c9958591e48195e1958dd5d195960821b60448201526064016104e3565b60098101805461ff00191661010017905560405182907f416e669c63d9a3a5e36ee7cc7e2104b8db28ccd286aa18966e98fa230c73b08c90600090a25050565b60008281526004602090815260408083206001600160a01b0385168452600a0190915290205460ff165b92915050565b6106f2610c0a565b6106fc6000610c37565b565b6000818152600460205260408120805482036107565760405162461bcd60e51b8152602060048201526017602482015276141c9bdc1bdcd85b08191bd95cc81b9bdd08195e1a5cdd604a1b60448201526064016104e3565b6009810154610100900460ff16156107715750600592915050565b600981015460ff16156107875750600492915050565b8060070154421161079b5750600192915050565b6000816005015482600401546107b191906110cc565b6002546008840154604051632394e7a360e21b81529293506000926001600160a01b0390921691638e539e8c916107ee9160040190815260200190565b602060405180830381865afa15801561080b573d6000803e3d6000fd5b505050506040513d601f19601f8201168201806040525081019061082f9190610f5c565b905060006064610840600484611130565b61084a9190611147565b9050808310156108605750600395945050505050565b83600501548460040154111561087c5750600295945050505050565b50600395945050505050565b610890610c87565b600082815260046020526040812080549091036108e95760405162461bcd60e51b8152602060048201526017602482015276141c9bdc1bdcd85b08191bd95cc81b9bdd08195e1a5cdd604a1b60448201526064016104e3565b80600601544210158015610901575080600701544211155b6109415760405162461bcd60e51b8152602060048201526011602482015270566f74696e67206e6f742061637469766560781b60448201526064016104e3565b336000908152600a8201602052604090205460ff16156109935760405162461bcd60e51b815260206004820152600d60248201526c105b1c9958591e481d9bdd1959609a1b60448201526064016104e3565b6002546008820154604051630748d63560e31b815233600482015260248101919091526000916001600160a01b031690633a46b1a890604401602060405180830381865afa1580156109e9573d6000803e3d6000fd5b505050506040513d601f19601f82011682018060405250810190610a0d9190610f5c565b905060008111610a5f5760405162461bcd60e51b815260206004820152601b60248201527f4e6f20766f74696e6720706f77657220617420736e617073686f74000000000060448201526064016104e3565b336000908152600a830160209081526040808320805460ff19166001179055600b850190915290208190558215610aaf5780826004016000828254610aa491906110cc565b90915550610ac99050565b80826005016000828254610ac391906110cc565b90915550505b60408051338152841515602082015290810182905284907fcbdf6214089cba887ecbf35a0b6a734589959c9763342c756bb2a80ca2bc9f6e9060600160405180910390a25050610b1860018055565b5050565b610b24610c0a565b6001600160a01b038116610b4e57604051631e4fbdf760e01b8152600060048201526024016104e3565b610b5781610c37565b50565b610b62610c0a565b6002610b6d826106fe565b6005811115610b7e57610b7e610e8d565b14610bc45760405162461bcd60e51b8152602060048201526016602482015275141c9bdc1bdcd85b081b9bdd081cdd58d8d95959195960521b60448201526064016104e3565b600081815260046020526040808220600901805460ff191660011790555182917f712ae1383f79ac853f8d882153778e0260ef8f03b504e2866e0593e04d2b291f91a250565b6000546001600160a01b031633146106fc5760405163118cdaa760e01b81523360048201526024016104e3565b600080546001600160a01b038381166001600160a01b0319831681178455604051919092169283917f8be0079c531659141344cd1fd0a4f28419497f9722a3daafe3b4186f6b6457e09190a35050565b600260015403610caa57604051633ee5aeb560e01b815260040160405180910390fd5b6002600155565b600060208284031215610cc357600080fd5b5035919050565b6000815180845260005b81811015610cf057602081850181015186830182015201610cd4565b506000602082860101526020601f19601f83011685010191505092915050565b8b81526001600160a01b038b16602082015261016060408201819052600090610d3b8382018d610cca565b90508281036060840152610d4f818c610cca565b608084019a909a52505060a081019690965260c086019490945260e08501929092526101008401521515610120830152151561014090910152949350505050565b60008083601f840112610da257600080fd5b50813567ffffffffffffffff811115610dba57600080fd5b602083019150836020828501011115610dd257600080fd5b9250929050565b60008060008060408587031215610def57600080fd5b843567ffffffffffffffff80821115610e0757600080fd5b610e1388838901610d90565b90965094506020870135915080821115610e2c57600080fd5b50610e3987828801610d90565b95989497509550505050565b80356001600160a01b0381168114610e5c57600080fd5b919050565b60008060408385031215610e7457600080fd5b82359150610e8460208401610e45565b90509250929050565b634e487b7160e01b600052602160045260246000fd5b6020810160068310610ec557634e487b7160e01b600052602160045260246000fd5b91905290565b60008060408385031215610ede57600080fd5b8235915060208301358015158114610ef557600080fd5b809150509250929050565b600060208284031215610f1257600080fd5b610f1b82610e45565b9392505050565b600181811c90821680610f3657607f821691505b602082108103610f5657634e487b7160e01b600052602260045260246000fd5b50919050565b600060208284031215610f6e57600080fd5b5051919050565b634e487b7160e01b600052601160045260246000fd5b600060018201610f9d57610f9d610f75565b5060010190565b634e487b7160e01b600052604160045260246000fd5b601f821115611006576000816000526020600020601f850160051c81016020861015610fe35750805b601f850160051c820191505b8181101561100257828155600101610fef565b5050505b505050565b67ffffffffffffffff83111561102357611023610fa4565b611037836110318354610f22565b83610fba565b6000601f84116001811461106b57600085156110535750838201355b600019600387901b1c1916600186901b1783556110c5565b600083815260209020601f19861690835b8281101561109c578685013582556020948501946001909201910161107c565b50868210156110b95760001960f88860031b161c19848701351681555b505060018560011b0183555b5050505050565b808201808211156106e4576106e4610f75565b6001600160a01b03861681526080602082018190528101849052838560a0830137600060a08583010152600060a0601f19601f87011683010190508360408301528260608301529695505050505050565b80820281158282048414176106e4576106e4610f75565b60008261116457634e487b7160e01b600052601260045260246000fd5b50049056fea2646970667358221220f9202a5b28ee5724225fb29f89b608c376f3b808741f24aa39f6473a7cf33dba64736f6c63430008180033",
  "linkReferences": {},
  "deployedLinkReferences": {}
}