{
  "_format": "hh-sol-artifact-1",
  "contractName": "GrepVesting",
  "sourceName": "contracts/GrepVesting.sol",
  "abi": [
    {
      "inputs": [
        {
          "internalType": "address",
          "name": "_grepToken",
          "type": "address"
        }
      ],
      "stateMutability": "nonpayable",
      "type": "constructor"
    },
    {
      "inputs": [
        {
          "internalType": "address",
          "name": "owner",
          "type": "address"
        }
      ],
      "name": "OwnableInvalidOwner",
      "type": "error"
    },
    {
      "inputs": [
        {
          "internalType": "address",
          "name": "account",
          "type": "address"
        }
      ],
      "name": "OwnableUnauthorizedAccount",
      "type": "error"
    },
    {
      "inputs": [],
      "name": "ReentrancyGuardReentrantCall",
      "type": "error"
    },
    {
      "inputs": [
        {
          "internalType": "address",
          "name": "token",
          "type": "address"
        }
      ],
      "name": "SafeERC20FailedOperation",
      "type": "error"
    },
    {
      "anonymous": false,
      "inputs": [
        {
          "indexed": true,
          "internalType": "address",
          "name": "previousOwner",
          "type": "address"
        },
        {
          "indexed": true,
          "internalType": "address",
          "name": "newOwner",
          "type": "address"
        }
      ],
      "name": "OwnershipTransferred",
      "type": "event"
    },
    {
      "anonymous": false,
      "inputs": [
        {
          "indexed": true,
          "internalType": "address",
          "name": "beneficiary",
          "type": "address"
        },
        {
          "indexed": false,
          "internalType": "uint256",
          "name": "amount",
          "type": "uint256"
        }
      ],
      "name": "TokensReleased",
      "type": "event"
    },
    {
      "anonymous": false,
      "inputs": [
        {
          "indexed": true,
          "internalType": "address",
          "name": "beneficiary",
          "type": "address"
        },
        {
          "indexed": false,
          "internalType": "uint256",
          "name": "unvestedAmount",
          "type": "uint256"
        }
      ],
      "name": "VestingRevoked",
      "type": "event"
    },
    {
      "anonymous": false,
      "inputs": [
        {
          "indexed": true,
          "internalType": "address",
          "name": "beneficiary",
          "type": "address"
        },
        {
          "indexed": false,
          "internalType": "uint256",
          "name": "amount",
          "type": "uint256"
        },
        {
          "indexed": false,
          "internalType": "uint256",
          "name": "startTime",
          "type": "uint256"
        },
        {
          "indexed": false,
          "internalType": "uint256",
          "name": "cliffDuration",
          "type": "uint256"
        },
        {
          "indexed": false,
          "internalType": "uint256",
          "name": "vestingDuration",
          "type": "uint256"
        },
        {
          "indexed": false,
          "internalType": "bool",
          "name": "revocable",
          "type": "bool"
        }
      ],
      "name": "VestingScheduleCreated",
      "type": "event"
    },
    {
      "inputs": [
        {
          "internalType": "address",
          "name": "beneficiary",
          "type": "address"
        },
        {
          "internalType": "uint256",
          "name": "amount",
          "type": "uint256"
        },
        {
          "internalType": "uint256",
          "name": "startTime",
          "type": "uint256"
        },
        {
          "internalType": "uint256",
          "name": "cliffDuration",
          "type": "uint256"
        },
        {
          "internalType": "uint256",
          "name": "vestingDuration",
          "type": "uint256"
        },
        {
          "internalType": "bool",
          "name": "revocable",
          "type": "bool"
        }
      ],
      "name": "createVestingSchedule",
      "outputs": [],
      "stateMutability": "nonpayable",
      "type": "function"
    },
    {
      "inputs": [
        {
          "internalType": "address",
          "name": "beneficiary",
          "type": "address"
        }
      ],
      "name": "getScheduleInfo",
      "outputs": [
        {
          "internalType": "uint256",
          "name": "total",
          "type": "uint256"
        },
        {
          "internalType": "uint256",
          "name": "vested",
          "type": "uint256"
        },
        {
          "internalType": "uint256",
          "name": "released",
          "type": "uint256"
        },
        {
          "internalType": "uint256",
          "name": "releasable",
          "type": "uint256"
        },
        {
          "internalType": "uint256",
          "name": "cliffEnd",
          "type": "uint256"
        },
        {
          "internalType": "uint256",
          "name": "vestingEnd",
          "type": "uint256"
        },
        {
          "internalType": "bool",
          "name": "isRevocable",
          "type": "bool"
        },
        {
          "internalType": "bool",
          "name": "isRevoked",
          "type": "bool"
        }
      ],
      "stateMutability": "view",
      "type": "function"
    },
    {
      "inputs": [],
      "name": "grepToken",
      "outputs": [
        {
          "internalType": "contract IERC20",
          "name": "",
          "type": "address"
        }
      ],
      "stateMutability": "view",
      "type": "function"
    },
    {
      "inputs": [],
      "name": "owner",
      "outputs": [
        {
          "internalType": "address",
          "name": "",
          "type": "address"
        }
      ],
      "stateMutability": "view",
      "type": "function"
    },
    {
      "inputs": [
        {
          "internalType": "address",
          "name": "beneficiary",
          "type": "address"
        }
      ],
      "name": "releasableAmount",
      "outputs": [
        {
          "internalType": "uint256",
          "name": "",
          "type": "uint256"
        }
      ],
      "stateMutability": "view",
      "type": "function"
    },
    {
      "inputs": [],
      "name": "release",
      "outputs": [],
      "stateMutability": "nonpayable",
      "type": "function"
    },
    {
      "inputs": [],
      "name": "renounceOwnership",
      "outputs": [],
      "stateMutability": "nonpayable",
      "type": "function"
    },
    {
      "inputs": [
        {
          "internalType": "address",
          "name": "beneficiary",
          "type": "address"
        }
      ],
      "name": "revoke",
      "outputs": [],
      "stateMutability": "nonpayable",
      "type": "function"
    },
    {
      "inputs": [
        {
          "internalType": "address",
          "name": "",
          "type": "address"
        }
      ],
      "name": "schedules",
      "outputs": [
        {
          "internalType": "uint256",
          "name": "totalAmount",
          "type": "uint256"
        },
        {
          "internalType": "uint256",
          "name": "startTime",
          "type": "uint256"
        },
        {
          "internalType": "uint256",
          "name": "cliffDuration",
          "type": "uint256"
        },
        {
          "internalType": "uint256",
          "name": "vestingDuration",
          "type": "uint256"
        },
        {
          "internalType": "uint256",
          "name": "released",
          "type": "uint256"
        },
        {
          "internalType": "bool",
          "name": "revocable",
          "type": "bool"
        },
        {
          "internalType": "bool",
          "name": "revoked",
          "type": "bool"
        }
      ],
      "stateMutability": "view",
      "type": "function"
    },
    {
      "inputs": [],
      "name": "totalReleased",
      "outputs": [
        {
          "internalType": "uint256",
          "name": "",
          "type": "uint256"
        }
      ],
      "stateMutability": "view",
      "type": "function"
    },
    {
      "inputs": [],
      "name": "totalVested",
      "outputs": [
        {
          "internalType": "uint256",
          "name": "",
          "type": "uint256"
        }
      ],
      "stateMutability": "view",
      "type": "function"
    },
    {
      "inputs": [
        {
          "internalType": "address",
          "name": "newOwner",
          "type": "address"
        }
      ],
      "name": "transferOwnership",
      "outputs": [],
      "stateMutability": "nonpayable",
      "type": "function"
    },
    {
      "inputs": [
        {
          "internalType": "address",
          "name": "beneficiary",
          "type": "address"
        }
      ],
      "name": "vestedAmount",
      "outputs": [
        {
          "internalType": "uint256",
          "name": "",
          "type": "uint256"
        }
      ],
      "stateMutability": "view",
      "type": "function"
    }
  ],
  "bytecode": "0x60a060405234801561001057600080fd5b5060405161108638038061108683398101604081905261002f9161011b565b338061005657604051631e4fbdf760e01b8152600060048201526024015b60405180910390fd5b61005f816100cb565b50600180556001600160a01b0381166100ba5760405162461bcd60e51b815260206004820152601560248201527f496e76616c696420746f6b656e20616464726573730000000000000000000000604482015260640161004d565b6001600160a01b031660805261014b565b600080546001600160a01b038381166001600160a01b0319831681178455604051919092169283917f8be0079c531659141344cd1fd0a4f28419497f9722a3daafe3b4186f6b6457e09190a35050565b60006020828403121561012d57600080fd5b81516001600160a01b038116811461014457600080fd5b9392505050565b608051610f0461018260003960008181610241015281816104dc0152818161057e0152818161072b01526109260152610f046000f3fe608060405234801561001057600080fd5b50600436106100cf5760003560e01c806380c3780f1161008c578063a999d1c711610066578063a999d1c71461023c578063aaad932114610263578063e33b7de314610276578063f2fde38b1461027f57600080fd5b806380c3780f1461018557806386d1a69f1461020f5780638da5cb5b1461021757600080fd5b80631726cbc8146100d4578063199cbc54146100fa57806336ccda4f14610103578063384711cc14610155578063715018a61461016857806374a8f10314610172575b600080fd5b6100e76100e2366004610ddd565b610292565b6040519081526020015b60405180910390f35b6100e760035481565b610116610111366004610ddd565b6102a3565b604080519889526020890197909752958701949094526060860192909252608085015260a0840152151560c0830152151560e0820152610100016100f1565b6100e7610163366004610ddd565b610338565b610170610343565b005b610170610180366004610ddd565b610357565b6101d6610193366004610ddd565b6002602081905260009182526040909120805460018201549282015460038301546004840154600590940154929493919290919060ff8082169161010090041687565b6040805197885260208801969096529486019390935260608501919091526080840152151560a0830152151560c082015260e0016100f1565b6101706105ef565b6000546001600160a01b03165b6040516001600160a01b0390911681526020016100f1565b6102247f000000000000000000000000000000000000000000000000000000000000000081565b610170610271366004610df8565b610792565b6100e760045481565b61017061028d366004610ddd565b610a9b565b600061029d82610ad9565b92915050565b6001600160a01b0381166000908152600260205260408120805491908190819081908190819081906102d48a610b2b565b9750806004015496506102e68a610ad9565b9550806002015481600101546102fc9190610e6f565b9450806003015481600101546103129190610e6f565b600590910154989a9799509597949693959460ff80821695610100909204169350915050565b600061029d82610b2b565b61034b610c06565b6103556000610c33565b565b61035f610c06565b6001600160a01b038116600090815260026020526040902080546103c05760405162461bcd60e51b81526020600482015260136024820152724e6f2076657374696e67207363686564756c6560681b60448201526064015b60405180910390fd5b600581015460ff166104045760405162461bcd60e51b815260206004820152600d60248201526c4e6f74207265766f6361626c6560981b60448201526064016103b7565b6005810154610100900460ff16156104505760405162461bcd60e51b815260206004820152600f60248201526e105b1c9958591e481c995d9bdad959608a1b60448201526064016103b7565b600061045b83610b2b565b9050600082600401548261046f9190610e82565b905060008284600001546104839190610e82565b60058501805461ff0019166101001790559050811561054757818460040160008282546104b09190610e6f565b9250508190555081600460008282546104c99190610e6f565b9091555061050390506001600160a01b037f0000000000000000000000000000000000000000000000000000000000000000168684610c83565b846001600160a01b03167fc7798891864187665ac6dd119286e44ec13f014527aeeb2b8eb3fd413df931798360405161053e91815260200190565b60405180910390a25b80156105a557806003600082825461055f9190610e82565b90915550506000546105a5906001600160a01b03166001600160a01b037f0000000000000000000000000000000000000000000000000000000000000000169083610c83565b846001600160a01b03167f57c76f5e278bfbd4eeb5207d287aa5a1a9e1113c65f7eefa540e379a2774d13b826040516105e091815260200190565b60405180910390a25050505050565b6105f7610ce7565b336000908152600260205260409020805461064a5760405162461bcd60e51b81526020600482015260136024820152724e6f2076657374696e67207363686564756c6560681b60448201526064016103b7565b6005810154610100900460ff16156106975760405162461bcd60e51b815260206004820152601060248201526f14d8da19591d5b19481c995d9bdad95960821b60448201526064016103b7565b60006106a233610ad9565b9050600081116106eb5760405162461bcd60e51b81526020600482015260146024820152734e6f20746f6b656e7320746f2072656c6561736560601b60448201526064016103b7565b808260040160008282546106ff9190610e6f565b9250508190555080600460008282546107189190610e6f565b9091555061075290506001600160a01b037f0000000000000000000000000000000000000000000000000000000000000000163383610c83565b60405181815233907fc7798891864187665ac6dd119286e44ec13f014527aeeb2b8eb3fd413df931799060200160405180910390a2505061035560018055565b61079a610c06565b6001600160a01b0386166107e65760405162461bcd60e51b8152602060048201526013602482015272496e76616c69642062656e656669636961727960681b60448201526064016103b7565b6000851161082b5760405162461bcd60e51b81526020600482015260126024820152710416d6f756e74206d757374206265203e20360741b60448201526064016103b7565b600082116108725760405162461bcd60e51b815260206004820152601460248201527304475726174696f6e206d757374206265203e20360641b60448201526064016103b7565b818311156108b55760405162461bcd60e51b815260206004820152601060248201526f21b634b333101f10323ab930ba34b7b760811b60448201526064016103b7565b6001600160a01b0386166000908152600260205260409020541561090d5760405162461bcd60e51b815260206004820152600f60248201526e5363686564756c652065786973747360881b60448201526064016103b7565b83600003610919574293505b61094e6001600160a01b037f000000000000000000000000000000000000000000000000000000000000000016333088610d11565b6040518060e001604052808681526020018581526020018481526020018381526020016000815260200182151581526020016000151581525060026000886001600160a01b03166001600160a01b03168152602001908152602001600020600082015181600001556020820151816001015560408201518160020155606082015181600301556080820151816004015560a08201518160050160006101000a81548160ff02191690831515021790555060c08201518160050160016101000a81548160ff0219169083151502179055509050508460036000828254610a339190610e6f565b909155505060408051868152602081018690529081018490526060810183905281151560808201526001600160a01b038716907fe8bb157fbcf731c01df93034e88d616c22e879d6ed11ef45bd93c38312f12a199060a00160405180910390a2505050505050565b610aa3610c06565b6001600160a01b038116610acd57604051631e4fbdf760e01b8152600060048201526024016103b7565b610ad681610c33565b50565b6001600160a01b03811660009081526002602052604081206005810154610100900460ff1615610b0c5750600092915050565b8060040154610b1a84610b2b565b610b249190610e82565b9392505050565b6001600160a01b038116600090815260026020526040812080548203610b545750600092915050565b6005810154610100900460ff1615610b70576004015492915050565b600281015460018201544291600091610b899190610e6f565b905080821015610b9e57506000949350505050565b600083600301548460010154610bb49190610e6f565b9050808310610bc857505090549392505050565b6000846001015484610bda9190610e82565b90508460030154818660000154610bf19190610e95565b610bfb9190610eac565b979650505050505050565b6000546001600160a01b031633146103555760405163118cdaa760e01b81523360048201526024016103b7565b600080546001600160a01b038381166001600160a01b0319831681178455604051919092169283917f8be0079c531659141344cd1fd0a4f28419497f9722a3daafe3b4186f6b6457e09190a35050565b6040516001600160a01b03838116602483015260448201839052610ce291859182169063a9059cbb906064015b604051602081830303815290604052915060e01b6020820180516001600160e01b038381831617835250505050610d50565b505050565b600260015403610d0a57604051633ee5aeb560e01b815260040160405180910390fd5b6002600155565b6040516001600160a01b038481166024830152838116604483015260648201839052610d4a9186918216906323b872dd90608401610cb0565b50505050565b600080602060008451602086016000885af180610d73576040513d6000823e3d81fd5b50506000513d91508115610d8b578060011415610d98565b6001600160a01b0384163b155b15610d4a57604051635274afe760e01b81526001600160a01b03851660048201526024016103b7565b80356001600160a01b0381168114610dd857600080fd5b919050565b600060208284031215610def57600080fd5b610b2482610dc1565b60008060008060008060c08789031215610e1157600080fd5b610e1a87610dc1565b95506020870135945060408701359350606087013592506080870135915060a08701358015158114610e4b57600080fd5b809150509295509295509295565b634e487b7160e01b600052601160045260246000fd5b8082018082111561029d5761029d610e59565b8181038181111561029d5761029d610e59565b808202811582820484141761029d5761029d610e59565b600082610ec957634e487b7160e01b600052601260045260246000fd5b50049056fea264697066735822122021a6da99bc53c5437ccb54af78403d6b031625364d10782316a239a469be6e4964736f6c63430008180033",
  "linkReferences": {},
  "deployedLinkReferences": {}
}